{
    "contractName": "time",
    "abi": [
        {
            "inputs": [],
            "stateMutability": "nonpayable",
            "type": "constructor"
        },
        {
            "inputs": [],
            "name": "ammountBorrow",
            "outputs": [
                {
                    "internalType": "uint256",
                    "name": "",
                    "type": "uint256"
                }
            ],
            "stateMutability": "view",
            "type": "function"
        },
        {
            "inputs": [],
            "name": "coinXsecont",
            "outputs": [
                {
                    "internalType": "uint256",
                    "name": "",
                    "type": "uint256"
                }
            ],
            "stateMutability": "nonpayable",
            "type": "function"
        },
        {
            "inputs": [],
            "name": "differentTIme",
            "outputs": [
                {
                    "internalType": "uint256",
                    "name": "",
                    "type": "uint256"
                }
            ],
            "stateMutability": "view",
            "type": "function"
        },
        {
            "inputs": [],
            "name": "interestXamounSecont",
            "outputs": [
                {
                    "internalType": "uint256",
                    "name": "",
                    "type": "uint256"
                },
                {
                    "internalType": "uint256",
                    "name": "",
                    "type": "uint256"
                }
            ],
            "stateMutability": "view",
            "type": "function"
        },
        {
            "inputs": [],
            "name": "returnTimestamp",
            "outputs": [
                {
                    "internalType": "uint256",
                    "name": "",
                    "type": "uint256"
                }
            ],
            "stateMutability": "view",
            "type": "function"
        }
    ],
    "bytecode": "6080604052683635c9adc5dea00000600055611b586001556276a70060025534801561002a57600080fd5b50426003556101dd8061003e6000396000f3fe608060405234801561001057600080fd5b50600436106100575760003560e01c8063143914241461005c5780631e633a7314610078578063443dedf31461007e57806346a793f114610086578063b42663c11461008e575b600080fd5b61006560045481565b6040519081526020015b60405180910390f35b42610065565b6100656100ab565b6100656100c0565b610096610114565b6040805192835260208301919091520161006f565b6000600354426100bb919061017a565b905090565b60035460009042906301da9c00906100d8908361017a565b6103e86001546100e89190610139565b6000546100f5919061015b565b6100ff919061015b565b6101099190610139565b600481905592915050565b60008060006101216100ab565b905080600454610131919061015b565b939092509050565b60008261015657634e487b7160e01b600052601260045260246000fd5b500490565b600081600019048311821515161561017557610175610191565b500290565b60008282101561018c5761018c610191565b500390565b634e487b7160e01b600052601160045260246000fdfea264697066735822122033b195070b3dc88cd585e9e6e35b73ae4254308f490c1492ea43091ed0f4681064736f6c63430008070033",
    "sourcePath": "/media/leluk/storage/Studio Dev/Dapp portfolio/individual lending/contracts/interestRate.sol",
    "compiler": {
        "name": "solc",
        "version": "0.8.7+commit.e28d00a7"
    },
    "functionHashes": {
        "ammountBorrow()": "14391424",
        "coinXsecont()": "46a793f1",
        "differentTIme()": "443dedf3",
        "interestXamounSecont()": "b42663c1",
        "returnTimestamp()": "1e633a73"
    },
    "gasEstimates": {
        "creation": {
            "codeDepositCost": "95400",
            "executionCost": "88564",
            "totalCost": "183964"
        },
        "external": {
            "ammountBorrow()": "2262",
            "coinXsecont()": "infinite",
            "differentTIme()": "2395",
            "interestXamounSecont()": "4726",
            "returnTimestamp()": "180"
        }
    }
}