{
  "contractName": "CoreFunction",
  "abi": [
    {
      "anonymous": false,
      "inputs": [
        {
          "indexed": true,
          "internalType": "address",
          "name": "previousOwner",
          "type": "address"
        },
        {
          "indexed": true,
          "internalType": "address",
          "name": "newOwner",
          "type": "address"
        }
      ],
      "name": "OwnershipTransferred",
      "type": "event"
    },
    {
      "anonymous": false,
      "inputs": [
        {
          "indexed": true,
          "internalType": "address",
          "name": "asset",
          "type": "address"
        },
        {
          "indexed": false,
          "internalType": "uint256",
          "name": "amount",
          "type": "uint256"
        }
      ],
      "name": "widrowFeeEvent",
      "type": "event"
    },
    {
      "inputs": [
        {
          "internalType": "address",
          "name": "_priceFeed",
          "type": "address"
        }
      ],
      "name": "getLatestPrice",
      "outputs": [
        {
          "internalType": "int256",
          "name": "",
          "type": "int256"
        }
      ],
      "stateMutability": "view",
      "type": "function"
    },
    {
      "inputs": [
        {
          "internalType": "address",
          "name": "",
          "type": "address"
        }
      ],
      "name": "mockprice",
      "outputs": [
        {
          "internalType": "uint256",
          "name": "",
          "type": "uint256"
        }
      ],
      "stateMutability": "view",
      "type": "function"
    },
    {
      "inputs": [],
      "name": "owner",
      "outputs": [
        {
          "internalType": "address",
          "name": "",
          "type": "address"
        }
      ],
      "stateMutability": "view",
      "type": "function"
    },
    {
      "inputs": [],
      "name": "renounceOwnership",
      "outputs": [],
      "stateMutability": "nonpayable",
      "type": "function"
    },
    {
      "inputs": [
        {
          "internalType": "address",
          "name": "newOwner",
          "type": "address"
        }
      ],
      "name": "transferOwnership",
      "outputs": [],
      "stateMutability": "nonpayable",
      "type": "function"
    },
    {
      "inputs": [
        {
          "internalType": "address",
          "name": "_asset",
          "type": "address"
        }
      ],
      "name": "widrowFeeContract",
      "outputs": [],
      "stateMutability": "nonpayable",
      "type": "function"
    },
    {
      "inputs": [
        {
          "internalType": "address",
          "name": "_asset",
          "type": "address"
        },
        {
          "internalType": "uint256",
          "name": "_price",
          "type": "uint256"
        }
      ],
      "name": "setMockPrice",
      "outputs": [],
      "stateMutability": "nonpayable",
      "type": "function"
    },
    {
      "inputs": [
        {
          "internalType": "address",
          "name": "_to",
          "type": "address"
        },
        {
          "internalType": "uint256",
          "name": "_idContract",
          "type": "uint256"
        },
        {
          "internalType": "uint256",
          "name": "_time",
          "type": "uint256"
        }
      ],
      "name": "setTimeExpire",
      "outputs": [],
      "stateMutability": "nonpayable",
      "type": "function"
    },
    {
      "inputs": [
        {
          "internalType": "address",
          "name": "_asset",
          "type": "address"
        },
        {
          "internalType": "address",
          "name": "_addressPriceFeed",
          "type": "address"
        }
      ],
      "name": "addAddressPriceeFeed",
      "outputs": [],
      "stateMutability": "nonpayable",
      "type": "function"
    }
  ],
  "bytecode": "0x608060405234801561001057600080fd5b5061001a33610024565b6001600b55610076565b600a80546001600160a01b038381166001600160a01b0319831681179093556040519116919082907f8be0079c531659141344cd1fd0a4f28419497f9722a3daafe3b4186f6b6457e090600090a35050565b6109b6806100856000396000f3fe608060405234801561001057600080fd5b50600436106100a35760003560e01c80637ecf43b911610076578063cfb4d8851161005b578063cfb4d88514610139578063f2fde38b14610163578063facd53ff1461017657600080fd5b80637ecf43b91461010b5780638da5cb5b1461011e57600080fd5b80630f901860146100a857806316345f18146100bd5780632690046d146100e3578063715018a614610103575b600080fd5b6100bb6100b63660046107fd565b610189565b005b6100d06100cb3660046107fd565b610251565b6040519081526020015b60405180910390f35b6100d06100f13660046107fd565b600c6020526000908152604090205481565b6100bb6102d7565b6100bb61011936600461087c565b61033d565b600a546040516001600160a01b0390911681526020016100da565b6100bb610147366004610852565b6001600160a01b039091166000908152600c6020526040902055565b6100bb6101713660046107fd565b61037d565b6100bb61018436600461081f565b61045f565b600a546001600160a01b031633146101e85760405162461bcd60e51b815260206004820181905260248201527f4f776e61626c653a2063616c6c6572206973206e6f7420746865206f776e657260448201526064015b60405180910390fd5b6002600b54141561023b5760405162461bcd60e51b815260206004820152601f60248201527f5265656e7472616e637947756172643a207265656e7472616e742063616c6c0060448201526064016101df565b6002600b55610249816104c7565b506001600b55565b6000808290506000816001600160a01b031663feaf968c6040518163ffffffff1660e01b815260040160a06040518083038186803b15801561029257600080fd5b505afa1580156102a6573d6000803e3d6000fd5b505050506040513d601f19601f820116820180604052508101906102ca91906108d1565b5091979650505050505050565b600a546001600160a01b031633146103315760405162461bcd60e51b815260206004820181905260248201527f4f776e61626c653a2063616c6c6572206973206e6f7420746865206f776e657260448201526064016101df565b61033b60006105dc565b565b6001600160a01b038316600090815260026020908152604080832085845290915281206005018054839290610373908490610921565b9091555050505050565b600a546001600160a01b031633146103d75760405162461bcd60e51b815260206004820181905260248201527f4f776e61626c653a2063616c6c6572206973206e6f7420746865206f776e657260448201526064016101df565b6001600160a01b0381166104535760405162461bcd60e51b815260206004820152602660248201527f4f776e61626c653a206e6577206f776e657220697320746865207a65726f206160448201527f646472657373000000000000000000000000000000000000000000000000000060648201526084016101df565b61045c816105dc565b50565b600a546001600160a01b031633146104b95760405162461bcd60e51b815260206004820181905260248201527f4f776e61626c653a2063616c6c6572206973206e6f7420746865206f776e657260448201526064016101df565b6104c3828261063b565b5050565b6001600160a01b038116600081815260086020526040812080549190559063a9059cbb6104fc600a546001600160a01b031690565b6040517fffffffff0000000000000000000000000000000000000000000000000000000060e084901b1681526001600160a01b03909116600482015260248101849052604401602060405180830381600087803b15801561055c57600080fd5b505af1158015610570573d6000803e3d6000fd5b505050506040513d601f19601f8201168201806040525081019061059491906108af565b50816001600160a01b03167fb5421d97828b089e7660952a6dbdd122d3dde17a9629a0f6218fd9cc08885b85826040516105d091815260200190565b60405180910390a25050565b600a80546001600160a01b0383811673ffffffffffffffffffffffffffffffffffffffff19831681179093556040519116919082907f8be0079c531659141344cd1fd0a4f28419497f9722a3daafe3b4186f6b6457e090600090a35050565b6001600160a01b0382161580159061065b57506001600160a01b03811615155b6106a75760405162461bcd60e51b815260206004820152601360248201527f53657420636f727265637420616464726573730000000000000000000000000060448201526064016101df565b6106b08261075d565b6107225760405162461bcd60e51b815260206004820152602d60248201527f696e73657274206e6577206173736574206265666f726520736574206164647260448201527f657373205072696365466565640000000000000000000000000000000000000060648201526084016101df565b6001600160a01b039182166000908152600960205260409020805473ffffffffffffffffffffffffffffffffffffffff191691909216179055565b6000805b6000548110156107be57826001600160a01b0316600082815481106107885761078861096a565b6000918252602090912001546001600160a01b031614156107ac5750600192915050565b806107b681610939565b915050610761565b50600092915050565b80356001600160a01b03811681146107de57600080fd5b919050565b805169ffffffffffffffffffff811681146107de57600080fd5b60006020828403121561080f57600080fd5b610818826107c7565b9392505050565b6000806040838503121561083257600080fd5b61083b836107c7565b9150610849602084016107c7565b90509250929050565b6000806040838503121561086557600080fd5b61086e836107c7565b946020939093013593505050565b60008060006060848603121561089157600080fd5b61089a846107c7565b95602085013595506040909401359392505050565b6000602082840312156108c157600080fd5b8151801515811461081857600080fd5b600080600080600060a086880312156108e957600080fd5b6108f2866107e3565b9450602086015193506040860151925060608601519150610915608087016107e3565b90509295509295909350565b6000821982111561093457610934610954565b500190565b600060001982141561094d5761094d610954565b5060010190565b634e487b7160e01b600052601160045260246000fd5b634e487b7160e01b600052603260045260246000fdfea2646970667358221220139ca9f4a401bf45885843afa38138c65bfa8d4c35597f666e7869fac9d5383f64736f6c63430008070033",
  "immutableReferences": {},
  "source": "// SPDX-License-Identifier: Leluk911\n\npragma solidity 0.8.7;\n\nimport \"../node_modules/@openzeppelin/contracts/token/ERC20/IERC20.sol\";\nimport \"../node_modules/@openzeppelin/contracts/access/Ownable.sol\";\nimport \"../node_modules/@openzeppelin/contracts/utils/Counters.sol\";\nimport \"../node_modules/@openzeppelin/contracts/security/ReentrancyGuard.sol\";\nimport \"./storage.sol\";\nimport \"./interestCalculator.sol\";\nimport \"../node_modules/@openzeppelin/contracts/utils/math/SafeCast.sol\";\nimport \"./chainlinkUtils/AggregatorV3.sol\";\n\ncontract CoreFunction is Storage,Ownable,ReentrancyGuard,PriceConsumerV3 {\n    //library\n\n    using Counters for Counters.Counter;\n    //function variable\n    \n    //-------------------------------//\n  \n    // INTERNAL FUNCTION \n    function _setAssettAvvalible(address _newAsset) internal{\n        require(_newAsset != address(0), \"invalid address\");\n        require(!_findAsset(_newAsset),\"Assett already in list\");\n        assetAvvalible.push(_newAsset);\n           \n    }\n    function _healFactor(uint _valueCollateral, uint _valueBorrow) internal pure returns(uint){\n        return (_valueCollateral/_valueBorrow);\n    }\n    function _liquidationThresold(\n         uint _valueLoan,\n         uint _rateLiquidation,\n         uint _amountCollateral) internal pure returns(uint){\n        return (\n\n             //loan *rate => ltv / total collateral\n            (_valueLoan * _rateLiquidation)/_amountCollateral\n\n           \n          \n            //_priceBorrowEth * _rateLiquidation \n\n        );\n    }\n    //-----> Serch function  \n    function _findAsset(address _asset) internal view returns(bool){\n        for(uint i = 0; i<assetAvvalible.length; i++){\n            if(assetAvvalible[i]==_asset){\n                return true;\n            }\n        }\n        return false;\n    }\n    function _getAssettAvvalible()internal view returns (address[] memory ){\n        return assetAvvalible; \n    }\n    function _widrowFeeContract(address _asset)internal {\n      uint widrow = balanceFee[_asset];\n      balanceFee[_asset] = 0;\n      IERC20(_asset).transfer(owner(),widrow);\n      emit widrowFeeEvent(_asset, widrow);\n    }\n       //-----> Search function user \n    function _listContractXuser(address _user) internal view returns(uint[] memory){\n       return listContractUser[_user];\n    }\n    function _findContractLending(address _to,uint _id)internal view returns(LendingContract memory){\n        return userLendingContract[_to][_id];\n    }\n     function _findArrayindexContract(address _to,uint _Id)internal view returns(uint,bool){\n            for(uint i=0 ;i<listContractUser[_to].length;i++){\n                if (_Id == listContractUser[_to][i]){\n                    return (i,true);\n                }\n            }\n            return (0,false);\n  \n    }\n    function _findContractAvvalible(uint _IdFind)internal view returns(uint,bool){\n         for(uint i=0 ;i<listContract.length;i++){\n             if (_IdFind == listContract[i]){\n                return (i,true);\n             }\n         }\n        return (0,false); \n    }\n     //------> Search function Borrower\n    function _serchIndexBorrowerXContract(uint _idContract,address _borrower) internal view returns(bool,uint){\n      for(uint i =0; i<borrowersXid[_idContract].length;i++ ){\n          if(borrowersXid[_idContract][i].owner == _borrower){\n              return (true,i);\n          }\n      }\n      return (false,0);\n    }\n    function _serchBorrowerPositionXContract(uint _idContract,address _borrower) internal view returns(Borrower memory){\n       for(uint i =0; i<borrowersXid[_idContract].length;i++ ){\n           if(borrowersXid[_idContract][i].owner == _borrower){\n               return (borrowersXid[_idContract][i]);\n           }\n       }\n       revert(\"Borrower for this contract not present\");\n    }\n\n     event widrowFeeEvent(address indexed asset,uint amount);\n\n    function widrowFeeContract(address _asset)external onlyOwner() nonReentrant(){\n        _widrowFeeContract(_asset);\n    }\n\n    // FUNCTION SET PRICE FEED //\n   \n    function _addAddressPriceeFeed(address _asset,address _addressPriceFeed) internal {\n        require(_asset != address(0) && _addressPriceFeed != address(0), \"Set correct address\" );\n        require(_findAsset(_asset),\"insert new asset before set address PriceFeed\");\n        addressPriceFeed[_asset] = _addressPriceFeed;\n    }\n\n    //mock oracle\n    mapping(address=>uint) public mockprice;\n    function setMockPrice(address _asset,uint _price) public{\n        mockprice[_asset] = _price;\n    }\n\n    function setTimeExpire(address _to,uint _idContract,uint _time) external{\n        userLendingContract[_to][_idContract].duration += _time; \n    }\n\n\n\n    /////\n\n\n\n    function oraclePrice(address _asset)internal view returns(uint) {\n        //return (SafeCast.toUint256(getLatestPrice(addressPriceFeed[_asset])))*10**10; \n        \n        ////mock\n        return mockprice[_asset];\n        ///\n    }\n\n\n    function addAddressPriceeFeed(address _asset,address _addressPriceFeed) external onlyOwner(){\n        _addAddressPriceeFeed(_asset,_addressPriceFeed);\n    }\n\n\n\n}\n\n\n\n\n\n\n/**\n    weth = 1.100$\n\n\n    prendo in prestito 20.000 usdc e do a collaterale con un fattore di 3  60 weth ( prezzo 1.000  minimo) \n\n\n    valore 66k\n    loan *rate => ltv / total collateral\n    20.000 * 3 => 60.000 / amount weth\n\n\n\n */",
  "sourcePath": "/media/leluk/storage/Studio Dev/Dapp portfolio/individual lending/contracts/coreFunction.sol",
  "compiler": {
    "name": "solc",
    "version": "0.8.7+commit.e28d00a7.Emscripten.clang"
  },
  "schemaVersion": "3.4.7",
  "updatedAt": "2022-07-03T18:48:14.561Z",
  "devdoc": {
    "kind": "dev",
    "methods": {
      "owner()": {
        "details": "Returns the address of the current owner."
      },
      "renounceOwnership()": {
        "details": "Leaves the contract without owner. It will not be possible to call `onlyOwner` functions anymore. Can only be called by the current owner. NOTE: Renouncing ownership will leave the contract without an owner, thereby removing any functionality that is only available to the owner."
      },
      "transferOwnership(address)": {
        "details": "Transfers ownership of the contract to a new account (`newOwner`). Can only be called by the current owner."
      }
    },
    "version": 1
  },
  "userdoc": {
    "kind": "user",
    "methods": {},
    "version": 1
  }
}