{
  "contractName": "CoreFunction",
  "abi": [
    {
      "anonymous": false,
      "inputs": [
        {
          "indexed": true,
          "internalType": "address",
          "name": "previousOwner",
          "type": "address"
        },
        {
          "indexed": true,
          "internalType": "address",
          "name": "newOwner",
          "type": "address"
        }
      ],
      "name": "OwnershipTransferred",
      "type": "event"
    },
    {
      "anonymous": false,
      "inputs": [
        {
          "indexed": true,
          "internalType": "address",
          "name": "asset",
          "type": "address"
        },
        {
          "indexed": false,
          "internalType": "uint256",
          "name": "amount",
          "type": "uint256"
        }
      ],
      "name": "widrowFeeEvent",
      "type": "event"
    },
    {
      "inputs": [
        {
          "internalType": "address",
          "name": "_priceFeed",
          "type": "address"
        }
      ],
      "name": "getLatestPrice",
      "outputs": [
        {
          "internalType": "int256",
          "name": "",
          "type": "int256"
        }
      ],
      "stateMutability": "view",
      "type": "function"
    },
    {
      "inputs": [],
      "name": "owner",
      "outputs": [
        {
          "internalType": "address",
          "name": "",
          "type": "address"
        }
      ],
      "stateMutability": "view",
      "type": "function"
    },
    {
      "inputs": [],
      "name": "renounceOwnership",
      "outputs": [],
      "stateMutability": "nonpayable",
      "type": "function"
    },
    {
      "inputs": [
        {
          "internalType": "address",
          "name": "newOwner",
          "type": "address"
        }
      ],
      "name": "transferOwnership",
      "outputs": [],
      "stateMutability": "nonpayable",
      "type": "function"
    },
    {
      "inputs": [
        {
          "internalType": "address",
          "name": "_asset",
          "type": "address"
        },
        {
          "internalType": "address",
          "name": "_addressPriceFeed",
          "type": "address"
        }
      ],
      "name": "addAddressPriceeFeed",
      "outputs": [],
      "stateMutability": "nonpayable",
      "type": "function"
    }
  ],
  "bytecode": "0x608060405234801561001057600080fd5b5061001a33610024565b6001600b55610076565b600a80546001600160a01b038381166001600160a01b0319831681179093556040519116919082907f8be0079c531659141344cd1fd0a4f28419497f9722a3daafe3b4186f6b6457e090600090a35050565b610653806100856000396000f3fe608060405234801561001057600080fd5b50600436106100675760003560e01c80638da5cb5b116100505780638da5cb5b1461009c578063f2fde38b146100b7578063facd53ff146100ca57600080fd5b806316345f181461006c578063715018a614610092575b600080fd5b61007f61007a366004610539565b6100dd565b6040519081526020015b60405180910390f35b61009a610163565b005b600a546040516001600160a01b039091168152602001610089565b61009a6100c5366004610539565b6101ce565b61009a6100d836600461055b565b6102b0565b6000808290506000816001600160a01b031663feaf968c6040518163ffffffff1660e01b815260040160a06040518083038186803b15801561011e57600080fd5b505afa158015610132573d6000803e3d6000fd5b505050506040513d601f19601f82011682018060405250810190610156919061058e565b5091979650505050505050565b600a546001600160a01b031633146101c25760405162461bcd60e51b815260206004820181905260248201527f4f776e61626c653a2063616c6c6572206973206e6f7420746865206f776e657260448201526064015b60405180910390fd5b6101cc6000610318565b565b600a546001600160a01b031633146102285760405162461bcd60e51b815260206004820181905260248201527f4f776e61626c653a2063616c6c6572206973206e6f7420746865206f776e657260448201526064016101b9565b6001600160a01b0381166102a45760405162461bcd60e51b815260206004820152602660248201527f4f776e61626c653a206e6577206f776e657220697320746865207a65726f206160448201527f646472657373000000000000000000000000000000000000000000000000000060648201526084016101b9565b6102ad81610318565b50565b600a546001600160a01b0316331461030a5760405162461bcd60e51b815260206004820181905260248201527f4f776e61626c653a2063616c6c6572206973206e6f7420746865206f776e657260448201526064016101b9565b6103148282610377565b5050565b600a80546001600160a01b0383811673ffffffffffffffffffffffffffffffffffffffff19831681179093556040519116919082907f8be0079c531659141344cd1fd0a4f28419497f9722a3daafe3b4186f6b6457e090600090a35050565b6001600160a01b0382161580159061039757506001600160a01b03811615155b6103e35760405162461bcd60e51b815260206004820152601360248201527f53657420636f727265637420616464726573730000000000000000000000000060448201526064016101b9565b6103ec82610499565b61045e5760405162461bcd60e51b815260206004820152602d60248201527f696e73657274206e6577206173736574206265666f726520736574206164647260448201527f657373205072696365466565640000000000000000000000000000000000000060648201526084016101b9565b6001600160a01b039182166000908152600960205260409020805473ffffffffffffffffffffffffffffffffffffffff191691909216179055565b6000805b6000548110156104fa57826001600160a01b0316600082815481106104c4576104c4610607565b6000918252602090912001546001600160a01b031614156104e85750600192915050565b806104f2816105de565b91505061049d565b50600092915050565b80356001600160a01b038116811461051a57600080fd5b919050565b805169ffffffffffffffffffff8116811461051a57600080fd5b60006020828403121561054b57600080fd5b61055482610503565b9392505050565b6000806040838503121561056e57600080fd5b61057783610503565b915061058560208401610503565b90509250929050565b600080600080600060a086880312156105a657600080fd5b6105af8661051f565b94506020860151935060408601519250606086015191506105d26080870161051f565b90509295509295909350565b600060001982141561060057634e487b7160e01b600052601160045260246000fd5b5060010190565b634e487b7160e01b600052603260045260246000fdfea2646970667358221220101b4402f3be5dcdbf595df84fc0d1f8d00e745390ffe80d85aba5b1747ac00e64736f6c63430008070033",
  "immutableReferences": {},
  "source": "// SPDX-License-Identifier: Leluk911\n\npragma solidity 0.8.7;\n\nimport \"../node_modules/@openzeppelin/contracts/token/ERC20/IERC20.sol\";\nimport \"../node_modules/@openzeppelin/contracts/access/Ownable.sol\";\nimport \"../node_modules/@openzeppelin/contracts/utils/Counters.sol\";\nimport \"../node_modules/@openzeppelin/contracts/security/ReentrancyGuard.sol\";\nimport \"./storage.sol\";\nimport \"./interestCalculator.sol\";\nimport \"../node_modules/@openzeppelin/contracts/utils/math/SafeCast.sol\";\nimport \"./chainlinkUtils/AggregatorV3.sol\";\n\ncontract CoreFunction is Storage,Ownable,ReentrancyGuard,PriceConsumerV3 {\n    //library\n\n    using Counters for Counters.Counter;\n    //function variable\n    \n    //-------------------------------//\n  \n    // INTERNAL FUNCTION \n    function _setAssettAvvalible(address _newAsset) internal{\n        require(_newAsset != address(0), \"invalid address\");\n        require(!_findAsset(_newAsset),\"Assett already in list\");\n        assetAvvalible.push(_newAsset);\n           \n    }\n    function _healFactor(uint _priceCollateralETH, uint _priceBorrowEth) internal pure returns(uint){\n        return (_priceCollateralETH/_priceBorrowEth);\n    }\n    function _liquidationThresold( uint _priceBorrowEth,uint _rateLiquidation) internal pure returns(uint){\n        return (\n            //uint _priceCollateralETH,\n            //(_priceCollateralETH * _priceBorrowEth)/(_rateLiquidation * _priceBorrowEth)\n            _priceBorrowEth * _rateLiquidation \n\n        );\n    }\n    //-----> Serch function  \n    function _findAsset(address _asset) internal view returns(bool){\n        for(uint i = 0; i<assetAvvalible.length; i++){\n            if(assetAvvalible[i]==_asset){\n                return true;\n            }\n        }\n        return false;\n    }\n    function _getAssettAvvalible()internal view returns (address[] memory ){\n        return assetAvvalible; \n    }\n    function _widrowFeeContract(address _asset)internal onlyOwner(){\n      uint widrow = balanceFee[_asset];\n      balanceFee[_asset] = 0;\n      IERC20(_asset).transfer(owner(),widrow);\n      emit widrowFeeEvent(_asset, widrow);\n    }\n       //-----> Search function user \n    function _listContractXuser(address _user) internal view returns(uint[] memory){\n       return listContractUser[_user];\n    }\n    function _findContractLending(address _to,uint _id)internal view returns(LendingContract memory){\n        return userLendingContract[_to][_id];\n    }\n     function _findArrayindexContract(address _to,uint deleteId)internal view returns(uint,bool){\n            for(uint i=0 ;i<listContractUser[_to].length;i++){\n                if (deleteId == listContractUser[_to][i]){\n                    return (i,true);\n                }\n            }\n            return (0,false);\n  \n    }\n    function _findContractAvvalible(uint _IdFind)internal view returns(uint,bool){\n         for(uint i=0 ;i<listContract.length;i++){\n             if (_IdFind == listContract[i]){\n                return (i,true);\n             }\n         }\n        return (0,false); \n    }\n     //------> Search function Borrower\n    function _serchIndexBorrowerXContract(uint _idContract,address _borrower) internal view returns(bool,uint){\n      for(uint i =0; i<borrowersXid[_idContract].length;i++ ){\n          if(borrowersXid[_idContract][i].owner == _borrower){\n              return (true,i);\n          }\n      }\n      return (false,0);\n    }\n    function _serchBorrowerPositionXContract(uint _idContract,address _borrower) internal view returns(Borrower memory){\n       for(uint i =0; i<borrowersXid[_idContract].length;i++ ){\n           if(borrowersXid[_idContract][i].owner == _borrower){\n               return (borrowersXid[_idContract][i]);\n           }\n       }\n       revert(\"Borrower for this contract not present\");\n    }\n\n     event widrowFeeEvent(address indexed asset,uint amount);\n\n\n\n\n    // FUNCTION SET PRICE FEED //\n   \n    function _addAddressPriceeFeed(address _asset,address _addressPriceFeed) internal {\n        require(_asset != address(0) && _addressPriceFeed != address(0), \"Set correct address\" );\n        require(_findAsset(_asset),\"insert new asset before set address PriceFeed\");\n        addressPriceFeed[_asset] = _addressPriceFeed;\n    }\n\n    function oraclePrice(address _asset)internal view returns(uint) {\n        return SafeCast.toUint256(getLatestPrice(addressPriceFeed[_asset])); \n    }\n\n\n    function addAddressPriceeFeed(address _asset,address _addressPriceFeed) external onlyOwner(){\n        _addAddressPriceeFeed(_asset,_addressPriceFeed);\n    }\n\n\n\n}",
  "sourcePath": "/media/leluk/storage/Studio Dev/Dapp portfolio/individual lending/contracts/coreFunction.sol",
  "compiler": {
    "name": "solc",
    "version": "0.8.7+commit.e28d00a7.Emscripten.clang"
  },
  "schemaVersion": "3.4.7",
  "updatedAt": "2022-06-29T18:37:11.305Z",
  "devdoc": {
    "kind": "dev",
    "methods": {
      "owner()": {
        "details": "Returns the address of the current owner."
      },
      "renounceOwnership()": {
        "details": "Leaves the contract without owner. It will not be possible to call `onlyOwner` functions anymore. Can only be called by the current owner. NOTE: Renouncing ownership will leave the contract without an owner, thereby removing any functionality that is only available to the owner."
      },
      "transferOwnership(address)": {
        "details": "Transfers ownership of the contract to a new account (`newOwner`). Can only be called by the current owner."
      }
    },
    "version": 1
  },
  "userdoc": {
    "kind": "user",
    "methods": {},
    "version": 1
  }
}