{
  "contractName": "lendingPage",
  "abi": [
    {
      "inputs": [
        {
          "internalType": "uint256",
          "name": "_minpenality",
          "type": "uint256"
        }
      ],
      "stateMutability": "nonpayable",
      "type": "constructor"
    },
    {
      "anonymous": false,
      "inputs": [
        {
          "indexed": true,
          "internalType": "address",
          "name": "Borrower",
          "type": "address"
        },
        {
          "indexed": true,
          "internalType": "uint256",
          "name": "Id_Contract",
          "type": "uint256"
        },
        {
          "indexed": false,
          "internalType": "uint256",
          "name": "amount",
          "type": "uint256"
        }
      ],
      "name": "Borrow",
      "type": "event"
    },
    {
      "anonymous": false,
      "inputs": [
        {
          "indexed": false,
          "internalType": "uint256",
          "name": "Id",
          "type": "uint256"
        },
        {
          "indexed": true,
          "internalType": "uint256",
          "name": "amount",
          "type": "uint256"
        },
        {
          "indexed": true,
          "internalType": "uint256",
          "name": "newAmount",
          "type": "uint256"
        }
      ],
      "name": "DecreasContractDeposit",
      "type": "event"
    },
    {
      "anonymous": false,
      "inputs": [
        {
          "indexed": true,
          "internalType": "address",
          "name": "owner",
          "type": "address"
        },
        {
          "indexed": true,
          "internalType": "uint256",
          "name": "id",
          "type": "uint256"
        }
      ],
      "name": "DeleteContractDeposit",
      "type": "event"
    },
    {
      "anonymous": false,
      "inputs": [
        {
          "indexed": false,
          "internalType": "uint256",
          "name": "Id",
          "type": "uint256"
        },
        {
          "indexed": true,
          "internalType": "uint256",
          "name": "amount",
          "type": "uint256"
        },
        {
          "indexed": true,
          "internalType": "uint256",
          "name": "newAmount",
          "type": "uint256"
        }
      ],
      "name": "IncreasContractDeposit",
      "type": "event"
    },
    {
      "anonymous": false,
      "inputs": [
        {
          "indexed": true,
          "internalType": "uint256",
          "name": "_idContract",
          "type": "uint256"
        },
        {
          "indexed": true,
          "internalType": "uint256",
          "name": "_idBorrow",
          "type": "uint256"
        },
        {
          "indexed": false,
          "internalType": "address",
          "name": "assetsLiquidate",
          "type": "address"
        },
        {
          "indexed": false,
          "internalType": "uint256",
          "name": "amount",
          "type": "uint256"
        }
      ],
      "name": "LiquidationCall",
      "type": "event"
    },
    {
      "anonymous": false,
      "inputs": [
        {
          "indexed": true,
          "internalType": "address",
          "name": "asset",
          "type": "address"
        },
        {
          "indexed": false,
          "internalType": "uint256",
          "name": "timeStart",
          "type": "uint256"
        }
      ],
      "name": "NewAssetAvvalible",
      "type": "event"
    },
    {
      "anonymous": false,
      "inputs": [
        {
          "indexed": false,
          "internalType": "uint256",
          "name": "Id",
          "type": "uint256"
        },
        {
          "indexed": true,
          "internalType": "address",
          "name": "owner",
          "type": "address"
        },
        {
          "indexed": true,
          "internalType": "address",
          "name": "asset",
          "type": "address"
        },
        {
          "indexed": false,
          "internalType": "uint256",
          "name": "amount",
          "type": "uint256"
        },
        {
          "indexed": false,
          "internalType": "uint256",
          "name": "apr",
          "type": "uint256"
        },
        {
          "indexed": false,
          "internalType": "uint256",
          "name": "deadline",
          "type": "uint256"
        },
        {
          "indexed": false,
          "internalType": "uint256",
          "name": "penality",
          "type": "uint256"
        },
        {
          "indexed": true,
          "internalType": "address",
          "name": "collateral",
          "type": "address"
        }
      ],
      "name": "NewContractDeposit",
      "type": "event"
    },
    {
      "anonymous": false,
      "inputs": [
        {
          "indexed": true,
          "internalType": "address",
          "name": "previousOwner",
          "type": "address"
        },
        {
          "indexed": true,
          "internalType": "address",
          "name": "newOwner",
          "type": "address"
        }
      ],
      "name": "OwnershipTransferred",
      "type": "event"
    },
    {
      "anonymous": false,
      "inputs": [
        {
          "indexed": true,
          "internalType": "uint256",
          "name": "_idContract",
          "type": "uint256"
        },
        {
          "indexed": true,
          "internalType": "address",
          "name": "collateral",
          "type": "address"
        },
        {
          "indexed": false,
          "internalType": "uint256",
          "name": "amount",
          "type": "uint256"
        }
      ],
      "name": "RecoveryCredit",
      "type": "event"
    },
    {
      "anonymous": false,
      "inputs": [
        {
          "indexed": true,
          "internalType": "uint256",
          "name": "_idContract",
          "type": "uint256"
        },
        {
          "indexed": true,
          "internalType": "address",
          "name": "collateral",
          "type": "address"
        },
        {
          "indexed": false,
          "internalType": "uint256",
          "name": "amount",
          "type": "uint256"
        }
      ],
      "name": "RecoverySingleCredit",
      "type": "event"
    },
    {
      "anonymous": false,
      "inputs": [
        {
          "indexed": true,
          "internalType": "address",
          "name": "_to",
          "type": "address"
        },
        {
          "indexed": true,
          "internalType": "uint256",
          "name": "_idContract",
          "type": "uint256"
        },
        {
          "indexed": true,
          "internalType": "address",
          "name": "collateral",
          "type": "address"
        },
        {
          "indexed": false,
          "internalType": "uint256",
          "name": "amount",
          "type": "uint256"
        }
      ],
      "name": "WidrowCredit",
      "type": "event"
    },
    {
      "anonymous": false,
      "inputs": [
        {
          "indexed": true,
          "internalType": "address",
          "name": "_to",
          "type": "address"
        },
        {
          "indexed": true,
          "internalType": "uint256",
          "name": "_idContract",
          "type": "uint256"
        },
        {
          "indexed": false,
          "internalType": "uint256",
          "name": "_amount",
          "type": "uint256"
        }
      ],
      "name": "applyPenality",
      "type": "event"
    },
    {
      "anonymous": false,
      "inputs": [
        {
          "indexed": true,
          "internalType": "uint256",
          "name": "_idContract",
          "type": "uint256"
        },
        {
          "indexed": true,
          "internalType": "uint256",
          "name": "_timeIncreas",
          "type": "uint256"
        }
      ],
      "name": "newTimeExpireDecreas",
      "type": "event"
    },
    {
      "anonymous": false,
      "inputs": [
        {
          "indexed": true,
          "internalType": "uint256",
          "name": "_idContract",
          "type": "uint256"
        },
        {
          "indexed": true,
          "internalType": "uint256",
          "name": "_timeIncreas",
          "type": "uint256"
        }
      ],
      "name": "newTimeExpireIncreas",
      "type": "event"
    },
    {
      "anonymous": false,
      "inputs": [
        {
          "indexed": true,
          "internalType": "address",
          "name": "_to",
          "type": "address"
        },
        {
          "indexed": true,
          "internalType": "uint256",
          "name": "_idContract",
          "type": "uint256"
        },
        {
          "indexed": false,
          "internalType": "uint256",
          "name": "_amount",
          "type": "uint256"
        }
      ],
      "name": "repay",
      "type": "event"
    },
    {
      "anonymous": false,
      "inputs": [
        {
          "indexed": true,
          "internalType": "address",
          "name": "asset",
          "type": "address"
        },
        {
          "indexed": false,
          "internalType": "uint256",
          "name": "amount",
          "type": "uint256"
        }
      ],
      "name": "widrowFeeEvent",
      "type": "event"
    },
    {
      "inputs": [
        {
          "internalType": "address",
          "name": "_asset",
          "type": "address"
        },
        {
          "internalType": "address",
          "name": "_addressPriceFeed",
          "type": "address"
        }
      ],
      "name": "addAddressPriceeFeed",
      "outputs": [],
      "stateMutability": "nonpayable",
      "type": "function"
    },
    {
      "inputs": [
        {
          "internalType": "address",
          "name": "_priceFeed",
          "type": "address"
        }
      ],
      "name": "getLatestPrice",
      "outputs": [
        {
          "internalType": "int256",
          "name": "",
          "type": "int256"
        }
      ],
      "stateMutability": "view",
      "type": "function"
    },
    {
      "inputs": [],
      "name": "owner",
      "outputs": [
        {
          "internalType": "address",
          "name": "",
          "type": "address"
        }
      ],
      "stateMutability": "view",
      "type": "function"
    },
    {
      "inputs": [],
      "name": "renounceOwnership",
      "outputs": [],
      "stateMutability": "nonpayable",
      "type": "function"
    },
    {
      "inputs": [
        {
          "internalType": "address",
          "name": "newOwner",
          "type": "address"
        }
      ],
      "name": "transferOwnership",
      "outputs": [],
      "stateMutability": "nonpayable",
      "type": "function"
    },
    {
      "inputs": [
        {
          "internalType": "address",
          "name": "_newAsset",
          "type": "address"
        }
      ],
      "name": "setAssettAvvalible",
      "outputs": [],
      "stateMutability": "nonpayable",
      "type": "function"
    },
    {
      "inputs": [
        {
          "internalType": "address",
          "name": "_asset",
          "type": "address"
        }
      ],
      "name": "findAsset",
      "outputs": [
        {
          "internalType": "bool",
          "name": "",
          "type": "bool"
        }
      ],
      "stateMutability": "view",
      "type": "function"
    },
    {
      "inputs": [
        {
          "internalType": "address",
          "name": "_asset",
          "type": "address"
        },
        {
          "internalType": "uint256",
          "name": "_amount",
          "type": "uint256"
        },
        {
          "internalType": "uint256",
          "name": "_apr",
          "type": "uint256"
        },
        {
          "internalType": "uint256",
          "name": "_deadline",
          "type": "uint256"
        },
        {
          "internalType": "uint256",
          "name": "_penality",
          "type": "uint256"
        },
        {
          "internalType": "address",
          "name": "_collateral",
          "type": "address"
        },
        {
          "internalType": "uint256",
          "name": "_rateCollateral",
          "type": "uint256"
        }
      ],
      "name": "deposit",
      "outputs": [],
      "stateMutability": "nonpayable",
      "type": "function"
    },
    {
      "inputs": [
        {
          "internalType": "address",
          "name": "_user",
          "type": "address"
        }
      ],
      "name": "listContractXuser",
      "outputs": [
        {
          "internalType": "uint256[]",
          "name": "",
          "type": "uint256[]"
        }
      ],
      "stateMutability": "view",
      "type": "function"
    },
    {
      "inputs": [],
      "name": "getAssettAvvalible",
      "outputs": [
        {
          "internalType": "address[]",
          "name": "",
          "type": "address[]"
        }
      ],
      "stateMutability": "view",
      "type": "function"
    },
    {
      "inputs": [
        {
          "internalType": "address",
          "name": "_to",
          "type": "address"
        },
        {
          "internalType": "uint256",
          "name": "_id",
          "type": "uint256"
        }
      ],
      "name": "findContractLending",
      "outputs": [
        {
          "components": [
            {
              "internalType": "uint256",
              "name": "id",
              "type": "uint256"
            },
            {
              "internalType": "address",
              "name": "owner",
              "type": "address"
            },
            {
              "internalType": "bool",
              "name": "lock",
              "type": "bool"
            },
            {
              "internalType": "address",
              "name": "asset",
              "type": "address"
            },
            {
              "internalType": "uint256",
              "name": "amountAvvalible",
              "type": "uint256"
            },
            {
              "internalType": "uint256",
              "name": "apr",
              "type": "uint256"
            },
            {
              "internalType": "uint256",
              "name": "duration",
              "type": "uint256"
            },
            {
              "internalType": "uint256",
              "name": "penality",
              "type": "uint256"
            },
            {
              "internalType": "address",
              "name": "collateral",
              "type": "address"
            },
            {
              "internalType": "uint256",
              "name": "amountBorrow",
              "type": "uint256"
            },
            {
              "internalType": "uint256",
              "name": "rateCollateral",
              "type": "uint256"
            },
            {
              "internalType": "uint256",
              "name": "amountCollateral",
              "type": "uint256"
            }
          ],
          "internalType": "struct Storage.LendingContract",
          "name": "",
          "type": "tuple"
        }
      ],
      "stateMutability": "view",
      "type": "function"
    },
    {
      "inputs": [
        {
          "internalType": "uint256",
          "name": "_idContract",
          "type": "uint256"
        },
        {
          "internalType": "uint256",
          "name": "_increasAmount",
          "type": "uint256"
        }
      ],
      "name": "increasDeposit",
      "outputs": [],
      "stateMutability": "nonpayable",
      "type": "function"
    },
    {
      "inputs": [
        {
          "internalType": "uint256",
          "name": "_idContract",
          "type": "uint256"
        },
        {
          "internalType": "uint256",
          "name": "_decreasAmount",
          "type": "uint256"
        }
      ],
      "name": "decreasDeposit",
      "outputs": [],
      "stateMutability": "nonpayable",
      "type": "function"
    },
    {
      "inputs": [
        {
          "internalType": "uint256",
          "name": "_idContract",
          "type": "uint256"
        }
      ],
      "name": "deleteContract",
      "outputs": [],
      "stateMutability": "nonpayable",
      "type": "function"
    },
    {
      "inputs": [
        {
          "internalType": "uint256",
          "name": "_idContract",
          "type": "uint256"
        },
        {
          "internalType": "address",
          "name": "_lender",
          "type": "address"
        },
        {
          "internalType": "uint256",
          "name": "_amountBorrow",
          "type": "uint256"
        },
        {
          "internalType": "address",
          "name": "_assettCollateral",
          "type": "address"
        },
        {
          "internalType": "uint256",
          "name": "_amountCollateral",
          "type": "uint256"
        }
      ],
      "name": "executeBorrow",
      "outputs": [],
      "stateMutability": "nonpayable",
      "type": "function"
    },
    {
      "inputs": [
        {
          "internalType": "uint256",
          "name": "_idContract",
          "type": "uint256"
        },
        {
          "internalType": "address",
          "name": "_borrower",
          "type": "address"
        }
      ],
      "name": "serchBorrowerPositionXContract",
      "outputs": [
        {
          "components": [
            {
              "internalType": "address",
              "name": "owner",
              "type": "address"
            },
            {
              "internalType": "uint256",
              "name": "idContract",
              "type": "uint256"
            },
            {
              "internalType": "address",
              "name": "assetBorrow",
              "type": "address"
            },
            {
              "internalType": "uint256",
              "name": "ammounBorrow",
              "type": "uint256"
            },
            {
              "internalType": "address",
              "name": "assetCollaterl",
              "type": "address"
            },
            {
              "internalType": "uint256",
              "name": "amountCollateral",
              "type": "uint256"
            },
            {
              "internalType": "uint256",
              "name": "liquidationThreshold",
              "type": "uint256"
            },
            {
              "internalType": "uint256",
              "name": "expiration",
              "type": "uint256"
            },
            {
              "internalType": "uint256",
              "name": "blockStart",
              "type": "uint256"
            },
            {
              "internalType": "uint256",
              "name": "aprLoan",
              "type": "uint256"
            },
            {
              "internalType": "address",
              "name": "lender",
              "type": "address"
            }
          ],
          "internalType": "struct Storage.Borrower",
          "name": "",
          "type": "tuple"
        }
      ],
      "stateMutability": "view",
      "type": "function"
    },
    {
      "inputs": [
        {
          "internalType": "uint256",
          "name": "_idContract",
          "type": "uint256"
        },
        {
          "internalType": "address",
          "name": "_borrower",
          "type": "address"
        }
      ],
      "name": "serchIndexBorrowerXContract",
      "outputs": [
        {
          "internalType": "uint256",
          "name": "",
          "type": "uint256"
        }
      ],
      "stateMutability": "view",
      "type": "function"
    },
    {
      "inputs": [
        {
          "internalType": "address",
          "name": "_to",
          "type": "address"
        },
        {
          "internalType": "uint256",
          "name": "_idContract",
          "type": "uint256"
        },
        {
          "internalType": "bool",
          "name": "_lock",
          "type": "bool"
        }
      ],
      "name": "lockNewBorrow",
      "outputs": [],
      "stateMutability": "nonpayable",
      "type": "function"
    },
    {
      "inputs": [
        {
          "internalType": "address",
          "name": "_borrower",
          "type": "address"
        },
        {
          "internalType": "uint256",
          "name": "_idContract",
          "type": "uint256"
        }
      ],
      "name": "viewAmountLoan",
      "outputs": [
        {
          "internalType": "uint256",
          "name": "loanCompouse",
          "type": "uint256"
        }
      ],
      "stateMutability": "view",
      "type": "function"
    },
    {
      "inputs": [
        {
          "internalType": "uint256",
          "name": "_idContract",
          "type": "uint256"
        },
        {
          "internalType": "uint256",
          "name": "_amount",
          "type": "uint256"
        }
      ],
      "name": "executeRepay",
      "outputs": [],
      "stateMutability": "nonpayable",
      "type": "function"
    },
    {
      "inputs": [
        {
          "internalType": "uint256",
          "name": "_idContract",
          "type": "uint256"
        },
        {
          "internalType": "uint256",
          "name": "_timeIncreas",
          "type": "uint256"
        }
      ],
      "name": "increaseTimeExpire",
      "outputs": [],
      "stateMutability": "nonpayable",
      "type": "function"
    },
    {
      "inputs": [
        {
          "internalType": "uint256",
          "name": "_idContract",
          "type": "uint256"
        },
        {
          "internalType": "uint256",
          "name": "_timeIncreas",
          "type": "uint256"
        }
      ],
      "name": "decreaseTimeExpire",
      "outputs": [],
      "stateMutability": "nonpayable",
      "type": "function"
    },
    {
      "inputs": [
        {
          "internalType": "uint256",
          "name": "_idContract",
          "type": "uint256"
        },
        {
          "internalType": "uint256",
          "name": "_idBorrow",
          "type": "uint256"
        }
      ],
      "name": "liquidationCall",
      "outputs": [],
      "stateMutability": "nonpayable",
      "type": "function"
    },
    {
      "inputs": [
        {
          "internalType": "uint256",
          "name": "_idContract",
          "type": "uint256"
        }
      ],
      "name": "widrowCreditExpire",
      "outputs": [],
      "stateMutability": "nonpayable",
      "type": "function"
    },
    {
      "inputs": [
        {
          "internalType": "uint256",
          "name": "_idContract",
          "type": "uint256"
        }
      ],
      "name": "recoverCreditsExpired",
      "outputs": [],
      "stateMutability": "nonpayable",
      "type": "function"
    },
    {
      "inputs": [
        {
          "internalType": "uint256",
          "name": "_idContract",
          "type": "uint256"
        },
        {
          "internalType": "uint256",
          "name": "_idBorrow",
          "type": "uint256"
        }
      ],
      "name": "recoverSingleCreditExpired",
      "outputs": [],
      "stateMutability": "nonpayable",
      "type": "function"
    }
  ],
  "bytecode": "0x60806040523480156200001157600080fd5b5060405162005626380380620056268339810160408190526200003491620000c2565b6200003f3362000067565b6001600b819055506200005e6007620000b960201b62000d061760201c565b600155620000dc565b600a80546001600160a01b038381166001600160a01b0319831681179093556040519116919082907f8be0079c531659141344cd1fd0a4f28419497f9722a3daafe3b4186f6b6457e090600090a35050565b80546001019055565b600060208284031215620000d557600080fd5b5051919050565b61553a80620000ec6000396000f3fe608060405234801561001057600080fd5b50600436106101ae5760003560e01c80638da5cb5b116100ee578063e1e3769b11610097578063e619515811610071578063e6195158146103a0578063f2fde38b146103b3578063f4163f21146103c6578063facd53ff146103d957600080fd5b8063e1e3769b1461034a578063e236b6f01461035d578063e2bb0eb91461037d57600080fd5b8063aa674149116100c8578063aa67414914610311578063b48477dc14610324578063dc6274081461033757600080fd5b80638da5cb5b146102c35780639c467d3a146102de578063a54bbcb7146102f157600080fd5b80636893d3361161015b578063715018a611610135578063715018a614610280578063726adaa4146102885780637cb6f38f1461029d5780638990616d146102b057600080fd5b80636893d336146102475780636a0556e21461025a5780636f25b8f61461026d57600080fd5b806319dda45c1161018c57806319dda45c14610201578063460e90d014610214578063470872151461023457600080fd5b806308dde662146101b35780631392ed75146101d957806316345f18146101ee575b600080fd5b6101c66101c1366004615017565b6103ec565b6040519081526020015b60405180910390f35b6101ec6101e7366004615081565b610429565b005b6101c66101fc366004614fc9565b610492565b6101ec61020f3660046151a4565b610518565b610227610222366004614fc9565b610572565b6040516101d09190615263565b6101ec6102423660046151a4565b610583565b6101ec610255366004615101565b6105d4565b6101ec6102683660046151a4565b61062c565b6101ec61027b366004615156565b61067d565b6101ec6106dd565b610290610743565b6040516101d09190615216565b6101ec6102ab3660046151a4565b610752565b6101ec6102be366004614fc9565b6107a3565b600a546040516001600160a01b0390911681526020016101d0565b6101ec6102ec366004615101565b610897565b6103046102ff366004615133565b6108e7565b6040516101d0919061529b565b6101ec61031f366004615041565b610972565b6101ec6103323660046151a4565b6109cd565b6101ec610345366004615101565b610a1e565b6101c6610358366004615133565b610a6e565b61037061036b366004615017565b610a84565b6040516101d09190615348565b61039061038b366004614fc9565b610b0f565b60405190151581526020016101d0565b6101ec6103ae3660046151a4565b610b1a565b6101ec6103c1366004614fc9565b610b6b565b6101ec6103d43660046151a4565b610c4d565b6101ec6103e7366004614fe4565b610c9e565b60006104226103fb8385610d0f565b606001516104098486610d0f565b61012001516104188587610d0f565b6101000151610f3d565b9392505050565b6002600b54141561046f5760405162461bcd60e51b815260206004820152601f60248201526000805160206154e583398151915260448201526064015b60405180910390fd5b6002600b556104843388888888888888610fa5565b50506001600b555050505050565b6000808290506000816001600160a01b031663feaf968c6040518163ffffffff1660e01b815260040160a06040518083038186803b1580156104d357600080fd5b505afa1580156104e7573d6000803e3d6000fd5b505050506040513d601f19601f8201168201806040525081019061050b91906151c6565b5091979650505050505050565b6002600b5414156105595760405162461bcd60e51b815260206004820152601f60248201526000805160206154e58339815191526044820152606401610466565b6002600b5561056933838361172b565b50506001600b55565b606061057d82611ad9565b92915050565b6002600b5414156105c45760405162461bcd60e51b815260206004820152601f60248201526000805160206154e58339815191526044820152606401610466565b6002600b55610569338383611b45565b6002600b5414156106155760405162461bcd60e51b815260206004820152601f60248201526000805160206154e58339815191526044820152606401610466565b6002600b556106243382611da2565b506001600b55565b6002600b54141561066d5760405162461bcd60e51b815260206004820152601f60248201526000805160206154e58339815191526044820152606401610466565b6002600b556105693383836121e9565b6002600b5414156106be5760405162461bcd60e51b815260206004820152601f60248201526000805160206154e58339815191526044820152606401610466565b6002600b556106d13386868686866124ef565b50506001600b55505050565b600a546001600160a01b031633146107375760405162461bcd60e51b815260206004820181905260248201527f4f776e61626c653a2063616c6c6572206973206e6f7420746865206f776e65726044820152606401610466565b61074160006127e3565b565b606061074d612835565b905090565b6002600b5414156107935760405162461bcd60e51b815260206004820152601f60248201526000805160206154e58339815191526044820152606401610466565b6002600b55610569338383612897565b6002600b5414156107e45760405162461bcd60e51b815260206004820152601f60248201526000805160206154e58339815191526044820152606401610466565b6002600b55600a546001600160a01b031633146108435760405162461bcd60e51b815260206004820181905260248201527f4f776e61626c653a2063616c6c6572206973206e6f7420746865206f776e65726044820152606401610466565b61084c816129ca565b806001600160a01b03167f1406601fca80ce2dde347c6c1c000309440d0365c2b5786f1608d7b1e76dd12d4260405161088791815260200190565b60405180910390a2506001600b55565b6002600b5414156108d85760405162461bcd60e51b815260206004820152601f60248201526000805160206154e58339815191526044820152606401610466565b6002600b556106243382612ac5565b61096860405180610160016040528060006001600160a01b031681526020016000815260200160006001600160a01b031681526020016000815260200160006001600160a01b03168152602001600081526020016000815260200160008152602001600081526020016000815260200160006001600160a01b031681525090565b6104228383610d0f565b6002600b5414156109b35760405162461bcd60e51b815260206004820152601f60248201526000805160206154e58339815191526044820152606401610466565b6002600b556109c3838383612c56565b50506001600b5550565b6002600b541415610a0e5760405162461bcd60e51b815260206004820152601f60248201526000805160206154e58339815191526044820152606401610466565b6002600b55610569338383612d1f565b6002600b541415610a5f5760405162461bcd60e51b815260206004820152601f60248201526000805160206154e58339815191526044820152606401610466565b6002600b556106243382613340565b600080610a7b8484613545565b95945050505050565b610b056040518061018001604052806000815260200160006001600160a01b0316815260200160001515815260200160006001600160a01b031681526020016000815260200160008152602001600081526020016000815260200160006001600160a01b031681526020016000815260200160008152602001600081525090565b61042283836135da565b600061057d82613715565b6002600b541415610b5b5760405162461bcd60e51b815260206004820152601f60248201526000805160206154e58339815191526044820152606401610466565b6002600b5561056933838361377f565b600a546001600160a01b03163314610bc55760405162461bcd60e51b815260206004820181905260248201527f4f776e61626c653a2063616c6c6572206973206e6f7420746865206f776e65726044820152606401610466565b6001600160a01b038116610c415760405162461bcd60e51b815260206004820152602660248201527f4f776e61626c653a206e6577206f776e657220697320746865207a65726f206160448201527f64647265737300000000000000000000000000000000000000000000000000006064820152608401610466565b610c4a816127e3565b50565b6002600b541415610c8e5760405162461bcd60e51b815260206004820152601f60248201526000805160206154e58339815191526044820152606401610466565b6002600b55610569338383613858565b600a546001600160a01b03163314610cf85760405162461bcd60e51b815260206004820181905260248201527f4f776e61626c653a2063616c6c6572206973206e6f7420746865206f776e65726044820152606401610466565b610d028282613931565b5050565b80546001019055565b610d9060405180610160016040528060006001600160a01b031681526020016000815260200160006001600160a01b031681526020016000815260200160006001600160a01b03168152602001600081526020016000815260200160008152602001600081526020016000815260200160006001600160a01b031681525090565b60005b600084815260066020526040902054811015610ece57600084815260066020526040902080546001600160a01b038516919083908110610dd557610dd56154c0565b60009182526020909120600b90910201546001600160a01b03161415610ebc576000848152600660205260409020805482908110610e1557610e156154c0565b60009182526020918290206040805161016081018252600b90930290910180546001600160a01b039081168452600182015494840194909452600281015484169183019190915260038101546060830152600481015483166080830152600581015460a0830152600681015460c0830152600781015460e083015260088101546101008301526009810154610120830152600a0154909116610140820152915061057d9050565b80610ec681615479565b915050610d93565b5060405162461bcd60e51b815260206004820152602660248201527f426f72726f77657220666f72207468697320636f6e7472616374206e6f74207060448201527f726573656e7400000000000000000000000000000000000000000000000000006064820152608401610466565b600080610f4a8342615462565b9050600063bbf81e0082610f5e8789615443565b610f689190615443565b610f729190615421565b610f7c9087615409565b610f87906001615409565b905060018111610f9c57600092505050610422565b91506104229050565b6001600160a01b038816610ffb5760405162461bcd60e51b815260206004820152600f60248201527f696e76616c6964206164647265737300000000000000000000000000000000006044820152606401610466565b816001600160a01b0316876001600160a01b0316141561105d5760405162461bcd60e51b815260206004820152601460248201527f636f6c6c61746572616c206e6f742076616c69640000000000000000000000006044820152606401610466565b61106687613715565b6110b25760405162461bcd60e51b815260206004820152601160248201527f617373657420646f6e277420666f756e640000000000000000000000000000006044820152606401610466565b6001600160a01b03878116600090815260096020526040902054166111655760405162461bcd60e51b815260206004820152604860248201527f5072696365666565642061646472657373206d6973732c207768616974206f7760448201527f6e65722073657420616464726573732070726963654665656420666f7220746860648201527f6973206173736574000000000000000000000000000000000000000000000000608482015260a401610466565b61116e82613715565b6111ba5760405162461bcd60e51b815260206004820152601660248201527f636f6c6c61746572616c20646f6e277420666f756e64000000000000000000006044820152606401610466565b6040516370a0823160e01b81526001600160a01b0389811660048301528791908916906370a082319060240160206040518083038186803b1580156111fe57600080fd5b505afa158015611212573d6000803e3d6000fd5b505050506040513d601f19601f82011682018060405250810190611236919061511a565b10156112845760405162461bcd60e51b815260206004820152601060248201527f62616c616e63652075736572206c6f77000000000000000000000000000000006044820152606401610466565b604051636eb1769f60e11b81526001600160a01b03898116600483015230602483015287919089169063dd62ed3e9060440160206040518083038186803b1580156112ce57600080fd5b505afa1580156112e2573d6000803e3d6000fd5b505050506040513d601f19601f82011682018060405250810190611306919061511a565b10156113545760405162461bcd60e51b815260206004820152601160248201527f616c6f77616e63652075736572206c6f770000000000000000000000000000006044820152606401610466565b600084116113a45760405162461bcd60e51b815260206004820152601b60248201527f646561646c696e65206d757374206861766520676561746565203000000000006044820152606401610466565b6001548310156113f65760405162461bcd60e51b815260206004820152601a60248201527f70656e616c697479206d757374206861766520676561746520300000000000006044820152606401610466565b6040516323b872dd60e01b81526001600160a01b038981166004830152306024830152604482018890528816906323b872dd90606401602060405180830381600087803b15801561144657600080fd5b505af115801561145a573d6000803e3d6000fd5b505050506040513d601f19601f8201168201806040525081019061147e91906150e4565b50600061271061148f88600a615443565b6114999190615421565b6114a4906001615409565b6001600160a01b0389166000908152600860205260408120805492935083929091906114d1908490615409565b9250508190555060006040518061018001604052806114ef60075490565b81526001600160a01b03808d166020830152600060408301528b16606082015260800161151c848b615462565b8152602001888152602001878152602001868152602001856001600160a01b03168152602001600081526020018481526020016000815250905080600260008c6001600160a01b03166001600160a01b03168152602001908152602001600020600061158760075490565b815260208082019290925260409081016000208351815591830151600183018054928501511515600160a01b0274ffffffffffffffffffffffffffffffffffffffffff199093166001600160a01b03928316179290921790915560608301516002830180549183166001600160a01b03199283161790556080840151600384015560a0840151600484015560c0840151600584015560e084015160068401556101008401516007808501805492851692909316919091179091556101208401516008840155610140840151600984015561016090930151600a90920191909155858116918b8216918d16907f73ccc975565e11201f9228f86b04c2090d856488dd73ce7f1b63b9609708ee479061169c905490565b60408051918252602082018e905281018c9052606081018b9052608081018a905260a00160405180910390a46001600160a01b038a1660009081526003602090815260408220600780548254600181018455928552929093200155546004908154600181018355600092835260209092209091015561171f600780546001019055565b50505050505050505050565b8282816001600160a01b031661174183836135da565b602001516001600160a01b0316146117955760405162461bcd60e51b8152602060048201526017602482015276139bdd081bdddb995c881d1a1a5cc818dbdb9d1c9858dd604a1b6044820152606401610466565b600083116117e55760405162461bcd60e51b815260206004820152601660248201527f696e6372656173206d75737420626520706c75732030000000000000000000006044820152606401610466565b826117f086866135da565b606001516040516370a0823160e01b81526001600160a01b038881166004830152909116906370a082319060240160206040518083038186803b15801561183657600080fd5b505afa15801561184a573d6000803e3d6000fd5b505050506040513d601f19601f8201168201806040525081019061186e919061511a565b10156118bc5760405162461bcd60e51b815260206004820152601060248201527f62616c616e63652075736572206c6f77000000000000000000000000000000006044820152606401610466565b826118c786866135da565b60600151604051636eb1769f60e11b81526001600160a01b0388811660048301523060248301529091169063dd62ed3e9060440160206040518083038186803b15801561191357600080fd5b505afa158015611927573d6000803e3d6000fd5b505050506040513d601f19601f8201168201806040525081019061194b919061511a565b10156119995760405162461bcd60e51b815260206004820152601160248201527f616c6f77616e63652075736572206c6f770000000000000000000000000000006044820152606401610466565b6119a385856135da565b606001516040516323b872dd60e01b81526001600160a01b03878116600483015230602483015260448201869052909116906323b872dd90606401602060405180830381600087803b1580156119f857600080fd5b505af1158015611a0c573d6000803e3d6000fd5b505050506040513d601f19601f82011682018060405250810190611a3091906150e4565b506001600160a01b038516600090815260026020908152604080832087845290915281206003018054859290611a67908490615409565b90915550611a77905085856135da565b6080015183611a8687876135da565b60800151611a949190615462565b7f70b5eec6cec01e52d9243bac64c12e4fd128a2f20105af16919ae212e224fc65611abf88886135da565b516040519081526020015b60405180910390a35050505050565b6001600160a01b038116600090815260036020908152604091829020805483518184028101840190945280845260609392830182828015611b3957602002820191906000526020600020905b815481526020019060010190808311611b25575b50505050509050919050565b8282816001600160a01b0316611b5b83836135da565b602001516001600160a01b031614611baf5760405162461bcd60e51b8152602060048201526017602482015276139bdd081bdddb995c881d1a1a5cc818dbdb9d1c9858dd604a1b6044820152606401610466565b60008311611bff5760405162461bcd60e51b815260206004820152601660248201527f696e6372656173206d75737420626520706c75732030000000000000000000006044820152606401610466565b82611c0a86866135da565b608001511015611c825760405162461bcd60e51b815260206004820152602e60248201527f41737365747420617676616c69626c6520696e73756666696369656e7420666f60448201527f7220746869732077686964726f770000000000000000000000000000000000006064820152608401610466565b6001600160a01b038516600090815260026020908152604080832087845290915281206003018054859290611cb8908490615462565b90915550611cc8905085856135da565b6060015160405163a9059cbb60e01b81526001600160a01b038781166004830152602482018690529091169063a9059cbb90604401602060405180830381600087803b158015611d1757600080fd5b505af1158015611d2b573d6000803e3d6000fd5b505050506040513d601f19601f82011682018060405250810190611d4f91906150e4565b50611d5a85856135da565b6080015183611d6987876135da565b60800151611d779190615409565b7f510055a9c40582bc6ad0cab1e5b0421194c4d34435a16960ec71333bf8bc70cf611abf88886135da565b8181816001600160a01b0316611db883836135da565b602001516001600160a01b031614611e0c5760405162461bcd60e51b8152602060048201526017602482015276139bdd081bdddb995c881d1a1a5cc818dbdb9d1c9858dd604a1b6044820152606401610466565b611e1684846135da565b610120015115611e685760405162461bcd60e51b815260206004820152601d60248201527f436f6e7472616374206861766520617373657420696e20626f72726f770000006044820152606401610466565b6001600160a01b03841660009081526002602090815260408083208684529091528120600381015490549091611e9e87876135da565b606001516001600160a01b03881660008181526002602081815260408084208c8552825280842084815560018101805474ffffffffffffffffffffffffffffffffffffffffff1916905592830180546001600160a01b031990811690915560038085018690556004850186905560058501869055600685018690556007850180549092169091556008840185905560098401859055600a9093018490559383525220549091501561202a57600080611f568985613a46565b915091508015612023576001600160a01b03891660009081526003602052604090208054611f8690600190615462565b81548110611f9657611f966154c0565b9060005260206000200154600360008b6001600160a01b03166001600160a01b031681526020019081526020016000208381548110611fd757611fd76154c0565b60009182526020808320909101929092556001600160a01b038b16815260039091526040902080548061200c5761200c6154aa565b600190038181906000526020600020016000905590555b5050612068565b6001600160a01b0387166000908152600360205260409020805480612051576120516154aa565b600190038181906000526020600020016000905590555b600454156120ff5760008061207c88613ac5565b9150915080156120f8576004805461209690600190615462565b815481106120a6576120a66154c0565b9060005260206000200154600483815481106120c4576120c46154c0565b60009182526020909120015560048054806120e1576120e16154aa565b600190038181906000526020600020016000905590555b5050612127565b6004805480612110576121106154aa565b600190038181906000526020600020016000905590555b60405163a9059cbb60e01b81526001600160a01b0388811660048301526024820185905282169063a9059cbb90604401602060405180830381600087803b15801561217157600080fd5b505af1158015612185573d6000803e3d6000fd5b505050506040513d601f19601f820116820180604052508101906121a991906150e4565b5060405182906001600160a01b038916907ffd6e81c22721a918c2e59966d2b020f6ccf1fe46d783cc4053c75c1a9fa837f090600090a350505050505050565b8282816001600160a01b03166121ff83836135da565b602001516001600160a01b0316146122535760405162461bcd60e51b8152602060048201526017602482015276139bdd081bdddb995c881d1a1a5cc818dbdb9d1c9858dd604a1b6044820152606401610466565b61225f85856001612c56565b600061226b8585613b22565b6122759082615409565b600086815260066020526040902080549192509061229590600190615462565b815481106122a5576122a56154c0565b90600052602060002090600b02016006600087815260200190815260200160002085815481106122d7576122d76154c0565b600091825260208083208454600b9093020180546001600160a01b03199081166001600160a01b03948516178255600180870154908301556002808701549083018054831691861691909117905560038087015490830155600480870154908301805483169186169190911790556005808701549083015560068087015481840155600780880154908401556008808801549084015560098088015490840155600a96870154969092018054909116959093169490941790915587825291909152604090208054806123ab576123ab6154aa565b60008281526020808220600b6000199094019384020180546001600160a01b03199081168255600182018490556002808301805483169055600383018590556004830180548316905560058084018690556006840186905560078085018790556008850187905560098501879055600a9094018054909316909255949095556001600160a01b038b8116845294825260408084209483528084208b8552835280842090910154909416825291909152908120805483929061246d908490615409565b90915550506001600160a01b0386811660008181526002602090815260408083208a8452825280832060070154938352600582528083209390941680835292815290839020549251928352909187917f51b6f2197ad2e62ecef8decac1977b853a4ad371e0d8fb444b1d8521af5596c5910160405180910390a3505050505050565b6001600160a01b0384166000908152600260209081526040808320888452909152902060010154600160a01b900460ff16156125935760405162461bcd60e51b815260206004820152603060248201527f54686973206c656e6465722068617320626c6f636b656420746865206973737560448201527f616e6365206f66206e6577204c6f616e000000000000000000000000000000006064820152608401610466565b600061259f8587613a46565b915050806125ef5760405162461bcd60e51b815260206004820152601360248201527f636f6e747261637420646f6e74206578697374000000000000000000000000006044820152606401610466565b6001600160a01b03851660009081526002602090815260408083208984529091529020600301548411156126655760405162461bcd60e51b815260206004820152601460248201527f416d6f756e7420617676616c69626c65206c6f770000000000000000000000006044820152606401610466565b6001600160a01b03851660009081526002602090815260408083208984529091528120600901549080612698898b613545565b91509150816126b5576126b08a898b89898c89614023565b612793565b60008981526006602052604090208054829081106126d5576126d56154c0565b90600052602060002090600b020160060154612779600660008c8152602001908152602001600020838154811061270e5761270e6154c0565b90600052602060002090600b020160050154612769600660008e81526020019081526020016000208581548110612747576127476154c0565b600091825260209091206002600b9092020101546001600160a01b031661442e565b6127739190615443565b8561445d565b1161278357600080fd5b6127938a898b89898c8988614469565b888a6001600160a01b03167fe1979fe4c35e0cef342fef5668e2c8e7a7e9f5d5d1ca8fee0ac6c427fa4153af896040516127cf91815260200190565b60405180910390a350505050505050505050565b600a80546001600160a01b038381166001600160a01b0319831681179093556040519116919082907f8be0079c531659141344cd1fd0a4f28419497f9722a3daafe3b4186f6b6457e090600090a35050565b6060600080548060200260200160405190810160405280929190818152602001828054801561288d57602002820191906000526020600020905b81546001600160a01b0316815260019091019060200180831161286f575b5050505050905090565b6128a18284610d0f565b516001600160a01b038481169116146128fc5760405162461bcd60e51b815260206004820152601360248201527f4e6f74206f776e65722074686973206c6f616e000000000000000000000000006044820152606401610466565b6129068284610d0f565b60e0015142111561292a5761291c8184846147a4565b61292557600080fd5b612981565b6129358184846149e1565b6129815760405162461bcd60e51b815260206004820152600b60248201527f5265706179206572726f720000000000000000000000000000000000000000006044820152606401610466565b81836001600160a01b03167f8cd2e0c7fd550a74312e3075f80ebbb071970c93280ed06e9101b48e1299bbf8836040516129bd91815260200190565b60405180910390a3505050565b6001600160a01b038116612a205760405162461bcd60e51b815260206004820152600f60248201527f696e76616c6964206164647265737300000000000000000000000000000000006044820152606401610466565b612a2981613715565b15612a765760405162461bcd60e51b815260206004820152601660248201527f41737365747420616c726561647920696e206c697374000000000000000000006044820152606401610466565b600080546001810182559080527f290decd9548b62a8d60345a988386fc84ba6bc95484008f6362f93160ef3e5630180546001600160a01b0319166001600160a01b0392909216919091179055565b8181816001600160a01b0316612adb83836135da565b602001516001600160a01b031614612b2f5760405162461bcd60e51b8152602060048201526017602482015276139bdd081bdddb995c881d1a1a5cc818dbdb9d1c9858dd604a1b6044820152606401610466565b612b3b84846001612c56565b6000805b600085815260066020526040902054811015612b7d57612b5f8582613b22565b612b699083615409565b915080612b7581615479565b915050612b3f565b506000848152600660205260408120612b9591614f06565b6001600160a01b0380861660009081526005602090815260408083206002835281842089855283528184206007015490941683529290529081208054839290612bdf908490615409565b90915550506001600160a01b038581166000818152600260209081526040808320898452825280832060070154938352600582528083209390941680835292815290839020549251928352909186917f855a6eb4a3651e9881296b06172389d330b2ea79b1b3dc635674cfc8996ab9c29101611aca565b8282816001600160a01b0316612c6c83836135da565b602001516001600160a01b031614612cc05760405162461bcd60e51b8152602060048201526017602482015276139bdd081bdddb995c881d1a1a5cc818dbdb9d1c9858dd604a1b6044820152606401610466565b50506001600160a01b039092166000908152600260209081526040808320938352929052206001018054911515600160a01b027fffffffffffffffffffffff00ffffffffffffffffffffffffffffffffffffffff909216919091179055565b8282816001600160a01b0316612d3583836135da565b602001516001600160a01b031614612d895760405162461bcd60e51b8152602060048201526017602482015276139bdd081bdddb995c881d1a1a5cc818dbdb9d1c9858dd604a1b6044820152606401610466565b60008481526006602052604090208054612dd0919085908110612dae57612dae6154c0565b600091825260209091206004600b9092020101546001600160a01b031661442e565b6000858152600660205260409020805485908110612df057612df06154c0565b90600052602060002090600b0201600601541115612e765760405162461bcd60e51b815260206004820152602760248201527f74687265736f6c64204c69717569646174696f6e207072696365206e6f74206160448201527f63686965766564000000000000000000000000000000000000000000000000006064820152608401610466565b600084815260066020526040812080546004919086908110612e9a57612e9a6154c0565b90600052602060002090600b020160050154612eb69190615421565b60008681526006602052604090208054919250829186908110612edb57612edb6154c0565b90600052602060002090600b02016005016000828254612efb9190615462565b9091555050600085815260066020526040812080548392600292909188908110612f2757612f276154c0565b60009182526020808320600a600b909302018201546001600160a01b0316845283810194909452604092830182208a83529093529081209091018054909190612f71908490615462565b90915550600090506064612f86836005615443565b612f909190615421565b612f9b906001615409565b9050612fa78183615462565b91506102ee60026000600660008a81526020019081526020016000208881548110612fd457612fd46154c0565b60009182526020808320600a600b9093020191909101546001600160a01b0316835282810193909352604091820181208a82529092528120600801805490919061301f908490615462565b9091555050600086815260066020526040902080546102ee919087908110613049576130496154c0565b90600052602060002090600b020160030160008282546130699190615462565b90915550506000868152600660205260409020805461313c919087908110613093576130936154c0565b90600052602060002090600b0201600301546130cc600660008a81526020019081526020016000208881548110612747576127476154c0565b6130d69190615443565b6000888152600660205260408120805460029291908a9081106130fb576130fb6154c0565b60009182526020808320600a600b9093020191909101546001600160a01b0316835282810193909352604091820181208b825290925290206009015461445d565b600087815260066020526040902080548790811061315c5761315c6154c0565b90600052602060002090600b020160060181905550600660008781526020019081526020016000208581548110613195576131956154c0565b90600052602060002090600b020160040160009054906101000a90046001600160a01b03166001600160a01b031663a9059cbb6006600089815260200190815260200160002087815481106131ec576131ec6154c0565b60009182526020909120600b90910201546001600160a01b03166132108486615409565b6040517fffffffff0000000000000000000000000000000000000000000000000000000060e085901b1681526001600160a01b0390921660048301526024820152604401602060405180830381600087803b15801561326e57600080fd5b505af1158015613282573d6000803e3d6000fd5b505050506040513d601f19601f820116820180604052508101906132a691906150e4565b5084867f3efb85df84531500b13dc16364a68b114a05d55e8153510a851d426be608d9d6600660008a815260200190815260200160002088815481106132ee576132ee6154c0565b600091825260209091206004600b9092020101546001600160a01b03166133158587615409565b604080516001600160a01b03909316835260208301919091520160405180910390a350505050505050565b8181816001600160a01b031661335683836135da565b602001516001600160a01b0316146133aa5760405162461bcd60e51b8152602060048201526017602482015276139bdd081bdddb995c881d1a1a5cc818dbdb9d1c9858dd604a1b6044820152606401610466565b6001600160a01b03841660009081526002602090815260408083208684529091529020600190810154600160a01b900460ff161515146133e957600080fd5b6001600160a01b03841660009081526002602090815260408083208684529091529020600a01541561341a57600080fd5b6001600160a01b03848116600081815260056020908152604080832060028352818420898552808452828520600701805488168652918452828520805490869055948a90529092529054905163a9059cbb60e01b81526004810193909352602483018290529092169063a9059cbb90604401602060405180830381600087803b1580156134a657600080fd5b505af11580156134ba573d6000803e3d6000fd5b505050506040513d601f19601f820116820180604052508101906134de91906150e4565b506001600160a01b03858116600081815260026020908152604080832089845282529182902060070154825186815292519416938893927fd6e7472acc7a34539f2cd209d6a48c0b2a54f3117758628d5a7ea1073472c19492908290030190a45050505050565b60008060005b6000858152600660205260409020548110156135ca57600085815260066020526040902080546001600160a01b03861691908390811061358d5761358d6154c0565b60009182526020909120600b90910201546001600160a01b031614156135b8576001925090506135d3565b806135c281615479565b91505061354b565b50600080915091505b9250929050565b61365b6040518061018001604052806000815260200160006001600160a01b0316815260200160001515815260200160006001600160a01b031681526020016000815260200160008152602001600081526020016000815260200160006001600160a01b031681526020016000815260200160008152602001600081525090565b506001600160a01b0391821660009081526002602081815260408084209484529381529183902083516101808101855281548152600182015480871694820194909452600160a01b90930460ff161515938301939093528201548316606082015260038201546080820152600482015460a0820152600582015460c0820152600682015460e0820152600782015490921661010083015260088101546101208301526009810154610140830152600a015461016082015290565b6000805b60005481101561377657826001600160a01b031660008281548110613740576137406154c0565b6000918252602090912001546001600160a01b031614156137645750600192915050565b8061376e81615479565b915050613719565b50600092915050565b8282816001600160a01b031661379583836135da565b602001516001600160a01b0316146137e95760405162461bcd60e51b8152602060048201526017602482015276139bdd081bdddb995c881d1a1a5cc818dbdb9d1c9858dd604a1b6044820152606401610466565b6001600160a01b03851660009081526002602090815260408083208784529091528120600501805485929061381f908490615409565b9091555050604051839085907f55c5fcd1e6b45344c33b2efe8b0a1c21370e8436550c2a417ca7a88b4f9ecd7f90600090a35050505050565b8282816001600160a01b031661386e83836135da565b602001516001600160a01b0316146138c25760405162461bcd60e51b8152602060048201526017602482015276139bdd081bdddb995c881d1a1a5cc818dbdb9d1c9858dd604a1b6044820152606401610466565b6001600160a01b0385166000908152600260209081526040808320878452909152812060050180548592906138f8908490615409565b9091555050604051839085907f39ad9ab227a3f33f44fa8a3bd1d05a8540654651c5b126643016fa827169bb6690600090a35050505050565b6001600160a01b0382161580159061395157506001600160a01b03811615155b61399d5760405162461bcd60e51b815260206004820152601360248201527f53657420636f72726563742061646472657373000000000000000000000000006044820152606401610466565b6139a682613715565b613a185760405162461bcd60e51b815260206004820152602d60248201527f696e73657274206e6577206173736574206265666f726520736574206164647260448201527f65737320507269636546656564000000000000000000000000000000000000006064820152608401610466565b6001600160a01b03918216600090815260096020526040902080546001600160a01b03191691909216179055565b60008060005b6001600160a01b0385166000908152600360205260409020548110156135ca576001600160a01b0385166000908152600360205260409020805482908110613a9657613a966154c0565b9060005260206000200154841415613ab3579150600190506135d3565b80613abd81615479565b915050613a4c565b60008060005b600454811015613b165760048181548110613ae857613ae86154c0565b9060005260206000200154841415613b04579360019350915050565b80613b0e81615479565b915050613acb565b50600093849350915050565b6000828152600660205260408120805442919084908110613b4557613b456154c0565b90600052602060002090600b02016007015411613ba45760405162461bcd60e51b815260206004820152601060248201527f6c6f616e206e6f742065787069726564000000000000000000000000000000006044820152606401610466565b6000838152600660205260408120805484908110613bc457613bc46154c0565b90600052602060002090600b02016005015490506000600660008681526020019081526020016000208481548110613bfe57613bfe6154c0565b90600052602060002090600b02016003015490506000600660008781526020019081526020016000208581548110613c3857613c386154c0565b90600052602060002090600b0201600501819055506000600660008781526020019081526020016000208581548110613c7357613c736154c0565b90600052602060002090600b0201600801819055506000600660008781526020019081526020016000208581548110613cae57613cae6154c0565b90600052602060002090600b02016003018190555080613ceb600660008881526020019081526020016000208681548110612dae57612dae6154c0565b613cf59084615443565b11613df3578160026000600660008981526020019081526020016000208781548110613d2357613d236154c0565b60009182526020808320600a600b909302018201546001600160a01b0316845283810194909452604092830182208a83529093529081209091018054909190613d6d908490615462565b9091555050600085815260066020526040812080548392600292909188908110613d9957613d996154c0565b60009182526020808320600a600b9093020191909101546001600160a01b03168352828101939093526040918201812089825290925281206008018054909190613de4908490615462565b9091555091925061057d915050565b60008581526006602052604081208054606491613e1a9188908110612dae57612dae6154c0565b60008881526006602052604090208054613e3f919089908110612747576127476154c0565b613e499085615443565b60008981526006602052604090208054613e6e91908a908110612dae57612dae6154c0565b613e789087615443565b613e829190615462565b613e8c9190615421565b613e97906014615443565b613ea19190615421565b613eac906001615409565b90508260026000600660008a81526020019081526020016000208881548110613ed757613ed76154c0565b60009182526020808320600a600b909302018201546001600160a01b0316845283810194909452604092830182208b83529093529081209091018054909190613f21908490615462565b9091555050600086815260066020526040812080548492600292909189908110613f4d57613f4d6154c0565b60009182526020808320600a600b9093020191909101546001600160a01b0316835282810193909352604091820181208a825290925281206008018054909190613f98908490615462565b9091555050600086815260066020526040812080548392600892909189908110613fc457613fc46154c0565b600091825260208083206004600b9093020191909101546001600160a01b0316835282019290925260400181208054909190614001908490615409565b9091555061401190508184615462565b935050505061057d565b505092915050565b6001600160a01b03861660009081526002602090815260408083208884529091529020600901546140a3846140578761442e565b6140619190615443565b6001600160a01b03808a1660009081526002602081815260408084208d855290915290912001548691614094911661442e565b61409e9190615443565b614ea4565b116140ad57600080fd5b6040516323b872dd60e01b81526001600160a01b038881166004830152306024830152604482018590528516906323b872dd90606401602060405180830381600087803b1580156140fd57600080fd5b505af1158015614111573d6000803e3d6000fd5b505050506040513d601f19601f8201168201806040525081019061413591906150e4565b5060408051610160810182526001600160a01b03808a1682526020808301899052898216600090815260028083528582208b835280845286832090910154841695850186905260608501889052928916608085015260a084018890528981529190529160c08201906141ac9086906127699061442e565b81526001600160a01b03891660009081526002602090815260408083208b84528252909120600501549101906141e29042615409565b81526020014281526020016141f789896135da565b60a09081015182526001600160a01b03808b16602093840181905260008b8152600680865260408083208054600181810183559185528885208a51600b9092020180549188166001600160a01b03199283161781558a8a015192810192909255828a015160028084018054928a169284169290921790915560608b015160038085019190915560808c0151600485018054918b16918516919091179055988b0151600584015560c08b01519483019490945560e08a015160078301556101008a015160088301556101208a015160098301556101408a0151600a9092018054929097169116179094559181529084528181208b825290935282200180549293508592909190614307908490615462565b90915550506001600160a01b038716600090815260026020908152604080832089845290915281206008018054859290614342908490615409565b90915550506001600160a01b03871660009081526002602090815260408083208984529091528120600a01805486929061437d908490615409565b90915550506001600160a01b0387811660009081526002602081815260408084208b8552909152918290200154905163a9059cbb60e01b81528a831660048201526024810186905291169063a9059cbb90604401602060405180830381600087803b1580156143eb57600080fd5b505af11580156143ff573d6000803e3d6000fd5b505050506040513d601f19601f8201168201806040525081019061442391906150e4565b505050505050505050565b6001600160a01b03808216600090815260096020526040812054909161057d916144589116610492565b614eb0565b60006104228284615443565b6000868152600660205260409020805482908110614489576144896154c0565b60009182526020909120600b90910201546001600160a01b038981169116146144f45760405162461bcd60e51b815260206004820152601360248201527f4e6f74206f776e65722074686973206c6f616e000000000000000000000000006044820152606401610466565b6001600160a01b0387166000908152600260209081526040808320898452825280832060090154600690925290912080546145a89187918590811061453b5761453b6154c0565b90600052602060002090600b0201600501546145579190615409565b614562906001615443565b6000898152600660205260409020805487919086908110614585576145856154c0565b90600052602060002090600b0201600301546145a19190615409565b6002614094565b116145b257600080fd5b6040516323b872dd60e01b81526001600160a01b038981166004830152306024830152604482018690528616906323b872dd90606401602060405180830381600087803b15801561460257600080fd5b505af1158015614616573d6000803e3d6000fd5b505050506040513d601f19601f8201168201806040525081019061463a91906150e4565b50600086815260066020526040902080548491908390811061465e5761465e6154c0565b90600052602060002090600b0201600301600082825461467e9190615409565b909155505060008681526006602052604090208054859190839081106146a6576146a66154c0565b90600052602060002090600b020160050160008282546146c69190615409565b9091555050600086815260066020526040902080546147399190839081106146f0576146f06154c0565b90600052602060002090600b020160030154614729600660008a81526020019081526020016000208481548110612747576127476154c0565b6147339190615443565b8361445d565b6000878152600660205260409020805483908110614759576147596154c0565b600091825260208083206006600b9093020191909101929092556001600160a01b03891681526002825260408082208983529092529081206003018054859290614307908490615462565b6000806147b18385613545565b915050426006600085815260200190815260200160002082815481106147d9576147d96154c0565b90600052602060002090600b020160070154106148385760405162461bcd60e51b815260206004820152601560248201527f54686973206c6f616e206e6f74206578706972656400000000000000000000006044820152606401610466565b60006064614847876062615443565b6148519190615421565b61485c906001615409565b90506000606461486d836005615443565b6148779190615421565b614882906001615409565b905061488e8183615462565b915080600860006006600089815260200190815260200160002086815481106148b9576148b96154c0565b600091825260208083206002600b9093020191909101546001600160a01b03168352820192909252604001812080549091906148f6908490615409565b9091555061490690508288615462565b6000868152600660205260408120805460029291908790811061492b5761492b6154c0565b60009182526020808320600a600b9093020191909101546001600160a01b03168352828101939093526040918201812089825290925281206003018054909190614976908490615409565b9091555061498790508287876149e1565b61499057600080fd5b84866001600160a01b03167ff4566bf0f626de61c22d06426bb7c188fe0cbf319d7bde6569daac73e2b18f0a846040516149cc91815260200190565b60405180910390a35060019695505050505050565b6000806149ee8385613545565b915050614a9b600660008581526020019081526020016000208281548110614a1857614a186154c0565b90600052602060002090600b020160030154600660008681526020019081526020016000208381548110614a4e57614a4e6154c0565b90600052602060002090600b020160090154600660008781526020019081526020016000208481548110614a8457614a846154c0565b90600052602060002090600b020160080154610f3d565b6000848152600660205260409020805483908110614abb57614abb6154c0565b90600052602060002090600b02016003018190555084600660008581526020019081526020016000208281548110614af557614af56154c0565b90600052602060002090600b0201600301541015614b555760405162461bcd60e51b815260206004820152601860248201527f596f752063616e206f6e6c79204c6f616e20616d6f756e7400000000000000006044820152606401610466565b6000838152600660205260409020805482908110614b7557614b756154c0565b60009182526020909120600b90910201600201546040516323b872dd60e01b81526001600160a01b03868116600483015230602483015260448201889052909116906323b872dd90606401602060405180830381600087803b158015614bda57600080fd5b505af1158015614bee573d6000803e3d6000fd5b505050506040513d601f19601f82011682018060405250810190614c1291906150e4565b506000612710614c23876014615443565b614c2d9190615421565b614c38906001615409565b90508060086000600660008881526020019081526020016000208581548110614c6357614c636154c0565b600091825260208083206002600b9093020191909101546001600160a01b0316835282019290925260400181208054909190614ca0908490615409565b90915550506000848152600660205260408120805484908110614cc557614cc56154c0565b60009182526020909120600a600b9092020101546001600160a01b03169050614cee8288615462565b6001600160a01b038216600090815260026020908152604080832089845290915281206008018054909190614d24908490615462565b90915550614d3490508288615462565b6001600160a01b038216600090815260026020908152604080832089845290915281206003018054909190614d6a908490615409565b90915550614d7a90508288615462565b6000868152600660205260409020805485908110614d9a57614d9a6154c0565b90600052602060002090600b02016003016000828254614dba9190615462565b90915550506000858152600660205260409020805442919085908110614de257614de26154c0565b600091825260209091206008600b909202010155614e6360026000878152600660205260409020805486908110614e1b57614e1b6154c0565b90600052602060002090600b020160030154614e379190615443565b6001600160a01b03831660009081526002602090815260408083208a845290915290206009015461445d565b6000868152600660205260409020805485908110614e8357614e836154c0565b600091825260209091206006600b9092020101555060019695505050505050565b60006104228284615421565b600080821215614f025760405162461bcd60e51b815260206004820181905260248201527f53616665436173743a2076616c7565206d75737420626520706f7369746976656044820152606401610466565b5090565b50805460008255600b0290600052602060002090810190610c4a91905b80821115614f025780546001600160a01b03199081168255600060018301819055600283018054831690556003830181905560048301805483169055600583018190556006830181905560078301819055600883018190556009830155600a820180549091169055600b01614f23565b80356001600160a01b0381168114614faa57600080fd5b919050565b805169ffffffffffffffffffff81168114614faa57600080fd5b600060208284031215614fdb57600080fd5b61042282614f93565b60008060408385031215614ff757600080fd5b61500083614f93565b915061500e60208401614f93565b90509250929050565b6000806040838503121561502a57600080fd5b61503383614f93565b946020939093013593505050565b60008060006060848603121561505657600080fd5b61505f84614f93565b9250602084013591506040840135615076816154d6565b809150509250925092565b600080600080600080600060e0888a03121561509c57600080fd5b6150a588614f93565b9650602088013595506040880135945060608801359350608088013592506150cf60a08901614f93565b915060c0880135905092959891949750929550565b6000602082840312156150f657600080fd5b8151610422816154d6565b60006020828403121561511357600080fd5b5035919050565b60006020828403121561512c57600080fd5b5051919050565b6000806040838503121561514657600080fd5b8235915061500e60208401614f93565b600080600080600060a0868803121561516e57600080fd5b8535945061517e60208701614f93565b93506040860135925061519360608701614f93565b949793965091946080013592915050565b600080604083850312156151b757600080fd5b50508035926020909101359150565b600080600080600060a086880312156151de57600080fd5b6151e786614faf565b945060208601519350604086015192506060860151915061520a60808701614faf565b90509295509295909350565b6020808252825182820181905260009190848201906040850190845b818110156152575783516001600160a01b031683529284019291840191600101615232565b50909695505050505050565b6020808252825182820181905260009190848201906040850190845b818110156152575783518352928401929184019160010161527f565b81516001600160a01b0316815261016081016020830151602083015260408301516152d160408401826001600160a01b03169052565b506060830151606083015260808301516152f660808401826001600160a01b03169052565b5060a083015160a083015260c083015160c083015260e083015160e08301526101008084015181840152506101208084015181840152506101408084015161401b828501826001600160a01b03169052565b8151815260208083015161018083019161536c908401826001600160a01b03169052565b506040830151615380604084018215159052565b50606083015161539b60608401826001600160a01b03169052565b506080830151608083015260a083015160a083015260c083015160c083015260e083015160e0830152610100808401516153df828501826001600160a01b03169052565b50506101208381015190830152610140808401519083015261016092830151929091019190915290565b6000821982111561541c5761541c615494565b500190565b60008261543e57634e487b7160e01b600052601260045260246000fd5b500490565b600081600019048311821515161561545d5761545d615494565b500290565b60008282101561547457615474615494565b500390565b600060001982141561548d5761548d615494565b5060010190565b634e487b7160e01b600052601160045260246000fd5b634e487b7160e01b600052603160045260246000fd5b634e487b7160e01b600052603260045260246000fd5b8015158114610c4a57600080fdfe5265656e7472616e637947756172643a207265656e7472616e742063616c6c00a264697066735822122004c10a118043bba38f365efc3f375072ed7f88909391665480ec7d304bb3533e64736f6c63430008070033",
  "immutableReferences": {},
  "source": "// SPDX-License-Identifier: Leluk911\n\npragma solidity 0.8.7;\n\nimport \"../node_modules/@openzeppelin/contracts/token/ERC20/IERC20.sol\";\nimport \"../node_modules/@openzeppelin/contracts/access/Ownable.sol\";\nimport \"../node_modules/@openzeppelin/contracts/utils/Counters.sol\";\nimport \"../node_modules/@openzeppelin/contracts/security/ReentrancyGuard.sol\";\nimport \"./storage.sol\";\nimport \"./interestCalculator.sol\";\nimport \"./coreFunction.sol\";\n\n\ncontract lendingPage is CoreFunction {\n    //library\n    using Counters for Counters.Counter;\n    //function variable\n    //-------------------------------//\n    constructor(uint _minpenality){\n        Id.increment();\n        minPenality = _minpenality;\n    }\n \n    // ----> User Function\n    function _deposit(address _to,address _asset,uint _amount,uint _apr,uint _deadline,uint _penality,address _collateral,uint _rateCollateral)internal {\n        require(_to != address(0), \"invalid address\");\n        require(_asset != _collateral, \"collateral not valid\");\n        require(_findAsset(_asset),\"asset don't found\");\n        require(addressPriceFeed[_asset] != address(0),\"Pricefeed address miss, whait owner set address priceFeed for this asset\");\n        require(_findAsset(_collateral),\"collateral don't found\");\n        require(IERC20(_asset).balanceOf(_to) >= _amount,\"balance user low\");\n        require(IERC20(_asset).allowance(_to, address(this)) >= _amount,\"alowance user low\");\n        require(_deadline > 0,\"deadline must have geatee 0\");\n        require(_penality >=  minPenality,\"penality must have geate 0\");    \n        IERC20(_asset).transferFrom(_to,address(this), _amount);\n        // fee 0.10%\n        uint contractFee = ((_amount * 10)/10000)+1;\n        balanceFee[_asset] += contractFee;\n        //\n        LendingContract memory newContract= LendingContract(\n            Id.current(),\n            _to,\n            false,\n            _asset,\n            _amount - contractFee,\n            _apr,\n            _deadline,\n            _penality,\n            _collateral,\n            0,\n            _rateCollateral,\n            0\n        );\n        userLendingContract[_to][Id.current()] = newContract;\n        emit NewContractDeposit(\n            Id.current(),_to,_asset,_amount,_apr,_deadline,_penality, _collateral\n        );\n        listContractUser[_to].push(Id.current());\n        listContract.push(Id.current());\n        Id.increment();\n    }\n    function _increasDeposit(address _to,uint _idContract, uint _increasAmount) internal  contractOwner(_to, _idContract){\n        require(_increasAmount > 0, \"increas must be plus 0\");\n        require(IERC20(_findContractLending(_to,_idContract).asset).balanceOf(_to) >= _increasAmount,\"balance user low\");\n        require(IERC20(_findContractLending(_to,_idContract).asset).allowance(_to, address(this)) >= _increasAmount,\"alowance user low\");\n        IERC20(_findContractLending(_to,_idContract).asset).transferFrom(_to,address(this), _increasAmount);\n        userLendingContract[_to][_idContract].amountAvvalible += _increasAmount; \n        emit IncreasContractDeposit(\n            _findContractLending(_to,_idContract).id,\n            _findContractLending(_to,_idContract).amountAvvalible - _increasAmount,\n            _findContractLending(_to,_idContract).amountAvvalible  \n        );\n    }\n    function _decreasDeposit(address _to,uint _idContract, uint _decreasAmount) internal contractOwner(_to, _idContract){\n        require(_decreasAmount > 0, \"increas must be plus 0\");\n        require(\n            _findContractLending(_to,_idContract).amountAvvalible >= _decreasAmount, \"Assett avvalible insufficient for this whidrow\"\n        );\n     \n\n        userLendingContract[_to][_idContract].amountAvvalible -= _decreasAmount;\n\n        IERC20(_findContractLending(_to,_idContract).asset).transfer(_to,_decreasAmount);\n\n        emit DecreasContractDeposit(\n            _findContractLending(_to,_idContract).id,\n            _findContractLending(_to,_idContract).amountAvvalible + _decreasAmount,\n            _findContractLending(_to,_idContract).amountAvvalible\n            \n        );\n\n    }\n    function _deleteContract(address _to,uint _idContract)internal contractOwner(_to, _idContract){\n       require(\n            _findContractLending(_to,_idContract).amountBorrow == 0, \"Contract have asset in borrow\"\n        ); \n        uint amountRepay = userLendingContract[_to][_idContract].amountAvvalible;\n        uint deleteId = userLendingContract[_to][_idContract].id;\n        address assetWidrow =_findContractLending(_to,_idContract).asset;\n        delete userLendingContract[_to][_idContract];\n        if(listContractUser[_to].length > 0){\n            (uint indexDelete, bool response) = _findArrayindexContract(_to, deleteId);\n            if(response){\n                listContractUser[_to][indexDelete]=listContractUser[_to][listContractUser[_to].length -1];\n                listContractUser[_to].pop();\n            }\n        }else{\n            listContractUser[_to].pop();\n        }\n          if(listContract.length > 0){\n            (uint indexDelete, bool response) = _findContractAvvalible(_idContract);\n            if(response){\n                listContract[indexDelete] = listContract[listContract.length -1];\n                listContract.pop();\n            }\n        }else{\n            listContract.pop();\n        }\n        IERC20(assetWidrow).transfer(_to,amountRepay);\n        emit DeleteContractDeposit(_to, deleteId);\n    }\n    function _lockNewBorrow(address _to,uint _idContract,bool _lock)internal contractOwner(_to, _idContract){\n            userLendingContract[_to][_idContract].lock = _lock;   \n       \n    }\n    function _increaseTimeExpire(address _to,uint _idContract, uint _timeIncreas)internal contractOwner(_to, _idContract){\n            userLendingContract[_to][_idContract].duration += _timeIncreas;  \n            emit newTimeExpireIncreas(_idContract, _timeIncreas);   \n    }\n    function _decreaseTimeExpire(address _to,uint _idContract, uint _timeIncreas)internal contractOwner(_to, _idContract){\n            //require(userLendingContract[_to][_idContract].amountBorrow == 0);\n            userLendingContract[_to][_idContract].duration += _timeIncreas;\n            emit newTimeExpireDecreas(_idContract, _timeIncreas);     \n    }\n    function _liquidationCall(address _to,uint _idContract,uint _idBorrow) internal contractOwner(_to, _idContract) {\n        require(borrowersXid[_idContract][_idBorrow].liquidationThreshold <= oraclePrice(borrowersXid[_idContract][_idBorrow].assetCollaterl),\"thresold Liquidation price not achieved\");\n                 \n        // 1/4 collateral\n        uint liquidationAmount = borrowersXid[_idContract][_idBorrow].amountCollateral /4; // parte da liquidare\n        borrowersXid[_idContract][_idBorrow].amountCollateral -= liquidationAmount;\n        userLendingContract[borrowersXid[_idContract][_idBorrow].lender][_idContract].amountCollateral -= liquidationAmount;\n        uint premiumLiquidation = ((liquidationAmount * 5)/100)+1;\n        liquidationAmount -= premiumLiquidation;\n        userLendingContract[borrowersXid[_idContract][_idBorrow].lender][_idContract].amountBorrow -= 750;//TEST ONLY liquidationAmount * _mockOracleCollateral();\n        borrowersXid[_idContract][_idBorrow].ammounBorrow -=  750; //TEST ONLY liquidationAmount * 1 _mockOracleCollateral();\n        borrowersXid[_idContract][_idBorrow].liquidationThreshold = _liquidationThresold(\n             oraclePrice(borrowersXid[_idContract][_idBorrow].assetBorrow) * borrowersXid[_idContract][_idBorrow].ammounBorrow,\n             userLendingContract[borrowersXid[_idContract][_idBorrow].lender][_idContract].rateCollateral\n             );\n        IERC20(borrowersXid[_idContract][_idBorrow].assetCollaterl).transfer(\n            borrowersXid[_idContract][_idBorrow].owner,\n            liquidationAmount + premiumLiquidation);\n     \n     emit LiquidationCall(_idContract,_idBorrow,borrowersXid[_idContract][_idBorrow].assetCollaterl,liquidationAmount + premiumLiquidation);\n    }\n    function _collateralSeizure(uint _idContract,uint _idBorrow) internal returns(uint){\n        require(borrowersXid[_idContract][_idBorrow].expiration > block.timestamp,\"loan not expired\");\n        uint collateral = borrowersXid[_idContract][_idBorrow].amountCollateral;\n        uint borrowExpired = borrowersXid[_idContract][_idBorrow].ammounBorrow;\n        borrowersXid[_idContract][_idBorrow].amountCollateral = 0;\n        borrowersXid[_idContract][_idBorrow].blockStart = 0;\n        borrowersXid[_idContract][_idBorrow].ammounBorrow = 0;\n        if(collateral * oraclePrice(borrowersXid[_idContract][_idBorrow].assetCollaterl)<=  borrowExpired){\n            userLendingContract[borrowersXid[_idContract][_idBorrow].lender][_idContract].amountCollateral -= collateral;\n            userLendingContract[borrowersXid[_idContract][_idBorrow].lender][_idContract].amountBorrow -= borrowExpired;\n            return collateral;   \n        }else {\n            uint contractFee = ((((collateral * oraclePrice(borrowersXid[_idContract][_idBorrow].assetCollaterl)\n                    - borrowExpired *oraclePrice(borrowersXid[_idContract][_idBorrow].assetBorrow))\n                    / oraclePrice(borrowersXid[_idContract][_idBorrow].assetCollaterl))*20)/100)+1;\n                    \n            userLendingContract[borrowersXid[_idContract][_idBorrow].lender][_idContract].amountCollateral -= collateral;\n            userLendingContract[borrowersXid[_idContract][_idBorrow].lender][_idContract].amountBorrow -= borrowExpired;\n            balanceFee[borrowersXid[_idContract][_idBorrow].assetCollaterl] += contractFee;\n            return collateral - contractFee;   \n        }\n    }\n    function _widrowCreditExpire(address _to,uint _idContract)internal contractOwner(_to, _idContract){\n        require(userLendingContract[_to][_idContract].lock == true);\n        require(userLendingContract[_to][_idContract].amountCollateral ==0);\n        uint widrow = userCreditExpire[_to][userLendingContract[_to][_idContract].collateral];\n        userCreditExpire[_to][userLendingContract[_to][_idContract].collateral] = 0;\n        IERC20(userLendingContract[_to][_idContract].collateral).transfer(_to, widrow);\n\n        emit WidrowCredit(_to, _idContract, userLendingContract[_to][_idContract].collateral, widrow);\n    }\n    function _RecoverCreditsExpired(address _to,uint _idContract)internal contractOwner(_to, _idContract) {\n        _lockNewBorrow(_to,_idContract,true);\n        uint creditExpired;\n        for(uint i; i < borrowersXid[_idContract].length ; i++){\n            creditExpired+=_collateralSeizure( _idContract,i);\n        }\n        delete borrowersXid[_idContract] ;\n        userCreditExpire[_to][userLendingContract[_to][_idContract].collateral] += creditExpired;\n        emit RecoveryCredit(_idContract, userLendingContract[_to][_idContract].collateral, userCreditExpire[_to][userLendingContract[_to][_idContract].collateral]);\n    }\n     function _RecoverSingleCreditExpired(address _to,uint _idContract,uint _idBorrow)internal contractOwner(_to, _idContract) {\n        _lockNewBorrow(_to,_idContract,true);\n        \n        uint singleCreditExpired;\n        singleCreditExpired +=_collateralSeizure( _idContract, _idBorrow);\n        \n        borrowersXid[_idContract][_idBorrow] = borrowersXid[_idContract][borrowersXid[_idContract].length -1];\n        borrowersXid[_idContract].pop();\n\n        userCreditExpire[_to][userLendingContract[_to][_idContract].collateral] += singleCreditExpired; \n        emit RecoverySingleCredit(_idContract, userLendingContract[_to][_idContract].collateral, userCreditExpire[_to][userLendingContract[_to][_idContract].collateral]);\n    }\n    \n    //BORROW FUNCTION\n    function _executeBorrow(address _to,uint _idContract,address _lender,uint _amountBorrow,address _assettCollateral,uint _amountCollateral) internal {\n        require(userLendingContract[_lender][_idContract].lock == false,\"This lender has blocked the issuance of new Loan\");\n        (,bool response) = _findArrayindexContract(_lender,_idContract);\n        require(response,\"contract dont exist\");\n        require(userLendingContract[_lender][_idContract].amountAvvalible >= _amountBorrow,\"Amount avvalible low\");\n        uint _rateLiquidation = userLendingContract[_lender][_idContract].rateCollateral;\n        (bool responseSrc,uint indexBorrow) = _serchIndexBorrowerXContract(_idContract, _to);\n        //check before act borrow \n        if(!responseSrc){\n            _newBorrower(_to,_lender, _idContract, _assettCollateral, _amountCollateral, _amountBorrow, _rateLiquidation);\n        }else{\n            //_liquidationThresold( uint _priceBorrowEth,uint _rateLiquidation)\n            require(_liquidationThresold(\n                          oraclePrice(borrowersXid[_idContract][indexBorrow].assetBorrow) * borrowersXid[_idContract][indexBorrow].amountCollateral,\n                           _rateLiquidation) > borrowersXid[_idContract][indexBorrow].liquidationThreshold);\n            _oldBorrower(_to, _lender, _idContract, _assettCollateral, _amountCollateral, _amountBorrow, _rateLiquidation, indexBorrow);\n\n        }\n\n        emit Borrow(_to, _idContract, _amountBorrow);\n    }\n    function _oldBorrower(address _to,address _lender,uint _idContract,address _assettCollateral,uint _amountCollateral,uint _amountBorrow, uint _rateLiquidation,uint indexBorrow)internal {\n        require(_to == borrowersXid[_idContract][indexBorrow].owner, \"Not owner this loan\" );\n        require(_healFactor(_mockOracleCollateral() *(borrowersXid[_idContract][indexBorrow].amountCollateral + _amountCollateral),\n                             _mockOracleBorrow() *(borrowersXid[_idContract][indexBorrow].ammounBorrow + _amountBorrow)\n                             )> userLendingContract[_lender][_idContract].rateCollateral); \n\n        IERC20(_assettCollateral).transferFrom(_to, address(this), _amountCollateral);\n        borrowersXid[_idContract][indexBorrow].ammounBorrow += _amountBorrow;// aggiornata la variabile globale\n        borrowersXid[_idContract][indexBorrow].amountCollateral += _amountCollateral;// aggiornata la variabile globale\n        borrowersXid[_idContract][indexBorrow].liquidationThreshold =\n                _liquidationThresold(\n                    oraclePrice(borrowersXid[_idContract][indexBorrow].assetBorrow)\n                    *borrowersXid[_idContract][indexBorrow].ammounBorrow,_rateLiquidation);\n        userLendingContract[_lender][_idContract].amountAvvalible -=_amountBorrow;// togliamo le coin prestare\n        userLendingContract[_lender][_idContract].amountBorrow += _amountBorrow; // incrementiamo il capitale prestato\n        userLendingContract[_lender][_idContract].amountCollateral += _amountCollateral;// aggiungiamo la quantita di collaterale presente nel contratto\n        IERC20(userLendingContract[_lender][_idContract].asset).transfer(_to, _amountBorrow);\n\n    }\n    function _newBorrower(address _to,address _lender,uint _idContract,address _assettCollateral,uint _amountCollateral,uint _amountBorrow, uint _rateLiquidation)internal {\n        require(_healFactor(oraclePrice(_assettCollateral) * _amountCollateral,\n            oraclePrice(userLendingContract[_lender][_idContract].asset)*_amountBorrow) \n            > userLendingContract[_lender][_idContract].rateCollateral);\n\n        IERC20(_assettCollateral).transferFrom(_to, address(this), _amountCollateral);\n        Borrower memory newBorrower = Borrower(\n                                            _to,\n                                            _idContract,\n                                            userLendingContract[_lender][_idContract].asset,\n                                            _amountBorrow,\n                                            _assettCollateral,\n                                            _amountCollateral,\n                                            _liquidationThresold(\n                                                  oraclePrice(userLendingContract[_lender][_idContract].asset)\n                                                  *_amountBorrow,\n                                                 _rateLiquidation),\n                                            block.timestamp + userLendingContract[_lender][_idContract].duration,\n                                            block.timestamp,\n                                            _findContractLending(_lender,_idContract).apr,\n                                            _lender\n\n                                            );\n        borrowersXid[_idContract].push(newBorrower);\n        userLendingContract[_lender][_idContract].amountAvvalible -=_amountBorrow;// togliamo le coin prestare\n        userLendingContract[_lender][_idContract].amountBorrow += _amountBorrow; // incrementiamo il capitale prestato\n        userLendingContract[_lender][_idContract].amountCollateral += _amountCollateral;// aggiungiamo la quantita di collaterale presente nel contratto\n        IERC20(userLendingContract[_lender][_idContract].asset).transfer(_to, _amountBorrow);\n    }\n    function _executeRepay(address _to, uint _idContract,uint _amount) internal {\n        require(_to  ==  _serchBorrowerPositionXContract(_idContract, _to).owner ,\"Not owner this loan\");\n        if(block.timestamp >  _serchBorrowerPositionXContract(_idContract, _to).expiration){\n            require(_penalityLoan(_amount, _to, _idContract));// gestire la penalit\n        }else{\n            require(_repay( _amount, _to, _idContract),\"Repay error\");\n        }\n        emit repay(_to, _idContract, _amount);\n    }\n    function _repay(uint _amount,address _to,uint _idContract) internal returns(bool){\n            (,uint indexBorrow) = _serchIndexBorrowerXContract(_idContract, _to);\n\n            borrowersXid[_idContract][indexBorrow].ammounBorrow = InterestCalculator._getTotalLoan(\n                borrowersXid[_idContract][indexBorrow].ammounBorrow,\n                borrowersXid[_idContract][indexBorrow].aprLoan,\n                borrowersXid[_idContract][indexBorrow].blockStart);\n            require(borrowersXid[_idContract][indexBorrow].ammounBorrow >= _amount, \"You can only Loan amount\");\n\n            IERC20(borrowersXid[_idContract][indexBorrow].assetBorrow).transferFrom(_to,address(this), _amount);\n               // fee 0.20%\n                uint contractFee = ((_amount * 20)/10000)+1;\n                balanceFee[borrowersXid[_idContract][indexBorrow].assetBorrow] += contractFee;\n                //\n            address _lender = borrowersXid[_idContract][indexBorrow].lender;\n            userLendingContract[_lender][_idContract].amountBorrow -= _amount - contractFee;\n            userLendingContract[_lender][_idContract].amountAvvalible += _amount - contractFee;\n            borrowersXid[_idContract][indexBorrow].ammounBorrow -= _amount - contractFee;\n            borrowersXid[_idContract][indexBorrow].blockStart = block.timestamp;\n            borrowersXid[_idContract][indexBorrow].liquidationThreshold = \n                _liquidationThresold(\n                      borrowersXid[_idContract][indexBorrow].ammounBorrow * _mockOracleBorrow(),\n                      userLendingContract[_lender][_idContract].rateCollateral);\n            return true;\n    }\n    function _penalityLoan ( uint _amount,address _to,uint _idContract) internal returns(bool){\n        (,uint indexBorrow) = _serchIndexBorrowerXContract(_idContract, _to);\n        require(borrowersXid[_idContract][indexBorrow].expiration < block.timestamp, \"This loan not expired\");\n        //penality 2% of pay\n        uint new_amount = ((_amount *98)/100)+1;\n        // fee 5%\n        uint contractFee = ((new_amount * 5)/100)+1;\n        new_amount -= contractFee;\n        balanceFee[borrowersXid[_idContract][indexBorrow].assetBorrow] += contractFee;\n        userLendingContract[borrowersXid[_idContract][indexBorrow].lender][_idContract].amountAvvalible += _amount - new_amount;// tutto /2\n        require(_repay(new_amount, _to, _idContract));\n        emit applyPenality(_to, _idContract,new_amount);\n        return true;\n    }\n    // EXTERNAL FUNCTION\n    function setAssettAvvalible(address _newAsset) external nonReentrant() onlyOwner() {\n        _setAssettAvvalible(_newAsset);\n        emit NewAssetAvvalible(_newAsset, block.timestamp);\n    } \n    function findAsset(address _asset) external view returns(bool){\n        return _findAsset(_asset);\n    }\n    function deposit(address _asset,uint _amount,uint _apr,uint _deadline,uint _penality,address _collateral,uint _rateCollateral) external nonReentrant() {\n        _deposit(msg.sender, _asset, _amount, _apr, _deadline, _penality, _collateral,_rateCollateral);\n    }\n    function listContractXuser(address _user) external view returns(uint[] memory){\n        return _listContractXuser(_user);\n    }\n    function getAssettAvvalible()external view returns (address[] memory ){\n        return _getAssettAvvalible(); \n    }\n    function findContractLending(address _to,uint _id)external view returns(LendingContract memory){\n        return _findContractLending(_to, _id);\n    }\n    function increasDeposit(uint _idContract, uint _increasAmount) external nonReentrant(){\n        _increasDeposit(msg.sender, _idContract, _increasAmount);\n    }\n    function decreasDeposit(uint _idContract, uint _decreasAmount) external nonReentrant(){\n        _decreasDeposit(msg.sender, _idContract, _decreasAmount);\n    }\n    function deleteContract(uint _idContract) external nonReentrant(){\n        _deleteContract(msg.sender, _idContract);\n    }\n    function executeBorrow(uint _idContract,address _lender,uint _amountBorrow,address _assettCollateral,uint _amountCollateral) external nonReentrant(){\n        _executeBorrow(msg.sender, _idContract, _lender, _amountBorrow, _assettCollateral, _amountCollateral);\n    }\n    function serchBorrowerPositionXContract(uint _idContract,address _borrower) external view returns (Borrower memory){\n        return _serchBorrowerPositionXContract(_idContract, _borrower);\n    }\n    function serchIndexBorrowerXContract(uint _idContract,address _borrower)external view returns(uint){\n        (,uint idFind) = _serchIndexBorrowerXContract(_idContract, _borrower);\n        return idFind;\n    }\n    function lockNewBorrow(address _to,uint _idContract,bool _lock)external nonReentrant(){\n        _lockNewBorrow(_to, _idContract,_lock);\n    }\n    function viewAmountLoan(address  _borrower,uint _idContract) external view returns(uint loanCompouse) {\n        loanCompouse = InterestCalculator._getTotalLoan(\n            _serchBorrowerPositionXContract(_idContract, _borrower).ammounBorrow,\n            _serchBorrowerPositionXContract(_idContract, _borrower).aprLoan,\n            _serchBorrowerPositionXContract(_idContract, _borrower).blockStart); \n    }\n    function executeRepay(uint _idContract,uint _amount) external nonReentrant(){\n        _executeRepay(msg.sender, _idContract, _amount);\n    }\n    function increaseTimeExpire(uint _idContract, uint _timeIncreas)external nonReentrant(){\n          _increaseTimeExpire(msg.sender, _idContract, _timeIncreas);\n    }\n    function decreaseTimeExpire(uint _idContract, uint _timeIncreas)external nonReentrant(){\n          _decreaseTimeExpire(msg.sender, _idContract, _timeIncreas);\n    }\n    function liquidationCall(uint _idContract,uint _idBorrow) external nonReentrant(){\n        _liquidationCall(msg.sender,_idContract,_idBorrow);\n    }\n    //// vvvvvv NO TESTED vvvvvvv\n    function widrowCreditExpire(uint _idContract)external nonReentrant(){    \n        _widrowCreditExpire(msg.sender, _idContract);\n    }\n    function recoverCreditsExpired(uint _idContract)external nonReentrant(){\n        _RecoverCreditsExpired(msg.sender, _idContract);\n    }\n    function recoverSingleCreditExpired(uint _idContract,uint _idBorrow)external nonReentrant() {\n        _RecoverSingleCreditExpired(msg.sender, _idContract, _idBorrow);\n    }\n\n \n   \n    // MODIFIER\n    modifier contractOwner(address _to,uint _idContract){\n        require(\n           _findContractLending(_to,_idContract).owner == _to, \"Not owner this contract\" \n        );\n        _;\n    }\n    // EVENT \n\n     event NewAssetAvvalible(address indexed asset, uint timeStart);\n     event NewContractDeposit(\n        uint Id,\n        address indexed owner,\n        address indexed asset,\n        uint amount,\n        uint apr,\n        uint  deadline,\n        uint  penality,\n        address indexed collateral\n     );\n     event IncreasContractDeposit(\n        uint Id,\n        uint indexed amount,\n        uint indexed newAmount\n     );\n     event DecreasContractDeposit(\n        uint Id,\n        uint indexed amount,\n        uint indexed newAmount\n     );\n\n     event DeleteContractDeposit(\n        address indexed owner,\n        uint indexed id\n     );\n     event Borrow( address indexed Borrower,uint indexed Id_Contract, uint amount);\n\n     event repay(address indexed _to, uint indexed _idContract,uint _amount);\n     event applyPenality(address indexed _to,uint  indexed _idContract,uint _amount);\n\n     event newTimeExpireIncreas(uint indexed _idContract, uint indexed _timeIncreas);\n     event newTimeExpireDecreas(uint indexed _idContract, uint indexed _timeIncreas);\n     event LiquidationCall (uint indexed _idContract,uint indexed _idBorrow, address assetsLiquidate, uint amount);\n\n     event RecoveryCredit(uint indexed _idContract,address indexed collateral, uint amount);\n     event RecoverySingleCredit(uint indexed _idContract,address indexed collateral, uint amount);\n     event WidrowCredit(address indexed _to,uint indexed _idContract,address indexed collateral, uint amount);\n\n    // mock function\n\n    function _mockOracleBorrow() internal pure returns(uint price){\n        price = 2;\n    }\n\n    function _mockOracleCollateral() internal pure returns(uint price){\n        price = 1;\n\n    }\n\n    \n    \n\n    \n   \n\n    \n\n\n   \n\n\n\n\n\n    \n    \n\n    \n    \n\n//assetBorrow\n\n    \n\n}\n",
  "sourcePath": "/media/leluk/storage/Studio Dev/Dapp portfolio/individual lending/contracts/Individual_lending.sol",
  "compiler": {
    "name": "solc",
    "version": "0.8.7+commit.e28d00a7.Emscripten.clang"
  },
  "schemaVersion": "3.4.7",
  "updatedAt": "2022-06-29T18:37:11.191Z",
  "devdoc": {
    "kind": "dev",
    "methods": {
      "owner()": {
        "details": "Returns the address of the current owner."
      },
      "renounceOwnership()": {
        "details": "Leaves the contract without owner. It will not be possible to call `onlyOwner` functions anymore. Can only be called by the current owner. NOTE: Renouncing ownership will leave the contract without an owner, thereby removing any functionality that is only available to the owner."
      },
      "transferOwnership(address)": {
        "details": "Transfers ownership of the contract to a new account (`newOwner`). Can only be called by the current owner."
      }
    },
    "version": 1
  },
  "userdoc": {
    "kind": "user",
    "methods": {},
    "version": 1
  }
}