{
  "contractName": "lendingPage",
  "abi": [
    {
      "inputs": [
        {
          "internalType": "uint256",
          "name": "_minpenality",
          "type": "uint256"
        }
      ],
      "stateMutability": "nonpayable",
      "type": "constructor"
    },
    {
      "anonymous": false,
      "inputs": [
        {
          "indexed": true,
          "internalType": "address",
          "name": "Borrower",
          "type": "address"
        },
        {
          "indexed": true,
          "internalType": "uint256",
          "name": "Id_Contract",
          "type": "uint256"
        },
        {
          "indexed": false,
          "internalType": "uint256",
          "name": "amount",
          "type": "uint256"
        }
      ],
      "name": "Borrow",
      "type": "event"
    },
    {
      "anonymous": false,
      "inputs": [
        {
          "indexed": false,
          "internalType": "uint256",
          "name": "Id",
          "type": "uint256"
        },
        {
          "indexed": true,
          "internalType": "uint256",
          "name": "amount",
          "type": "uint256"
        },
        {
          "indexed": true,
          "internalType": "uint256",
          "name": "newAmount",
          "type": "uint256"
        }
      ],
      "name": "DecreasContractDeposit",
      "type": "event"
    },
    {
      "anonymous": false,
      "inputs": [
        {
          "indexed": true,
          "internalType": "address",
          "name": "owner",
          "type": "address"
        },
        {
          "indexed": true,
          "internalType": "uint256",
          "name": "id",
          "type": "uint256"
        }
      ],
      "name": "DeleteContractDeposit",
      "type": "event"
    },
    {
      "anonymous": false,
      "inputs": [
        {
          "indexed": false,
          "internalType": "uint256",
          "name": "Id",
          "type": "uint256"
        },
        {
          "indexed": true,
          "internalType": "uint256",
          "name": "amount",
          "type": "uint256"
        },
        {
          "indexed": true,
          "internalType": "uint256",
          "name": "newAmount",
          "type": "uint256"
        }
      ],
      "name": "IncreasContractDeposit",
      "type": "event"
    },
    {
      "anonymous": false,
      "inputs": [
        {
          "indexed": true,
          "internalType": "address",
          "name": "asset",
          "type": "address"
        },
        {
          "indexed": false,
          "internalType": "uint256",
          "name": "timeStart",
          "type": "uint256"
        }
      ],
      "name": "NewAssetAvvalible",
      "type": "event"
    },
    {
      "anonymous": false,
      "inputs": [
        {
          "indexed": false,
          "internalType": "uint256",
          "name": "Id",
          "type": "uint256"
        },
        {
          "indexed": true,
          "internalType": "address",
          "name": "owner",
          "type": "address"
        },
        {
          "indexed": true,
          "internalType": "address",
          "name": "asset",
          "type": "address"
        },
        {
          "indexed": false,
          "internalType": "uint256",
          "name": "amount",
          "type": "uint256"
        },
        {
          "indexed": false,
          "internalType": "uint256",
          "name": "apr",
          "type": "uint256"
        },
        {
          "indexed": false,
          "internalType": "uint256",
          "name": "deadline",
          "type": "uint256"
        },
        {
          "indexed": false,
          "internalType": "uint256",
          "name": "penality",
          "type": "uint256"
        },
        {
          "indexed": true,
          "internalType": "address",
          "name": "collateral",
          "type": "address"
        }
      ],
      "name": "NewContractDeposit",
      "type": "event"
    },
    {
      "anonymous": false,
      "inputs": [
        {
          "indexed": true,
          "internalType": "address",
          "name": "previousOwner",
          "type": "address"
        },
        {
          "indexed": true,
          "internalType": "address",
          "name": "newOwner",
          "type": "address"
        }
      ],
      "name": "OwnershipTransferred",
      "type": "event"
    },
    {
      "anonymous": false,
      "inputs": [
        {
          "indexed": true,
          "internalType": "address",
          "name": "_to",
          "type": "address"
        },
        {
          "indexed": true,
          "internalType": "uint256",
          "name": "_idContract",
          "type": "uint256"
        },
        {
          "indexed": false,
          "internalType": "uint256",
          "name": "_amount",
          "type": "uint256"
        }
      ],
      "name": "applyPenality",
      "type": "event"
    },
    {
      "anonymous": false,
      "inputs": [
        {
          "indexed": true,
          "internalType": "uint256",
          "name": "_idContract",
          "type": "uint256"
        },
        {
          "indexed": true,
          "internalType": "uint256",
          "name": "_timeIncreas",
          "type": "uint256"
        }
      ],
      "name": "newTimeExpireDecreas",
      "type": "event"
    },
    {
      "anonymous": false,
      "inputs": [
        {
          "indexed": true,
          "internalType": "uint256",
          "name": "_idContract",
          "type": "uint256"
        },
        {
          "indexed": true,
          "internalType": "uint256",
          "name": "_timeIncreas",
          "type": "uint256"
        }
      ],
      "name": "newTimeExpireIncreas",
      "type": "event"
    },
    {
      "anonymous": false,
      "inputs": [
        {
          "indexed": true,
          "internalType": "address",
          "name": "_to",
          "type": "address"
        },
        {
          "indexed": true,
          "internalType": "uint256",
          "name": "_idContract",
          "type": "uint256"
        },
        {
          "indexed": false,
          "internalType": "uint256",
          "name": "_amount",
          "type": "uint256"
        }
      ],
      "name": "repay",
      "type": "event"
    },
    {
      "inputs": [],
      "name": "owner",
      "outputs": [
        {
          "internalType": "address",
          "name": "",
          "type": "address"
        }
      ],
      "stateMutability": "view",
      "type": "function"
    },
    {
      "inputs": [],
      "name": "renounceOwnership",
      "outputs": [],
      "stateMutability": "nonpayable",
      "type": "function"
    },
    {
      "inputs": [
        {
          "internalType": "address",
          "name": "newOwner",
          "type": "address"
        }
      ],
      "name": "transferOwnership",
      "outputs": [],
      "stateMutability": "nonpayable",
      "type": "function"
    },
    {
      "inputs": [
        {
          "internalType": "address",
          "name": "_newAsset",
          "type": "address"
        }
      ],
      "name": "setAssettAvvalible",
      "outputs": [],
      "stateMutability": "nonpayable",
      "type": "function"
    },
    {
      "inputs": [
        {
          "internalType": "address",
          "name": "_asset",
          "type": "address"
        }
      ],
      "name": "findAsset",
      "outputs": [
        {
          "internalType": "bool",
          "name": "",
          "type": "bool"
        }
      ],
      "stateMutability": "view",
      "type": "function"
    },
    {
      "inputs": [
        {
          "internalType": "address",
          "name": "_asset",
          "type": "address"
        },
        {
          "internalType": "uint256",
          "name": "_amount",
          "type": "uint256"
        },
        {
          "internalType": "uint256",
          "name": "_apr",
          "type": "uint256"
        },
        {
          "internalType": "uint256",
          "name": "_deadline",
          "type": "uint256"
        },
        {
          "internalType": "uint256",
          "name": "_penality",
          "type": "uint256"
        },
        {
          "internalType": "address",
          "name": "_collateral",
          "type": "address"
        },
        {
          "internalType": "uint256",
          "name": "_rateCollateral",
          "type": "uint256"
        }
      ],
      "name": "deposit",
      "outputs": [],
      "stateMutability": "nonpayable",
      "type": "function"
    },
    {
      "inputs": [
        {
          "internalType": "address",
          "name": "_user",
          "type": "address"
        }
      ],
      "name": "listContractXuser",
      "outputs": [
        {
          "internalType": "uint256[]",
          "name": "",
          "type": "uint256[]"
        }
      ],
      "stateMutability": "view",
      "type": "function"
    },
    {
      "inputs": [],
      "name": "getAssettAvvalible",
      "outputs": [
        {
          "internalType": "address[]",
          "name": "",
          "type": "address[]"
        }
      ],
      "stateMutability": "view",
      "type": "function"
    },
    {
      "inputs": [
        {
          "internalType": "address",
          "name": "_to",
          "type": "address"
        },
        {
          "internalType": "uint256",
          "name": "_id",
          "type": "uint256"
        }
      ],
      "name": "findContractLending",
      "outputs": [
        {
          "components": [
            {
              "internalType": "uint256",
              "name": "id",
              "type": "uint256"
            },
            {
              "internalType": "address",
              "name": "owner",
              "type": "address"
            },
            {
              "internalType": "bool",
              "name": "lock",
              "type": "bool"
            },
            {
              "internalType": "address",
              "name": "asset",
              "type": "address"
            },
            {
              "internalType": "uint256",
              "name": "amountAvvalible",
              "type": "uint256"
            },
            {
              "internalType": "uint256",
              "name": "apr",
              "type": "uint256"
            },
            {
              "internalType": "uint256",
              "name": "duration",
              "type": "uint256"
            },
            {
              "internalType": "uint256",
              "name": "penality",
              "type": "uint256"
            },
            {
              "internalType": "address",
              "name": "collateral",
              "type": "address"
            },
            {
              "internalType": "uint256",
              "name": "amountBorrow",
              "type": "uint256"
            },
            {
              "internalType": "uint256",
              "name": "rateCollateral",
              "type": "uint256"
            },
            {
              "internalType": "uint256",
              "name": "amountCollateral",
              "type": "uint256"
            }
          ],
          "internalType": "struct Storage.LendingContract",
          "name": "",
          "type": "tuple"
        }
      ],
      "stateMutability": "view",
      "type": "function"
    },
    {
      "inputs": [
        {
          "internalType": "uint256",
          "name": "_idContract",
          "type": "uint256"
        },
        {
          "internalType": "uint256",
          "name": "_increasAmount",
          "type": "uint256"
        }
      ],
      "name": "increasDeposit",
      "outputs": [],
      "stateMutability": "nonpayable",
      "type": "function"
    },
    {
      "inputs": [
        {
          "internalType": "uint256",
          "name": "_idContract",
          "type": "uint256"
        },
        {
          "internalType": "uint256",
          "name": "_decreasAmount",
          "type": "uint256"
        }
      ],
      "name": "decreasDeposit",
      "outputs": [],
      "stateMutability": "nonpayable",
      "type": "function"
    },
    {
      "inputs": [
        {
          "internalType": "uint256",
          "name": "_idContract",
          "type": "uint256"
        }
      ],
      "name": "deleteContract",
      "outputs": [],
      "stateMutability": "nonpayable",
      "type": "function"
    },
    {
      "inputs": [
        {
          "internalType": "uint256",
          "name": "_idContract",
          "type": "uint256"
        },
        {
          "internalType": "address",
          "name": "_lender",
          "type": "address"
        },
        {
          "internalType": "uint256",
          "name": "_amountBorrow",
          "type": "uint256"
        },
        {
          "internalType": "address",
          "name": "_assettCollateral",
          "type": "address"
        },
        {
          "internalType": "uint256",
          "name": "_amountCollateral",
          "type": "uint256"
        }
      ],
      "name": "executeBorrow",
      "outputs": [],
      "stateMutability": "nonpayable",
      "type": "function"
    },
    {
      "inputs": [
        {
          "internalType": "uint256",
          "name": "_idContract",
          "type": "uint256"
        },
        {
          "internalType": "address",
          "name": "_borrower",
          "type": "address"
        }
      ],
      "name": "serchBorrowerPositionXContract",
      "outputs": [
        {
          "components": [
            {
              "internalType": "address",
              "name": "owner",
              "type": "address"
            },
            {
              "internalType": "uint256",
              "name": "idContract",
              "type": "uint256"
            },
            {
              "internalType": "address",
              "name": "assetBorrow",
              "type": "address"
            },
            {
              "internalType": "uint256",
              "name": "ammounBorrow",
              "type": "uint256"
            },
            {
              "internalType": "address",
              "name": "assetCollaterl",
              "type": "address"
            },
            {
              "internalType": "uint256",
              "name": "amountCollateral",
              "type": "uint256"
            },
            {
              "internalType": "uint256",
              "name": "liquidationThreshold",
              "type": "uint256"
            },
            {
              "internalType": "uint256",
              "name": "expiration",
              "type": "uint256"
            },
            {
              "internalType": "uint256",
              "name": "blockStart",
              "type": "uint256"
            },
            {
              "internalType": "uint256",
              "name": "aprLoan",
              "type": "uint256"
            },
            {
              "internalType": "address",
              "name": "lender",
              "type": "address"
            }
          ],
          "internalType": "struct Storage.Borrower",
          "name": "",
          "type": "tuple"
        }
      ],
      "stateMutability": "view",
      "type": "function"
    },
    {
      "inputs": [
        {
          "internalType": "uint256",
          "name": "_idContract",
          "type": "uint256"
        },
        {
          "internalType": "address",
          "name": "_borrower",
          "type": "address"
        }
      ],
      "name": "serchIndexBorrowerXContract",
      "outputs": [
        {
          "internalType": "uint256",
          "name": "",
          "type": "uint256"
        }
      ],
      "stateMutability": "view",
      "type": "function"
    },
    {
      "inputs": [
        {
          "internalType": "address",
          "name": "_to",
          "type": "address"
        },
        {
          "internalType": "uint256",
          "name": "_idContract",
          "type": "uint256"
        },
        {
          "internalType": "bool",
          "name": "_lock",
          "type": "bool"
        }
      ],
      "name": "lockNewBorrow",
      "outputs": [],
      "stateMutability": "nonpayable",
      "type": "function"
    },
    {
      "inputs": [
        {
          "internalType": "address",
          "name": "_borrower",
          "type": "address"
        },
        {
          "internalType": "uint256",
          "name": "_idContract",
          "type": "uint256"
        }
      ],
      "name": "viewAmountLoan",
      "outputs": [
        {
          "internalType": "uint256",
          "name": "loanCompouse",
          "type": "uint256"
        }
      ],
      "stateMutability": "view",
      "type": "function"
    },
    {
      "inputs": [
        {
          "internalType": "uint256",
          "name": "_idContract",
          "type": "uint256"
        },
        {
          "internalType": "uint256",
          "name": "_amount",
          "type": "uint256"
        }
      ],
      "name": "executeRepay",
      "outputs": [],
      "stateMutability": "nonpayable",
      "type": "function"
    },
    {
      "inputs": [
        {
          "internalType": "uint256",
          "name": "_idContract",
          "type": "uint256"
        },
        {
          "internalType": "uint256",
          "name": "_timeIncreas",
          "type": "uint256"
        }
      ],
      "name": "increaseTimeExpire",
      "outputs": [],
      "stateMutability": "nonpayable",
      "type": "function"
    },
    {
      "inputs": [
        {
          "internalType": "uint256",
          "name": "_idContract",
          "type": "uint256"
        },
        {
          "internalType": "uint256",
          "name": "_timeIncreas",
          "type": "uint256"
        }
      ],
      "name": "decreaseTimeExpire",
      "outputs": [],
      "stateMutability": "nonpayable",
      "type": "function"
    },
    {
      "inputs": [
        {
          "internalType": "uint256",
          "name": "_idContract",
          "type": "uint256"
        },
        {
          "internalType": "uint256",
          "name": "_idBorrow",
          "type": "uint256"
        }
      ],
      "name": "liquidationCall",
      "outputs": [],
      "stateMutability": "nonpayable",
      "type": "function"
    }
  ],
  "bytecode": "0x60806040523480156200001157600080fd5b50604051620066ce380380620066ce83398181016040528101906200003791906200017f565b620000576200004b6200008460201b60201c565b6200008c60201b60201c565b6001600b819055506200007660096200015260201b62000b3a1760201c565b8060048190555050620001da565b600033905090565b6000600a60009054906101000a900473ffffffffffffffffffffffffffffffffffffffff16905081600a60006101000a81548173ffffffffffffffffffffffffffffffffffffffff021916908373ffffffffffffffffffffffffffffffffffffffff1602179055508173ffffffffffffffffffffffffffffffffffffffff168173ffffffffffffffffffffffffffffffffffffffff167f8be0079c531659141344cd1fd0a4f28419497f9722a3daafe3b4186f6b6457e060405160405180910390a35050565b6001816000016000828254019250508190555050565b6000815190506200017981620001c0565b92915050565b600060208284031215620001985762000197620001bb565b5b6000620001a88482850162000168565b91505092915050565b6000819050919050565b600080fd5b620001cb81620001b1565b8114620001d757600080fd5b50565b6164e480620001ea6000396000f3fe608060405234801561001057600080fd5b50600436106101375760003560e01c80638990616d116100b8578063e1e3769b1161007c578063e1e3769b1461030e578063e236b6f01461033e578063e2bb0eb91461036e578063e61951581461039e578063f2fde38b146103ba578063f4163f21146103d657610137565b80638990616d1461026c5780638da5cb5b14610288578063a54bbcb7146102a6578063aa674149146102d6578063b48477dc146102f257610137565b80636893d336116100ff5780636893d336146101f05780636f25b8f61461020c578063715018a614610228578063726adaa4146102325780637cb6f38f1461025057610137565b806308dde6621461013c5780631392ed751461016c57806319dda45c14610188578063460e90d0146101a457806347087215146101d4575b600080fd5b61015660048036038101906101519190614eb8565b6103f2565b6040516101639190615c52565b60405180910390f35b61018660048036038101906101819190614f4b565b610430565b005b6101a2600480360381019061019d919061512f565b61049f565b005b6101be60048036038101906101b99190614e8b565b610504565b6040516101cb91906158bd565b60405180910390f35b6101ee60048036038101906101e9919061512f565b610516565b005b61020a6004803603810190610205919061501a565b61057b565b005b610226600480360381019061022191906150b4565b6105de565b005b610230610649565b005b61023a6106d1565b604051610247919061589b565b60405180910390f35b61026a6004803603810190610265919061512f565b6106e0565b005b61028660048036038101906102819190614e8b565b610745565b005b610290610823565b60405161029d91906157f7565b60405180910390f35b6102c060048036038101906102bb9190615074565b61084d565b6040516102cd9190615c1a565b60405180910390f35b6102f060048036038101906102eb9190614ef8565b610867565b005b61030c6004803603810190610307919061512f565b6108cd565b005b61032860048036038101906103239190615074565b610932565b6040516103359190615c52565b60405180910390f35b61035860048036038101906103539190614eb8565b61094c565b6040516103659190615c36565b60405180910390f35b61038860048036038101906103839190614e8b565b610966565b60405161039591906158df565b60405180910390f35b6103b860048036038101906103b3919061512f565b610978565b005b6103d460048036038101906103cf9190614e8b565b6109dd565b005b6103f060048036038101906103eb919061512f565b610ad5565b005b60006104286104018385610b50565b6060015161040f8486610b50565b610120015161041e8587610b50565b6101000151610e3d565b905092915050565b6002600b541415610476576040517f08c379a000000000000000000000000000000000000000000000000000000000815260040161046d90615bba565b60405180910390fd5b6002600b8190555061048e3388888888888888610eaf565b6001600b8190555050505050505050565b6002600b5414156104e5576040517f08c379a00000000000000000000000000000000000000000000000000000000081526004016104dc90615bba565b60405180910390fd5b6002600b819055506104f833838361165d565b6001600b819055505050565b606061050f82611a48565b9050919050565b6002600b54141561055c576040517f08c379a000000000000000000000000000000000000000000000000000000000815260040161055390615bba565b60405180910390fd5b6002600b8190555061056f338383611adf565b6001600b819055505050565b6002600b5414156105c1576040517f08c379a00000000000000000000000000000000000000000000000000000000081526004016105b890615bba565b60405180910390fd5b6002600b819055506105d33382611d66565b6001600b8190555050565b6002600b541415610624576040517f08c379a000000000000000000000000000000000000000000000000000000000815260040161061b90615bba565b60405180910390fd5b6002600b8190555061063a3386868686866123fa565b6001600b819055505050505050565b6106516126de565b73ffffffffffffffffffffffffffffffffffffffff1661066f610823565b73ffffffffffffffffffffffffffffffffffffffff16146106c5576040517f08c379a00000000000000000000000000000000000000000000000000000000081526004016106bc90615ada565b60405180910390fd5b6106cf60006126e6565b565b60606106db6127ac565b905090565b6002600b541415610726576040517f08c379a000000000000000000000000000000000000000000000000000000000815260040161071d90615bba565b60405180910390fd5b6002600b8190555061073933838361283a565b6001600b819055505050565b6002600b54141561078b576040517f08c379a000000000000000000000000000000000000000000000000000000000815260040161078290615bba565b60405180910390fd5b6002600b8190555061079b6126de565b73ffffffffffffffffffffffffffffffffffffffff166107b9610823565b73ffffffffffffffffffffffffffffffffffffffff161461080f576040517f08c379a000000000000000000000000000000000000000000000000000000000815260040161080690615ada565b60405180910390fd5b61081881612982565b6001600b8190555050565b6000600a60009054906101000a900473ffffffffffffffffffffffffffffffffffffffff16905090565b610855614ccb565b61085f8383610b50565b905092915050565b6002600b5414156108ad576040517f08c379a00000000000000000000000000000000000000000000000000000000081526004016108a490615bba565b60405180910390fd5b6002600b819055506108c0838383612aef565b6001600b81905550505050565b6002600b541415610913576040517f08c379a000000000000000000000000000000000000000000000000000000000815260040161090a90615bba565b60405180910390fd5b6002600b81905550610926338383612bde565b6001600b819055505050565b60008061093f84846131d7565b9150508091505092915050565b610954614d7d565b61095e83836132b5565b905092915050565b60006109718261348e565b9050919050565b6002600b5414156109be576040517f08c379a00000000000000000000000000000000000000000000000000000000081526004016109b590615bba565b60405180910390fd5b6002600b819055506109d133838361353d565b6001600b819055505050565b6109e56126de565b73ffffffffffffffffffffffffffffffffffffffff16610a03610823565b73ffffffffffffffffffffffffffffffffffffffff1614610a59576040517f08c379a0000000000000000000000000000000000000000000000000000000008152600401610a5090615ada565b60405180910390fd5b600073ffffffffffffffffffffffffffffffffffffffff168173ffffffffffffffffffffffffffffffffffffffff161415610ac9576040517f08c379a0000000000000000000000000000000000000000000000000000000008152600401610ac09061593a565b60405180910390fd5b610ad2816126e6565b50565b6002600b541415610b1b576040517f08c379a0000000000000000000000000000000000000000000000000000000008152600401610b1290615bba565b60405180910390fd5b6002600b81905550610b2e338383613659565b6001600b819055505050565b6001816000016000828254019250508190555050565b610b58614ccb565b60005b6008600085815260200190815260200160002080549050811015610dfb578273ffffffffffffffffffffffffffffffffffffffff16600860008681526020019081526020016000208281548110610bb557610bb4615f76565b5b90600052602060002090600b020160000160009054906101000a900473ffffffffffffffffffffffffffffffffffffffff1673ffffffffffffffffffffffffffffffffffffffff161415610de857600860008581526020019081526020016000208181548110610c2857610c27615f76565b5b90600052602060002090600b0201604051806101600160405290816000820160009054906101000a900473ffffffffffffffffffffffffffffffffffffffff1673ffffffffffffffffffffffffffffffffffffffff1673ffffffffffffffffffffffffffffffffffffffff168152602001600182015481526020016002820160009054906101000a900473ffffffffffffffffffffffffffffffffffffffff1673ffffffffffffffffffffffffffffffffffffffff1673ffffffffffffffffffffffffffffffffffffffff168152602001600382015481526020016004820160009054906101000a900473ffffffffffffffffffffffffffffffffffffffff1673ffffffffffffffffffffffffffffffffffffffff1673ffffffffffffffffffffffffffffffffffffffff1681526020016005820154815260200160068201548152602001600782015481526020016008820154815260200160098201548152602001600a820160009054906101000a900473ffffffffffffffffffffffffffffffffffffffff1673ffffffffffffffffffffffffffffffffffffffff1673ffffffffffffffffffffffffffffffffffffffff1681525050915050610e37565b8080610df390615ea0565b915050610b5b565b506040517f08c379a0000000000000000000000000000000000000000000000000000000008152600401610e2e906159da565b60405180910390fd5b92915050565b6000808242610e4c9190615e24565b90506000600163bbf81e00838789610e649190615dca565b610e6e9190615dca565b610e789190615d99565b87610e839190615d43565b610e8d9190615d43565b905060018111610ea257600092505050610ea8565b80925050505b9392505050565b600073ffffffffffffffffffffffffffffffffffffffff168873ffffffffffffffffffffffffffffffffffffffff161415610f1f576040517f08c379a0000000000000000000000000000000000000000000000000000000008152600401610f1690615a3a565b60405180910390fd5b8173ffffffffffffffffffffffffffffffffffffffff168773ffffffffffffffffffffffffffffffffffffffff161415610f8e576040517f08c379a0000000000000000000000000000000000000000000000000000000008152600401610f859061595a565b60405180910390fd5b610f978761348e565b610fd6576040517f08c379a0000000000000000000000000000000000000000000000000000000008152600401610fcd9061591a565b60405180910390fd5b610fdf8261348e565b61101e576040517f08c379a000000000000000000000000000000000000000000000000000000000815260040161101590615a7a565b60405180910390fd5b858773ffffffffffffffffffffffffffffffffffffffff166370a082318a6040518263ffffffff1660e01b815260040161105891906157f7565b60206040518083038186803b15801561107057600080fd5b505afa158015611084573d6000803e3d6000fd5b505050506040513d601f19601f820116820180604052508101906110a89190615047565b10156110e9576040517f08c379a00000000000000000000000000000000000000000000000000000000081526004016110e09061597a565b60405180910390fd5b858773ffffffffffffffffffffffffffffffffffffffff1663dd62ed3e8a306040518363ffffffff1660e01b8152600401611125929190615812565b60206040518083038186803b15801561113d57600080fd5b505afa158015611151573d6000803e3d6000fd5b505050506040513d601f19601f820116820180604052508101906111759190615047565b10156111b6576040517f08c379a00000000000000000000000000000000000000000000000000000000081526004016111ad90615b7a565b60405180910390fd5b600084116111f9576040517f08c379a00000000000000000000000000000000000000000000000000000000081526004016111f090615b5a565b60405180910390fd5b60045483101561123e576040517f08c379a000000000000000000000000000000000000000000000000000000000815260040161123590615afa565b60405180910390fd5b8673ffffffffffffffffffffffffffffffffffffffff166323b872dd8930896040518463ffffffff1660e01b815260040161127b9392919061583b565b602060405180830381600087803b15801561129557600080fd5b505af11580156112a9573d6000803e3d6000fd5b505050506040513d601f19601f820116820180604052508101906112cd9190614fed565b5060006040518061018001604052806112e660096137d5565b81526020018a73ffffffffffffffffffffffffffffffffffffffff1681526020016000151581526020018973ffffffffffffffffffffffffffffffffffffffff1681526020018881526020018781526020018681526020018581526020018473ffffffffffffffffffffffffffffffffffffffff168152602001600081526020018381526020016000815250905080600560008b73ffffffffffffffffffffffffffffffffffffffff1673ffffffffffffffffffffffffffffffffffffffff16815260200190815260200160002060006113c060096137d5565b81526020019081526020016000206000820151816000015560208201518160010160006101000a81548173ffffffffffffffffffffffffffffffffffffffff021916908373ffffffffffffffffffffffffffffffffffffffff16021790555060408201518160010160146101000a81548160ff02191690831515021790555060608201518160020160006101000a81548173ffffffffffffffffffffffffffffffffffffffff021916908373ffffffffffffffffffffffffffffffffffffffff1602179055506080820151816003015560a0820151816004015560c0820151816005015560e082015181600601556101008201518160070160006101000a81548173ffffffffffffffffffffffffffffffffffffffff021916908373ffffffffffffffffffffffffffffffffffffffff1602179055506101208201518160080155610140820151816009015561016082015181600a01559050508273ffffffffffffffffffffffffffffffffffffffff168873ffffffffffffffffffffffffffffffffffffffff168a73ffffffffffffffffffffffffffffffffffffffff167f73ccc975565e11201f9228f86b04c2090d856488dd73ce7f1b63b9609708ee4761158a60096137d5565b8b8b8b8b60405161159f959493929190615c6d565b60405180910390a4600660008a73ffffffffffffffffffffffffffffffffffffffff1673ffffffffffffffffffffffffffffffffffffffff1681526020019081526020016000206115f060096137d5565b9080600181540180825580915050600190039060005260206000200160009091909190915055600761162260096137d5565b90806001815401808255809150506001900390600052602060002001600090919091909150556116526009610b3a565b505050505050505050565b82828173ffffffffffffffffffffffffffffffffffffffff1661168083836132b5565b6020015173ffffffffffffffffffffffffffffffffffffffff16146116da576040517f08c379a00000000000000000000000000000000000000000000000000000000081526004016116d1906159fa565b60405180910390fd5b6000831161171d576040517f08c379a000000000000000000000000000000000000000000000000000000000815260040161171490615b1a565b60405180910390fd5b8261172886866132b5565b6060015173ffffffffffffffffffffffffffffffffffffffff166370a08231876040518263ffffffff1660e01b815260040161176491906157f7565b60206040518083038186803b15801561177c57600080fd5b505afa158015611790573d6000803e3d6000fd5b505050506040513d601f19601f820116820180604052508101906117b49190615047565b10156117f5576040517f08c379a00000000000000000000000000000000000000000000000000000000081526004016117ec9061597a565b60405180910390fd5b8261180086866132b5565b6060015173ffffffffffffffffffffffffffffffffffffffff1663dd62ed3e87306040518363ffffffff1660e01b815260040161183e929190615812565b60206040518083038186803b15801561185657600080fd5b505afa15801561186a573d6000803e3d6000fd5b505050506040513d601f19601f8201168201806040525081019061188e9190615047565b10156118cf576040517f08c379a00000000000000000000000000000000000000000000000000000000081526004016118c690615b7a565b60405180910390fd5b6118d985856132b5565b6060015173ffffffffffffffffffffffffffffffffffffffff166323b872dd8630866040518463ffffffff1660e01b81526004016119199392919061583b565b602060405180830381600087803b15801561193357600080fd5b505af1158015611947573d6000803e3d6000fd5b505050506040513d601f19601f8201168201806040525081019061196b9190614fed565b5082600560008773ffffffffffffffffffffffffffffffffffffffff1673ffffffffffffffffffffffffffffffffffffffff168152602001908152602001600020600086815260200190815260200160002060030160008282546119cf9190615d43565b925050819055506119e085856132b5565b60800151836119ef87876132b5565b608001516119fd9190615e24565b7f70b5eec6cec01e52d9243bac64c12e4fd128a2f20105af16919ae212e224fc65611a2888886132b5565b60000151604051611a399190615c52565b60405180910390a35050505050565b6060600660008373ffffffffffffffffffffffffffffffffffffffff1673ffffffffffffffffffffffffffffffffffffffff168152602001908152602001600020805480602002602001604051908101604052809291908181526020018280548015611ad357602002820191906000526020600020905b815481526020019060010190808311611abf575b50505050509050919050565b82828173ffffffffffffffffffffffffffffffffffffffff16611b0283836132b5565b6020015173ffffffffffffffffffffffffffffffffffffffff1614611b5c576040517f08c379a0000000000000000000000000000000000000000000000000000000008152600401611b53906159fa565b60405180910390fd5b60008311611b9f576040517f08c379a0000000000000000000000000000000000000000000000000000000008152600401611b9690615b1a565b60405180910390fd5b82611baa86866132b5565b608001511015611bef576040517f08c379a0000000000000000000000000000000000000000000000000000000008152600401611be690615bda565b60405180910390fd5b82600560008773ffffffffffffffffffffffffffffffffffffffff1673ffffffffffffffffffffffffffffffffffffffff16815260200190815260200160002060008681526020019081526020016000206003016000828254611c529190615e24565b92505081905550611c6385856132b5565b6060015173ffffffffffffffffffffffffffffffffffffffff1663a9059cbb86856040518363ffffffff1660e01b8152600401611ca1929190615872565b602060405180830381600087803b158015611cbb57600080fd5b505af1158015611ccf573d6000803e3d6000fd5b505050506040513d601f19601f82011682018060405250810190611cf39190614fed565b50611cfe85856132b5565b6080015183611d0d87876132b5565b60800151611d1b9190615d43565b7f510055a9c40582bc6ad0cab1e5b0421194c4d34435a16960ec71333bf8bc70cf611d4688886132b5565b60000151604051611d579190615c52565b60405180910390a35050505050565b81818173ffffffffffffffffffffffffffffffffffffffff16611d8983836132b5565b6020015173ffffffffffffffffffffffffffffffffffffffff1614611de3576040517f08c379a0000000000000000000000000000000000000000000000000000000008152600401611dda906159fa565b60405180910390fd5b6000611def85856132b5565b610120015114611e34576040517f08c379a0000000000000000000000000000000000000000000000000000000008152600401611e2b90615bfa565b60405180910390fd5b6000600560008673ffffffffffffffffffffffffffffffffffffffff1673ffffffffffffffffffffffffffffffffffffffff16815260200190815260200160002060008581526020019081526020016000206003015490506000600560008773ffffffffffffffffffffffffffffffffffffffff1673ffffffffffffffffffffffffffffffffffffffff16815260200190815260200160002060008681526020019081526020016000206000015490506000611ef087876132b5565b606001519050600560008873ffffffffffffffffffffffffffffffffffffffff1673ffffffffffffffffffffffffffffffffffffffff16815260200190815260200160002060008781526020019081526020016000206000808201600090556001820160006101000a81549073ffffffffffffffffffffffffffffffffffffffff02191690556001820160146101000a81549060ff02191690556002820160006101000a81549073ffffffffffffffffffffffffffffffffffffffff021916905560038201600090556004820160009055600582016000905560068201600090556007820160006101000a81549073ffffffffffffffffffffffffffffffffffffffff021916905560088201600090556009820160009055600a82016000905550506000600660008973ffffffffffffffffffffffffffffffffffffffff1673ffffffffffffffffffffffffffffffffffffffff1681526020019081526020016000208054905011156121ea5760008061206a89856137e3565b9150915080156121e357600660008a73ffffffffffffffffffffffffffffffffffffffff1673ffffffffffffffffffffffffffffffffffffffff1681526020019081526020016000206001600660008c73ffffffffffffffffffffffffffffffffffffffff1673ffffffffffffffffffffffffffffffffffffffff168152602001908152602001600020805490506121029190615e24565b8154811061211357612112615f76565b5b9060005260206000200154600660008b73ffffffffffffffffffffffffffffffffffffffff1673ffffffffffffffffffffffffffffffffffffffff168152602001908152602001600020838154811061216f5761216e615f76565b5b9060005260206000200181905550600660008a73ffffffffffffffffffffffffffffffffffffffff1673ffffffffffffffffffffffffffffffffffffffff1681526020019081526020016000208054806121cc576121cb615f47565b5b600190038181906000526020600020016000905590555b5050612250565b600660008873ffffffffffffffffffffffffffffffffffffffff1673ffffffffffffffffffffffffffffffffffffffff16815260200190815260200160002080548061223957612238615f47565b5b600190038181906000526020600020016000905590555b600060078054905011156122f65760008061226a886138c6565b9150915080156122ef57600760016007805490506122889190615e24565b8154811061229957612298615f76565b5b9060005260206000200154600783815481106122b8576122b7615f76565b5b906000526020600020018190555060078054806122d8576122d7615f47565b5b600190038181906000526020600020016000905590555b505061231f565b600780548061230857612307615f47565b5b600190038181906000526020600020016000905590555b8073ffffffffffffffffffffffffffffffffffffffff1663a9059cbb88856040518363ffffffff1660e01b815260040161235a929190615872565b602060405180830381600087803b15801561237457600080fd5b505af1158015612388573d6000803e3d6000fd5b505050506040513d601f19601f820116820180604052508101906123ac9190614fed565b50818773ffffffffffffffffffffffffffffffffffffffff167ffd6e81c22721a918c2e59966d2b020f6ccf1fe46d783cc4053c75c1a9fa837f060405160405180910390a350505050505050565b60001515600560008673ffffffffffffffffffffffffffffffffffffffff1673ffffffffffffffffffffffffffffffffffffffff168152602001908152602001600020600087815260200190815260200160002060010160149054906101000a900460ff161515146124a1576040517f08c379a000000000000000000000000000000000000000000000000000000000815260040161249890615aba565b60405180910390fd5b60006124ad85876137e3565b915050806124f0576040517f08c379a00000000000000000000000000000000000000000000000000000000081526004016124e790615b3a565b60405180910390fd5b83600560008773ffffffffffffffffffffffffffffffffffffffff1673ffffffffffffffffffffffffffffffffffffffff1681526020019081526020016000206000888152602001908152602001600020600301541015612586576040517f08c379a000000000000000000000000000000000000000000000000000000000815260040161257d90615a5a565b60405180910390fd5b600061259061392d565b90506000600560008873ffffffffffffffffffffffffffffffffffffffff1673ffffffffffffffffffffffffffffffffffffffff16815260200190815260200160002060008981526020019081526020016000206009015490506000806125f78a8c6131d7565b91509150816126145761260f8b8a8c8a8a8d89613936565b612682565b61261c61392d565b612667600860008d8152602001908152602001600020838154811061264457612643615f76565b5b90600052602060002090600b020160050154866126619190615dca565b85613fe0565b1161267157600080fd5b6126818b8a8c8a8a8d8988613ff6565b5b898b73ffffffffffffffffffffffffffffffffffffffff167fe1979fe4c35e0cef342fef5668e2c8e7a7e9f5d5d1ca8fee0ac6c427fa4153af8a6040516126c99190615c52565b60405180910390a35050505050505050505050565b600033905090565b6000600a60009054906101000a900473ffffffffffffffffffffffffffffffffffffffff16905081600a60006101000a81548173ffffffffffffffffffffffffffffffffffffffff021916908373ffffffffffffffffffffffffffffffffffffffff1602179055508173ffffffffffffffffffffffffffffffffffffffff168173ffffffffffffffffffffffffffffffffffffffff167f8be0079c531659141344cd1fd0a4f28419497f9722a3daafe3b4186f6b6457e060405160405180910390a35050565b6060600380548060200260200160405190810160405280929190818152602001828054801561283057602002820191906000526020600020905b8160009054906101000a900473ffffffffffffffffffffffffffffffffffffffff1673ffffffffffffffffffffffffffffffffffffffff16815260200190600101908083116127e6575b5050505050905090565b6128448284610b50565b6000015173ffffffffffffffffffffffffffffffffffffffff168373ffffffffffffffffffffffffffffffffffffffff16146128b5576040517f08c379a00000000000000000000000000000000000000000000000000000000081526004016128ac906159ba565b60405180910390fd5b6128bf8284610b50565b60e001514211156128e3576128d58184846145c7565b6128de57600080fd5b61292e565b6128ee8184846147b3565b61292d576040517f08c379a0000000000000000000000000000000000000000000000000000000008152600401612924906158fa565b60405180910390fd5b5b818373ffffffffffffffffffffffffffffffffffffffff167f8cd2e0c7fd550a74312e3075f80ebbb071970c93280ed06e9101b48e1299bbf8836040516129759190615c52565b60405180910390a3505050565b600073ffffffffffffffffffffffffffffffffffffffff168173ffffffffffffffffffffffffffffffffffffffff1614156129f2576040517f08c379a00000000000000000000000000000000000000000000000000000000081526004016129e990615a3a565b60405180910390fd5b6129fb8161348e565b15612a3b576040517f08c379a0000000000000000000000000000000000000000000000000000000008152600401612a3290615a9a565b60405180910390fd5b6003819080600181540180825580915050600190039060005260206000200160009091909190916101000a81548173ffffffffffffffffffffffffffffffffffffffff021916908373ffffffffffffffffffffffffffffffffffffffff1602179055508073ffffffffffffffffffffffffffffffffffffffff167f1406601fca80ce2dde347c6c1c000309440d0365c2b5786f1608d7b1e76dd12d42604051612ae49190615c52565b60405180910390a250565b82828173ffffffffffffffffffffffffffffffffffffffff16612b1283836132b5565b6020015173ffffffffffffffffffffffffffffffffffffffff1614612b6c576040517f08c379a0000000000000000000000000000000000000000000000000000000008152600401612b63906159fa565b60405180910390fd5b82600560008773ffffffffffffffffffffffffffffffffffffffff1673ffffffffffffffffffffffffffffffffffffffff168152602001908152602001600020600086815260200190815260200160002060010160146101000a81548160ff0219169083151502179055505050505050565b82828173ffffffffffffffffffffffffffffffffffffffff16612c0183836132b5565b6020015173ffffffffffffffffffffffffffffffffffffffff1614612c5b576040517f08c379a0000000000000000000000000000000000000000000000000000000008152600401612c52906159fa565b60405180910390fd5b612c63614cac565b600860008681526020019081526020016000208481548110612c8857612c87615f76565b5b90600052602060002090600b0201600601541115612cdb576040517f08c379a0000000000000000000000000000000000000000000000000000000008152600401612cd29061599a565b60405180910390fd5b60006004600860008781526020019081526020016000208581548110612d0457612d03615f76565b5b90600052602060002090600b020160050154612d209190615d99565b905080600860008781526020019081526020016000208581548110612d4857612d47615f76565b5b90600052602060002090600b02016005016000828254612d689190615e24565b925050819055508060056000600860008981526020019081526020016000208781548110612d9957612d98615f76565b5b90600052602060002090600b0201600a0160009054906101000a900473ffffffffffffffffffffffffffffffffffffffff1673ffffffffffffffffffffffffffffffffffffffff1673ffffffffffffffffffffffffffffffffffffffff1681526020019081526020016000206000878152602001908152602001600020600a016000828254612e289190615e24565b92505081905550612e37614cac565b81612e429190615dca565b60056000600860008981526020019081526020016000208781548110612e6b57612e6a615f76565b5b90600052602060002090600b0201600a0160009054906101000a900473ffffffffffffffffffffffffffffffffffffffff1673ffffffffffffffffffffffffffffffffffffffff1673ffffffffffffffffffffffffffffffffffffffff16815260200190815260200160002060008781526020019081526020016000206008016000828254612efa9190615e24565b92505081905550612f09614cac565b81612f149190615dca565b600860008781526020019081526020016000208581548110612f3957612f38615f76565b5b90600052602060002090600b02016003016000828254612f599190615e24565b9250508190555061305b600860008781526020019081526020016000208581548110612f8857612f87615f76565b5b90600052602060002090600b020160030154612fa261392d565b612fac9190615dca565b60056000600860008a81526020019081526020016000208881548110612fd557612fd4615f76565b5b90600052602060002090600b0201600a0160009054906101000a900473ffffffffffffffffffffffffffffffffffffffff1673ffffffffffffffffffffffffffffffffffffffff1673ffffffffffffffffffffffffffffffffffffffff168152602001908152602001600020600088815260200190815260200160002060090154613fe0565b6008600087815260200190815260200160002085815481106130805761307f615f76565b5b90600052602060002090600b0201600601819055506008600086815260200190815260200160002084815481106130ba576130b9615f76565b5b90600052602060002090600b020160040160009054906101000a900473ffffffffffffffffffffffffffffffffffffffff1673ffffffffffffffffffffffffffffffffffffffff1663a9059cbb60086000888152602001908152602001600020868154811061312c5761312b615f76565b5b90600052602060002090600b020160000160009054906101000a900473ffffffffffffffffffffffffffffffffffffffff16836040518363ffffffff1660e01b815260040161317c929190615872565b602060405180830381600087803b15801561319657600080fd5b505af11580156131aa573d6000803e3d6000fd5b505050506040513d601f19601f820116820180604052508101906131ce9190614fed565b50505050505050565b60008060005b60086000868152602001908152602001600020805490508110156132a5578373ffffffffffffffffffffffffffffffffffffffff1660086000878152602001908152602001600020828154811061323757613236615f76565b5b90600052602060002090600b020160000160009054906101000a900473ffffffffffffffffffffffffffffffffffffffff1673ffffffffffffffffffffffffffffffffffffffff1614156132925760018192509250506132ae565b808061329d90615ea0565b9150506131dd565b50600080915091505b9250929050565b6132bd614d7d565b600560008473ffffffffffffffffffffffffffffffffffffffff1673ffffffffffffffffffffffffffffffffffffffff168152602001908152602001600020600083815260200190815260200160002060405180610180016040529081600082015481526020016001820160009054906101000a900473ffffffffffffffffffffffffffffffffffffffff1673ffffffffffffffffffffffffffffffffffffffff1673ffffffffffffffffffffffffffffffffffffffff1681526020016001820160149054906101000a900460ff161515151581526020016002820160009054906101000a900473ffffffffffffffffffffffffffffffffffffffff1673ffffffffffffffffffffffffffffffffffffffff1673ffffffffffffffffffffffffffffffffffffffff168152602001600382015481526020016004820154815260200160058201548152602001600682015481526020016007820160009054906101000a900473ffffffffffffffffffffffffffffffffffffffff1673ffffffffffffffffffffffffffffffffffffffff1673ffffffffffffffffffffffffffffffffffffffff1681526020016008820154815260200160098201548152602001600a82015481525050905092915050565b600080600090505b600380549050811015613532578273ffffffffffffffffffffffffffffffffffffffff16600382815481106134ce576134cd615f76565b5b9060005260206000200160009054906101000a900473ffffffffffffffffffffffffffffffffffffffff1673ffffffffffffffffffffffffffffffffffffffff16141561351f576001915050613538565b808061352a90615ea0565b915050613496565b50600090505b919050565b82828173ffffffffffffffffffffffffffffffffffffffff1661356083836132b5565b6020015173ffffffffffffffffffffffffffffffffffffffff16146135ba576040517f08c379a00000000000000000000000000000000000000000000000000000000081526004016135b1906159fa565b60405180910390fd5b82600560008773ffffffffffffffffffffffffffffffffffffffff1673ffffffffffffffffffffffffffffffffffffffff1681526020019081526020016000206000868152602001908152602001600020600501600082825461361d9190615d43565b9250508190555082847f55c5fcd1e6b45344c33b2efe8b0a1c21370e8436550c2a417ca7a88b4f9ecd7f60405160405180910390a35050505050565b82828173ffffffffffffffffffffffffffffffffffffffff1661367c83836132b5565b6020015173ffffffffffffffffffffffffffffffffffffffff16146136d6576040517f08c379a00000000000000000000000000000000000000000000000000000000081526004016136cd906159fa565b60405180910390fd5b6000600560008773ffffffffffffffffffffffffffffffffffffffff1673ffffffffffffffffffffffffffffffffffffffff1681526020019081526020016000206000868152602001908152602001600020600801541461373657600080fd5b82600560008773ffffffffffffffffffffffffffffffffffffffff1673ffffffffffffffffffffffffffffffffffffffff168152602001908152602001600020600086815260200190815260200160002060050160008282546137999190615d43565b9250508190555082847f39ad9ab227a3f33f44fa8a3bd1d05a8540654651c5b126643016fa827169bb6660405160405180910390a35050505050565b600081600001549050919050565b60008060005b600660008673ffffffffffffffffffffffffffffffffffffffff1673ffffffffffffffffffffffffffffffffffffffff168152602001908152602001600020805490508110156138b657600660008673ffffffffffffffffffffffffffffffffffffffff1673ffffffffffffffffffffffffffffffffffffffff168152602001908152602001600020818154811061388457613883615f76565b5b90600052602060002001548414156138a35780600192509250506138bf565b80806138ae90615ea0565b9150506137e9565b50600080915091505b9250929050565b60008060005b60078054905081101561391f57600781815481106138ed576138ec615f76565b5b906000526020600020015484141561390c578060019250925050613928565b808061391790615ea0565b9150506138cc565b50600080915091505b915091565b60006002905090565b600560008773ffffffffffffffffffffffffffffffffffffffff1673ffffffffffffffffffffffffffffffffffffffff1681526020019081526020016000206000868152602001908152602001600020600901546139b884613996614cac565b6139a09190615dca565b846139a961392d565b6139b39190615dca565b614cb5565b116139c257600080fd5b8373ffffffffffffffffffffffffffffffffffffffff166323b872dd8830866040518463ffffffff1660e01b81526004016139ff9392919061583b565b602060405180830381600087803b158015613a1957600080fd5b505af1158015613a2d573d6000803e3d6000fd5b505050506040513d601f19601f82011682018060405250810190613a519190614fed565b5060006040518061016001604052808973ffffffffffffffffffffffffffffffffffffffff168152602001878152602001600560008a73ffffffffffffffffffffffffffffffffffffffff1673ffffffffffffffffffffffffffffffffffffffff168152602001908152602001600020600089815260200190815260200160002060020160009054906101000a900473ffffffffffffffffffffffffffffffffffffffff1673ffffffffffffffffffffffffffffffffffffffff1681526020018481526020018673ffffffffffffffffffffffffffffffffffffffff168152602001858152602001613b5585613b4561392d565b613b4f9190615dca565b85613fe0565b8152602001600560008a73ffffffffffffffffffffffffffffffffffffffff1673ffffffffffffffffffffffffffffffffffffffff16815260200190815260200160002060008981526020019081526020016000206005015442613bb99190615d43565b8152602001428152602001613bce89896132b5565b60a0015181526020018873ffffffffffffffffffffffffffffffffffffffff168152509050600860008781526020019081526020016000208190806001815401808255809150506001900390600052602060002090600b020160009091909190915060008201518160000160006101000a81548173ffffffffffffffffffffffffffffffffffffffff021916908373ffffffffffffffffffffffffffffffffffffffff1602179055506020820151816001015560408201518160020160006101000a81548173ffffffffffffffffffffffffffffffffffffffff021916908373ffffffffffffffffffffffffffffffffffffffff1602179055506060820151816003015560808201518160040160006101000a81548173ffffffffffffffffffffffffffffffffffffffff021916908373ffffffffffffffffffffffffffffffffffffffff16021790555060a0820151816005015560c0820151816006015560e082015181600701556101008201518160080155610120820151816009015561014082015181600a0160006101000a81548173ffffffffffffffffffffffffffffffffffffffff021916908373ffffffffffffffffffffffffffffffffffffffff160217905550505082600560008973ffffffffffffffffffffffffffffffffffffffff1673ffffffffffffffffffffffffffffffffffffffff16815260200190815260200160002060008881526020019081526020016000206003016000828254613dfa9190615e24565b9250508190555082600560008973ffffffffffffffffffffffffffffffffffffffff1673ffffffffffffffffffffffffffffffffffffffff16815260200190815260200160002060008881526020019081526020016000206008016000828254613e649190615d43565b9250508190555083600560008973ffffffffffffffffffffffffffffffffffffffff1673ffffffffffffffffffffffffffffffffffffffff1681526020019081526020016000206000888152602001908152602001600020600a016000828254613ece9190615d43565b92505081905550600560008873ffffffffffffffffffffffffffffffffffffffff1673ffffffffffffffffffffffffffffffffffffffff168152602001908152602001600020600087815260200190815260200160002060020160009054906101000a900473ffffffffffffffffffffffffffffffffffffffff1673ffffffffffffffffffffffffffffffffffffffff1663a9059cbb89856040518363ffffffff1660e01b8152600401613f83929190615872565b602060405180830381600087803b158015613f9d57600080fd5b505af1158015613fb1573d6000803e3d6000fd5b505050506040513d601f19601f82011682018060405250810190613fd59190614fed565b505050505050505050565b60008183613fee9190615dca565b905092915050565b60086000878152602001908152602001600020818154811061401b5761401a615f76565b5b90600052602060002090600b020160000160009054906101000a900473ffffffffffffffffffffffffffffffffffffffff1673ffffffffffffffffffffffffffffffffffffffff168873ffffffffffffffffffffffffffffffffffffffff16146140ba576040517f08c379a00000000000000000000000000000000000000000000000000000000081526004016140b1906159ba565b60405180910390fd5b600560008873ffffffffffffffffffffffffffffffffffffffff1673ffffffffffffffffffffffffffffffffffffffff1681526020019081526020016000206000878152602001908152602001600020600901546141be85600860008a8152602001908152602001600020848154811061413757614136615f76565b5b90600052602060002090600b0201600501546141539190615d43565b61415b614cac565b6141659190615dca565b85600860008b8152602001908152602001600020858154811061418b5761418a615f76565b5b90600052602060002090600b0201600301546141a79190615d43565b6141af61392d565b6141b99190615dca565b614cb5565b116141c857600080fd5b8473ffffffffffffffffffffffffffffffffffffffff166323b872dd8930876040518463ffffffff1660e01b81526004016142059392919061583b565b602060405180830381600087803b15801561421f57600080fd5b505af1158015614233573d6000803e3d6000fd5b505050506040513d601f19601f820116820180604052508101906142579190614fed565b508260086000888152602001908152602001600020828154811061427e5761427d615f76565b5b90600052602060002090600b0201600301600082825461429e9190615d43565b92505081905550836008600088815260200190815260200160002082815481106142cb576142ca615f76565b5b90600052602060002090600b020160050160008282546142eb9190615d43565b9250508190555061434460086000888152602001908152602001600020828154811061431a57614319615f76565b5b90600052602060002090600b02016003015461433461392d565b61433e9190615dca565b83613fe0565b60086000888152602001908152602001600020828154811061436957614368615f76565b5b90600052602060002090600b02016006018190555082600560008973ffffffffffffffffffffffffffffffffffffffff1673ffffffffffffffffffffffffffffffffffffffff168152602001908152602001600020600088815260200190815260200160002060030160008282546143e19190615e24565b9250508190555082600560008973ffffffffffffffffffffffffffffffffffffffff1673ffffffffffffffffffffffffffffffffffffffff1681526020019081526020016000206000888152602001908152602001600020600801600082825461444b9190615d43565b9250508190555083600560008973ffffffffffffffffffffffffffffffffffffffff1673ffffffffffffffffffffffffffffffffffffffff1681526020019081526020016000206000888152602001908152602001600020600a0160008282546144b59190615d43565b92505081905550600560008873ffffffffffffffffffffffffffffffffffffffff1673ffffffffffffffffffffffffffffffffffffffff168152602001908152602001600020600087815260200190815260200160002060020160009054906101000a900473ffffffffffffffffffffffffffffffffffffffff1673ffffffffffffffffffffffffffffffffffffffff1663a9059cbb89856040518363ffffffff1660e01b815260040161456a929190615872565b602060405180830381600087803b15801561458457600080fd5b505af1158015614598573d6000803e3d6000fd5b505050506040513d601f19601f820116820180604052508101906145bc9190614fed565b505050505050505050565b6000806145d483856131d7565b915050426008600085815260200190815260200160002082815481106145fd576145fc615f76565b5b90600052602060002090600b0201600701541061464f576040517f08c379a000000000000000000000000000000000000000000000000000000000815260040161464690615a1a565b60405180910390fd5b6000600160646062886146629190615dca565b61466c9190615d99565b6146769190615d43565b905080866146849190615e24565b600560006008600088815260200190815260200160002085815481106146ad576146ac615f76565b5b90600052602060002090600b0201600a0160009054906101000a900473ffffffffffffffffffffffffffffffffffffffff1673ffffffffffffffffffffffffffffffffffffffff1673ffffffffffffffffffffffffffffffffffffffff1681526020019081526020016000206000868152602001908152602001600020600301600082825461473c9190615d43565b9250508190555061474e8186866147b3565b61475757600080fd5b838573ffffffffffffffffffffffffffffffffffffffff167ff4566bf0f626de61c22d06426bb7c188fe0cbf319d7bde6569daac73e2b18f0a8360405161479e9190615c52565b60405180910390a36001925050509392505050565b6000806147c083856131d7565b9150506148706008600085815260200190815260200160002082815481106147eb576147ea615f76565b5b90600052602060002090600b02016003015460086000868152602001908152602001600020838154811061482257614821615f76565b5b90600052602060002090600b02016009015460086000878152602001908152602001600020848154811061485957614858615f76565b5b90600052602060002090600b020160080154610e3d565b60086000858152602001908152602001600020828154811061489557614894615f76565b5b90600052602060002090600b020160030181905550846008600085815260200190815260200160002082815481106148d0576148cf615f76565b5b90600052602060002090600b0201600301541015614923576040517f08c379a000000000000000000000000000000000000000000000000000000000815260040161491a90615b9a565b60405180910390fd5b60086000848152602001908152602001600020818154811061494857614947615f76565b5b90600052602060002090600b020160020160009054906101000a900473ffffffffffffffffffffffffffffffffffffffff1673ffffffffffffffffffffffffffffffffffffffff166323b872dd8530886040518463ffffffff1660e01b81526004016149b69392919061583b565b602060405180830381600087803b1580156149d057600080fd5b505af11580156149e4573d6000803e3d6000fd5b505050506040513d601f19601f82011682018060405250810190614a089190614fed565b506000600860008581526020019081526020016000208281548110614a3057614a2f615f76565b5b90600052602060002090600b0201600a0160009054906101000a900473ffffffffffffffffffffffffffffffffffffffff16905085600560008373ffffffffffffffffffffffffffffffffffffffff1673ffffffffffffffffffffffffffffffffffffffff16815260200190815260200160002060008681526020019081526020016000206008016000828254614ac79190615e24565b9250508190555085600560008373ffffffffffffffffffffffffffffffffffffffff1673ffffffffffffffffffffffffffffffffffffffff16815260200190815260200160002060008681526020019081526020016000206003016000828254614b319190615d43565b9250508190555085600860008681526020019081526020016000208381548110614b5e57614b5d615f76565b5b90600052602060002090600b02016003016000828254614b7e9190615e24565b9250508190555042600860008681526020019081526020016000208381548110614bab57614baa615f76565b5b90600052602060002090600b020160080181905550614c65614bcb61392d565b600860008781526020019081526020016000208481548110614bf057614bef615f76565b5b90600052602060002090600b020160030154614c0c9190615dca565b600560008473ffffffffffffffffffffffffffffffffffffffff1673ffffffffffffffffffffffffffffffffffffffff168152602001908152602001600020600087815260200190815260200160002060090154613fe0565b600860008681526020019081526020016000208381548110614c8a57614c89615f76565b5b90600052602060002090600b0201600601819055506001925050509392505050565b60006001905090565b60008183614cc39190615d99565b905092915050565b604051806101600160405280600073ffffffffffffffffffffffffffffffffffffffff16815260200160008152602001600073ffffffffffffffffffffffffffffffffffffffff16815260200160008152602001600073ffffffffffffffffffffffffffffffffffffffff1681526020016000815260200160008152602001600081526020016000815260200160008152602001600073ffffffffffffffffffffffffffffffffffffffff1681525090565b60405180610180016040528060008152602001600073ffffffffffffffffffffffffffffffffffffffff168152602001600015158152602001600073ffffffffffffffffffffffffffffffffffffffff16815260200160008152602001600081526020016000815260200160008152602001600073ffffffffffffffffffffffffffffffffffffffff1681526020016000815260200160008152602001600081525090565b600081359050614e3181616469565b92915050565b600081359050614e4681616480565b92915050565b600081519050614e5b81616480565b92915050565b600081359050614e7081616497565b92915050565b600081519050614e8581616497565b92915050565b600060208284031215614ea157614ea0615fa5565b5b6000614eaf84828501614e22565b91505092915050565b60008060408385031215614ecf57614ece615fa5565b5b6000614edd85828601614e22565b9250506020614eee85828601614e61565b9150509250929050565b600080600060608486031215614f1157614f10615fa5565b5b6000614f1f86828701614e22565b9350506020614f3086828701614e61565b9250506040614f4186828701614e37565b9150509250925092565b600080600080600080600060e0888a031215614f6a57614f69615fa5565b5b6000614f788a828b01614e22565b9750506020614f898a828b01614e61565b9650506040614f9a8a828b01614e61565b9550506060614fab8a828b01614e61565b9450506080614fbc8a828b01614e61565b93505060a0614fcd8a828b01614e22565b92505060c0614fde8a828b01614e61565b91505092959891949750929550565b60006020828403121561500357615002615fa5565b5b600061501184828501614e4c565b91505092915050565b6000602082840312156150305761502f615fa5565b5b600061503e84828501614e61565b91505092915050565b60006020828403121561505d5761505c615fa5565b5b600061506b84828501614e76565b91505092915050565b6000806040838503121561508b5761508a615fa5565b5b600061509985828601614e61565b92505060206150aa85828601614e22565b9150509250929050565b600080600080600060a086880312156150d0576150cf615fa5565b5b60006150de88828901614e61565b95505060206150ef88828901614e22565b945050604061510088828901614e61565b935050606061511188828901614e22565b925050608061512288828901614e61565b9150509295509295909350565b6000806040838503121561514657615145615fa5565b5b600061515485828601614e61565b925050602061516585828601614e61565b9150509250929050565b600061517b838361519f565b60208301905092915050565b600061519383836157d9565b60208301905092915050565b6151a881615e58565b82525050565b6151b781615e58565b82525050565b60006151c882615ce0565b6151d28185615d10565b93506151dd83615cc0565b8060005b8381101561520e5781516151f5888261516f565b975061520083615cf6565b9250506001810190506151e1565b5085935050505092915050565b600061522682615ceb565b6152308185615d21565b935061523b83615cd0565b8060005b8381101561526c5781516152538882615187565b975061525e83615d03565b92505060018101905061523f565b5085935050505092915050565b61528281615e6a565b82525050565b61529181615e6a565b82525050565b60006152a4600b83615d32565b91506152af82615faa565b602082019050919050565b60006152c7601183615d32565b91506152d282615fd3565b602082019050919050565b60006152ea602683615d32565b91506152f582615ffc565b604082019050919050565b600061530d601483615d32565b91506153188261604b565b602082019050919050565b6000615330601083615d32565b915061533b82616074565b602082019050919050565b6000615353602783615d32565b915061535e8261609d565b604082019050919050565b6000615376601383615d32565b9150615381826160ec565b602082019050919050565b6000615399602683615d32565b91506153a482616115565b604082019050919050565b60006153bc601783615d32565b91506153c782616164565b602082019050919050565b60006153df601583615d32565b91506153ea8261618d565b602082019050919050565b6000615402600f83615d32565b915061540d826161b6565b602082019050919050565b6000615425601483615d32565b9150615430826161df565b602082019050919050565b6000615448601683615d32565b915061545382616208565b602082019050919050565b600061546b601683615d32565b915061547682616231565b602082019050919050565b600061548e603083615d32565b91506154998261625a565b604082019050919050565b60006154b1602083615d32565b91506154bc826162a9565b602082019050919050565b60006154d4601b83615d32565b91506154df826162d2565b602082019050919050565b60006154f7601683615d32565b9150615502826162fb565b602082019050919050565b600061551a601383615d32565b915061552582616324565b602082019050919050565b600061553d601b83615d32565b91506155488261634d565b602082019050919050565b6000615560601183615d32565b915061556b82616376565b602082019050919050565b6000615583601883615d32565b915061558e8261639f565b602082019050919050565b60006155a6601f83615d32565b91506155b1826163c8565b602082019050919050565b60006155c9602e83615d32565b91506155d4826163f1565b604082019050919050565b60006155ec601d83615d32565b91506155f782616440565b602082019050919050565b61016082016000820151615619600085018261519f565b50602082015161562c60208501826157d9565b50604082015161563f604085018261519f565b50606082015161565260608501826157d9565b506080820151615665608085018261519f565b5060a082015161567860a08501826157d9565b5060c082015161568b60c08501826157d9565b5060e082015161569e60e08501826157d9565b506101008201516156b36101008501826157d9565b506101208201516156c86101208501826157d9565b506101408201516156dd61014085018261519f565b50505050565b610180820160008201516156fa60008501826157d9565b50602082015161570d602085018261519f565b5060408201516157206040850182615279565b506060820151615733606085018261519f565b50608082015161574660808501826157d9565b5060a082015161575960a08501826157d9565b5060c082015161576c60c08501826157d9565b5060e082015161577f60e08501826157d9565b5061010082015161579461010085018261519f565b506101208201516157a96101208501826157d9565b506101408201516157be6101408501826157d9565b506101608201516157d36101608501826157d9565b50505050565b6157e281615e96565b82525050565b6157f181615e96565b82525050565b600060208201905061580c60008301846151ae565b92915050565b600060408201905061582760008301856151ae565b61583460208301846151ae565b9392505050565b600060608201905061585060008301866151ae565b61585d60208301856151ae565b61586a60408301846157e8565b949350505050565b600060408201905061588760008301856151ae565b61589460208301846157e8565b9392505050565b600060208201905081810360008301526158b581846151bd565b905092915050565b600060208201905081810360008301526158d7818461521b565b905092915050565b60006020820190506158f46000830184615288565b92915050565b6000602082019050818103600083015261591381615297565b9050919050565b60006020820190508181036000830152615933816152ba565b9050919050565b60006020820190508181036000830152615953816152dd565b9050919050565b6000602082019050818103600083015261597381615300565b9050919050565b6000602082019050818103600083015261599381615323565b9050919050565b600060208201905081810360008301526159b381615346565b9050919050565b600060208201905081810360008301526159d381615369565b9050919050565b600060208201905081810360008301526159f38161538c565b9050919050565b60006020820190508181036000830152615a13816153af565b9050919050565b60006020820190508181036000830152615a33816153d2565b9050919050565b60006020820190508181036000830152615a53816153f5565b9050919050565b60006020820190508181036000830152615a7381615418565b9050919050565b60006020820190508181036000830152615a938161543b565b9050919050565b60006020820190508181036000830152615ab38161545e565b9050919050565b60006020820190508181036000830152615ad381615481565b9050919050565b60006020820190508181036000830152615af3816154a4565b9050919050565b60006020820190508181036000830152615b13816154c7565b9050919050565b60006020820190508181036000830152615b33816154ea565b9050919050565b60006020820190508181036000830152615b538161550d565b9050919050565b60006020820190508181036000830152615b7381615530565b9050919050565b60006020820190508181036000830152615b9381615553565b9050919050565b60006020820190508181036000830152615bb381615576565b9050919050565b60006020820190508181036000830152615bd381615599565b9050919050565b60006020820190508181036000830152615bf3816155bc565b9050919050565b60006020820190508181036000830152615c13816155df565b9050919050565b600061016082019050615c306000830184615602565b92915050565b600061018082019050615c4c60008301846156e3565b92915050565b6000602082019050615c6760008301846157e8565b92915050565b600060a082019050615c8260008301886157e8565b615c8f60208301876157e8565b615c9c60408301866157e8565b615ca960608301856157e8565b615cb660808301846157e8565b9695505050505050565b6000819050602082019050919050565b6000819050602082019050919050565b600081519050919050565b600081519050919050565b6000602082019050919050565b6000602082019050919050565b600082825260208201905092915050565b600082825260208201905092915050565b600082825260208201905092915050565b6000615d4e82615e96565b9150615d5983615e96565b9250827fffffffffffffffffffffffffffffffffffffffffffffffffffffffffffffffff03821115615d8e57615d8d615ee9565b5b828201905092915050565b6000615da482615e96565b9150615daf83615e96565b925082615dbf57615dbe615f18565b5b828204905092915050565b6000615dd582615e96565b9150615de083615e96565b9250817fffffffffffffffffffffffffffffffffffffffffffffffffffffffffffffffff0483118215151615615e1957615e18615ee9565b5b828202905092915050565b6000615e2f82615e96565b9150615e3a83615e96565b925082821015615e4d57615e4c615ee9565b5b828203905092915050565b6000615e6382615e76565b9050919050565b60008115159050919050565b600073ffffffffffffffffffffffffffffffffffffffff82169050919050565b6000819050919050565b6000615eab82615e96565b91507fffffffffffffffffffffffffffffffffffffffffffffffffffffffffffffffff821415615ede57615edd615ee9565b5b600182019050919050565b7f4e487b7100000000000000000000000000000000000000000000000000000000600052601160045260246000fd5b7f4e487b7100000000000000000000000000000000000000000000000000000000600052601260045260246000fd5b7f4e487b7100000000000000000000000000000000000000000000000000000000600052603160045260246000fd5b7f4e487b7100000000000000000000000000000000000000000000000000000000600052603260045260246000fd5b600080fd5b7f5265706179206572726f72000000000000000000000000000000000000000000600082015250565b7f617373657420646f6e277420666f756e64000000000000000000000000000000600082015250565b7f4f776e61626c653a206e6577206f776e657220697320746865207a65726f206160008201527f6464726573730000000000000000000000000000000000000000000000000000602082015250565b7f636f6c6c61746572616c206e6f742076616c6964000000000000000000000000600082015250565b7f62616c616e63652075736572206c6f7700000000000000000000000000000000600082015250565b7f74687265736f6c64204c69717569646174696f6e207072696365206e6f74206160008201527f6368696576656400000000000000000000000000000000000000000000000000602082015250565b7f4e6f74206f776e65722074686973206c6f616e00000000000000000000000000600082015250565b7f426f72726f77657220666f72207468697320636f6e7472616374206e6f74207060008201527f726573656e740000000000000000000000000000000000000000000000000000602082015250565b7f4e6f74206f776e6572207468697320636f6e7472616374000000000000000000600082015250565b7f54686973206c6f616e206e6f7420657870697265640000000000000000000000600082015250565b7f696e76616c696420616464726573730000000000000000000000000000000000600082015250565b7f416d6f756e7420617676616c69626c65206c6f77000000000000000000000000600082015250565b7f636f6c6c61746572616c20646f6e277420666f756e6400000000000000000000600082015250565b7f41737365747420616c726561647920696e206c69737400000000000000000000600082015250565b7f54686973206c656e6465722068617320626c6f636b656420746865206973737560008201527f616e6365206f66206e6577204c6f616e00000000000000000000000000000000602082015250565b7f4f776e61626c653a2063616c6c6572206973206e6f7420746865206f776e6572600082015250565b7f70656e616c697479206d75737420686176652067656174656520300000000000600082015250565b7f696e6372656173206d75737420626520706c7573203000000000000000000000600082015250565b7f636f6e747261637420646f6e7420657869737400000000000000000000000000600082015250565b7f646561646c696e65206d75737420686176652067656174656520300000000000600082015250565b7f616c6f77616e63652075736572206c6f77000000000000000000000000000000600082015250565b7f596f752063616e206f6e6c79204c6f616e20616d6f756e740000000000000000600082015250565b7f5265656e7472616e637947756172643a207265656e7472616e742063616c6c00600082015250565b7f41737365747420617676616c69626c6520696e73756666696369656e7420666f60008201527f7220746869732077686964726f77000000000000000000000000000000000000602082015250565b7f436f6e7472616374206861766520617373657420696e20626f72726f77000000600082015250565b61647281615e58565b811461647d57600080fd5b50565b61648981615e6a565b811461649457600080fd5b50565b6164a081615e96565b81146164ab57600080fd5b5056fea26469706673582212200ef8ff3f6a2d885449ea066ee884021961223f824eaaaceba2e34015ba78632164736f6c63430008070033",
  "immutableReferences": {},
  "source": "// SPDX-License-Identifier: Leluk911\n\npragma solidity 0.8.7;\n\nimport \"../node_modules/@openzeppelin/contracts/token/ERC20/IERC20.sol\";\nimport \"../node_modules/@openzeppelin/contracts/access/Ownable.sol\";\nimport \"../node_modules/@openzeppelin/contracts/utils/Counters.sol\";\nimport \"../node_modules/@openzeppelin/contracts/security/ReentrancyGuard.sol\";\nimport \"./storage.sol\";\nimport \"./interestCalculator.sol\";\n\ncontract lendingPage is Storage,Ownable,ReentrancyGuard {\n    //library\n\n    using Counters for Counters.Counter;\n    //function variable\n    \n    //-------------------------------//\n    constructor(uint _minpenality){\n        Id.increment();\n        minPenality = _minpenality;\n    }\n    // INTERNAL FUNCTION \n    function _setAssettAvvalible(address _newAsset) internal{\n        require(_newAsset != address(0), \"invalid address\");\n        require(!_findAsset(_newAsset),\"Assett already in list\");\n        assetAvvalible.push(_newAsset);\n        emit NewAssetAvvalible(_newAsset, block.timestamp);   \n    }\n    function _healFactor(uint _priceCollateralETH, uint _priceBorrowEth) internal pure returns(uint){\n        return (_priceCollateralETH/_priceBorrowEth);\n    }\n    function _liquidationThresold( uint _priceBorrowEth,uint _rateLiquidation) internal pure returns(uint){\n        return (\n            //uint _priceCollateralETH,\n            //(_priceCollateralETH * _priceBorrowEth)/(_rateLiquidation * _priceBorrowEth)\n            _priceBorrowEth * _rateLiquidation \n\n        );\n    }\n    //-----> Serch function  \n    function _findAsset(address _asset) internal view returns(bool){\n        for(uint i = 0; i<assetAvvalible.length; i++){\n            if(assetAvvalible[i]==_asset){\n                return true;\n            }\n        }\n        return false;\n    }\n    function _getAssettAvvalible()internal view returns (address[] memory ){\n        return assetAvvalible; \n    }\n    //-----> Search function user \n    function _listContractXuser(address _user) internal view returns(uint[] memory){\n       return listContractUser[_user];\n    }\n    function _findContractLending(address _to,uint _id)internal view returns(LendingContract memory){\n        return userLendingContract[_to][_id];\n    }\n     function _findArrayindexContract(address _to,uint deleteId)internal view returns(uint,bool){\n            //uint index;\n            //bool response;// = false;\n            for(uint i=0 ;i<listContractUser[_to].length;i++){\n                if (deleteId == listContractUser[_to][i]){\n                    //index = i;\n                    //response = true;\n                    //break;\n                    return (i,true);\n                }\n            }\n            //return (index,response);\n            return (0,false);\n  \n    }\n    function _findContractAvvalible(uint _IdFind)internal view returns(uint,bool){\n         //uint index;// = 0;\n         //bool response;// = false;\n         for(uint i=0 ;i<listContract.length;i++){\n             if (_IdFind == listContract[i]){\n                 //index = i;\n                 //response = true;\n                return (i,true);\n\n             }\n         }\n         //return (index,response);\n        return (0,false);\n\n     \n    }\n    //------> Search function Borrower\n    function _serchIndexBorrowerXContract(uint _idContract,address _borrower) internal view returns(bool,uint){\n      for(uint i =0; i<borrowersXid[_idContract].length;i++ ){\n          if(borrowersXid[_idContract][i].owner == _borrower){\n              return (true,i);\n          }\n      }\n      return (false,0);\n    }\n    function _serchBorrowerPositionXContract(uint _idContract,address _borrower) internal view returns(Borrower memory){\n       for(uint i =0; i<borrowersXid[_idContract].length;i++ ){\n           if(borrowersXid[_idContract][i].owner == _borrower){\n               return (borrowersXid[_idContract][i]);\n           }\n       }\n       revert(\"Borrower for this contract not present\");\n    }\n    // ----> User Function\n    function _deposit(address _to,address _asset,uint _amount,uint _apr,uint _deadline,uint _penality,address _collateral,uint _rateCollateral)internal {\n        //check\n        require(_to != address(0), \"invalid address\");\n        require(_asset != _collateral, \"collateral not valid\");\n        require(_findAsset(_asset),\"asset don't found\");\n        require(_findAsset(_collateral),\"collateral don't found\");\n        require(IERC20(_asset).balanceOf(_to) >= _amount,\"balance user low\");\n        require(IERC20(_asset).allowance(_to, address(this)) >= _amount,\"alowance user low\");\n        require(_deadline > 0,\"deadline must have geatee 0\");\n        require(_penality >=  minPenality,\"penality must have geatee 0\");    \n        // action\n        //uint balanceContract = IERC20(_asset).balanceOf(address(this)); \n        IERC20(_asset).transferFrom(_to,address(this), _amount);\n        //require(balanceContract+_amount == IERC20(_asset).balanceOf(address(this)));\n        // prepare local variable\n        LendingContract memory newContract= LendingContract(\n            Id.current(),\n            _to,\n            false,\n            _asset,\n            //_amount,\n            _amount,\n            _apr,\n            _deadline,\n            _penality,\n            _collateral,\n            0,\n            _rateCollateral,\n            0\n        );\n        // update status global variable\n        userLendingContract[_to][Id.current()] = newContract;\n        emit NewContractDeposit(\n            Id.current(),_to,_asset,_amount,_apr,_deadline,_penality, _collateral\n        );\n        listContractUser[_to].push(Id.current());\n        listContract.push(Id.current());\n        Id.increment();\n\n\n    }\n    function _increasDeposit(address _to,uint _idContract, uint _increasAmount) internal  contractOwner(_to, _idContract){\n        require(_increasAmount > 0, \"increas must be plus 0\");\n        require(IERC20(_findContractLending(_to,_idContract).asset).balanceOf(_to) >= _increasAmount,\"balance user low\");\n        require(IERC20(_findContractLending(_to,_idContract).asset).allowance(_to, address(this)) >= _increasAmount,\"alowance user low\");\n        \n        //uint balanceContract = IERC20(_findContractLending(_to,_idContract).asset).balanceOf(address(this)); \n        IERC20(_findContractLending(_to,_idContract).asset).transferFrom(_to,address(this), _increasAmount);\n        //require(balanceContract+_increasAmount == IERC20(_findContractLending(_to,_idContract).asset).balanceOf(address(this)));\n\n        userLendingContract[_to][_idContract].amountAvvalible += _increasAmount; \n\n        emit IncreasContractDeposit(\n            _findContractLending(_to,_idContract).id,\n            _findContractLending(_to,_idContract).amountAvvalible - _increasAmount,\n            _findContractLending(_to,_idContract).amountAvvalible  \n        );\n    }\n    function _decreasDeposit(address _to,uint _idContract, uint _decreasAmount) internal contractOwner(_to, _idContract){\n        require(_decreasAmount > 0, \"increas must be plus 0\");\n        require(\n            _findContractLending(_to,_idContract).amountAvvalible >= _decreasAmount, \"Assett avvalible insufficient for this whidrow\"\n        );\n     \n\n        userLendingContract[_to][_idContract].amountAvvalible -= _decreasAmount;\n\n        //uint balanceContract = IERC20(_findContractLending(_to,_idContract).asset).balanceOf(address(this)); \n        IERC20(_findContractLending(_to,_idContract).asset).transfer(_to,_decreasAmount);\n        //require(balanceContract -_decreasAmount == IERC20(_findContractLending(_to,_idContract).asset).balanceOf(address(this)));\n\n        emit DecreasContractDeposit(\n            _findContractLending(_to,_idContract).id,\n            _findContractLending(_to,_idContract).amountAvvalible + _decreasAmount,\n            _findContractLending(_to,_idContract).amountAvvalible\n            \n        );\n\n    }\n    function _deleteContract(address _to,uint _idContract)internal contractOwner(_to, _idContract){\n       require(\n            _findContractLending(_to,_idContract).amountBorrow == 0, \"Contract have asset in borrow\"\n        ); \n        uint amountRepay = userLendingContract[_to][_idContract].amountAvvalible;\n        uint deleteId = userLendingContract[_to][_idContract].id;\n        address assetWidrow =_findContractLending(_to,_idContract).asset;\n        delete userLendingContract[_to][_idContract];\n        if(listContractUser[_to].length > 0){\n             // serch index of delete\n            (uint indexDelete, bool response) = _findArrayindexContract(_to, deleteId);\n            if(response){\n                //clean array\n                listContractUser[_to][indexDelete]=listContractUser[_to][listContractUser[_to].length -1];\n                listContractUser[_to].pop();\n            }\n        }else{\n            listContractUser[_to].pop(); // clean array\n        }\n          if(listContract.length > 0){\n             // serch index of delete\n            (uint indexDelete, bool response) = _findContractAvvalible(_idContract);\n            if(response){\n                //clean array\n                listContract[indexDelete] = listContract[listContract.length -1];\n                listContract.pop();\n            }\n        }else{\n            listContract.pop(); // clean array\n        }\n        //uint balanceContract = IERC20(assetWidrow).balanceOf(address(this)); \n        IERC20(assetWidrow).transfer(_to,amountRepay);\n        //require(balanceContract -amountRepay == IERC20(assetWidrow).balanceOf(address(this)));\n\n        emit DeleteContractDeposit(_to, deleteId);\n    }\n    function _lockNewBorrow(address _to,uint _idContract,bool _lock)internal contractOwner(_to, _idContract){\n             //lock[_idContract] = _lock;\n            userLendingContract[_to][_idContract].lock = _lock;   \n       \n    }\n  \n    //BORROW FUNCTION\n    function _executeBorrow(address _to,uint _idContract,address _lender,uint _amountBorrow,address _assettCollateral,uint _amountCollateral) internal {\n        //require(lock[_idContract] == false, \"questo funziona\");\n        require(userLendingContract[_lender][_idContract].lock == false,\"This lender has blocked the issuance of new Loan\");\n        (,bool response) = _findArrayindexContract(_lender,_idContract);\n        require(response,\"contract dont exist\");\n        require(userLendingContract[_lender][_idContract].amountAvvalible >= _amountBorrow,\"Amount avvalible low\");\n        //// controll and utility  local var\n        //uint _priceCollateralETH = _mockOracleCollateral();// fix with true oracle\n        uint _priceBorrowEth = _mockOracleBorrow();// fix with true oracle\n        uint _rateLiquidation = userLendingContract[_lender][_idContract].rateCollateral;\n        (bool responseSrc,uint indexBorrow) = _serchIndexBorrowerXContract(_idContract, _to);\n        //check before act borrow \n      \n    \n        if(!responseSrc){\n            _newBorrower(_to,_lender, _idContract, _assettCollateral, _amountCollateral, _amountBorrow, _rateLiquidation);\n        }else{\n            require(_liquidationThresold(\n                          //_priceCollateralETH*borrowersXid[_idContract][indexBorrow].ammounBorrow,\n                          _priceBorrowEth*borrowersXid[_idContract][indexBorrow].amountCollateral,\n                           _rateLiquidation) > _mockOracleBorrow());\n            _oldBorrower(_to, _lender, _idContract, _assettCollateral, _amountCollateral, _amountBorrow, _rateLiquidation, indexBorrow);\n\n        }\n\n        emit Borrow(_to, _idContract, _amountBorrow);\n    }\n    function _oldBorrower(address _to,address _lender,uint _idContract,address _assettCollateral,uint _amountCollateral,uint _amountBorrow, uint _rateLiquidation,uint indexBorrow)internal {\n        // gia cliente??\n        // aggiorniamo i conti vecchi \n        // aggiungere al controllo le coin gia depositate e prese in prestito \n        require(_to == borrowersXid[_idContract][indexBorrow].owner, \"Not owner this loan\" );\n        require(_healFactor(_mockOracleCollateral() *(borrowersXid[_idContract][indexBorrow].amountCollateral + _amountCollateral),\n                             _mockOracleBorrow() *(borrowersXid[_idContract][indexBorrow].ammounBorrow + _amountBorrow)\n                             )> userLendingContract[_lender][_idContract].rateCollateral); \n\n        //uint balanceBefore = IERC20(_assettCollateral).balanceOf(address(this));\n        IERC20(_assettCollateral).transferFrom(_to, address(this), _amountCollateral);\n        //require( balanceBefore + _amountCollateral == IERC20(_assettCollateral).balanceOf(address(this)));\n\n        borrowersXid[_idContract][indexBorrow].ammounBorrow += _amountBorrow;// aggiornata la variabile globale\n        borrowersXid[_idContract][indexBorrow].amountCollateral += _amountCollateral;// aggiornata la variabile globale\n        // updata thresoldLiquidation \n        borrowersXid[_idContract][indexBorrow].liquidationThreshold =\n                _liquidationThresold(\n                    //_mockOracleCollateral()*borrowersXid[_idContract][indexBorrow].amountCollateral,\n                    _mockOracleBorrow()*borrowersXid[_idContract][indexBorrow].ammounBorrow,\n                     _rateLiquidation);\n        userLendingContract[_lender][_idContract].amountAvvalible -=_amountBorrow;// togliamo le coin prestare\n        userLendingContract[_lender][_idContract].amountBorrow += _amountBorrow; // incrementiamo il capitale prestato\n        userLendingContract[_lender][_idContract].amountCollateral += _amountCollateral;// aggiungiamo la quantita di collaterale presente nel contratto\n        //BorrowerContract[_to][indexBorrow] = borrowersXid[_idContract][indexBorrow];\n        IERC20(userLendingContract[_lender][_idContract].asset).transfer(_to, _amountBorrow);\n\n    }\n    function _newBorrower(address _to,address _lender,uint _idContract,address _assettCollateral,uint _amountCollateral,uint _amountBorrow, uint _rateLiquidation)internal {\n        // nuovo cliente????\n        // conti nuovi\n        require(_healFactor(_mockOracleCollateral() * _amountCollateral, _mockOracleBorrow()*_amountBorrow) > userLendingContract[_lender][_idContract].rateCollateral);\n        // spreco di gas????\n        //uint balanceBefore = IERC20(_assettCollateral).balanceOf(address(this));\n        IERC20(_assettCollateral).transferFrom(_to, address(this), _amountCollateral);\n        //require( balanceBefore + _amountCollateral == IERC20(_assettCollateral).balanceOf(address(this)));\n        // preparazione dei dati del borrower non ancora settat nella variabile locale\n        Borrower memory newBorrower = Borrower(\n                                            _to,\n                                            _idContract,\n                                            userLendingContract[_lender][_idContract].asset,\n                                            _amountBorrow,\n                                            //uint heltBorrow;\n                                            _assettCollateral,\n                                            _amountCollateral,\n                                            _liquidationThresold(\n                                                //_mockOracleCollateral()*_amountCollateral,\n                                                 _mockOracleBorrow()*_amountBorrow,\n                                                 _rateLiquidation),\n                                            block.timestamp + userLendingContract[_lender][_idContract].duration,\n                                            block.timestamp,\n                                            _findContractLending(_lender,_idContract).apr,\n                                            _lender\n\n                                            );\n\n        borrowersXid[_idContract].push(newBorrower);// aggiornata la variabile locale\n        // aggiorniamo i dati del lender\n\n        userLendingContract[_lender][_idContract].amountAvvalible -=_amountBorrow;// togliamo le coin prestare\n        userLendingContract[_lender][_idContract].amountBorrow += _amountBorrow; // incrementiamo il capitale prestato\n        userLendingContract[_lender][_idContract].amountCollateral += _amountCollateral;// aggiungiamo la quantita di collaterale presente nel contratto\n        //BorrowerContract[_to][borrowersXid[_idContract].length] = newBorrower;\n        IERC20(userLendingContract[_lender][_idContract].asset).transfer(_to, _amountBorrow);\n    }\n    \n    // EXTERNAL FUNCTION\n    function setAssettAvvalible(address _newAsset) external nonReentrant() onlyOwner() {\n        _setAssettAvvalible(_newAsset);\n    } \n    function findAsset(address _asset) external view returns(bool){\n        return _findAsset(_asset);\n    }\n    function deposit(address _asset,uint _amount,uint _apr,uint _deadline,uint _penality,address _collateral,uint _rateCollateral) external nonReentrant() {\n        _deposit(msg.sender, _asset, _amount, _apr, _deadline, _penality, _collateral,_rateCollateral);\n    }\n    function listContractXuser(address _user) external view returns(uint[] memory){\n        return _listContractXuser(_user);\n    }\n    function getAssettAvvalible()external view returns (address[] memory ){\n        return _getAssettAvvalible(); \n    }\n    function findContractLending(address _to,uint _id)external view returns(LendingContract memory){\n        return _findContractLending(_to, _id);\n    }\n     function increasDeposit(uint _idContract, uint _increasAmount) external nonReentrant(){\n        _increasDeposit(msg.sender, _idContract, _increasAmount);\n    }\n    function decreasDeposit(uint _idContract, uint _decreasAmount) external nonReentrant(){\n        _decreasDeposit(msg.sender, _idContract, _decreasAmount);\n    }\n    function deleteContract(uint _idContract) external nonReentrant(){\n        _deleteContract(msg.sender, _idContract);\n    }\n     function executeBorrow(uint _idContract,address _lender,uint _amountBorrow,address _assettCollateral,uint _amountCollateral) external nonReentrant(){\n        _executeBorrow(msg.sender, _idContract, _lender, _amountBorrow, _assettCollateral, _amountCollateral);\n    }\n    function serchBorrowerPositionXContract(uint _idContract,address _borrower) external view returns (Borrower memory){\n        return _serchBorrowerPositionXContract(_idContract, _borrower);\n\n    }\n    function serchIndexBorrowerXContract(uint _idContract,address _borrower)external view returns(uint){\n        (,uint idFind) = _serchIndexBorrowerXContract(_idContract, _borrower);\n        return idFind;\n    }\n    function lockNewBorrow(address _to,uint _idContract,bool _lock)external nonReentrant(){\n       \n        _lockNewBorrow(_to, _idContract,_lock);\n    }\n\n    //// ^^^^^TESTED^^^^^\n    /// vvvvvvNON TESTEDvvvvv\n   \n    // MODIFIER\n    modifier contractOwner(address _to,uint _idContract){\n        require(\n           _findContractLending(_to,_idContract).owner == _to, \"Not owner this contract\" \n        );\n        _;\n    }\n    // EVENT \n\n     event NewAssetAvvalible(address indexed asset, uint timeStart);\n     event NewContractDeposit(\n        uint Id,\n        address indexed owner,\n        address indexed asset,\n        uint amount,\n        uint apr,\n        uint  deadline,\n        uint  penality,\n        address indexed collateral\n     );\n     event IncreasContractDeposit(\n        uint Id,\n        uint indexed amount,\n        uint indexed newAmount\n     );\n     event DecreasContractDeposit(\n        uint Id,\n        uint indexed amount,\n        uint indexed newAmount\n     );\n\n     event DeleteContractDeposit(\n        address indexed owner,\n        uint indexed id\n     );\n     event Borrow( address indexed Borrower,uint indexed Id_Contract, uint amount);\n\n     event repay(address indexed _to, uint indexed _idContract,uint _amount);\n     event applyPenality(address indexed _to,uint  indexed _idContract,uint _amount);\n\n     event newTimeExpireIncreas(uint indexed _idContract, uint indexed _timeIncreas);\n     event newTimeExpireDecreas(uint indexed _idContract, uint indexed _timeIncreas);\n\n    // mock function\n\n    function _mockOracleBorrow() internal pure returns(uint price){\n        price = 2;\n    }\n\n    function _mockOracleCollateral() internal pure returns(uint price){\n        price = 1;\n\n    }\n\n    //wiew amount of repay \n    \n\n  \n\n    function _executeRepay(address _to, uint _idContract,uint _amount) internal {\n        //Borrower memory loanSituation = _serchBorrowerPositionXContract(_idContract, _to);\n        require(_to  ==  _serchBorrowerPositionXContract(_idContract, _to).owner ,\"Not owner this loan\");\n        if(block.timestamp >  _serchBorrowerPositionXContract(_idContract, _to).expiration){\n            require(_penalityLoan(_amount, _to, _idContract));// gestire la penalit\n        }else{\n            require(_repay( _amount, _to, _idContract),\"Repay error\");\n        }\n        emit repay(_to, _idContract, _amount);\n    }\n    function _repay(uint _amount,address _to,uint _idContract) internal returns(bool){\n        // portiamo ad adesso la situazione\n            (,uint indexBorrow) = _serchIndexBorrowerXContract(_idContract, _to);\n\n            borrowersXid[_idContract][indexBorrow].ammounBorrow = InterestCalculator._getTotalLoan(\n                borrowersXid[_idContract][indexBorrow].ammounBorrow,\n                borrowersXid[_idContract][indexBorrow].aprLoan,\n                borrowersXid[_idContract][indexBorrow].blockStart);\n            // ripagando si ricomincia il calcolo degli interessi come fosse un prestito nuovo\n            require(borrowersXid[_idContract][indexBorrow].ammounBorrow >= _amount, \"You can only Loan amount\");\n\n            //uint Balance = IERC20(loanSituation.assetBorrow).balanceOf(address(this));\n            IERC20(borrowersXid[_idContract][indexBorrow].assetBorrow).transferFrom(_to,address(this), _amount);\n            //assert(Balance + _amount == IERC20(loanSituation.assetBorrow).balanceOf(address(this)));\n\n            // receipt the \"ternis\" update the data lender and borrower\n            address _lender = borrowersXid[_idContract][indexBorrow].lender;\n            userLendingContract[_lender][_idContract].amountBorrow -= _amount;\n            userLendingContract[_lender][_idContract].amountAvvalible += _amount;\n\n\n\n            borrowersXid[_idContract][indexBorrow].ammounBorrow -= _amount;\n            borrowersXid[_idContract][indexBorrow].blockStart = block.timestamp;\n            borrowersXid[_idContract][indexBorrow].liquidationThreshold = \n                _liquidationThresold(\n                      borrowersXid[_idContract][indexBorrow].ammounBorrow * _mockOracleBorrow(),\n                      userLendingContract[_lender][_idContract].rateCollateral);\n            return true;\n    }\n    function _penalityLoan ( uint _amount,address _to,uint _idContract) internal returns(bool){\n        (,uint indexBorrow) = _serchIndexBorrowerXContract(_idContract, _to);\n            //borrowersXid[_idContract][indexBorrow]\n        require(borrowersXid[_idContract][indexBorrow].expiration < block.timestamp, \"This loan not expired\");\n        //penality 2% of pay\n        uint new_amount = ((_amount *98)/100)+1;\n        // per ora va tutto al lendere ma poi ci applichiamo delle fee\n        userLendingContract[borrowersXid[_idContract][indexBorrow].lender][_idContract].amountAvvalible += _amount - new_amount;// tutto /2\n        // balanceContract[assett] += (_amount - new_amount)/2\n        require(_repay(new_amount, _to, _idContract));\n        emit applyPenality(_to, _idContract,new_amount);\n        return true;\n    }\n    function _increaseTimeExpire(address _to,uint _idContract, uint _timeIncreas)internal contractOwner(_to, _idContract){\n            userLendingContract[_to][_idContract].duration += _timeIncreas;  \n            emit newTimeExpireIncreas(_idContract, _timeIncreas);   \n    }\n    function _decreaseTimeExpire(address _to,uint _idContract, uint _timeIncreas)internal contractOwner(_to, _idContract){\n            require(userLendingContract[_to][_idContract].amountBorrow == 0);\n            userLendingContract[_to][_idContract].duration += _timeIncreas;\n            emit newTimeExpireDecreas(_idContract, _timeIncreas);     \n    }\n    function _liquidationCall(address _to,uint _idContract,uint _idBorrow) internal contractOwner(_to, _idContract) {\n        require(borrowersXid[_idContract][_idBorrow].liquidationThreshold <= _mockOracleCollateral(),\"thresold Liquidation price not achieved\");\n        // 1/4 viene lioquidato\n        uint liquidationAmount = borrowersXid[_idContract][_idBorrow].amountCollateral /4; // parte da liquidare\n        // tolgo dalla posizione del borrower il collaterale liquidato (quidni non puo prelevare)\n        borrowersXid[_idContract][_idBorrow].amountCollateral -= liquidationAmount;\n        // dallo status contratto tolgo il collaterale perche diventa prelevabile\n        userLendingContract[borrowersXid[_idContract][_idBorrow].lender][_idContract].amountCollateral -= liquidationAmount;\n        // riduco il credito del lender\n        userLendingContract[borrowersXid[_idContract][_idBorrow].lender][_idContract].amountBorrow -= liquidationAmount * _mockOracleCollateral();\n        // riduco il debito del borrower\n        borrowersXid[_idContract][_idBorrow].ammounBorrow -= liquidationAmount * _mockOracleCollateral();\n        // aggiorniamo il ThresoldLiquidation\n        borrowersXid[_idContract][_idBorrow].liquidationThreshold = _liquidationThresold(\n             _mockOracleBorrow() * borrowersXid[_idContract][_idBorrow].ammounBorrow,\n             userLendingContract[borrowersXid[_idContract][_idBorrow].lender][_idContract].rateCollateral\n             );\n        // rendo prelevabile il collaterale\n        //liquidationContract[borrowersXid[_idContract][_idBorrow].owner][borrowersXid[_idContract][_idBorrow].assetCollaterl] += liquidationAmount;\n        IERC20(borrowersXid[_idContract][_idBorrow].assetCollaterl).transfer(\n            borrowersXid[_idContract][_idBorrow].owner,\n            liquidationAmount);\n     \n    }\n\n    function viewAmountLoan(address  _borrower,uint _idContract) external view returns(uint loanCompouse) {\n        //Borrower memory loanSituation = _serchBorrowerPositionXContract(_idContract, _borrower);\n        //uint apr = _serchBorrowerPositionXContract(_idContract, _borrower).aprLoan;//loanSituation.aprLoan;\n        //uint blockStart = _serchBorrowerPositionXContract(_idContract, _borrower).blockStart; //loanSituation.blockStart; \n        loanCompouse = InterestCalculator._getTotalLoan(\n            _serchBorrowerPositionXContract(_idContract, _borrower).ammounBorrow,\n            _serchBorrowerPositionXContract(_idContract, _borrower).aprLoan,\n            _serchBorrowerPositionXContract(_idContract, _borrower).blockStart); \n    }\n    function executeRepay(uint _idContract,uint _amount) external nonReentrant(){\n        _executeRepay(msg.sender, _idContract, _amount);\n    }\n    function increaseTimeExpire(uint _idContract, uint _timeIncreas)external nonReentrant(){\n          _increaseTimeExpire(msg.sender, _idContract, _timeIncreas);\n    }\n    function decreaseTimeExpire(uint _idContract, uint _timeIncreas)external nonReentrant(){\n          _decreaseTimeExpire(msg.sender, _idContract, _timeIncreas);\n    }\n\n    function liquidationCall(uint _idContract,uint _idBorrow) external nonReentrant(){\n           // borrowersXid[_idContract][0].liquidationThreshold = 3421;\n        _liquidationCall(msg.sender,_idContract,_idBorrow);\n    }\n\n    // TEst Function only\n    //function testTimeZero(address _to,uint _idContract)external {\n    //       \n    //        //serLendingContract[_to][_idContract].duration = _timeIncreas;\n    //        (,uint indexBorrow) = _serchIndexBorrowerXContract(_idContract, _to);\n    //        borrowersXid[_idContract][indexBorrow].expiration = 0;\n    //}\n    \n}/**\n\n    MANCA IL SISTEMA DI FEES\n    3 -> Ripagare il Borrow e cambiare il margine\n            -> Applicare qui la Fee ? \n\n    4 -> Liquidazione collatterale, \n            -> problema -> Calcolo matematico \n            -> Quanto liquidare?\n            -> Come cambiano i valori dopo la liquidazione?\n            -> Voglio dare al lender la possibilit di vendere a mercato la liquidazione? \n            -> Gestione delle fee da pagare al protocollo \n    \n    5 -> a carico di chi sono le fee? lender o borrower ?\n            -> dove prendere le fee? \n                -> dall interesse del lender\n                    -> come lo calcolo?\n                    -> quando le prendo ?\n                -> dal pagamento del debito ? \n                    ->  pi vantaggioso progettualmente\n                    ->  competitiva come strategia?\n            -> HOW MUCH ????\n                -> 0.50% su ogni pagamento ???? -> tariffa standard\n                -> 1% fino al 5%        Tariffa liquidazione\n                -> 2% dal 5% al 10%     Tariffa liquidazione\n                -> 4% dal 10% al 20%    Tariffa liquidazione\n                -> 5% dal 20% al 30%    Tariffa liquidazione\n                -> 6% dal 30% al 100%   Tariffa liquidazione\n                    -> Vendere a mercato e realizare subito usd?\n                    -> detenere gli asset? \n                    -> miso detenere blue chips e dumpare il resto.\n \n\n nonReentrant()\n onlyOwner()\n \n\n\n \n */\n",
  "sourcePath": "/media/leluk/storage/Studio Dev/Dapp portfolio/individual lending/contracts/Individual_lending.sol",
  "compiler": {
    "name": "solc",
    "version": "0.8.7+commit.e28d00a7.Emscripten.clang"
  },
  "schemaVersion": "3.4.7",
  "updatedAt": "2022-06-24T17:45:28.978Z",
  "devdoc": {
    "kind": "dev",
    "methods": {
      "owner()": {
        "details": "Returns the address of the current owner."
      },
      "renounceOwnership()": {
        "details": "Leaves the contract without owner. It will not be possible to call `onlyOwner` functions anymore. Can only be called by the current owner. NOTE: Renouncing ownership will leave the contract without an owner, thereby removing any functionality that is only available to the owner."
      },
      "transferOwnership(address)": {
        "details": "Transfers ownership of the contract to a new account (`newOwner`). Can only be called by the current owner."
      }
    },
    "version": 1
  },
  "userdoc": {
    "kind": "user",
    "methods": {},
    "version": 1
  }
}