{
  "contractName": "lendingPage",
  "abi": [
    {
      "inputs": [
        {
          "internalType": "uint256",
          "name": "_minpenality",
          "type": "uint256"
        }
      ],
      "stateMutability": "nonpayable",
      "type": "constructor"
    },
    {
      "anonymous": false,
      "inputs": [
        {
          "indexed": true,
          "internalType": "address",
          "name": "asset",
          "type": "address"
        },
        {
          "indexed": false,
          "internalType": "uint256",
          "name": "timeStart",
          "type": "uint256"
        }
      ],
      "name": "NewAssetAvvalible",
      "type": "event"
    },
    {
      "anonymous": false,
      "inputs": [
        {
          "indexed": false,
          "internalType": "uint256",
          "name": "Id",
          "type": "uint256"
        },
        {
          "indexed": true,
          "internalType": "address",
          "name": "asset",
          "type": "address"
        },
        {
          "indexed": true,
          "internalType": "uint256",
          "name": "amount",
          "type": "uint256"
        },
        {
          "indexed": false,
          "internalType": "uint256",
          "name": "apr",
          "type": "uint256"
        },
        {
          "indexed": false,
          "internalType": "uint256",
          "name": "deadline",
          "type": "uint256"
        },
        {
          "indexed": false,
          "internalType": "uint256",
          "name": "penality",
          "type": "uint256"
        },
        {
          "indexed": true,
          "internalType": "address",
          "name": "collateral",
          "type": "address"
        }
      ],
      "name": "NewContractDeposit",
      "type": "event"
    },
    {
      "anonymous": false,
      "inputs": [
        {
          "indexed": true,
          "internalType": "address",
          "name": "previousOwner",
          "type": "address"
        },
        {
          "indexed": true,
          "internalType": "address",
          "name": "newOwner",
          "type": "address"
        }
      ],
      "name": "OwnershipTransferred",
      "type": "event"
    },
    {
      "inputs": [],
      "name": "owner",
      "outputs": [
        {
          "internalType": "address",
          "name": "",
          "type": "address"
        }
      ],
      "stateMutability": "view",
      "type": "function",
      "constant": true
    },
    {
      "inputs": [],
      "name": "renounceOwnership",
      "outputs": [],
      "stateMutability": "nonpayable",
      "type": "function"
    },
    {
      "inputs": [
        {
          "internalType": "address",
          "name": "newOwner",
          "type": "address"
        }
      ],
      "name": "transferOwnership",
      "outputs": [],
      "stateMutability": "nonpayable",
      "type": "function"
    },
    {
      "inputs": [
        {
          "internalType": "address",
          "name": "_newAsset",
          "type": "address"
        }
      ],
      "name": "setAssettAvvalible",
      "outputs": [],
      "stateMutability": "nonpayable",
      "type": "function"
    },
    {
      "inputs": [
        {
          "internalType": "address",
          "name": "_asset",
          "type": "address"
        }
      ],
      "name": "findAsset",
      "outputs": [
        {
          "internalType": "bool",
          "name": "",
          "type": "bool"
        }
      ],
      "stateMutability": "view",
      "type": "function",
      "constant": true
    },
    {
      "inputs": [
        {
          "internalType": "address",
          "name": "_asset",
          "type": "address"
        },
        {
          "internalType": "uint256",
          "name": "_amount",
          "type": "uint256"
        },
        {
          "internalType": "uint256",
          "name": "_apr",
          "type": "uint256"
        },
        {
          "internalType": "uint256",
          "name": "_deadline",
          "type": "uint256"
        },
        {
          "internalType": "uint256",
          "name": "_penality",
          "type": "uint256"
        },
        {
          "internalType": "address",
          "name": "_collateral",
          "type": "address"
        }
      ],
      "name": "deposit",
      "outputs": [],
      "stateMutability": "nonpayable",
      "type": "function"
    },
    {
      "inputs": [
        {
          "internalType": "address",
          "name": "_user",
          "type": "address"
        }
      ],
      "name": "listContractXuser",
      "outputs": [
        {
          "internalType": "uint256[]",
          "name": "",
          "type": "uint256[]"
        }
      ],
      "stateMutability": "view",
      "type": "function",
      "constant": true
    }
  ],
  "bytecode": "0x60806040523480156200001157600080fd5b5060405162001aa938038062001aa983398181016040528101906200003791906200017c565b620000576200004b6200008360201b60201c565b6200008b60201b60201c565b600180819055506200007560026200014f60201b620004741760201c565b8060048190555050620001d7565b600033905090565b60008060009054906101000a900473ffffffffffffffffffffffffffffffffffffffff169050816000806101000a81548173ffffffffffffffffffffffffffffffffffffffff021916908373ffffffffffffffffffffffffffffffffffffffff1602179055508173ffffffffffffffffffffffffffffffffffffffff168173ffffffffffffffffffffffffffffffffffffffff167f8be0079c531659141344cd1fd0a4f28419497f9722a3daafe3b4186f6b6457e060405160405180910390a35050565b6001816000016000828254019250508190555050565b6000815190506200017681620001bd565b92915050565b600060208284031215620001955762000194620001b8565b5b6000620001a58482850162000165565b91505092915050565b6000819050919050565b600080fd5b620001c881620001ae565b8114620001d457600080fd5b50565b6118c280620001e76000396000f3fe608060405234801561001057600080fd5b506004361061007d5760003560e01c80638990616d1161005b5780638990616d146100d85780638da5cb5b146100f4578063e2bb0eb914610112578063f2fde38b146101425761007d565b8063460e90d0146100825780636505e65e146100b2578063715018a6146100ce575b600080fd5b61009c60048036038101906100979190610f77565b61015e565b6040516100a99190611316565b60405180910390f35b6100cc60048036038101906100c79190610fa4565b610170565b005b6100d66101dc565b005b6100f260048036038101906100ed9190610f77565b610264565b005b6100fc610341565b604051610109919061129b565b60405180910390f35b61012c60048036038101906101279190610f77565b61036a565b6040516101399190611338565b60405180910390f35b61015c60048036038101906101579190610f77565b61037c565b005b60606101698261048a565b9050919050565b600260015414156101b6576040517f08c379a00000000000000000000000000000000000000000000000000000000081526004016101ad90611473565b60405180910390fd5b60026001819055506101cd33878787878787610521565b60018081905550505050505050565b6101e4610c76565b73ffffffffffffffffffffffffffffffffffffffff16610202610341565b73ffffffffffffffffffffffffffffffffffffffff1614610258576040517f08c379a000000000000000000000000000000000000000000000000000000000815260040161024f906113f3565b60405180910390fd5b6102626000610c7e565b565b600260015414156102aa576040517f08c379a00000000000000000000000000000000000000000000000000000000081526004016102a190611473565b60405180910390fd5b60026001819055506102ba610c76565b73ffffffffffffffffffffffffffffffffffffffff166102d8610341565b73ffffffffffffffffffffffffffffffffffffffff161461032e576040517f08c379a0000000000000000000000000000000000000000000000000000000008152600401610325906113f3565b60405180910390fd5b61033781610d42565b6001808190555050565b60008060009054906101000a900473ffffffffffffffffffffffffffffffffffffffff16905090565b600061037582610e66565b9050919050565b610384610c76565b73ffffffffffffffffffffffffffffffffffffffff166103a2610341565b73ffffffffffffffffffffffffffffffffffffffff16146103f8576040517f08c379a00000000000000000000000000000000000000000000000000000000081526004016103ef906113f3565b60405180910390fd5b600073ffffffffffffffffffffffffffffffffffffffff168173ffffffffffffffffffffffffffffffffffffffff161415610468576040517f08c379a000000000000000000000000000000000000000000000000000000000815260040161045f90611373565b60405180910390fd5b61047181610c7e565b50565b6001816000016000828254019250508190555050565b6060600660008373ffffffffffffffffffffffffffffffffffffffff1673ffffffffffffffffffffffffffffffffffffffff16815260200190815260200160002080548060200260200160405190810160405280929190818152602001828054801561051557602002820191906000526020600020905b815481526020019060010190808311610501575b50505050509050919050565b600073ffffffffffffffffffffffffffffffffffffffff168773ffffffffffffffffffffffffffffffffffffffff161415610591576040517f08c379a0000000000000000000000000000000000000000000000000000000008152600401610588906113b3565b60405180910390fd5b61059a86610e66565b6105d9576040517f08c379a00000000000000000000000000000000000000000000000000000000081526004016105d090611353565b60405180910390fd5b6105e281610e66565b610621576040517f08c379a0000000000000000000000000000000000000000000000000000000008152600401610618906113d3565b60405180910390fd5b848673ffffffffffffffffffffffffffffffffffffffff166370a08231896040518263ffffffff1660e01b815260040161065b919061129b565b60206040518083038186803b15801561067357600080fd5b505afa158015610687573d6000803e3d6000fd5b505050506040513d601f19601f820116820180604052508101906106ab919061105e565b10156106ec576040517f08c379a00000000000000000000000000000000000000000000000000000000081526004016106e390611393565b60405180910390fd5b848673ffffffffffffffffffffffffffffffffffffffff1663dd62ed3e89306040518363ffffffff1660e01b81526004016107289291906112b6565b60206040518083038186803b15801561074057600080fd5b505afa158015610754573d6000803e3d6000fd5b505050506040513d601f19601f82011682018060405250810190610778919061105e565b10156107b9576040517f08c379a00000000000000000000000000000000000000000000000000000000081526004016107b090611453565b60405180910390fd5b600083116107fc576040517f08c379a00000000000000000000000000000000000000000000000000000000081526004016107f390611433565b60405180910390fd5b600454821015610841576040517f08c379a000000000000000000000000000000000000000000000000000000000815260040161083890611413565b60405180910390fd5b60008673ffffffffffffffffffffffffffffffffffffffff166370a08231306040518263ffffffff1660e01b815260040161087c919061129b565b60206040518083038186803b15801561089457600080fd5b505afa1580156108a8573d6000803e3d6000fd5b505050506040513d601f19601f820116820180604052508101906108cc919061105e565b90508673ffffffffffffffffffffffffffffffffffffffff166323b872dd8930896040518463ffffffff1660e01b815260040161090b939291906112df565b602060405180830381600087803b15801561092557600080fd5b505af1158015610939573d6000803e3d6000fd5b505050506040513d601f19601f8201168201806040525081019061095d9190611031565b508673ffffffffffffffffffffffffffffffffffffffff166370a08231306040518263ffffffff1660e01b8152600401610997919061129b565b60206040518083038186803b1580156109af57600080fd5b505afa1580156109c3573d6000803e3d6000fd5b505050506040513d601f19601f820116820180604052508101906109e7919061105e565b86826109f3919061153d565b146109fd57600080fd5b60006040518060e001604052808973ffffffffffffffffffffffffffffffffffffffff1681526020018881526020018881526020018781526020018681526020018581526020018473ffffffffffffffffffffffffffffffffffffffff16815250905080600560008b73ffffffffffffffffffffffffffffffffffffffff1673ffffffffffffffffffffffffffffffffffffffff1681526020019081526020016000206000610aac6002610f15565b815260200190815260200160002060008201518160000160006101000a81548173ffffffffffffffffffffffffffffffffffffffff021916908373ffffffffffffffffffffffffffffffffffffffff1602179055506020820151816001015560408201518160020155606082015181600301556080820151816004015560a0820151816005015560c08201518160060160006101000a81548173ffffffffffffffffffffffffffffffffffffffff021916908373ffffffffffffffffffffffffffffffffffffffff1602179055509050508273ffffffffffffffffffffffffffffffffffffffff16878973ffffffffffffffffffffffffffffffffffffffff167f99cc276fa9efa26f26f0852dda6eb780eb64c04cd71505b7b82d70d7b44343e0610bd76002610f15565b8a8a8a604051610bea94939291906114ae565b60405180910390a4600660008a73ffffffffffffffffffffffffffffffffffffffff1673ffffffffffffffffffffffffffffffffffffffff168152602001908152602001600020610c3b6002610f15565b9080600181540180825580915050600190039060005260206000200160009091909190915055610c6b6002610474565b505050505050505050565b600033905090565b60008060009054906101000a900473ffffffffffffffffffffffffffffffffffffffff169050816000806101000a81548173ffffffffffffffffffffffffffffffffffffffff021916908373ffffffffffffffffffffffffffffffffffffffff1602179055508173ffffffffffffffffffffffffffffffffffffffff168173ffffffffffffffffffffffffffffffffffffffff167f8be0079c531659141344cd1fd0a4f28419497f9722a3daafe3b4186f6b6457e060405160405180910390a35050565b600073ffffffffffffffffffffffffffffffffffffffff168173ffffffffffffffffffffffffffffffffffffffff161415610db2576040517f08c379a0000000000000000000000000000000000000000000000000000000008152600401610da9906113b3565b60405180910390fd5b6003819080600181540180825580915050600190039060005260206000200160009091909190916101000a81548173ffffffffffffffffffffffffffffffffffffffff021916908373ffffffffffffffffffffffffffffffffffffffff1602179055508073ffffffffffffffffffffffffffffffffffffffff167f1406601fca80ce2dde347c6c1c000309440d0365c2b5786f1608d7b1e76dd12d42604051610e5b9190611493565b60405180910390a250565b600080600090505b600380549050811015610f0a578273ffffffffffffffffffffffffffffffffffffffff1660038281548110610ea657610ea5611653565b5b9060005260206000200160009054906101000a900473ffffffffffffffffffffffffffffffffffffffff1673ffffffffffffffffffffffffffffffffffffffff161415610ef7576001915050610f10565b8080610f02906115db565b915050610e6e565b50600090505b919050565b600081600001549050919050565b600081359050610f3281611847565b92915050565b600081519050610f478161185e565b92915050565b600081359050610f5c81611875565b92915050565b600081519050610f7181611875565b92915050565b600060208284031215610f8d57610f8c611682565b5b6000610f9b84828501610f23565b91505092915050565b60008060008060008060c08789031215610fc157610fc0611682565b5b6000610fcf89828a01610f23565b9650506020610fe089828a01610f4d565b9550506040610ff189828a01610f4d565b945050606061100289828a01610f4d565b935050608061101389828a01610f4d565b92505060a061102489828a01610f23565b9150509295509295509295565b60006020828403121561104757611046611682565b5b600061105584828501610f38565b91505092915050565b60006020828403121561107457611073611682565b5b600061108284828501610f62565b91505092915050565b6000611097838361127d565b60208301905092915050565b6110ac81611593565b82525050565b60006110bd82611503565b6110c7818561151b565b93506110d2836114f3565b8060005b838110156111035781516110ea888261108b565b97506110f58361150e565b9250506001810190506110d6565b5085935050505092915050565b611119816115a5565b82525050565b600061112c60118361152c565b915061113782611687565b602082019050919050565b600061114f60268361152c565b915061115a826116b0565b604082019050919050565b600061117260108361152c565b915061117d826116ff565b602082019050919050565b6000611195600f8361152c565b91506111a082611728565b602082019050919050565b60006111b860168361152c565b91506111c382611751565b602082019050919050565b60006111db60208361152c565b91506111e68261177a565b602082019050919050565b60006111fe601b8361152c565b9150611209826117a3565b602082019050919050565b6000611221601b8361152c565b915061122c826117cc565b602082019050919050565b600061124460118361152c565b915061124f826117f5565b602082019050919050565b6000611267601f8361152c565b91506112728261181e565b602082019050919050565b611286816115d1565b82525050565b611295816115d1565b82525050565b60006020820190506112b060008301846110a3565b92915050565b60006040820190506112cb60008301856110a3565b6112d860208301846110a3565b9392505050565b60006060820190506112f460008301866110a3565b61130160208301856110a3565b61130e604083018461128c565b949350505050565b6000602082019050818103600083015261133081846110b2565b905092915050565b600060208201905061134d6000830184611110565b92915050565b6000602082019050818103600083015261136c8161111f565b9050919050565b6000602082019050818103600083015261138c81611142565b9050919050565b600060208201905081810360008301526113ac81611165565b9050919050565b600060208201905081810360008301526113cc81611188565b9050919050565b600060208201905081810360008301526113ec816111ab565b9050919050565b6000602082019050818103600083015261140c816111ce565b9050919050565b6000602082019050818103600083015261142c816111f1565b9050919050565b6000602082019050818103600083015261144c81611214565b9050919050565b6000602082019050818103600083015261146c81611237565b9050919050565b6000602082019050818103600083015261148c8161125a565b9050919050565b60006020820190506114a8600083018461128c565b92915050565b60006080820190506114c3600083018761128c565b6114d0602083018661128c565b6114dd604083018561128c565b6114ea606083018461128c565b95945050505050565b6000819050602082019050919050565b600081519050919050565b6000602082019050919050565b600082825260208201905092915050565b600082825260208201905092915050565b6000611548826115d1565b9150611553836115d1565b9250827fffffffffffffffffffffffffffffffffffffffffffffffffffffffffffffffff0382111561158857611587611624565b5b828201905092915050565b600061159e826115b1565b9050919050565b60008115159050919050565b600073ffffffffffffffffffffffffffffffffffffffff82169050919050565b6000819050919050565b60006115e6826115d1565b91507fffffffffffffffffffffffffffffffffffffffffffffffffffffffffffffffff82141561161957611618611624565b5b600182019050919050565b7f4e487b7100000000000000000000000000000000000000000000000000000000600052601160045260246000fd5b7f4e487b7100000000000000000000000000000000000000000000000000000000600052603260045260246000fd5b600080fd5b7f617373657420646f6e277420666f756e64000000000000000000000000000000600082015250565b7f4f776e61626c653a206e6577206f776e657220697320746865207a65726f206160008201527f6464726573730000000000000000000000000000000000000000000000000000602082015250565b7f62616c616e63652075736572206c6f7700000000000000000000000000000000600082015250565b7f696e76616c696420616464726573730000000000000000000000000000000000600082015250565b7f636f6c6c61746572616c20646f6e277420666f756e6400000000000000000000600082015250565b7f4f776e61626c653a2063616c6c6572206973206e6f7420746865206f776e6572600082015250565b7f70656e616c697479206d75737420686176652067656174656520300000000000600082015250565b7f646561646c696e65206d75737420686176652067656174656520300000000000600082015250565b7f616c6f77616e63652075736572206c6f77000000000000000000000000000000600082015250565b7f5265656e7472616e637947756172643a207265656e7472616e742063616c6c00600082015250565b61185081611593565b811461185b57600080fd5b50565b611867816115a5565b811461187257600080fd5b50565b61187e816115d1565b811461188957600080fd5b5056fea2646970667358221220195032eccc021f87b53a01c2c9d5cb442c2a644e48c0d5bcdc2a3ea18c9fc6bf64736f6c63430008070033",
  "immutableReferences": {},
  "source": "// SPDX-License-Identifier: Leluk911\n\npragma solidity 0.8.7;\n\nimport \"../node_modules/@openzeppelin/contracts/token/ERC20/IERC20.sol\";\nimport \"../node_modules/@openzeppelin/contracts/access/Ownable.sol\";\nimport \"../node_modules/@openzeppelin/contracts/utils/Counters.sol\";\nimport \"../node_modules/@openzeppelin/contracts/security/ReentrancyGuard.sol\";\n\ncontract lendingPage is Ownable,ReentrancyGuard {\n    //library\n    using Counters for Counters.Counter;\n    //function variable\n    Counters.Counter private Id; // id every lending contract\n    address[] private assetAvvalible; // asset add from Owner (only asset present in chainLink oracle)\n    uint private minPenality;\n    // User\n    struct LendingContract {\n        address asset;\n        uint amount;\n        uint amountAvvalible;\n        uint apr;\n        uint deadline;\n        uint penality;\n        address collateral;\n    }\n    mapping(address => mapping(uint=>LendingContract)) private userLendingContract;\n    mapping(address => uint[])listContractUser;\n    //-------------------------------//\n    constructor(uint _minpenality) Ownable() ReentrancyGuard(){\n        Id.increment();\n        minPenality = _minpenality;\n    }\n    // INTERNAL FUNCTION \n    function _setAssettAvvalible(address _newAsset) internal{\n        require(_newAsset != address(0), \"invalid address\");\n        assetAvvalible.push(_newAsset);\n        emit NewAssetAvvalible(_newAsset, block.timestamp);   \n    }\n    //-----> Serch function \n    \n    function _findAsset(address _asset) internal view returns(bool){\n        for(uint i = 0; i<assetAvvalible.length; i++){\n            if(assetAvvalible[i]==_asset){\n                return true;\n            }\n        }\n        return false;\n    }\n\n    function _getAssettAvvalible()internal view returns (address[] memory ){\n        return assetAvvalible; \n    }\n\n \n    //-----> Search function user \n    function _listContractXuser(address _user) internal view returns(uint[] memory){\n       return listContractUser[_user];\n    }\n     function _findContractLending(address _to,uint _id)internal view returns(LendingContract memory){\n        return userLendingContract[_to][_id];\n    }\n\n    function _deposit(address _to,address _asset,uint _amount,uint _apr,uint _deadline,uint _penality,address _collateral)internal {\n        //check\n        require(_to != address(0), \"invalid address\");\n        require(_findAsset(_asset),\"asset don't found\");\n        require(_findAsset(_collateral),\"collateral don't found\");\n        require(IERC20(_asset).balanceOf(_to) >= _amount,\"balance user low\");\n        require(IERC20(_asset).allowance(_to, address(this)) >= _amount,\"alowance user low\");\n        require(_deadline > 0,\"deadline must have geatee 0\");\n        require(_penality >=  minPenality,\"penality must have geatee 0\");    \n        // action\n        uint balanceContract = IERC20(_asset).balanceOf(address(this)); \n        IERC20(_asset).transferFrom(_to,address(this), _amount);\n        require(balanceContract+_amount == IERC20(_asset).balanceOf(address(this)));\n        // prepare local variable\n        LendingContract memory newContract= LendingContract(\n            _asset,\n            _amount,\n            _amount,\n            _apr,\n            _deadline,\n            _penality,\n            _collateral\n        );\n        // update status global variable\n        userLendingContract[_to][Id.current()] = newContract;\n        emit NewContractDeposit(\n            Id.current(),_asset,_amount,_apr,_deadline,_penality, _collateral\n        );\n        listContractUser[_to].push(Id.current());\n        Id.increment();\n\n\n    }\n   \n    // EVENT \n     event NewAssetAvvalible(address indexed asset, uint timeStart);\n     event NewContractDeposit(\n        uint Id,\n        address indexed asset,\n        uint indexed amount,\n        uint apr,\n        uint  deadline,\n        uint  penality,\n        address indexed collateral\n     );\n\n    // EXTERNAL FUNCTION\n    function setAssettAvvalible(address _newAsset) external nonReentrant() onlyOwner() {\n        _setAssettAvvalible(_newAsset);\n    } \n    function findAsset(address _asset) external view returns(bool){\n        return _findAsset(_asset);\n    }\n    function deposit(address _asset,uint _amount,uint _apr,uint _deadline,uint _penality,address _collateral) external nonReentrant() {\n        _deposit(msg.sender, _asset, _amount, _apr, _deadline, _penality, _collateral);\n    }\n    function listContractXuser(address _user) external view returns(uint[] memory){\n        return _listContractXuser(_user);\n    }\n    function getAssettAvvalible()internal view returns (address[] memory ){\n        return _getAssettAvvalible(); \n    }\n\n \n\n\n\n    \n}\n\n\n/**\n nonReentrant()\n onlyOwner()\n \n \n \n */\n",
  "sourcePath": "/media/leluk/storage/Studio Dev/Dapp portfolio/individual lending/contracts/Individual_lending.sol",
  "compiler": {
    "name": "solc",
    "version": "0.8.7+commit.e28d00a7.Emscripten.clang"
  },
  "schemaVersion": "3.4.7",
  "updatedAt": "2022-06-16T11:10:36.089Z",
  "networkType": "ethereum",
  "devdoc": {
    "kind": "dev",
    "methods": {
      "owner()": {
        "details": "Returns the address of the current owner."
      },
      "renounceOwnership()": {
        "details": "Leaves the contract without owner. It will not be possible to call `onlyOwner` functions anymore. Can only be called by the current owner. NOTE: Renouncing ownership will leave the contract without an owner, thereby removing any functionality that is only available to the owner."
      },
      "transferOwnership(address)": {
        "details": "Transfers ownership of the contract to a new account (`newOwner`). Can only be called by the current owner."
      }
    },
    "version": 1
  },
  "userdoc": {
    "kind": "user",
    "methods": {},
    "version": 1
  }
}