{
  "contractName": "lendingPage",
  "abi": [
    {
      "inputs": [
        {
          "internalType": "uint256",
          "name": "_minpenality",
          "type": "uint256"
        }
      ],
      "stateMutability": "nonpayable",
      "type": "constructor"
    },
    {
      "anonymous": false,
      "inputs": [
        {
          "indexed": true,
          "internalType": "address",
          "name": "asset",
          "type": "address"
        },
        {
          "indexed": false,
          "internalType": "uint256",
          "name": "timeStart",
          "type": "uint256"
        }
      ],
      "name": "NewAssetAvvalible",
      "type": "event"
    },
    {
      "anonymous": false,
      "inputs": [
        {
          "indexed": false,
          "internalType": "uint256",
          "name": "Id",
          "type": "uint256"
        },
        {
          "indexed": true,
          "internalType": "address",
          "name": "asset",
          "type": "address"
        },
        {
          "indexed": true,
          "internalType": "uint256",
          "name": "amount",
          "type": "uint256"
        },
        {
          "indexed": false,
          "internalType": "uint256",
          "name": "apr",
          "type": "uint256"
        },
        {
          "indexed": false,
          "internalType": "uint256",
          "name": "deadline",
          "type": "uint256"
        },
        {
          "indexed": false,
          "internalType": "uint256",
          "name": "penality",
          "type": "uint256"
        },
        {
          "indexed": true,
          "internalType": "address",
          "name": "collateral",
          "type": "address"
        }
      ],
      "name": "NewContractDeposit",
      "type": "event"
    },
    {
      "anonymous": false,
      "inputs": [
        {
          "indexed": true,
          "internalType": "address",
          "name": "previousOwner",
          "type": "address"
        },
        {
          "indexed": true,
          "internalType": "address",
          "name": "newOwner",
          "type": "address"
        }
      ],
      "name": "OwnershipTransferred",
      "type": "event"
    },
    {
      "inputs": [],
      "name": "owner",
      "outputs": [
        {
          "internalType": "address",
          "name": "",
          "type": "address"
        }
      ],
      "stateMutability": "view",
      "type": "function",
      "constant": true
    },
    {
      "inputs": [],
      "name": "renounceOwnership",
      "outputs": [],
      "stateMutability": "nonpayable",
      "type": "function"
    },
    {
      "inputs": [
        {
          "internalType": "address",
          "name": "newOwner",
          "type": "address"
        }
      ],
      "name": "transferOwnership",
      "outputs": [],
      "stateMutability": "nonpayable",
      "type": "function"
    },
    {
      "inputs": [
        {
          "internalType": "address",
          "name": "_newAsset",
          "type": "address"
        }
      ],
      "name": "setAssettAvvalible",
      "outputs": [],
      "stateMutability": "nonpayable",
      "type": "function"
    },
    {
      "inputs": [
        {
          "internalType": "address",
          "name": "_asset",
          "type": "address"
        }
      ],
      "name": "findAsset",
      "outputs": [
        {
          "internalType": "bool",
          "name": "",
          "type": "bool"
        }
      ],
      "stateMutability": "view",
      "type": "function",
      "constant": true
    },
    {
      "inputs": [
        {
          "internalType": "address",
          "name": "_to",
          "type": "address"
        },
        {
          "internalType": "address",
          "name": "_asset",
          "type": "address"
        },
        {
          "internalType": "uint256",
          "name": "_amount",
          "type": "uint256"
        },
        {
          "internalType": "uint256",
          "name": "_apr",
          "type": "uint256"
        },
        {
          "internalType": "uint256",
          "name": "_deadline",
          "type": "uint256"
        },
        {
          "internalType": "uint256",
          "name": "_penality",
          "type": "uint256"
        },
        {
          "internalType": "address",
          "name": "_collateral",
          "type": "address"
        }
      ],
      "name": "deposit",
      "outputs": [],
      "stateMutability": "nonpayable",
      "type": "function"
    }
  ],
  "bytecode": "0x60806040523480156200001157600080fd5b50604051620015d9380380620015d983398181016040528101906200003791906200017c565b620000576200004b6200008360201b60201c565b6200008b60201b60201c565b600180819055506200007560026200014f60201b620004181760201c565b8060048190555050620001d7565b600033905090565b60008060009054906101000a900473ffffffffffffffffffffffffffffffffffffffff169050816000806101000a81548173ffffffffffffffffffffffffffffffffffffffff021916908373ffffffffffffffffffffffffffffffffffffffff1602179055508173ffffffffffffffffffffffffffffffffffffffff168173ffffffffffffffffffffffffffffffffffffffff167f8be0079c531659141344cd1fd0a4f28419497f9722a3daafe3b4186f6b6457e060405160405180910390a35050565b6001816000016000828254019250508190555050565b6000815190506200017681620001bd565b92915050565b600060208284031215620001955762000194620001b8565b5b6000620001a58482850162000165565b91505092915050565b6000819050919050565b600080fd5b620001c881620001ae565b8114620001d457600080fd5b50565b6113f280620001e76000396000f3fe608060405234801561001057600080fd5b50600436106100625760003560e01c80631a4fe44814610067578063715018a6146100835780638990616d1461008d5780638da5cb5b146100a9578063e2bb0eb9146100c7578063f2fde38b146100f7575b600080fd5b610081600480360381019061007c9190610c70565b610113565b005b61008b610180565b005b6100a760048036038101906100a29190610c43565b610208565b005b6100b16102e5565b6040516100be9190610eca565b60405180910390f35b6100e160048036038101906100dc9190610c43565b61030e565b6040516100ee9190610f0e565b60405180910390f35b610111600480360381019061010c9190610c43565b610320565b005b60026001541415610159576040517f08c379a000000000000000000000000000000000000000000000000000000000815260040161015090611049565b60405180910390fd5b60026001819055506101708787878787878761042e565b6001808190555050505050505050565b610188610957565b73ffffffffffffffffffffffffffffffffffffffff166101a66102e5565b73ffffffffffffffffffffffffffffffffffffffff16146101fc576040517f08c379a00000000000000000000000000000000000000000000000000000000081526004016101f390610fc9565b60405180910390fd5b610206600061095f565b565b6002600154141561024e576040517f08c379a000000000000000000000000000000000000000000000000000000000815260040161024590611049565b60405180910390fd5b600260018190555061025e610957565b73ffffffffffffffffffffffffffffffffffffffff1661027c6102e5565b73ffffffffffffffffffffffffffffffffffffffff16146102d2576040517f08c379a00000000000000000000000000000000000000000000000000000000081526004016102c990610fc9565b60405180910390fd5b6102db81610a23565b6001808190555050565b60008060009054906101000a900473ffffffffffffffffffffffffffffffffffffffff16905090565b600061031982610b47565b9050919050565b610328610957565b73ffffffffffffffffffffffffffffffffffffffff166103466102e5565b73ffffffffffffffffffffffffffffffffffffffff161461039c576040517f08c379a000000000000000000000000000000000000000000000000000000000815260040161039390610fc9565b60405180910390fd5b600073ffffffffffffffffffffffffffffffffffffffff168173ffffffffffffffffffffffffffffffffffffffff16141561040c576040517f08c379a000000000000000000000000000000000000000000000000000000000815260040161040390610f49565b60405180910390fd5b6104158161095f565b50565b6001816000016000828254019250508190555050565b600073ffffffffffffffffffffffffffffffffffffffff168773ffffffffffffffffffffffffffffffffffffffff16141561049e576040517f08c379a000000000000000000000000000000000000000000000000000000000815260040161049590610f89565b60405180910390fd5b6104a786610b47565b6104e6576040517f08c379a00000000000000000000000000000000000000000000000000000000081526004016104dd90610f29565b60405180910390fd5b6104ef81610b47565b61052e576040517f08c379a000000000000000000000000000000000000000000000000000000000815260040161052590610fa9565b60405180910390fd5b848673ffffffffffffffffffffffffffffffffffffffff166370a08231896040518263ffffffff1660e01b81526004016105689190610eca565b60206040518083038186803b15801561058057600080fd5b505afa158015610594573d6000803e3d6000fd5b505050506040513d601f19601f820116820180604052508101906105b89190610d12565b10156105f9576040517f08c379a00000000000000000000000000000000000000000000000000000000081526004016105f090610f69565b60405180910390fd5b848673ffffffffffffffffffffffffffffffffffffffff1663dd62ed3e89306040518363ffffffff1660e01b8152600401610635929190610ee5565b60206040518083038186803b15801561064d57600080fd5b505afa158015610661573d6000803e3d6000fd5b505050506040513d601f19601f820116820180604052508101906106859190610d12565b10156106c6576040517f08c379a00000000000000000000000000000000000000000000000000000000081526004016106bd90611029565b60405180910390fd5b60008311610709576040517f08c379a000000000000000000000000000000000000000000000000000000000815260040161070090611009565b60405180910390fd5b60045482101561074e576040517f08c379a000000000000000000000000000000000000000000000000000000000815260040161074590610fe9565b60405180910390fd5b60006040518060e001604052808873ffffffffffffffffffffffffffffffffffffffff1681526020018781526020018781526020018681526020018581526020018481526020018373ffffffffffffffffffffffffffffffffffffffff16815250905080600560008a73ffffffffffffffffffffffffffffffffffffffff1673ffffffffffffffffffffffffffffffffffffffff16815260200190815260200160002060006107fd6002610bf6565b815260200190815260200160002060008201518160000160006101000a81548173ffffffffffffffffffffffffffffffffffffffff021916908373ffffffffffffffffffffffffffffffffffffffff1602179055506020820151816001015560408201518160020155606082015181600301556080820151816004015560a0820151816005015560c08201518160060160006101000a81548173ffffffffffffffffffffffffffffffffffffffff021916908373ffffffffffffffffffffffffffffffffffffffff1602179055509050508173ffffffffffffffffffffffffffffffffffffffff16868873ffffffffffffffffffffffffffffffffffffffff167f99cc276fa9efa26f26f0852dda6eb780eb64c04cd71505b7b82d70d7b44343e06109286002610bf6565b89898960405161093b9493929190611084565b60405180910390a461094d6002610418565b5050505050505050565b600033905090565b60008060009054906101000a900473ffffffffffffffffffffffffffffffffffffffff169050816000806101000a81548173ffffffffffffffffffffffffffffffffffffffff021916908373ffffffffffffffffffffffffffffffffffffffff1602179055508173ffffffffffffffffffffffffffffffffffffffff168173ffffffffffffffffffffffffffffffffffffffff167f8be0079c531659141344cd1fd0a4f28419497f9722a3daafe3b4186f6b6457e060405160405180910390a35050565b600073ffffffffffffffffffffffffffffffffffffffff168173ffffffffffffffffffffffffffffffffffffffff161415610a93576040517f08c379a0000000000000000000000000000000000000000000000000000000008152600401610a8a90610f89565b60405180910390fd5b6003819080600181540180825580915050600190039060005260206000200160009091909190916101000a81548173ffffffffffffffffffffffffffffffffffffffff021916908373ffffffffffffffffffffffffffffffffffffffff1602179055508073ffffffffffffffffffffffffffffffffffffffff167f1406601fca80ce2dde347c6c1c000309440d0365c2b5786f1608d7b1e76dd12d42604051610b3c9190611069565b60405180910390a250565b600080600090505b600380549050811015610beb578273ffffffffffffffffffffffffffffffffffffffff1660038281548110610b8757610b8661119a565b5b9060005260206000200160009054906101000a900473ffffffffffffffffffffffffffffffffffffffff1673ffffffffffffffffffffffffffffffffffffffff161415610bd8576001915050610bf1565b8080610be390611122565b915050610b4f565b50600090505b919050565b600081600001549050919050565b600081359050610c138161138e565b92915050565b600081359050610c28816113a5565b92915050565b600081519050610c3d816113a5565b92915050565b600060208284031215610c5957610c586111c9565b5b6000610c6784828501610c04565b91505092915050565b600080600080600080600060e0888a031215610c8f57610c8e6111c9565b5b6000610c9d8a828b01610c04565b9750506020610cae8a828b01610c04565b9650506040610cbf8a828b01610c19565b9550506060610cd08a828b01610c19565b9450506080610ce18a828b01610c19565b93505060a0610cf28a828b01610c19565b92505060c0610d038a828b01610c04565b91505092959891949750929550565b600060208284031215610d2857610d276111c9565b5b6000610d3684828501610c2e565b91505092915050565b610d48816110da565b82525050565b610d57816110ec565b82525050565b6000610d6a6011836110c9565b9150610d75826111ce565b602082019050919050565b6000610d8d6026836110c9565b9150610d98826111f7565b604082019050919050565b6000610db06010836110c9565b9150610dbb82611246565b602082019050919050565b6000610dd3600f836110c9565b9150610dde8261126f565b602082019050919050565b6000610df66016836110c9565b9150610e0182611298565b602082019050919050565b6000610e196020836110c9565b9150610e24826112c1565b602082019050919050565b6000610e3c601b836110c9565b9150610e47826112ea565b602082019050919050565b6000610e5f601b836110c9565b9150610e6a82611313565b602082019050919050565b6000610e826011836110c9565b9150610e8d8261133c565b602082019050919050565b6000610ea5601f836110c9565b9150610eb082611365565b602082019050919050565b610ec481611118565b82525050565b6000602082019050610edf6000830184610d3f565b92915050565b6000604082019050610efa6000830185610d3f565b610f076020830184610d3f565b9392505050565b6000602082019050610f236000830184610d4e565b92915050565b60006020820190508181036000830152610f4281610d5d565b9050919050565b60006020820190508181036000830152610f6281610d80565b9050919050565b60006020820190508181036000830152610f8281610da3565b9050919050565b60006020820190508181036000830152610fa281610dc6565b9050919050565b60006020820190508181036000830152610fc281610de9565b9050919050565b60006020820190508181036000830152610fe281610e0c565b9050919050565b6000602082019050818103600083015261100281610e2f565b9050919050565b6000602082019050818103600083015261102281610e52565b9050919050565b6000602082019050818103600083015261104281610e75565b9050919050565b6000602082019050818103600083015261106281610e98565b9050919050565b600060208201905061107e6000830184610ebb565b92915050565b60006080820190506110996000830187610ebb565b6110a66020830186610ebb565b6110b36040830185610ebb565b6110c06060830184610ebb565b95945050505050565b600082825260208201905092915050565b60006110e5826110f8565b9050919050565b60008115159050919050565b600073ffffffffffffffffffffffffffffffffffffffff82169050919050565b6000819050919050565b600061112d82611118565b91507fffffffffffffffffffffffffffffffffffffffffffffffffffffffffffffffff8214156111605761115f61116b565b5b600182019050919050565b7f4e487b7100000000000000000000000000000000000000000000000000000000600052601160045260246000fd5b7f4e487b7100000000000000000000000000000000000000000000000000000000600052603260045260246000fd5b600080fd5b7f617373657420646f6e277420666f756e64000000000000000000000000000000600082015250565b7f4f776e61626c653a206e6577206f776e657220697320746865207a65726f206160008201527f6464726573730000000000000000000000000000000000000000000000000000602082015250565b7f62616c616e63652075736572206c6f7700000000000000000000000000000000600082015250565b7f696e76616c696420616464726573730000000000000000000000000000000000600082015250565b7f636f6c6c61746572616c20646f6e277420666f756e6400000000000000000000600082015250565b7f4f776e61626c653a2063616c6c6572206973206e6f7420746865206f776e6572600082015250565b7f70656e616c697479206d75737420686176652067656174656520300000000000600082015250565b7f646561646c696e65206d75737420686176652067656174656520300000000000600082015250565b7f616c6f77616e63652075736572206c6f77000000000000000000000000000000600082015250565b7f5265656e7472616e637947756172643a207265656e7472616e742063616c6c00600082015250565b611397816110da565b81146113a257600080fd5b50565b6113ae81611118565b81146113b957600080fd5b5056fea264697066735822122054147a930eb87e75b63cb84868493a32d197e9f2823ecce3f92674ca4cf4c5f764736f6c63430008070033",
  "immutableReferences": {},
  "source": "// SPDX-License-Identifier: Leluk911\n\npragma solidity 0.8.7;\n\nimport \"../node_modules/@openzeppelin/contracts/token/ERC20/IERC20.sol\";\nimport \"../node_modules/@openzeppelin/contracts/access/Ownable.sol\";\nimport \"../node_modules/@openzeppelin/contracts/utils/Counters.sol\";\nimport \"../node_modules/@openzeppelin/contracts/security/ReentrancyGuard.sol\";\n\ncontract lendingPage is Ownable,ReentrancyGuard {\n    using Counters for Counters.Counter;\n    \n    \n    //function variable\n    Counters.Counter private Id; // id every lending contract\n    address[] private assetAvvalible; // asset add from Owner (only asset present in chainLink oracle)\n    uint private minPenality;\n    \n    // User\n    struct LendingContract {\n        address asset;\n        uint amount;\n        uint amountAvvalible;\n        uint apr;\n        uint deadline;\n        uint penality;\n        address collateral;\n    }\n    mapping(address => mapping(uint=>LendingContract)) private userLendingContract;\n\n\n\n    //-------------------------------//\n\n    constructor(uint _minpenality) Ownable() ReentrancyGuard(){\n        Id.increment();\n        minPenality = _minpenality;\n    }\n\n    // INTERNAL FUNCTION \n\n    function _setAssettAvvalible(address _newAsset) internal{\n        require(_newAsset != address(0), \"invalid address\");\n        assetAvvalible.push(_newAsset);\n        emit NewAssetAvvalible(_newAsset, block.timestamp);   \n    }\n\n    function _findAsset(address _asset) internal view returns(bool){\n        for(uint i = 0; i<assetAvvalible.length; i++){\n            if(assetAvvalible[i]==_asset){\n                return true;\n            }\n        }\n        return false;\n    }\n\n\n    function _deposit(address _to,address _asset,uint _amount,uint _apr,uint _deadline,uint _penality,address _collateral)internal {\n        //check\n        require(_to != address(0), \"invalid address\");\n        require(_findAsset(_asset),\"asset don't found\");\n        require(_findAsset(_collateral),\"collateral don't found\");\n        require(IERC20(_asset).balanceOf(_to) >= _amount,\"balance user low\");\n        require(IERC20(_asset).allowance(_to, address(this)) >= _amount,\"alowance user low\");\n        require(_deadline > 0,\"deadline must have geatee 0\");\n        require(_penality >=  minPenality,\"penality must have geatee 0\");\n        // prepare local variable\n        LendingContract memory newContract= LendingContract(\n            _asset,\n            _amount,\n            _amount,\n            _apr,\n            _deadline,\n            _penality,\n            _collateral\n        );\n        // update status global variable\n        userLendingContract[_to][Id.current()] = newContract;\n        emit NewContractDeposit(\n            Id.current(),_asset,_amount,_apr,_deadline,_penality, _collateral\n        );\n        Id.increment();\n\n\n    }\n\n    function _findContractLending(address _to,uint _id)internal view returns(LendingContract memory){\n        return userLendingContract[_to][_id];\n    }\n\n\n    // EVENT \n\n     event NewAssetAvvalible(address indexed asset, uint timeStart);\n     event NewContractDeposit(\n        uint Id,\n        address indexed asset,\n        uint indexed amount,\n        uint apr,\n        uint  deadline,\n        uint  penality,\n        address indexed collateral\n     );\n\n\n\n    // EXTERNAL FUNCTION\n    function setAssettAvvalible(address _newAsset) external nonReentrant() onlyOwner() {\n        _setAssettAvvalible(_newAsset);\n    } \n\n    function findAsset(address _asset) external view returns(bool){\n        return _findAsset(_asset);\n    }\n\n    function deposit(address _to,address _asset,uint _amount,uint _apr,uint _deadline,uint _penality,address _collateral) external nonReentrant() {\n        _deposit(_to, _asset, _amount, _apr, _deadline, _penality, _collateral);\n    }\n\n\n\n    \n}\n\n\n/**\n nonReentrant()\n onlyOwner()\n \n \n \n */\n",
  "sourcePath": "/media/leluk/storage/Studio Dev/Dapp portfolio/individual lending/contracts/Individual_lending.sol",
  "compiler": {
    "name": "solc",
    "version": "0.8.7+commit.e28d00a7.Emscripten.clang"
  },
  "schemaVersion": "3.4.7",
  "updatedAt": "2022-06-15T21:26:50.746Z",
  "networkType": "ethereum",
  "devdoc": {
    "kind": "dev",
    "methods": {
      "owner()": {
        "details": "Returns the address of the current owner."
      },
      "renounceOwnership()": {
        "details": "Leaves the contract without owner. It will not be possible to call `onlyOwner` functions anymore. Can only be called by the current owner. NOTE: Renouncing ownership will leave the contract without an owner, thereby removing any functionality that is only available to the owner."
      },
      "transferOwnership(address)": {
        "details": "Transfers ownership of the contract to a new account (`newOwner`). Can only be called by the current owner."
      }
    },
    "version": 1
  },
  "userdoc": {
    "kind": "user",
    "methods": {},
    "version": 1
  }
}