{
  "contractName": "lendingPage",
  "abi": [
    {
      "inputs": [
        {
          "internalType": "uint256",
          "name": "_minpenality",
          "type": "uint256"
        }
      ],
      "stateMutability": "nonpayable",
      "type": "constructor"
    },
    {
      "anonymous": false,
      "inputs": [
        {
          "indexed": true,
          "internalType": "address",
          "name": "Borrower",
          "type": "address"
        },
        {
          "indexed": true,
          "internalType": "uint256",
          "name": "Id_Contract",
          "type": "uint256"
        },
        {
          "indexed": false,
          "internalType": "uint256",
          "name": "amount",
          "type": "uint256"
        }
      ],
      "name": "Borrow",
      "type": "event"
    },
    {
      "anonymous": false,
      "inputs": [
        {
          "indexed": false,
          "internalType": "uint256",
          "name": "Id",
          "type": "uint256"
        },
        {
          "indexed": true,
          "internalType": "uint256",
          "name": "amount",
          "type": "uint256"
        },
        {
          "indexed": true,
          "internalType": "uint256",
          "name": "newAmount",
          "type": "uint256"
        }
      ],
      "name": "DecreasContractDeposit",
      "type": "event"
    },
    {
      "anonymous": false,
      "inputs": [
        {
          "indexed": true,
          "internalType": "address",
          "name": "owner",
          "type": "address"
        },
        {
          "indexed": true,
          "internalType": "uint256",
          "name": "id",
          "type": "uint256"
        }
      ],
      "name": "DeleteContractDeposit",
      "type": "event"
    },
    {
      "anonymous": false,
      "inputs": [
        {
          "indexed": false,
          "internalType": "uint256",
          "name": "Id",
          "type": "uint256"
        },
        {
          "indexed": true,
          "internalType": "uint256",
          "name": "amount",
          "type": "uint256"
        },
        {
          "indexed": true,
          "internalType": "uint256",
          "name": "newAmount",
          "type": "uint256"
        }
      ],
      "name": "IncreasContractDeposit",
      "type": "event"
    },
    {
      "anonymous": false,
      "inputs": [
        {
          "indexed": true,
          "internalType": "uint256",
          "name": "_idContract",
          "type": "uint256"
        },
        {
          "indexed": true,
          "internalType": "uint256",
          "name": "_idBorrow",
          "type": "uint256"
        },
        {
          "indexed": false,
          "internalType": "address",
          "name": "assetsLiquidate",
          "type": "address"
        },
        {
          "indexed": false,
          "internalType": "uint256",
          "name": "amount",
          "type": "uint256"
        }
      ],
      "name": "LiquidationCall",
      "type": "event"
    },
    {
      "anonymous": false,
      "inputs": [
        {
          "indexed": true,
          "internalType": "address",
          "name": "asset",
          "type": "address"
        },
        {
          "indexed": false,
          "internalType": "uint256",
          "name": "timeStart",
          "type": "uint256"
        }
      ],
      "name": "NewAssetAvvalible",
      "type": "event"
    },
    {
      "anonymous": false,
      "inputs": [
        {
          "indexed": false,
          "internalType": "uint256",
          "name": "Id",
          "type": "uint256"
        },
        {
          "indexed": true,
          "internalType": "address",
          "name": "owner",
          "type": "address"
        },
        {
          "indexed": true,
          "internalType": "address",
          "name": "asset",
          "type": "address"
        },
        {
          "indexed": false,
          "internalType": "uint256",
          "name": "amount",
          "type": "uint256"
        },
        {
          "indexed": false,
          "internalType": "uint256",
          "name": "apr",
          "type": "uint256"
        },
        {
          "indexed": false,
          "internalType": "uint256",
          "name": "deadline",
          "type": "uint256"
        },
        {
          "indexed": false,
          "internalType": "uint256",
          "name": "penality",
          "type": "uint256"
        },
        {
          "indexed": true,
          "internalType": "address",
          "name": "collateral",
          "type": "address"
        }
      ],
      "name": "NewContractDeposit",
      "type": "event"
    },
    {
      "anonymous": false,
      "inputs": [
        {
          "indexed": true,
          "internalType": "address",
          "name": "previousOwner",
          "type": "address"
        },
        {
          "indexed": true,
          "internalType": "address",
          "name": "newOwner",
          "type": "address"
        }
      ],
      "name": "OwnershipTransferred",
      "type": "event"
    },
    {
      "anonymous": false,
      "inputs": [
        {
          "indexed": true,
          "internalType": "uint256",
          "name": "_idContract",
          "type": "uint256"
        },
        {
          "indexed": true,
          "internalType": "address",
          "name": "collateral",
          "type": "address"
        },
        {
          "indexed": false,
          "internalType": "uint256",
          "name": "amount",
          "type": "uint256"
        }
      ],
      "name": "RecoveryCredit",
      "type": "event"
    },
    {
      "anonymous": false,
      "inputs": [
        {
          "indexed": true,
          "internalType": "uint256",
          "name": "_idContract",
          "type": "uint256"
        },
        {
          "indexed": true,
          "internalType": "address",
          "name": "collateral",
          "type": "address"
        },
        {
          "indexed": false,
          "internalType": "uint256",
          "name": "amount",
          "type": "uint256"
        }
      ],
      "name": "RecoverySingleCredit",
      "type": "event"
    },
    {
      "anonymous": false,
      "inputs": [
        {
          "indexed": true,
          "internalType": "address",
          "name": "_to",
          "type": "address"
        },
        {
          "indexed": true,
          "internalType": "uint256",
          "name": "_idContract",
          "type": "uint256"
        },
        {
          "indexed": true,
          "internalType": "address",
          "name": "collateral",
          "type": "address"
        },
        {
          "indexed": false,
          "internalType": "uint256",
          "name": "amount",
          "type": "uint256"
        }
      ],
      "name": "WidrowCredit",
      "type": "event"
    },
    {
      "anonymous": false,
      "inputs": [
        {
          "indexed": true,
          "internalType": "address",
          "name": "_to",
          "type": "address"
        },
        {
          "indexed": true,
          "internalType": "uint256",
          "name": "_idContract",
          "type": "uint256"
        },
        {
          "indexed": false,
          "internalType": "uint256",
          "name": "_amount",
          "type": "uint256"
        }
      ],
      "name": "applyPenality",
      "type": "event"
    },
    {
      "anonymous": false,
      "inputs": [
        {
          "indexed": true,
          "internalType": "uint256",
          "name": "_idContract",
          "type": "uint256"
        },
        {
          "indexed": true,
          "internalType": "uint256",
          "name": "_timeIncreas",
          "type": "uint256"
        }
      ],
      "name": "newTimeExpireDecreas",
      "type": "event"
    },
    {
      "anonymous": false,
      "inputs": [
        {
          "indexed": true,
          "internalType": "uint256",
          "name": "_idContract",
          "type": "uint256"
        },
        {
          "indexed": true,
          "internalType": "uint256",
          "name": "_timeIncreas",
          "type": "uint256"
        }
      ],
      "name": "newTimeExpireIncreas",
      "type": "event"
    },
    {
      "anonymous": false,
      "inputs": [
        {
          "indexed": true,
          "internalType": "address",
          "name": "_to",
          "type": "address"
        },
        {
          "indexed": true,
          "internalType": "uint256",
          "name": "_idContract",
          "type": "uint256"
        },
        {
          "indexed": false,
          "internalType": "uint256",
          "name": "_amount",
          "type": "uint256"
        }
      ],
      "name": "repay",
      "type": "event"
    },
    {
      "anonymous": false,
      "inputs": [
        {
          "indexed": true,
          "internalType": "address",
          "name": "asset",
          "type": "address"
        },
        {
          "indexed": false,
          "internalType": "uint256",
          "name": "amount",
          "type": "uint256"
        }
      ],
      "name": "widrowFeeEvent",
      "type": "event"
    },
    {
      "anonymous": false,
      "inputs": [
        {
          "indexed": false,
          "internalType": "uint256",
          "name": "_amount",
          "type": "uint256"
        },
        {
          "indexed": true,
          "internalType": "address",
          "name": "_asset",
          "type": "address"
        },
        {
          "indexed": true,
          "internalType": "uint256",
          "name": "_idContract",
          "type": "uint256"
        }
      ],
      "name": "widrwCollateralLoan",
      "type": "event"
    },
    {
      "inputs": [
        {
          "internalType": "address",
          "name": "_asset",
          "type": "address"
        },
        {
          "internalType": "address",
          "name": "_addressPriceFeed",
          "type": "address"
        }
      ],
      "name": "addAddressPriceeFeed",
      "outputs": [],
      "stateMutability": "nonpayable",
      "type": "function"
    },
    {
      "inputs": [
        {
          "internalType": "address",
          "name": "_priceFeed",
          "type": "address"
        }
      ],
      "name": "getLatestPrice",
      "outputs": [
        {
          "internalType": "int256",
          "name": "",
          "type": "int256"
        }
      ],
      "stateMutability": "view",
      "type": "function"
    },
    {
      "inputs": [],
      "name": "owner",
      "outputs": [
        {
          "internalType": "address",
          "name": "",
          "type": "address"
        }
      ],
      "stateMutability": "view",
      "type": "function"
    },
    {
      "inputs": [],
      "name": "renounceOwnership",
      "outputs": [],
      "stateMutability": "nonpayable",
      "type": "function"
    },
    {
      "inputs": [
        {
          "internalType": "address",
          "name": "newOwner",
          "type": "address"
        }
      ],
      "name": "transferOwnership",
      "outputs": [],
      "stateMutability": "nonpayable",
      "type": "function"
    },
    {
      "inputs": [
        {
          "internalType": "address",
          "name": "_asset",
          "type": "address"
        }
      ],
      "name": "widrowFeeContract",
      "outputs": [],
      "stateMutability": "nonpayable",
      "type": "function"
    },
    {
      "inputs": [
        {
          "internalType": "address",
          "name": "_newAsset",
          "type": "address"
        }
      ],
      "name": "setAssettAvvalible",
      "outputs": [],
      "stateMutability": "nonpayable",
      "type": "function"
    },
    {
      "inputs": [
        {
          "internalType": "address",
          "name": "_asset",
          "type": "address"
        }
      ],
      "name": "findAsset",
      "outputs": [
        {
          "internalType": "bool",
          "name": "",
          "type": "bool"
        }
      ],
      "stateMutability": "view",
      "type": "function"
    },
    {
      "inputs": [
        {
          "internalType": "address",
          "name": "_asset",
          "type": "address"
        },
        {
          "internalType": "uint256",
          "name": "_amount",
          "type": "uint256"
        },
        {
          "internalType": "uint256",
          "name": "_apr",
          "type": "uint256"
        },
        {
          "internalType": "uint256",
          "name": "_deadline",
          "type": "uint256"
        },
        {
          "internalType": "uint256",
          "name": "_penality",
          "type": "uint256"
        },
        {
          "internalType": "address",
          "name": "_collateral",
          "type": "address"
        },
        {
          "internalType": "uint256",
          "name": "_rateCollateral",
          "type": "uint256"
        }
      ],
      "name": "deposit",
      "outputs": [],
      "stateMutability": "nonpayable",
      "type": "function"
    },
    {
      "inputs": [
        {
          "internalType": "address",
          "name": "_user",
          "type": "address"
        }
      ],
      "name": "listContractXuser",
      "outputs": [
        {
          "internalType": "uint256[]",
          "name": "",
          "type": "uint256[]"
        }
      ],
      "stateMutability": "view",
      "type": "function"
    },
    {
      "inputs": [],
      "name": "getAssettAvvalible",
      "outputs": [
        {
          "internalType": "address[]",
          "name": "",
          "type": "address[]"
        }
      ],
      "stateMutability": "view",
      "type": "function"
    },
    {
      "inputs": [
        {
          "internalType": "address",
          "name": "_to",
          "type": "address"
        },
        {
          "internalType": "uint256",
          "name": "_id",
          "type": "uint256"
        }
      ],
      "name": "findContractLending",
      "outputs": [
        {
          "components": [
            {
              "internalType": "uint256",
              "name": "id",
              "type": "uint256"
            },
            {
              "internalType": "address",
              "name": "owner",
              "type": "address"
            },
            {
              "internalType": "bool",
              "name": "lock",
              "type": "bool"
            },
            {
              "internalType": "address",
              "name": "asset",
              "type": "address"
            },
            {
              "internalType": "uint256",
              "name": "amountAvvalible",
              "type": "uint256"
            },
            {
              "internalType": "uint256",
              "name": "apr",
              "type": "uint256"
            },
            {
              "internalType": "uint256",
              "name": "duration",
              "type": "uint256"
            },
            {
              "internalType": "uint256",
              "name": "penality",
              "type": "uint256"
            },
            {
              "internalType": "address",
              "name": "collateral",
              "type": "address"
            },
            {
              "internalType": "uint256",
              "name": "amountBorrow",
              "type": "uint256"
            },
            {
              "internalType": "uint256",
              "name": "rateCollateral",
              "type": "uint256"
            },
            {
              "internalType": "uint256",
              "name": "amountCollateral",
              "type": "uint256"
            }
          ],
          "internalType": "struct Storage.LendingContract",
          "name": "",
          "type": "tuple"
        }
      ],
      "stateMutability": "view",
      "type": "function"
    },
    {
      "inputs": [
        {
          "internalType": "uint256",
          "name": "_idContract",
          "type": "uint256"
        },
        {
          "internalType": "uint256",
          "name": "_increasAmount",
          "type": "uint256"
        }
      ],
      "name": "increasDeposit",
      "outputs": [],
      "stateMutability": "nonpayable",
      "type": "function"
    },
    {
      "inputs": [
        {
          "internalType": "uint256",
          "name": "_idContract",
          "type": "uint256"
        },
        {
          "internalType": "uint256",
          "name": "_decreasAmount",
          "type": "uint256"
        }
      ],
      "name": "decreasDeposit",
      "outputs": [],
      "stateMutability": "nonpayable",
      "type": "function"
    },
    {
      "inputs": [
        {
          "internalType": "uint256",
          "name": "_idContract",
          "type": "uint256"
        }
      ],
      "name": "deleteContract",
      "outputs": [],
      "stateMutability": "nonpayable",
      "type": "function"
    },
    {
      "inputs": [
        {
          "internalType": "uint256",
          "name": "_idContract",
          "type": "uint256"
        },
        {
          "internalType": "address",
          "name": "_lender",
          "type": "address"
        },
        {
          "internalType": "uint256",
          "name": "_amountBorrow",
          "type": "uint256"
        },
        {
          "internalType": "address",
          "name": "_assettCollateral",
          "type": "address"
        },
        {
          "internalType": "uint256",
          "name": "_amountCollateral",
          "type": "uint256"
        }
      ],
      "name": "executeBorrow",
      "outputs": [],
      "stateMutability": "nonpayable",
      "type": "function"
    },
    {
      "inputs": [
        {
          "internalType": "uint256",
          "name": "_idContract",
          "type": "uint256"
        },
        {
          "internalType": "address",
          "name": "_borrower",
          "type": "address"
        }
      ],
      "name": "serchBorrowerPositionXContract",
      "outputs": [
        {
          "components": [
            {
              "internalType": "address",
              "name": "owner",
              "type": "address"
            },
            {
              "internalType": "uint256",
              "name": "idContract",
              "type": "uint256"
            },
            {
              "internalType": "address",
              "name": "assetBorrow",
              "type": "address"
            },
            {
              "internalType": "uint256",
              "name": "ammounBorrow",
              "type": "uint256"
            },
            {
              "internalType": "address",
              "name": "assetCollaterl",
              "type": "address"
            },
            {
              "internalType": "uint256",
              "name": "amountCollateral",
              "type": "uint256"
            },
            {
              "internalType": "uint256",
              "name": "liquidationThreshold",
              "type": "uint256"
            },
            {
              "internalType": "uint256",
              "name": "expiration",
              "type": "uint256"
            },
            {
              "internalType": "uint256",
              "name": "blockStart",
              "type": "uint256"
            },
            {
              "internalType": "uint256",
              "name": "aprLoan",
              "type": "uint256"
            },
            {
              "internalType": "address",
              "name": "lender",
              "type": "address"
            }
          ],
          "internalType": "struct Storage.Borrower",
          "name": "",
          "type": "tuple"
        }
      ],
      "stateMutability": "view",
      "type": "function"
    },
    {
      "inputs": [
        {
          "internalType": "uint256",
          "name": "_idContract",
          "type": "uint256"
        },
        {
          "internalType": "address",
          "name": "_borrower",
          "type": "address"
        }
      ],
      "name": "serchIndexBorrowerXContract",
      "outputs": [
        {
          "internalType": "uint256",
          "name": "",
          "type": "uint256"
        }
      ],
      "stateMutability": "view",
      "type": "function"
    },
    {
      "inputs": [
        {
          "internalType": "address",
          "name": "_to",
          "type": "address"
        },
        {
          "internalType": "uint256",
          "name": "_idContract",
          "type": "uint256"
        },
        {
          "internalType": "bool",
          "name": "_lock",
          "type": "bool"
        }
      ],
      "name": "lockNewBorrow",
      "outputs": [],
      "stateMutability": "nonpayable",
      "type": "function"
    },
    {
      "inputs": [
        {
          "internalType": "address",
          "name": "_borrower",
          "type": "address"
        },
        {
          "internalType": "uint256",
          "name": "_idContract",
          "type": "uint256"
        }
      ],
      "name": "viewAmountLoan",
      "outputs": [
        {
          "internalType": "uint256",
          "name": "loanCompouse",
          "type": "uint256"
        }
      ],
      "stateMutability": "view",
      "type": "function"
    },
    {
      "inputs": [
        {
          "internalType": "uint256",
          "name": "_idContract",
          "type": "uint256"
        },
        {
          "internalType": "uint256",
          "name": "_amount",
          "type": "uint256"
        }
      ],
      "name": "executeRepay",
      "outputs": [],
      "stateMutability": "nonpayable",
      "type": "function"
    },
    {
      "inputs": [
        {
          "internalType": "uint256",
          "name": "_idContract",
          "type": "uint256"
        },
        {
          "internalType": "uint256",
          "name": "_timeIncreas",
          "type": "uint256"
        }
      ],
      "name": "increaseTimeExpire",
      "outputs": [],
      "stateMutability": "nonpayable",
      "type": "function"
    },
    {
      "inputs": [
        {
          "internalType": "uint256",
          "name": "_idContract",
          "type": "uint256"
        },
        {
          "internalType": "uint256",
          "name": "_timeIncreas",
          "type": "uint256"
        }
      ],
      "name": "decreaseTimeExpire",
      "outputs": [],
      "stateMutability": "nonpayable",
      "type": "function"
    },
    {
      "inputs": [
        {
          "internalType": "uint256",
          "name": "_idContract",
          "type": "uint256"
        },
        {
          "internalType": "uint256",
          "name": "_idBorrow",
          "type": "uint256"
        }
      ],
      "name": "liquidationCall",
      "outputs": [],
      "stateMutability": "nonpayable",
      "type": "function"
    },
    {
      "inputs": [
        {
          "internalType": "uint256",
          "name": "_idContract",
          "type": "uint256"
        }
      ],
      "name": "widrowCreditExpire",
      "outputs": [],
      "stateMutability": "nonpayable",
      "type": "function"
    },
    {
      "inputs": [
        {
          "internalType": "uint256",
          "name": "_idContract",
          "type": "uint256"
        }
      ],
      "name": "recoverCreditsExpired",
      "outputs": [],
      "stateMutability": "nonpayable",
      "type": "function"
    },
    {
      "inputs": [
        {
          "internalType": "uint256",
          "name": "_idContract",
          "type": "uint256"
        },
        {
          "internalType": "uint256",
          "name": "_idBorrow",
          "type": "uint256"
        }
      ],
      "name": "recoverSingleCreditExpired",
      "outputs": [],
      "stateMutability": "nonpayable",
      "type": "function"
    }
  ],
  "bytecode": "0x60806040523480156200001157600080fd5b5060405162005879380380620058798339810160408190526200003491620000c2565b6200003f3362000067565b6001600b819055506200005e6007620000b960201b62000dcd1760201c565b600155620000dc565b600a80546001600160a01b038381166001600160a01b0319831681179093556040519116919082907f8be0079c531659141344cd1fd0a4f28419497f9722a3daafe3b4186f6b6457e090600090a35050565b80546001019055565b600060208284031215620000d557600080fd5b5051919050565b61578d80620000ec6000396000f3fe608060405234801561001057600080fd5b50600436106101b95760003560e01c80638990616d116100f9578063e1e3769b11610097578063e619515811610071578063e6195158146103be578063f2fde38b146103d1578063f4163f21146103e4578063facd53ff146103f757600080fd5b8063e1e3769b14610368578063e236b6f01461037b578063e2bb0eb91461039b57600080fd5b8063a54bbcb7116100d3578063a54bbcb71461030f578063aa6741491461032f578063b48477dc14610342578063dc6274081461035557600080fd5b80638990616d146102ce5780638da5cb5b146102e15780639c467d3a146102fc57600080fd5b806347087215116101665780636f25b8f6116101405780636f25b8f61461028b578063715018a61461029e578063726adaa4146102a65780637cb6f38f146102bb57600080fd5b806347087215146102525780636893d336146102655780636a0556e21461027857600080fd5b806316345f181161019757806316345f181461020c57806319dda45c1461021f578063460e90d01461023257600080fd5b806308dde662146101be5780630f901860146101e45780631392ed75146101f9575b600080fd5b6101d16101cc36600461526a565b61040a565b6040519081526020015b60405180910390f35b6101f76101f236600461521c565b610447565b005b6101f76102073660046152d4565b6104fd565b6101d161021a36600461521c565b610561565b6101f761022d3660046153f7565b6105e7565b61024561024036600461521c565b610641565b6040516101db91906154b6565b6101f76102603660046153f7565b610652565b6101f7610273366004615354565b6106a3565b6101f76102863660046153f7565b6106f3565b6101f76102993660046153a9565b610744565b6101f76107a4565b6102ae61080a565b6040516101db9190615469565b6101f76102c93660046153f7565b610819565b6101f76102dc36600461521c565b61086a565b600a546040516001600160a01b0390911681526020016101db565b6101f761030a366004615354565b61095e565b61032261031d366004615386565b6109ae565b6040516101db91906154ee565b6101f761033d366004615294565b610a39565b6101f76103503660046153f7565b610a94565b6101f7610363366004615354565b610ae5565b6101d1610376366004615386565b610b35565b61038e61038936600461526a565b610b4b565b6040516101db919061559b565b6103ae6103a936600461521c565b610bd6565b60405190151581526020016101db565b6101f76103cc3660046153f7565b610be1565b6101f76103df36600461521c565b610c32565b6101f76103f23660046153f7565b610d14565b6101f7610405366004615237565b610d65565b60006104406104198385610dd6565b606001516104278486610dd6565b61012001516104368587610dd6565b6101000151611004565b9392505050565b600a546001600160a01b031633146104a65760405162461bcd60e51b815260206004820181905260248201527f4f776e61626c653a2063616c6c6572206973206e6f7420746865206f776e657260448201526064015b60405180910390fd5b6002600b5414156104e75760405162461bcd60e51b815260206004820152601f6024820152600080516020615738833981519152604482015260640161049d565b6002600b556104f58161106c565b506001600b55565b6002600b54141561053e5760405162461bcd60e51b815260206004820152601f6024820152600080516020615738833981519152604482015260640161049d565b6002600b556105533388888888888888611181565b50506001600b555050505050565b6000808290506000816001600160a01b031663feaf968c6040518163ffffffff1660e01b815260040160a06040518083038186803b1580156105a257600080fd5b505afa1580156105b6573d6000803e3d6000fd5b505050506040513d601f19601f820116820180604052508101906105da9190615419565b5091979650505050505050565b6002600b5414156106285760405162461bcd60e51b815260206004820152601f6024820152600080516020615738833981519152604482015260640161049d565b6002600b55610638338383611907565b50506001600b55565b606061064c82611cb5565b92915050565b6002600b5414156106935760405162461bcd60e51b815260206004820152601f6024820152600080516020615738833981519152604482015260640161049d565b6002600b55610638338383611d21565b6002600b5414156106e45760405162461bcd60e51b815260206004820152601f6024820152600080516020615738833981519152604482015260640161049d565b6002600b556104f53382611f7e565b6002600b5414156107345760405162461bcd60e51b815260206004820152601f6024820152600080516020615738833981519152604482015260640161049d565b6002600b556106383383836123c5565b6002600b5414156107855760405162461bcd60e51b815260206004820152601f6024820152600080516020615738833981519152604482015260640161049d565b6002600b556107983386868686866126cb565b50506001600b55505050565b600a546001600160a01b031633146107fe5760405162461bcd60e51b815260206004820181905260248201527f4f776e61626c653a2063616c6c6572206973206e6f7420746865206f776e6572604482015260640161049d565b61080860006129bf565b565b6060610814612a11565b905090565b6002600b54141561085a5760405162461bcd60e51b815260206004820152601f6024820152600080516020615738833981519152604482015260640161049d565b6002600b55610638338383612a73565b6002600b5414156108ab5760405162461bcd60e51b815260206004820152601f6024820152600080516020615738833981519152604482015260640161049d565b6002600b55600a546001600160a01b0316331461090a5760405162461bcd60e51b815260206004820181905260248201527f4f776e61626c653a2063616c6c6572206973206e6f7420746865206f776e6572604482015260640161049d565b61091381612ba6565b806001600160a01b03167f1406601fca80ce2dde347c6c1c000309440d0365c2b5786f1608d7b1e76dd12d4260405161094e91815260200190565b60405180910390a2506001600b55565b6002600b54141561099f5760405162461bcd60e51b815260206004820152601f6024820152600080516020615738833981519152604482015260640161049d565b6002600b556104f53382612ca1565b610a2f60405180610160016040528060006001600160a01b031681526020016000815260200160006001600160a01b031681526020016000815260200160006001600160a01b03168152602001600081526020016000815260200160008152602001600081526020016000815260200160006001600160a01b031681525090565b6104408383610dd6565b6002600b541415610a7a5760405162461bcd60e51b815260206004820152601f6024820152600080516020615738833981519152604482015260640161049d565b6002600b55610a8a838383612e32565b50506001600b5550565b6002600b541415610ad55760405162461bcd60e51b815260206004820152601f6024820152600080516020615738833981519152604482015260640161049d565b6002600b55610638338383612efb565b6002600b541415610b265760405162461bcd60e51b815260206004820152601f6024820152600080516020615738833981519152604482015260640161049d565b6002600b556104f5338261351c565b600080610b428484613721565b95945050505050565b610bcc6040518061018001604052806000815260200160006001600160a01b0316815260200160001515815260200160006001600160a01b031681526020016000815260200160008152602001600081526020016000815260200160006001600160a01b031681526020016000815260200160008152602001600081525090565b61044083836137b6565b600061064c826138f1565b6002600b541415610c225760405162461bcd60e51b815260206004820152601f6024820152600080516020615738833981519152604482015260640161049d565b6002600b5561063833838361395b565b600a546001600160a01b03163314610c8c5760405162461bcd60e51b815260206004820181905260248201527f4f776e61626c653a2063616c6c6572206973206e6f7420746865206f776e6572604482015260640161049d565b6001600160a01b038116610d085760405162461bcd60e51b815260206004820152602660248201527f4f776e61626c653a206e6577206f776e657220697320746865207a65726f206160448201527f6464726573730000000000000000000000000000000000000000000000000000606482015260840161049d565b610d11816129bf565b50565b6002600b541415610d555760405162461bcd60e51b815260206004820152601f6024820152600080516020615738833981519152604482015260640161049d565b6002600b55610638338383613a34565b600a546001600160a01b03163314610dbf5760405162461bcd60e51b815260206004820181905260248201527f4f776e61626c653a2063616c6c6572206973206e6f7420746865206f776e6572604482015260640161049d565b610dc98282613b0d565b5050565b80546001019055565b610e5760405180610160016040528060006001600160a01b031681526020016000815260200160006001600160a01b031681526020016000815260200160006001600160a01b03168152602001600081526020016000815260200160008152602001600081526020016000815260200160006001600160a01b031681525090565b60005b600084815260066020526040902054811015610f9557600084815260066020526040902080546001600160a01b038516919083908110610e9c57610e9c615713565b60009182526020909120600b90910201546001600160a01b03161415610f83576000848152600660205260409020805482908110610edc57610edc615713565b60009182526020918290206040805161016081018252600b90930290910180546001600160a01b039081168452600182015494840194909452600281015484169183019190915260038101546060830152600481015483166080830152600581015460a0830152600681015460c0830152600781015460e083015260088101546101008301526009810154610120830152600a0154909116610140820152915061064c9050565b80610f8d816156cc565b915050610e5a565b5060405162461bcd60e51b815260206004820152602660248201527f426f72726f77657220666f72207468697320636f6e7472616374206e6f74207060448201527f726573656e740000000000000000000000000000000000000000000000000000606482015260840161049d565b60008061101183426156b5565b9050600063bbf81e00826110258789615696565b61102f9190615696565b6110399190615674565b611043908761565c565b61104e90600161565c565b90506001811161106357600092505050610440565b91506104409050565b6001600160a01b038116600081815260086020526040812080549190559063a9059cbb6110a1600a546001600160a01b031690565b6040517fffffffff0000000000000000000000000000000000000000000000000000000060e084901b1681526001600160a01b03909116600482015260248101849052604401602060405180830381600087803b15801561110157600080fd5b505af1158015611115573d6000803e3d6000fd5b505050506040513d601f19601f820116820180604052508101906111399190615337565b50816001600160a01b03167fb5421d97828b089e7660952a6dbdd122d3dde17a9629a0f6218fd9cc08885b858260405161117591815260200190565b60405180910390a25050565b6001600160a01b0388166111d75760405162461bcd60e51b815260206004820152600f60248201527f696e76616c696420616464726573730000000000000000000000000000000000604482015260640161049d565b816001600160a01b0316876001600160a01b031614156112395760405162461bcd60e51b815260206004820152601460248201527f636f6c6c61746572616c206e6f742076616c6964000000000000000000000000604482015260640161049d565b611242876138f1565b61128e5760405162461bcd60e51b815260206004820152601160248201527f617373657420646f6e277420666f756e64000000000000000000000000000000604482015260640161049d565b6001600160a01b03878116600090815260096020526040902054166113415760405162461bcd60e51b815260206004820152604860248201527f5072696365666565642061646472657373206d6973732c207768616974206f7760448201527f6e65722073657420616464726573732070726963654665656420666f7220746860648201527f6973206173736574000000000000000000000000000000000000000000000000608482015260a40161049d565b61134a826138f1565b6113965760405162461bcd60e51b815260206004820152601660248201527f636f6c6c61746572616c20646f6e277420666f756e6400000000000000000000604482015260640161049d565b6040516370a0823160e01b81526001600160a01b0389811660048301528791908916906370a082319060240160206040518083038186803b1580156113da57600080fd5b505afa1580156113ee573d6000803e3d6000fd5b505050506040513d601f19601f82011682018060405250810190611412919061536d565b10156114605760405162461bcd60e51b815260206004820152601060248201527f62616c616e63652075736572206c6f7700000000000000000000000000000000604482015260640161049d565b604051636eb1769f60e11b81526001600160a01b03898116600483015230602483015287919089169063dd62ed3e9060440160206040518083038186803b1580156114aa57600080fd5b505afa1580156114be573d6000803e3d6000fd5b505050506040513d601f19601f820116820180604052508101906114e2919061536d565b10156115305760405162461bcd60e51b815260206004820152601160248201527f616c6f77616e63652075736572206c6f77000000000000000000000000000000604482015260640161049d565b600084116115805760405162461bcd60e51b815260206004820152601b60248201527f646561646c696e65206d75737420686176652067656174656520300000000000604482015260640161049d565b6001548310156115d25760405162461bcd60e51b815260206004820152601a60248201527f70656e616c697479206d75737420686176652067656174652030000000000000604482015260640161049d565b6040516323b872dd60e01b81526001600160a01b038981166004830152306024830152604482018890528816906323b872dd90606401602060405180830381600087803b15801561162257600080fd5b505af1158015611636573d6000803e3d6000fd5b505050506040513d601f19601f8201168201806040525081019061165a9190615337565b50600061271061166b88600a615696565b6116759190615674565b61168090600161565c565b6001600160a01b0389166000908152600860205260408120805492935083929091906116ad90849061565c565b9250508190555060006040518061018001604052806116cb60075490565b81526001600160a01b03808d166020830152600060408301528b1660608201526080016116f8848b6156b5565b8152602001888152602001878152602001868152602001856001600160a01b03168152602001600081526020018481526020016000815250905080600260008c6001600160a01b03166001600160a01b03168152602001908152602001600020600061176360075490565b815260208082019290925260409081016000208351815591830151600183018054928501511515600160a01b0274ffffffffffffffffffffffffffffffffffffffffff199093166001600160a01b03928316179290921790915560608301516002830180549183166001600160a01b03199283161790556080840151600384015560a0840151600484015560c0840151600584015560e084015160068401556101008401516007808501805492851692909316919091179091556101208401516008840155610140840151600984015561016090930151600a90920191909155858116918b8216918d16907f73ccc975565e11201f9228f86b04c2090d856488dd73ce7f1b63b9609708ee4790611878905490565b60408051918252602082018e905281018c9052606081018b9052608081018a905260a00160405180910390a46001600160a01b038a166000908152600360209081526040822060078054825460018101845592855292909320015554600490815460018101835560009283526020909220909101556118fb600780546001019055565b50505050505050505050565b8282816001600160a01b031661191d83836137b6565b602001516001600160a01b0316146119715760405162461bcd60e51b8152602060048201526017602482015276139bdd081bdddb995c881d1a1a5cc818dbdb9d1c9858dd604a1b604482015260640161049d565b600083116119c15760405162461bcd60e51b815260206004820152601660248201527f696e6372656173206d75737420626520706c7573203000000000000000000000604482015260640161049d565b826119cc86866137b6565b606001516040516370a0823160e01b81526001600160a01b038881166004830152909116906370a082319060240160206040518083038186803b158015611a1257600080fd5b505afa158015611a26573d6000803e3d6000fd5b505050506040513d601f19601f82011682018060405250810190611a4a919061536d565b1015611a985760405162461bcd60e51b815260206004820152601060248201527f62616c616e63652075736572206c6f7700000000000000000000000000000000604482015260640161049d565b82611aa386866137b6565b60600151604051636eb1769f60e11b81526001600160a01b0388811660048301523060248301529091169063dd62ed3e9060440160206040518083038186803b158015611aef57600080fd5b505afa158015611b03573d6000803e3d6000fd5b505050506040513d601f19601f82011682018060405250810190611b27919061536d565b1015611b755760405162461bcd60e51b815260206004820152601160248201527f616c6f77616e63652075736572206c6f77000000000000000000000000000000604482015260640161049d565b611b7f85856137b6565b606001516040516323b872dd60e01b81526001600160a01b03878116600483015230602483015260448201869052909116906323b872dd90606401602060405180830381600087803b158015611bd457600080fd5b505af1158015611be8573d6000803e3d6000fd5b505050506040513d601f19601f82011682018060405250810190611c0c9190615337565b506001600160a01b038516600090815260026020908152604080832087845290915281206003018054859290611c4390849061565c565b90915550611c53905085856137b6565b6080015183611c6287876137b6565b60800151611c7091906156b5565b7f70b5eec6cec01e52d9243bac64c12e4fd128a2f20105af16919ae212e224fc65611c9b88886137b6565b516040519081526020015b60405180910390a35050505050565b6001600160a01b038116600090815260036020908152604091829020805483518184028101840190945280845260609392830182828015611d1557602002820191906000526020600020905b815481526020019060010190808311611d01575b50505050509050919050565b8282816001600160a01b0316611d3783836137b6565b602001516001600160a01b031614611d8b5760405162461bcd60e51b8152602060048201526017602482015276139bdd081bdddb995c881d1a1a5cc818dbdb9d1c9858dd604a1b604482015260640161049d565b60008311611ddb5760405162461bcd60e51b815260206004820152601660248201527f696e6372656173206d75737420626520706c7573203000000000000000000000604482015260640161049d565b82611de686866137b6565b608001511015611e5e5760405162461bcd60e51b815260206004820152602e60248201527f41737365747420617676616c69626c6520696e73756666696369656e7420666f60448201527f7220746869732077686964726f77000000000000000000000000000000000000606482015260840161049d565b6001600160a01b038516600090815260026020908152604080832087845290915281206003018054859290611e949084906156b5565b90915550611ea4905085856137b6565b6060015160405163a9059cbb60e01b81526001600160a01b038781166004830152602482018690529091169063a9059cbb90604401602060405180830381600087803b158015611ef357600080fd5b505af1158015611f07573d6000803e3d6000fd5b505050506040513d601f19601f82011682018060405250810190611f2b9190615337565b50611f3685856137b6565b6080015183611f4587876137b6565b60800151611f53919061565c565b7f510055a9c40582bc6ad0cab1e5b0421194c4d34435a16960ec71333bf8bc70cf611c9b88886137b6565b8181816001600160a01b0316611f9483836137b6565b602001516001600160a01b031614611fe85760405162461bcd60e51b8152602060048201526017602482015276139bdd081bdddb995c881d1a1a5cc818dbdb9d1c9858dd604a1b604482015260640161049d565b611ff284846137b6565b6101200151156120445760405162461bcd60e51b815260206004820152601d60248201527f436f6e7472616374206861766520617373657420696e20626f72726f77000000604482015260640161049d565b6001600160a01b0384166000908152600260209081526040808320868452909152812060038101549054909161207a87876137b6565b606001516001600160a01b03881660008181526002602081815260408084208c8552825280842084815560018101805474ffffffffffffffffffffffffffffffffffffffffff1916905592830180546001600160a01b031990811690915560038085018690556004850186905560058501869055600685018690556007850180549092169091556008840185905560098401859055600a90930184905593835252205490915015612206576000806121328985613c22565b9150915080156121ff576001600160a01b03891660009081526003602052604090208054612162906001906156b5565b8154811061217257612172615713565b9060005260206000200154600360008b6001600160a01b03166001600160a01b0316815260200190815260200160002083815481106121b3576121b3615713565b60009182526020808320909101929092556001600160a01b038b1681526003909152604090208054806121e8576121e86156fd565b600190038181906000526020600020016000905590555b5050612244565b6001600160a01b038716600090815260036020526040902080548061222d5761222d6156fd565b600190038181906000526020600020016000905590555b600454156122db5760008061225888613ca1565b9150915080156122d45760048054612272906001906156b5565b8154811061228257612282615713565b9060005260206000200154600483815481106122a0576122a0615713565b60009182526020909120015560048054806122bd576122bd6156fd565b600190038181906000526020600020016000905590555b5050612303565b60048054806122ec576122ec6156fd565b600190038181906000526020600020016000905590555b60405163a9059cbb60e01b81526001600160a01b0388811660048301526024820185905282169063a9059cbb90604401602060405180830381600087803b15801561234d57600080fd5b505af1158015612361573d6000803e3d6000fd5b505050506040513d601f19601f820116820180604052508101906123859190615337565b5060405182906001600160a01b038916907ffd6e81c22721a918c2e59966d2b020f6ccf1fe46d783cc4053c75c1a9fa837f090600090a350505050505050565b8282816001600160a01b03166123db83836137b6565b602001516001600160a01b03161461242f5760405162461bcd60e51b8152602060048201526017602482015276139bdd081bdddb995c881d1a1a5cc818dbdb9d1c9858dd604a1b604482015260640161049d565b61243b85856001612e32565b60006124478585613cfe565b612451908261565c565b6000868152600660205260409020805491925090612471906001906156b5565b8154811061248157612481615713565b90600052602060002090600b02016006600087815260200190815260200160002085815481106124b3576124b3615713565b600091825260208083208454600b9093020180546001600160a01b03199081166001600160a01b03948516178255600180870154908301556002808701549083018054831691861691909117905560038087015490830155600480870154908301805483169186169190911790556005808701549083015560068087015481840155600780880154908401556008808801549084015560098088015490840155600a9687015496909201805490911695909316949094179091558782529190915260409020805480612587576125876156fd565b60008281526020808220600b6000199094019384020180546001600160a01b03199081168255600182018490556002808301805483169055600383018590556004830180548316905560058084018690556006840186905560078085018790556008850187905560098501879055600a9094018054909316909255949095556001600160a01b038b8116845294825260408084209483528084208b8552835280842090910154909416825291909152908120805483929061264990849061565c565b90915550506001600160a01b0386811660008181526002602090815260408083208a8452825280832060070154938352600582528083209390941680835292815290839020549251928352909187917f51b6f2197ad2e62ecef8decac1977b853a4ad371e0d8fb444b1d8521af5596c5910160405180910390a3505050505050565b6001600160a01b0384166000908152600260209081526040808320888452909152902060010154600160a01b900460ff161561276f5760405162461bcd60e51b815260206004820152603060248201527f54686973206c656e6465722068617320626c6f636b656420746865206973737560448201527f616e6365206f66206e6577204c6f616e00000000000000000000000000000000606482015260840161049d565b600061277b8587613c22565b915050806127cb5760405162461bcd60e51b815260206004820152601360248201527f636f6e747261637420646f6e7420657869737400000000000000000000000000604482015260640161049d565b6001600160a01b03851660009081526002602090815260408083208984529091529020600301548411156128415760405162461bcd60e51b815260206004820152601460248201527f416d6f756e7420617676616c69626c65206c6f77000000000000000000000000604482015260640161049d565b6001600160a01b03851660009081526002602090815260408083208984529091528120600901549080612874898b613721565b91509150816128915761288c8a898b89898c896141ff565b61296f565b60008981526006602052604090208054829081106128b1576128b1615713565b90600052602060002090600b020160060154612955600660008c815260200190815260200160002083815481106128ea576128ea615713565b90600052602060002090600b020160050154612945600660008e8152602001908152602001600020858154811061292357612923615713565b600091825260209091206002600b9092020101546001600160a01b031661460a565b61294f9190615696565b85614648565b1161295f57600080fd5b61296f8a898b89898c8988614654565b888a6001600160a01b03167fe1979fe4c35e0cef342fef5668e2c8e7a7e9f5d5d1ca8fee0ac6c427fa4153af896040516129ab91815260200190565b60405180910390a350505050505050505050565b600a80546001600160a01b038381166001600160a01b0319831681179093556040519116919082907f8be0079c531659141344cd1fd0a4f28419497f9722a3daafe3b4186f6b6457e090600090a35050565b60606000805480602002602001604051908101604052809291908181526020018280548015612a6957602002820191906000526020600020905b81546001600160a01b03168152600190910190602001808311612a4b575b5050505050905090565b612a7d8284610dd6565b516001600160a01b03848116911614612ad85760405162461bcd60e51b815260206004820152601360248201527f4e6f74206f776e65722074686973206c6f616e00000000000000000000000000604482015260640161049d565b612ae28284610dd6565b60e00151421115612b0657612af88184846149d1565b612b0157600080fd5b612b5d565b612b11818484614c0e565b612b5d5760405162461bcd60e51b815260206004820152600b60248201527f5265706179206572726f72000000000000000000000000000000000000000000604482015260640161049d565b81836001600160a01b03167f8cd2e0c7fd550a74312e3075f80ebbb071970c93280ed06e9101b48e1299bbf883604051612b9991815260200190565b60405180910390a3505050565b6001600160a01b038116612bfc5760405162461bcd60e51b815260206004820152600f60248201527f696e76616c696420616464726573730000000000000000000000000000000000604482015260640161049d565b612c05816138f1565b15612c525760405162461bcd60e51b815260206004820152601660248201527f41737365747420616c726561647920696e206c69737400000000000000000000604482015260640161049d565b600080546001810182559080527f290decd9548b62a8d60345a988386fc84ba6bc95484008f6362f93160ef3e5630180546001600160a01b0319166001600160a01b0392909216919091179055565b8181816001600160a01b0316612cb783836137b6565b602001516001600160a01b031614612d0b5760405162461bcd60e51b8152602060048201526017602482015276139bdd081bdddb995c881d1a1a5cc818dbdb9d1c9858dd604a1b604482015260640161049d565b612d1784846001612e32565b6000805b600085815260066020526040902054811015612d5957612d3b8582613cfe565b612d45908361565c565b915080612d51816156cc565b915050612d1b565b506000848152600660205260408120612d7191615159565b6001600160a01b0380861660009081526005602090815260408083206002835281842089855283528184206007015490941683529290529081208054839290612dbb90849061565c565b90915550506001600160a01b038581166000818152600260209081526040808320898452825280832060070154938352600582528083209390941680835292815290839020549251928352909186917f855a6eb4a3651e9881296b06172389d330b2ea79b1b3dc635674cfc8996ab9c29101611ca6565b8282816001600160a01b0316612e4883836137b6565b602001516001600160a01b031614612e9c5760405162461bcd60e51b8152602060048201526017602482015276139bdd081bdddb995c881d1a1a5cc818dbdb9d1c9858dd604a1b604482015260640161049d565b50506001600160a01b039092166000908152600260209081526040808320938352929052206001018054911515600160a01b027fffffffffffffffffffffff00ffffffffffffffffffffffffffffffffffffffff909216919091179055565b8282816001600160a01b0316612f1183836137b6565b602001516001600160a01b031614612f655760405162461bcd60e51b8152602060048201526017602482015276139bdd081bdddb995c881d1a1a5cc818dbdb9d1c9858dd604a1b604482015260640161049d565b60008481526006602052604090208054612fac919085908110612f8a57612f8a615713565b600091825260209091206004600b9092020101546001600160a01b031661460a565b6000858152600660205260409020805485908110612fcc57612fcc615713565b90600052602060002090600b02016006015411156130525760405162461bcd60e51b815260206004820152602760248201527f74687265736f6c64204c69717569646174696f6e207072696365206e6f74206160448201527f6368696576656400000000000000000000000000000000000000000000000000606482015260840161049d565b60008481526006602052604081208054600491908690811061307657613076615713565b90600052602060002090600b0201600501546130929190615674565b600086815260066020526040902080549192508291869081106130b7576130b7615713565b90600052602060002090600b020160050160008282546130d791906156b5565b909155505060008581526006602052604081208054839260029290918890811061310357613103615713565b60009182526020808320600a600b909302018201546001600160a01b0316845283810194909452604092830182208a8352909352908120909101805490919061314d9084906156b5565b90915550600090506064613162836005615696565b61316c9190615674565b61317790600161565c565b905061318381836156b5565b91506102ee60026000600660008a815260200190815260200160002088815481106131b0576131b0615713565b60009182526020808320600a600b9093020191909101546001600160a01b0316835282810193909352604091820181208a8252909252812060080180549091906131fb9084906156b5565b9091555050600086815260066020526040902080546102ee91908790811061322557613225615713565b90600052602060002090600b0201600301600082825461324591906156b5565b90915550506000868152600660205260409020805461331891908790811061326f5761326f615713565b90600052602060002090600b0201600301546132a8600660008a8152602001908152602001600020888154811061292357612923615713565b6132b29190615696565b6000888152600660205260408120805460029291908a9081106132d7576132d7615713565b60009182526020808320600a600b9093020191909101546001600160a01b0316835282810193909352604091820181208b8252909252902060090154614648565b600087815260066020526040902080548790811061333857613338615713565b90600052602060002090600b02016006018190555060066000878152602001908152602001600020858154811061337157613371615713565b90600052602060002090600b020160040160009054906101000a90046001600160a01b03166001600160a01b031663a9059cbb6006600089815260200190815260200160002087815481106133c8576133c8615713565b60009182526020909120600b90910201546001600160a01b03166133ec848661565c565b6040517fffffffff0000000000000000000000000000000000000000000000000000000060e085901b1681526001600160a01b0390921660048301526024820152604401602060405180830381600087803b15801561344a57600080fd5b505af115801561345e573d6000803e3d6000fd5b505050506040513d601f19601f820116820180604052508101906134829190615337565b5084867f3efb85df84531500b13dc16364a68b114a05d55e8153510a851d426be608d9d6600660008a815260200190815260200160002088815481106134ca576134ca615713565b600091825260209091206004600b9092020101546001600160a01b03166134f1858761565c565b604080516001600160a01b03909316835260208301919091520160405180910390a350505050505050565b8181816001600160a01b031661353283836137b6565b602001516001600160a01b0316146135865760405162461bcd60e51b8152602060048201526017602482015276139bdd081bdddb995c881d1a1a5cc818dbdb9d1c9858dd604a1b604482015260640161049d565b6001600160a01b03841660009081526002602090815260408083208684529091529020600190810154600160a01b900460ff161515146135c557600080fd5b6001600160a01b03841660009081526002602090815260408083208684529091529020600a0154156135f657600080fd5b6001600160a01b03848116600081815260056020908152604080832060028352818420898552808452828520600701805488168652918452828520805490869055948a90529092529054905163a9059cbb60e01b81526004810193909352602483018290529092169063a9059cbb90604401602060405180830381600087803b15801561368257600080fd5b505af1158015613696573d6000803e3d6000fd5b505050506040513d601f19601f820116820180604052508101906136ba9190615337565b506001600160a01b03858116600081815260026020908152604080832089845282529182902060070154825186815292519416938893927fd6e7472acc7a34539f2cd209d6a48c0b2a54f3117758628d5a7ea1073472c19492908290030190a45050505050565b60008060005b6000858152600660205260409020548110156137a657600085815260066020526040902080546001600160a01b03861691908390811061376957613769615713565b60009182526020909120600b90910201546001600160a01b03161415613794576001925090506137af565b8061379e816156cc565b915050613727565b50600080915091505b9250929050565b6138376040518061018001604052806000815260200160006001600160a01b0316815260200160001515815260200160006001600160a01b031681526020016000815260200160008152602001600081526020016000815260200160006001600160a01b031681526020016000815260200160008152602001600081525090565b506001600160a01b0391821660009081526002602081815260408084209484529381529183902083516101808101855281548152600182015480871694820194909452600160a01b90930460ff161515938301939093528201548316606082015260038201546080820152600482015460a0820152600582015460c0820152600682015460e0820152600782015490921661010083015260088101546101208301526009810154610140830152600a015461016082015290565b6000805b60005481101561395257826001600160a01b03166000828154811061391c5761391c615713565b6000918252602090912001546001600160a01b031614156139405750600192915050565b8061394a816156cc565b9150506138f5565b50600092915050565b8282816001600160a01b031661397183836137b6565b602001516001600160a01b0316146139c55760405162461bcd60e51b8152602060048201526017602482015276139bdd081bdddb995c881d1a1a5cc818dbdb9d1c9858dd604a1b604482015260640161049d565b6001600160a01b0385166000908152600260209081526040808320878452909152812060050180548592906139fb90849061565c565b9091555050604051839085907f55c5fcd1e6b45344c33b2efe8b0a1c21370e8436550c2a417ca7a88b4f9ecd7f90600090a35050505050565b8282816001600160a01b0316613a4a83836137b6565b602001516001600160a01b031614613a9e5760405162461bcd60e51b8152602060048201526017602482015276139bdd081bdddb995c881d1a1a5cc818dbdb9d1c9858dd604a1b604482015260640161049d565b6001600160a01b038516600090815260026020908152604080832087845290915281206005018054859290613ad490849061565c565b9091555050604051839085907f39ad9ab227a3f33f44fa8a3bd1d05a8540654651c5b126643016fa827169bb6690600090a35050505050565b6001600160a01b03821615801590613b2d57506001600160a01b03811615155b613b795760405162461bcd60e51b815260206004820152601360248201527f53657420636f7272656374206164647265737300000000000000000000000000604482015260640161049d565b613b82826138f1565b613bf45760405162461bcd60e51b815260206004820152602d60248201527f696e73657274206e6577206173736574206265666f726520736574206164647260448201527f6573732050726963654665656400000000000000000000000000000000000000606482015260840161049d565b6001600160a01b03918216600090815260096020526040902080546001600160a01b03191691909216179055565b60008060005b6001600160a01b0385166000908152600360205260409020548110156137a6576001600160a01b0385166000908152600360205260409020805482908110613c7257613c72615713565b9060005260206000200154841415613c8f579150600190506137af565b80613c99816156cc565b915050613c28565b60008060005b600454811015613cf25760048181548110613cc457613cc4615713565b9060005260206000200154841415613ce0579360019350915050565b80613cea816156cc565b915050613ca7565b50600093849350915050565b6000828152600660205260408120805442919084908110613d2157613d21615713565b90600052602060002090600b02016007015411613d805760405162461bcd60e51b815260206004820152601060248201527f6c6f616e206e6f74206578706972656400000000000000000000000000000000604482015260640161049d565b6000838152600660205260408120805484908110613da057613da0615713565b90600052602060002090600b02016005015490506000600660008681526020019081526020016000208481548110613dda57613dda615713565b90600052602060002090600b02016003015490506000600660008781526020019081526020016000208581548110613e1457613e14615713565b90600052602060002090600b0201600501819055506000600660008781526020019081526020016000208581548110613e4f57613e4f615713565b90600052602060002090600b0201600801819055506000600660008781526020019081526020016000208581548110613e8a57613e8a615713565b90600052602060002090600b02016003018190555080613ec7600660008881526020019081526020016000208681548110612f8a57612f8a615713565b613ed19084615696565b11613fcf578160026000600660008981526020019081526020016000208781548110613eff57613eff615713565b60009182526020808320600a600b909302018201546001600160a01b0316845283810194909452604092830182208a83529093529081209091018054909190613f499084906156b5565b9091555050600085815260066020526040812080548392600292909188908110613f7557613f75615713565b60009182526020808320600a600b9093020191909101546001600160a01b03168352828101939093526040918201812089825290925281206008018054909190613fc09084906156b5565b9091555091925061064c915050565b60008581526006602052604081208054606491613ff69188908110612f8a57612f8a615713565b6000888152600660205260409020805461401b91908990811061292357612923615713565b6140259085615696565b6000898152600660205260409020805461404a91908a908110612f8a57612f8a615713565b6140549087615696565b61405e91906156b5565b6140689190615674565b614073906014615696565b61407d9190615674565b61408890600161565c565b90508260026000600660008a815260200190815260200160002088815481106140b3576140b3615713565b60009182526020808320600a600b909302018201546001600160a01b0316845283810194909452604092830182208b835290935290812090910180549091906140fd9084906156b5565b909155505060008681526006602052604081208054849260029290918990811061412957614129615713565b60009182526020808320600a600b9093020191909101546001600160a01b0316835282810193909352604091820181208a8252909252812060080180549091906141749084906156b5565b90915550506000868152600660205260408120805483926008929091899081106141a0576141a0615713565b600091825260208083206004600b9093020191909101546001600160a01b03168352820192909252604001812080549091906141dd90849061565c565b909155506141ed905081846156b5565b935050505061064c565b505092915050565b6001600160a01b038616600090815260026020908152604080832088845290915290206009015461427f846142338761460a565b61423d9190615696565b6001600160a01b03808a1660009081526002602081815260408084208d855290915290912001548691614270911661460a565b61427a9190615696565b6150f7565b1161428957600080fd5b6040516323b872dd60e01b81526001600160a01b038881166004830152306024830152604482018590528516906323b872dd90606401602060405180830381600087803b1580156142d957600080fd5b505af11580156142ed573d6000803e3d6000fd5b505050506040513d601f19601f820116820180604052508101906143119190615337565b5060408051610160810182526001600160a01b03808a1682526020808301899052898216600090815260028083528582208b835280845286832090910154841695850186905260608501889052928916608085015260a084018890528981529190529160c08201906143889086906129459061460a565b81526001600160a01b03891660009081526002602090815260408083208b84528252909120600501549101906143be904261565c565b81526020014281526020016143d389896137b6565b60a09081015182526001600160a01b03808b16602093840181905260008b8152600680865260408083208054600181810183559185528885208a51600b9092020180549188166001600160a01b03199283161781558a8a015192810192909255828a015160028084018054928a169284169290921790915560608b015160038085019190915560808c0151600485018054918b16918516919091179055988b0151600584015560c08b01519483019490945560e08a015160078301556101008a015160088301556101208a015160098301556101408a0151600a9092018054929097169116179094559181529084528181208b8252909352822001805492935085929091906144e39084906156b5565b90915550506001600160a01b03871660009081526002602090815260408083208984529091528120600801805485929061451e90849061565c565b90915550506001600160a01b03871660009081526002602090815260408083208984529091528120600a01805486929061455990849061565c565b90915550506001600160a01b0387811660009081526002602081815260408084208b8552909152918290200154905163a9059cbb60e01b81528a831660048201526024810186905291169063a9059cbb90604401602060405180830381600087803b1580156145c757600080fd5b505af11580156145db573d6000803e3d6000fd5b505050506040513d601f19601f820116820180604052508101906145ff9190615337565b505050505050505050565b6001600160a01b038082166000908152600960205260408120549091614639916146349116610561565b615103565b61064c906402540be400615696565b60006104408284615696565b600086815260066020526040902080548290811061467457614674615713565b60009182526020909120600b90910201546001600160a01b038981169116146146df5760405162461bcd60e51b815260206004820152601360248201527f4e6f74206f776e65722074686973206c6f616e00000000000000000000000000604482015260640161049d565b6001600160a01b0387166000908152600260209081526040808320898452825280832060090154600690925290912080546147d59187918590811061472657614726615713565b90600052602060002090600b020160050154614742919061565c565b60008981526006602052604090208054614767919086908110612f8a57612f8a615713565b6147719190615696565b600089815260066020526040902080548791908690811061479457614794615713565b90600052602060002090600b0201600301546147b0919061565c565b60008a8152600660205260409020805461427091908790811061292357612923615713565b116147df57600080fd5b6040516323b872dd60e01b81526001600160a01b038981166004830152306024830152604482018690528616906323b872dd90606401602060405180830381600087803b15801561482f57600080fd5b505af1158015614843573d6000803e3d6000fd5b505050506040513d601f19601f820116820180604052508101906148679190615337565b50600086815260066020526040902080548491908390811061488b5761488b615713565b90600052602060002090600b020160030160008282546148ab919061565c565b909155505060008681526006602052604090208054859190839081106148d3576148d3615713565b90600052602060002090600b020160050160008282546148f3919061565c565b90915550506000868152600660205260409020805461496691908390811061491d5761491d615713565b90600052602060002090600b020160030154614956600660008a8152602001908152602001600020848154811061292357612923615713565b6149609190615696565b83614648565b600087815260066020526040902080548390811061498657614986615713565b600091825260208083206006600b9093020191909101929092556001600160a01b038916815260028252604080822089835290925290812060030180548592906144e39084906156b5565b6000806149de8385613721565b91505042600660008581526020019081526020016000208281548110614a0657614a06615713565b90600052602060002090600b02016007015410614a655760405162461bcd60e51b815260206004820152601560248201527f54686973206c6f616e206e6f7420657870697265640000000000000000000000604482015260640161049d565b60006064614a74876062615696565b614a7e9190615674565b614a8990600161565c565b905060006064614a9a836005615696565b614aa49190615674565b614aaf90600161565c565b9050614abb81836156b5565b91508060086000600660008981526020019081526020016000208681548110614ae657614ae6615713565b600091825260208083206002600b9093020191909101546001600160a01b0316835282019290925260400181208054909190614b2390849061565c565b90915550614b33905082886156b5565b60008681526006602052604081208054600292919087908110614b5857614b58615713565b60009182526020808320600a600b9093020191909101546001600160a01b03168352828101939093526040918201812089825290925281206003018054909190614ba390849061565c565b90915550614bb49050828787614c0e565b614bbd57600080fd5b84866001600160a01b03167ff4566bf0f626de61c22d06426bb7c188fe0cbf319d7bde6569daac73e2b18f0a84604051614bf991815260200190565b60405180910390a35060019695505050505050565b600080614c1b8385613721565b915050614cc8600660008581526020019081526020016000208281548110614c4557614c45615713565b90600052602060002090600b020160030154600660008681526020019081526020016000208381548110614c7b57614c7b615713565b90600052602060002090600b020160090154600660008781526020019081526020016000208481548110614cb157614cb1615713565b90600052602060002090600b020160080154611004565b6000848152600660205260409020805483908110614ce857614ce8615713565b90600052602060002090600b02016003018190555084600660008581526020019081526020016000208281548110614d2257614d22615713565b90600052602060002090600b0201600301541015614d825760405162461bcd60e51b815260206004820152601860248201527f596f752063616e206f6e6c79204c6f616e20616d6f756e740000000000000000604482015260640161049d565b6000838152600660205260409020805482908110614da257614da2615713565b60009182526020909120600b90910201600201546040516323b872dd60e01b81526001600160a01b03868116600483015230602483015260448201889052909116906323b872dd90606401602060405180830381600087803b158015614e0757600080fd5b505af1158015614e1b573d6000803e3d6000fd5b505050506040513d601f19601f82011682018060405250810190614e3f9190615337565b506000612710614e50876014615696565b614e5a9190615674565b614e6590600161565c565b90508060086000600660008881526020019081526020016000208581548110614e9057614e90615713565b600091825260208083206002600b9093020191909101546001600160a01b0316835282019290925260400181208054909190614ecd90849061565c565b90915550506000848152600660205260408120805484908110614ef257614ef2615713565b60009182526020909120600a600b9092020101546001600160a01b03169050614f1b82886156b5565b6001600160a01b038216600090815260026020908152604080832089845290915281206008018054909190614f519084906156b5565b90915550614f61905082886156b5565b6001600160a01b038216600090815260026020908152604080832089845290915281206003018054909190614f9790849061565c565b90915550614fa7905082886156b5565b6000868152600660205260409020805485908110614fc757614fc7615713565b90600052602060002090600b02016003016000828254614fe791906156b5565b9091555050600085815260066020526040902080544291908590811061500f5761500f615713565b90600052602060002090600b0201600801819055506150b661504e60066000888152602001908152602001600020858154811061292357612923615713565b600087815260066020526040902080548690811061506e5761506e615713565b90600052602060002090600b02016003015461508a9190615696565b6001600160a01b03831660009081526002602090815260408083208a8452909152902060090154614648565b60008681526006602052604090208054859081106150d6576150d6615713565b600091825260209091206006600b9092020101555060019695505050505050565b60006104408284615674565b6000808212156151555760405162461bcd60e51b815260206004820181905260248201527f53616665436173743a2076616c7565206d75737420626520706f736974697665604482015260640161049d565b5090565b50805460008255600b0290600052602060002090810190610d1191905b808211156151555780546001600160a01b03199081168255600060018301819055600283018054831690556003830181905560048301805483169055600583018190556006830181905560078301819055600883018190556009830155600a820180549091169055600b01615176565b80356001600160a01b03811681146151fd57600080fd5b919050565b805169ffffffffffffffffffff811681146151fd57600080fd5b60006020828403121561522e57600080fd5b610440826151e6565b6000806040838503121561524a57600080fd5b615253836151e6565b9150615261602084016151e6565b90509250929050565b6000806040838503121561527d57600080fd5b615286836151e6565b946020939093013593505050565b6000806000606084860312156152a957600080fd5b6152b2846151e6565b92506020840135915060408401356152c981615729565b809150509250925092565b600080600080600080600060e0888a0312156152ef57600080fd5b6152f8886151e6565b96506020880135955060408801359450606088013593506080880135925061532260a089016151e6565b915060c0880135905092959891949750929550565b60006020828403121561534957600080fd5b815161044081615729565b60006020828403121561536657600080fd5b5035919050565b60006020828403121561537f57600080fd5b5051919050565b6000806040838503121561539957600080fd5b82359150615261602084016151e6565b600080600080600060a086880312156153c157600080fd5b853594506153d1602087016151e6565b9350604086013592506153e6606087016151e6565b949793965091946080013592915050565b6000806040838503121561540a57600080fd5b50508035926020909101359150565b600080600080600060a0868803121561543157600080fd5b61543a86615202565b945060208601519350604086015192506060860151915061545d60808701615202565b90509295509295909350565b6020808252825182820181905260009190848201906040850190845b818110156154aa5783516001600160a01b031683529284019291840191600101615485565b50909695505050505050565b6020808252825182820181905260009190848201906040850190845b818110156154aa578351835292840192918401916001016154d2565b81516001600160a01b03168152610160810160208301516020830152604083015161552460408401826001600160a01b03169052565b5060608301516060830152608083015161554960808401826001600160a01b03169052565b5060a083015160a083015260c083015160c083015260e083015160e0830152610100808401518184015250610120808401518184015250610140808401516141f7828501826001600160a01b03169052565b815181526020808301516101808301916155bf908401826001600160a01b03169052565b5060408301516155d3604084018215159052565b5060608301516155ee60608401826001600160a01b03169052565b506080830151608083015260a083015160a083015260c083015160c083015260e083015160e083015261010080840151615632828501826001600160a01b03169052565b50506101208381015190830152610140808401519083015261016092830151929091019190915290565b6000821982111561566f5761566f6156e7565b500190565b60008261569157634e487b7160e01b600052601260045260246000fd5b500490565b60008160001904831182151516156156b0576156b06156e7565b500290565b6000828210156156c7576156c76156e7565b500390565b60006000198214156156e0576156e06156e7565b5060010190565b634e487b7160e01b600052601160045260246000fd5b634e487b7160e01b600052603160045260246000fd5b634e487b7160e01b600052603260045260246000fd5b8015158114610d1157600080fdfe5265656e7472616e637947756172643a207265656e7472616e742063616c6c00a2646970667358221220ade29d1acf491c5b7b23b32ed322d32586cc7c7f8a90ff3cf1cbbf1d6a6155a664736f6c63430008070033",
  "immutableReferences": {},
  "source": "// SPDX-License-Identifier: Leluk911\n\npragma solidity 0.8.7;\n\nimport \"../node_modules/@openzeppelin/contracts/token/ERC20/IERC20.sol\";\nimport \"../node_modules/@openzeppelin/contracts/access/Ownable.sol\";\nimport \"../node_modules/@openzeppelin/contracts/utils/Counters.sol\";\nimport \"../node_modules/@openzeppelin/contracts/security/ReentrancyGuard.sol\";\nimport \"./storage.sol\";\nimport \"./interestCalculator.sol\";\nimport \"./coreFunction.sol\";\n\n\ncontract lendingPage is CoreFunction {\n    //library\n    using Counters for Counters.Counter;\n    //function variable\n    //-------------------------------//\n    constructor(uint _minpenality){\n        Id.increment();\n        minPenality = _minpenality;\n    }\n \n    // ----> User Function\n    function _deposit(address _to,address _asset,uint _amount,uint _apr,uint _deadline,uint _penality,address _collateral,uint _rateCollateral)internal {\n        require(_to != address(0), \"invalid address\");\n        require(_asset != _collateral, \"collateral not valid\");\n        require(_findAsset(_asset),\"asset don't found\");\n        require(addressPriceFeed[_asset] != address(0),\"Pricefeed address miss, whait owner set address priceFeed for this asset\");\n        require(_findAsset(_collateral),\"collateral don't found\");\n        require(IERC20(_asset).balanceOf(_to) >= _amount,\"balance user low\");\n        require(IERC20(_asset).allowance(_to, address(this)) >= _amount,\"alowance user low\");\n        require(_deadline > 0,\"deadline must have geatee 0\");\n        require(_penality >=  minPenality,\"penality must have geate 0\");    \n        IERC20(_asset).transferFrom(_to,address(this), _amount);\n        // fee 0.10%\n        uint contractFee = ((_amount * 10)/10000)+1;\n        balanceFee[_asset] += contractFee;\n        //\n        LendingContract memory newContract= LendingContract(\n            Id.current(),\n            _to,\n            false,\n            _asset,\n            _amount - contractFee,\n            _apr,\n            _deadline,\n            _penality,\n            _collateral,\n            0,\n            _rateCollateral,\n            0\n        );\n        userLendingContract[_to][Id.current()] = newContract;\n        emit NewContractDeposit(\n            Id.current(),_to,_asset,_amount,_apr,_deadline,_penality, _collateral\n        );\n        listContractUser[_to].push(Id.current());\n        listContract.push(Id.current());\n        Id.increment();\n    }\n    function _increasDeposit(address _to,uint _idContract, uint _increasAmount) internal  contractOwner(_to, _idContract){\n        require(_increasAmount > 0, \"increas must be plus 0\");\n        require(IERC20(_findContractLending(_to,_idContract).asset).balanceOf(_to) >= _increasAmount,\"balance user low\");\n        require(IERC20(_findContractLending(_to,_idContract).asset).allowance(_to, address(this)) >= _increasAmount,\"alowance user low\");\n        IERC20(_findContractLending(_to,_idContract).asset).transferFrom(_to,address(this), _increasAmount);\n        userLendingContract[_to][_idContract].amountAvvalible += _increasAmount; \n        emit IncreasContractDeposit(\n            _findContractLending(_to,_idContract).id,\n            _findContractLending(_to,_idContract).amountAvvalible - _increasAmount,\n            _findContractLending(_to,_idContract).amountAvvalible  \n        );\n    }\n    function _decreasDeposit(address _to,uint _idContract, uint _decreasAmount) internal contractOwner(_to, _idContract){\n        require(_decreasAmount > 0, \"increas must be plus 0\");\n        require(\n            _findContractLending(_to,_idContract).amountAvvalible >= _decreasAmount, \"Assett avvalible insufficient for this whidrow\"\n        );\n     \n\n        userLendingContract[_to][_idContract].amountAvvalible -= _decreasAmount;\n\n        IERC20(_findContractLending(_to,_idContract).asset).transfer(_to,_decreasAmount);\n\n        emit DecreasContractDeposit(\n            _findContractLending(_to,_idContract).id,\n            _findContractLending(_to,_idContract).amountAvvalible + _decreasAmount,\n            _findContractLending(_to,_idContract).amountAvvalible\n            \n        );\n\n    }\n    function _deleteContract(address _to,uint _idContract)internal contractOwner(_to, _idContract){\n       require(\n            _findContractLending(_to,_idContract).amountBorrow == 0, \"Contract have asset in borrow\"\n        ); \n        uint amountRepay = userLendingContract[_to][_idContract].amountAvvalible;\n        uint deleteId = userLendingContract[_to][_idContract].id;\n        address assetWidrow =_findContractLending(_to,_idContract).asset;\n        delete userLendingContract[_to][_idContract];\n        if(listContractUser[_to].length > 0){\n            (uint indexDelete, bool response) = _findArrayindexContract(_to, deleteId);\n            if(response){\n                listContractUser[_to][indexDelete]=listContractUser[_to][listContractUser[_to].length -1];\n                listContractUser[_to].pop();\n            }\n        }else{\n            listContractUser[_to].pop();\n        }\n          if(listContract.length > 0){\n            (uint indexDelete, bool response) = _findContractAvvalible(_idContract);\n            if(response){\n                listContract[indexDelete] = listContract[listContract.length -1];\n                listContract.pop();\n            }\n        }else{\n            listContract.pop();\n        }\n        IERC20(assetWidrow).transfer(_to,amountRepay);\n        emit DeleteContractDeposit(_to, deleteId);\n    }\n    function _lockNewBorrow(address _to,uint _idContract,bool _lock)internal contractOwner(_to, _idContract){\n            userLendingContract[_to][_idContract].lock = _lock;   \n       \n    }\n    function _increaseTimeExpire(address _to,uint _idContract, uint _timeIncreas)internal contractOwner(_to, _idContract){\n            userLendingContract[_to][_idContract].duration += _timeIncreas;  \n            emit newTimeExpireIncreas(_idContract, _timeIncreas);   \n    }\n    function _decreaseTimeExpire(address _to,uint _idContract, uint _timeIncreas)internal contractOwner(_to, _idContract){\n            //require(userLendingContract[_to][_idContract].amountBorrow == 0);\n            userLendingContract[_to][_idContract].duration += _timeIncreas;\n            emit newTimeExpireDecreas(_idContract, _timeIncreas);     \n    }\n    function _liquidationCall(address _to,uint _idContract,uint _idBorrow) internal contractOwner(_to, _idContract) {\n        require(borrowersXid[_idContract][_idBorrow].liquidationThreshold <= oraclePrice(borrowersXid[_idContract][_idBorrow].assetCollaterl),\"thresold Liquidation price not achieved\");\n                 \n        // 1/4 collateral\n        uint liquidationAmount = borrowersXid[_idContract][_idBorrow].amountCollateral /4; // parte da liquidare\n        borrowersXid[_idContract][_idBorrow].amountCollateral -= liquidationAmount;\n        userLendingContract[borrowersXid[_idContract][_idBorrow].lender][_idContract].amountCollateral -= liquidationAmount;\n        uint premiumLiquidation = ((liquidationAmount * 5)/100)+1;\n        liquidationAmount -= premiumLiquidation;\n        userLendingContract[borrowersXid[_idContract][_idBorrow].lender][_idContract].amountBorrow -= 750;//TEST ONLY liquidationAmount * _mockOracleCollateral();\n        borrowersXid[_idContract][_idBorrow].ammounBorrow -=  750; //TEST ONLY liquidationAmount * 1 _mockOracleCollateral();\n        borrowersXid[_idContract][_idBorrow].liquidationThreshold = _liquidationThresold(\n             oraclePrice(borrowersXid[_idContract][_idBorrow].assetBorrow) * borrowersXid[_idContract][_idBorrow].ammounBorrow,\n             userLendingContract[borrowersXid[_idContract][_idBorrow].lender][_idContract].rateCollateral\n             );\n        IERC20(borrowersXid[_idContract][_idBorrow].assetCollaterl).transfer(\n            borrowersXid[_idContract][_idBorrow].owner,\n            liquidationAmount + premiumLiquidation);\n     \n     emit LiquidationCall(_idContract,_idBorrow,borrowersXid[_idContract][_idBorrow].assetCollaterl,liquidationAmount + premiumLiquidation);\n    }\n    function _collateralSeizure(uint _idContract,uint _idBorrow) internal returns(uint){\n        require(borrowersXid[_idContract][_idBorrow].expiration > block.timestamp,\"loan not expired\");\n        uint collateral = borrowersXid[_idContract][_idBorrow].amountCollateral;\n        uint borrowExpired = borrowersXid[_idContract][_idBorrow].ammounBorrow;\n        borrowersXid[_idContract][_idBorrow].amountCollateral = 0;\n        borrowersXid[_idContract][_idBorrow].blockStart = 0;\n        borrowersXid[_idContract][_idBorrow].ammounBorrow = 0;\n        if(collateral * oraclePrice(borrowersXid[_idContract][_idBorrow].assetCollaterl)<=  borrowExpired){\n            userLendingContract[borrowersXid[_idContract][_idBorrow].lender][_idContract].amountCollateral -= collateral;\n            userLendingContract[borrowersXid[_idContract][_idBorrow].lender][_idContract].amountBorrow -= borrowExpired;\n            return collateral;   \n        }else {\n            uint contractFee = ((((collateral * oraclePrice(borrowersXid[_idContract][_idBorrow].assetCollaterl)\n                    - borrowExpired *oraclePrice(borrowersXid[_idContract][_idBorrow].assetBorrow))\n                    / oraclePrice(borrowersXid[_idContract][_idBorrow].assetCollaterl))*20)/100)+1;\n                    \n            userLendingContract[borrowersXid[_idContract][_idBorrow].lender][_idContract].amountCollateral -= collateral;\n            userLendingContract[borrowersXid[_idContract][_idBorrow].lender][_idContract].amountBorrow -= borrowExpired;\n            balanceFee[borrowersXid[_idContract][_idBorrow].assetCollaterl] += contractFee;\n            return collateral - contractFee;   \n        }\n    }\n    function _widrowCreditExpire(address _to,uint _idContract)internal contractOwner(_to, _idContract){\n        require(userLendingContract[_to][_idContract].lock == true);\n        require(userLendingContract[_to][_idContract].amountCollateral ==0);\n        uint widrow = userCreditExpire[_to][userLendingContract[_to][_idContract].collateral];\n        userCreditExpire[_to][userLendingContract[_to][_idContract].collateral] = 0;\n        IERC20(userLendingContract[_to][_idContract].collateral).transfer(_to, widrow);\n\n        emit WidrowCredit(_to, _idContract, userLendingContract[_to][_idContract].collateral, widrow);\n    }\n    function _RecoverCreditsExpired(address _to,uint _idContract)internal contractOwner(_to, _idContract) {\n        _lockNewBorrow(_to,_idContract,true);\n        uint creditExpired;\n        for(uint i; i < borrowersXid[_idContract].length ; i++){\n            creditExpired+=_collateralSeizure( _idContract,i);\n        }\n        delete borrowersXid[_idContract] ;\n        userCreditExpire[_to][userLendingContract[_to][_idContract].collateral] += creditExpired;\n        emit RecoveryCredit(_idContract, userLendingContract[_to][_idContract].collateral, userCreditExpire[_to][userLendingContract[_to][_idContract].collateral]);\n    }\n     function _RecoverSingleCreditExpired(address _to,uint _idContract,uint _idBorrow)internal contractOwner(_to, _idContract) {\n        _lockNewBorrow(_to,_idContract,true);\n        \n        uint singleCreditExpired;\n        singleCreditExpired +=_collateralSeizure( _idContract, _idBorrow);\n        \n        borrowersXid[_idContract][_idBorrow] = borrowersXid[_idContract][borrowersXid[_idContract].length -1];\n        borrowersXid[_idContract].pop();\n\n        userCreditExpire[_to][userLendingContract[_to][_idContract].collateral] += singleCreditExpired; \n        emit RecoverySingleCredit(_idContract, userLendingContract[_to][_idContract].collateral, userCreditExpire[_to][userLendingContract[_to][_idContract].collateral]);\n    }\n    \n    //BORROW FUNCTION\n    function _executeBorrow(address _to,uint _idContract,address _lender,uint _amountBorrow,address _assettCollateral,uint _amountCollateral) internal {\n        require(userLendingContract[_lender][_idContract].lock == false,\"This lender has blocked the issuance of new Loan\");\n        (,bool response) = _findArrayindexContract(_lender,_idContract);\n        require(response,\"contract dont exist\");\n        require(userLendingContract[_lender][_idContract].amountAvvalible >= _amountBorrow,\"Amount avvalible low\");\n        uint _rateLiquidation = userLendingContract[_lender][_idContract].rateCollateral;\n        (bool responseSrc,uint indexBorrow) = _serchIndexBorrowerXContract(_idContract, _to);\n        //check before act borrow \n        if(!responseSrc){\n            _newBorrower(_to,_lender, _idContract, _assettCollateral, _amountCollateral, _amountBorrow, _rateLiquidation);\n        }else{\n            //_liquidationThresold( uint _priceBorrowEth,uint _rateLiquidation)\n            require(_liquidationThresold(\n                          oraclePrice(borrowersXid[_idContract][indexBorrow].assetBorrow) * borrowersXid[_idContract][indexBorrow].amountCollateral,\n                           _rateLiquidation) > borrowersXid[_idContract][indexBorrow].liquidationThreshold);\n            _oldBorrower(_to, _lender, _idContract, _assettCollateral, _amountCollateral, _amountBorrow, _rateLiquidation, indexBorrow);\n\n        }\n\n        emit Borrow(_to, _idContract, _amountBorrow);\n    }\n    function _oldBorrower(address _to,address _lender,uint _idContract,address _assettCollateral,uint _amountCollateral,uint _amountBorrow, uint _rateLiquidation,uint indexBorrow)internal {\n        require(_to == borrowersXid[_idContract][indexBorrow].owner, \"Not owner this loan\" );\n        require(_healFactor( oraclePrice(borrowersXid[_idContract][indexBorrow].assetCollaterl)\n                *(borrowersXid[_idContract][indexBorrow].amountCollateral + _amountCollateral),\n                             oraclePrice(borrowersXid[_idContract][indexBorrow].assetBorrow) \n                             *(borrowersXid[_idContract][indexBorrow].ammounBorrow + _amountBorrow)\n                             )> userLendingContract[_lender][_idContract].rateCollateral); \n\n        IERC20(_assettCollateral).transferFrom(_to, address(this), _amountCollateral);\n        borrowersXid[_idContract][indexBorrow].ammounBorrow += _amountBorrow;// aggiornata la variabile globale\n        borrowersXid[_idContract][indexBorrow].amountCollateral += _amountCollateral;// aggiornata la variabile globale\n        borrowersXid[_idContract][indexBorrow].liquidationThreshold =\n                _liquidationThresold(\n                    oraclePrice(borrowersXid[_idContract][indexBorrow].assetBorrow)\n                    *borrowersXid[_idContract][indexBorrow].ammounBorrow,_rateLiquidation);\n        userLendingContract[_lender][_idContract].amountAvvalible -=_amountBorrow;// togliamo le coin prestare\n        userLendingContract[_lender][_idContract].amountBorrow += _amountBorrow; // incrementiamo il capitale prestato\n        userLendingContract[_lender][_idContract].amountCollateral += _amountCollateral;// aggiungiamo la quantita di collaterale presente nel contratto\n        IERC20(userLendingContract[_lender][_idContract].asset).transfer(_to, _amountBorrow);\n\n    }\n    function _newBorrower(address _to,address _lender,uint _idContract,address _assettCollateral,uint _amountCollateral,uint _amountBorrow, uint _rateLiquidation)internal {\n        require(_healFactor(oraclePrice(_assettCollateral) * _amountCollateral,\n            oraclePrice(userLendingContract[_lender][_idContract].asset)*_amountBorrow) \n            > userLendingContract[_lender][_idContract].rateCollateral);\n\n        IERC20(_assettCollateral).transferFrom(_to, address(this), _amountCollateral);\n        Borrower memory newBorrower = Borrower(\n                                            _to,\n                                            _idContract,\n                                            userLendingContract[_lender][_idContract].asset,\n                                            _amountBorrow,\n                                            _assettCollateral,\n                                            _amountCollateral,\n                                            _liquidationThresold(\n                                                  oraclePrice(userLendingContract[_lender][_idContract].asset)\n                                                  *_amountBorrow,\n                                                 _rateLiquidation),\n                                            block.timestamp + userLendingContract[_lender][_idContract].duration,\n                                            block.timestamp,\n                                            _findContractLending(_lender,_idContract).apr,\n                                            _lender\n\n                                            );\n        borrowersXid[_idContract].push(newBorrower);\n        userLendingContract[_lender][_idContract].amountAvvalible -=_amountBorrow;// togliamo le coin prestare\n        userLendingContract[_lender][_idContract].amountBorrow += _amountBorrow; // incrementiamo il capitale prestato\n        userLendingContract[_lender][_idContract].amountCollateral += _amountCollateral;// aggiungiamo la quantita di collaterale presente nel contratto\n        IERC20(userLendingContract[_lender][_idContract].asset).transfer(_to, _amountBorrow);\n    }\n    function _executeRepay(address _to, uint _idContract,uint _amount) internal {\n        require(_to  ==  _serchBorrowerPositionXContract(_idContract, _to).owner ,\"Not owner this loan\");\n        if(block.timestamp >  _serchBorrowerPositionXContract(_idContract, _to).expiration){\n            require(_penalityLoan(_amount, _to, _idContract));// gestire la penalit\n        }else{\n            require(_repay( _amount, _to, _idContract),\"Repay error\");\n        }\n        emit repay(_to, _idContract, _amount);\n    }\n    function _repay(uint _amount,address _to,uint _idContract) internal returns(bool){\n            (,uint indexBorrow) = _serchIndexBorrowerXContract(_idContract, _to);\n\n            borrowersXid[_idContract][indexBorrow].ammounBorrow = InterestCalculator._getTotalLoan(\n                borrowersXid[_idContract][indexBorrow].ammounBorrow,\n                borrowersXid[_idContract][indexBorrow].aprLoan,\n                borrowersXid[_idContract][indexBorrow].blockStart);\n            require(borrowersXid[_idContract][indexBorrow].ammounBorrow >= _amount, \"You can only Loan amount\");\n\n            IERC20(borrowersXid[_idContract][indexBorrow].assetBorrow).transferFrom(_to,address(this), _amount);\n               // fee 0.20%\n                uint contractFee = ((_amount * 20)/10000)+1;\n                balanceFee[borrowersXid[_idContract][indexBorrow].assetBorrow] += contractFee;\n                //\n            address _lender = borrowersXid[_idContract][indexBorrow].lender;\n            userLendingContract[_lender][_idContract].amountBorrow -= _amount - contractFee;\n            userLendingContract[_lender][_idContract].amountAvvalible += _amount - contractFee;\n            borrowersXid[_idContract][indexBorrow].ammounBorrow -= _amount - contractFee;\n            borrowersXid[_idContract][indexBorrow].blockStart = block.timestamp;\n            borrowersXid[_idContract][indexBorrow].liquidationThreshold = \n                _liquidationThresold(\n                      borrowersXid[_idContract][indexBorrow].ammounBorrow * \n                      oraclePrice(borrowersXid[_idContract][indexBorrow].assetBorrow),\n                      userLendingContract[_lender][_idContract].rateCollateral);\n            return true;\n    }\n    function _penalityLoan ( uint _amount,address _to,uint _idContract) internal returns(bool){\n        (,uint indexBorrow) = _serchIndexBorrowerXContract(_idContract, _to);\n        require(borrowersXid[_idContract][indexBorrow].expiration < block.timestamp, \"This loan not expired\");\n        //penality 2% of pay\n        uint new_amount = ((_amount *98)/100)+1;\n        // fee 5%\n        uint contractFee = ((new_amount * 5)/100)+1;\n        new_amount -= contractFee;\n        balanceFee[borrowersXid[_idContract][indexBorrow].assetBorrow] += contractFee;\n        userLendingContract[borrowersXid[_idContract][indexBorrow].lender][_idContract].amountAvvalible += _amount - new_amount;// tutto /2\n        require(_repay(new_amount, _to, _idContract));\n        emit applyPenality(_to, _idContract,new_amount);\n        return true;\n    }\n    // EXTERNAL FUNCTION\n    function setAssettAvvalible(address _newAsset) external nonReentrant() onlyOwner() {\n        _setAssettAvvalible(_newAsset);\n        emit NewAssetAvvalible(_newAsset, block.timestamp);\n    } \n    function findAsset(address _asset) external view returns(bool){\n        return _findAsset(_asset);\n    }\n    function deposit(address _asset,uint _amount,uint _apr,uint _deadline,uint _penality,address _collateral,uint _rateCollateral) external nonReentrant() {\n        _deposit(msg.sender, _asset, _amount, _apr, _deadline, _penality, _collateral,_rateCollateral);\n    }\n    function listContractXuser(address _user) external view returns(uint[] memory){\n        return _listContractXuser(_user);\n    }\n    function getAssettAvvalible()external view returns (address[] memory ){\n        return _getAssettAvvalible(); \n    }\n    function findContractLending(address _to,uint _id)external view returns(LendingContract memory){\n        return _findContractLending(_to, _id);\n    }\n    function increasDeposit(uint _idContract, uint _increasAmount) external nonReentrant(){\n        _increasDeposit(msg.sender, _idContract, _increasAmount);\n    }\n    function decreasDeposit(uint _idContract, uint _decreasAmount) external nonReentrant(){\n        _decreasDeposit(msg.sender, _idContract, _decreasAmount);\n    }\n    function deleteContract(uint _idContract) external nonReentrant(){\n        _deleteContract(msg.sender, _idContract);\n    }\n    function executeBorrow(uint _idContract,address _lender,uint _amountBorrow,address _assettCollateral,uint _amountCollateral) external nonReentrant(){\n        _executeBorrow(msg.sender, _idContract, _lender, _amountBorrow, _assettCollateral, _amountCollateral);\n    }\n    function serchBorrowerPositionXContract(uint _idContract,address _borrower) external view returns (Borrower memory){\n        return _serchBorrowerPositionXContract(_idContract, _borrower);\n    }\n    function serchIndexBorrowerXContract(uint _idContract,address _borrower)external view returns(uint){\n        (,uint idFind) = _serchIndexBorrowerXContract(_idContract, _borrower);\n        return idFind;\n    }\n    function lockNewBorrow(address _to,uint _idContract,bool _lock)external nonReentrant(){\n        _lockNewBorrow(_to, _idContract,_lock);\n    }\n    function viewAmountLoan(address  _borrower,uint _idContract) external view returns(uint loanCompouse) {\n        loanCompouse = InterestCalculator._getTotalLoan(\n            _serchBorrowerPositionXContract(_idContract, _borrower).ammounBorrow,\n            _serchBorrowerPositionXContract(_idContract, _borrower).aprLoan,\n            _serchBorrowerPositionXContract(_idContract, _borrower).blockStart); \n    }\n    function executeRepay(uint _idContract,uint _amount) external nonReentrant(){\n        _executeRepay(msg.sender, _idContract, _amount);\n    }\n    function increaseTimeExpire(uint _idContract, uint _timeIncreas)external nonReentrant(){\n          _increaseTimeExpire(msg.sender, _idContract, _timeIncreas);\n    }\n    function decreaseTimeExpire(uint _idContract, uint _timeIncreas)external nonReentrant(){\n          _decreaseTimeExpire(msg.sender, _idContract, _timeIncreas);\n    }\n    function liquidationCall(uint _idContract,uint _idBorrow) external nonReentrant(){\n        _liquidationCall(msg.sender,_idContract,_idBorrow);\n    }\n    //// vvvvvv NO TESTED vvvvvvv\n    function widrowCreditExpire(uint _idContract)external nonReentrant(){    \n        _widrowCreditExpire(msg.sender, _idContract);\n    }\n    function recoverCreditsExpired(uint _idContract)external nonReentrant(){\n        _RecoverCreditsExpired(msg.sender, _idContract);\n    }\n    function recoverSingleCreditExpired(uint _idContract,uint _idBorrow)external nonReentrant() {\n        _RecoverSingleCreditExpired(msg.sender, _idContract, _idBorrow);\n    }\n\n\n\n\n\n\n    event widrwCollateralLoan(uint _amount,address indexed _asset,uint indexed _idContract);\n    function _widrowCollateral(uint _amount,address _to,uint _idContract) internal {\n            require(_to  ==  _serchBorrowerPositionXContract(_idContract, _to).owner ,\"Not owner this loan\");\n            (,uint indexBorrow) = _serchIndexBorrowerXContract(_idContract, _to);\n            borrowersXid[_idContract][indexBorrow].ammounBorrow = InterestCalculator._getTotalLoan(\n                borrowersXid[_idContract][indexBorrow].ammounBorrow,\n                borrowersXid[_idContract][indexBorrow].aprLoan,\n                borrowersXid[_idContract][indexBorrow].blockStart);\n            require(borrowersXid[_idContract][indexBorrow].ammounBorrow >= _amount, \"You can only Loan amount\");\n            address _lender = borrowersXid[_idContract][indexBorrow].lender;\n            require(\n                _healFactor(\n                    oraclePrice(\n                        borrowersXid[_idContract][indexBorrow].assetCollaterl)*borrowersXid[_idContract][indexBorrow].amountCollateral -_amount,\n                    oraclePrice(\n                        borrowersXid[_idContract][indexBorrow].assetBorrow)*borrowersXid[_idContract][indexBorrow].ammounBorrow\n                        ) >  userLendingContract[_lender][_idContract].rateCollateral,\"This widrow compromises your loan\"   \n            );\n\n            userLendingContract[_lender][_idContract].amountCollateral -= _amount;\n            borrowersXid[_idContract][indexBorrow].blockStart = block.timestamp;\n            borrowersXid[_idContract][indexBorrow].liquidationThreshold = \n                _liquidationThresold(\n                      borrowersXid[_idContract][indexBorrow].ammounBorrow * \n                      oraclePrice(borrowersXid[_idContract][indexBorrow].assetBorrow),\n                      userLendingContract[_lender][_idContract].rateCollateral);\n\n            IERC20(borrowersXid[_idContract][indexBorrow].assetCollaterl).transfer(_to, _amount);\n            emit widrwCollateralLoan(_amount,borrowersXid[_idContract][indexBorrow].assetCollaterl, _idContract);\n\n    }\n\n \n   \n    // MODIFIER\n    modifier contractOwner(address _to,uint _idContract){\n        require(\n           _findContractLending(_to,_idContract).owner == _to, \"Not owner this contract\" \n        );\n        _;\n    }\n    // EVENT \n\n     event NewAssetAvvalible(address indexed asset, uint timeStart);\n     event NewContractDeposit(\n        uint Id,\n        address indexed owner,\n        address indexed asset,\n        uint amount,\n        uint apr,\n        uint  deadline,\n        uint  penality,\n        address indexed collateral\n     );\n     event IncreasContractDeposit(\n        uint Id,\n        uint indexed amount,\n        uint indexed newAmount\n     );\n     event DecreasContractDeposit(\n        uint Id,\n        uint indexed amount,\n        uint indexed newAmount\n     );\n\n     event DeleteContractDeposit(\n        address indexed owner,\n        uint indexed id\n     );\n     event Borrow( address indexed Borrower,uint indexed Id_Contract, uint amount);\n\n     event repay(address indexed _to, uint indexed _idContract,uint _amount);\n     event applyPenality(address indexed _to,uint  indexed _idContract,uint _amount);\n\n     event newTimeExpireIncreas(uint indexed _idContract, uint indexed _timeIncreas);\n     event newTimeExpireDecreas(uint indexed _idContract, uint indexed _timeIncreas);\n     event LiquidationCall (uint indexed _idContract,uint indexed _idBorrow, address assetsLiquidate, uint amount);\n\n     event RecoveryCredit(uint indexed _idContract,address indexed collateral, uint amount);\n     event RecoverySingleCredit(uint indexed _idContract,address indexed collateral, uint amount);\n     event WidrowCredit(address indexed _to,uint indexed _idContract,address indexed collateral, uint amount);\n\n    \n    \n    // mock function\n\n    //function _mockOracleBorrow() internal pure returns(uint price){\n    //    price = 2;\n    //}\n\n    //function _mockOracleCollateral() internal pure returns(uint price){\n    //    price = 1;\n//\n    //}\n\n\n}\n",
  "sourcePath": "/media/leluk/storage/Studio Dev/Dapp portfolio/individual lending/contracts/Individual_lending.sol",
  "compiler": {
    "name": "solc",
    "version": "0.8.7+commit.e28d00a7.Emscripten.clang"
  },
  "schemaVersion": "3.4.7",
  "updatedAt": "2022-07-01T19:43:24.181Z",
  "devdoc": {
    "kind": "dev",
    "methods": {
      "owner()": {
        "details": "Returns the address of the current owner."
      },
      "renounceOwnership()": {
        "details": "Leaves the contract without owner. It will not be possible to call `onlyOwner` functions anymore. Can only be called by the current owner. NOTE: Renouncing ownership will leave the contract without an owner, thereby removing any functionality that is only available to the owner."
      },
      "transferOwnership(address)": {
        "details": "Transfers ownership of the contract to a new account (`newOwner`). Can only be called by the current owner."
      }
    },
    "version": 1
  },
  "userdoc": {
    "kind": "user",
    "methods": {},
    "version": 1
  }
}