{
  "contractName": "lendingPage",
  "abi": [
    {
      "inputs": [
        {
          "internalType": "uint256",
          "name": "_minpenality",
          "type": "uint256"
        }
      ],
      "stateMutability": "nonpayable",
      "type": "constructor"
    },
    {
      "anonymous": false,
      "inputs": [
        {
          "indexed": true,
          "internalType": "address",
          "name": "Borrower",
          "type": "address"
        },
        {
          "indexed": true,
          "internalType": "uint256",
          "name": "Id_Contract",
          "type": "uint256"
        },
        {
          "indexed": false,
          "internalType": "uint256",
          "name": "amount",
          "type": "uint256"
        }
      ],
      "name": "Borrow",
      "type": "event"
    },
    {
      "anonymous": false,
      "inputs": [
        {
          "indexed": false,
          "internalType": "uint256",
          "name": "Id",
          "type": "uint256"
        },
        {
          "indexed": true,
          "internalType": "uint256",
          "name": "amount",
          "type": "uint256"
        },
        {
          "indexed": true,
          "internalType": "uint256",
          "name": "newAmount",
          "type": "uint256"
        }
      ],
      "name": "DecreasContractDeposit",
      "type": "event"
    },
    {
      "anonymous": false,
      "inputs": [
        {
          "indexed": true,
          "internalType": "address",
          "name": "owner",
          "type": "address"
        },
        {
          "indexed": true,
          "internalType": "uint256",
          "name": "id",
          "type": "uint256"
        }
      ],
      "name": "DeleteContractDeposit",
      "type": "event"
    },
    {
      "anonymous": false,
      "inputs": [
        {
          "indexed": false,
          "internalType": "uint256",
          "name": "Id",
          "type": "uint256"
        },
        {
          "indexed": true,
          "internalType": "uint256",
          "name": "amount",
          "type": "uint256"
        },
        {
          "indexed": true,
          "internalType": "uint256",
          "name": "newAmount",
          "type": "uint256"
        }
      ],
      "name": "IncreasContractDeposit",
      "type": "event"
    },
    {
      "anonymous": false,
      "inputs": [
        {
          "indexed": true,
          "internalType": "uint256",
          "name": "_idContract",
          "type": "uint256"
        },
        {
          "indexed": true,
          "internalType": "uint256",
          "name": "_idBorrow",
          "type": "uint256"
        },
        {
          "indexed": false,
          "internalType": "address",
          "name": "assetsLiquidate",
          "type": "address"
        },
        {
          "indexed": false,
          "internalType": "uint256",
          "name": "amount",
          "type": "uint256"
        }
      ],
      "name": "LiquidationCall",
      "type": "event"
    },
    {
      "anonymous": false,
      "inputs": [
        {
          "indexed": true,
          "internalType": "address",
          "name": "asset",
          "type": "address"
        },
        {
          "indexed": false,
          "internalType": "uint256",
          "name": "timeStart",
          "type": "uint256"
        }
      ],
      "name": "NewAssetAvvalible",
      "type": "event"
    },
    {
      "anonymous": false,
      "inputs": [
        {
          "indexed": false,
          "internalType": "uint256",
          "name": "Id",
          "type": "uint256"
        },
        {
          "indexed": true,
          "internalType": "address",
          "name": "owner",
          "type": "address"
        },
        {
          "indexed": true,
          "internalType": "address",
          "name": "asset",
          "type": "address"
        },
        {
          "indexed": false,
          "internalType": "uint256",
          "name": "amount",
          "type": "uint256"
        },
        {
          "indexed": false,
          "internalType": "uint256",
          "name": "apr",
          "type": "uint256"
        },
        {
          "indexed": false,
          "internalType": "uint256",
          "name": "deadline",
          "type": "uint256"
        },
        {
          "indexed": false,
          "internalType": "uint256",
          "name": "penality",
          "type": "uint256"
        },
        {
          "indexed": true,
          "internalType": "address",
          "name": "collateral",
          "type": "address"
        }
      ],
      "name": "NewContractDeposit",
      "type": "event"
    },
    {
      "anonymous": false,
      "inputs": [
        {
          "indexed": true,
          "internalType": "address",
          "name": "previousOwner",
          "type": "address"
        },
        {
          "indexed": true,
          "internalType": "address",
          "name": "newOwner",
          "type": "address"
        }
      ],
      "name": "OwnershipTransferred",
      "type": "event"
    },
    {
      "anonymous": false,
      "inputs": [
        {
          "indexed": true,
          "internalType": "uint256",
          "name": "_idContract",
          "type": "uint256"
        },
        {
          "indexed": true,
          "internalType": "address",
          "name": "collateral",
          "type": "address"
        },
        {
          "indexed": false,
          "internalType": "uint256",
          "name": "amount",
          "type": "uint256"
        }
      ],
      "name": "RecoveryCredit",
      "type": "event"
    },
    {
      "anonymous": false,
      "inputs": [
        {
          "indexed": true,
          "internalType": "uint256",
          "name": "_idContract",
          "type": "uint256"
        },
        {
          "indexed": true,
          "internalType": "address",
          "name": "collateral",
          "type": "address"
        },
        {
          "indexed": false,
          "internalType": "uint256",
          "name": "amount",
          "type": "uint256"
        }
      ],
      "name": "RecoverySingleCredit",
      "type": "event"
    },
    {
      "anonymous": false,
      "inputs": [
        {
          "indexed": true,
          "internalType": "address",
          "name": "_to",
          "type": "address"
        },
        {
          "indexed": true,
          "internalType": "uint256",
          "name": "_idContract",
          "type": "uint256"
        },
        {
          "indexed": true,
          "internalType": "address",
          "name": "collateral",
          "type": "address"
        },
        {
          "indexed": false,
          "internalType": "uint256",
          "name": "amount",
          "type": "uint256"
        }
      ],
      "name": "WidrowCredit",
      "type": "event"
    },
    {
      "anonymous": false,
      "inputs": [
        {
          "indexed": true,
          "internalType": "address",
          "name": "_to",
          "type": "address"
        },
        {
          "indexed": true,
          "internalType": "uint256",
          "name": "_idContract",
          "type": "uint256"
        },
        {
          "indexed": false,
          "internalType": "uint256",
          "name": "_amount",
          "type": "uint256"
        }
      ],
      "name": "applyPenality",
      "type": "event"
    },
    {
      "anonymous": false,
      "inputs": [
        {
          "indexed": true,
          "internalType": "uint256",
          "name": "_idContract",
          "type": "uint256"
        },
        {
          "indexed": true,
          "internalType": "uint256",
          "name": "_timeIncreas",
          "type": "uint256"
        }
      ],
      "name": "newTimeExpireDecreas",
      "type": "event"
    },
    {
      "anonymous": false,
      "inputs": [
        {
          "indexed": true,
          "internalType": "uint256",
          "name": "_idContract",
          "type": "uint256"
        },
        {
          "indexed": true,
          "internalType": "uint256",
          "name": "_timeIncreas",
          "type": "uint256"
        }
      ],
      "name": "newTimeExpireIncreas",
      "type": "event"
    },
    {
      "anonymous": false,
      "inputs": [
        {
          "indexed": true,
          "internalType": "address",
          "name": "_to",
          "type": "address"
        },
        {
          "indexed": true,
          "internalType": "uint256",
          "name": "_idContract",
          "type": "uint256"
        },
        {
          "indexed": false,
          "internalType": "uint256",
          "name": "_amount",
          "type": "uint256"
        }
      ],
      "name": "repay",
      "type": "event"
    },
    {
      "anonymous": false,
      "inputs": [
        {
          "indexed": true,
          "internalType": "address",
          "name": "asset",
          "type": "address"
        },
        {
          "indexed": false,
          "internalType": "uint256",
          "name": "amount",
          "type": "uint256"
        }
      ],
      "name": "widrowFeeEvent",
      "type": "event"
    },
    {
      "anonymous": false,
      "inputs": [
        {
          "indexed": false,
          "internalType": "uint256",
          "name": "_amount",
          "type": "uint256"
        },
        {
          "indexed": true,
          "internalType": "address",
          "name": "_asset",
          "type": "address"
        },
        {
          "indexed": true,
          "internalType": "uint256",
          "name": "_idContract",
          "type": "uint256"
        }
      ],
      "name": "widrwCollateralLoan",
      "type": "event"
    },
    {
      "inputs": [
        {
          "internalType": "address",
          "name": "_asset",
          "type": "address"
        },
        {
          "internalType": "address",
          "name": "_addressPriceFeed",
          "type": "address"
        }
      ],
      "name": "addAddressPriceeFeed",
      "outputs": [],
      "stateMutability": "nonpayable",
      "type": "function"
    },
    {
      "inputs": [
        {
          "internalType": "address",
          "name": "_priceFeed",
          "type": "address"
        }
      ],
      "name": "getLatestPrice",
      "outputs": [
        {
          "internalType": "int256",
          "name": "",
          "type": "int256"
        }
      ],
      "stateMutability": "view",
      "type": "function"
    },
    {
      "inputs": [
        {
          "internalType": "address",
          "name": "",
          "type": "address"
        }
      ],
      "name": "mockprice",
      "outputs": [
        {
          "internalType": "uint256",
          "name": "",
          "type": "uint256"
        }
      ],
      "stateMutability": "view",
      "type": "function"
    },
    {
      "inputs": [],
      "name": "owner",
      "outputs": [
        {
          "internalType": "address",
          "name": "",
          "type": "address"
        }
      ],
      "stateMutability": "view",
      "type": "function"
    },
    {
      "inputs": [],
      "name": "renounceOwnership",
      "outputs": [],
      "stateMutability": "nonpayable",
      "type": "function"
    },
    {
      "inputs": [
        {
          "internalType": "address",
          "name": "_asset",
          "type": "address"
        },
        {
          "internalType": "uint256",
          "name": "_price",
          "type": "uint256"
        }
      ],
      "name": "setMockPrice",
      "outputs": [],
      "stateMutability": "nonpayable",
      "type": "function"
    },
    {
      "inputs": [
        {
          "internalType": "address",
          "name": "_to",
          "type": "address"
        },
        {
          "internalType": "uint256",
          "name": "_idContract",
          "type": "uint256"
        },
        {
          "internalType": "uint256",
          "name": "_time",
          "type": "uint256"
        }
      ],
      "name": "setTimeExpire",
      "outputs": [],
      "stateMutability": "nonpayable",
      "type": "function"
    },
    {
      "inputs": [
        {
          "internalType": "address",
          "name": "newOwner",
          "type": "address"
        }
      ],
      "name": "transferOwnership",
      "outputs": [],
      "stateMutability": "nonpayable",
      "type": "function"
    },
    {
      "inputs": [
        {
          "internalType": "address",
          "name": "_asset",
          "type": "address"
        }
      ],
      "name": "widrowFeeContract",
      "outputs": [],
      "stateMutability": "nonpayable",
      "type": "function"
    },
    {
      "inputs": [
        {
          "internalType": "address",
          "name": "_newAsset",
          "type": "address"
        }
      ],
      "name": "setAssettAvvalible",
      "outputs": [],
      "stateMutability": "nonpayable",
      "type": "function"
    },
    {
      "inputs": [
        {
          "internalType": "address",
          "name": "_asset",
          "type": "address"
        }
      ],
      "name": "findAsset",
      "outputs": [
        {
          "internalType": "bool",
          "name": "",
          "type": "bool"
        }
      ],
      "stateMutability": "view",
      "type": "function"
    },
    {
      "inputs": [
        {
          "internalType": "address",
          "name": "_asset",
          "type": "address"
        },
        {
          "internalType": "uint256",
          "name": "_amount",
          "type": "uint256"
        },
        {
          "internalType": "uint256",
          "name": "_apr",
          "type": "uint256"
        },
        {
          "internalType": "uint256",
          "name": "_deadline",
          "type": "uint256"
        },
        {
          "internalType": "uint256",
          "name": "_penality",
          "type": "uint256"
        },
        {
          "internalType": "address",
          "name": "_collateral",
          "type": "address"
        },
        {
          "internalType": "uint256",
          "name": "_rateCollateral",
          "type": "uint256"
        }
      ],
      "name": "deposit",
      "outputs": [],
      "stateMutability": "nonpayable",
      "type": "function"
    },
    {
      "inputs": [
        {
          "internalType": "address",
          "name": "_user",
          "type": "address"
        }
      ],
      "name": "listContractXuser",
      "outputs": [
        {
          "internalType": "uint256[]",
          "name": "",
          "type": "uint256[]"
        }
      ],
      "stateMutability": "view",
      "type": "function"
    },
    {
      "inputs": [],
      "name": "getAssettAvvalible",
      "outputs": [
        {
          "internalType": "address[]",
          "name": "",
          "type": "address[]"
        }
      ],
      "stateMutability": "view",
      "type": "function"
    },
    {
      "inputs": [
        {
          "internalType": "address",
          "name": "_to",
          "type": "address"
        },
        {
          "internalType": "uint256",
          "name": "_id",
          "type": "uint256"
        }
      ],
      "name": "findContractLending",
      "outputs": [
        {
          "components": [
            {
              "internalType": "uint256",
              "name": "id",
              "type": "uint256"
            },
            {
              "internalType": "address",
              "name": "owner",
              "type": "address"
            },
            {
              "internalType": "bool",
              "name": "lock",
              "type": "bool"
            },
            {
              "internalType": "address",
              "name": "asset",
              "type": "address"
            },
            {
              "internalType": "uint256",
              "name": "amountAvvalible",
              "type": "uint256"
            },
            {
              "internalType": "uint256",
              "name": "apr",
              "type": "uint256"
            },
            {
              "internalType": "uint256",
              "name": "duration",
              "type": "uint256"
            },
            {
              "internalType": "uint256",
              "name": "penality",
              "type": "uint256"
            },
            {
              "internalType": "address",
              "name": "collateral",
              "type": "address"
            },
            {
              "internalType": "uint256",
              "name": "amountBorrow",
              "type": "uint256"
            },
            {
              "internalType": "uint256",
              "name": "rateCollateral",
              "type": "uint256"
            },
            {
              "internalType": "uint256",
              "name": "amountCollateral",
              "type": "uint256"
            }
          ],
          "internalType": "struct Storage.LendingContract",
          "name": "",
          "type": "tuple"
        }
      ],
      "stateMutability": "view",
      "type": "function"
    },
    {
      "inputs": [
        {
          "internalType": "uint256",
          "name": "_idContract",
          "type": "uint256"
        },
        {
          "internalType": "uint256",
          "name": "_increasAmount",
          "type": "uint256"
        }
      ],
      "name": "increasDeposit",
      "outputs": [],
      "stateMutability": "nonpayable",
      "type": "function"
    },
    {
      "inputs": [
        {
          "internalType": "uint256",
          "name": "_idContract",
          "type": "uint256"
        },
        {
          "internalType": "uint256",
          "name": "_decreasAmount",
          "type": "uint256"
        }
      ],
      "name": "decreasDeposit",
      "outputs": [],
      "stateMutability": "nonpayable",
      "type": "function"
    },
    {
      "inputs": [
        {
          "internalType": "uint256",
          "name": "_idContract",
          "type": "uint256"
        }
      ],
      "name": "deleteContract",
      "outputs": [],
      "stateMutability": "nonpayable",
      "type": "function"
    },
    {
      "inputs": [
        {
          "internalType": "uint256",
          "name": "_idContract",
          "type": "uint256"
        },
        {
          "internalType": "address",
          "name": "_lender",
          "type": "address"
        },
        {
          "internalType": "uint256",
          "name": "_amountBorrow",
          "type": "uint256"
        },
        {
          "internalType": "address",
          "name": "_assettCollateral",
          "type": "address"
        },
        {
          "internalType": "uint256",
          "name": "_amountCollateral",
          "type": "uint256"
        }
      ],
      "name": "executeBorrow",
      "outputs": [],
      "stateMutability": "nonpayable",
      "type": "function"
    },
    {
      "inputs": [
        {
          "internalType": "uint256",
          "name": "_idContract",
          "type": "uint256"
        },
        {
          "internalType": "address",
          "name": "_borrower",
          "type": "address"
        }
      ],
      "name": "serchBorrowerPositionXContract",
      "outputs": [
        {
          "components": [
            {
              "internalType": "address",
              "name": "owner",
              "type": "address"
            },
            {
              "internalType": "uint256",
              "name": "idContract",
              "type": "uint256"
            },
            {
              "internalType": "address",
              "name": "assetBorrow",
              "type": "address"
            },
            {
              "internalType": "uint256",
              "name": "ammounBorrow",
              "type": "uint256"
            },
            {
              "internalType": "address",
              "name": "assetCollaterl",
              "type": "address"
            },
            {
              "internalType": "uint256",
              "name": "amountCollateral",
              "type": "uint256"
            },
            {
              "internalType": "uint256",
              "name": "liquidationThreshold",
              "type": "uint256"
            },
            {
              "internalType": "uint256",
              "name": "expiration",
              "type": "uint256"
            },
            {
              "internalType": "uint256",
              "name": "blockStart",
              "type": "uint256"
            },
            {
              "internalType": "uint256",
              "name": "aprLoan",
              "type": "uint256"
            },
            {
              "internalType": "address",
              "name": "lender",
              "type": "address"
            }
          ],
          "internalType": "struct Storage.Borrower",
          "name": "",
          "type": "tuple"
        }
      ],
      "stateMutability": "view",
      "type": "function"
    },
    {
      "inputs": [
        {
          "internalType": "uint256",
          "name": "_idContract",
          "type": "uint256"
        },
        {
          "internalType": "address",
          "name": "_borrower",
          "type": "address"
        }
      ],
      "name": "serchIndexBorrowerXContract",
      "outputs": [
        {
          "internalType": "uint256",
          "name": "",
          "type": "uint256"
        }
      ],
      "stateMutability": "view",
      "type": "function"
    },
    {
      "inputs": [
        {
          "internalType": "address",
          "name": "_to",
          "type": "address"
        },
        {
          "internalType": "uint256",
          "name": "_idContract",
          "type": "uint256"
        },
        {
          "internalType": "bool",
          "name": "_lock",
          "type": "bool"
        }
      ],
      "name": "lockNewBorrow",
      "outputs": [],
      "stateMutability": "nonpayable",
      "type": "function"
    },
    {
      "inputs": [
        {
          "internalType": "address",
          "name": "_borrower",
          "type": "address"
        },
        {
          "internalType": "uint256",
          "name": "_idContract",
          "type": "uint256"
        }
      ],
      "name": "viewAmountLoan",
      "outputs": [
        {
          "internalType": "uint256",
          "name": "loanCompouse",
          "type": "uint256"
        }
      ],
      "stateMutability": "view",
      "type": "function"
    },
    {
      "inputs": [
        {
          "internalType": "uint256",
          "name": "_idContract",
          "type": "uint256"
        },
        {
          "internalType": "uint256",
          "name": "_amount",
          "type": "uint256"
        }
      ],
      "name": "executeRepay",
      "outputs": [],
      "stateMutability": "nonpayable",
      "type": "function"
    },
    {
      "inputs": [
        {
          "internalType": "uint256",
          "name": "_idContract",
          "type": "uint256"
        },
        {
          "internalType": "uint256",
          "name": "_timeIncreas",
          "type": "uint256"
        }
      ],
      "name": "increaseTimeExpire",
      "outputs": [],
      "stateMutability": "nonpayable",
      "type": "function"
    },
    {
      "inputs": [
        {
          "internalType": "uint256",
          "name": "_idContract",
          "type": "uint256"
        },
        {
          "internalType": "uint256",
          "name": "_timeIncreas",
          "type": "uint256"
        }
      ],
      "name": "decreaseTimeExpire",
      "outputs": [],
      "stateMutability": "nonpayable",
      "type": "function"
    },
    {
      "inputs": [
        {
          "internalType": "uint256",
          "name": "_idContract",
          "type": "uint256"
        },
        {
          "internalType": "uint256",
          "name": "_idBorrow",
          "type": "uint256"
        }
      ],
      "name": "liquidationCall",
      "outputs": [],
      "stateMutability": "nonpayable",
      "type": "function"
    },
    {
      "inputs": [],
      "name": "viewListcontract",
      "outputs": [
        {
          "internalType": "uint256[]",
          "name": "list",
          "type": "uint256[]"
        }
      ],
      "stateMutability": "view",
      "type": "function"
    },
    {
      "inputs": [
        {
          "internalType": "uint256",
          "name": "_idContract",
          "type": "uint256"
        }
      ],
      "name": "widrowCreditExpire",
      "outputs": [],
      "stateMutability": "nonpayable",
      "type": "function"
    },
    {
      "inputs": [
        {
          "internalType": "uint256",
          "name": "_idContract",
          "type": "uint256"
        }
      ],
      "name": "recoverCreditsExpired",
      "outputs": [],
      "stateMutability": "nonpayable",
      "type": "function"
    },
    {
      "inputs": [
        {
          "internalType": "uint256",
          "name": "_idContract",
          "type": "uint256"
        },
        {
          "internalType": "uint256",
          "name": "_idBorrow",
          "type": "uint256"
        }
      ],
      "name": "recoverSingleCreditExpired",
      "outputs": [],
      "stateMutability": "nonpayable",
      "type": "function"
    }
  ],
  "bytecode": "0x60806040523480156200001157600080fd5b50604051620055c4380380620055c48339810160408190526200003491620000c2565b6200003f3362000067565b6001600b819055506200005e6007620000b960201b62000ef61760201c565b600155620000dc565b600a80546001600160a01b038381166001600160a01b0319831681179093556040519116919082907f8be0079c531659141344cd1fd0a4f28419497f9722a3daafe3b4186f6b6457e090600090a35050565b80546001019055565b600060208284031215620000d557600080fd5b5051919050565b6154d880620000ec6000396000f3fe608060405234801561001057600080fd5b50600436106101e55760003560e01c80637ecf43b91161010f578063dc627408116100a2578063e619515811610071578063e61951581461044f578063f2fde38b14610462578063f4163f2114610475578063facd53ff1461048857600080fd5b8063dc627408146103e6578063e1e3769b146103f9578063e236b6f01461040c578063e2bb0eb91461042c57600080fd5b8063a54bbcb7116100de578063a54bbcb714610376578063aa67414914610396578063b48477dc146103a9578063cfb4d885146103bc57600080fd5b80637ecf43b9146103225780638990616d146103355780638da5cb5b146103485780639c467d3a1461036357600080fd5b806347087215116101875780636f25b8f6116101565780636f25b8f6146102df578063715018a6146102f2578063726adaa4146102fa5780637cb6f38f1461030f57600080fd5b8063470872151461029e5780635473bc60146102b15780636893d336146102b95780636a0556e2146102cc57600080fd5b806316345f18116101c357806316345f181461023857806319dda45c1461024b5780632690046d1461025e578063460e90d01461027e57600080fd5b806308dde662146101ea5780630f901860146102105780631392ed7514610225575b600080fd5b6101fd6101f8366004614f82565b61049b565b6040519081526020015b60405180910390f35b61022361021e366004614f34565b6104d8565b005b61022361023336600461501f565b61058e565b6101fd610246366004614f34565b6105f2565b610223610259366004615142565b610678565b6101fd61026c366004614f34565b600c6020526000908152604090205481565b61029161028c366004614f34565b6106d2565b6040516102079190615201565b6102236102ac366004615142565b6106e3565b610291610734565b6102236102c736600461509f565b61078c565b6102236102da366004615142565b6107dc565b6102236102ed3660046150f4565b61082d565b61022361088d565b6103026108f3565b60405161020791906151b4565b61022361031d366004615142565b610902565b610223610330366004614fec565b610953565b610223610343366004614f34565b610993565b600a546040516001600160a01b039091168152602001610207565b61022361037136600461509f565b610a87565b6103896103843660046150d1565b610ad7565b6040516102079190615239565b6102236103a4366004614fac565b610b62565b6102236103b7366004615142565b610bbd565b6102236103ca366004614f82565b6001600160a01b039091166000908152600c6020526040902055565b6102236103f436600461509f565b610c0e565b6101fd6104073660046150d1565b610c5e565b61041f61041a366004614f82565b610c74565b60405161020791906152e6565b61043f61043a366004614f34565b610cff565b6040519015158152602001610207565b61022361045d366004615142565b610d0a565b610223610470366004614f34565b610d5b565b610223610483366004615142565b610e3d565b610223610496366004614f4f565b610e8e565b60006104d16104aa8385610eff565b606001516104b88486610eff565b61012001516104c78587610eff565b610100015161112d565b9392505050565b600a546001600160a01b031633146105375760405162461bcd60e51b815260206004820181905260248201527f4f776e61626c653a2063616c6c6572206973206e6f7420746865206f776e657260448201526064015b60405180910390fd5b6002600b5414156105785760405162461bcd60e51b815260206004820152601f6024820152600080516020615483833981519152604482015260640161052e565b6002600b55610586816111a1565b506001600b55565b6002600b5414156105cf5760405162461bcd60e51b815260206004820152601f6024820152600080516020615483833981519152604482015260640161052e565b6002600b556105e433888888888888886112b6565b50506001600b555050505050565b6000808290506000816001600160a01b031663feaf968c6040518163ffffffff1660e01b815260040160a06040518083038186803b15801561063357600080fd5b505afa158015610647573d6000803e3d6000fd5b505050506040513d601f19601f8201168201806040525081019061066b9190615164565b5091979650505050505050565b6002600b5414156106b95760405162461bcd60e51b815260206004820152601f6024820152600080516020615483833981519152604482015260640161052e565b6002600b556106c9338383611989565b50506001600b55565b60606106dd82611d37565b92915050565b6002600b5414156107245760405162461bcd60e51b815260206004820152601f6024820152600080516020615483833981519152604482015260640161052e565b6002600b556106c9338383611da3565b6060600480548060200260200160405190810160405280929190818152602001828054801561078257602002820191906000526020600020905b81548152602001906001019080831161076e575b5050505050905090565b6002600b5414156107cd5760405162461bcd60e51b815260206004820152601f6024820152600080516020615483833981519152604482015260640161052e565b6002600b556105863382612000565b6002600b54141561081d5760405162461bcd60e51b815260206004820152601f6024820152600080516020615483833981519152604482015260640161052e565b6002600b556106c9338383612447565b6002600b54141561086e5760405162461bcd60e51b815260206004820152601f6024820152600080516020615483833981519152604482015260640161052e565b6002600b5561088133868686868661274d565b50506001600b55505050565b600a546001600160a01b031633146108e75760405162461bcd60e51b815260206004820181905260248201527f4f776e61626c653a2063616c6c6572206973206e6f7420746865206f776e6572604482015260640161052e565b6108f16000612973565b565b60606108fd6129c5565b905090565b6002600b5414156109435760405162461bcd60e51b815260206004820152601f6024820152600080516020615483833981519152604482015260640161052e565b6002600b556106c9338383612a26565b6001600160a01b0383166000908152600260209081526040808320858452909152812060050180548392906109899084906153a7565b9091555050505050565b6002600b5414156109d45760405162461bcd60e51b815260206004820152601f6024820152600080516020615483833981519152604482015260640161052e565b6002600b55600a546001600160a01b03163314610a335760405162461bcd60e51b815260206004820181905260248201527f4f776e61626c653a2063616c6c6572206973206e6f7420746865206f776e6572604482015260640161052e565b610a3c81612b59565b806001600160a01b03167f1406601fca80ce2dde347c6c1c000309440d0365c2b5786f1608d7b1e76dd12d42604051610a7791815260200190565b60405180910390a2506001600b55565b6002600b541415610ac85760405162461bcd60e51b815260206004820152601f6024820152600080516020615483833981519152604482015260640161052e565b6002600b556105863382612c54565b610b5860405180610160016040528060006001600160a01b031681526020016000815260200160006001600160a01b031681526020016000815260200160006001600160a01b03168152602001600081526020016000815260200160008152602001600081526020016000815260200160006001600160a01b031681525090565b6104d18383610eff565b6002600b541415610ba35760405162461bcd60e51b815260206004820152601f6024820152600080516020615483833981519152604482015260640161052e565b6002600b55610bb3838383612de5565b50506001600b5550565b6002600b541415610bfe5760405162461bcd60e51b815260206004820152601f6024820152600080516020615483833981519152604482015260640161052e565b6002600b556106c9338383612eae565b6002600b541415610c4f5760405162461bcd60e51b815260206004820152601f6024820152600080516020615483833981519152604482015260640161052e565b6002600b556105863382613584565b600080610c6b8484613789565b95945050505050565b610cf56040518061018001604052806000815260200160006001600160a01b0316815260200160001515815260200160006001600160a01b031681526020016000815260200160008152602001600081526020016000815260200160006001600160a01b031681526020016000815260200160008152602001600081525090565b6104d1838361381e565b60006106dd82613959565b6002600b541415610d4b5760405162461bcd60e51b815260206004820152601f6024820152600080516020615483833981519152604482015260640161052e565b6002600b556106c93383836139c3565b600a546001600160a01b03163314610db55760405162461bcd60e51b815260206004820181905260248201527f4f776e61626c653a2063616c6c6572206973206e6f7420746865206f776e6572604482015260640161052e565b6001600160a01b038116610e315760405162461bcd60e51b815260206004820152602660248201527f4f776e61626c653a206e6577206f776e657220697320746865207a65726f206160448201527f6464726573730000000000000000000000000000000000000000000000000000606482015260840161052e565b610e3a81612973565b50565b6002600b541415610e7e5760405162461bcd60e51b815260206004820152601f6024820152600080516020615483833981519152604482015260640161052e565b6002600b556106c9338383613a9c565b600a546001600160a01b03163314610ee85760405162461bcd60e51b815260206004820181905260248201527f4f776e61626c653a2063616c6c6572206973206e6f7420746865206f776e6572604482015260640161052e565b610ef28282613b75565b5050565b80546001019055565b610f8060405180610160016040528060006001600160a01b031681526020016000815260200160006001600160a01b031681526020016000815260200160006001600160a01b03168152602001600081526020016000815260200160008152602001600081526020016000815260200160006001600160a01b031681525090565b60005b6000848152600660205260409020548110156110be57600084815260066020526040902080546001600160a01b038516919083908110610fc557610fc561545e565b60009182526020909120600b90910201546001600160a01b031614156110ac5760008481526006602052604090208054829081106110055761100561545e565b60009182526020918290206040805161016081018252600b90930290910180546001600160a01b039081168452600182015494840194909452600281015484169183019190915260038101546060830152600481015483166080830152600581015460a0830152600681015460c0830152600781015460e083015260088101546101008301526009810154610120830152600a015490911661014082015291506106dd9050565b806110b681615417565b915050610f83565b5060405162461bcd60e51b815260206004820152602660248201527f426f72726f77657220666f72207468697320636f6e7472616374206e6f74207060448201527f726573656e740000000000000000000000000000000000000000000000000000606482015260840161052e565b60008061113a8342615400565b90506000606463bbf81e0083611150888a6153e1565b61115a91906153e1565b61116491906153bf565b61116e91906153bf565b61117890876153a7565b6111839060016153a7565b905060018111611198576000925050506104d1565b91506104d19050565b6001600160a01b038116600081815260086020526040812080549190559063a9059cbb6111d6600a546001600160a01b031690565b6040517fffffffff0000000000000000000000000000000000000000000000000000000060e084901b1681526001600160a01b03909116600482015260248101849052604401602060405180830381600087803b15801561123657600080fd5b505af115801561124a573d6000803e3d6000fd5b505050506040513d601f19601f8201168201806040525081019061126e9190615082565b50816001600160a01b03167fb5421d97828b089e7660952a6dbdd122d3dde17a9629a0f6218fd9cc08885b85826040516112aa91815260200190565b60405180910390a25050565b6001600160a01b03881661130c5760405162461bcd60e51b815260206004820152600f60248201527f696e76616c696420616464726573730000000000000000000000000000000000604482015260640161052e565b816001600160a01b0316876001600160a01b0316141561136e5760405162461bcd60e51b815260206004820152601460248201527f636f6c6c61746572616c206e6f742076616c6964000000000000000000000000604482015260640161052e565b61137787613959565b6113c35760405162461bcd60e51b815260206004820152601160248201527f617373657420646f6e277420666f756e64000000000000000000000000000000604482015260640161052e565b6113cc82613959565b6114185760405162461bcd60e51b815260206004820152601660248201527f636f6c6c61746572616c20646f6e277420666f756e6400000000000000000000604482015260640161052e565b6040516370a0823160e01b81526001600160a01b0389811660048301528791908916906370a082319060240160206040518083038186803b15801561145c57600080fd5b505afa158015611470573d6000803e3d6000fd5b505050506040513d601f19601f8201168201806040525081019061149491906150b8565b10156114e25760405162461bcd60e51b815260206004820152601060248201527f62616c616e63652075736572206c6f7700000000000000000000000000000000604482015260640161052e565b604051636eb1769f60e11b81526001600160a01b03898116600483015230602483015287919089169063dd62ed3e9060440160206040518083038186803b15801561152c57600080fd5b505afa158015611540573d6000803e3d6000fd5b505050506040513d601f19601f8201168201806040525081019061156491906150b8565b10156115b25760405162461bcd60e51b815260206004820152601160248201527f616c6f77616e63652075736572206c6f77000000000000000000000000000000604482015260640161052e565b600084116116025760405162461bcd60e51b815260206004820152601b60248201527f646561646c696e65206d75737420686176652067656174656520300000000000604482015260640161052e565b6001548310156116545760405162461bcd60e51b815260206004820152601a60248201527f70656e616c697479206d75737420686176652067656174652030000000000000604482015260640161052e565b6040516323b872dd60e01b81526001600160a01b038981166004830152306024830152604482018890528816906323b872dd90606401602060405180830381600087803b1580156116a457600080fd5b505af11580156116b8573d6000803e3d6000fd5b505050506040513d601f19601f820116820180604052508101906116dc9190615082565b5060006127106116ed88600a6153e1565b6116f791906153bf565b6117029060016153a7565b6001600160a01b03891660009081526008602052604081208054929350839290919061172f9084906153a7565b92505081905550600060405180610180016040528061174d60075490565b81526001600160a01b03808d166020830152600060408301528b16606082015260800161177a848b615400565b8152602001888152602001878152602001868152602001856001600160a01b03168152602001600081526020018481526020016000815250905080600260008c6001600160a01b03166001600160a01b0316815260200190815260200160002060006117e560075490565b815260208082019290925260409081016000208351815591830151600183018054928501511515600160a01b0274ffffffffffffffffffffffffffffffffffffffffff199093166001600160a01b03928316179290921790915560608301516002830180549183166001600160a01b03199283161790556080840151600384015560a0840151600484015560c0840151600584015560e084015160068401556101008401516007808501805492851692909316919091179091556101208401516008840155610140840151600984015561016090930151600a90920191909155858116918b8216918d16907f73ccc975565e11201f9228f86b04c2090d856488dd73ce7f1b63b9609708ee47906118fa905490565b60408051918252602082018e905281018c9052606081018b9052608081018a905260a00160405180910390a46001600160a01b038a1660009081526003602090815260408220600780548254600181018455928552929093200155546004908154600181018355600092835260209092209091015561197d600780546001019055565b50505050505050505050565b8282816001600160a01b031661199f838361381e565b602001516001600160a01b0316146119f35760405162461bcd60e51b8152602060048201526017602482015276139bdd081bdddb995c881d1a1a5cc818dbdb9d1c9858dd604a1b604482015260640161052e565b60008311611a435760405162461bcd60e51b815260206004820152601660248201527f696e6372656173206d75737420626520706c7573203000000000000000000000604482015260640161052e565b82611a4e868661381e565b606001516040516370a0823160e01b81526001600160a01b038881166004830152909116906370a082319060240160206040518083038186803b158015611a9457600080fd5b505afa158015611aa8573d6000803e3d6000fd5b505050506040513d601f19601f82011682018060405250810190611acc91906150b8565b1015611b1a5760405162461bcd60e51b815260206004820152601060248201527f62616c616e63652075736572206c6f7700000000000000000000000000000000604482015260640161052e565b82611b25868661381e565b60600151604051636eb1769f60e11b81526001600160a01b0388811660048301523060248301529091169063dd62ed3e9060440160206040518083038186803b158015611b7157600080fd5b505afa158015611b85573d6000803e3d6000fd5b505050506040513d601f19601f82011682018060405250810190611ba991906150b8565b1015611bf75760405162461bcd60e51b815260206004820152601160248201527f616c6f77616e63652075736572206c6f77000000000000000000000000000000604482015260640161052e565b611c01858561381e565b606001516040516323b872dd60e01b81526001600160a01b03878116600483015230602483015260448201869052909116906323b872dd90606401602060405180830381600087803b158015611c5657600080fd5b505af1158015611c6a573d6000803e3d6000fd5b505050506040513d601f19601f82011682018060405250810190611c8e9190615082565b506001600160a01b038516600090815260026020908152604080832087845290915281206003018054859290611cc59084906153a7565b90915550611cd59050858561381e565b6080015183611ce4878761381e565b60800151611cf29190615400565b7f70b5eec6cec01e52d9243bac64c12e4fd128a2f20105af16919ae212e224fc65611d1d888861381e565b516040519081526020015b60405180910390a35050505050565b6001600160a01b038116600090815260036020908152604091829020805483518184028101840190945280845260609392830182828015611d9757602002820191906000526020600020905b815481526020019060010190808311611d83575b50505050509050919050565b8282816001600160a01b0316611db9838361381e565b602001516001600160a01b031614611e0d5760405162461bcd60e51b8152602060048201526017602482015276139bdd081bdddb995c881d1a1a5cc818dbdb9d1c9858dd604a1b604482015260640161052e565b60008311611e5d5760405162461bcd60e51b815260206004820152601660248201527f696e6372656173206d75737420626520706c7573203000000000000000000000604482015260640161052e565b82611e68868661381e565b608001511015611ee05760405162461bcd60e51b815260206004820152602e60248201527f41737365747420617676616c69626c6520696e73756666696369656e7420666f60448201527f7220746869732077686964726f77000000000000000000000000000000000000606482015260840161052e565b6001600160a01b038516600090815260026020908152604080832087845290915281206003018054859290611f16908490615400565b90915550611f269050858561381e565b6060015160405163a9059cbb60e01b81526001600160a01b038781166004830152602482018690529091169063a9059cbb90604401602060405180830381600087803b158015611f7557600080fd5b505af1158015611f89573d6000803e3d6000fd5b505050506040513d601f19601f82011682018060405250810190611fad9190615082565b50611fb8858561381e565b6080015183611fc7878761381e565b60800151611fd591906153a7565b7f510055a9c40582bc6ad0cab1e5b0421194c4d34435a16960ec71333bf8bc70cf611d1d888861381e565b8181816001600160a01b0316612016838361381e565b602001516001600160a01b03161461206a5760405162461bcd60e51b8152602060048201526017602482015276139bdd081bdddb995c881d1a1a5cc818dbdb9d1c9858dd604a1b604482015260640161052e565b612074848461381e565b6101200151156120c65760405162461bcd60e51b815260206004820152601d60248201527f436f6e7472616374206861766520617373657420696e20626f72726f77000000604482015260640161052e565b6001600160a01b038416600090815260026020908152604080832086845290915281206003810154905490916120fc878761381e565b606001516001600160a01b03881660008181526002602081815260408084208c8552825280842084815560018101805474ffffffffffffffffffffffffffffffffffffffffff1916905592830180546001600160a01b031990811690915560038085018690556004850186905560058501869055600685018690556007850180549092169091556008840185905560098401859055600a90930184905593835252205490915015612288576000806121b48985613c8a565b915091508015612281576001600160a01b038916600090815260036020526040902080546121e490600190615400565b815481106121f4576121f461545e565b9060005260206000200154600360008b6001600160a01b03166001600160a01b0316815260200190815260200160002083815481106122355761223561545e565b60009182526020808320909101929092556001600160a01b038b16815260039091526040902080548061226a5761226a615448565b600190038181906000526020600020016000905590555b50506122c6565b6001600160a01b03871660009081526003602052604090208054806122af576122af615448565b600190038181906000526020600020016000905590555b6004541561235d576000806122da88613d09565b91509150801561235657600480546122f490600190615400565b815481106123045761230461545e565b9060005260206000200154600483815481106123225761232261545e565b600091825260209091200155600480548061233f5761233f615448565b600190038181906000526020600020016000905590555b5050612385565b600480548061236e5761236e615448565b600190038181906000526020600020016000905590555b60405163a9059cbb60e01b81526001600160a01b0388811660048301526024820185905282169063a9059cbb90604401602060405180830381600087803b1580156123cf57600080fd5b505af11580156123e3573d6000803e3d6000fd5b505050506040513d601f19601f820116820180604052508101906124079190615082565b5060405182906001600160a01b038916907ffd6e81c22721a918c2e59966d2b020f6ccf1fe46d783cc4053c75c1a9fa837f090600090a350505050505050565b8282816001600160a01b031661245d838361381e565b602001516001600160a01b0316146124b15760405162461bcd60e51b8152602060048201526017602482015276139bdd081bdddb995c881d1a1a5cc818dbdb9d1c9858dd604a1b604482015260640161052e565b6124bd85856001612de5565b60006124c98585613d66565b6124d390826153a7565b60008681526006602052604090208054919250906124f390600190615400565b815481106125035761250361545e565b90600052602060002090600b02016006600087815260200190815260200160002085815481106125355761253561545e565b600091825260208083208454600b9093020180546001600160a01b03199081166001600160a01b03948516178255600180870154908301556002808701549083018054831691861691909117905560038087015490830155600480870154908301805483169186169190911790556005808701549083015560068087015481840155600780880154908401556008808801549084015560098088015490840155600a968701549690920180549091169590931694909417909155878252919091526040902080548061260957612609615448565b60008281526020808220600b6000199094019384020180546001600160a01b03199081168255600182018490556002808301805483169055600383018590556004830180548316905560058084018690556006840186905560078085018790556008850187905560098501879055600a9094018054909316909255949095556001600160a01b038b8116845294825260408084209483528084208b855283528084209091015490941682529190915290812080548392906126cb9084906153a7565b90915550506001600160a01b0386811660008181526002602090815260408083208a8452825280832060070154938352600582528083209390941680835292815290839020549251928352909187917f51b6f2197ad2e62ecef8decac1977b853a4ad371e0d8fb444b1d8521af5596c5910160405180910390a3505050505050565b6001600160a01b0384166000908152600260209081526040808320888452909152902060010154600160a01b900460ff16156127f15760405162461bcd60e51b815260206004820152603060248201527f54686973206c656e6465722068617320626c6f636b656420746865206973737560448201527f616e6365206f66206e6577204c6f616e00000000000000000000000000000000606482015260840161052e565b60006127fd8587613c8a565b9150508061284d5760405162461bcd60e51b815260206004820152601360248201527f636f6e747261637420646f6e7420657869737400000000000000000000000000604482015260640161052e565b6001600160a01b03851660009081526002602090815260408083208984529091529020600301548411156128c35760405162461bcd60e51b815260206004820152601460248201527f416d6f756e7420617676616c69626c65206c6f77000000000000000000000000604482015260640161052e565b6001600160a01b038516600090815260026020908152604080832089845290915281206009015490806128f6898b613789565b91509150816129135761290e8a898b89898c89614267565b612923565b6129238a898b89898c8988614352565b888a6001600160a01b03167fe1979fe4c35e0cef342fef5668e2c8e7a7e9f5d5d1ca8fee0ac6c427fa4153af8960405161295f91815260200190565b60405180910390a350505050505050505050565b600a80546001600160a01b038381166001600160a01b0319831681179093556040519116919082907f8be0079c531659141344cd1fd0a4f28419497f9722a3daafe3b4186f6b6457e090600090a35050565b6060600080548060200260200160405190810160405280929190818152602001828054801561078257602002820191906000526020600020905b81546001600160a01b031681526001909101906020018083116129ff575050505050905090565b612a308284610eff565b516001600160a01b03848116911614612a8b5760405162461bcd60e51b815260206004820152601360248201527f4e6f74206f776e65722074686973206c6f616e00000000000000000000000000604482015260640161052e565b612a958284610eff565b60e00151421115612ab957612aab818484614713565b612ab457600080fd5b612b10565b612ac4818484614950565b612b105760405162461bcd60e51b815260206004820152600b60248201527f5265706179206572726f72000000000000000000000000000000000000000000604482015260640161052e565b81836001600160a01b03167f8cd2e0c7fd550a74312e3075f80ebbb071970c93280ed06e9101b48e1299bbf883604051612b4c91815260200190565b60405180910390a3505050565b6001600160a01b038116612baf5760405162461bcd60e51b815260206004820152600f60248201527f696e76616c696420616464726573730000000000000000000000000000000000604482015260640161052e565b612bb881613959565b15612c055760405162461bcd60e51b815260206004820152601660248201527f41737365747420616c726561647920696e206c69737400000000000000000000604482015260640161052e565b600080546001810182559080527f290decd9548b62a8d60345a988386fc84ba6bc95484008f6362f93160ef3e5630180546001600160a01b0319166001600160a01b0392909216919091179055565b8181816001600160a01b0316612c6a838361381e565b602001516001600160a01b031614612cbe5760405162461bcd60e51b8152602060048201526017602482015276139bdd081bdddb995c881d1a1a5cc818dbdb9d1c9858dd604a1b604482015260640161052e565b612cca84846001612de5565b6000805b600085815260066020526040902054811015612d0c57612cee8582613d66565b612cf890836153a7565b915080612d0481615417565b915050612cce565b506000848152600660205260408120612d2491614e6d565b6001600160a01b0380861660009081526005602090815260408083206002835281842089855283528184206007015490941683529290529081208054839290612d6e9084906153a7565b90915550506001600160a01b038581166000818152600260209081526040808320898452825280832060070154938352600582528083209390941680835292815290839020549251928352909186917f855a6eb4a3651e9881296b06172389d330b2ea79b1b3dc635674cfc8996ab9c29101611d28565b8282816001600160a01b0316612dfb838361381e565b602001516001600160a01b031614612e4f5760405162461bcd60e51b8152602060048201526017602482015276139bdd081bdddb995c881d1a1a5cc818dbdb9d1c9858dd604a1b604482015260640161052e565b50506001600160a01b039092166000908152600260209081526040808320938352929052206001018054911515600160a01b027fffffffffffffffffffffff00ffffffffffffffffffffffffffffffffffffffff909216919091179055565b8282816001600160a01b0316612ec4838361381e565b602001516001600160a01b031614612f185760405162461bcd60e51b8152602060048201526017602482015276139bdd081bdddb995c881d1a1a5cc818dbdb9d1c9858dd604a1b604482015260640161052e565b60008481526006602052604090208054612f6a919085908110612f3d57612f3d61545e565b60009182526020808320600b909202909101600401546001600160a01b03168252600c9052604090205490565b6000858152600660205260409020805485908110612f8a57612f8a61545e565b90600052602060002090600b02016006015411156130105760405162461bcd60e51b815260206004820152602760248201527f74687265736f6c64204c69717569646174696f6e207072696365206e6f74206160448201527f6368696576656400000000000000000000000000000000000000000000000000606482015260840161052e565b6000848152600660205260408120805460049190869081106130345761303461545e565b90600052602060002090600b02016005015461305091906153bf565b600086815260066020526040902080549192508291869081106130755761307561545e565b90600052602060002090600b020160050160008282546130959190615400565b90915550506000858152600660205260408120805483926002929091889081106130c1576130c161545e565b60009182526020808320600a600b909302018201546001600160a01b0316845283810194909452604092830182208a8352909352908120909101805490919061310b908490615400565b909155506000905060646131208360056153e1565b61312a91906153bf565b6131359060016153a7565b90506131418183615400565b600087815260066020526040902080549193506131689187908110612f3d57612f3d61545e565b61317290836153e1565b600087815260066020526040812080546002929190899081106131975761319761545e565b60009182526020808320600a600b9093020191909101546001600160a01b0316835282810193909352604091820181208a8252909252812060080180549091906131e2908490615400565b90915550506000868152600660205260409020805461320c919087908110612f3d57612f3d61545e565b61321690836153e1565b60008781526006602052604090208054879081106132365761323661545e565b90600052602060002090600b020160030160008282546132569190615400565b9091555050600086815260066020526040902080546133809190879081106132805761328061545e565b90600052602060002090600b0201600301546132e6600660008a815260200190815260200160002088815481106132b9576132b961545e565b60009182526020808320600b909202909101600201546001600160a01b03168252600c9052604090205490565b6132f091906153e1565b6000888152600660205260408120805460029291908a9081106133155761331561545e565b60009182526020808320600a600b9093020191909101546001600160a01b0316835282810193909352604091820181208b82528352818120600901546006909352208054899081106133695761336961545e565b90600052602060002090600b020160050154614e4e565b60008781526006602052604090208054879081106133a0576133a061545e565b90600052602060002090600b0201600601819055506006600087815260200190815260200160002085815481106133d9576133d961545e565b90600052602060002090600b020160040160009054906101000a90046001600160a01b03166001600160a01b031663a9059cbb6006600089815260200190815260200160002087815481106134305761343061545e565b60009182526020909120600b90910201546001600160a01b031661345484866153a7565b6040517fffffffff0000000000000000000000000000000000000000000000000000000060e085901b1681526001600160a01b0390921660048301526024820152604401602060405180830381600087803b1580156134b257600080fd5b505af11580156134c6573d6000803e3d6000fd5b505050506040513d601f19601f820116820180604052508101906134ea9190615082565b5084867f3efb85df84531500b13dc16364a68b114a05d55e8153510a851d426be608d9d6600660008a815260200190815260200160002088815481106135325761353261545e565b600091825260209091206004600b9092020101546001600160a01b031661355985876153a7565b604080516001600160a01b03909316835260208301919091520160405180910390a350505050505050565b8181816001600160a01b031661359a838361381e565b602001516001600160a01b0316146135ee5760405162461bcd60e51b8152602060048201526017602482015276139bdd081bdddb995c881d1a1a5cc818dbdb9d1c9858dd604a1b604482015260640161052e565b6001600160a01b03841660009081526002602090815260408083208684529091529020600190810154600160a01b900460ff1615151461362d57600080fd5b6001600160a01b03841660009081526002602090815260408083208684529091529020600a01541561365e57600080fd5b6001600160a01b03848116600081815260056020908152604080832060028352818420898552808452828520600701805488168652918452828520805490869055948a90529092529054905163a9059cbb60e01b81526004810193909352602483018290529092169063a9059cbb90604401602060405180830381600087803b1580156136ea57600080fd5b505af11580156136fe573d6000803e3d6000fd5b505050506040513d601f19601f820116820180604052508101906137229190615082565b506001600160a01b03858116600081815260026020908152604080832089845282529182902060070154825186815292519416938893927fd6e7472acc7a34539f2cd209d6a48c0b2a54f3117758628d5a7ea1073472c19492908290030190a45050505050565b60008060005b60008581526006602052604090205481101561380e57600085815260066020526040902080546001600160a01b0386169190839081106137d1576137d161545e565b60009182526020909120600b90910201546001600160a01b031614156137fc57600192509050613817565b8061380681615417565b91505061378f565b50600080915091505b9250929050565b61389f6040518061018001604052806000815260200160006001600160a01b0316815260200160001515815260200160006001600160a01b031681526020016000815260200160008152602001600081526020016000815260200160006001600160a01b031681526020016000815260200160008152602001600081525090565b506001600160a01b0391821660009081526002602081815260408084209484529381529183902083516101808101855281548152600182015480871694820194909452600160a01b90930460ff161515938301939093528201548316606082015260038201546080820152600482015460a0820152600582015460c0820152600682015460e0820152600782015490921661010083015260088101546101208301526009810154610140830152600a015461016082015290565b6000805b6000548110156139ba57826001600160a01b0316600082815481106139845761398461545e565b6000918252602090912001546001600160a01b031614156139a85750600192915050565b806139b281615417565b91505061395d565b50600092915050565b8282816001600160a01b03166139d9838361381e565b602001516001600160a01b031614613a2d5760405162461bcd60e51b8152602060048201526017602482015276139bdd081bdddb995c881d1a1a5cc818dbdb9d1c9858dd604a1b604482015260640161052e565b6001600160a01b038516600090815260026020908152604080832087845290915281206005018054859290613a639084906153a7565b9091555050604051839085907f55c5fcd1e6b45344c33b2efe8b0a1c21370e8436550c2a417ca7a88b4f9ecd7f90600090a35050505050565b8282816001600160a01b0316613ab2838361381e565b602001516001600160a01b031614613b065760405162461bcd60e51b8152602060048201526017602482015276139bdd081bdddb995c881d1a1a5cc818dbdb9d1c9858dd604a1b604482015260640161052e565b6001600160a01b038516600090815260026020908152604080832087845290915281206005018054859290613b3c9084906153a7565b9091555050604051839085907f39ad9ab227a3f33f44fa8a3bd1d05a8540654651c5b126643016fa827169bb6690600090a35050505050565b6001600160a01b03821615801590613b9557506001600160a01b03811615155b613be15760405162461bcd60e51b815260206004820152601360248201527f53657420636f7272656374206164647265737300000000000000000000000000604482015260640161052e565b613bea82613959565b613c5c5760405162461bcd60e51b815260206004820152602d60248201527f696e73657274206e6577206173736574206265666f726520736574206164647260448201527f6573732050726963654665656400000000000000000000000000000000000000606482015260840161052e565b6001600160a01b03918216600090815260096020526040902080546001600160a01b03191691909216179055565b60008060005b6001600160a01b03851660009081526003602052604090205481101561380e576001600160a01b0385166000908152600360205260409020805482908110613cda57613cda61545e565b9060005260206000200154841415613cf757915060019050613817565b80613d0181615417565b915050613c90565b60008060005b600454811015613d5a5760048181548110613d2c57613d2c61545e565b9060005260206000200154841415613d48579360019350915050565b80613d5281615417565b915050613d0f565b50600093849350915050565b6000828152600660205260408120805442919084908110613d8957613d8961545e565b90600052602060002090600b02016007015411613de85760405162461bcd60e51b815260206004820152601060248201527f6c6f616e206e6f74206578706972656400000000000000000000000000000000604482015260640161052e565b6000838152600660205260408120805484908110613e0857613e0861545e565b90600052602060002090600b02016005015490506000600660008681526020019081526020016000208481548110613e4257613e4261545e565b90600052602060002090600b02016003015490506000600660008781526020019081526020016000208581548110613e7c57613e7c61545e565b90600052602060002090600b0201600501819055506000600660008781526020019081526020016000208581548110613eb757613eb761545e565b90600052602060002090600b0201600801819055506000600660008781526020019081526020016000208581548110613ef257613ef261545e565b90600052602060002090600b02016003018190555080613f2f600660008881526020019081526020016000208681548110612f3d57612f3d61545e565b613f3990846153e1565b11614037578160026000600660008981526020019081526020016000208781548110613f6757613f6761545e565b60009182526020808320600a600b909302018201546001600160a01b0316845283810194909452604092830182208a83529093529081209091018054909190613fb1908490615400565b9091555050600085815260066020526040812080548392600292909188908110613fdd57613fdd61545e565b60009182526020808320600a600b9093020191909101546001600160a01b03168352828101939093526040918201812089825290925281206008018054909190614028908490615400565b909155509192506106dd915050565b6000858152600660205260408120805460649161405e9188908110612f3d57612f3d61545e565b600088815260066020526040902080546140839190899081106132b9576132b961545e565b61408d90856153e1565b600089815260066020526040902080546140b291908a908110612f3d57612f3d61545e565b6140bc90876153e1565b6140c69190615400565b6140d091906153bf565b6140db9060146153e1565b6140e591906153bf565b6140f09060016153a7565b90508260026000600660008a8152602001908152602001600020888154811061411b5761411b61545e565b60009182526020808320600a600b909302018201546001600160a01b0316845283810194909452604092830182208b83529093529081209091018054909190614165908490615400565b90915550506000868152600660205260408120805484926002929091899081106141915761419161545e565b60009182526020808320600a600b9093020191909101546001600160a01b0316835282810193909352604091820181208a8252909252812060080180549091906141dc908490615400565b90915550506000868152600660205260408120805483926008929091899081106142085761420861545e565b600091825260208083206004600b9093020191909101546001600160a01b03168352820192909252604001812080549091906142459084906153a7565b9091555061425590508184615400565b93505050506106dd565b505092915050565b6001600160a01b0384166000908152600c602052604081205461428b9085906153e1565b6001600160a01b0388811660009081526002602081815260408084208c85528252808420909201549093168252600c90925290812054919250906142d09085906153e1565b6001600160a01b03891660009081526002602090815260408083208b84529091529020600901549091508061430583856153bf565b1161197d5760405162461bcd60e51b815260206004820152601660248201527f6d6920736f6e6f20726f74746f206c652070616c6c6500000000000000000000604482015260640161052e565b60008681526006602052604090208054829081106143725761437261545e565b60009182526020909120600b90910201546001600160a01b038981169116146143dd5760405162461bcd60e51b815260206004820152601360248201527f4e6f74206f776e65722074686973206c6f616e00000000000000000000000000604482015260640161052e565b6040516323b872dd60e01b81526001600160a01b038981166004830152306024830152604482018690528616906323b872dd90606401602060405180830381600087803b15801561442d57600080fd5b505af1158015614441573d6000803e3d6000fd5b505050506040513d601f19601f820116820180604052508101906144659190615082565b5060008681526006602052604090208054849190839081106144895761448961545e565b90600052602060002090600b020160030160008282546144a991906153a7565b909155505060008681526006602052604090208054859190839081106144d1576144d161545e565b90600052602060002090600b020160050160008282546144f191906153a7565b90915550506000868152600660205260409020805461458191908390811061451b5761451b61545e565b90600052602060002090600b020160030154614554600660008a815260200190815260200160002084815481106132b9576132b961545e565b61455e91906153e1565b60008881526006602052604090208054859190859081106133695761336961545e565b60008781526006602052604090208054839081106145a1576145a161545e565b600091825260208083206006600b9093020191909101929092556001600160a01b038916815260028252604080822089835290925290812060030180548592906145ec908490615400565b90915550506001600160a01b0387166000908152600260209081526040808320898452909152812060080180548592906146279084906153a7565b90915550506001600160a01b03871660009081526002602090815260408083208984529091528120600a0180548692906146629084906153a7565b90915550506001600160a01b0387811660009081526002602081815260408084208b8552909152918290200154905163a9059cbb60e01b81528a831660048201526024810186905291169063a9059cbb90604401602060405180830381600087803b1580156146d057600080fd5b505af11580156146e4573d6000803e3d6000fd5b505050506040513d601f19601f820116820180604052508101906147089190615082565b505050505050505050565b6000806147208385613789565b915050426006600085815260200190815260200160002082815481106147485761474861545e565b90600052602060002090600b020160070154106147a75760405162461bcd60e51b815260206004820152601560248201527f54686973206c6f616e206e6f7420657870697265640000000000000000000000604482015260640161052e565b600060646147b68760626153e1565b6147c091906153bf565b6147cb9060016153a7565b9050600060646147dc8360056153e1565b6147e691906153bf565b6147f19060016153a7565b90506147fd8183615400565b915080600860006006600089815260200190815260200160002086815481106148285761482861545e565b600091825260208083206002600b9093020191909101546001600160a01b03168352820192909252604001812080549091906148659084906153a7565b9091555061487590508288615400565b6000868152600660205260408120805460029291908790811061489a5761489a61545e565b60009182526020808320600a600b9093020191909101546001600160a01b031683528281019390935260409182018120898252909252812060030180549091906148e59084906153a7565b909155506148f69050828787614950565b6148ff57600080fd5b84866001600160a01b03167ff4566bf0f626de61c22d06426bb7c188fe0cbf319d7bde6569daac73e2b18f0a8460405161493b91815260200190565b60405180910390a35060019695505050505050565b60008061495d8385613789565b915050614a0a6006600085815260200190815260200160002082815481106149875761498761545e565b90600052602060002090600b0201600301546006600086815260200190815260200160002083815481106149bd576149bd61545e565b90600052602060002090600b0201600901546006600087815260200190815260200160002084815481106149f3576149f361545e565b90600052602060002090600b02016008015461112d565b6000848152600660205260409020805483908110614a2a57614a2a61545e565b90600052602060002090600b02016003018190555084600660008581526020019081526020016000208281548110614a6457614a6461545e565b90600052602060002090600b0201600301541015614ac45760405162461bcd60e51b815260206004820152601860248201527f596f752063616e206f6e6c79204c6f616e20616d6f756e740000000000000000604482015260640161052e565b6000838152600660205260409020805482908110614ae457614ae461545e565b60009182526020909120600b90910201600201546040516323b872dd60e01b81526001600160a01b03868116600483015230602483015260448201889052909116906323b872dd90606401602060405180830381600087803b158015614b4957600080fd5b505af1158015614b5d573d6000803e3d6000fd5b505050506040513d601f19601f82011682018060405250810190614b819190615082565b506000612710614b928760146153e1565b614b9c91906153bf565b614ba79060016153a7565b90508060086000600660008881526020019081526020016000208581548110614bd257614bd261545e565b600091825260208083206002600b9093020191909101546001600160a01b0316835282019290925260400181208054909190614c0f9084906153a7565b90915550506000848152600660205260408120805484908110614c3457614c3461545e565b60009182526020909120600a600b9092020101546001600160a01b03169050614c5d8288615400565b6001600160a01b038216600090815260026020908152604080832089845290915281206008018054909190614c93908490615400565b90915550614ca390508288615400565b6001600160a01b038216600090815260026020908152604080832089845290915281206003018054909190614cd99084906153a7565b90915550614ce990508288615400565b6000868152600660205260409020805485908110614d0957614d0961545e565b90600052602060002090600b02016003016000828254614d299190615400565b90915550506000858152600660205260409020805442919085908110614d5157614d5161545e565b90600052602060002090600b020160080181905550614e0d614d906006600088815260200190815260200160002085815481106132b9576132b961545e565b6000878152600660205260409020805486908110614db057614db061545e565b90600052602060002090600b020160030154614dcc91906153e1565b6001600160a01b03831660009081526002602090815260408083208a845282528083206009015460069092529091208054879081106133695761336961545e565b6000868152600660205260409020805485908110614e2d57614e2d61545e565b600091825260209091206006600b9092020101555060019695505050505050565b600081614e5b84866153e1565b614e6591906153bf565b949350505050565b50805460008255600b0290600052602060002090810190610e3a91905b80821115614efa5780546001600160a01b03199081168255600060018301819055600283018054831690556003830181905560048301805483169055600583018190556006830181905560078301819055600883018190556009830155600a820180549091169055600b01614e8a565b5090565b80356001600160a01b0381168114614f1557600080fd5b919050565b805169ffffffffffffffffffff81168114614f1557600080fd5b600060208284031215614f4657600080fd5b6104d182614efe565b60008060408385031215614f6257600080fd5b614f6b83614efe565b9150614f7960208401614efe565b90509250929050565b60008060408385031215614f9557600080fd5b614f9e83614efe565b946020939093013593505050565b600080600060608486031215614fc157600080fd5b614fca84614efe565b9250602084013591506040840135614fe181615474565b809150509250925092565b60008060006060848603121561500157600080fd5b61500a84614efe565b95602085013595506040909401359392505050565b600080600080600080600060e0888a03121561503a57600080fd5b61504388614efe565b96506020880135955060408801359450606088013593506080880135925061506d60a08901614efe565b915060c0880135905092959891949750929550565b60006020828403121561509457600080fd5b81516104d181615474565b6000602082840312156150b157600080fd5b5035919050565b6000602082840312156150ca57600080fd5b5051919050565b600080604083850312156150e457600080fd5b82359150614f7960208401614efe565b600080600080600060a0868803121561510c57600080fd5b8535945061511c60208701614efe565b93506040860135925061513160608701614efe565b949793965091946080013592915050565b6000806040838503121561515557600080fd5b50508035926020909101359150565b600080600080600060a0868803121561517c57600080fd5b61518586614f1a565b94506020860151935060408601519250606086015191506151a860808701614f1a565b90509295509295909350565b6020808252825182820181905260009190848201906040850190845b818110156151f55783516001600160a01b0316835292840192918401916001016151d0565b50909695505050505050565b6020808252825182820181905260009190848201906040850190845b818110156151f55783518352928401929184019160010161521d565b81516001600160a01b03168152610160810160208301516020830152604083015161526f60408401826001600160a01b03169052565b5060608301516060830152608083015161529460808401826001600160a01b03169052565b5060a083015160a083015260c083015160c083015260e083015160e08301526101008084015181840152506101208084015181840152506101408084015161425f828501826001600160a01b03169052565b8151815260208083015161018083019161530a908401826001600160a01b03169052565b50604083015161531e604084018215159052565b50606083015161533960608401826001600160a01b03169052565b506080830151608083015260a083015160a083015260c083015160c083015260e083015160e08301526101008084015161537d828501826001600160a01b03169052565b50506101208381015190830152610140808401519083015261016092830151929091019190915290565b600082198211156153ba576153ba615432565b500190565b6000826153dc57634e487b7160e01b600052601260045260246000fd5b500490565b60008160001904831182151516156153fb576153fb615432565b500290565b60008282101561541257615412615432565b500390565b600060001982141561542b5761542b615432565b5060010190565b634e487b7160e01b600052601160045260246000fd5b634e487b7160e01b600052603160045260246000fd5b634e487b7160e01b600052603260045260246000fd5b8015158114610e3a57600080fdfe5265656e7472616e637947756172643a207265656e7472616e742063616c6c00a2646970667358221220002aedd236262f2bf0346e52c28b3e8e589b4590feeb4b49ee91eeafb5f467f664736f6c63430008070033",
  "immutableReferences": {},
  "source": "// SPDX-License-Identifier: Leluk911\n\npragma solidity 0.8.7;\n\nimport \"../node_modules/@openzeppelin/contracts/token/ERC20/IERC20.sol\";\nimport \"../node_modules/@openzeppelin/contracts/access/Ownable.sol\";\nimport \"../node_modules/@openzeppelin/contracts/utils/Counters.sol\";\nimport \"../node_modules/@openzeppelin/contracts/security/ReentrancyGuard.sol\";\nimport \"./storage.sol\";\nimport \"./interestCalculator.sol\";\nimport \"./coreFunction.sol\";\n\n\ncontract lendingPage is CoreFunction {\n    //library\n    using Counters for Counters.Counter;\n    //function variable\n    //-------------------------------//\n    constructor(uint _minpenality){\n        Id.increment();\n        minPenality = _minpenality;\n    }\n \n    // ----> User Function\n    function _deposit(address _to,address _asset,uint _amount,uint _apr,uint _deadline,uint _penality,address _collateral,uint _rateCollateral)internal {\n        require(_to != address(0), \"invalid address\");\n        require(_asset != _collateral, \"collateral not valid\");\n        require(_findAsset(_asset),\"asset don't found\");\n        //TEST require(addressPriceFeed[_asset] != address(0),\"Pricefeed address miss, whait owner set address priceFeed for this asset\");\n        require(_findAsset(_collateral),\"collateral don't found\");\n        require(IERC20(_asset).balanceOf(_to) >= _amount,\"balance user low\");\n        require(IERC20(_asset).allowance(_to, address(this)) >= _amount,\"alowance user low\");\n        require(_deadline > 0,\"deadline must have geatee 0\");\n        require(_penality >=  minPenality,\"penality must have geate 0\");    \n        IERC20(_asset).transferFrom(_to,address(this), _amount);\n        // fee 0.10%\n        uint contractFee = ((_amount * 10)/10000)+1;\n        balanceFee[_asset] += contractFee;\n        //\n        LendingContract memory newContract= LendingContract(\n            Id.current(),\n            _to,\n            false,\n            _asset,\n            _amount - contractFee,\n            _apr,\n            _deadline,\n            _penality,\n            _collateral,\n            0,\n            _rateCollateral,\n            0\n        );\n        userLendingContract[_to][Id.current()] = newContract;\n        emit NewContractDeposit(\n            Id.current(),_to,_asset,_amount,_apr,_deadline,_penality, _collateral\n        );\n        listContractUser[_to].push(Id.current());\n        listContract.push(Id.current());\n        Id.increment();\n    }\n    function _increasDeposit(address _to,uint _idContract, uint _increasAmount) internal  contractOwner(_to, _idContract){\n        require(_increasAmount > 0, \"increas must be plus 0\");\n        require(IERC20(_findContractLending(_to,_idContract).asset).balanceOf(_to) >= _increasAmount,\"balance user low\");\n        require(IERC20(_findContractLending(_to,_idContract).asset).allowance(_to, address(this)) >= _increasAmount,\"alowance user low\");\n        IERC20(_findContractLending(_to,_idContract).asset).transferFrom(_to,address(this), _increasAmount);\n        userLendingContract[_to][_idContract].amountAvvalible += _increasAmount; \n        emit IncreasContractDeposit(\n            _findContractLending(_to,_idContract).id,\n            _findContractLending(_to,_idContract).amountAvvalible - _increasAmount,\n            _findContractLending(_to,_idContract).amountAvvalible  \n        );\n    }\n    function _decreasDeposit(address _to,uint _idContract, uint _decreasAmount) internal contractOwner(_to, _idContract){\n        require(_decreasAmount > 0, \"increas must be plus 0\");\n        require(\n            _findContractLending(_to,_idContract).amountAvvalible >= _decreasAmount, \"Assett avvalible insufficient for this whidrow\"\n        );\n     \n\n        userLendingContract[_to][_idContract].amountAvvalible -= _decreasAmount;\n\n        IERC20(_findContractLending(_to,_idContract).asset).transfer(_to,_decreasAmount);\n\n        emit DecreasContractDeposit(\n            _findContractLending(_to,_idContract).id,\n            _findContractLending(_to,_idContract).amountAvvalible + _decreasAmount,\n            _findContractLending(_to,_idContract).amountAvvalible\n            \n        );\n\n    }\n    function _deleteContract(address _to,uint _idContract)internal contractOwner(_to, _idContract){\n       require(\n            _findContractLending(_to,_idContract).amountBorrow == 0, \"Contract have asset in borrow\"\n        ); \n        uint amountRepay = userLendingContract[_to][_idContract].amountAvvalible;\n        uint deleteId = userLendingContract[_to][_idContract].id;\n        address assetWidrow =_findContractLending(_to,_idContract).asset;\n        delete userLendingContract[_to][_idContract];\n        if(listContractUser[_to].length > 0){\n            (uint indexDelete, bool response) = _findArrayindexContract(_to, deleteId);\n            if(response){\n                listContractUser[_to][indexDelete]=listContractUser[_to][listContractUser[_to].length -1];\n                listContractUser[_to].pop();\n            }\n        }else{\n            listContractUser[_to].pop();\n        }\n          if(listContract.length > 0){\n            (uint indexDelete, bool response) = _findContractAvvalible(_idContract);\n            if(response){\n                listContract[indexDelete] = listContract[listContract.length -1];\n                listContract.pop();\n            }\n        }else{\n            listContract.pop();\n        }\n        IERC20(assetWidrow).transfer(_to,amountRepay);\n        emit DeleteContractDeposit(_to, deleteId);\n    }\n    function _lockNewBorrow(address _to,uint _idContract,bool _lock)internal contractOwner(_to, _idContract){\n            userLendingContract[_to][_idContract].lock = _lock;   \n       \n    }\n    function _increaseTimeExpire(address _to,uint _idContract, uint _timeIncreas)internal contractOwner(_to, _idContract){\n            userLendingContract[_to][_idContract].duration += _timeIncreas;  \n            emit newTimeExpireIncreas(_idContract, _timeIncreas);   \n    }\n    function _decreaseTimeExpire(address _to,uint _idContract, uint _timeIncreas)internal contractOwner(_to, _idContract){\n            //require(userLendingContract[_to][_idContract].amountBorrow == 0);\n            userLendingContract[_to][_idContract].duration += _timeIncreas;\n            emit newTimeExpireDecreas(_idContract, _timeIncreas);     \n    }\n    function _liquidationCall(address _to,uint _idContract,uint _idBorrow) internal contractOwner(_to, _idContract) {\n        require(borrowersXid[_idContract][_idBorrow].liquidationThreshold <= oraclePrice(borrowersXid[_idContract][_idBorrow].assetCollaterl),\"thresold Liquidation price not achieved\");\n                 \n        // 1/4 collateral\n        uint liquidationAmount = borrowersXid[_idContract][_idBorrow].amountCollateral /4; // parte da liquidare\n        borrowersXid[_idContract][_idBorrow].amountCollateral -= liquidationAmount;\n        userLendingContract[borrowersXid[_idContract][_idBorrow].lender][_idContract].amountCollateral -= liquidationAmount;\n        uint premiumLiquidation = ((liquidationAmount * 5)/100)+1;\n        liquidationAmount -= premiumLiquidation;\n        userLendingContract[borrowersXid[_idContract][_idBorrow].lender][_idContract].amountBorrow -= liquidationAmount * oraclePrice(borrowersXid[_idContract][_idBorrow].assetCollaterl);\n        borrowersXid[_idContract][_idBorrow].ammounBorrow -= liquidationAmount * oraclePrice(borrowersXid[_idContract][_idBorrow].assetCollaterl);\n        borrowersXid[_idContract][_idBorrow].liquidationThreshold = _liquidationThresold(\n             oraclePrice(borrowersXid[_idContract][_idBorrow].assetBorrow) * borrowersXid[_idContract][_idBorrow].ammounBorrow,\n             userLendingContract[borrowersXid[_idContract][_idBorrow].lender][_idContract].rateCollateral,\n             borrowersXid[_idContract][_idBorrow].amountCollateral\n             );\n        IERC20(borrowersXid[_idContract][_idBorrow].assetCollaterl).transfer(\n            borrowersXid[_idContract][_idBorrow].owner,\n            liquidationAmount + premiumLiquidation);\n     \n     emit LiquidationCall(_idContract,_idBorrow,borrowersXid[_idContract][_idBorrow].assetCollaterl,liquidationAmount + premiumLiquidation);\n    }\n    function _collateralSeizure(uint _idContract,uint _idBorrow) internal returns(uint){\n        require(borrowersXid[_idContract][_idBorrow].expiration > block.timestamp,\"loan not expired\");\n        uint collateral = borrowersXid[_idContract][_idBorrow].amountCollateral;\n        uint borrowExpired = borrowersXid[_idContract][_idBorrow].ammounBorrow;\n        borrowersXid[_idContract][_idBorrow].amountCollateral = 0;\n        borrowersXid[_idContract][_idBorrow].blockStart = 0;\n        borrowersXid[_idContract][_idBorrow].ammounBorrow = 0;\n        if(collateral * oraclePrice(borrowersXid[_idContract][_idBorrow].assetCollaterl)<=  borrowExpired){\n            userLendingContract[borrowersXid[_idContract][_idBorrow].lender][_idContract].amountCollateral -= collateral;\n            userLendingContract[borrowersXid[_idContract][_idBorrow].lender][_idContract].amountBorrow -= borrowExpired;\n            return collateral;   \n        }else {\n            uint contractFee = ((((collateral * oraclePrice(borrowersXid[_idContract][_idBorrow].assetCollaterl)\n                    - borrowExpired *oraclePrice(borrowersXid[_idContract][_idBorrow].assetBorrow))\n                    / oraclePrice(borrowersXid[_idContract][_idBorrow].assetCollaterl))*20)/100)+1;\n                    \n            userLendingContract[borrowersXid[_idContract][_idBorrow].lender][_idContract].amountCollateral -= collateral;\n            userLendingContract[borrowersXid[_idContract][_idBorrow].lender][_idContract].amountBorrow -= borrowExpired;\n            balanceFee[borrowersXid[_idContract][_idBorrow].assetCollaterl] += contractFee;\n            return collateral - contractFee;   \n        }\n    }\n    function _widrowCreditExpire(address _to,uint _idContract)internal contractOwner(_to, _idContract){\n        require(userLendingContract[_to][_idContract].lock == true);\n        require(userLendingContract[_to][_idContract].amountCollateral ==0);\n        uint widrow = userCreditExpire[_to][userLendingContract[_to][_idContract].collateral];\n        userCreditExpire[_to][userLendingContract[_to][_idContract].collateral] = 0;\n        IERC20(userLendingContract[_to][_idContract].collateral).transfer(_to, widrow);\n\n        emit WidrowCredit(_to, _idContract, userLendingContract[_to][_idContract].collateral, widrow);\n    }\n    function _RecoverCreditsExpired(address _to,uint _idContract)internal contractOwner(_to, _idContract) {\n        _lockNewBorrow(_to,_idContract,true);\n        uint creditExpired;\n        for(uint i; i < borrowersXid[_idContract].length ; i++){\n            creditExpired+=_collateralSeizure( _idContract,i);\n        }\n        delete borrowersXid[_idContract] ;\n        userCreditExpire[_to][userLendingContract[_to][_idContract].collateral] += creditExpired;\n        emit RecoveryCredit(_idContract, userLendingContract[_to][_idContract].collateral, userCreditExpire[_to][userLendingContract[_to][_idContract].collateral]);\n    }\n     function _RecoverSingleCreditExpired(address _to,uint _idContract,uint _idBorrow)internal contractOwner(_to, _idContract) {\n        _lockNewBorrow(_to,_idContract,true);\n        \n        uint singleCreditExpired;\n        singleCreditExpired +=_collateralSeizure( _idContract, _idBorrow);\n        \n        borrowersXid[_idContract][_idBorrow] = borrowersXid[_idContract][borrowersXid[_idContract].length -1];\n        borrowersXid[_idContract].pop();\n\n        userCreditExpire[_to][userLendingContract[_to][_idContract].collateral] += singleCreditExpired; \n        emit RecoverySingleCredit(_idContract, userLendingContract[_to][_idContract].collateral, userCreditExpire[_to][userLendingContract[_to][_idContract].collateral]);\n    }\n    \n    //BORROW FUNCTION\n    function _executeBorrow(address _to,uint _idContract,address _lender,uint _amountBorrow,address _assettCollateral,uint _amountCollateral) internal {\n        require(userLendingContract[_lender][_idContract].lock == false,\"This lender has blocked the issuance of new Loan\");\n        (,bool response) = _findArrayindexContract(_lender,_idContract);\n        require(response,\"contract dont exist\");\n        require(userLendingContract[_lender][_idContract].amountAvvalible >= _amountBorrow,\"Amount avvalible low\");\n        uint _rateLiquidation = userLendingContract[_lender][_idContract].rateCollateral;\n        (bool responseSrc,uint indexBorrow) = _serchIndexBorrowerXContract(_idContract, _to);\n        //check before act borrow \n        if(!responseSrc){\n            _newBorrower(_to,_lender, _idContract, _assettCollateral, _amountCollateral, _amountBorrow, _rateLiquidation);\n        }else{\n            //_liquidationThresold( uint _priceBorrowEth,uint _rateLiquidation)\n            //require(_liquidationThresold(\n            //              oraclePrice(borrowersXid[_idContract][indexBorrow].assetBorrow) * borrowersXid[_idContract][indexBorrow].amountCollateral,\n            //               _rateLiquidation,\n            //               borrowersXid[_idContract][indexBorrow].amountCollateral+_amountCollateral) > borrowersXid[_idContract][indexBorrow].liquidationThreshold,\"qui\");\n            _oldBorrower(_to, _lender, _idContract, _assettCollateral, _amountCollateral, _amountBorrow, _rateLiquidation, indexBorrow);\n\n        }\n\n        emit Borrow(_to, _idContract, _amountBorrow);\n    }\n    function _oldBorrower(address _to,address _lender,uint _idContract,address _assettCollateral,uint _amountCollateral,uint _amountBorrow, uint _rateLiquidation,uint indexBorrow)internal {\n        require(_to == borrowersXid[_idContract][indexBorrow].owner, \"Not owner this loan\" );\n        //require(_healFactor( oraclePrice(borrowersXid[_idContract][indexBorrow].assetCollaterl)\n        //        *(borrowersXid[_idContract][indexBorrow].amountCollateral + _amountCollateral),\n        //                     oraclePrice(borrowersXid[_idContract][indexBorrow].assetBorrow) \n        //                     *(borrowersXid[_idContract][indexBorrow].ammounBorrow + _amountBorrow)\n        //                     )> userLendingContract[_lender][_idContract].rateCollateral,\"insufficient collateral\"); \n\n        IERC20(_assettCollateral).transferFrom(_to, address(this), _amountCollateral);\n        borrowersXid[_idContract][indexBorrow].ammounBorrow += _amountBorrow;// aggiornata la variabile globale\n        borrowersXid[_idContract][indexBorrow].amountCollateral += _amountCollateral;// aggiornata la variabile globale\n        borrowersXid[_idContract][indexBorrow].liquidationThreshold =\n                _liquidationThresold(\n                    oraclePrice(borrowersXid[_idContract][indexBorrow].assetBorrow)\n                    *borrowersXid[_idContract][indexBorrow].ammounBorrow,\n                    _rateLiquidation,borrowersXid[_idContract][indexBorrow].amountCollateral\n                    );\n        userLendingContract[_lender][_idContract].amountAvvalible -=_amountBorrow;// togliamo le coin prestare\n        userLendingContract[_lender][_idContract].amountBorrow += _amountBorrow; // incrementiamo il capitale prestato\n        userLendingContract[_lender][_idContract].amountCollateral += _amountCollateral;// aggiungiamo la quantita di collaterale presente nel contratto\n        IERC20(userLendingContract[_lender][_idContract].asset).transfer(_to, _amountBorrow);\n\n    }\n\n\n\n\n\n\n    function _newBorrower(address _to,address _lender,uint _idContract,address _assettCollateral,uint _amountCollateral,uint _amountBorrow, uint _rateLiquidation)internal {\n        \n        // devo vedere se  il collaterale  abbastanza da coprire il prestito \n\n        // valore del collaterale in dollari \n        uint valoreCollaterale = oraclePrice(_assettCollateral)* _amountCollateral;\n        //valore prestito in dollari\n        uint valorePrestito = oraclePrice(userLendingContract[_lender][_idContract].asset)*_amountBorrow;\n\n        uint rate = userLendingContract[_lender][_idContract].rateCollateral;\n\n        require(valoreCollaterale/valorePrestito > rate, \"mi sono rotto le palle\" );\n\n\n\n\n\n\n\n\n\n\n\n\n\n\n\n\n\n        //(uint _priceCollateralETH, uint _priceBorrowEth)\n        //require(_healFactor(oraclePrice(_assettCollateral) * _amountCollateral,\n        //    oraclePrice(userLendingContract[_lender][_idContract].asset)*_amountBorrow) \n        //    > userLendingContract[_lender][_idContract].rateCollateral,\"insufficient collateral amount\");\n        \n        //IERC20(_assettCollateral).transferFrom(_to, address(this), _amountCollateral);\n        //Borrower memory newBorrower = Borrower(\n        //                                    _to,\n        //                                    _idContract,\n        //                                    userLendingContract[_lender][_idContract].asset,\n        //                                    _amountBorrow,\n        //                                    _assettCollateral,\n        //                                    _amountCollateral,\n        //                                    _liquidationThresold(\n        //                                        oraclePrice(userLendingContract[_lender][_idContract].asset) *_amountBorrow,\n        //                                         _rateLiquidation,\n        //                                         _amountCollateral\n        //                                         ),\n        //                                    block.timestamp + userLendingContract[_lender][_idContract].duration,\n        //                                    block.timestamp,\n        //                                    _findContractLending(_lender,_idContract).apr,\n        //                                    _lender\n//\n        //                                    );\n        //borrowersXid[_idContract].push(newBorrower);\n        //userLendingContract[_lender][_idContract].amountAvvalible -=_amountBorrow;// togliamo le coin prestare\n        //userLendingContract[_lender][_idContract].amountBorrow += _amountBorrow; // incrementiamo il capitale prestato\n        //userLendingContract[_lender][_idContract].amountCollateral += _amountCollateral;// aggiungiamo la quantita di collaterale presente nel contratto\n        //IERC20(userLendingContract[_lender][_idContract].asset).transfer(_to, _amountBorrow);\n    }\n    function _executeRepay(address _to, uint _idContract,uint _amount) internal {\n        require(_to  ==  _serchBorrowerPositionXContract(_idContract, _to).owner ,\"Not owner this loan\");\n        if(block.timestamp >  _serchBorrowerPositionXContract(_idContract, _to).expiration){\n            require(_penalityLoan(_amount, _to, _idContract));// gestire la penalit\n        }else{\n            require(_repay( _amount, _to, _idContract),\"Repay error\");\n        }\n        emit repay(_to, _idContract, _amount);\n    }\n    function _repay(uint _amount,address _to,uint _idContract) internal returns(bool){\n            (,uint indexBorrow) = _serchIndexBorrowerXContract(_idContract, _to);\n\n            borrowersXid[_idContract][indexBorrow].ammounBorrow = InterestCalculator._getTotalLoan(\n                borrowersXid[_idContract][indexBorrow].ammounBorrow,\n                borrowersXid[_idContract][indexBorrow].aprLoan,\n                borrowersXid[_idContract][indexBorrow].blockStart);\n            require(borrowersXid[_idContract][indexBorrow].ammounBorrow >= _amount, \"You can only Loan amount\");\n\n            IERC20(borrowersXid[_idContract][indexBorrow].assetBorrow).transferFrom(_to,address(this), _amount);\n               // fee 0.20%\n                uint contractFee = ((_amount * 20)/10000)+1;\n                balanceFee[borrowersXid[_idContract][indexBorrow].assetBorrow] += contractFee;\n                //\n            address _lender = borrowersXid[_idContract][indexBorrow].lender;\n            userLendingContract[_lender][_idContract].amountBorrow -= _amount - contractFee;\n            userLendingContract[_lender][_idContract].amountAvvalible += _amount - contractFee;\n            borrowersXid[_idContract][indexBorrow].ammounBorrow -= _amount - contractFee;\n            borrowersXid[_idContract][indexBorrow].blockStart = block.timestamp;\n            borrowersXid[_idContract][indexBorrow].liquidationThreshold = \n                _liquidationThresold(\n                      borrowersXid[_idContract][indexBorrow].ammounBorrow * \n                      oraclePrice(borrowersXid[_idContract][indexBorrow].assetBorrow),\n                      userLendingContract[_lender][_idContract].rateCollateral,\n                      borrowersXid[_idContract][indexBorrow].amountCollateral);\n            return true;\n    }\n    function _penalityLoan ( uint _amount,address _to,uint _idContract) internal returns(bool){\n        (,uint indexBorrow) = _serchIndexBorrowerXContract(_idContract, _to);\n        require(borrowersXid[_idContract][indexBorrow].expiration < block.timestamp, \"This loan not expired\");\n        //penality 2% of pay\n        uint new_amount = ((_amount *98)/100)+1;\n        // fee 5%\n        uint contractFee = ((new_amount * 5)/100)+1;\n        new_amount -= contractFee;\n        balanceFee[borrowersXid[_idContract][indexBorrow].assetBorrow] += contractFee;\n        userLendingContract[borrowersXid[_idContract][indexBorrow].lender][_idContract].amountAvvalible += _amount - new_amount;// tutto /2\n        require(_repay(new_amount, _to, _idContract));\n        emit applyPenality(_to, _idContract,new_amount);\n        return true;\n    }\n    // EXTERNAL FUNCTION\n    function setAssettAvvalible(address _newAsset) external nonReentrant() onlyOwner() {\n        _setAssettAvvalible(_newAsset);\n        emit NewAssetAvvalible(_newAsset, block.timestamp);\n    } \n    function findAsset(address _asset) external view returns(bool){\n        return _findAsset(_asset);\n    }\n    function deposit(address _asset,uint _amount,uint _apr,uint _deadline,uint _penality,address _collateral,uint _rateCollateral) external nonReentrant() {\n        _deposit(msg.sender, _asset, _amount, _apr, _deadline, _penality, _collateral,_rateCollateral);\n    }\n    function listContractXuser(address _user) external view returns(uint[] memory){\n        return _listContractXuser(_user);\n    }\n    function getAssettAvvalible()external view returns (address[] memory ){\n        return _getAssettAvvalible(); \n    }\n    function findContractLending(address _to,uint _id)external view returns(LendingContract memory){\n        return _findContractLending(_to, _id);\n    }\n    function increasDeposit(uint _idContract, uint _increasAmount) external nonReentrant(){\n        _increasDeposit(msg.sender, _idContract, _increasAmount);\n    }\n    function decreasDeposit(uint _idContract, uint _decreasAmount) external nonReentrant(){\n        _decreasDeposit(msg.sender, _idContract, _decreasAmount);\n    }\n    //deprecate\n    function deleteContract(uint _idContract) external nonReentrant(){\n        _deleteContract(msg.sender, _idContract);\n    }\n    function executeBorrow(uint _idContract,address _lender,uint _amountBorrow,address _assettCollateral,uint _amountCollateral) external nonReentrant(){\n        _executeBorrow(msg.sender, _idContract, _lender, _amountBorrow, _assettCollateral, _amountCollateral);\n    }\n    function serchBorrowerPositionXContract(uint _idContract,address _borrower) external view returns (Borrower memory){\n        return _serchBorrowerPositionXContract(_idContract, _borrower);\n    }\n    function serchIndexBorrowerXContract(uint _idContract,address _borrower)external view returns(uint){\n        (,uint idFind) = _serchIndexBorrowerXContract(_idContract, _borrower);\n        return idFind;\n    }\n    function lockNewBorrow(address _to,uint _idContract,bool _lock)external nonReentrant(){\n        _lockNewBorrow(_to, _idContract,_lock);\n    }\n    function viewAmountLoan(address  _borrower,uint _idContract) external view returns(uint loanCompouse) {\n        loanCompouse = InterestCalculator._getTotalLoan(\n            _serchBorrowerPositionXContract(_idContract, _borrower).ammounBorrow,\n            _serchBorrowerPositionXContract(_idContract, _borrower).aprLoan,\n            _serchBorrowerPositionXContract(_idContract, _borrower).blockStart); \n    }\n    function executeRepay(uint _idContract,uint _amount) external nonReentrant(){\n        _executeRepay(msg.sender, _idContract, _amount);\n    }\n    function increaseTimeExpire(uint _idContract, uint _timeIncreas)external nonReentrant(){\n          _increaseTimeExpire(msg.sender, _idContract, _timeIncreas);\n    }\n    function decreaseTimeExpire(uint _idContract, uint _timeIncreas)external nonReentrant(){\n          _decreaseTimeExpire(msg.sender, _idContract, _timeIncreas);\n    }\n    function liquidationCall(uint _idContract,uint _idBorrow) external nonReentrant(){\n        _liquidationCall(msg.sender,_idContract,_idBorrow);\n    }\n    function viewListcontract()external view returns(uint[] memory list){\n        list = listContract;\n    }\n    //// vvvvvv NO TESTED vvvvvvv\n    function widrowCreditExpire(uint _idContract)external nonReentrant(){    \n        _widrowCreditExpire(msg.sender, _idContract);\n    }\n    function recoverCreditsExpired(uint _idContract)external nonReentrant(){\n        _RecoverCreditsExpired(msg.sender, _idContract);\n    }\n    function recoverSingleCreditExpired(uint _idContract,uint _idBorrow)external nonReentrant() {\n        _RecoverSingleCreditExpired(msg.sender, _idContract, _idBorrow);\n    }\n\n\n\n\n\n\n    event widrwCollateralLoan(uint _amount,address indexed _asset,uint indexed _idContract);\n    function _widrowCollateral(uint _amount,address _to,uint _idContract) internal {\n            require(_to  ==  _serchBorrowerPositionXContract(_idContract, _to).owner ,\"Not owner this loan\");\n            (,uint indexBorrow) = _serchIndexBorrowerXContract(_idContract, _to);\n            borrowersXid[_idContract][indexBorrow].ammounBorrow = InterestCalculator._getTotalLoan(\n                borrowersXid[_idContract][indexBorrow].ammounBorrow,\n                borrowersXid[_idContract][indexBorrow].aprLoan,\n                borrowersXid[_idContract][indexBorrow].blockStart);\n            require(borrowersXid[_idContract][indexBorrow].ammounBorrow >= _amount, \"You can only Loan amount\");\n            address _lender = borrowersXid[_idContract][indexBorrow].lender;\n            require(\n                _healFactor(\n                    oraclePrice(\n                        borrowersXid[_idContract][indexBorrow].assetCollaterl)*borrowersXid[_idContract][indexBorrow].amountCollateral -_amount,\n                    oraclePrice(\n                        borrowersXid[_idContract][indexBorrow].assetBorrow)*borrowersXid[_idContract][indexBorrow].ammounBorrow\n                        ) >  userLendingContract[_lender][_idContract].rateCollateral,\"This widrow compromises your loan\"   \n            );\n\n            userLendingContract[_lender][_idContract].amountCollateral -= _amount;\n            borrowersXid[_idContract][indexBorrow].blockStart = block.timestamp;\n            borrowersXid[_idContract][indexBorrow].liquidationThreshold = \n                _liquidationThresold(\n                      borrowersXid[_idContract][indexBorrow].ammounBorrow * \n                      oraclePrice(borrowersXid[_idContract][indexBorrow].assetBorrow),\n                      userLendingContract[_lender][_idContract].rateCollateral,\n                      userLendingContract[_lender][_idContract].amountCollateral\n                      );\n\n            IERC20(borrowersXid[_idContract][indexBorrow].assetCollaterl).transfer(_to, _amount);\n            emit widrwCollateralLoan(_amount,borrowersXid[_idContract][indexBorrow].assetCollaterl, _idContract);\n\n    }\n\n \n   \n    // MODIFIER\n    modifier contractOwner(address _to,uint _idContract){\n        require(\n           _findContractLending(_to,_idContract).owner == _to, \"Not owner this contract\" \n        );\n        _;\n    }\n    // EVENT \n\n     event NewAssetAvvalible(address indexed asset, uint timeStart);\n     event NewContractDeposit(\n        uint Id,\n        address indexed owner,\n        address indexed asset,\n        uint amount,\n        uint apr,\n        uint  deadline,\n        uint  penality,\n        address indexed collateral\n     );\n     event IncreasContractDeposit(\n        uint Id,\n        uint indexed amount,\n        uint indexed newAmount\n     );\n     event DecreasContractDeposit(\n        uint Id,\n        uint indexed amount,\n        uint indexed newAmount\n     );\n\n     event DeleteContractDeposit(\n        address indexed owner,\n        uint indexed id\n     );\n     event Borrow( address indexed Borrower,uint indexed Id_Contract, uint amount);\n\n     event repay(address indexed _to, uint indexed _idContract,uint _amount);\n     event applyPenality(address indexed _to,uint  indexed _idContract,uint _amount);\n\n     event newTimeExpireIncreas(uint indexed _idContract, uint indexed _timeIncreas);\n     event newTimeExpireDecreas(uint indexed _idContract, uint indexed _timeIncreas);\n     event LiquidationCall (uint indexed _idContract,uint indexed _idBorrow, address assetsLiquidate, uint amount);\n\n     event RecoveryCredit(uint indexed _idContract,address indexed collateral, uint amount);\n     event RecoverySingleCredit(uint indexed _idContract,address indexed collateral, uint amount);\n     event WidrowCredit(address indexed _to,uint indexed _idContract,address indexed collateral, uint amount);\n\n    \n    \n    // mock function\n\n    //function _mockOracleBorrow() internal pure returns(uint price){\n    //    price = 2;\n    //}\n\n    //function _mockOracleCollateral() internal pure returns(uint price){\n    //    price = 1;\n//\n    //}\n\n\n}\n",
  "sourcePath": "/media/leluk/storage/Studio Dev/Dapp portfolio/individual lending/contracts/Individual_lending.sol",
  "compiler": {
    "name": "solc",
    "version": "0.8.7+commit.e28d00a7.Emscripten.clang"
  },
  "schemaVersion": "3.4.7",
  "updatedAt": "2022-07-03T18:48:14.536Z",
  "devdoc": {
    "kind": "dev",
    "methods": {
      "owner()": {
        "details": "Returns the address of the current owner."
      },
      "renounceOwnership()": {
        "details": "Leaves the contract without owner. It will not be possible to call `onlyOwner` functions anymore. Can only be called by the current owner. NOTE: Renouncing ownership will leave the contract without an owner, thereby removing any functionality that is only available to the owner."
      },
      "transferOwnership(address)": {
        "details": "Transfers ownership of the contract to a new account (`newOwner`). Can only be called by the current owner."
      }
    },
    "version": 1
  },
  "userdoc": {
    "kind": "user",
    "methods": {},
    "version": 1
  }
}