{
  "contractName": "lendingPage",
  "abi": [
    {
      "inputs": [
        {
          "internalType": "uint256",
          "name": "_minpenality",
          "type": "uint256"
        }
      ],
      "stateMutability": "nonpayable",
      "type": "constructor"
    },
    {
      "anonymous": false,
      "inputs": [
        {
          "indexed": true,
          "internalType": "address",
          "name": "Borrower",
          "type": "address"
        },
        {
          "indexed": true,
          "internalType": "uint256",
          "name": "Id_Contract",
          "type": "uint256"
        },
        {
          "indexed": false,
          "internalType": "uint256",
          "name": "amount",
          "type": "uint256"
        }
      ],
      "name": "Borrow",
      "type": "event"
    },
    {
      "anonymous": false,
      "inputs": [
        {
          "indexed": false,
          "internalType": "uint256",
          "name": "Id",
          "type": "uint256"
        },
        {
          "indexed": true,
          "internalType": "uint256",
          "name": "amount",
          "type": "uint256"
        },
        {
          "indexed": true,
          "internalType": "uint256",
          "name": "newAmount",
          "type": "uint256"
        }
      ],
      "name": "DecreasContractDeposit",
      "type": "event"
    },
    {
      "anonymous": false,
      "inputs": [
        {
          "indexed": true,
          "internalType": "address",
          "name": "owner",
          "type": "address"
        },
        {
          "indexed": true,
          "internalType": "uint256",
          "name": "id",
          "type": "uint256"
        }
      ],
      "name": "DeleteContractDeposit",
      "type": "event"
    },
    {
      "anonymous": false,
      "inputs": [
        {
          "indexed": false,
          "internalType": "uint256",
          "name": "Id",
          "type": "uint256"
        },
        {
          "indexed": true,
          "internalType": "uint256",
          "name": "amount",
          "type": "uint256"
        },
        {
          "indexed": true,
          "internalType": "uint256",
          "name": "newAmount",
          "type": "uint256"
        }
      ],
      "name": "IncreasContractDeposit",
      "type": "event"
    },
    {
      "anonymous": false,
      "inputs": [
        {
          "indexed": true,
          "internalType": "address",
          "name": "asset",
          "type": "address"
        },
        {
          "indexed": false,
          "internalType": "uint256",
          "name": "timeStart",
          "type": "uint256"
        }
      ],
      "name": "NewAssetAvvalible",
      "type": "event"
    },
    {
      "anonymous": false,
      "inputs": [
        {
          "indexed": false,
          "internalType": "uint256",
          "name": "Id",
          "type": "uint256"
        },
        {
          "indexed": true,
          "internalType": "address",
          "name": "owner",
          "type": "address"
        },
        {
          "indexed": true,
          "internalType": "address",
          "name": "asset",
          "type": "address"
        },
        {
          "indexed": false,
          "internalType": "uint256",
          "name": "amount",
          "type": "uint256"
        },
        {
          "indexed": false,
          "internalType": "uint256",
          "name": "apr",
          "type": "uint256"
        },
        {
          "indexed": false,
          "internalType": "uint256",
          "name": "deadline",
          "type": "uint256"
        },
        {
          "indexed": false,
          "internalType": "uint256",
          "name": "penality",
          "type": "uint256"
        },
        {
          "indexed": true,
          "internalType": "address",
          "name": "collateral",
          "type": "address"
        }
      ],
      "name": "NewContractDeposit",
      "type": "event"
    },
    {
      "anonymous": false,
      "inputs": [
        {
          "indexed": true,
          "internalType": "address",
          "name": "previousOwner",
          "type": "address"
        },
        {
          "indexed": true,
          "internalType": "address",
          "name": "newOwner",
          "type": "address"
        }
      ],
      "name": "OwnershipTransferred",
      "type": "event"
    },
    {
      "inputs": [],
      "name": "owner",
      "outputs": [
        {
          "internalType": "address",
          "name": "",
          "type": "address"
        }
      ],
      "stateMutability": "view",
      "type": "function"
    },
    {
      "inputs": [],
      "name": "renounceOwnership",
      "outputs": [],
      "stateMutability": "nonpayable",
      "type": "function"
    },
    {
      "inputs": [
        {
          "internalType": "address",
          "name": "newOwner",
          "type": "address"
        }
      ],
      "name": "transferOwnership",
      "outputs": [],
      "stateMutability": "nonpayable",
      "type": "function"
    },
    {
      "inputs": [
        {
          "internalType": "address",
          "name": "_newAsset",
          "type": "address"
        }
      ],
      "name": "setAssettAvvalible",
      "outputs": [],
      "stateMutability": "nonpayable",
      "type": "function"
    },
    {
      "inputs": [
        {
          "internalType": "address",
          "name": "_asset",
          "type": "address"
        }
      ],
      "name": "findAsset",
      "outputs": [
        {
          "internalType": "bool",
          "name": "",
          "type": "bool"
        }
      ],
      "stateMutability": "view",
      "type": "function"
    },
    {
      "inputs": [
        {
          "internalType": "address",
          "name": "_asset",
          "type": "address"
        },
        {
          "internalType": "uint256",
          "name": "_amount",
          "type": "uint256"
        },
        {
          "internalType": "uint256",
          "name": "_apr",
          "type": "uint256"
        },
        {
          "internalType": "uint256",
          "name": "_deadline",
          "type": "uint256"
        },
        {
          "internalType": "uint256",
          "name": "_penality",
          "type": "uint256"
        },
        {
          "internalType": "address",
          "name": "_collateral",
          "type": "address"
        },
        {
          "internalType": "uint256",
          "name": "_rateCollateral",
          "type": "uint256"
        }
      ],
      "name": "deposit",
      "outputs": [],
      "stateMutability": "nonpayable",
      "type": "function"
    },
    {
      "inputs": [
        {
          "internalType": "address",
          "name": "_user",
          "type": "address"
        }
      ],
      "name": "listContractXuser",
      "outputs": [
        {
          "internalType": "uint256[]",
          "name": "",
          "type": "uint256[]"
        }
      ],
      "stateMutability": "view",
      "type": "function"
    },
    {
      "inputs": [],
      "name": "getAssettAvvalible",
      "outputs": [
        {
          "internalType": "address[]",
          "name": "",
          "type": "address[]"
        }
      ],
      "stateMutability": "view",
      "type": "function"
    },
    {
      "inputs": [
        {
          "internalType": "address",
          "name": "_to",
          "type": "address"
        },
        {
          "internalType": "uint256",
          "name": "_id",
          "type": "uint256"
        }
      ],
      "name": "findContractLending",
      "outputs": [
        {
          "components": [
            {
              "internalType": "uint256",
              "name": "id",
              "type": "uint256"
            },
            {
              "internalType": "address",
              "name": "owner",
              "type": "address"
            },
            {
              "internalType": "bool",
              "name": "lock",
              "type": "bool"
            },
            {
              "internalType": "address",
              "name": "asset",
              "type": "address"
            },
            {
              "internalType": "uint256",
              "name": "amountAvvalible",
              "type": "uint256"
            },
            {
              "internalType": "uint256",
              "name": "apr",
              "type": "uint256"
            },
            {
              "internalType": "uint256",
              "name": "duration",
              "type": "uint256"
            },
            {
              "internalType": "uint256",
              "name": "penality",
              "type": "uint256"
            },
            {
              "internalType": "address",
              "name": "collateral",
              "type": "address"
            },
            {
              "internalType": "uint256",
              "name": "amountBorrow",
              "type": "uint256"
            },
            {
              "internalType": "uint256",
              "name": "rateCollateral",
              "type": "uint256"
            },
            {
              "internalType": "uint256",
              "name": "amountCollateral",
              "type": "uint256"
            }
          ],
          "internalType": "struct lendingPage.LendingContract",
          "name": "",
          "type": "tuple"
        }
      ],
      "stateMutability": "view",
      "type": "function"
    },
    {
      "inputs": [
        {
          "internalType": "uint256",
          "name": "_idContract",
          "type": "uint256"
        },
        {
          "internalType": "uint256",
          "name": "_increasAmount",
          "type": "uint256"
        }
      ],
      "name": "increasDeposit",
      "outputs": [],
      "stateMutability": "nonpayable",
      "type": "function"
    },
    {
      "inputs": [
        {
          "internalType": "uint256",
          "name": "_idContract",
          "type": "uint256"
        },
        {
          "internalType": "uint256",
          "name": "_decreasAmount",
          "type": "uint256"
        }
      ],
      "name": "decreasDeposit",
      "outputs": [],
      "stateMutability": "nonpayable",
      "type": "function"
    },
    {
      "inputs": [
        {
          "internalType": "uint256",
          "name": "_idContract",
          "type": "uint256"
        }
      ],
      "name": "deleteContract",
      "outputs": [],
      "stateMutability": "nonpayable",
      "type": "function"
    },
    {
      "inputs": [
        {
          "internalType": "uint256",
          "name": "_idContract",
          "type": "uint256"
        },
        {
          "internalType": "address",
          "name": "_lender",
          "type": "address"
        },
        {
          "internalType": "uint256",
          "name": "_amountBorrow",
          "type": "uint256"
        },
        {
          "internalType": "address",
          "name": "_assettCollateral",
          "type": "address"
        },
        {
          "internalType": "uint256",
          "name": "_amountCollateral",
          "type": "uint256"
        }
      ],
      "name": "executeBorrow",
      "outputs": [],
      "stateMutability": "nonpayable",
      "type": "function"
    },
    {
      "inputs": [
        {
          "internalType": "uint256",
          "name": "_idContract",
          "type": "uint256"
        },
        {
          "internalType": "address",
          "name": "_borrower",
          "type": "address"
        }
      ],
      "name": "serchBorrowerPositionXContract",
      "outputs": [
        {
          "components": [
            {
              "internalType": "address",
              "name": "owner",
              "type": "address"
            },
            {
              "internalType": "uint256",
              "name": "idContract",
              "type": "uint256"
            },
            {
              "internalType": "address",
              "name": "assetBorrow",
              "type": "address"
            },
            {
              "internalType": "uint256",
              "name": "ammounBorrow",
              "type": "uint256"
            },
            {
              "internalType": "address",
              "name": "assetCollaterl",
              "type": "address"
            },
            {
              "internalType": "uint256",
              "name": "amountCollateral",
              "type": "uint256"
            },
            {
              "internalType": "uint256",
              "name": "liquidationThreshold",
              "type": "uint256"
            },
            {
              "internalType": "uint256",
              "name": "expiration",
              "type": "uint256"
            },
            {
              "internalType": "uint256",
              "name": "blockStart",
              "type": "uint256"
            },
            {
              "internalType": "uint256",
              "name": "aprLoan",
              "type": "uint256"
            },
            {
              "internalType": "address",
              "name": "lender",
              "type": "address"
            }
          ],
          "internalType": "struct lendingPage.Borrower",
          "name": "",
          "type": "tuple"
        }
      ],
      "stateMutability": "view",
      "type": "function"
    },
    {
      "inputs": [
        {
          "internalType": "uint256",
          "name": "_idContract",
          "type": "uint256"
        },
        {
          "internalType": "address",
          "name": "_borrower",
          "type": "address"
        }
      ],
      "name": "serchIndexBorrowerXContract",
      "outputs": [
        {
          "internalType": "uint256",
          "name": "",
          "type": "uint256"
        }
      ],
      "stateMutability": "view",
      "type": "function"
    },
    {
      "inputs": [
        {
          "internalType": "address",
          "name": "_to",
          "type": "address"
        },
        {
          "internalType": "uint256",
          "name": "_idContract",
          "type": "uint256"
        },
        {
          "internalType": "bool",
          "name": "_lock",
          "type": "bool"
        }
      ],
      "name": "lockNewBorrow",
      "outputs": [],
      "stateMutability": "nonpayable",
      "type": "function"
    },
    {
      "inputs": [
        {
          "internalType": "address",
          "name": "_borrower",
          "type": "address"
        },
        {
          "internalType": "uint256",
          "name": "_idContract",
          "type": "uint256"
        }
      ],
      "name": "viewAmountLoan",
      "outputs": [
        {
          "internalType": "uint256",
          "name": "loanCompouse",
          "type": "uint256"
        }
      ],
      "stateMutability": "view",
      "type": "function"
    },
    {
      "inputs": [
        {
          "internalType": "uint256",
          "name": "_idContract",
          "type": "uint256"
        },
        {
          "internalType": "uint256",
          "name": "_amount",
          "type": "uint256"
        }
      ],
      "name": "executeRepay",
      "outputs": [],
      "stateMutability": "nonpayable",
      "type": "function"
    }
  ],
  "bytecode": "0x60806040523480156200001157600080fd5b506040516200624a3803806200624a83398181016040528101906200003791906200017c565b620000576200004b6200008360201b60201c565b6200008b60201b60201c565b600180819055506200007560026200014f60201b6200098c1760201c565b8060048190555050620001d7565b600033905090565b60008060009054906101000a900473ffffffffffffffffffffffffffffffffffffffff169050816000806101000a81548173ffffffffffffffffffffffffffffffffffffffff021916908373ffffffffffffffffffffffffffffffffffffffff1602179055508173ffffffffffffffffffffffffffffffffffffffff168173ffffffffffffffffffffffffffffffffffffffff167f8be0079c531659141344cd1fd0a4f28419497f9722a3daafe3b4186f6b6457e060405160405180910390a35050565b6001816000016000828254019250508190555050565b6000815190506200017681620001bd565b92915050565b600060208284031215620001955762000194620001b8565b5b6000620001a58482850162000165565b91505092915050565b6000819050919050565b600080fd5b620001c881620001ae565b8114620001d457600080fd5b50565b61606380620001e76000396000f3fe608060405234801561001057600080fd5b50600436106101165760003560e01c80637cb6f38f116100a2578063aa67414911610071578063aa674149146102b5578063e1e3769b146102d1578063e236b6f014610301578063e2bb0eb914610331578063f2fde38b1461036157610116565b80637cb6f38f1461022f5780638990616d1461024b5780638da5cb5b14610267578063a54bbcb71461028557610116565b806347087215116100e957806347087215146101b35780636893d336146101cf5780636f25b8f6146101eb578063715018a614610207578063726adaa41461021157610116565b806308dde6621461011b5780631392ed751461014b57806319dda45c14610167578063460e90d014610183575b600080fd5b61013560048036038101906101309190614a2e565b61037d565b60405161014291906157c8565b60405180910390f35b61016560048036038101906101609190614ac1565b6103ba565b005b610181600480360381019061017c9190614ca5565b610428565b005b61019d60048036038101906101989190614a01565b61048c565b6040516101aa9190615433565b60405180910390f35b6101cd60048036038101906101c89190614ca5565b61049e565b005b6101e960048036038101906101e49190614b90565b610502565b005b61020560048036038101906102009190614c2a565b610564565b005b61020f6105ce565b005b610219610656565b6040516102269190615411565b60405180910390f35b61024960048036038101906102449190614ca5565b610665565b005b61026560048036038101906102609190614a01565b6106c9565b005b61026f6107a6565b60405161027c919061536d565b60405180910390f35b61029f600480360381019061029a9190614bea565b6107cf565b6040516102ac9190615790565b60405180910390f35b6102cf60048036038101906102ca9190614a6e565b6107e9565b005b6102eb60048036038101906102e69190614bea565b61084e565b6040516102f891906157c8565b60405180910390f35b61031b60048036038101906103169190614a2e565b610868565b60405161032891906157ac565b60405180910390f35b61034b60048036038101906103469190614a01565b610882565b6040516103589190615455565b60405180910390f35b61037b60048036038101906103769190614a01565b610894565b005b60008061038a83856109a2565b905060008161012001519050600082610100015190506103af83606001518383610c8f565b935050505092915050565b60026001541415610400576040517f08c379a00000000000000000000000000000000000000000000000000000000081526004016103f790615730565b60405180910390fd5b60026001819055506104183388888888888888610ced565b6001808190555050505050505050565b6002600154141561046e576040517f08c379a000000000000000000000000000000000000000000000000000000000815260040161046590615730565b60405180910390fd5b60026001819055506104813383836115c8565b600180819055505050565b606061049782611afa565b9050919050565b600260015414156104e4576040517f08c379a00000000000000000000000000000000000000000000000000000000081526004016104db90615730565b60405180910390fd5b60026001819055506104f7338383611b91565b600180819055505050565b60026001541415610548576040517f08c379a000000000000000000000000000000000000000000000000000000000815260040161053f90615730565b60405180910390fd5b600260018190555061055a3382611f5f565b6001808190555050565b600260015414156105aa576040517f08c379a00000000000000000000000000000000000000000000000000000000081526004016105a190615730565b60405180910390fd5b60026001819055506105c0338686868686612720565b600180819055505050505050565b6105d6612a6b565b73ffffffffffffffffffffffffffffffffffffffff166105f46107a6565b73ffffffffffffffffffffffffffffffffffffffff161461064a576040517f08c379a000000000000000000000000000000000000000000000000000000000815260040161064190615650565b60405180910390fd5b6106546000612a73565b565b6060610660612b37565b905090565b600260015414156106ab576040517f08c379a00000000000000000000000000000000000000000000000000000000081526004016106a290615730565b60405180910390fd5b60026001819055506106be338383612bc5565b600180819055505050565b6002600154141561070f576040517f08c379a000000000000000000000000000000000000000000000000000000000815260040161070690615730565b60405180910390fd5b600260018190555061071f612a6b565b73ffffffffffffffffffffffffffffffffffffffff1661073d6107a6565b73ffffffffffffffffffffffffffffffffffffffff1614610793576040517f08c379a000000000000000000000000000000000000000000000000000000000815260040161078a90615650565b60405180910390fd5b61079c81612cbd565b6001808190555050565b60008060009054906101000a900473ffffffffffffffffffffffffffffffffffffffff16905090565b6107d7614841565b6107e183836109a2565b905092915050565b6002600154141561082f576040517f08c379a000000000000000000000000000000000000000000000000000000000815260040161082690615730565b60405180910390fd5b6002600181905550610842838383612e2a565b60018081905550505050565b60008061085b8484612ed9565b9150508091505092915050565b6108706148f3565b61087a8383612fb7565b905092915050565b600061088d82613190565b9050919050565b61089c612a6b565b73ffffffffffffffffffffffffffffffffffffffff166108ba6107a6565b73ffffffffffffffffffffffffffffffffffffffff1614610910576040517f08c379a000000000000000000000000000000000000000000000000000000000815260040161090790615650565b60405180910390fd5b600073ffffffffffffffffffffffffffffffffffffffff168173ffffffffffffffffffffffffffffffffffffffff161415610980576040517f08c379a0000000000000000000000000000000000000000000000000000000008152600401610977906154d0565b60405180910390fd5b61098981612a73565b50565b6001816000016000828254019250508190555050565b6109aa614841565b60005b6008600085815260200190815260200160002080549050811015610c4d578273ffffffffffffffffffffffffffffffffffffffff16600860008681526020019081526020016000208281548110610a0757610a06615b1b565b5b90600052602060002090600b020160000160009054906101000a900473ffffffffffffffffffffffffffffffffffffffff1673ffffffffffffffffffffffffffffffffffffffff161415610c3a57600860008581526020019081526020016000208181548110610a7a57610a79615b1b565b5b90600052602060002090600b0201604051806101600160405290816000820160009054906101000a900473ffffffffffffffffffffffffffffffffffffffff1673ffffffffffffffffffffffffffffffffffffffff1673ffffffffffffffffffffffffffffffffffffffff168152602001600182015481526020016002820160009054906101000a900473ffffffffffffffffffffffffffffffffffffffff1673ffffffffffffffffffffffffffffffffffffffff1673ffffffffffffffffffffffffffffffffffffffff168152602001600382015481526020016004820160009054906101000a900473ffffffffffffffffffffffffffffffffffffffff1673ffffffffffffffffffffffffffffffffffffffff1673ffffffffffffffffffffffffffffffffffffffff1681526020016005820154815260200160068201548152602001600782015481526020016008820154815260200160098201548152602001600a820160009054906101000a900473ffffffffffffffffffffffffffffffffffffffff1673ffffffffffffffffffffffffffffffffffffffff1673ffffffffffffffffffffffffffffffffffffffff1681525050915050610c89565b8080610c4590615a16565b9150506109ad565b506040517f08c379a0000000000000000000000000000000000000000000000000000000008152600401610c8090615550565b60405180910390fd5b92915050565b6000808242610c9e919061599a565b90506000600163bbf81e00838789610cb69190615940565b610cc09190615940565b610cca919061590f565b87610cd591906158b9565b610cdf91906158b9565b905080925050509392505050565b600073ffffffffffffffffffffffffffffffffffffffff168873ffffffffffffffffffffffffffffffffffffffff161415610d5d576040517f08c379a0000000000000000000000000000000000000000000000000000000008152600401610d54906155b0565b60405180910390fd5b8173ffffffffffffffffffffffffffffffffffffffff168773ffffffffffffffffffffffffffffffffffffffff161415610dcc576040517f08c379a0000000000000000000000000000000000000000000000000000000008152600401610dc3906154f0565b60405180910390fd5b610dd587613190565b610e14576040517f08c379a0000000000000000000000000000000000000000000000000000000008152600401610e0b906154b0565b60405180910390fd5b610e1d82613190565b610e5c576040517f08c379a0000000000000000000000000000000000000000000000000000000008152600401610e53906155f0565b60405180910390fd5b858773ffffffffffffffffffffffffffffffffffffffff166370a082318a6040518263ffffffff1660e01b8152600401610e96919061536d565b60206040518083038186803b158015610eae57600080fd5b505afa158015610ec2573d6000803e3d6000fd5b505050506040513d601f19601f82011682018060405250810190610ee69190614bbd565b1015610f27576040517f08c379a0000000000000000000000000000000000000000000000000000000008152600401610f1e90615510565b60405180910390fd5b858773ffffffffffffffffffffffffffffffffffffffff1663dd62ed3e8a306040518363ffffffff1660e01b8152600401610f63929190615388565b60206040518083038186803b158015610f7b57600080fd5b505afa158015610f8f573d6000803e3d6000fd5b505050506040513d601f19601f82011682018060405250810190610fb39190614bbd565b1015610ff4576040517f08c379a0000000000000000000000000000000000000000000000000000000008152600401610feb906156f0565b60405180910390fd5b60008411611037576040517f08c379a000000000000000000000000000000000000000000000000000000000815260040161102e906156d0565b60405180910390fd5b60045483101561107c576040517f08c379a000000000000000000000000000000000000000000000000000000000815260040161107390615670565b60405180910390fd5b60008773ffffffffffffffffffffffffffffffffffffffff166370a08231306040518263ffffffff1660e01b81526004016110b7919061536d565b60206040518083038186803b1580156110cf57600080fd5b505afa1580156110e3573d6000803e3d6000fd5b505050506040513d601f19601f820116820180604052508101906111079190614bbd565b90508773ffffffffffffffffffffffffffffffffffffffff166323b872dd8a308a6040518463ffffffff1660e01b8152600401611146939291906153b1565b602060405180830381600087803b15801561116057600080fd5b505af1158015611174573d6000803e3d6000fd5b505050506040513d601f19601f820116820180604052508101906111989190614b63565b508773ffffffffffffffffffffffffffffffffffffffff166370a08231306040518263ffffffff1660e01b81526004016111d2919061536d565b60206040518083038186803b1580156111ea57600080fd5b505afa1580156111fe573d6000803e3d6000fd5b505050506040513d601f19601f820116820180604052508101906112229190614bbd565b878261122e91906158b9565b1461123857600080fd5b6000604051806101800160405280611250600261323f565b81526020018b73ffffffffffffffffffffffffffffffffffffffff1681526020016000151581526020018a73ffffffffffffffffffffffffffffffffffffffff1681526020018981526020018881526020018781526020018681526020018573ffffffffffffffffffffffffffffffffffffffff168152602001600081526020018481526020016000815250905080600560008c73ffffffffffffffffffffffffffffffffffffffff1673ffffffffffffffffffffffffffffffffffffffff168152602001908152602001600020600061132a600261323f565b81526020019081526020016000206000820151816000015560208201518160010160006101000a81548173ffffffffffffffffffffffffffffffffffffffff021916908373ffffffffffffffffffffffffffffffffffffffff16021790555060408201518160010160146101000a81548160ff02191690831515021790555060608201518160020160006101000a81548173ffffffffffffffffffffffffffffffffffffffff021916908373ffffffffffffffffffffffffffffffffffffffff1602179055506080820151816003015560a0820151816004015560c0820151816005015560e082015181600601556101008201518160070160006101000a81548173ffffffffffffffffffffffffffffffffffffffff021916908373ffffffffffffffffffffffffffffffffffffffff1602179055506101208201518160080155610140820151816009015561016082015181600a01559050508373ffffffffffffffffffffffffffffffffffffffff168973ffffffffffffffffffffffffffffffffffffffff168b73ffffffffffffffffffffffffffffffffffffffff167f73ccc975565e11201f9228f86b04c2090d856488dd73ce7f1b63b9609708ee476114f4600261323f565b8c8c8c8c6040516115099594939291906157e3565b60405180910390a4600660008b73ffffffffffffffffffffffffffffffffffffffff1673ffffffffffffffffffffffffffffffffffffffff16815260200190815260200160002061155a600261323f565b9080600181540180825580915050600190039060005260206000200160009091909190915055600761158c600261323f565b90806001815401808255809150506001900390600052602060002001600090919091909150556115bc600261098c565b50505050505050505050565b82828173ffffffffffffffffffffffffffffffffffffffff166115eb8383612fb7565b6020015173ffffffffffffffffffffffffffffffffffffffff1614611645576040517f08c379a000000000000000000000000000000000000000000000000000000000815260040161163c90615570565b60405180910390fd5b60008311611688576040517f08c379a000000000000000000000000000000000000000000000000000000000815260040161167f90615690565b60405180910390fd5b826116938686612fb7565b6060015173ffffffffffffffffffffffffffffffffffffffff166370a08231876040518263ffffffff1660e01b81526004016116cf919061536d565b60206040518083038186803b1580156116e757600080fd5b505afa1580156116fb573d6000803e3d6000fd5b505050506040513d601f19601f8201168201806040525081019061171f9190614bbd565b1015611760576040517f08c379a000000000000000000000000000000000000000000000000000000000815260040161175790615510565b60405180910390fd5b8261176b8686612fb7565b6060015173ffffffffffffffffffffffffffffffffffffffff1663dd62ed3e87306040518363ffffffff1660e01b81526004016117a9929190615388565b60206040518083038186803b1580156117c157600080fd5b505afa1580156117d5573d6000803e3d6000fd5b505050506040513d601f19601f820116820180604052508101906117f99190614bbd565b101561183a576040517f08c379a0000000000000000000000000000000000000000000000000000000008152600401611831906156f0565b60405180910390fd5b60006118468686612fb7565b6060015173ffffffffffffffffffffffffffffffffffffffff166370a08231306040518263ffffffff1660e01b8152600401611882919061536d565b60206040518083038186803b15801561189a57600080fd5b505afa1580156118ae573d6000803e3d6000fd5b505050506040513d601f19601f820116820180604052508101906118d29190614bbd565b90506118de8686612fb7565b6060015173ffffffffffffffffffffffffffffffffffffffff166323b872dd8730876040518463ffffffff1660e01b815260040161191e939291906153b1565b602060405180830381600087803b15801561193857600080fd5b505af115801561194c573d6000803e3d6000fd5b505050506040513d601f19601f820116820180604052508101906119709190614b63565b5061197b8686612fb7565b6060015173ffffffffffffffffffffffffffffffffffffffff166370a08231306040518263ffffffff1660e01b81526004016119b7919061536d565b60206040518083038186803b1580156119cf57600080fd5b505afa1580156119e3573d6000803e3d6000fd5b505050506040513d601f19601f82011682018060405250810190611a079190614bbd565b8482611a1391906158b9565b14611a1d57600080fd5b83600560008873ffffffffffffffffffffffffffffffffffffffff1673ffffffffffffffffffffffffffffffffffffffff16815260200190815260200160002060008781526020019081526020016000206003016000828254611a8091906158b9565b92505081905550611a918686612fb7565b6080015184611aa08888612fb7565b60800151611aae919061599a565b7f70b5eec6cec01e52d9243bac64c12e4fd128a2f20105af16919ae212e224fc65611ad98989612fb7565b60000151604051611aea91906157c8565b60405180910390a3505050505050565b6060600660008373ffffffffffffffffffffffffffffffffffffffff1673ffffffffffffffffffffffffffffffffffffffff168152602001908152602001600020805480602002602001604051908101604052809291908181526020018280548015611b8557602002820191906000526020600020905b815481526020019060010190808311611b71575b50505050509050919050565b82828173ffffffffffffffffffffffffffffffffffffffff16611bb48383612fb7565b6020015173ffffffffffffffffffffffffffffffffffffffff1614611c0e576040517f08c379a0000000000000000000000000000000000000000000000000000000008152600401611c0590615570565b60405180910390fd5b60008311611c51576040517f08c379a0000000000000000000000000000000000000000000000000000000008152600401611c4890615690565b60405180910390fd5b82611c5c8686612fb7565b608001511015611ca1576040517f08c379a0000000000000000000000000000000000000000000000000000000008152600401611c9890615750565b60405180910390fd5b82600560008773ffffffffffffffffffffffffffffffffffffffff1673ffffffffffffffffffffffffffffffffffffffff16815260200190815260200160002060008681526020019081526020016000206003016000828254611d04919061599a565b925050819055506000611d178686612fb7565b6060015173ffffffffffffffffffffffffffffffffffffffff166370a08231306040518263ffffffff1660e01b8152600401611d53919061536d565b60206040518083038186803b158015611d6b57600080fd5b505afa158015611d7f573d6000803e3d6000fd5b505050506040513d601f19601f82011682018060405250810190611da39190614bbd565b9050611daf8686612fb7565b6060015173ffffffffffffffffffffffffffffffffffffffff1663a9059cbb87866040518363ffffffff1660e01b8152600401611ded9291906153e8565b602060405180830381600087803b158015611e0757600080fd5b505af1158015611e1b573d6000803e3d6000fd5b505050506040513d601f19601f82011682018060405250810190611e3f9190614b63565b50611e4a8686612fb7565b6060015173ffffffffffffffffffffffffffffffffffffffff166370a08231306040518263ffffffff1660e01b8152600401611e86919061536d565b60206040518083038186803b158015611e9e57600080fd5b505afa158015611eb2573d6000803e3d6000fd5b505050506040513d601f19601f82011682018060405250810190611ed69190614bbd565b8482611ee2919061599a565b14611eec57600080fd5b611ef68686612fb7565b6080015184611f058888612fb7565b60800151611f1391906158b9565b7f510055a9c40582bc6ad0cab1e5b0421194c4d34435a16960ec71333bf8bc70cf611f3e8989612fb7565b60000151604051611f4f91906157c8565b60405180910390a3505050505050565b81818173ffffffffffffffffffffffffffffffffffffffff16611f828383612fb7565b6020015173ffffffffffffffffffffffffffffffffffffffff1614611fdc576040517f08c379a0000000000000000000000000000000000000000000000000000000008152600401611fd390615570565b60405180910390fd5b6000611fe88585612fb7565b61012001511461202d576040517f08c379a000000000000000000000000000000000000000000000000000000000815260040161202490615770565b60405180910390fd5b6000600560008673ffffffffffffffffffffffffffffffffffffffff1673ffffffffffffffffffffffffffffffffffffffff16815260200190815260200160002060008581526020019081526020016000206003015490506000600560008773ffffffffffffffffffffffffffffffffffffffff1673ffffffffffffffffffffffffffffffffffffffff168152602001908152602001600020600086815260200190815260200160002060000154905060006120e98787612fb7565b606001519050600560008873ffffffffffffffffffffffffffffffffffffffff1673ffffffffffffffffffffffffffffffffffffffff16815260200190815260200160002060008781526020019081526020016000206000808201600090556001820160006101000a81549073ffffffffffffffffffffffffffffffffffffffff02191690556001820160146101000a81549060ff02191690556002820160006101000a81549073ffffffffffffffffffffffffffffffffffffffff021916905560038201600090556004820160009055600582016000905560068201600090556007820160006101000a81549073ffffffffffffffffffffffffffffffffffffffff021916905560088201600090556009820160009055600a82016000905550506000600660008973ffffffffffffffffffffffffffffffffffffffff1673ffffffffffffffffffffffffffffffffffffffff1681526020019081526020016000208054905011156123e357600080612263898561324d565b9150915080156123dc57600660008a73ffffffffffffffffffffffffffffffffffffffff1673ffffffffffffffffffffffffffffffffffffffff1681526020019081526020016000206001600660008c73ffffffffffffffffffffffffffffffffffffffff1673ffffffffffffffffffffffffffffffffffffffff168152602001908152602001600020805490506122fb919061599a565b8154811061230c5761230b615b1b565b5b9060005260206000200154600660008b73ffffffffffffffffffffffffffffffffffffffff1673ffffffffffffffffffffffffffffffffffffffff168152602001908152602001600020838154811061236857612367615b1b565b5b9060005260206000200181905550600660008a73ffffffffffffffffffffffffffffffffffffffff1673ffffffffffffffffffffffffffffffffffffffff1681526020019081526020016000208054806123c5576123c4615aec565b5b600190038181906000526020600020016000905590555b5050612449565b600660008873ffffffffffffffffffffffffffffffffffffffff1673ffffffffffffffffffffffffffffffffffffffff16815260200190815260200160002080548061243257612431615aec565b5b600190038181906000526020600020016000905590555b600060078054905011156124ef576000806124638861332e565b9150915080156124e85760076001600780549050612481919061599a565b8154811061249257612491615b1b565b5b9060005260206000200154600783815481106124b1576124b0615b1b565b5b906000526020600020018190555060078054806124d1576124d0615aec565b5b600190038181906000526020600020016000905590555b5050612518565b600780548061250157612500615aec565b5b600190038181906000526020600020016000905590555b60008173ffffffffffffffffffffffffffffffffffffffff166370a08231306040518263ffffffff1660e01b8152600401612553919061536d565b60206040518083038186803b15801561256b57600080fd5b505afa15801561257f573d6000803e3d6000fd5b505050506040513d601f19601f820116820180604052508101906125a39190614bbd565b90508173ffffffffffffffffffffffffffffffffffffffff1663a9059cbb89866040518363ffffffff1660e01b81526004016125e09291906153e8565b602060405180830381600087803b1580156125fa57600080fd5b505af115801561260e573d6000803e3d6000fd5b505050506040513d601f19601f820116820180604052508101906126329190614b63565b508173ffffffffffffffffffffffffffffffffffffffff166370a08231306040518263ffffffff1660e01b815260040161266c919061536d565b60206040518083038186803b15801561268457600080fd5b505afa158015612698573d6000803e3d6000fd5b505050506040513d601f19601f820116820180604052508101906126bc9190614bbd565b84826126c8919061599a565b146126d257600080fd5b828873ffffffffffffffffffffffffffffffffffffffff167ffd6e81c22721a918c2e59966d2b020f6ccf1fe46d783cc4053c75c1a9fa837f060405160405180910390a35050505050505050565b600015156009600087815260200190815260200160002060009054906101000a900460ff16151514612787576040517f08c379a000000000000000000000000000000000000000000000000000000000815260040161277e90615470565b60405180910390fd5b60001515600560008873ffffffffffffffffffffffffffffffffffffffff1673ffffffffffffffffffffffffffffffffffffffff168152602001908152602001600020600087815260200190815260200160002060010160149054906101000a900460ff1615151461282e576040517f08c379a000000000000000000000000000000000000000000000000000000000815260040161282590615630565b60405180910390fd5b600061283a858761324d565b9150508061287d576040517f08c379a0000000000000000000000000000000000000000000000000000000008152600401612874906156b0565b60405180910390fd5b83600560008773ffffffffffffffffffffffffffffffffffffffff1673ffffffffffffffffffffffffffffffffffffffff1681526020019081526020016000206000888152602001908152602001600020600301541015612913576040517f08c379a000000000000000000000000000000000000000000000000000000000815260040161290a906155d0565b60405180910390fd5b600061291d613393565b90506000600560008873ffffffffffffffffffffffffffffffffffffffff1673ffffffffffffffffffffffffffffffffffffffff16815260200190815260200160002060008981526020019081526020016000206009015490506000806129848a8c612ed9565b91509150816129a15761299c8b8a8c8a8a8d8961339c565b612a0f565b6129a9613393565b6129f4600860008d815260200190815260200160002083815481106129d1576129d0615b1b565b5b90600052602060002090600b020160050154866129ee9190615940565b85613b73565b116129fe57600080fd5b612a0e8b8a8c8a8a8d8988613b89565b5b898b73ffffffffffffffffffffffffffffffffffffffff167fe1979fe4c35e0cef342fef5668e2c8e7a7e9f5d5d1ca8fee0ac6c427fa4153af8a604051612a5691906157c8565b60405180910390a35050505050505050505050565b600033905090565b60008060009054906101000a900473ffffffffffffffffffffffffffffffffffffffff169050816000806101000a81548173ffffffffffffffffffffffffffffffffffffffff021916908373ffffffffffffffffffffffffffffffffffffffff1602179055508173ffffffffffffffffffffffffffffffffffffffff168173ffffffffffffffffffffffffffffffffffffffff167f8be0079c531659141344cd1fd0a4f28419497f9722a3daafe3b4186f6b6457e060405160405180910390a35050565b60606003805480602002602001604051908101604052809291908181526020018280548015612bbb57602002820191906000526020600020905b8160009054906101000a900473ffffffffffffffffffffffffffffffffffffffff1673ffffffffffffffffffffffffffffffffffffffff1681526020019060010190808311612b71575b5050505050905090565b6000612bd183856109a2565b9050806000015173ffffffffffffffffffffffffffffffffffffffff168473ffffffffffffffffffffffffffffffffffffffff1614612c45576040517f08c379a0000000000000000000000000000000000000000000000000000000008152600401612c3c90615530565b60405180910390fd5b8060e00151421115612c6b57612c5d81838686614287565b612c6657600080fd5b612cb7565b612c7781838686614388565b612cb6576040517f08c379a0000000000000000000000000000000000000000000000000000000008152600401612cad90615490565b60405180910390fd5b5b50505050565b600073ffffffffffffffffffffffffffffffffffffffff168173ffffffffffffffffffffffffffffffffffffffff161415612d2d576040517f08c379a0000000000000000000000000000000000000000000000000000000008152600401612d24906155b0565b60405180910390fd5b612d3681613190565b15612d76576040517f08c379a0000000000000000000000000000000000000000000000000000000008152600401612d6d90615610565b60405180910390fd5b6003819080600181540180825580915050600190039060005260206000200160009091909190916101000a81548173ffffffffffffffffffffffffffffffffffffffff021916908373ffffffffffffffffffffffffffffffffffffffff1602179055508073ffffffffffffffffffffffffffffffffffffffff167f1406601fca80ce2dde347c6c1c000309440d0365c2b5786f1608d7b1e76dd12d42604051612e1f91906157c8565b60405180910390a250565b82828173ffffffffffffffffffffffffffffffffffffffff16612e4d8383612fb7565b6020015173ffffffffffffffffffffffffffffffffffffffff1614612ea7576040517f08c379a0000000000000000000000000000000000000000000000000000000008152600401612e9e90615570565b60405180910390fd5b826009600086815260200190815260200160002060006101000a81548160ff0219169083151502179055505050505050565b60008060005b6008600086815260200190815260200160002080549050811015612fa7578373ffffffffffffffffffffffffffffffffffffffff16600860008781526020019081526020016000208281548110612f3957612f38615b1b565b5b90600052602060002090600b020160000160009054906101000a900473ffffffffffffffffffffffffffffffffffffffff1673ffffffffffffffffffffffffffffffffffffffff161415612f94576001819250925050612fb0565b8080612f9f90615a16565b915050612edf565b50600080915091505b9250929050565b612fbf6148f3565b600560008473ffffffffffffffffffffffffffffffffffffffff1673ffffffffffffffffffffffffffffffffffffffff168152602001908152602001600020600083815260200190815260200160002060405180610180016040529081600082015481526020016001820160009054906101000a900473ffffffffffffffffffffffffffffffffffffffff1673ffffffffffffffffffffffffffffffffffffffff1673ffffffffffffffffffffffffffffffffffffffff1681526020016001820160149054906101000a900460ff161515151581526020016002820160009054906101000a900473ffffffffffffffffffffffffffffffffffffffff1673ffffffffffffffffffffffffffffffffffffffff1673ffffffffffffffffffffffffffffffffffffffff168152602001600382015481526020016004820154815260200160058201548152602001600682015481526020016007820160009054906101000a900473ffffffffffffffffffffffffffffffffffffffff1673ffffffffffffffffffffffffffffffffffffffff1673ffffffffffffffffffffffffffffffffffffffff1681526020016008820154815260200160098201548152602001600a82015481525050905092915050565b600080600090505b600380549050811015613234578273ffffffffffffffffffffffffffffffffffffffff16600382815481106131d0576131cf615b1b565b5b9060005260206000200160009054906101000a900473ffffffffffffffffffffffffffffffffffffffff1673ffffffffffffffffffffffffffffffffffffffff16141561322157600191505061323a565b808061322c90615a16565b915050613198565b50600090505b919050565b600081600001549050919050565b60008060008060005b600660008873ffffffffffffffffffffffffffffffffffffffff1673ffffffffffffffffffffffffffffffffffffffff1681526020019081526020016000208054905081101561331e57600660008873ffffffffffffffffffffffffffffffffffffffff1673ffffffffffffffffffffffffffffffffffffffff16815260200190815260200160002081815481106132f1576132f0615b1b565b5b906000526020600020015486141561330b57809250600191505b808061331690615a16565b915050613256565b5081819350935050509250929050565b60008060008060005b600780549050811015613385576007818154811061335857613357615b1b565b5b906000526020600020015486141561337257809250600191505b808061337d90615a16565b915050613337565b508181935093505050915091565b60006002905090565b600560008773ffffffffffffffffffffffffffffffffffffffff1673ffffffffffffffffffffffffffffffffffffffff16815260200190815260200160002060008681526020019081526020016000206009015461341e846133fc614822565b6134069190615940565b8461340f613393565b6134199190615940565b61482b565b1161342857600080fd5b60008473ffffffffffffffffffffffffffffffffffffffff166370a08231306040518263ffffffff1660e01b8152600401613463919061536d565b60206040518083038186803b15801561347b57600080fd5b505afa15801561348f573d6000803e3d6000fd5b505050506040513d601f19601f820116820180604052508101906134b39190614bbd565b90508473ffffffffffffffffffffffffffffffffffffffff166323b872dd8930876040518463ffffffff1660e01b81526004016134f2939291906153b1565b602060405180830381600087803b15801561350c57600080fd5b505af1158015613520573d6000803e3d6000fd5b505050506040513d601f19601f820116820180604052508101906135449190614b63565b508473ffffffffffffffffffffffffffffffffffffffff166370a08231306040518263ffffffff1660e01b815260040161357e919061536d565b60206040518083038186803b15801561359657600080fd5b505afa1580156135aa573d6000803e3d6000fd5b505050506040513d601f19601f820116820180604052508101906135ce9190614bbd565b84826135da91906158b9565b146135e457600080fd5b60006040518061016001604052808a73ffffffffffffffffffffffffffffffffffffffff168152602001888152602001600560008b73ffffffffffffffffffffffffffffffffffffffff1673ffffffffffffffffffffffffffffffffffffffff16815260200190815260200160002060008a815260200190815260200160002060020160009054906101000a900473ffffffffffffffffffffffffffffffffffffffff1673ffffffffffffffffffffffffffffffffffffffff1681526020018581526020018773ffffffffffffffffffffffffffffffffffffffff1681526020018681526020016136e7866136d7613393565b6136e19190615940565b86613b73565b8152602001600560008b73ffffffffffffffffffffffffffffffffffffffff1673ffffffffffffffffffffffffffffffffffffffff16815260200190815260200160002060008a8152602001908152602001600020600501544261374b91906158b9565b81526020014281526020016137608a8a612fb7565b60a0015181526020018973ffffffffffffffffffffffffffffffffffffffff168152509050600860008881526020019081526020016000208190806001815401808255809150506001900390600052602060002090600b020160009091909190915060008201518160000160006101000a81548173ffffffffffffffffffffffffffffffffffffffff021916908373ffffffffffffffffffffffffffffffffffffffff1602179055506020820151816001015560408201518160020160006101000a81548173ffffffffffffffffffffffffffffffffffffffff021916908373ffffffffffffffffffffffffffffffffffffffff1602179055506060820151816003015560808201518160040160006101000a81548173ffffffffffffffffffffffffffffffffffffffff021916908373ffffffffffffffffffffffffffffffffffffffff16021790555060a0820151816005015560c0820151816006015560e082015181600701556101008201518160080155610120820151816009015561014082015181600a0160006101000a81548173ffffffffffffffffffffffffffffffffffffffff021916908373ffffffffffffffffffffffffffffffffffffffff160217905550505083600560008a73ffffffffffffffffffffffffffffffffffffffff1673ffffffffffffffffffffffffffffffffffffffff1681526020019081526020016000206000898152602001908152602001600020600301600082825461398c919061599a565b9250508190555083600560008a73ffffffffffffffffffffffffffffffffffffffff1673ffffffffffffffffffffffffffffffffffffffff168152602001908152602001600020600089815260200190815260200160002060080160008282546139f691906158b9565b9250508190555084600560008a73ffffffffffffffffffffffffffffffffffffffff1673ffffffffffffffffffffffffffffffffffffffff1681526020019081526020016000206000898152602001908152602001600020600a016000828254613a6091906158b9565b92505081905550600560008973ffffffffffffffffffffffffffffffffffffffff1673ffffffffffffffffffffffffffffffffffffffff168152602001908152602001600020600088815260200190815260200160002060020160009054906101000a900473ffffffffffffffffffffffffffffffffffffffff1673ffffffffffffffffffffffffffffffffffffffff1663a9059cbb8a866040518363ffffffff1660e01b8152600401613b159291906153e8565b602060405180830381600087803b158015613b2f57600080fd5b505af1158015613b43573d6000803e3d6000fd5b505050506040513d601f19601f82011682018060405250810190613b679190614b63565b50505050505050505050565b60008183613b819190615940565b905092915050565b600860008781526020019081526020016000208181548110613bae57613bad615b1b565b5b90600052602060002090600b020160000160009054906101000a900473ffffffffffffffffffffffffffffffffffffffff1673ffffffffffffffffffffffffffffffffffffffff168873ffffffffffffffffffffffffffffffffffffffff1614613c4d576040517f08c379a0000000000000000000000000000000000000000000000000000000008152600401613c4490615530565b60405180910390fd5b600560008873ffffffffffffffffffffffffffffffffffffffff1673ffffffffffffffffffffffffffffffffffffffff168152602001908152602001600020600087815260200190815260200160002060090154613d5185600860008a81526020019081526020016000208481548110613cca57613cc9615b1b565b5b90600052602060002090600b020160050154613ce691906158b9565b613cee614822565b613cf89190615940565b85600860008b81526020019081526020016000208581548110613d1e57613d1d615b1b565b5b90600052602060002090600b020160030154613d3a91906158b9565b613d42613393565b613d4c9190615940565b61482b565b11613d5b57600080fd5b60008573ffffffffffffffffffffffffffffffffffffffff166370a08231306040518263ffffffff1660e01b8152600401613d96919061536d565b60206040518083038186803b158015613dae57600080fd5b505afa158015613dc2573d6000803e3d6000fd5b505050506040513d601f19601f82011682018060405250810190613de69190614bbd565b90508573ffffffffffffffffffffffffffffffffffffffff166323b872dd8a30886040518463ffffffff1660e01b8152600401613e25939291906153b1565b602060405180830381600087803b158015613e3f57600080fd5b505af1158015613e53573d6000803e3d6000fd5b505050506040513d601f19601f82011682018060405250810190613e779190614b63565b508573ffffffffffffffffffffffffffffffffffffffff166370a08231306040518263ffffffff1660e01b8152600401613eb1919061536d565b60206040518083038186803b158015613ec957600080fd5b505afa158015613edd573d6000803e3d6000fd5b505050506040513d601f19601f82011682018060405250810190613f019190614bbd565b8582613f0d91906158b9565b14613f1757600080fd5b83600860008981526020019081526020016000208381548110613f3d57613f3c615b1b565b5b90600052602060002090600b02016003016000828254613f5d91906158b9565b9250508190555084600860008981526020019081526020016000208381548110613f8a57613f89615b1b565b5b90600052602060002090600b02016005016000828254613faa91906158b9565b92505081905550614003600860008981526020019081526020016000208381548110613fd957613fd8615b1b565b5b90600052602060002090600b020160030154613ff3613393565b613ffd9190615940565b84613b73565b60086000898152602001908152602001600020838154811061402857614027615b1b565b5b90600052602060002090600b02016006018190555083600560008a73ffffffffffffffffffffffffffffffffffffffff1673ffffffffffffffffffffffffffffffffffffffff168152602001908152602001600020600089815260200190815260200160002060030160008282546140a0919061599a565b9250508190555083600560008a73ffffffffffffffffffffffffffffffffffffffff1673ffffffffffffffffffffffffffffffffffffffff1681526020019081526020016000206000898152602001908152602001600020600801600082825461410a91906158b9565b9250508190555084600560008a73ffffffffffffffffffffffffffffffffffffffff1673ffffffffffffffffffffffffffffffffffffffff1681526020019081526020016000206000898152602001908152602001600020600a01600082825461417491906158b9565b92505081905550600560008973ffffffffffffffffffffffffffffffffffffffff1673ffffffffffffffffffffffffffffffffffffffff168152602001908152602001600020600088815260200190815260200160002060020160009054906101000a900473ffffffffffffffffffffffffffffffffffffffff1673ffffffffffffffffffffffffffffffffffffffff1663a9059cbb8a866040518363ffffffff1660e01b81526004016142299291906153e8565b602060405180830381600087803b15801561424357600080fd5b505af1158015614257573d6000803e3d6000fd5b505050506040513d601f19601f8201168201806040525081019061427b9190614b63565b50505050505050505050565b6000428560e00151106142cf576040517f08c379a00000000000000000000000000000000000000000000000000000000081526004016142c690615590565b60405180910390fd5b600060646058866142e09190615940565b6142ea919061590f565b905080856142f8919061599a565b6005600088610140015173ffffffffffffffffffffffffffffffffffffffff1673ffffffffffffffffffffffffffffffffffffffff1681526020019081526020016000206000858152602001908152602001600020600301600082825461435f91906158b9565b9250508190555061437286828686614388565b61437b57600080fd5b6001915050949350505050565b60006143a38560600151866101200151876101000151610c8f565b85606001818152505083856060015110156143f3576040517f08c379a00000000000000000000000000000000000000000000000000000000081526004016143ea90615710565b60405180910390fd5b6000856040015173ffffffffffffffffffffffffffffffffffffffff166370a08231306040518263ffffffff1660e01b8152600401614432919061536d565b60206040518083038186803b15801561444a57600080fd5b505afa15801561445e573d6000803e3d6000fd5b505050506040513d601f19601f820116820180604052508101906144829190614bbd565b9050856040015173ffffffffffffffffffffffffffffffffffffffff166323b872dd8530886040518463ffffffff1660e01b81526004016144c5939291906153b1565b602060405180830381600087803b1580156144df57600080fd5b505af11580156144f3573d6000803e3d6000fd5b505050506040513d601f19601f820116820180604052508101906145179190614b63565b50856040015173ffffffffffffffffffffffffffffffffffffffff166370a08231306040518263ffffffff1660e01b8152600401614555919061536d565b60206040518083038186803b15801561456d57600080fd5b505afa158015614581573d6000803e3d6000fd5b505050506040513d601f19601f820116820180604052508101906145a59190614bbd565b85826145b191906158b9565b146145bf576145be615a5f565b5b6000866101400151905085600560008373ffffffffffffffffffffffffffffffffffffffff1673ffffffffffffffffffffffffffffffffffffffff1681526020019081526020016000206000868152602001908152602001600020600801600082825461462c919061599a565b9250508190555085600560008373ffffffffffffffffffffffffffffffffffffffff1673ffffffffffffffffffffffffffffffffffffffff1681526020019081526020016000206000868152602001908152602001600020600301600082825461469691906158b9565b9250508190555060006146a98587612ed9565b915050866008600087815260200190815260200160002082815481106146d2576146d1615b1b565b5b90600052602060002090600b020160030160008282546146f2919061599a565b925050819055504260086000878152602001908152602001600020828154811061471f5761471e615b1b565b5b90600052602060002090600b0201600801819055506147d961473f613393565b60086000888152602001908152602001600020838154811061476457614763615b1b565b5b90600052602060002090600b0201600301546147809190615940565b600560008573ffffffffffffffffffffffffffffffffffffffff1673ffffffffffffffffffffffffffffffffffffffff168152602001908152602001600020600088815260200190815260200160002060090154613b73565b6008600087815260200190815260200160002082815481106147fe576147fd615b1b565b5b90600052602060002090600b02016006018190555060019350505050949350505050565b60006001905090565b60008183614839919061590f565b905092915050565b604051806101600160405280600073ffffffffffffffffffffffffffffffffffffffff16815260200160008152602001600073ffffffffffffffffffffffffffffffffffffffff16815260200160008152602001600073ffffffffffffffffffffffffffffffffffffffff1681526020016000815260200160008152602001600081526020016000815260200160008152602001600073ffffffffffffffffffffffffffffffffffffffff1681525090565b60405180610180016040528060008152602001600073ffffffffffffffffffffffffffffffffffffffff168152602001600015158152602001600073ffffffffffffffffffffffffffffffffffffffff16815260200160008152602001600081526020016000815260200160008152602001600073ffffffffffffffffffffffffffffffffffffffff1681526020016000815260200160008152602001600081525090565b6000813590506149a781615fe8565b92915050565b6000813590506149bc81615fff565b92915050565b6000815190506149d181615fff565b92915050565b6000813590506149e681616016565b92915050565b6000815190506149fb81616016565b92915050565b600060208284031215614a1757614a16615b4a565b5b6000614a2584828501614998565b91505092915050565b60008060408385031215614a4557614a44615b4a565b5b6000614a5385828601614998565b9250506020614a64858286016149d7565b9150509250929050565b600080600060608486031215614a8757614a86615b4a565b5b6000614a9586828701614998565b9350506020614aa6868287016149d7565b9250506040614ab7868287016149ad565b9150509250925092565b600080600080600080600060e0888a031215614ae057614adf615b4a565b5b6000614aee8a828b01614998565b9750506020614aff8a828b016149d7565b9650506040614b108a828b016149d7565b9550506060614b218a828b016149d7565b9450506080614b328a828b016149d7565b93505060a0614b438a828b01614998565b92505060c0614b548a828b016149d7565b91505092959891949750929550565b600060208284031215614b7957614b78615b4a565b5b6000614b87848285016149c2565b91505092915050565b600060208284031215614ba657614ba5615b4a565b5b6000614bb4848285016149d7565b91505092915050565b600060208284031215614bd357614bd2615b4a565b5b6000614be1848285016149ec565b91505092915050565b60008060408385031215614c0157614c00615b4a565b5b6000614c0f858286016149d7565b9250506020614c2085828601614998565b9150509250929050565b600080600080600060a08688031215614c4657614c45615b4a565b5b6000614c54888289016149d7565b9550506020614c6588828901614998565b9450506040614c76888289016149d7565b9350506060614c8788828901614998565b9250506080614c98888289016149d7565b9150509295509295909350565b60008060408385031215614cbc57614cbb615b4a565b5b6000614cca858286016149d7565b9250506020614cdb858286016149d7565b9150509250929050565b6000614cf18383614d15565b60208301905092915050565b6000614d09838361534f565b60208301905092915050565b614d1e816159ce565b82525050565b614d2d816159ce565b82525050565b6000614d3e82615856565b614d488185615886565b9350614d5383615836565b8060005b83811015614d84578151614d6b8882614ce5565b9750614d768361586c565b925050600181019050614d57565b5085935050505092915050565b6000614d9c82615861565b614da68185615897565b9350614db183615846565b8060005b83811015614de2578151614dc98882614cfd565b9750614dd483615879565b925050600181019050614db5565b5085935050505092915050565b614df8816159e0565b82525050565b614e07816159e0565b82525050565b6000614e1a600f836158a8565b9150614e2582615b4f565b602082019050919050565b6000614e3d600b836158a8565b9150614e4882615b78565b602082019050919050565b6000614e606011836158a8565b9150614e6b82615ba1565b602082019050919050565b6000614e836026836158a8565b9150614e8e82615bca565b604082019050919050565b6000614ea66014836158a8565b9150614eb182615c19565b602082019050919050565b6000614ec96010836158a8565b9150614ed482615c42565b602082019050919050565b6000614eec6013836158a8565b9150614ef782615c6b565b602082019050919050565b6000614f0f6026836158a8565b9150614f1a82615c94565b604082019050919050565b6000614f326017836158a8565b9150614f3d82615ce3565b602082019050919050565b6000614f556015836158a8565b9150614f6082615d0c565b602082019050919050565b6000614f78600f836158a8565b9150614f8382615d35565b602082019050919050565b6000614f9b6014836158a8565b9150614fa682615d5e565b602082019050919050565b6000614fbe6016836158a8565b9150614fc982615d87565b602082019050919050565b6000614fe16016836158a8565b9150614fec82615db0565b602082019050919050565b60006150046030836158a8565b915061500f82615dd9565b604082019050919050565b60006150276020836158a8565b915061503282615e28565b602082019050919050565b600061504a601b836158a8565b915061505582615e51565b602082019050919050565b600061506d6016836158a8565b915061507882615e7a565b602082019050919050565b60006150906013836158a8565b915061509b82615ea3565b602082019050919050565b60006150b3601b836158a8565b91506150be82615ecc565b602082019050919050565b60006150d66011836158a8565b91506150e182615ef5565b602082019050919050565b60006150f96018836158a8565b915061510482615f1e565b602082019050919050565b600061511c601f836158a8565b915061512782615f47565b602082019050919050565b600061513f602e836158a8565b915061514a82615f70565b604082019050919050565b6000615162601d836158a8565b915061516d82615fbf565b602082019050919050565b6101608201600082015161518f6000850182614d15565b5060208201516151a2602085018261534f565b5060408201516151b56040850182614d15565b5060608201516151c8606085018261534f565b5060808201516151db6080850182614d15565b5060a08201516151ee60a085018261534f565b5060c082015161520160c085018261534f565b5060e082015161521460e085018261534f565b5061010082015161522961010085018261534f565b5061012082015161523e61012085018261534f565b50610140820151615253610140850182614d15565b50505050565b61018082016000820151615270600085018261534f565b5060208201516152836020850182614d15565b5060408201516152966040850182614def565b5060608201516152a96060850182614d15565b5060808201516152bc608085018261534f565b5060a08201516152cf60a085018261534f565b5060c08201516152e260c085018261534f565b5060e08201516152f560e085018261534f565b5061010082015161530a610100850182614d15565b5061012082015161531f61012085018261534f565b5061014082015161533461014085018261534f565b5061016082015161534961016085018261534f565b50505050565b61535881615a0c565b82525050565b61536781615a0c565b82525050565b60006020820190506153826000830184614d24565b92915050565b600060408201905061539d6000830185614d24565b6153aa6020830184614d24565b9392505050565b60006060820190506153c66000830186614d24565b6153d36020830185614d24565b6153e0604083018461535e565b949350505050565b60006040820190506153fd6000830185614d24565b61540a602083018461535e565b9392505050565b6000602082019050818103600083015261542b8184614d33565b905092915050565b6000602082019050818103600083015261544d8184614d91565b905092915050565b600060208201905061546a6000830184614dfe565b92915050565b6000602082019050818103600083015261548981614e0d565b9050919050565b600060208201905081810360008301526154a981614e30565b9050919050565b600060208201905081810360008301526154c981614e53565b9050919050565b600060208201905081810360008301526154e981614e76565b9050919050565b6000602082019050818103600083015261550981614e99565b9050919050565b6000602082019050818103600083015261552981614ebc565b9050919050565b6000602082019050818103600083015261554981614edf565b9050919050565b6000602082019050818103600083015261556981614f02565b9050919050565b6000602082019050818103600083015261558981614f25565b9050919050565b600060208201905081810360008301526155a981614f48565b9050919050565b600060208201905081810360008301526155c981614f6b565b9050919050565b600060208201905081810360008301526155e981614f8e565b9050919050565b6000602082019050818103600083015261560981614fb1565b9050919050565b6000602082019050818103600083015261562981614fd4565b9050919050565b6000602082019050818103600083015261564981614ff7565b9050919050565b600060208201905081810360008301526156698161501a565b9050919050565b600060208201905081810360008301526156898161503d565b9050919050565b600060208201905081810360008301526156a981615060565b9050919050565b600060208201905081810360008301526156c981615083565b9050919050565b600060208201905081810360008301526156e9816150a6565b9050919050565b60006020820190508181036000830152615709816150c9565b9050919050565b60006020820190508181036000830152615729816150ec565b9050919050565b600060208201905081810360008301526157498161510f565b9050919050565b6000602082019050818103600083015261576981615132565b9050919050565b6000602082019050818103600083015261578981615155565b9050919050565b6000610160820190506157a66000830184615178565b92915050565b6000610180820190506157c26000830184615259565b92915050565b60006020820190506157dd600083018461535e565b92915050565b600060a0820190506157f8600083018861535e565b615805602083018761535e565b615812604083018661535e565b61581f606083018561535e565b61582c608083018461535e565b9695505050505050565b6000819050602082019050919050565b6000819050602082019050919050565b600081519050919050565b600081519050919050565b6000602082019050919050565b6000602082019050919050565b600082825260208201905092915050565b600082825260208201905092915050565b600082825260208201905092915050565b60006158c482615a0c565b91506158cf83615a0c565b9250827fffffffffffffffffffffffffffffffffffffffffffffffffffffffffffffffff0382111561590457615903615a8e565b5b828201905092915050565b600061591a82615a0c565b915061592583615a0c565b92508261593557615934615abd565b5b828204905092915050565b600061594b82615a0c565b915061595683615a0c565b9250817fffffffffffffffffffffffffffffffffffffffffffffffffffffffffffffffff048311821515161561598f5761598e615a8e565b5b828202905092915050565b60006159a582615a0c565b91506159b083615a0c565b9250828210156159c3576159c2615a8e565b5b828203905092915050565b60006159d9826159ec565b9050919050565b60008115159050919050565b600073ffffffffffffffffffffffffffffffffffffffff82169050919050565b6000819050919050565b6000615a2182615a0c565b91507fffffffffffffffffffffffffffffffffffffffffffffffffffffffffffffffff821415615a5457615a53615a8e565b5b600182019050919050565b7f4e487b7100000000000000000000000000000000000000000000000000000000600052600160045260246000fd5b7f4e487b7100000000000000000000000000000000000000000000000000000000600052601160045260246000fd5b7f4e487b7100000000000000000000000000000000000000000000000000000000600052601260045260246000fd5b7f4e487b7100000000000000000000000000000000000000000000000000000000600052603160045260246000fd5b7f4e487b7100000000000000000000000000000000000000000000000000000000600052603260045260246000fd5b600080fd5b7f71756573746f2066756e7a696f6e610000000000000000000000000000000000600082015250565b7f5265706179206572726f72000000000000000000000000000000000000000000600082015250565b7f617373657420646f6e277420666f756e64000000000000000000000000000000600082015250565b7f4f776e61626c653a206e6577206f776e657220697320746865207a65726f206160008201527f6464726573730000000000000000000000000000000000000000000000000000602082015250565b7f636f6c6c61746572616c206e6f742076616c6964000000000000000000000000600082015250565b7f62616c616e63652075736572206c6f7700000000000000000000000000000000600082015250565b7f4e6f74206f776e65722074686973206c6f616e00000000000000000000000000600082015250565b7f426f72726f77657220666f72207468697320636f6e7472616374206e6f74207060008201527f726573656e740000000000000000000000000000000000000000000000000000602082015250565b7f4e6f74206f776e6572207468697320636f6e7472616374000000000000000000600082015250565b7f54686973206c6f616e206e6f7420657870697265640000000000000000000000600082015250565b7f696e76616c696420616464726573730000000000000000000000000000000000600082015250565b7f416d6f756e7420617676616c69626c65206c6f77000000000000000000000000600082015250565b7f636f6c6c61746572616c20646f6e277420666f756e6400000000000000000000600082015250565b7f41737365747420616c726561647920696e206c69737400000000000000000000600082015250565b7f54686973206c656e6465722068617320626c6f636b656420746865206973737560008201527f616e6365206f66206e6577204c6f616e00000000000000000000000000000000602082015250565b7f4f776e61626c653a2063616c6c6572206973206e6f7420746865206f776e6572600082015250565b7f70656e616c697479206d75737420686176652067656174656520300000000000600082015250565b7f696e6372656173206d75737420626520706c7573203000000000000000000000600082015250565b7f636f6e747261637420646f6e7420657869737400000000000000000000000000600082015250565b7f646561646c696e65206d75737420686176652067656174656520300000000000600082015250565b7f616c6f77616e63652075736572206c6f77000000000000000000000000000000600082015250565b7f596f752063616e206f6e6c79204c6f616e20616d6f756e740000000000000000600082015250565b7f5265656e7472616e637947756172643a207265656e7472616e742063616c6c00600082015250565b7f41737365747420617676616c69626c6520696e73756666696369656e7420666f60008201527f7220746869732077686964726f77000000000000000000000000000000000000602082015250565b7f436f6e7472616374206861766520617373657420696e20626f72726f77000000600082015250565b615ff1816159ce565b8114615ffc57600080fd5b50565b616008816159e0565b811461601357600080fd5b50565b61601f81615a0c565b811461602a57600080fd5b5056fea264697066735822122062ed0d379486f1fd2ab177b103ab5cb88d12159e83f78a07a1ddf821119ebd6164736f6c63430008070033",
  "immutableReferences": {},
  "source": "// SPDX-License-Identifier: Leluk911\n\npragma solidity 0.8.7;\n\nimport \"../node_modules/@openzeppelin/contracts/token/ERC20/IERC20.sol\";\nimport \"../node_modules/@openzeppelin/contracts/access/Ownable.sol\";\nimport \"../node_modules/@openzeppelin/contracts/utils/Counters.sol\";\nimport \"../node_modules/@openzeppelin/contracts/security/ReentrancyGuard.sol\";\n\n\ncontract lendingPage is Ownable,ReentrancyGuard {\n    //library\n\n    using Counters for Counters.Counter;\n    //function variable\n    Counters.Counter private Id; // id every lending contract\n    address[] private assetAvvalible; // asset add from Owner (only asset present in chainLink oracle)\n    uint private minPenality;\n    // User\n    struct LendingContract {\n        uint id;\n        address owner;\n        bool lock;\n        address asset;\n        //uint amount;\n        uint amountAvvalible;\n        uint apr;\n        uint duration;\n        uint penality;\n        address collateral;\n        uint amountBorrow;\n        uint rateCollateral;\n        uint amountCollateral;\n    }\n    mapping(address => mapping(uint=>LendingContract)) private userLendingContract;\n    mapping(address => uint[])listContractUser;\n    uint[] private listContract;\n    // borrower\n\n    struct Borrower{\n        address owner;\n        uint idContract;\n        address assetBorrow;\n        uint ammounBorrow; // da correggere\n        //uint heltBorrow;\n        address assetCollaterl;\n        uint amountCollateral;\n        uint liquidationThreshold;\n        uint expiration;\n        uint blockStart;\n        uint aprLoan;\n        address lender;\n    }\n    mapping(uint => Borrower[]) private borrowersXid;\n    //mapping(address => mapping(uint=>Borrower)) private BorrowerContract;\n\n\n    //-------------------------------//\n    constructor(uint _minpenality) Ownable() ReentrancyGuard(){\n        Id.increment();\n        minPenality = _minpenality;\n    }\n    // INTERNAL FUNCTION \n    function _setAssettAvvalible(address _newAsset) internal{\n        require(_newAsset != address(0), \"invalid address\");\n        require(!_findAsset(_newAsset),\"Assett already in list\");\n        assetAvvalible.push(_newAsset);\n        emit NewAssetAvvalible(_newAsset, block.timestamp);   \n    }\n    function _healFactor(uint _priceCollateralETH, uint _priceBorrowEth) internal pure returns(uint){\n        return (_priceCollateralETH/_priceBorrowEth);\n    }\n    function _liquidationThresold( uint _priceBorrowEth,uint _rateLiquidation) internal pure returns(uint){\n        return (\n            //uint _priceCollateralETH,\n            //(_priceCollateralETH * _priceBorrowEth)/(_rateLiquidation * _priceBorrowEth)\n            _priceBorrowEth * _rateLiquidation \n\n        );\n    }\n    //-----> Serch function  \n    function _findAsset(address _asset) internal view returns(bool){\n        for(uint i = 0; i<assetAvvalible.length; i++){\n            if(assetAvvalible[i]==_asset){\n                return true;\n            }\n        }\n        return false;\n    }\n    function _getAssettAvvalible()internal view returns (address[] memory ){\n        return assetAvvalible; \n    }\n    //-----> Search function user \n    function _listContractXuser(address _user) internal view returns(uint[] memory){\n       return listContractUser[_user];\n    }\n     function _findContractLending(address _to,uint _id)internal view returns(LendingContract memory){\n        return userLendingContract[_to][_id];\n    }\n     function _findArrayindexContract(address _to,uint deleteId)internal view returns(uint,bool){\n            uint index = 0;\n            bool response = false;\n            for(uint i=0 ;i<listContractUser[_to].length;i++){\n                if (deleteId == listContractUser[_to][i]){\n                    index = i;\n                    response = true;\n                }\n            }\n            return (index,response);\n        \n    }\n    function _findContractAvvalible(uint _IdFind)internal view returns(uint,bool){\n         uint index = 0;\n         bool response = false;\n         for(uint i=0 ;i<listContract.length;i++){\n             if (_IdFind == listContract[i]){\n                 index = i;\n                 response = true;\n             }\n         }\n         return (index,response);\n     \n    }\n    //------> Search function Borrower\n    function _serchIndexBorrowerXContract(uint _idContract,address _borrower) internal view returns(bool,uint){\n      for(uint i =0; i<borrowersXid[_idContract].length;i++ ){\n          if(borrowersXid[_idContract][i].owner == _borrower){\n              return (true,i);\n          }\n      }\n      return (false,0);\n    }\n    function _serchBorrowerPositionXContract(uint _idContract,address _borrower) internal view returns(Borrower memory){\n       for(uint i =0; i<borrowersXid[_idContract].length;i++ ){\n           if(borrowersXid[_idContract][i].owner == _borrower){\n               return (borrowersXid[_idContract][i]);\n           }\n       }\n       revert(\"Borrower for this contract not present\");\n    }\n   \n    // ----> User Function\n    function _deposit(address _to,address _asset,uint _amount,uint _apr,uint _deadline,uint _penality,address _collateral,uint _rateCollateral)internal {\n        //check\n        require(_to != address(0), \"invalid address\");\n        require(_asset != _collateral, \"collateral not valid\");\n        require(_findAsset(_asset),\"asset don't found\");\n        require(_findAsset(_collateral),\"collateral don't found\");\n        require(IERC20(_asset).balanceOf(_to) >= _amount,\"balance user low\");\n        require(IERC20(_asset).allowance(_to, address(this)) >= _amount,\"alowance user low\");\n        require(_deadline > 0,\"deadline must have geatee 0\");\n        require(_penality >=  minPenality,\"penality must have geatee 0\");    \n        // action\n        uint balanceContract = IERC20(_asset).balanceOf(address(this)); \n        IERC20(_asset).transferFrom(_to,address(this), _amount);\n        require(balanceContract+_amount == IERC20(_asset).balanceOf(address(this)));\n        // prepare local variable\n        LendingContract memory newContract= LendingContract(\n            Id.current(),\n            _to,\n            false,\n            _asset,\n            //_amount,\n            _amount,\n            _apr,\n            _deadline,\n            _penality,\n            _collateral,\n            0,\n            _rateCollateral,\n            0\n        );\n        // update status global variable\n        userLendingContract[_to][Id.current()] = newContract;\n        emit NewContractDeposit(\n            Id.current(),_to,_asset,_amount,_apr,_deadline,_penality, _collateral\n        );\n        listContractUser[_to].push(Id.current());\n        listContract.push(Id.current());\n        Id.increment();\n\n\n    }\n    function _increasDeposit(address _to,uint _idContract, uint _increasAmount) internal  contractOwner(_to, _idContract){\n        require(_increasAmount > 0, \"increas must be plus 0\");\n        require(IERC20(_findContractLending(_to,_idContract).asset).balanceOf(_to) >= _increasAmount,\"balance user low\");\n        require(IERC20(_findContractLending(_to,_idContract).asset).allowance(_to, address(this)) >= _increasAmount,\"alowance user low\");\n        \n        uint balanceContract = IERC20(_findContractLending(_to,_idContract).asset).balanceOf(address(this)); \n        IERC20(_findContractLending(_to,_idContract).asset).transferFrom(_to,address(this), _increasAmount);\n        require(balanceContract+_increasAmount == IERC20(_findContractLending(_to,_idContract).asset).balanceOf(address(this)));\n\n        userLendingContract[_to][_idContract].amountAvvalible += _increasAmount; \n\n        emit IncreasContractDeposit(\n            _findContractLending(_to,_idContract).id,\n            _findContractLending(_to,_idContract).amountAvvalible - _increasAmount,\n            _findContractLending(_to,_idContract).amountAvvalible  \n        );\n    }\n    function _decreasDeposit(address _to,uint _idContract, uint _decreasAmount) internal contractOwner(_to, _idContract){\n        require(_decreasAmount > 0, \"increas must be plus 0\");\n        require(\n            _findContractLending(_to,_idContract).amountAvvalible >= _decreasAmount, \"Assett avvalible insufficient for this whidrow\"\n        );\n     \n\n        userLendingContract[_to][_idContract].amountAvvalible -= _decreasAmount;\n\n        uint balanceContract = IERC20(_findContractLending(_to,_idContract).asset).balanceOf(address(this)); \n        IERC20(_findContractLending(_to,_idContract).asset).transfer(_to,_decreasAmount);\n        require(balanceContract -_decreasAmount == IERC20(_findContractLending(_to,_idContract).asset).balanceOf(address(this)));\n\n        emit DecreasContractDeposit(\n            _findContractLending(_to,_idContract).id,\n            _findContractLending(_to,_idContract).amountAvvalible + _decreasAmount,\n            _findContractLending(_to,_idContract).amountAvvalible\n            \n        );\n\n    }\n    function _deleteContract(address _to,uint _idContract)internal contractOwner(_to, _idContract){\n       require(\n            _findContractLending(_to,_idContract).amountBorrow == 0, \"Contract have asset in borrow\"\n        ); \n        uint amountRepay = userLendingContract[_to][_idContract].amountAvvalible;\n        uint deleteId = userLendingContract[_to][_idContract].id;\n        address assetWidrow =_findContractLending(_to,_idContract).asset;\n        delete userLendingContract[_to][_idContract];\n        if(listContractUser[_to].length > 0){\n             // serch index of delete\n            (uint indexDelete, bool response) = _findArrayindexContract(_to, deleteId);\n            if(response){\n                //clean array\n                listContractUser[_to][indexDelete]=listContractUser[_to][listContractUser[_to].length -1];\n                listContractUser[_to].pop();\n            }\n        }else{\n            listContractUser[_to].pop(); // clean array\n        }\n          if(listContract.length > 0){\n             // serch index of delete\n            (uint indexDelete, bool response) = _findContractAvvalible(_idContract);\n            if(response){\n                //clean array\n                listContract[indexDelete] = listContract[listContract.length -1];\n                listContract.pop();\n            }\n        }else{\n            listContract.pop(); // clean array\n        }\n        uint balanceContract = IERC20(assetWidrow).balanceOf(address(this)); \n        IERC20(assetWidrow).transfer(_to,amountRepay);\n        require(balanceContract -amountRepay == IERC20(assetWidrow).balanceOf(address(this)));\n\n        emit DeleteContractDeposit(_to, deleteId);\n    }\n    function _lockNewBorrow(address _to,uint _idContract,bool _lock)internal contractOwner(_to, _idContract){\n             lock[_idContract] = _lock;\n            //userLendingContract[_to][_idContract].lock = _lock;   \n       \n    }\n  \n    //BORROW FUNCTION\n    function _executeBorrow(address _to,uint _idContract,address _lender,uint _amountBorrow,address _assettCollateral,uint _amountCollateral) internal {\n        require(lock[_idContract] == false, \"questo funziona\");\n        require(userLendingContract[_to][_idContract].lock == false,\"This lender has blocked the issuance of new Loan\");\n        (,bool response) = _findArrayindexContract(_lender,_idContract);\n        require(response,\"contract dont exist\");\n        require(userLendingContract[_lender][_idContract].amountAvvalible >= _amountBorrow,\"Amount avvalible low\");\n        //// controll and utility  local var\n        //uint _priceCollateralETH = _mockOracleCollateral();// fix with true oracle\n        uint _priceBorrowEth = _mockOracleBorrow();// fix with true oracle\n        uint _rateLiquidation = userLendingContract[_lender][_idContract].rateCollateral;\n        (bool responseSrc,uint indexBorrow) = _serchIndexBorrowerXContract(_idContract, _to);\n        //check before act borrow \n      \n    \n        if(!responseSrc){\n            _newBorrower(_to,_lender, _idContract, _assettCollateral, _amountCollateral, _amountBorrow, _rateLiquidation);\n        }else{\n            require(_liquidationThresold(\n                          //_priceCollateralETH*borrowersXid[_idContract][indexBorrow].ammounBorrow,\n                          _priceBorrowEth*borrowersXid[_idContract][indexBorrow].amountCollateral,\n                           _rateLiquidation) > _mockOracleBorrow());\n            _oldBorrower(_to, _lender, _idContract, _assettCollateral, _amountCollateral, _amountBorrow, _rateLiquidation, indexBorrow);\n\n        }\n\n        emit Borrow(_to, _idContract, _amountBorrow);\n    }\n\n    function _oldBorrower(address _to,address _lender,uint _idContract,address _assettCollateral,uint _amountCollateral,uint _amountBorrow, uint _rateLiquidation,uint indexBorrow)internal {\n        // gia cliente??\n        // aggiorniamo i conti vecchi \n        // aggiungere al controllo le coin gia depositate e prese in prestito \n        require(_to == borrowersXid[_idContract][indexBorrow].owner, \"Not owner this loan\" );\n        require(_healFactor(_mockOracleCollateral() *(borrowersXid[_idContract][indexBorrow].amountCollateral + _amountCollateral),\n                             _mockOracleBorrow() *(borrowersXid[_idContract][indexBorrow].ammounBorrow + _amountBorrow)\n                             )> userLendingContract[_lender][_idContract].rateCollateral); \n\n        uint balanceBefore = IERC20(_assettCollateral).balanceOf(address(this));\n            IERC20(_assettCollateral).transferFrom(_to, address(this), _amountCollateral);\n            require( balanceBefore + _amountCollateral == IERC20(_assettCollateral).balanceOf(address(this)));\n\n            borrowersXid[_idContract][indexBorrow].ammounBorrow += _amountBorrow;// aggiornata la variabile globale\n            borrowersXid[_idContract][indexBorrow].amountCollateral += _amountCollateral;// aggiornata la variabile globale\n            // updata thresoldLiquidation \n            borrowersXid[_idContract][indexBorrow].liquidationThreshold =\n                    _liquidationThresold(\n                        //_mockOracleCollateral()*borrowersXid[_idContract][indexBorrow].amountCollateral,\n                        _mockOracleBorrow()*borrowersXid[_idContract][indexBorrow].ammounBorrow,\n                         _rateLiquidation);\n\n            userLendingContract[_lender][_idContract].amountAvvalible -=_amountBorrow;// togliamo le coin prestare\n            userLendingContract[_lender][_idContract].amountBorrow += _amountBorrow; // incrementiamo il capitale prestato\n            userLendingContract[_lender][_idContract].amountCollateral += _amountCollateral;// aggiungiamo la quantita di collaterale presente nel contratto\n            //BorrowerContract[_to][indexBorrow] = borrowersXid[_idContract][indexBorrow];\n            IERC20(userLendingContract[_lender][_idContract].asset).transfer(_to, _amountBorrow);\n\n    }\n\n    function _newBorrower(address _to,address _lender,uint _idContract,address _assettCollateral,uint _amountCollateral,uint _amountBorrow, uint _rateLiquidation)internal {\n        // nuovo cliente????\n        // conti nuovi\n        require(_healFactor(_mockOracleCollateral() * _amountCollateral, _mockOracleBorrow()*_amountBorrow) > userLendingContract[_lender][_idContract].rateCollateral);\n        // spreco di gas????\n        uint balanceBefore = IERC20(_assettCollateral).balanceOf(address(this));\n        IERC20(_assettCollateral).transferFrom(_to, address(this), _amountCollateral);\n        require( balanceBefore + _amountCollateral == IERC20(_assettCollateral).balanceOf(address(this)));\n        // preparazione dei dati del borrower non ancora settat nella variabile locale\n        Borrower memory newBorrower = Borrower(\n                                            _to,\n                                            _idContract,\n                                            userLendingContract[_lender][_idContract].asset,\n                                            _amountBorrow,\n                                            //uint heltBorrow;\n                                            _assettCollateral,\n                                            _amountCollateral,\n                                            _liquidationThresold(\n                                                //_mockOracleCollateral()*_amountCollateral,\n                                                 _mockOracleBorrow()*_amountBorrow,\n                                                 _rateLiquidation),\n                                            block.timestamp + userLendingContract[_lender][_idContract].duration,\n                                            block.timestamp,\n                                            _findContractLending(_lender,_idContract).apr,\n                                            _lender\n\n                                            );\n\n        borrowersXid[_idContract].push(newBorrower);// aggiornata la variabile locale\n        // aggiorniamo i dati del lender\n\n        userLendingContract[_lender][_idContract].amountAvvalible -=_amountBorrow;// togliamo le coin prestare\n        userLendingContract[_lender][_idContract].amountBorrow += _amountBorrow; // incrementiamo il capitale prestato\n        userLendingContract[_lender][_idContract].amountCollateral += _amountCollateral;// aggiungiamo la quantita di collaterale presente nel contratto\n        //BorrowerContract[_to][borrowersXid[_idContract].length] = newBorrower;\n        IERC20(userLendingContract[_lender][_idContract].asset).transfer(_to, _amountBorrow);\n    }\n    \n    // EXTERNAL FUNCTION\n    function setAssettAvvalible(address _newAsset) external nonReentrant() onlyOwner() {\n        _setAssettAvvalible(_newAsset);\n    } \n    function findAsset(address _asset) external view returns(bool){\n        return _findAsset(_asset);\n    }\n    function deposit(address _asset,uint _amount,uint _apr,uint _deadline,uint _penality,address _collateral,uint _rateCollateral) external nonReentrant() {\n        _deposit(msg.sender, _asset, _amount, _apr, _deadline, _penality, _collateral,_rateCollateral);\n    }\n    function listContractXuser(address _user) external view returns(uint[] memory){\n        return _listContractXuser(_user);\n    }\n    function getAssettAvvalible()external view returns (address[] memory ){\n        return _getAssettAvvalible(); \n    }\n    function findContractLending(address _to,uint _id)external view returns(LendingContract memory){\n        return _findContractLending(_to, _id);\n    }\n     function increasDeposit(uint _idContract, uint _increasAmount) external nonReentrant(){\n        _increasDeposit(msg.sender, _idContract, _increasAmount);\n    }\n    function decreasDeposit(uint _idContract, uint _decreasAmount) external nonReentrant(){\n        _decreasDeposit(msg.sender, _idContract, _decreasAmount);\n    }\n    function deleteContract(uint _idContract) external nonReentrant(){\n        _deleteContract(msg.sender, _idContract);\n    }\n     function executeBorrow(uint _idContract,address _lender,uint _amountBorrow,address _assettCollateral,uint _amountCollateral) external nonReentrant(){\n        _executeBorrow(msg.sender, _idContract, _lender, _amountBorrow, _assettCollateral, _amountCollateral);\n    }\n    function serchBorrowerPositionXContract(uint _idContract,address _borrower) external view returns (Borrower memory){\n        return _serchBorrowerPositionXContract(_idContract, _borrower);\n\n    }\n    function serchIndexBorrowerXContract(uint _idContract,address _borrower)external view returns(uint){\n        (,uint idFind) = _serchIndexBorrowerXContract(_idContract, _borrower);\n        return idFind;\n    }\n    mapping ( uint => bool) private lock;\n    function lockNewBorrow(address _to,uint _idContract,bool _lock)external nonReentrant(){\n       \n        _lockNewBorrow(_to, _idContract,_lock);\n    }\n\n    //// ^^^^^TESTED^^^^^\n    /// vvvvvvNON TESTEDvvvvv\n   \n    // MODIFIER\n    modifier contractOwner(address _to,uint _idContract){\n        require(\n           _findContractLending(_to,_idContract).owner == _to, \"Not owner this contract\" \n        );\n        _;\n    }\n    // EVENT \n\n     event NewAssetAvvalible(address indexed asset, uint timeStart);\n     event NewContractDeposit(\n        uint Id,\n        address indexed owner,\n        address indexed asset,\n        uint amount,\n        uint apr,\n        uint  deadline,\n        uint  penality,\n        address indexed collateral\n     );\n     event IncreasContractDeposit(\n        uint Id,\n        uint indexed amount,\n        uint indexed newAmount\n     );\n     event DecreasContractDeposit(\n        uint Id,\n        uint indexed amount,\n        uint indexed newAmount\n     );\n\n     event DeleteContractDeposit(\n        address indexed owner,\n        uint indexed id\n     );\n     event Borrow( address indexed Borrower,uint indexed Id_Contract, uint amount);\n\n    // mock function\n\n    function _mockOracleBorrow() internal pure returns(uint price){\n        price = 2;\n    }\n\n    function _mockOracleCollateral() internal pure returns(uint price){\n        price = 1;\n\n    }\n\n\n    //wiew amount of repay \n    function viewAmountLoan(address  _borrower,uint _idContract) external view returns(uint loanCompouse) {\n        Borrower memory loanSituation = _serchBorrowerPositionXContract(_idContract, _borrower);\n        uint apr = loanSituation.aprLoan;\n        uint blockStart = loanSituation.blockStart; \n        loanCompouse= _getTotalLoan(loanSituation.ammounBorrow,apr,blockStart); \n        }\n\n\n    // return loan + interest\n    function _getTotalLoan(uint _loan,uint _apr,uint _blockStart) internal  view returns(uint) {\n    uint deltaTime = block.timestamp - _blockStart;\n    uint loanCompouse = _loan + uint((_loan*_apr*deltaTime) / (100*365*24*60*60)) + 1;\n    //uint interestLoan = loanCompouse - _loan;\n    return loanCompouse;\n    }\n\n    // return only interest\n    function _getinterest(uint _loan,uint _apr,uint _blockStart) internal  view returns(uint interestLoan) {\n        interestLoan = _getTotalLoan(_loan, _apr, _blockStart) - _loan;\n    }\n  \n\n    function _executeRepay(address _to, uint _idContract,uint _amount) internal {\n        Borrower memory loanSituation = _serchBorrowerPositionXContract(_idContract, _to);\n        require(_to  == loanSituation.owner ,\"Not owner this loan\");\n\n        if(block.timestamp > loanSituation.expiration){\n            require(_penalityLoan(loanSituation, _amount, _to, _idContract));// gestire la penalit\n        }else{\n            require(_repay(loanSituation, _amount, _to, _idContract),\"Repay error\");\n        }\n    }\n\n    function _repay(Borrower memory loanSituation, uint _amount,address _to,uint _idContract) internal returns(bool){\n        // portiamo ad adesso la situazione\n            loanSituation.ammounBorrow = _getTotalLoan(\n                loanSituation.ammounBorrow,loanSituation.aprLoan,loanSituation.blockStart);\n            // ripagando si ricomincia il calcolo degli interessi come fosse un prestito nuovo\n            require(loanSituation.ammounBorrow >= _amount, \"You can only Loan amount\");\n\n            uint Balance = IERC20(loanSituation.assetBorrow).balanceOf(address(this));\n            IERC20(loanSituation.assetBorrow).transferFrom(_to,address(this), _amount);\n            assert(Balance + _amount == IERC20(loanSituation.assetBorrow).balanceOf(address(this)));\n\n            // receipt the \"ternis\" update the data lender and borrower\n            address _lender = loanSituation.lender;\n            userLendingContract[_lender][_idContract].amountBorrow -= _amount;\n            userLendingContract[_lender][_idContract].amountAvvalible += _amount;\n\n            (,uint indexBorrow) = _serchIndexBorrowerXContract(_idContract, _to);\n\n\n            borrowersXid[_idContract][indexBorrow].ammounBorrow -= _amount;\n            borrowersXid[_idContract][indexBorrow].blockStart = block.timestamp;\n            borrowersXid[_idContract][indexBorrow].liquidationThreshold = \n                _liquidationThresold(\n                      borrowersXid[_idContract][indexBorrow].ammounBorrow * _mockOracleBorrow(),\n                      userLendingContract[_lender][_idContract].rateCollateral);\n            return true;\n    }\n      function _penalityLoan (Borrower memory loanSituation, uint _amount,address _to,uint _idContract) internal returns(bool){\n        require(loanSituation.expiration < block.timestamp, \"This loan not expired\");\n        //penality 2% of pay\n        uint new_amount = (_amount *88)/100;\n        // per ora va tutto al lendere ma poi ci applichiamo delle fee\n        userLendingContract[loanSituation.lender][_idContract].amountAvvalible += _amount - new_amount;// tutto /2\n        // balanceContract[assett] += (_amount - new_amount)/2\n        require(_repay(loanSituation, new_amount, _to, _idContract));\n        return true;\n    }\n    \n\n    function executeRepay(uint _idContract,uint _amount) external nonReentrant(){\n        _executeRepay(msg.sender, _idContract, _amount);\n    }\n\n\n    function _increaseTimeExpire(address _to,uint _idContract, uint _timeIncreas)internal contractOwner(_to, _idContract){\n            userLendingContract[_to][_idContract].duration += _timeIncreas;     \n    }\n    function _decreaseTimeExpire(address _to,uint _idContract, uint _timeIncreas)internal contractOwner(_to, _idContract){\n            require(userLendingContract[_to][_idContract].amountBorrow == 0);\n            userLendingContract[_to][_idContract].duration += _timeIncreas;     \n    }\n\n\n/**\n    3 -> Ripagare il Borrow e cambiare il margine\n            -> Applicare qui la Fee ? \n\n    4 -> Liquidazione collatterale, \n            -> problema -> Calcolo matematico \n            -> Quanto liquidare?\n            -> Come cambiano i valori dopo la liquidazione?\n            -> Voglio dare al lender la possibilit di vendere a mercato la liquidazione? \n            -> Gestione delle fee da pagare al protocollo \n    \n    5 -> a carico di chi sono le fee? lender o borrower ?\n            -> dove prendere le fee? \n                -> dall interesse del lender\n                    -> come lo calcolo?\n                    -> quando le prendo ?\n                -> dal pagamento del debito ? \n                    ->  pi vantaggioso progettualmente\n                    ->  competitiva come strategia?\n            -> HOW MUCH ????\n                -> 0.50% su ogni pagamento ???? -> tariffa standard\n                -> 1% fino al 5%        Tariffa liquidazione\n                -> 2% dal 5% al 10%     Tariffa liquidazione\n                -> 4% dal 10% al 20%    Tariffa liquidazione\n                -> 5% dal 20% al 30%    Tariffa liquidazione\n                -> 6% dal 30% al 100%   Tariffa liquidazione\n                    -> Vendere a mercato e realizare subito usd?\n                    -> detenere gli asset? \n                    -> miso detenere blue chips e dumpare il resto.\n \n\n nonReentrant()\n onlyOwner()\n \n\n\n \n */\n}",
  "sourcePath": "/media/leluk/storage/Studio Dev/Dapp portfolio/individual lending/contracts/Individual_lending.sol",
  "compiler": {
    "name": "solc",
    "version": "0.8.7+commit.e28d00a7.Emscripten.clang"
  },
  "schemaVersion": "3.4.7",
  "updatedAt": "2022-06-22T21:31:45.750Z",
  "devdoc": {
    "kind": "dev",
    "methods": {
      "owner()": {
        "details": "Returns the address of the current owner."
      },
      "renounceOwnership()": {
        "details": "Leaves the contract without owner. It will not be possible to call `onlyOwner` functions anymore. Can only be called by the current owner. NOTE: Renouncing ownership will leave the contract without an owner, thereby removing any functionality that is only available to the owner."
      },
      "transferOwnership(address)": {
        "details": "Transfers ownership of the contract to a new account (`newOwner`). Can only be called by the current owner."
      }
    },
    "version": 1
  },
  "userdoc": {
    "kind": "user",
    "methods": {},
    "version": 1
  }
}