{
  "contractName": "lendingPage",
  "abi": [
    {
      "inputs": [
        {
          "internalType": "uint256",
          "name": "_minpenality",
          "type": "uint256"
        }
      ],
      "stateMutability": "nonpayable",
      "type": "constructor"
    },
    {
      "anonymous": false,
      "inputs": [
        {
          "indexed": true,
          "internalType": "address",
          "name": "Borrower",
          "type": "address"
        },
        {
          "indexed": true,
          "internalType": "uint256",
          "name": "Id_Contract",
          "type": "uint256"
        },
        {
          "indexed": false,
          "internalType": "uint256",
          "name": "amount",
          "type": "uint256"
        }
      ],
      "name": "Borrow",
      "type": "event"
    },
    {
      "anonymous": false,
      "inputs": [
        {
          "indexed": false,
          "internalType": "uint256",
          "name": "Id",
          "type": "uint256"
        },
        {
          "indexed": true,
          "internalType": "uint256",
          "name": "amount",
          "type": "uint256"
        },
        {
          "indexed": true,
          "internalType": "uint256",
          "name": "newAmount",
          "type": "uint256"
        }
      ],
      "name": "DecreasContractDeposit",
      "type": "event"
    },
    {
      "anonymous": false,
      "inputs": [
        {
          "indexed": true,
          "internalType": "address",
          "name": "owner",
          "type": "address"
        },
        {
          "indexed": true,
          "internalType": "uint256",
          "name": "id",
          "type": "uint256"
        }
      ],
      "name": "DeleteContractDeposit",
      "type": "event"
    },
    {
      "anonymous": false,
      "inputs": [
        {
          "indexed": false,
          "internalType": "uint256",
          "name": "Id",
          "type": "uint256"
        },
        {
          "indexed": true,
          "internalType": "uint256",
          "name": "amount",
          "type": "uint256"
        },
        {
          "indexed": true,
          "internalType": "uint256",
          "name": "newAmount",
          "type": "uint256"
        }
      ],
      "name": "IncreasContractDeposit",
      "type": "event"
    },
    {
      "anonymous": false,
      "inputs": [
        {
          "indexed": true,
          "internalType": "uint256",
          "name": "_idContract",
          "type": "uint256"
        },
        {
          "indexed": true,
          "internalType": "uint256",
          "name": "_idBorrow",
          "type": "uint256"
        },
        {
          "indexed": false,
          "internalType": "address",
          "name": "assetsLiquidate",
          "type": "address"
        },
        {
          "indexed": false,
          "internalType": "uint256",
          "name": "amount",
          "type": "uint256"
        }
      ],
      "name": "LiquidationCall",
      "type": "event"
    },
    {
      "anonymous": false,
      "inputs": [
        {
          "indexed": true,
          "internalType": "address",
          "name": "asset",
          "type": "address"
        },
        {
          "indexed": false,
          "internalType": "uint256",
          "name": "timeStart",
          "type": "uint256"
        }
      ],
      "name": "NewAssetAvvalible",
      "type": "event"
    },
    {
      "anonymous": false,
      "inputs": [
        {
          "indexed": false,
          "internalType": "uint256",
          "name": "Id",
          "type": "uint256"
        },
        {
          "indexed": true,
          "internalType": "address",
          "name": "owner",
          "type": "address"
        },
        {
          "indexed": true,
          "internalType": "address",
          "name": "asset",
          "type": "address"
        },
        {
          "indexed": false,
          "internalType": "uint256",
          "name": "amount",
          "type": "uint256"
        },
        {
          "indexed": false,
          "internalType": "uint256",
          "name": "apr",
          "type": "uint256"
        },
        {
          "indexed": false,
          "internalType": "uint256",
          "name": "deadline",
          "type": "uint256"
        },
        {
          "indexed": false,
          "internalType": "uint256",
          "name": "penality",
          "type": "uint256"
        },
        {
          "indexed": true,
          "internalType": "address",
          "name": "collateral",
          "type": "address"
        }
      ],
      "name": "NewContractDeposit",
      "type": "event"
    },
    {
      "anonymous": false,
      "inputs": [
        {
          "indexed": true,
          "internalType": "address",
          "name": "previousOwner",
          "type": "address"
        },
        {
          "indexed": true,
          "internalType": "address",
          "name": "newOwner",
          "type": "address"
        }
      ],
      "name": "OwnershipTransferred",
      "type": "event"
    },
    {
      "anonymous": false,
      "inputs": [
        {
          "indexed": true,
          "internalType": "uint256",
          "name": "_idContract",
          "type": "uint256"
        },
        {
          "indexed": true,
          "internalType": "address",
          "name": "collateral",
          "type": "address"
        },
        {
          "indexed": false,
          "internalType": "uint256",
          "name": "amount",
          "type": "uint256"
        }
      ],
      "name": "RecoveryCredit",
      "type": "event"
    },
    {
      "anonymous": false,
      "inputs": [
        {
          "indexed": true,
          "internalType": "uint256",
          "name": "_idContract",
          "type": "uint256"
        },
        {
          "indexed": true,
          "internalType": "address",
          "name": "collateral",
          "type": "address"
        },
        {
          "indexed": false,
          "internalType": "uint256",
          "name": "amount",
          "type": "uint256"
        }
      ],
      "name": "RecoverySingleCredit",
      "type": "event"
    },
    {
      "anonymous": false,
      "inputs": [
        {
          "indexed": true,
          "internalType": "address",
          "name": "_to",
          "type": "address"
        },
        {
          "indexed": true,
          "internalType": "uint256",
          "name": "_idContract",
          "type": "uint256"
        },
        {
          "indexed": true,
          "internalType": "address",
          "name": "collateral",
          "type": "address"
        },
        {
          "indexed": false,
          "internalType": "uint256",
          "name": "amount",
          "type": "uint256"
        }
      ],
      "name": "WidrowCredit",
      "type": "event"
    },
    {
      "anonymous": false,
      "inputs": [
        {
          "indexed": true,
          "internalType": "address",
          "name": "_to",
          "type": "address"
        },
        {
          "indexed": true,
          "internalType": "uint256",
          "name": "_idContract",
          "type": "uint256"
        },
        {
          "indexed": false,
          "internalType": "uint256",
          "name": "_amount",
          "type": "uint256"
        }
      ],
      "name": "applyPenality",
      "type": "event"
    },
    {
      "anonymous": false,
      "inputs": [
        {
          "indexed": true,
          "internalType": "uint256",
          "name": "_idContract",
          "type": "uint256"
        },
        {
          "indexed": true,
          "internalType": "uint256",
          "name": "_timeIncreas",
          "type": "uint256"
        }
      ],
      "name": "newTimeExpireDecreas",
      "type": "event"
    },
    {
      "anonymous": false,
      "inputs": [
        {
          "indexed": true,
          "internalType": "uint256",
          "name": "_idContract",
          "type": "uint256"
        },
        {
          "indexed": true,
          "internalType": "uint256",
          "name": "_timeIncreas",
          "type": "uint256"
        }
      ],
      "name": "newTimeExpireIncreas",
      "type": "event"
    },
    {
      "anonymous": false,
      "inputs": [
        {
          "indexed": true,
          "internalType": "address",
          "name": "_to",
          "type": "address"
        },
        {
          "indexed": true,
          "internalType": "uint256",
          "name": "_idContract",
          "type": "uint256"
        },
        {
          "indexed": false,
          "internalType": "uint256",
          "name": "_amount",
          "type": "uint256"
        }
      ],
      "name": "repay",
      "type": "event"
    },
    {
      "inputs": [],
      "name": "owner",
      "outputs": [
        {
          "internalType": "address",
          "name": "",
          "type": "address"
        }
      ],
      "stateMutability": "view",
      "type": "function"
    },
    {
      "inputs": [],
      "name": "renounceOwnership",
      "outputs": [],
      "stateMutability": "nonpayable",
      "type": "function"
    },
    {
      "inputs": [
        {
          "internalType": "address",
          "name": "newOwner",
          "type": "address"
        }
      ],
      "name": "transferOwnership",
      "outputs": [],
      "stateMutability": "nonpayable",
      "type": "function"
    },
    {
      "inputs": [
        {
          "internalType": "address",
          "name": "_newAsset",
          "type": "address"
        }
      ],
      "name": "setAssettAvvalible",
      "outputs": [],
      "stateMutability": "nonpayable",
      "type": "function"
    },
    {
      "inputs": [
        {
          "internalType": "address",
          "name": "_asset",
          "type": "address"
        }
      ],
      "name": "findAsset",
      "outputs": [
        {
          "internalType": "bool",
          "name": "",
          "type": "bool"
        }
      ],
      "stateMutability": "view",
      "type": "function"
    },
    {
      "inputs": [
        {
          "internalType": "address",
          "name": "_asset",
          "type": "address"
        },
        {
          "internalType": "uint256",
          "name": "_amount",
          "type": "uint256"
        },
        {
          "internalType": "uint256",
          "name": "_apr",
          "type": "uint256"
        },
        {
          "internalType": "uint256",
          "name": "_deadline",
          "type": "uint256"
        },
        {
          "internalType": "uint256",
          "name": "_penality",
          "type": "uint256"
        },
        {
          "internalType": "address",
          "name": "_collateral",
          "type": "address"
        },
        {
          "internalType": "uint256",
          "name": "_rateCollateral",
          "type": "uint256"
        }
      ],
      "name": "deposit",
      "outputs": [],
      "stateMutability": "nonpayable",
      "type": "function"
    },
    {
      "inputs": [
        {
          "internalType": "address",
          "name": "_user",
          "type": "address"
        }
      ],
      "name": "listContractXuser",
      "outputs": [
        {
          "internalType": "uint256[]",
          "name": "",
          "type": "uint256[]"
        }
      ],
      "stateMutability": "view",
      "type": "function"
    },
    {
      "inputs": [],
      "name": "getAssettAvvalible",
      "outputs": [
        {
          "internalType": "address[]",
          "name": "",
          "type": "address[]"
        }
      ],
      "stateMutability": "view",
      "type": "function"
    },
    {
      "inputs": [
        {
          "internalType": "address",
          "name": "_to",
          "type": "address"
        },
        {
          "internalType": "uint256",
          "name": "_id",
          "type": "uint256"
        }
      ],
      "name": "findContractLending",
      "outputs": [
        {
          "components": [
            {
              "internalType": "uint256",
              "name": "id",
              "type": "uint256"
            },
            {
              "internalType": "address",
              "name": "owner",
              "type": "address"
            },
            {
              "internalType": "bool",
              "name": "lock",
              "type": "bool"
            },
            {
              "internalType": "address",
              "name": "asset",
              "type": "address"
            },
            {
              "internalType": "uint256",
              "name": "amountAvvalible",
              "type": "uint256"
            },
            {
              "internalType": "uint256",
              "name": "apr",
              "type": "uint256"
            },
            {
              "internalType": "uint256",
              "name": "duration",
              "type": "uint256"
            },
            {
              "internalType": "uint256",
              "name": "penality",
              "type": "uint256"
            },
            {
              "internalType": "address",
              "name": "collateral",
              "type": "address"
            },
            {
              "internalType": "uint256",
              "name": "amountBorrow",
              "type": "uint256"
            },
            {
              "internalType": "uint256",
              "name": "rateCollateral",
              "type": "uint256"
            },
            {
              "internalType": "uint256",
              "name": "amountCollateral",
              "type": "uint256"
            }
          ],
          "internalType": "struct Storage.LendingContract",
          "name": "",
          "type": "tuple"
        }
      ],
      "stateMutability": "view",
      "type": "function"
    },
    {
      "inputs": [
        {
          "internalType": "uint256",
          "name": "_idContract",
          "type": "uint256"
        },
        {
          "internalType": "uint256",
          "name": "_increasAmount",
          "type": "uint256"
        }
      ],
      "name": "increasDeposit",
      "outputs": [],
      "stateMutability": "nonpayable",
      "type": "function"
    },
    {
      "inputs": [
        {
          "internalType": "uint256",
          "name": "_idContract",
          "type": "uint256"
        },
        {
          "internalType": "uint256",
          "name": "_decreasAmount",
          "type": "uint256"
        }
      ],
      "name": "decreasDeposit",
      "outputs": [],
      "stateMutability": "nonpayable",
      "type": "function"
    },
    {
      "inputs": [
        {
          "internalType": "uint256",
          "name": "_idContract",
          "type": "uint256"
        }
      ],
      "name": "deleteContract",
      "outputs": [],
      "stateMutability": "nonpayable",
      "type": "function"
    },
    {
      "inputs": [
        {
          "internalType": "uint256",
          "name": "_idContract",
          "type": "uint256"
        },
        {
          "internalType": "address",
          "name": "_lender",
          "type": "address"
        },
        {
          "internalType": "uint256",
          "name": "_amountBorrow",
          "type": "uint256"
        },
        {
          "internalType": "address",
          "name": "_assettCollateral",
          "type": "address"
        },
        {
          "internalType": "uint256",
          "name": "_amountCollateral",
          "type": "uint256"
        }
      ],
      "name": "executeBorrow",
      "outputs": [],
      "stateMutability": "nonpayable",
      "type": "function"
    },
    {
      "inputs": [
        {
          "internalType": "uint256",
          "name": "_idContract",
          "type": "uint256"
        },
        {
          "internalType": "address",
          "name": "_borrower",
          "type": "address"
        }
      ],
      "name": "serchBorrowerPositionXContract",
      "outputs": [
        {
          "components": [
            {
              "internalType": "address",
              "name": "owner",
              "type": "address"
            },
            {
              "internalType": "uint256",
              "name": "idContract",
              "type": "uint256"
            },
            {
              "internalType": "address",
              "name": "assetBorrow",
              "type": "address"
            },
            {
              "internalType": "uint256",
              "name": "ammounBorrow",
              "type": "uint256"
            },
            {
              "internalType": "address",
              "name": "assetCollaterl",
              "type": "address"
            },
            {
              "internalType": "uint256",
              "name": "amountCollateral",
              "type": "uint256"
            },
            {
              "internalType": "uint256",
              "name": "liquidationThreshold",
              "type": "uint256"
            },
            {
              "internalType": "uint256",
              "name": "expiration",
              "type": "uint256"
            },
            {
              "internalType": "uint256",
              "name": "blockStart",
              "type": "uint256"
            },
            {
              "internalType": "uint256",
              "name": "aprLoan",
              "type": "uint256"
            },
            {
              "internalType": "address",
              "name": "lender",
              "type": "address"
            }
          ],
          "internalType": "struct Storage.Borrower",
          "name": "",
          "type": "tuple"
        }
      ],
      "stateMutability": "view",
      "type": "function"
    },
    {
      "inputs": [
        {
          "internalType": "uint256",
          "name": "_idContract",
          "type": "uint256"
        },
        {
          "internalType": "address",
          "name": "_borrower",
          "type": "address"
        }
      ],
      "name": "serchIndexBorrowerXContract",
      "outputs": [
        {
          "internalType": "uint256",
          "name": "",
          "type": "uint256"
        }
      ],
      "stateMutability": "view",
      "type": "function"
    },
    {
      "inputs": [
        {
          "internalType": "address",
          "name": "_to",
          "type": "address"
        },
        {
          "internalType": "uint256",
          "name": "_idContract",
          "type": "uint256"
        },
        {
          "internalType": "bool",
          "name": "_lock",
          "type": "bool"
        }
      ],
      "name": "lockNewBorrow",
      "outputs": [],
      "stateMutability": "nonpayable",
      "type": "function"
    },
    {
      "inputs": [
        {
          "internalType": "address",
          "name": "_borrower",
          "type": "address"
        },
        {
          "internalType": "uint256",
          "name": "_idContract",
          "type": "uint256"
        }
      ],
      "name": "viewAmountLoan",
      "outputs": [
        {
          "internalType": "uint256",
          "name": "loanCompouse",
          "type": "uint256"
        }
      ],
      "stateMutability": "view",
      "type": "function"
    },
    {
      "inputs": [
        {
          "internalType": "uint256",
          "name": "_idContract",
          "type": "uint256"
        },
        {
          "internalType": "uint256",
          "name": "_amount",
          "type": "uint256"
        }
      ],
      "name": "executeRepay",
      "outputs": [],
      "stateMutability": "nonpayable",
      "type": "function"
    },
    {
      "inputs": [
        {
          "internalType": "uint256",
          "name": "_idContract",
          "type": "uint256"
        },
        {
          "internalType": "uint256",
          "name": "_timeIncreas",
          "type": "uint256"
        }
      ],
      "name": "increaseTimeExpire",
      "outputs": [],
      "stateMutability": "nonpayable",
      "type": "function"
    },
    {
      "inputs": [
        {
          "internalType": "uint256",
          "name": "_idContract",
          "type": "uint256"
        },
        {
          "internalType": "uint256",
          "name": "_timeIncreas",
          "type": "uint256"
        }
      ],
      "name": "decreaseTimeExpire",
      "outputs": [],
      "stateMutability": "nonpayable",
      "type": "function"
    },
    {
      "inputs": [
        {
          "internalType": "uint256",
          "name": "_idContract",
          "type": "uint256"
        },
        {
          "internalType": "uint256",
          "name": "_idBorrow",
          "type": "uint256"
        }
      ],
      "name": "liquidationCall",
      "outputs": [],
      "stateMutability": "nonpayable",
      "type": "function"
    }
  ],
  "bytecode": "0x60806040523480156200001157600080fd5b50604051620041ed380380620041ed8339810160408190526200003491620000c2565b6200003f3362000067565b6001600a819055506200005e6007620000b960201b62000a911760201c565b600155620000dc565b600980546001600160a01b038381166001600160a01b0319831681179093556040519116919082907f8be0079c531659141344cd1fd0a4f28419497f9722a3daafe3b4186f6b6457e090600090a35050565b80546001019055565b600060208284031215620000d557600080fd5b5051919050565b61410180620000ec6000396000f3fe608060405234801561001057600080fd5b50600436106101775760003560e01c80638990616d116100d8578063e1e3769b1161008c578063e619515811610066578063e61951581461031d578063f2fde38b14610330578063f4163f211461034357600080fd5b8063e1e3769b146102c7578063e236b6f0146102da578063e2bb0eb9146102fa57600080fd5b8063a54bbcb7116100bd578063a54bbcb714610281578063aa674149146102a1578063b48477dc146102b457600080fd5b80638990616d146102535780638da5cb5b1461026657600080fd5b80636893d3361161012f578063715018a611610114578063715018a614610223578063726adaa41461022b5780637cb6f38f1461024057600080fd5b80636893d336146101fd5780636f25b8f61461021057600080fd5b806319dda45c1161016057806319dda45c146101b7578063460e90d0146101ca57806347087215146101ea57600080fd5b806308dde6621461017c5780631392ed75146101a2575b600080fd5b61018f61018a366004613c1d565b610356565b6040519081526020015b60405180910390f35b6101b56101b0366004613c87565b610393565b005b6101b56101c5366004613db3565b6103fc565b6101dd6101d8366004613c02565b610456565b6040516101999190613e22565b6101b56101f8366004613db3565b610467565b6101b561020b366004613d07565b6104b8565b6101b561021e366004613d65565b610510565b6101b5610570565b6102336105d6565b6040516101999190613dd5565b6101b561024e366004613db3565b6105e5565b6101b5610261366004613c02565b610636565b6009546040516001600160a01b039091168152602001610199565b61029461028f366004613d39565b61072a565b6040516101999190613e5a565b6101b56102af366004613c47565b6107b5565b6101b56102c2366004613db3565b610810565b61018f6102d5366004613d39565b610861565b6102ed6102e8366004613c1d565b610877565b6040516101999190613f0f565b61030d610308366004613c02565b610902565b6040519015158152602001610199565b6101b561032b366004613db3565b61090d565b6101b561033e366004613c02565b61095e565b6101b5610351366004613db3565b610a40565b600061038c6103658385610a9a565b606001516103738486610a9a565b61012001516103828587610a9a565b6101000151610cc8565b9392505050565b6002600a5414156103d95760405162461bcd60e51b815260206004820152601f60248201526000805160206140ac83398151915260448201526064015b60405180910390fd5b6002600a556103ee3388888888888888610d30565b50506001600a555050505050565b6002600a54141561043d5760405162461bcd60e51b815260206004820152601f60248201526000805160206140ac83398151915260448201526064016103d0565b6002600a5561044d3383836113a9565b50506001600a55565b606061046182611756565b92915050565b6002600a5414156104a85760405162461bcd60e51b815260206004820152601f60248201526000805160206140ac83398151915260448201526064016103d0565b6002600a5561044d3383836117c2565b6002600a5414156104f95760405162461bcd60e51b815260206004820152601f60248201526000805160206140ac83398151915260448201526064016103d0565b6002600a556105083382611a1f565b506001600a55565b6002600a5414156105515760405162461bcd60e51b815260206004820152601f60248201526000805160206140ac83398151915260448201526064016103d0565b6002600a55610564338686868686611e66565b50506001600a55505050565b6009546001600160a01b031633146105ca5760405162461bcd60e51b815260206004820181905260248201527f4f776e61626c653a2063616c6c6572206973206e6f7420746865206f776e657260448201526064016103d0565b6105d460006120e2565b565b60606105e0612134565b905090565b6002600a5414156106265760405162461bcd60e51b815260206004820152601f60248201526000805160206140ac83398151915260448201526064016103d0565b6002600a5561044d338383612196565b6002600a5414156106775760405162461bcd60e51b815260206004820152601f60248201526000805160206140ac83398151915260448201526064016103d0565b6002600a556009546001600160a01b031633146106d65760405162461bcd60e51b815260206004820181905260248201527f4f776e61626c653a2063616c6c6572206973206e6f7420746865206f776e657260448201526064016103d0565b6106df816122c9565b806001600160a01b03167f1406601fca80ce2dde347c6c1c000309440d0365c2b5786f1608d7b1e76dd12d4260405161071a91815260200190565b60405180910390a2506001600a55565b6107ab60405180610160016040528060006001600160a01b031681526020016000815260200160006001600160a01b031681526020016000815260200160006001600160a01b03168152602001600081526020016000815260200160008152602001600081526020016000815260200160006001600160a01b031681525090565b61038c8383610a9a565b6002600a5414156107f65760405162461bcd60e51b815260206004820152601f60248201526000805160206140ac83398151915260448201526064016103d0565b6002600a556108068383836123c4565b50506001600a5550565b6002600a5414156108515760405162461bcd60e51b815260206004820152601f60248201526000805160206140ac83398151915260448201526064016103d0565b6002600a5561044d33838361248d565b60008061086e8484612a4a565b95945050505050565b6108f86040518061018001604052806000815260200160006001600160a01b0316815260200160001515815260200160006001600160a01b031681526020016000815260200160008152602001600081526020016000815260200160006001600160a01b031681526020016000815260200160008152602001600081525090565b61038c8383612adf565b600061046182612c1a565b6002600a54141561094e5760405162461bcd60e51b815260206004820152601f60248201526000805160206140ac83398151915260448201526064016103d0565b6002600a5561044d338383612c84565b6009546001600160a01b031633146109b85760405162461bcd60e51b815260206004820181905260248201527f4f776e61626c653a2063616c6c6572206973206e6f7420746865206f776e657260448201526064016103d0565b6001600160a01b038116610a345760405162461bcd60e51b815260206004820152602660248201527f4f776e61626c653a206e6577206f776e657220697320746865207a65726f206160448201527f646472657373000000000000000000000000000000000000000000000000000060648201526084016103d0565b610a3d816120e2565b50565b6002600a541415610a815760405162461bcd60e51b815260206004820152601f60248201526000805160206140ac83398151915260448201526064016103d0565b6002600a5561044d338383612d5d565b80546001019055565b610b1b60405180610160016040528060006001600160a01b031681526020016000815260200160006001600160a01b031681526020016000815260200160006001600160a01b03168152602001600081526020016000815260200160008152602001600081526020016000815260200160006001600160a01b031681525090565b60005b600084815260066020526040902054811015610c5957600084815260066020526040902080546001600160a01b038516919083908110610b6057610b60614087565b60009182526020909120600b90910201546001600160a01b03161415610c47576000848152600660205260409020805482908110610ba057610ba0614087565b60009182526020918290206040805161016081018252600b90930290910180546001600160a01b039081168452600182015494840194909452600281015484169183019190915260038101546060830152600481015483166080830152600581015460a0830152600681015460c0830152600781015460e083015260088101546101008301526009810154610120830152600a015490911661014082015291506104619050565b80610c5181614040565b915050610b1e565b5060405162461bcd60e51b815260206004820152602660248201527f426f72726f77657220666f72207468697320636f6e7472616374206e6f74207060448201527f726573656e74000000000000000000000000000000000000000000000000000060648201526084016103d0565b600080610cd58342614029565b9050600063bbf81e0082610ce9878961400a565b610cf3919061400a565b610cfd9190613fe8565b610d079087613fd0565b610d12906001613fd0565b905060018111610d275760009250505061038c565b915061038c9050565b6001600160a01b038816610d865760405162461bcd60e51b815260206004820152600f60248201527f696e76616c69642061646472657373000000000000000000000000000000000060448201526064016103d0565b816001600160a01b0316876001600160a01b03161415610de85760405162461bcd60e51b815260206004820152601460248201527f636f6c6c61746572616c206e6f742076616c696400000000000000000000000060448201526064016103d0565b610df187612c1a565b610e3d5760405162461bcd60e51b815260206004820152601160248201527f617373657420646f6e277420666f756e6400000000000000000000000000000060448201526064016103d0565b610e4682612c1a565b610e925760405162461bcd60e51b815260206004820152601660248201527f636f6c6c61746572616c20646f6e277420666f756e640000000000000000000060448201526064016103d0565b6040516370a0823160e01b81526001600160a01b0389811660048301528791908916906370a082319060240160206040518083038186803b158015610ed657600080fd5b505afa158015610eea573d6000803e3d6000fd5b505050506040513d601f19601f82011682018060405250810190610f0e9190613d20565b1015610f5c5760405162461bcd60e51b815260206004820152601060248201527f62616c616e63652075736572206c6f770000000000000000000000000000000060448201526064016103d0565b604051636eb1769f60e11b81526001600160a01b03898116600483015230602483015287919089169063dd62ed3e9060440160206040518083038186803b158015610fa657600080fd5b505afa158015610fba573d6000803e3d6000fd5b505050506040513d601f19601f82011682018060405250810190610fde9190613d20565b101561102c5760405162461bcd60e51b815260206004820152601160248201527f616c6f77616e63652075736572206c6f7700000000000000000000000000000060448201526064016103d0565b6000841161107c5760405162461bcd60e51b815260206004820152601b60248201527f646561646c696e65206d7573742068617665206765617465652030000000000060448201526064016103d0565b6001548310156110ce5760405162461bcd60e51b815260206004820152601b60248201527f70656e616c697479206d7573742068617665206765617465652030000000000060448201526064016103d0565b6040516323b872dd60e01b81526001600160a01b038981166004830152306024830152604482018890528816906323b872dd90606401602060405180830381600087803b15801561111e57600080fd5b505af1158015611132573d6000803e3d6000fd5b505050506040513d601f19601f820116820180604052508101906111569190613cea565b50600060405180610180016040528061116e60075490565b81526020018a6001600160a01b03168152602001600015158152602001896001600160a01b03168152602001888152602001878152602001868152602001858152602001846001600160a01b03168152602001600081526020018381526020016000815250905080600260008b6001600160a01b03166001600160a01b03168152602001908152602001600020600061120660075490565b815260208082019290925260409081016000208351815591830151600183018054928501511515600160a01b0274ffffffffffffffffffffffffffffffffffffffffff199093166001600160a01b03928316179290921790915560608301516002830180549183166001600160a01b03199283161790556080840151600384015560a0840151600484015560c0840151600584015560e084015160068401556101008401516007808501805492851692909316919091179091556101208401516008840155610140840151600984015561016090930151600a90920191909155848116918a8216918c16907f73ccc975565e11201f9228f86b04c2090d856488dd73ce7f1b63b9609708ee479061131b905490565b60408051918252602082018d905281018b9052606081018a90526080810189905260a00160405180910390a46001600160a01b03891660009081526003602090815260408220600780548254600181018455928552929093200155546004908154600181018355600092835260209092209091015561139e600780546001019055565b505050505050505050565b8282816001600160a01b03166113bf8383612adf565b602001516001600160a01b0316146114135760405162461bcd60e51b8152602060048201526017602482015276139bdd081bdddb995c881d1a1a5cc818dbdb9d1c9858dd604a1b60448201526064016103d0565b600083116114635760405162461bcd60e51b815260206004820152601660248201527f696e6372656173206d75737420626520706c757320300000000000000000000060448201526064016103d0565b8261146e8686612adf565b606001516040516370a0823160e01b81526001600160a01b038881166004830152909116906370a082319060240160206040518083038186803b1580156114b457600080fd5b505afa1580156114c8573d6000803e3d6000fd5b505050506040513d601f19601f820116820180604052508101906114ec9190613d20565b101561153a5760405162461bcd60e51b815260206004820152601060248201527f62616c616e63652075736572206c6f770000000000000000000000000000000060448201526064016103d0565b826115458686612adf565b60600151604051636eb1769f60e11b81526001600160a01b0388811660048301523060248301529091169063dd62ed3e9060440160206040518083038186803b15801561159157600080fd5b505afa1580156115a5573d6000803e3d6000fd5b505050506040513d601f19601f820116820180604052508101906115c99190613d20565b10156116175760405162461bcd60e51b815260206004820152601160248201527f616c6f77616e63652075736572206c6f7700000000000000000000000000000060448201526064016103d0565b6116218585612adf565b606001516040516323b872dd60e01b81526001600160a01b03878116600483015230602483015260448201869052909116906323b872dd90606401602060405180830381600087803b15801561167657600080fd5b505af115801561168a573d6000803e3d6000fd5b505050506040513d601f19601f820116820180604052508101906116ae9190613cea565b506001600160a01b0385166000908152600260209081526040808320878452909152812060030180548592906116e5908490613fd0565b909155506116f590508585612adf565b60800151836117048787612adf565b608001516117129190614029565b7f70b5eec6cec01e52d9243bac64c12e4fd128a2f20105af16919ae212e224fc6561173d8888612adf565b5160405190815260200160405180910390a35050505050565b6001600160a01b0381166000908152600360209081526040918290208054835181840281018401909452808452606093928301828280156117b657602002820191906000526020600020905b8154815260200190600101908083116117a2575b50505050509050919050565b8282816001600160a01b03166117d88383612adf565b602001516001600160a01b03161461182c5760405162461bcd60e51b8152602060048201526017602482015276139bdd081bdddb995c881d1a1a5cc818dbdb9d1c9858dd604a1b60448201526064016103d0565b6000831161187c5760405162461bcd60e51b815260206004820152601660248201527f696e6372656173206d75737420626520706c757320300000000000000000000060448201526064016103d0565b826118878686612adf565b6080015110156118ff5760405162461bcd60e51b815260206004820152602e60248201527f41737365747420617676616c69626c6520696e73756666696369656e7420666f60448201527f7220746869732077686964726f7700000000000000000000000000000000000060648201526084016103d0565b6001600160a01b038516600090815260026020908152604080832087845290915281206003018054859290611935908490614029565b9091555061194590508585612adf565b6060015160405163a9059cbb60e01b81526001600160a01b038781166004830152602482018690529091169063a9059cbb90604401602060405180830381600087803b15801561199457600080fd5b505af11580156119a8573d6000803e3d6000fd5b505050506040513d601f19601f820116820180604052508101906119cc9190613cea565b506119d78585612adf565b60800151836119e68787612adf565b608001516119f49190613fd0565b7f510055a9c40582bc6ad0cab1e5b0421194c4d34435a16960ec71333bf8bc70cf61173d8888612adf565b8181816001600160a01b0316611a358383612adf565b602001516001600160a01b031614611a895760405162461bcd60e51b8152602060048201526017602482015276139bdd081bdddb995c881d1a1a5cc818dbdb9d1c9858dd604a1b60448201526064016103d0565b611a938484612adf565b610120015115611ae55760405162461bcd60e51b815260206004820152601d60248201527f436f6e7472616374206861766520617373657420696e20626f72726f7700000060448201526064016103d0565b6001600160a01b03841660009081526002602090815260408083208684529091528120600381015490549091611b1b8787612adf565b606001516001600160a01b03881660008181526002602081815260408084208c8552825280842084815560018101805474ffffffffffffffffffffffffffffffffffffffffff1916905592830180546001600160a01b031990811690915560038085018690556004850186905560058501869055600685018690556007850180549092169091556008840185905560098401859055600a90930184905593835252205490915015611ca757600080611bd38985612e67565b915091508015611ca0576001600160a01b03891660009081526003602052604090208054611c0390600190614029565b81548110611c1357611c13614087565b9060005260206000200154600360008b6001600160a01b03166001600160a01b031681526020019081526020016000208381548110611c5457611c54614087565b60009182526020808320909101929092556001600160a01b038b168152600390915260409020805480611c8957611c89614071565b600190038181906000526020600020016000905590555b5050611ce5565b6001600160a01b0387166000908152600360205260409020805480611cce57611cce614071565b600190038181906000526020600020016000905590555b60045415611d7c57600080611cf988612ee6565b915091508015611d755760048054611d1390600190614029565b81548110611d2357611d23614087565b906000526020600020015460048381548110611d4157611d41614087565b6000918252602090912001556004805480611d5e57611d5e614071565b600190038181906000526020600020016000905590555b5050611da4565b6004805480611d8d57611d8d614071565b600190038181906000526020600020016000905590555b60405163a9059cbb60e01b81526001600160a01b0388811660048301526024820185905282169063a9059cbb90604401602060405180830381600087803b158015611dee57600080fd5b505af1158015611e02573d6000803e3d6000fd5b505050506040513d601f19601f82011682018060405250810190611e269190613cea565b5060405182906001600160a01b038916907ffd6e81c22721a918c2e59966d2b020f6ccf1fe46d783cc4053c75c1a9fa837f090600090a350505050505050565b6001600160a01b0384166000908152600260209081526040808320888452909152902060010154600160a01b900460ff1615611f0a5760405162461bcd60e51b815260206004820152603060248201527f54686973206c656e6465722068617320626c6f636b656420746865206973737560448201527f616e6365206f66206e6577204c6f616e0000000000000000000000000000000060648201526084016103d0565b6000611f168587612e67565b91505080611f665760405162461bcd60e51b815260206004820152601360248201527f636f6e747261637420646f6e742065786973740000000000000000000000000060448201526064016103d0565b6001600160a01b0385166000908152600260209081526040808320898452909152902060030154841115611fdc5760405162461bcd60e51b815260206004820152601460248201527f416d6f756e7420617676616c69626c65206c6f7700000000000000000000000060448201526064016103d0565b6001600160a01b03851660009081526002602081815260408084208a85529091528220600901549091806120108a8c612a4a565b915091508161202d576120288b8a8c8a8a8d89612f43565b612091565b600260008b8152600660205260409020805461207791908490811061205457612054614087565b90600052602060002090600b02016005015486612071919061400a565b8561330a565b1161208157600080fd5b6120918b8a8c8a8a8d8988613316565b898b6001600160a01b03167fe1979fe4c35e0cef342fef5668e2c8e7a7e9f5d5d1ca8fee0ac6c427fa4153af8a6040516120cd91815260200190565b60405180910390a35050505050505050505050565b600980546001600160a01b038381166001600160a01b0319831681179093556040519116919082907f8be0079c531659141344cd1fd0a4f28419497f9722a3daafe3b4186f6b6457e090600090a35050565b6060600080548060200260200160405190810160405280929190818152602001828054801561218c57602002820191906000526020600020905b81546001600160a01b0316815260019091019060200180831161216e575b5050505050905090565b6121a08284610a9a565b516001600160a01b038481169116146121fb5760405162461bcd60e51b815260206004820152601360248201527f4e6f74206f776e65722074686973206c6f616e0000000000000000000000000060448201526064016103d0565b6122058284610a9a565b60e001514211156122295761221b818484613632565b61222457600080fd5b612280565b6122348184846137d0565b6122805760405162461bcd60e51b815260206004820152600b60248201527f5265706179206572726f7200000000000000000000000000000000000000000060448201526064016103d0565b81836001600160a01b03167f8cd2e0c7fd550a74312e3075f80ebbb071970c93280ed06e9101b48e1299bbf8836040516122bc91815260200190565b60405180910390a3505050565b6001600160a01b03811661231f5760405162461bcd60e51b815260206004820152600f60248201527f696e76616c69642061646472657373000000000000000000000000000000000060448201526064016103d0565b61232881612c1a565b156123755760405162461bcd60e51b815260206004820152601660248201527f41737365747420616c726561647920696e206c6973740000000000000000000060448201526064016103d0565b600080546001810182559080527f290decd9548b62a8d60345a988386fc84ba6bc95484008f6362f93160ef3e5630180546001600160a01b0319166001600160a01b0392909216919091179055565b8282816001600160a01b03166123da8383612adf565b602001516001600160a01b03161461242e5760405162461bcd60e51b8152602060048201526017602482015276139bdd081bdddb995c881d1a1a5cc818dbdb9d1c9858dd604a1b60448201526064016103d0565b50506001600160a01b039092166000908152600260209081526040808320938352929052206001018054911515600160a01b027fffffffffffffffffffffff00ffffffffffffffffffffffffffffffffffffffff909216919091179055565b8282816001600160a01b03166124a38383612adf565b602001516001600160a01b0316146124f75760405162461bcd60e51b8152602060048201526017602482015276139bdd081bdddb995c881d1a1a5cc818dbdb9d1c9858dd604a1b60448201526064016103d0565b6001600085815260066020526040902080548590811061251957612519614087565b90600052602060002090600b020160060154111561259f5760405162461bcd60e51b815260206004820152602760248201527f74687265736f6c64204c69717569646174696f6e207072696365206e6f74206160448201527f636869657665640000000000000000000000000000000000000000000000000060648201526084016103d0565b6000848152600660205260408120805460049190869081106125c3576125c3614087565b90600052602060002090600b0201600501546125df9190613fe8565b6000868152600660205260409020805491925082918690811061260457612604614087565b90600052602060002090600b020160050160008282546126249190614029565b909155505060008581526006602052604081208054839260029290918890811061265057612650614087565b60009182526020808320600a600b909302018201546001600160a01b0316845283810194909452604092830182208a8352909352908120909101805490919061269a908490614029565b909155506000905060646126af83600561400a565b6126b99190613fe8565b6126c4906001613fd0565b90506126d08183614029565b91506102ee60026000600660008a815260200190815260200160002088815481106126fd576126fd614087565b60009182526020808320600a600b9093020191909101546001600160a01b0316835282810193909352604091820181208a825290925281206008018054909190612748908490614029565b9091555050600086815260066020526040902080546102ee91908790811061277257612772614087565b90600052602060002090600b020160030160008282546127929190614029565b9091555050600086815260066020526040902080546128469190879081106127bc576127bc614087565b90600052602060002090600b0201600301546127d6600290565b6127e0919061400a565b6000888152600660205260408120805460029291908a90811061280557612805614087565b60009182526020808320600a600b9093020191909101546001600160a01b0316835282810193909352604091820181208b825290925290206009015461330a565b600087815260066020526040902080548790811061286657612866614087565b90600052602060002090600b02016006018190555060066000878152602001908152602001600020858154811061289f5761289f614087565b90600052602060002090600b020160040160009054906101000a90046001600160a01b03166001600160a01b031663a9059cbb6006600089815260200190815260200160002087815481106128f6576128f6614087565b60009182526020909120600b90910201546001600160a01b031661291a8486613fd0565b6040517fffffffff0000000000000000000000000000000000000000000000000000000060e085901b1681526001600160a01b0390921660048301526024820152604401602060405180830381600087803b15801561297857600080fd5b505af115801561298c573d6000803e3d6000fd5b505050506040513d601f19601f820116820180604052508101906129b09190613cea565b5084867f3efb85df84531500b13dc16364a68b114a05d55e8153510a851d426be608d9d6600660008a815260200190815260200160002088815481106129f8576129f8614087565b600091825260209091206004600b9092020101546001600160a01b0316612a1f8587613fd0565b604080516001600160a01b03909316835260208301919091520160405180910390a350505050505050565b60008060005b600085815260066020526040902054811015612acf57600085815260066020526040902080546001600160a01b038616919083908110612a9257612a92614087565b60009182526020909120600b90910201546001600160a01b03161415612abd57600192509050612ad8565b80612ac781614040565b915050612a50565b50600080915091505b9250929050565b612b606040518061018001604052806000815260200160006001600160a01b0316815260200160001515815260200160006001600160a01b031681526020016000815260200160008152602001600081526020016000815260200160006001600160a01b031681526020016000815260200160008152602001600081525090565b506001600160a01b0391821660009081526002602081815260408084209484529381529183902083516101808101855281548152600182015480871694820194909452600160a01b90930460ff161515938301939093528201548316606082015260038201546080820152600482015460a0820152600582015460c0820152600682015460e0820152600782015490921661010083015260088101546101208301526009810154610140830152600a015461016082015290565b6000805b600054811015612c7b57826001600160a01b031660008281548110612c4557612c45614087565b6000918252602090912001546001600160a01b03161415612c695750600192915050565b80612c7381614040565b915050612c1e565b50600092915050565b8282816001600160a01b0316612c9a8383612adf565b602001516001600160a01b031614612cee5760405162461bcd60e51b8152602060048201526017602482015276139bdd081bdddb995c881d1a1a5cc818dbdb9d1c9858dd604a1b60448201526064016103d0565b6001600160a01b038516600090815260026020908152604080832087845290915281206005018054859290612d24908490613fd0565b9091555050604051839085907f55c5fcd1e6b45344c33b2efe8b0a1c21370e8436550c2a417ca7a88b4f9ecd7f90600090a35050505050565b8282816001600160a01b0316612d738383612adf565b602001516001600160a01b031614612dc75760405162461bcd60e51b8152602060048201526017602482015276139bdd081bdddb995c881d1a1a5cc818dbdb9d1c9858dd604a1b60448201526064016103d0565b6001600160a01b038516600090815260026020908152604080832087845290915290206008015415612df857600080fd5b6001600160a01b038516600090815260026020908152604080832087845290915281206005018054859290612e2e908490613fd0565b9091555050604051839085907f39ad9ab227a3f33f44fa8a3bd1d05a8540654651c5b126643016fa827169bb6690600090a35050505050565b60008060005b6001600160a01b038516600090815260036020526040902054811015612acf576001600160a01b0385166000908152600360205260409020805482908110612eb757612eb7614087565b9060005260206000200154841415612ed457915060019050612ad8565b80612ede81614040565b915050612e6d565b60008060005b600454811015612f375760048181548110612f0957612f09614087565b9060005260206000200154841415612f25579360019350915050565b80612f2f81614040565b915050612eec565b50600093849350915050565b6001600160a01b0386166000908152600260209081526040808320888452909152902060090154612f8b612f7885600161400a565b8460025b612f86919061400a565b613bda565b11612f9557600080fd5b6040516323b872dd60e01b81526001600160a01b038881166004830152306024830152604482018590528516906323b872dd90606401602060405180830381600087803b158015612fe557600080fd5b505af1158015612ff9573d6000803e3d6000fd5b505050506040513d601f19601f8201168201806040525081019061301d9190613cea565b5060408051610160810182526001600160a01b03808a1682526020808301899052898216600090815260028083528582208b835290925284812090910154821693830193909352606082018590528616608082015260a0810185905260c0810161309385613089600290565b612071919061400a565b81526001600160a01b03891660009081526002602090815260408083208b84528252909120600501549101906130c99042613fd0565b81526020014281526020016130de8989612adf565b60a09081015182526001600160a01b03808b16602093840181905260008b8152600680865260408083208054600181810183559185528885208a51600b9092020180549188166001600160a01b03199283161781558a8a015192810192909255828a015160028084018054928a169284169290921790915560608b015160038085019190915560808c0151600485018054918b16918516919091179055988b0151600584015560c08b01519483019490945560e08a015160078301556101008a015160088301556101208a015160098301556101408a0151600a9092018054929097169116179094559181529084528181208b8252909352822001805492935085929091906131ee908490614029565b90915550506001600160a01b038716600090815260026020908152604080832089845290915281206008018054859290613229908490613fd0565b90915550506001600160a01b03871660009081526002602090815260408083208984529091528120600a018054869290613264908490613fd0565b90915550506001600160a01b0387811660009081526002602081815260408084208b8552909152918290200154905163a9059cbb60e01b81528a831660048201526024810186905291169063a9059cbb90604401602060405180830381600087803b1580156132d257600080fd5b505af11580156132e6573d6000803e3d6000fd5b505050506040513d601f19601f8201168201806040525081019061139e9190613cea565b600061038c828461400a565b600086815260066020526040902080548290811061333657613336614087565b60009182526020909120600b90910201546001600160a01b038981169116146133a15760405162461bcd60e51b815260206004820152601360248201527f4e6f74206f776e65722074686973206c6f616e0000000000000000000000000060448201526064016103d0565b6001600160a01b038716600090815260026020908152604080832089845282528083206009015460069092529091208054613455918791859081106133e8576133e8614087565b90600052602060002090600b0201600501546134049190613fd0565b61340f90600161400a565b600089815260066020526040902080548791908690811061343257613432614087565b90600052602060002090600b02016003015461344e9190613fd0565b6002612f7c565b1161345f57600080fd5b6040516323b872dd60e01b81526001600160a01b038981166004830152306024830152604482018690528616906323b872dd90606401602060405180830381600087803b1580156134af57600080fd5b505af11580156134c3573d6000803e3d6000fd5b505050506040513d601f19601f820116820180604052508101906134e79190613cea565b50600086815260066020526040902080548491908390811061350b5761350b614087565b90600052602060002090600b0201600301600082825461352b9190613fd0565b9091555050600086815260066020526040902080548591908390811061355357613553614087565b90600052602060002090600b020160050160008282546135739190613fd0565b9091555050600086815260066020526040902080546135c791908390811061359d5761359d614087565b90600052602060002090600b0201600301546135b7600290565b6135c1919061400a565b8361330a565b60008781526006602052604090208054839081106135e7576135e7614087565b600091825260208083206006600b9093020191909101929092556001600160a01b038916815260028252604080822089835290925290812060030180548592906131ee908490614029565b60008061363f8385612a4a565b9150504260066000858152602001908152602001600020828154811061366757613667614087565b90600052602060002090600b020160070154106136c65760405162461bcd60e51b815260206004820152601560248201527f54686973206c6f616e206e6f742065787069726564000000000000000000000060448201526064016103d0565b600060646136d587606261400a565b6136df9190613fe8565b6136ea906001613fd0565b90506136f68187614029565b6000858152600660205260408120805460029291908690811061371b5761371b614087565b60009182526020808320600a600b9093020191909101546001600160a01b03168352828101939093526040918201812088825290925281206003018054909190613766908490613fd0565b9091555061377790508186866137d0565b61378057600080fd5b83856001600160a01b03167ff4566bf0f626de61c22d06426bb7c188fe0cbf319d7bde6569daac73e2b18f0a836040516137bc91815260200190565b60405180910390a350600195945050505050565b6000806137dd8385612a4a565b91505061388a60066000858152602001908152602001600020828154811061380757613807614087565b90600052602060002090600b02016003015460066000868152602001908152602001600020838154811061383d5761383d614087565b90600052602060002090600b02016009015460066000878152602001908152602001600020848154811061387357613873614087565b90600052602060002090600b020160080154610cc8565b60008481526006602052604090208054839081106138aa576138aa614087565b90600052602060002090600b020160030181905550846006600085815260200190815260200160002082815481106138e4576138e4614087565b90600052602060002090600b02016003015410156139445760405162461bcd60e51b815260206004820152601860248201527f596f752063616e206f6e6c79204c6f616e20616d6f756e74000000000000000060448201526064016103d0565b600083815260066020526040902080548290811061396457613964614087565b60009182526020909120600b90910201600201546040516323b872dd60e01b81526001600160a01b03868116600483015230602483015260448201889052909116906323b872dd90606401602060405180830381600087803b1580156139c957600080fd5b505af11580156139dd573d6000803e3d6000fd5b505050506040513d601f19601f82011682018060405250810190613a019190613cea565b506000838152600660205260408120805483908110613a2257613a22614087565b60009182526020808320600a600b9093020191909101546001600160a01b0316808352600282526040808420888552909252908220600801805491935088929091613a6e908490614029565b90915550506001600160a01b038116600090815260026020908152604080832087845290915281206003018054889290613aa9908490613fd0565b90915550506000848152600660205260409020805487919084908110613ad157613ad1614087565b90600052602060002090600b02016003016000828254613af19190614029565b90915550506000848152600660205260409020805442919084908110613b1957613b19614087565b600091825260209091206008600b909202010155613b9a60026000868152600660205260409020805485908110613b5257613b52614087565b90600052602060002090600b020160030154613b6e919061400a565b6001600160a01b038316600090815260026020908152604080832089845290915290206009015461330a565b6000858152600660205260409020805484908110613bba57613bba614087565b600091825260209091206006600b90920201015550600195945050505050565b600061038c8284613fe8565b80356001600160a01b0381168114613bfd57600080fd5b919050565b600060208284031215613c1457600080fd5b61038c82613be6565b60008060408385031215613c3057600080fd5b613c3983613be6565b946020939093013593505050565b600080600060608486031215613c5c57600080fd5b613c6584613be6565b9250602084013591506040840135613c7c8161409d565b809150509250925092565b600080600080600080600060e0888a031215613ca257600080fd5b613cab88613be6565b965060208801359550604088013594506060880135935060808801359250613cd560a08901613be6565b915060c0880135905092959891949750929550565b600060208284031215613cfc57600080fd5b815161038c8161409d565b600060208284031215613d1957600080fd5b5035919050565b600060208284031215613d3257600080fd5b5051919050565b60008060408385031215613d4c57600080fd5b82359150613d5c60208401613be6565b90509250929050565b600080600080600060a08688031215613d7d57600080fd5b85359450613d8d60208701613be6565b935060408601359250613da260608701613be6565b949793965091946080013592915050565b60008060408385031215613dc657600080fd5b50508035926020909101359150565b6020808252825182820181905260009190848201906040850190845b81811015613e165783516001600160a01b031683529284019291840191600101613df1565b50909695505050505050565b6020808252825182820181905260009190848201906040850190845b81811015613e1657835183529284019291840191600101613e3e565b81516001600160a01b031681526101608101602083015160208301526040830151613e9060408401826001600160a01b03169052565b50606083015160608301526080830151613eb560808401826001600160a01b03169052565b5060a083015160a083015260c083015160c083015260e083015160e083015261010080840151818401525061012080840151818401525061014080840151613f07828501826001600160a01b03169052565b505092915050565b81518152602080830151610180830191613f33908401826001600160a01b03169052565b506040830151613f47604084018215159052565b506060830151613f6260608401826001600160a01b03169052565b506080830151608083015260a083015160a083015260c083015160c083015260e083015160e083015261010080840151613fa6828501826001600160a01b03169052565b50506101208381015190830152610140808401519083015261016092830151929091019190915290565b60008219821115613fe357613fe361405b565b500190565b60008261400557634e487b7160e01b600052601260045260246000fd5b500490565b60008160001904831182151516156140245761402461405b565b500290565b60008282101561403b5761403b61405b565b500390565b60006000198214156140545761405461405b565b5060010190565b634e487b7160e01b600052601160045260246000fd5b634e487b7160e01b600052603160045260246000fd5b634e487b7160e01b600052603260045260246000fd5b8015158114610a3d57600080fdfe5265656e7472616e637947756172643a207265656e7472616e742063616c6c00a2646970667358221220afd64b6fae79e3970207b0e2874193f893d1ea65f936f648650cd491898d229664736f6c63430008070033",
  "immutableReferences": {},
  "source": "// SPDX-License-Identifier: Leluk911\n\npragma solidity 0.8.7;\n\nimport \"../node_modules/@openzeppelin/contracts/token/ERC20/IERC20.sol\";\nimport \"../node_modules/@openzeppelin/contracts/access/Ownable.sol\";\nimport \"../node_modules/@openzeppelin/contracts/utils/Counters.sol\";\nimport \"../node_modules/@openzeppelin/contracts/security/ReentrancyGuard.sol\";\nimport \"./storage.sol\";\nimport \"./interestCalculator.sol\";\nimport \"./coreFunction.sol\";\n\ncontract lendingPage is CoreFunction {\n    //library\n\n    using Counters for Counters.Counter;\n    //function variable\n    \n    //-------------------------------//\n    constructor(uint _minpenality){\n        Id.increment();\n        minPenality = _minpenality;\n    }\n    //-----> Search function user \n    function _listContractXuser(address _user) internal view returns(uint[] memory){\n       return listContractUser[_user];\n    }\n    function _findContractLending(address _to,uint _id)internal view returns(LendingContract memory){\n        return userLendingContract[_to][_id];\n    }\n     function _findArrayindexContract(address _to,uint deleteId)internal view returns(uint,bool){\n            //uint index;\n            //bool response;// = false;\n            for(uint i=0 ;i<listContractUser[_to].length;i++){\n                if (deleteId == listContractUser[_to][i]){\n                    //index = i;\n                    //response = true;\n                    //break;\n                    return (i,true);\n                }\n            }\n            //return (index,response);\n            return (0,false);\n  \n    }\n    function _findContractAvvalible(uint _IdFind)internal view returns(uint,bool){\n         //uint index;// = 0;\n         //bool response;// = false;\n         for(uint i=0 ;i<listContract.length;i++){\n             if (_IdFind == listContract[i]){\n                 //index = i;\n                 //response = true;\n                return (i,true);\n\n             }\n         }\n         //return (index,response);\n        return (0,false);\n\n     \n    }\n    //------> Search function Borrower\n    function _serchIndexBorrowerXContract(uint _idContract,address _borrower) internal view returns(bool,uint){\n      for(uint i =0; i<borrowersXid[_idContract].length;i++ ){\n          if(borrowersXid[_idContract][i].owner == _borrower){\n              return (true,i);\n          }\n      }\n      return (false,0);\n    }\n    function _serchBorrowerPositionXContract(uint _idContract,address _borrower) internal view returns(Borrower memory){\n       for(uint i =0; i<borrowersXid[_idContract].length;i++ ){\n           if(borrowersXid[_idContract][i].owner == _borrower){\n               return (borrowersXid[_idContract][i]);\n           }\n       }\n       revert(\"Borrower for this contract not present\");\n    }\n    // ----> User Function\n    function _deposit(address _to,address _asset,uint _amount,uint _apr,uint _deadline,uint _penality,address _collateral,uint _rateCollateral)internal {\n        //check\n        require(_to != address(0), \"invalid address\");\n        require(_asset != _collateral, \"collateral not valid\");\n        require(_findAsset(_asset),\"asset don't found\");\n        require(_findAsset(_collateral),\"collateral don't found\");\n        require(IERC20(_asset).balanceOf(_to) >= _amount,\"balance user low\");\n        require(IERC20(_asset).allowance(_to, address(this)) >= _amount,\"alowance user low\");\n        require(_deadline > 0,\"deadline must have geatee 0\");\n        require(_penality >=  minPenality,\"penality must have geatee 0\");    \n        // action\n        //uint balanceContract = IERC20(_asset).balanceOf(address(this)); \n        IERC20(_asset).transferFrom(_to,address(this), _amount);\n        //require(balanceContract+_amount == IERC20(_asset).balanceOf(address(this)));\n        // prepare local variable\n        LendingContract memory newContract= LendingContract(\n            Id.current(),\n            _to,\n            false,\n            _asset,\n            //_amount,\n            _amount,\n            _apr,\n            _deadline,\n            _penality,\n            _collateral,\n            0,\n            _rateCollateral,\n            0\n        );\n        // update status global variable\n        userLendingContract[_to][Id.current()] = newContract;\n        emit NewContractDeposit(\n            Id.current(),_to,_asset,_amount,_apr,_deadline,_penality, _collateral\n        );\n        listContractUser[_to].push(Id.current());\n        listContract.push(Id.current());\n        Id.increment();\n\n\n    }\n    function _increasDeposit(address _to,uint _idContract, uint _increasAmount) internal  contractOwner(_to, _idContract){\n        require(_increasAmount > 0, \"increas must be plus 0\");\n        require(IERC20(_findContractLending(_to,_idContract).asset).balanceOf(_to) >= _increasAmount,\"balance user low\");\n        require(IERC20(_findContractLending(_to,_idContract).asset).allowance(_to, address(this)) >= _increasAmount,\"alowance user low\");\n        \n        //uint balanceContract = IERC20(_findContractLending(_to,_idContract).asset).balanceOf(address(this)); \n        IERC20(_findContractLending(_to,_idContract).asset).transferFrom(_to,address(this), _increasAmount);\n        //require(balanceContract+_increasAmount == IERC20(_findContractLending(_to,_idContract).asset).balanceOf(address(this)));\n\n        userLendingContract[_to][_idContract].amountAvvalible += _increasAmount; \n\n        emit IncreasContractDeposit(\n            _findContractLending(_to,_idContract).id,\n            _findContractLending(_to,_idContract).amountAvvalible - _increasAmount,\n            _findContractLending(_to,_idContract).amountAvvalible  \n        );\n    }\n    function _decreasDeposit(address _to,uint _idContract, uint _decreasAmount) internal contractOwner(_to, _idContract){\n        require(_decreasAmount > 0, \"increas must be plus 0\");\n        require(\n            _findContractLending(_to,_idContract).amountAvvalible >= _decreasAmount, \"Assett avvalible insufficient for this whidrow\"\n        );\n     \n\n        userLendingContract[_to][_idContract].amountAvvalible -= _decreasAmount;\n\n        //uint balanceContract = IERC20(_findContractLending(_to,_idContract).asset).balanceOf(address(this)); \n        IERC20(_findContractLending(_to,_idContract).asset).transfer(_to,_decreasAmount);\n        //require(balanceContract -_decreasAmount == IERC20(_findContractLending(_to,_idContract).asset).balanceOf(address(this)));\n\n        emit DecreasContractDeposit(\n            _findContractLending(_to,_idContract).id,\n            _findContractLending(_to,_idContract).amountAvvalible + _decreasAmount,\n            _findContractLending(_to,_idContract).amountAvvalible\n            \n        );\n\n    }\n    function _deleteContract(address _to,uint _idContract)internal contractOwner(_to, _idContract){\n       require(\n            _findContractLending(_to,_idContract).amountBorrow == 0, \"Contract have asset in borrow\"\n        ); \n        uint amountRepay = userLendingContract[_to][_idContract].amountAvvalible;\n        uint deleteId = userLendingContract[_to][_idContract].id;\n        address assetWidrow =_findContractLending(_to,_idContract).asset;\n        delete userLendingContract[_to][_idContract];\n        if(listContractUser[_to].length > 0){\n             // serch index of delete\n            (uint indexDelete, bool response) = _findArrayindexContract(_to, deleteId);\n            if(response){\n                //clean array\n                listContractUser[_to][indexDelete]=listContractUser[_to][listContractUser[_to].length -1];\n                listContractUser[_to].pop();\n            }\n        }else{\n            listContractUser[_to].pop(); // clean array\n        }\n          if(listContract.length > 0){\n             // serch index of delete\n            (uint indexDelete, bool response) = _findContractAvvalible(_idContract);\n            if(response){\n                //clean array\n                listContract[indexDelete] = listContract[listContract.length -1];\n                listContract.pop();\n            }\n        }else{\n            listContract.pop(); // clean array\n        }\n        //uint balanceContract = IERC20(assetWidrow).balanceOf(address(this)); \n        IERC20(assetWidrow).transfer(_to,amountRepay);\n        //require(balanceContract -amountRepay == IERC20(assetWidrow).balanceOf(address(this)));\n\n        emit DeleteContractDeposit(_to, deleteId);\n    }\n    function _lockNewBorrow(address _to,uint _idContract,bool _lock)internal contractOwner(_to, _idContract){\n             //lock[_idContract] = _lock;\n            userLendingContract[_to][_idContract].lock = _lock;   \n       \n    }\n    function _increaseTimeExpire(address _to,uint _idContract, uint _timeIncreas)internal contractOwner(_to, _idContract){\n            userLendingContract[_to][_idContract].duration += _timeIncreas;  \n            emit newTimeExpireIncreas(_idContract, _timeIncreas);   \n    }\n    function _decreaseTimeExpire(address _to,uint _idContract, uint _timeIncreas)internal contractOwner(_to, _idContract){\n            require(userLendingContract[_to][_idContract].amountBorrow == 0);\n            userLendingContract[_to][_idContract].duration += _timeIncreas;\n            emit newTimeExpireDecreas(_idContract, _timeIncreas);     \n    }\n    function _liquidationCall(address _to,uint _idContract,uint _idBorrow) internal contractOwner(_to, _idContract) {\n        require(borrowersXid[_idContract][_idBorrow].liquidationThreshold <= _mockOracleCollateral(),\"thresold Liquidation price not achieved\");\n        // 1/4 viene lioquidato\n        uint liquidationAmount = borrowersXid[_idContract][_idBorrow].amountCollateral /4; // parte da liquidare\n        // tolgo dalla posizione del borrower il collaterale liquidato (quidni non puo prelevare)\n        borrowersXid[_idContract][_idBorrow].amountCollateral -= liquidationAmount;\n        // dallo status contratto tolgo il collaterale perche diventa prelevabile\n        userLendingContract[borrowersXid[_idContract][_idBorrow].lender][_idContract].amountCollateral -= liquidationAmount;\n        // applico il premium che va tolto prima di scalare il debito \n        uint premiumLiquidation = ((liquidationAmount * 5)/100)+1;\n        liquidationAmount -= premiumLiquidation;\n        // riduco il credito del lender\n        userLendingContract[borrowersXid[_idContract][_idBorrow].lender][_idContract].amountBorrow -= 750;//TEST ONLY liquidationAmount * _mockOracleCollateral();\n        // riduco il debito del borrower\n        borrowersXid[_idContract][_idBorrow].ammounBorrow -=  750; //TEST ONLY liquidationAmount * 1 _mockOracleCollateral();\n        // aggiorniamo il ThresoldLiquidation\n        borrowersXid[_idContract][_idBorrow].liquidationThreshold = _liquidationThresold(\n             _mockOracleBorrow() * borrowersXid[_idContract][_idBorrow].ammounBorrow,\n             userLendingContract[borrowersXid[_idContract][_idBorrow].lender][_idContract].rateCollateral\n             );\n        // rendo prelevabile il collaterale\n        IERC20(borrowersXid[_idContract][_idBorrow].assetCollaterl).transfer(\n            borrowersXid[_idContract][_idBorrow].owner,\n            liquidationAmount + premiumLiquidation);\n     \n     emit LiquidationCall(_idContract,_idBorrow,borrowersXid[_idContract][_idBorrow].assetCollaterl,liquidationAmount + premiumLiquidation);\n    }\n    //BORROW FUNCTION\n    function _executeBorrow(address _to,uint _idContract,address _lender,uint _amountBorrow,address _assettCollateral,uint _amountCollateral) internal {\n        //require(lock[_idContract] == false, \"questo funziona\");\n        require(userLendingContract[_lender][_idContract].lock == false,\"This lender has blocked the issuance of new Loan\");\n        (,bool response) = _findArrayindexContract(_lender,_idContract);\n        require(response,\"contract dont exist\");\n        require(userLendingContract[_lender][_idContract].amountAvvalible >= _amountBorrow,\"Amount avvalible low\");\n        //// controll and utility  local var\n        //uint _priceCollateralETH = _mockOracleCollateral();// fix with true oracle\n        uint _priceBorrowEth = _mockOracleBorrow();// fix with true oracle\n        uint _rateLiquidation = userLendingContract[_lender][_idContract].rateCollateral;\n        (bool responseSrc,uint indexBorrow) = _serchIndexBorrowerXContract(_idContract, _to);\n        //check before act borrow \n      \n    \n        if(!responseSrc){\n            _newBorrower(_to,_lender, _idContract, _assettCollateral, _amountCollateral, _amountBorrow, _rateLiquidation);\n        }else{\n            require(_liquidationThresold(\n                          //_priceCollateralETH*borrowersXid[_idContract][indexBorrow].ammounBorrow,\n                          _priceBorrowEth*borrowersXid[_idContract][indexBorrow].amountCollateral,\n                           _rateLiquidation) > _mockOracleBorrow());\n            _oldBorrower(_to, _lender, _idContract, _assettCollateral, _amountCollateral, _amountBorrow, _rateLiquidation, indexBorrow);\n\n        }\n\n        emit Borrow(_to, _idContract, _amountBorrow);\n    }\n    function _oldBorrower(address _to,address _lender,uint _idContract,address _assettCollateral,uint _amountCollateral,uint _amountBorrow, uint _rateLiquidation,uint indexBorrow)internal {\n        // gia cliente??\n        // aggiorniamo i conti vecchi \n        // aggiungere al controllo le coin gia depositate e prese in prestito \n        require(_to == borrowersXid[_idContract][indexBorrow].owner, \"Not owner this loan\" );\n        require(_healFactor(_mockOracleCollateral() *(borrowersXid[_idContract][indexBorrow].amountCollateral + _amountCollateral),\n                             _mockOracleBorrow() *(borrowersXid[_idContract][indexBorrow].ammounBorrow + _amountBorrow)\n                             )> userLendingContract[_lender][_idContract].rateCollateral); \n\n        //uint balanceBefore = IERC20(_assettCollateral).balanceOf(address(this));\n        IERC20(_assettCollateral).transferFrom(_to, address(this), _amountCollateral);\n        //require( balanceBefore + _amountCollateral == IERC20(_assettCollateral).balanceOf(address(this)));\n\n        borrowersXid[_idContract][indexBorrow].ammounBorrow += _amountBorrow;// aggiornata la variabile globale\n        borrowersXid[_idContract][indexBorrow].amountCollateral += _amountCollateral;// aggiornata la variabile globale\n        // updata thresoldLiquidation \n        borrowersXid[_idContract][indexBorrow].liquidationThreshold =\n                _liquidationThresold(\n                    //_mockOracleCollateral()*borrowersXid[_idContract][indexBorrow].amountCollateral,\n                    _mockOracleBorrow()*borrowersXid[_idContract][indexBorrow].ammounBorrow,\n                     _rateLiquidation);\n        userLendingContract[_lender][_idContract].amountAvvalible -=_amountBorrow;// togliamo le coin prestare\n        userLendingContract[_lender][_idContract].amountBorrow += _amountBorrow; // incrementiamo il capitale prestato\n        userLendingContract[_lender][_idContract].amountCollateral += _amountCollateral;// aggiungiamo la quantita di collaterale presente nel contratto\n        //BorrowerContract[_to][indexBorrow] = borrowersXid[_idContract][indexBorrow];\n        IERC20(userLendingContract[_lender][_idContract].asset).transfer(_to, _amountBorrow);\n\n    }\n    function _newBorrower(address _to,address _lender,uint _idContract,address _assettCollateral,uint _amountCollateral,uint _amountBorrow, uint _rateLiquidation)internal {\n        // nuovo cliente????\n        // conti nuovi\n        require(_healFactor(_mockOracleCollateral() * _amountCollateral, _mockOracleBorrow()*_amountBorrow) > userLendingContract[_lender][_idContract].rateCollateral);\n        // spreco di gas????\n        //uint balanceBefore = IERC20(_assettCollateral).balanceOf(address(this));\n        IERC20(_assettCollateral).transferFrom(_to, address(this), _amountCollateral);\n        //require( balanceBefore + _amountCollateral == IERC20(_assettCollateral).balanceOf(address(this)));\n        // preparazione dei dati del borrower non ancora settat nella variabile locale\n        Borrower memory newBorrower = Borrower(\n                                            _to,\n                                            _idContract,\n                                            userLendingContract[_lender][_idContract].asset,\n                                            _amountBorrow,\n                                            //uint heltBorrow;\n                                            _assettCollateral,\n                                            _amountCollateral,\n                                            _liquidationThresold(\n                                                //_mockOracleCollateral()*_amountCollateral,\n                                                 _mockOracleBorrow()*_amountBorrow,\n                                                 _rateLiquidation),\n                                            block.timestamp + userLendingContract[_lender][_idContract].duration,\n                                            block.timestamp,\n                                            _findContractLending(_lender,_idContract).apr,\n                                            _lender\n\n                                            );\n\n        borrowersXid[_idContract].push(newBorrower);// aggiornata la variabile locale\n        // aggiorniamo i dati del lender\n\n        userLendingContract[_lender][_idContract].amountAvvalible -=_amountBorrow;// togliamo le coin prestare\n        userLendingContract[_lender][_idContract].amountBorrow += _amountBorrow; // incrementiamo il capitale prestato\n        userLendingContract[_lender][_idContract].amountCollateral += _amountCollateral;// aggiungiamo la quantita di collaterale presente nel contratto\n        //BorrowerContract[_to][borrowersXid[_idContract].length] = newBorrower;\n        IERC20(userLendingContract[_lender][_idContract].asset).transfer(_to, _amountBorrow);\n    }\n    function _executeRepay(address _to, uint _idContract,uint _amount) internal {\n        //Borrower memory loanSituation = _serchBorrowerPositionXContract(_idContract, _to);\n        require(_to  ==  _serchBorrowerPositionXContract(_idContract, _to).owner ,\"Not owner this loan\");\n        if(block.timestamp >  _serchBorrowerPositionXContract(_idContract, _to).expiration){\n            require(_penalityLoan(_amount, _to, _idContract));// gestire la penalit\n        }else{\n            require(_repay( _amount, _to, _idContract),\"Repay error\");\n        }\n        emit repay(_to, _idContract, _amount);\n    }\n    function _repay(uint _amount,address _to,uint _idContract) internal returns(bool){\n        // portiamo ad adesso la situazione\n            (,uint indexBorrow) = _serchIndexBorrowerXContract(_idContract, _to);\n\n            borrowersXid[_idContract][indexBorrow].ammounBorrow = InterestCalculator._getTotalLoan(\n                borrowersXid[_idContract][indexBorrow].ammounBorrow,\n                borrowersXid[_idContract][indexBorrow].aprLoan,\n                borrowersXid[_idContract][indexBorrow].blockStart);\n            // ripagando si ricomincia il calcolo degli interessi come fosse un prestito nuovo\n            require(borrowersXid[_idContract][indexBorrow].ammounBorrow >= _amount, \"You can only Loan amount\");\n\n            //uint Balance = IERC20(loanSituation.assetBorrow).balanceOf(address(this));\n            IERC20(borrowersXid[_idContract][indexBorrow].assetBorrow).transferFrom(_to,address(this), _amount);\n            //assert(Balance + _amount == IERC20(loanSituation.assetBorrow).balanceOf(address(this)));\n\n            // receipt the \"ternis\" update the data lender and borrower\n            address _lender = borrowersXid[_idContract][indexBorrow].lender;\n            userLendingContract[_lender][_idContract].amountBorrow -= _amount;\n            userLendingContract[_lender][_idContract].amountAvvalible += _amount;\n\n\n\n            borrowersXid[_idContract][indexBorrow].ammounBorrow -= _amount;\n            borrowersXid[_idContract][indexBorrow].blockStart = block.timestamp;\n            borrowersXid[_idContract][indexBorrow].liquidationThreshold = \n                _liquidationThresold(\n                      borrowersXid[_idContract][indexBorrow].ammounBorrow * _mockOracleBorrow(),\n                      userLendingContract[_lender][_idContract].rateCollateral);\n            return true;\n    }\n    function _penalityLoan ( uint _amount,address _to,uint _idContract) internal returns(bool){\n        (,uint indexBorrow) = _serchIndexBorrowerXContract(_idContract, _to);\n            //borrowersXid[_idContract][indexBorrow]\n        require(borrowersXid[_idContract][indexBorrow].expiration < block.timestamp, \"This loan not expired\");\n        //penality 2% of pay\n        uint new_amount = ((_amount *98)/100)+1;\n        // per ora va tutto al lendere ma poi ci applichiamo delle fee\n        userLendingContract[borrowersXid[_idContract][indexBorrow].lender][_idContract].amountAvvalible += _amount - new_amount;// tutto /2\n        // balanceContract[assett] += (_amount - new_amount)/2\n        require(_repay(new_amount, _to, _idContract));\n        emit applyPenality(_to, _idContract,new_amount);\n        return true;\n    }\n    // EXTERNAL FUNCTION\n    function setAssettAvvalible(address _newAsset) external nonReentrant() onlyOwner() {\n        _setAssettAvvalible(_newAsset);\n        emit NewAssetAvvalible(_newAsset, block.timestamp);\n    } \n    function findAsset(address _asset) external view returns(bool){\n        return _findAsset(_asset);\n    }\n    function deposit(address _asset,uint _amount,uint _apr,uint _deadline,uint _penality,address _collateral,uint _rateCollateral) external nonReentrant() {\n        _deposit(msg.sender, _asset, _amount, _apr, _deadline, _penality, _collateral,_rateCollateral);\n    }\n    function listContractXuser(address _user) external view returns(uint[] memory){\n        return _listContractXuser(_user);\n    }\n    function getAssettAvvalible()external view returns (address[] memory ){\n        return _getAssettAvvalible(); \n    }\n    function findContractLending(address _to,uint _id)external view returns(LendingContract memory){\n        return _findContractLending(_to, _id);\n    }\n     function increasDeposit(uint _idContract, uint _increasAmount) external nonReentrant(){\n        _increasDeposit(msg.sender, _idContract, _increasAmount);\n    }\n    function decreasDeposit(uint _idContract, uint _decreasAmount) external nonReentrant(){\n        _decreasDeposit(msg.sender, _idContract, _decreasAmount);\n    }\n    function deleteContract(uint _idContract) external nonReentrant(){\n        _deleteContract(msg.sender, _idContract);\n    }\n     function executeBorrow(uint _idContract,address _lender,uint _amountBorrow,address _assettCollateral,uint _amountCollateral) external nonReentrant(){\n        _executeBorrow(msg.sender, _idContract, _lender, _amountBorrow, _assettCollateral, _amountCollateral);\n    }\n    function serchBorrowerPositionXContract(uint _idContract,address _borrower) external view returns (Borrower memory){\n        return _serchBorrowerPositionXContract(_idContract, _borrower);\n\n    }\n    function serchIndexBorrowerXContract(uint _idContract,address _borrower)external view returns(uint){\n        (,uint idFind) = _serchIndexBorrowerXContract(_idContract, _borrower);\n        return idFind;\n    }\n    function lockNewBorrow(address _to,uint _idContract,bool _lock)external nonReentrant(){\n       \n        _lockNewBorrow(_to, _idContract,_lock);\n    }\n\n    function viewAmountLoan(address  _borrower,uint _idContract) external view returns(uint loanCompouse) {\n        //Borrower memory loanSituation = _serchBorrowerPositionXContract(_idContract, _borrower);\n        //uint apr = _serchBorrowerPositionXContract(_idContract, _borrower).aprLoan;//loanSituation.aprLoan;\n        //uint blockStart = _serchBorrowerPositionXContract(_idContract, _borrower).blockStart; //loanSituation.blockStart; \n        loanCompouse = InterestCalculator._getTotalLoan(\n            _serchBorrowerPositionXContract(_idContract, _borrower).ammounBorrow,\n            _serchBorrowerPositionXContract(_idContract, _borrower).aprLoan,\n            _serchBorrowerPositionXContract(_idContract, _borrower).blockStart); \n    }\n    function executeRepay(uint _idContract,uint _amount) external nonReentrant(){\n        _executeRepay(msg.sender, _idContract, _amount);\n    }\n    function increaseTimeExpire(uint _idContract, uint _timeIncreas)external nonReentrant(){\n          _increaseTimeExpire(msg.sender, _idContract, _timeIncreas);\n    }\n    function decreaseTimeExpire(uint _idContract, uint _timeIncreas)external nonReentrant(){\n          _decreaseTimeExpire(msg.sender, _idContract, _timeIncreas);\n    }\n    function liquidationCall(uint _idContract,uint _idBorrow) external nonReentrant(){\n        _liquidationCall(msg.sender,_idContract,_idBorrow);\n    }\n\n    //// ^^^^^TESTED^^^^^\n    /// vvvvvvNON TESTEDvvvvv\n   \n    // MODIFIER\n    modifier contractOwner(address _to,uint _idContract){\n        require(\n           _findContractLending(_to,_idContract).owner == _to, \"Not owner this contract\" \n        );\n        _;\n    }\n    // EVENT \n\n     event NewAssetAvvalible(address indexed asset, uint timeStart);\n     event NewContractDeposit(\n        uint Id,\n        address indexed owner,\n        address indexed asset,\n        uint amount,\n        uint apr,\n        uint  deadline,\n        uint  penality,\n        address indexed collateral\n     );\n     event IncreasContractDeposit(\n        uint Id,\n        uint indexed amount,\n        uint indexed newAmount\n     );\n     event DecreasContractDeposit(\n        uint Id,\n        uint indexed amount,\n        uint indexed newAmount\n     );\n\n     event DeleteContractDeposit(\n        address indexed owner,\n        uint indexed id\n     );\n     event Borrow( address indexed Borrower,uint indexed Id_Contract, uint amount);\n\n     event repay(address indexed _to, uint indexed _idContract,uint _amount);\n     event applyPenality(address indexed _to,uint  indexed _idContract,uint _amount);\n\n     event newTimeExpireIncreas(uint indexed _idContract, uint indexed _timeIncreas);\n     event newTimeExpireDecreas(uint indexed _idContract, uint indexed _timeIncreas);\n     event LiquidationCall (uint indexed _idContract,uint indexed _idBorrow, address assetsLiquidate, uint amount);\n\n    // mock function\n\n    function _mockOracleBorrow() internal pure returns(uint price){\n        price = 2;\n    }\n\n    function _mockOracleCollateral() internal pure returns(uint price){\n        price = 1;\n\n    }\n\n    \n    \n\n    event RecoveryCredit(uint indexed _idContract,address indexed collateral, uint amount);\n    \n    function _RecoverCreditsExpired(address _to,uint _idContract)internal contractOwner(_to, _idContract) {\n        _lockNewBorrow(_to,_idContract,true);\n        uint creditExpired;\n        for(uint i; i < borrowersXid[_idContract].length ; i++){\n            \n            creditExpired+=_collateralSeizure( _idContract,i);\n        }\n        delete borrowersXid[_idContract] ;\n        userCreditExpire[_to][userLendingContract[_to][_idContract].collateral] += creditExpired;\n        emit RecoveryCredit(_idContract, userLendingContract[_to][_idContract].collateral, userCreditExpire[_to][userLendingContract[_to][_idContract].collateral]);\n    }\n\n    event RecoverySingleCredit(uint indexed _idContract,address indexed collateral, uint amount);\n\n    function _RecoverSingleCreditExpired(address _to,uint _idContract,uint _idBorrow)internal contractOwner(_to, _idContract) {\n        _lockNewBorrow(_to,_idContract,true);\n        \n        uint singleCreditExpired;\n        singleCreditExpired +=_collateralSeizure( _idContract, _idBorrow);\n        \n        borrowersXid[_idContract][_idBorrow] = borrowersXid[_idContract][borrowersXid[_idContract].length -1];\n        borrowersXid[_idContract].pop();\n\n        userCreditExpire[_to][userLendingContract[_to][_idContract].collateral] += singleCreditExpired; \n        emit RecoverySingleCredit(_idContract, userLendingContract[_to][_idContract].collateral, userCreditExpire[_to][userLendingContract[_to][_idContract].collateral]);\n    }\n\n    event WidrowCredit(address indexed _to,uint indexed _idContract,address indexed collateral, uint amount);\n    \n    function _widrowCreditExpire(address _to,uint _idContract)internal contractOwner(_to, _idContract){\n        require(userLendingContract[_to][_idContract].lock == true);\n        require(userLendingContract[_to][_idContract].amountCollateral ==0);\n        uint widrow = userCreditExpire[_to][userLendingContract[_to][_idContract].collateral];\n        userCreditExpire[_to][userLendingContract[_to][_idContract].collateral] = 0;\n        IERC20(userLendingContract[_to][_idContract].collateral).transfer(_to, widrow);\n\n        emit WidrowCredit(_to, _idContract, userLendingContract[_to][_idContract].collateral, widrow);\n    }\n\n\n    function _collateralSeizure(uint _idContract,uint _idBorrow) internal returns(uint){\n        require(borrowersXid[_idContract][_idBorrow].expiration > block.timestamp,\"loan not expired\");\n        uint collateral = borrowersXid[_idContract][_idBorrow].amountCollateral;\n        uint borrowExpired = borrowersXid[_idContract][_idBorrow].ammounBorrow;\n        borrowersXid[_idContract][_idBorrow].amountCollateral = 0;\n        borrowersXid[_idContract][_idBorrow].blockStart = 0;\n        borrowersXid[_idContract][_idBorrow].ammounBorrow = 0;\n        if(collateral * _mockOracleCollateral() <=  borrowExpired){\n            userLendingContract[borrowersXid[_idContract][_idBorrow].lender][_idContract].amountCollateral -= collateral;\n            userLendingContract[borrowersXid[_idContract][_idBorrow].lender][_idContract].amountBorrow -= borrowExpired;\n            return collateral;   \n        }else {\n            uint contractFee = ((((collateral * _mockOracleCollateral() -  borrowExpired * _mockOracleBorrow())/_mockOracleCollateral())*20)/100)+1;\n            userLendingContract[borrowersXid[_idContract][_idBorrow].lender][_idContract].amountCollateral -= collateral;\n            userLendingContract[borrowersXid[_idContract][_idBorrow].lender][_idContract].amountBorrow -= borrowExpired;\n            balanceFee[borrowersXid[_idContract][_idBorrow].assetCollaterl] += contractFee;\n            return collateral - contractFee;   \n        }\n    }\n\n    /**\n       struct LendingContract {\n        uint id;\n        address owner;\n        bool lock;\n        address asset;\n        //uint amount;\n        uint amountAvvalible;\n        uint apr;\n        uint duration;\n        uint penality;\n        address collateral;\n        uint amountBorrow;\n        uint rateCollateral;\n        uint amountCollateral;\n    }\n    \n    \n    \n    \n    \n    \n    \n    \n     struct Borrower{\n        address owner;\n        uint idContract;\n        address assetBorrow;\n        uint ammounBorrow; // da correggere\n        //uint heltBorrow;\n        address assetCollaterl;\n        uint amountCollateral;\n        uint liquidationThreshold;\n        uint expiration;\n        uint blockStart;\n        uint aprLoan;\n        address lender;\n    }*/\n     \n    \n\n\n\n   \n\n    \n\n}\n\n\n    \n/**\n\nRIMUOVERE TUTTE LE OPERAZIONI DI TEST\n\n    MANCA IL SISTEMA DI FEES\n    3 -> Ripagare il Borrow e cambiare il margine\n            -> Applicare qui la Fee ? \n\n    4 -> Liquidazione collatterale, \n            -> problema -> Calcolo matematico \n            -> Quanto liquidare?\n            -> Come cambiano i valori dopo la liquidazione?\n            -> Voglio dare al lender la possibilit di vendere a mercato la liquidazione? \n            -> Gestione delle fee da pagare al protocollo \n    \n    5 -> a carico di chi sono le fee? lender o borrower ?\n            -> dove prendere le fee? \n                -> dall interesse del lender\n                    -> come lo calcolo?\n                    -> quando le prendo ?\n                -> dal pagamento del debito ? \n                    ->  pi vantaggioso progettualmente\n                    ->  competitiva come strategia?\n            -> HOW MUCH ????\n                -> 0.50% su ogni pagamento ???? -> tariffa standard\n                -> 1% fino al 5%        Tariffa liquidazione\n                -> 2% dal 5% al 10%     Tariffa liquidazione\n                -> 4% dal 10% al 20%    Tariffa liquidazione\n                -> 5% dal 20% al 30%    Tariffa liquidazione\n                -> 6% dal 30% al 100%   Tariffa liquidazione\n                    -> Vendere a mercato e realizare subito usd?\n                    -> detenere gli asset? \n                    -> miso detenere blue chips e dumpare il resto.\n \n\n nonReentrant()\n onlyOwner()\n \n\n\n \n */\n",
  "sourcePath": "/media/leluk/storage/Studio Dev/Dapp portfolio/individual lending/contracts/Individual_lending.sol",
  "compiler": {
    "name": "solc",
    "version": "0.8.7+commit.e28d00a7.Emscripten.clang"
  },
  "schemaVersion": "3.4.7",
  "updatedAt": "2022-06-25T12:31:28.324Z",
  "devdoc": {
    "kind": "dev",
    "methods": {
      "owner()": {
        "details": "Returns the address of the current owner."
      },
      "renounceOwnership()": {
        "details": "Leaves the contract without owner. It will not be possible to call `onlyOwner` functions anymore. Can only be called by the current owner. NOTE: Renouncing ownership will leave the contract without an owner, thereby removing any functionality that is only available to the owner."
      },
      "transferOwnership(address)": {
        "details": "Transfers ownership of the contract to a new account (`newOwner`). Can only be called by the current owner."
      }
    },
    "version": 1
  },
  "userdoc": {
    "kind": "user",
    "methods": {},
    "version": 1
  }
}