{
  "contractName": "lendingPage",
  "abi": [
    {
      "inputs": [
        {
          "internalType": "uint256",
          "name": "_minpenality",
          "type": "uint256"
        }
      ],
      "stateMutability": "nonpayable",
      "type": "constructor"
    },
    {
      "anonymous": false,
      "inputs": [
        {
          "indexed": false,
          "internalType": "uint256",
          "name": "Id",
          "type": "uint256"
        },
        {
          "indexed": true,
          "internalType": "uint256",
          "name": "amount",
          "type": "uint256"
        },
        {
          "indexed": true,
          "internalType": "uint256",
          "name": "newAmount",
          "type": "uint256"
        }
      ],
      "name": "DecreasContractDeposit",
      "type": "event"
    },
    {
      "anonymous": false,
      "inputs": [
        {
          "indexed": true,
          "internalType": "address",
          "name": "owner",
          "type": "address"
        },
        {
          "indexed": true,
          "internalType": "uint256",
          "name": "id",
          "type": "uint256"
        }
      ],
      "name": "DeleteContractDeposit",
      "type": "event"
    },
    {
      "anonymous": false,
      "inputs": [
        {
          "indexed": false,
          "internalType": "uint256",
          "name": "Id",
          "type": "uint256"
        },
        {
          "indexed": true,
          "internalType": "uint256",
          "name": "amount",
          "type": "uint256"
        },
        {
          "indexed": true,
          "internalType": "uint256",
          "name": "newAmount",
          "type": "uint256"
        }
      ],
      "name": "IncreasContractDeposit",
      "type": "event"
    },
    {
      "anonymous": false,
      "inputs": [
        {
          "indexed": true,
          "internalType": "address",
          "name": "asset",
          "type": "address"
        },
        {
          "indexed": false,
          "internalType": "uint256",
          "name": "timeStart",
          "type": "uint256"
        }
      ],
      "name": "NewAssetAvvalible",
      "type": "event"
    },
    {
      "anonymous": false,
      "inputs": [
        {
          "indexed": false,
          "internalType": "uint256",
          "name": "Id",
          "type": "uint256"
        },
        {
          "indexed": true,
          "internalType": "address",
          "name": "owner",
          "type": "address"
        },
        {
          "indexed": true,
          "internalType": "address",
          "name": "asset",
          "type": "address"
        },
        {
          "indexed": false,
          "internalType": "uint256",
          "name": "amount",
          "type": "uint256"
        },
        {
          "indexed": false,
          "internalType": "uint256",
          "name": "apr",
          "type": "uint256"
        },
        {
          "indexed": false,
          "internalType": "uint256",
          "name": "deadline",
          "type": "uint256"
        },
        {
          "indexed": false,
          "internalType": "uint256",
          "name": "penality",
          "type": "uint256"
        },
        {
          "indexed": true,
          "internalType": "address",
          "name": "collateral",
          "type": "address"
        }
      ],
      "name": "NewContractDeposit",
      "type": "event"
    },
    {
      "anonymous": false,
      "inputs": [
        {
          "indexed": true,
          "internalType": "address",
          "name": "previousOwner",
          "type": "address"
        },
        {
          "indexed": true,
          "internalType": "address",
          "name": "newOwner",
          "type": "address"
        }
      ],
      "name": "OwnershipTransferred",
      "type": "event"
    },
    {
      "inputs": [],
      "name": "owner",
      "outputs": [
        {
          "internalType": "address",
          "name": "",
          "type": "address"
        }
      ],
      "stateMutability": "view",
      "type": "function"
    },
    {
      "inputs": [],
      "name": "renounceOwnership",
      "outputs": [],
      "stateMutability": "nonpayable",
      "type": "function"
    },
    {
      "inputs": [
        {
          "internalType": "address",
          "name": "newOwner",
          "type": "address"
        }
      ],
      "name": "transferOwnership",
      "outputs": [],
      "stateMutability": "nonpayable",
      "type": "function"
    },
    {
      "inputs": [
        {
          "internalType": "address",
          "name": "_newAsset",
          "type": "address"
        }
      ],
      "name": "setAssettAvvalible",
      "outputs": [],
      "stateMutability": "nonpayable",
      "type": "function"
    },
    {
      "inputs": [
        {
          "internalType": "address",
          "name": "_asset",
          "type": "address"
        }
      ],
      "name": "findAsset",
      "outputs": [
        {
          "internalType": "bool",
          "name": "",
          "type": "bool"
        }
      ],
      "stateMutability": "view",
      "type": "function"
    },
    {
      "inputs": [
        {
          "internalType": "address",
          "name": "_asset",
          "type": "address"
        },
        {
          "internalType": "uint256",
          "name": "_amount",
          "type": "uint256"
        },
        {
          "internalType": "uint256",
          "name": "_apr",
          "type": "uint256"
        },
        {
          "internalType": "uint256",
          "name": "_deadline",
          "type": "uint256"
        },
        {
          "internalType": "uint256",
          "name": "_penality",
          "type": "uint256"
        },
        {
          "internalType": "address",
          "name": "_collateral",
          "type": "address"
        }
      ],
      "name": "deposit",
      "outputs": [],
      "stateMutability": "nonpayable",
      "type": "function"
    },
    {
      "inputs": [
        {
          "internalType": "address",
          "name": "_user",
          "type": "address"
        }
      ],
      "name": "listContractXuser",
      "outputs": [
        {
          "internalType": "uint256[]",
          "name": "",
          "type": "uint256[]"
        }
      ],
      "stateMutability": "view",
      "type": "function"
    },
    {
      "inputs": [],
      "name": "getAssettAvvalible",
      "outputs": [
        {
          "internalType": "address[]",
          "name": "",
          "type": "address[]"
        }
      ],
      "stateMutability": "view",
      "type": "function"
    },
    {
      "inputs": [
        {
          "internalType": "address",
          "name": "_to",
          "type": "address"
        },
        {
          "internalType": "uint256",
          "name": "_id",
          "type": "uint256"
        }
      ],
      "name": "findContractLending",
      "outputs": [
        {
          "components": [
            {
              "internalType": "uint256",
              "name": "id",
              "type": "uint256"
            },
            {
              "internalType": "address",
              "name": "owner",
              "type": "address"
            },
            {
              "internalType": "address",
              "name": "asset",
              "type": "address"
            },
            {
              "internalType": "uint256",
              "name": "amountAvvalible",
              "type": "uint256"
            },
            {
              "internalType": "uint256",
              "name": "apr",
              "type": "uint256"
            },
            {
              "internalType": "uint256",
              "name": "deadline",
              "type": "uint256"
            },
            {
              "internalType": "uint256",
              "name": "penality",
              "type": "uint256"
            },
            {
              "internalType": "address",
              "name": "collateral",
              "type": "address"
            },
            {
              "internalType": "uint256",
              "name": "_amountBorrow",
              "type": "uint256"
            }
          ],
          "internalType": "struct lendingPage.LendingContract",
          "name": "",
          "type": "tuple"
        }
      ],
      "stateMutability": "view",
      "type": "function"
    },
    {
      "inputs": [
        {
          "internalType": "uint256",
          "name": "_idContract",
          "type": "uint256"
        },
        {
          "internalType": "uint256",
          "name": "_increasAmount",
          "type": "uint256"
        }
      ],
      "name": "increasDeposit",
      "outputs": [],
      "stateMutability": "nonpayable",
      "type": "function"
    },
    {
      "inputs": [
        {
          "internalType": "uint256",
          "name": "_idContract",
          "type": "uint256"
        },
        {
          "internalType": "uint256",
          "name": "_decreasAmount",
          "type": "uint256"
        }
      ],
      "name": "decreasDeposit",
      "outputs": [],
      "stateMutability": "nonpayable",
      "type": "function"
    },
    {
      "inputs": [
        {
          "internalType": "uint256",
          "name": "_idContract",
          "type": "uint256"
        }
      ],
      "name": "deleteContract",
      "outputs": [],
      "stateMutability": "nonpayable",
      "type": "function"
    }
  ],
  "bytecode": "0x60806040523480156200001157600080fd5b506040516200367a3803806200367a83398181016040528101906200003791906200017c565b620000576200004b6200008360201b60201c565b6200008b60201b60201c565b600180819055506200007560026200014f60201b620006a01760201c565b8060048190555050620001d7565b600033905090565b60008060009054906101000a900473ffffffffffffffffffffffffffffffffffffffff169050816000806101000a81548173ffffffffffffffffffffffffffffffffffffffff021916908373ffffffffffffffffffffffffffffffffffffffff1602179055508173ffffffffffffffffffffffffffffffffffffffff168173ffffffffffffffffffffffffffffffffffffffff167f8be0079c531659141344cd1fd0a4f28419497f9722a3daafe3b4186f6b6457e060405160405180910390a35050565b6001816000016000828254019250508190555050565b6000815190506200017681620001bd565b92915050565b600060208284031215620001955762000194620001b8565b5b6000620001a58482850162000165565b91505092915050565b6000819050919050565b600080fd5b620001c881620001ae565b8114620001d457600080fd5b50565b61349380620001e76000396000f3fe608060405234801561001057600080fd5b50600436106100b45760003560e01c8063726adaa411610071578063726adaa4146101635780638990616d146101815780638da5cb5b1461019d578063e236b6f0146101bb578063e2bb0eb9146101eb578063f2fde38b1461021b576100b4565b806319dda45c146100b9578063460e90d0146100d557806347087215146101055780636505e65e146101215780636893d3361461013d578063715018a614610159575b600080fd5b6100d360048036038101906100ce919061278d565b610237565b005b6100ef60048036038101906100ea919061260c565b61029b565b6040516100fc9190612c8e565b60405180910390f35b61011f600480360381019061011a919061278d565b6102ad565b005b61013b60048036038101906101369190612679565b610311565b005b61015760048036038101906101529190612733565b61037d565b005b6101616103df565b005b61016b610467565b6040516101789190612c6c565b60405180910390f35b61019b6004803603810190610196919061260c565b610476565b005b6101a5610553565b6040516101b29190612bc8565b60405180910390f35b6101d560048036038101906101d09190612639565b61057c565b6040516101e29190612eab565b60405180910390f35b6102056004803603810190610200919061260c565b610596565b6040516102129190612cb0565b60405180910390f35b6102356004803603810190610230919061260c565b6105a8565b005b6002600154141561027d576040517f08c379a000000000000000000000000000000000000000000000000000000000815260040161027490612e6b565b60405180910390fd5b60026001819055506102903383836106b6565b600180819055505050565b60606102a682610be8565b9050919050565b600260015414156102f3576040517f08c379a00000000000000000000000000000000000000000000000000000000081526004016102ea90612e6b565b60405180910390fd5b6002600181905550610306338383610c7f565b600180819055505050565b60026001541415610357576040517f08c379a000000000000000000000000000000000000000000000000000000000815260040161034e90612e6b565b60405180910390fd5b600260018190555061036e3387878787878761104d565b60018081905550505050505050565b600260015414156103c3576040517f08c379a00000000000000000000000000000000000000000000000000000000081526004016103ba90612e6b565b60405180910390fd5b60026001819055506103d53382611839565b6001808190555050565b6103e7611f1b565b73ffffffffffffffffffffffffffffffffffffffff16610405610553565b73ffffffffffffffffffffffffffffffffffffffff161461045b576040517f08c379a000000000000000000000000000000000000000000000000000000000815260040161045290612dcb565b60405180910390fd5b6104656000611f23565b565b6060610471611fe7565b905090565b600260015414156104bc576040517f08c379a00000000000000000000000000000000000000000000000000000000081526004016104b390612e6b565b60405180910390fd5b60026001819055506104cc611f1b565b73ffffffffffffffffffffffffffffffffffffffff166104ea610553565b73ffffffffffffffffffffffffffffffffffffffff1614610540576040517f08c379a000000000000000000000000000000000000000000000000000000000815260040161053790612dcb565b60405180910390fd5b61054981612075565b6001808190555050565b60008060009054906101000a900473ffffffffffffffffffffffffffffffffffffffff16905090565b61058461252a565b61058e83836121e2565b905092915050565b60006105a18261238c565b9050919050565b6105b0611f1b565b73ffffffffffffffffffffffffffffffffffffffff166105ce610553565b73ffffffffffffffffffffffffffffffffffffffff1614610624576040517f08c379a000000000000000000000000000000000000000000000000000000000815260040161061b90612dcb565b60405180910390fd5b600073ffffffffffffffffffffffffffffffffffffffff168173ffffffffffffffffffffffffffffffffffffffff161415610694576040517f08c379a000000000000000000000000000000000000000000000000000000000815260040161068b90612d0b565b60405180910390fd5b61069d81611f23565b50565b6001816000016000828254019250508190555050565b82828173ffffffffffffffffffffffffffffffffffffffff166106d983836121e2565b6020015173ffffffffffffffffffffffffffffffffffffffff1614610733576040517f08c379a000000000000000000000000000000000000000000000000000000000815260040161072a90612d4b565b60405180910390fd5b60008311610776576040517f08c379a000000000000000000000000000000000000000000000000000000000815260040161076d90612e0b565b60405180910390fd5b8261078186866121e2565b6040015173ffffffffffffffffffffffffffffffffffffffff166370a08231876040518263ffffffff1660e01b81526004016107bd9190612bc8565b60206040518083038186803b1580156107d557600080fd5b505afa1580156107e9573d6000803e3d6000fd5b505050506040513d601f19601f8201168201806040525081019061080d9190612760565b101561084e576040517f08c379a000000000000000000000000000000000000000000000000000000000815260040161084590612d2b565b60405180910390fd5b8261085986866121e2565b6040015173ffffffffffffffffffffffffffffffffffffffff1663dd62ed3e87306040518363ffffffff1660e01b8152600401610897929190612be3565b60206040518083038186803b1580156108af57600080fd5b505afa1580156108c3573d6000803e3d6000fd5b505050506040513d601f19601f820116820180604052508101906108e79190612760565b1015610928576040517f08c379a000000000000000000000000000000000000000000000000000000000815260040161091f90612e4b565b60405180910390fd5b600061093486866121e2565b6040015173ffffffffffffffffffffffffffffffffffffffff166370a08231306040518263ffffffff1660e01b81526004016109709190612bc8565b60206040518083038186803b15801561098857600080fd5b505afa15801561099c573d6000803e3d6000fd5b505050506040513d601f19601f820116820180604052508101906109c09190612760565b90506109cc86866121e2565b6040015173ffffffffffffffffffffffffffffffffffffffff166323b872dd8730876040518463ffffffff1660e01b8152600401610a0c93929190612c0c565b602060405180830381600087803b158015610a2657600080fd5b505af1158015610a3a573d6000803e3d6000fd5b505050506040513d601f19601f82011682018060405250810190610a5e9190612706565b50610a6986866121e2565b6040015173ffffffffffffffffffffffffffffffffffffffff166370a08231306040518263ffffffff1660e01b8152600401610aa59190612bc8565b60206040518083038186803b158015610abd57600080fd5b505afa158015610ad1573d6000803e3d6000fd5b505050506040513d601f19601f82011682018060405250810190610af59190612760565b8482610b019190612fb8565b14610b0b57600080fd5b83600560008873ffffffffffffffffffffffffffffffffffffffff1673ffffffffffffffffffffffffffffffffffffffff16815260200190815260200160002060008781526020019081526020016000206003016000828254610b6e9190612fb8565b92505081905550610b7f86866121e2565b6060015184610b8e88886121e2565b60600151610b9c919061300e565b7f70b5eec6cec01e52d9243bac64c12e4fd128a2f20105af16919ae212e224fc65610bc789896121e2565b60000151604051610bd89190612ec7565b60405180910390a3505050505050565b6060600660008373ffffffffffffffffffffffffffffffffffffffff1673ffffffffffffffffffffffffffffffffffffffff168152602001908152602001600020805480602002602001604051908101604052809291908181526020018280548015610c7357602002820191906000526020600020905b815481526020019060010190808311610c5f575b50505050509050919050565b82828173ffffffffffffffffffffffffffffffffffffffff16610ca283836121e2565b6020015173ffffffffffffffffffffffffffffffffffffffff1614610cfc576040517f08c379a0000000000000000000000000000000000000000000000000000000008152600401610cf390612d4b565b60405180910390fd5b60008311610d3f576040517f08c379a0000000000000000000000000000000000000000000000000000000008152600401610d3690612e0b565b60405180910390fd5b82610d4a86866121e2565b606001511015610d8f576040517f08c379a0000000000000000000000000000000000000000000000000000000008152600401610d8690612ccb565b60405180910390fd5b82600560008773ffffffffffffffffffffffffffffffffffffffff1673ffffffffffffffffffffffffffffffffffffffff16815260200190815260200160002060008681526020019081526020016000206003016000828254610df2919061300e565b925050819055506000610e0586866121e2565b6040015173ffffffffffffffffffffffffffffffffffffffff166370a08231306040518263ffffffff1660e01b8152600401610e419190612bc8565b60206040518083038186803b158015610e5957600080fd5b505afa158015610e6d573d6000803e3d6000fd5b505050506040513d601f19601f82011682018060405250810190610e919190612760565b9050610e9d86866121e2565b6040015173ffffffffffffffffffffffffffffffffffffffff1663a9059cbb87866040518363ffffffff1660e01b8152600401610edb929190612c43565b602060405180830381600087803b158015610ef557600080fd5b505af1158015610f09573d6000803e3d6000fd5b505050506040513d601f19601f82011682018060405250810190610f2d9190612706565b50610f3886866121e2565b6040015173ffffffffffffffffffffffffffffffffffffffff166370a08231306040518263ffffffff1660e01b8152600401610f749190612bc8565b60206040518083038186803b158015610f8c57600080fd5b505afa158015610fa0573d6000803e3d6000fd5b505050506040513d601f19601f82011682018060405250810190610fc49190612760565b8482610fd0919061300e565b14610fda57600080fd5b610fe486866121e2565b6060015184610ff388886121e2565b606001516110019190612fb8565b7f510055a9c40582bc6ad0cab1e5b0421194c4d34435a16960ec71333bf8bc70cf61102c89896121e2565b6000015160405161103d9190612ec7565b60405180910390a3505050505050565b600073ffffffffffffffffffffffffffffffffffffffff168773ffffffffffffffffffffffffffffffffffffffff1614156110bd576040517f08c379a00000000000000000000000000000000000000000000000000000000081526004016110b490612d6b565b60405180910390fd5b6110c68661238c565b611105576040517f08c379a00000000000000000000000000000000000000000000000000000000081526004016110fc90612ceb565b60405180910390fd5b61110e8161238c565b61114d576040517f08c379a000000000000000000000000000000000000000000000000000000000815260040161114490612d8b565b60405180910390fd5b848673ffffffffffffffffffffffffffffffffffffffff166370a08231896040518263ffffffff1660e01b81526004016111879190612bc8565b60206040518083038186803b15801561119f57600080fd5b505afa1580156111b3573d6000803e3d6000fd5b505050506040513d601f19601f820116820180604052508101906111d79190612760565b1015611218576040517f08c379a000000000000000000000000000000000000000000000000000000000815260040161120f90612d2b565b60405180910390fd5b848673ffffffffffffffffffffffffffffffffffffffff1663dd62ed3e89306040518363ffffffff1660e01b8152600401611254929190612be3565b60206040518083038186803b15801561126c57600080fd5b505afa158015611280573d6000803e3d6000fd5b505050506040513d601f19601f820116820180604052508101906112a49190612760565b10156112e5576040517f08c379a00000000000000000000000000000000000000000000000000000000081526004016112dc90612e4b565b60405180910390fd5b60008311611328576040517f08c379a000000000000000000000000000000000000000000000000000000000815260040161131f90612e2b565b60405180910390fd5b60045482101561136d576040517f08c379a000000000000000000000000000000000000000000000000000000000815260040161136490612deb565b60405180910390fd5b60008673ffffffffffffffffffffffffffffffffffffffff166370a08231306040518263ffffffff1660e01b81526004016113a89190612bc8565b60206040518083038186803b1580156113c057600080fd5b505afa1580156113d4573d6000803e3d6000fd5b505050506040513d601f19601f820116820180604052508101906113f89190612760565b90508673ffffffffffffffffffffffffffffffffffffffff166323b872dd8930896040518463ffffffff1660e01b815260040161143793929190612c0c565b602060405180830381600087803b15801561145157600080fd5b505af1158015611465573d6000803e3d6000fd5b505050506040513d601f19601f820116820180604052508101906114899190612706565b508673ffffffffffffffffffffffffffffffffffffffff166370a08231306040518263ffffffff1660e01b81526004016114c39190612bc8565b60206040518083038186803b1580156114db57600080fd5b505afa1580156114ef573d6000803e3d6000fd5b505050506040513d601f19601f820116820180604052508101906115139190612760565b868261151f9190612fb8565b1461152957600080fd5b6000604051806101200160405280611541600261243b565b81526020018a73ffffffffffffffffffffffffffffffffffffffff1681526020018973ffffffffffffffffffffffffffffffffffffffff1681526020018881526020018781526020018681526020018581526020018473ffffffffffffffffffffffffffffffffffffffff1681526020016000815250905080600560008b73ffffffffffffffffffffffffffffffffffffffff1673ffffffffffffffffffffffffffffffffffffffff1681526020019081526020016000206000611605600261243b565b81526020019081526020016000206000820151816000015560208201518160010160006101000a81548173ffffffffffffffffffffffffffffffffffffffff021916908373ffffffffffffffffffffffffffffffffffffffff16021790555060408201518160020160006101000a81548173ffffffffffffffffffffffffffffffffffffffff021916908373ffffffffffffffffffffffffffffffffffffffff160217905550606082015181600301556080820151816004015560a0820151816005015560c0820151816006015560e08201518160070160006101000a81548173ffffffffffffffffffffffffffffffffffffffff021916908373ffffffffffffffffffffffffffffffffffffffff16021790555061010082015181600801559050508273ffffffffffffffffffffffffffffffffffffffff168873ffffffffffffffffffffffffffffffffffffffff168a73ffffffffffffffffffffffffffffffffffffffff167f73ccc975565e11201f9228f86b04c2090d856488dd73ce7f1b63b9609708ee47611798600261243b565b8b8b8b8b6040516117ad959493929190612ee2565b60405180910390a4600660008a73ffffffffffffffffffffffffffffffffffffffff1673ffffffffffffffffffffffffffffffffffffffff1681526020019081526020016000206117fe600261243b565b908060018154018082558091505060019003906000526020600020016000909190919091505561182e60026106a0565b505050505050505050565b81818173ffffffffffffffffffffffffffffffffffffffff1661185c83836121e2565b6020015173ffffffffffffffffffffffffffffffffffffffff16146118b6576040517f08c379a00000000000000000000000000000000000000000000000000000000081526004016118ad90612d4b565b60405180910390fd5b60006118c285856121e2565b610100015114611907576040517f08c379a00000000000000000000000000000000000000000000000000000000081526004016118fe90612e8b565b60405180910390fd5b6000600560008673ffffffffffffffffffffffffffffffffffffffff1673ffffffffffffffffffffffffffffffffffffffff16815260200190815260200160002060008581526020019081526020016000206003015490506000600560008773ffffffffffffffffffffffffffffffffffffffff1673ffffffffffffffffffffffffffffffffffffffff1681526020019081526020016000206000868152602001908152602001600020600001549050600560008773ffffffffffffffffffffffffffffffffffffffff1673ffffffffffffffffffffffffffffffffffffffff16815260200190815260200160002060008681526020019081526020016000206000808201600090556001820160006101000a81549073ffffffffffffffffffffffffffffffffffffffff02191690556002820160006101000a81549073ffffffffffffffffffffffffffffffffffffffff021916905560038201600090556004820160009055600582016000905560068201600090556007820160006101000a81549073ffffffffffffffffffffffffffffffffffffffff0219169055600882016000905550506000600660008873ffffffffffffffffffffffffffffffffffffffff1673ffffffffffffffffffffffffffffffffffffffff168152602001908152602001600020805490501115611c8757600080611b078884612449565b915091508015611c8057600660008973ffffffffffffffffffffffffffffffffffffffff1673ffffffffffffffffffffffffffffffffffffffff1681526020019081526020016000206001600660008b73ffffffffffffffffffffffffffffffffffffffff1673ffffffffffffffffffffffffffffffffffffffff16815260200190815260200160002080549050611b9f919061300e565b81548110611bb057611baf613131565b5b9060005260206000200154600660008a73ffffffffffffffffffffffffffffffffffffffff1673ffffffffffffffffffffffffffffffffffffffff1681526020019081526020016000208381548110611c0c57611c0b613131565b5b9060005260206000200181905550600660008973ffffffffffffffffffffffffffffffffffffffff1673ffffffffffffffffffffffffffffffffffffffff168152602001908152602001600020805480611c6957611c68613102565b5b600190038181906000526020600020016000905590555b5050611ced565b600660008773ffffffffffffffffffffffffffffffffffffffff1673ffffffffffffffffffffffffffffffffffffffff168152602001908152602001600020805480611cd657611cd5613102565b5b600190038181906000526020600020016000905590555b6000611cf987876121e2565b6040015173ffffffffffffffffffffffffffffffffffffffff166370a08231306040518263ffffffff1660e01b8152600401611d359190612bc8565b60206040518083038186803b158015611d4d57600080fd5b505afa158015611d61573d6000803e3d6000fd5b505050506040513d601f19601f82011682018060405250810190611d859190612760565b9050611d9187876121e2565b6040015173ffffffffffffffffffffffffffffffffffffffff1663a9059cbb88856040518363ffffffff1660e01b8152600401611dcf929190612c43565b602060405180830381600087803b158015611de957600080fd5b505af1158015611dfd573d6000803e3d6000fd5b505050506040513d601f19601f82011682018060405250810190611e219190612706565b50611e2c87876121e2565b6040015173ffffffffffffffffffffffffffffffffffffffff166370a08231306040518263ffffffff1660e01b8152600401611e689190612bc8565b60206040518083038186803b158015611e8057600080fd5b505afa158015611e94573d6000803e3d6000fd5b505050506040513d601f19601f82011682018060405250810190611eb89190612760565b8382611ec4919061300e565b14611ece57600080fd5b818773ffffffffffffffffffffffffffffffffffffffff167ffd6e81c22721a918c2e59966d2b020f6ccf1fe46d783cc4053c75c1a9fa837f060405160405180910390a350505050505050565b600033905090565b60008060009054906101000a900473ffffffffffffffffffffffffffffffffffffffff169050816000806101000a81548173ffffffffffffffffffffffffffffffffffffffff021916908373ffffffffffffffffffffffffffffffffffffffff1602179055508173ffffffffffffffffffffffffffffffffffffffff168173ffffffffffffffffffffffffffffffffffffffff167f8be0079c531659141344cd1fd0a4f28419497f9722a3daafe3b4186f6b6457e060405160405180910390a35050565b6060600380548060200260200160405190810160405280929190818152602001828054801561206b57602002820191906000526020600020905b8160009054906101000a900473ffffffffffffffffffffffffffffffffffffffff1673ffffffffffffffffffffffffffffffffffffffff1681526020019060010190808311612021575b5050505050905090565b600073ffffffffffffffffffffffffffffffffffffffff168173ffffffffffffffffffffffffffffffffffffffff1614156120e5576040517f08c379a00000000000000000000000000000000000000000000000000000000081526004016120dc90612d6b565b60405180910390fd5b6120ee8161238c565b1561212e576040517f08c379a000000000000000000000000000000000000000000000000000000000815260040161212590612dab565b60405180910390fd5b6003819080600181540180825580915050600190039060005260206000200160009091909190916101000a81548173ffffffffffffffffffffffffffffffffffffffff021916908373ffffffffffffffffffffffffffffffffffffffff1602179055508073ffffffffffffffffffffffffffffffffffffffff167f1406601fca80ce2dde347c6c1c000309440d0365c2b5786f1608d7b1e76dd12d426040516121d79190612ec7565b60405180910390a250565b6121ea61252a565b600560008473ffffffffffffffffffffffffffffffffffffffff1673ffffffffffffffffffffffffffffffffffffffff168152602001908152602001600020600083815260200190815260200160002060405180610120016040529081600082015481526020016001820160009054906101000a900473ffffffffffffffffffffffffffffffffffffffff1673ffffffffffffffffffffffffffffffffffffffff1673ffffffffffffffffffffffffffffffffffffffff1681526020016002820160009054906101000a900473ffffffffffffffffffffffffffffffffffffffff1673ffffffffffffffffffffffffffffffffffffffff1673ffffffffffffffffffffffffffffffffffffffff168152602001600382015481526020016004820154815260200160058201548152602001600682015481526020016007820160009054906101000a900473ffffffffffffffffffffffffffffffffffffffff1673ffffffffffffffffffffffffffffffffffffffff1673ffffffffffffffffffffffffffffffffffffffff168152602001600882015481525050905092915050565b600080600090505b600380549050811015612430578273ffffffffffffffffffffffffffffffffffffffff16600382815481106123cc576123cb613131565b5b9060005260206000200160009054906101000a900473ffffffffffffffffffffffffffffffffffffffff1673ffffffffffffffffffffffffffffffffffffffff16141561241d576001915050612436565b80806124289061308a565b915050612394565b50600090505b919050565b600081600001549050919050565b60008060008060005b600660008873ffffffffffffffffffffffffffffffffffffffff1673ffffffffffffffffffffffffffffffffffffffff1681526020019081526020016000208054905081101561251a57600660008873ffffffffffffffffffffffffffffffffffffffff1673ffffffffffffffffffffffffffffffffffffffff16815260200190815260200160002081815481106124ed576124ec613131565b5b906000526020600020015486141561250757809250600191505b80806125129061308a565b915050612452565b5081819350935050509250929050565b60405180610120016040528060008152602001600073ffffffffffffffffffffffffffffffffffffffff168152602001600073ffffffffffffffffffffffffffffffffffffffff16815260200160008152602001600081526020016000815260200160008152602001600073ffffffffffffffffffffffffffffffffffffffff168152602001600081525090565b6000813590506125c781613418565b92915050565b6000815190506125dc8161342f565b92915050565b6000813590506125f181613446565b92915050565b60008151905061260681613446565b92915050565b60006020828403121561262257612621613160565b5b6000612630848285016125b8565b91505092915050565b600080604083850312156126505761264f613160565b5b600061265e858286016125b8565b925050602061266f858286016125e2565b9150509250929050565b60008060008060008060c0878903121561269657612695613160565b5b60006126a489828a016125b8565b96505060206126b589828a016125e2565b95505060406126c689828a016125e2565b94505060606126d789828a016125e2565b93505060806126e889828a016125e2565b92505060a06126f989828a016125b8565b9150509295509295509295565b60006020828403121561271c5761271b613160565b5b600061272a848285016125cd565b91505092915050565b60006020828403121561274957612748613160565b5b6000612757848285016125e2565b91505092915050565b60006020828403121561277657612775613160565b5b6000612784848285016125f7565b91505092915050565b600080604083850312156127a4576127a3613160565b5b60006127b2858286016125e2565b92505060206127c3858286016125e2565b9150509250929050565b60006127d983836127fd565b60208301905092915050565b60006127f18383612baa565b60208301905092915050565b61280681613042565b82525050565b61281581613042565b82525050565b600061282682612f55565b6128308185612f85565b935061283b83612f35565b8060005b8381101561286c57815161285388826127cd565b975061285e83612f6b565b92505060018101905061283f565b5085935050505092915050565b600061288482612f60565b61288e8185612f96565b935061289983612f45565b8060005b838110156128ca5781516128b188826127e5565b97506128bc83612f78565b92505060018101905061289d565b5085935050505092915050565b6128e081613054565b82525050565b60006128f3602f83612fa7565b91506128fe82613165565b604082019050919050565b6000612916601183612fa7565b9150612921826131b4565b602082019050919050565b6000612939602683612fa7565b9150612944826131dd565b604082019050919050565b600061295c601083612fa7565b91506129678261322c565b602082019050919050565b600061297f601783612fa7565b915061298a82613255565b602082019050919050565b60006129a2600f83612fa7565b91506129ad8261327e565b602082019050919050565b60006129c5601683612fa7565b91506129d0826132a7565b602082019050919050565b60006129e8601683612fa7565b91506129f3826132d0565b602082019050919050565b6000612a0b602083612fa7565b9150612a16826132f9565b602082019050919050565b6000612a2e601b83612fa7565b9150612a3982613322565b602082019050919050565b6000612a51601683612fa7565b9150612a5c8261334b565b602082019050919050565b6000612a74601b83612fa7565b9150612a7f82613374565b602082019050919050565b6000612a97601183612fa7565b9150612aa28261339d565b602082019050919050565b6000612aba601f83612fa7565b9150612ac5826133c6565b602082019050919050565b6000612add601d83612fa7565b9150612ae8826133ef565b602082019050919050565b61012082016000820151612b0a6000850182612baa565b506020820151612b1d60208501826127fd565b506040820151612b3060408501826127fd565b506060820151612b436060850182612baa565b506080820151612b566080850182612baa565b5060a0820151612b6960a0850182612baa565b5060c0820151612b7c60c0850182612baa565b5060e0820151612b8f60e08501826127fd565b50610100820151612ba4610100850182612baa565b50505050565b612bb381613080565b82525050565b612bc281613080565b82525050565b6000602082019050612bdd600083018461280c565b92915050565b6000604082019050612bf8600083018561280c565b612c05602083018461280c565b9392505050565b6000606082019050612c21600083018661280c565b612c2e602083018561280c565b612c3b6040830184612bb9565b949350505050565b6000604082019050612c58600083018561280c565b612c656020830184612bb9565b9392505050565b60006020820190508181036000830152612c86818461281b565b905092915050565b60006020820190508181036000830152612ca88184612879565b905092915050565b6000602082019050612cc560008301846128d7565b92915050565b60006020820190508181036000830152612ce4816128e6565b9050919050565b60006020820190508181036000830152612d0481612909565b9050919050565b60006020820190508181036000830152612d248161292c565b9050919050565b60006020820190508181036000830152612d448161294f565b9050919050565b60006020820190508181036000830152612d6481612972565b9050919050565b60006020820190508181036000830152612d8481612995565b9050919050565b60006020820190508181036000830152612da4816129b8565b9050919050565b60006020820190508181036000830152612dc4816129db565b9050919050565b60006020820190508181036000830152612de4816129fe565b9050919050565b60006020820190508181036000830152612e0481612a21565b9050919050565b60006020820190508181036000830152612e2481612a44565b9050919050565b60006020820190508181036000830152612e4481612a67565b9050919050565b60006020820190508181036000830152612e6481612a8a565b9050919050565b60006020820190508181036000830152612e8481612aad565b9050919050565b60006020820190508181036000830152612ea481612ad0565b9050919050565b600061012082019050612ec16000830184612af3565b92915050565b6000602082019050612edc6000830184612bb9565b92915050565b600060a082019050612ef76000830188612bb9565b612f046020830187612bb9565b612f116040830186612bb9565b612f1e6060830185612bb9565b612f2b6080830184612bb9565b9695505050505050565b6000819050602082019050919050565b6000819050602082019050919050565b600081519050919050565b600081519050919050565b6000602082019050919050565b6000602082019050919050565b600082825260208201905092915050565b600082825260208201905092915050565b600082825260208201905092915050565b6000612fc382613080565b9150612fce83613080565b9250827fffffffffffffffffffffffffffffffffffffffffffffffffffffffffffffffff03821115613003576130026130d3565b5b828201905092915050565b600061301982613080565b915061302483613080565b925082821015613037576130366130d3565b5b828203905092915050565b600061304d82613060565b9050919050565b60008115159050919050565b600073ffffffffffffffffffffffffffffffffffffffff82169050919050565b6000819050919050565b600061309582613080565b91507fffffffffffffffffffffffffffffffffffffffffffffffffffffffffffffffff8214156130c8576130c76130d3565b5b600182019050919050565b7f4e487b7100000000000000000000000000000000000000000000000000000000600052601160045260246000fd5b7f4e487b7100000000000000000000000000000000000000000000000000000000600052603160045260246000fd5b7f4e487b7100000000000000000000000000000000000000000000000000000000600052603260045260246000fd5b600080fd5b7f41737365747420617676616c69626c6520696e73756666696369656e7420666f60008201527f72207468696f732077686964726f770000000000000000000000000000000000602082015250565b7f617373657420646f6e277420666f756e64000000000000000000000000000000600082015250565b7f4f776e61626c653a206e6577206f776e657220697320746865207a65726f206160008201527f6464726573730000000000000000000000000000000000000000000000000000602082015250565b7f62616c616e63652075736572206c6f7700000000000000000000000000000000600082015250565b7f4e6f74206f776e6572207468697320636f6e7472616374000000000000000000600082015250565b7f696e76616c696420616464726573730000000000000000000000000000000000600082015250565b7f636f6c6c61746572616c20646f6e277420666f756e6400000000000000000000600082015250565b7f41737365747420616c726561647920696e206c69737400000000000000000000600082015250565b7f4f776e61626c653a2063616c6c6572206973206e6f7420746865206f776e6572600082015250565b7f70656e616c697479206d75737420686176652067656174656520300000000000600082015250565b7f696e6372656173206d75737420626520706c7573203000000000000000000000600082015250565b7f646561646c696e65206d75737420686176652067656174656520300000000000600082015250565b7f616c6f77616e63652075736572206c6f77000000000000000000000000000000600082015250565b7f5265656e7472616e637947756172643a207265656e7472616e742063616c6c00600082015250565b7f436f6e7472616374206861766520617373657420696e20626f72726f77000000600082015250565b61342181613042565b811461342c57600080fd5b50565b61343881613054565b811461344357600080fd5b50565b61344f81613080565b811461345a57600080fd5b5056fea2646970667358221220c45be9c286d551190a894719eef54d39071add96e1cb396fe17da0029fab5f5264736f6c63430008070033",
  "immutableReferences": {},
  "source": "// SPDX-License-Identifier: Leluk911\n\npragma solidity 0.8.7;\n\nimport \"../node_modules/@openzeppelin/contracts/token/ERC20/IERC20.sol\";\nimport \"../node_modules/@openzeppelin/contracts/access/Ownable.sol\";\nimport \"../node_modules/@openzeppelin/contracts/utils/Counters.sol\";\nimport \"../node_modules/@openzeppelin/contracts/security/ReentrancyGuard.sol\";\n\ncontract lendingPage is Ownable,ReentrancyGuard {\n    //library\n    using Counters for Counters.Counter;\n    //function variable\n    Counters.Counter private Id; // id every lending contract\n    address[] private assetAvvalible; // asset add from Owner (only asset present in chainLink oracle)\n    uint private minPenality;\n    // User\n    struct LendingContract {\n        uint id;\n        address owner;\n        address asset;\n        //uint amount;\n        uint amountAvvalible;\n        uint apr;\n        uint deadline;\n        uint penality;\n        address collateral;\n        uint _amountBorrow;\n    }\n    mapping(address => mapping(uint=>LendingContract)) private userLendingContract;\n    mapping(address => uint[])listContractUser;\n    //-------------------------------//\n    constructor(uint _minpenality) Ownable() ReentrancyGuard(){\n        Id.increment();\n        minPenality = _minpenality;\n    }\n    // INTERNAL FUNCTION \n    function _setAssettAvvalible(address _newAsset) internal{\n        require(_newAsset != address(0), \"invalid address\");\n        require(!_findAsset(_newAsset),\"Assett already in list\");\n        assetAvvalible.push(_newAsset);\n        emit NewAssetAvvalible(_newAsset, block.timestamp);   \n    }\n    //-----> Serch function \n    \n    function _findAsset(address _asset) internal view returns(bool){\n        for(uint i = 0; i<assetAvvalible.length; i++){\n            if(assetAvvalible[i]==_asset){\n                return true;\n            }\n        }\n        return false;\n    }\n\n    function _getAssettAvvalible()internal view returns (address[] memory ){\n        return assetAvvalible; \n    }\n \n    //-----> Search function user \n    function _listContractXuser(address _user) internal view returns(uint[] memory){\n       return listContractUser[_user];\n    }\n     function _findContractLending(address _to,uint _id)internal view returns(LendingContract memory){\n        return userLendingContract[_to][_id];\n    }\n     function _findArrayindexContract(address _to,uint deleteId)internal view returns(uint,bool){\n            uint index = 0;\n            bool response = false;\n            for(uint i=0 ;i<listContractUser[_to].length;i++){\n                if (deleteId == listContractUser[_to][i]){\n                    index = i;\n                    response = true;\n                }\n            }\n            return (index,response);\n        \n    }\n    // ----> User Function\n\n    function _deposit(address _to,address _asset,uint _amount,uint _apr,uint _deadline,uint _penality,address _collateral)internal {\n        //check\n        require(_to != address(0), \"invalid address\");\n        require(_findAsset(_asset),\"asset don't found\");\n        require(_findAsset(_collateral),\"collateral don't found\");\n        require(IERC20(_asset).balanceOf(_to) >= _amount,\"balance user low\");\n        require(IERC20(_asset).allowance(_to, address(this)) >= _amount,\"alowance user low\");\n        require(_deadline > 0,\"deadline must have geatee 0\");\n        require(_penality >=  minPenality,\"penality must have geatee 0\");    \n        // action\n        uint balanceContract = IERC20(_asset).balanceOf(address(this)); \n        IERC20(_asset).transferFrom(_to,address(this), _amount);\n        require(balanceContract+_amount == IERC20(_asset).balanceOf(address(this)));\n        // prepare local variable\n        LendingContract memory newContract= LendingContract(\n            Id.current(),\n            _to,\n            _asset,\n            //_amount,\n            _amount,\n            _apr,\n            _deadline,\n            _penality,\n            _collateral,\n            0\n        );\n        // update status global variable\n        userLendingContract[_to][Id.current()] = newContract;\n        emit NewContractDeposit(\n            Id.current(),_to,_asset,_amount,_apr,_deadline,_penality, _collateral\n        );\n        listContractUser[_to].push(Id.current());\n        Id.increment();\n\n\n    }\n\n\n    function _increasDeposit(address _to,uint _idContract, uint _increasAmount) internal  contractOwner(_to, _idContract){\n        require(_increasAmount > 0, \"increas must be plus 0\");\n        require(IERC20(_findContractLending(_to,_idContract).asset).balanceOf(_to) >= _increasAmount,\"balance user low\");\n        require(IERC20(_findContractLending(_to,_idContract).asset).allowance(_to, address(this)) >= _increasAmount,\"alowance user low\");\n        \n        uint balanceContract = IERC20(_findContractLending(_to,_idContract).asset).balanceOf(address(this)); \n        IERC20(_findContractLending(_to,_idContract).asset).transferFrom(_to,address(this), _increasAmount);\n        require(balanceContract+_increasAmount == IERC20(_findContractLending(_to,_idContract).asset).balanceOf(address(this)));\n\n        userLendingContract[_to][_idContract].amountAvvalible += _increasAmount; \n\n        emit IncreasContractDeposit(\n            _findContractLending(_to,_idContract).id,\n            _findContractLending(_to,_idContract).amountAvvalible - _increasAmount,\n            _findContractLending(_to,_idContract).amountAvvalible  \n        );\n    }\n    function _decreasDeposit(address _to,uint _idContract, uint _decreasAmount) internal contractOwner(_to, _idContract){\n        require(_decreasAmount > 0, \"increas must be plus 0\");\n        require(\n            _findContractLending(_to,_idContract).amountAvvalible >= _decreasAmount, \"Assett avvalible insufficient for thios whidrow\"\n        );\n\n        userLendingContract[_to][_idContract].amountAvvalible -= _decreasAmount;\n\n        uint balanceContract = IERC20(_findContractLending(_to,_idContract).asset).balanceOf(address(this)); \n        IERC20(_findContractLending(_to,_idContract).asset).transfer(_to,_decreasAmount);\n        require(balanceContract -_decreasAmount == IERC20(_findContractLending(_to,_idContract).asset).balanceOf(address(this)));\n\n        emit DecreasContractDeposit(\n            _findContractLending(_to,_idContract).id,\n            _findContractLending(_to,_idContract).amountAvvalible + _decreasAmount,\n            _findContractLending(_to,_idContract).amountAvvalible\n            \n        );\n\n    }\n    function _deleteContract(address _to,uint _idContract)internal contractOwner(_to, _idContract){\n       require(\n            _findContractLending(_to,_idContract)._amountBorrow == 0, \"Contract have asset in borrow\"\n        ); \n        uint amountRepay = userLendingContract[_to][_idContract].amountAvvalible;\n        uint deleteId = userLendingContract[_to][_idContract].id;\n        delete userLendingContract[_to][_idContract];\n        if(listContractUser[_to].length > 0){\n             // serch index of delete\n            (uint indexDelete, bool response) = _findArrayindexContract(_to, deleteId);\n            if(response){\n                //clean array\n                listContractUser[_to][indexDelete]=listContractUser[_to][listContractUser[_to].length -1];\n                listContractUser[_to].pop();\n            }\n        }else{\n            listContractUser[_to].pop(); // clean array\n        }\n        uint balanceContract = IERC20(_findContractLending(_to,_idContract).asset).balanceOf(address(this)); \n        IERC20(_findContractLending(_to,_idContract).asset).transfer(_to,amountRepay);\n        require(balanceContract -amountRepay == IERC20(_findContractLending(_to,_idContract).asset).balanceOf(address(this)));\n\n        emit DeleteContractDeposit(_to, deleteId);\n\n\n    }\n\n   \n    // EVENT \n\n     event NewAssetAvvalible(address indexed asset, uint timeStart);\n     event NewContractDeposit(\n        uint Id,\n        address indexed owner,\n        address indexed asset,\n        uint amount,\n        uint apr,\n        uint  deadline,\n        uint  penality,\n        address indexed collateral\n     );\n     event IncreasContractDeposit(\n        uint Id,\n        uint indexed amount,\n        uint indexed newAmount\n     );\n     event DecreasContractDeposit(\n        uint Id,\n        uint indexed amount,\n        uint indexed newAmount\n     );\n\n     event DeleteContractDeposit(\n        address indexed owner,\n        uint indexed id\n     );\n\n    // EXTERNAL FUNCTION\n    function setAssettAvvalible(address _newAsset) external nonReentrant() onlyOwner() {\n        _setAssettAvvalible(_newAsset);\n    } \n    function findAsset(address _asset) external view returns(bool){\n        return _findAsset(_asset);\n    }\n    function deposit(address _asset,uint _amount,uint _apr,uint _deadline,uint _penality,address _collateral) external nonReentrant() {\n        _deposit(msg.sender, _asset, _amount, _apr, _deadline, _penality, _collateral);\n    }\n    function listContractXuser(address _user) external view returns(uint[] memory){\n        return _listContractXuser(_user);\n    }\n    function getAssettAvvalible()external view returns (address[] memory ){\n        return _getAssettAvvalible(); \n    }\n    function findContractLending(address _to,uint _id)external view returns(LendingContract memory){\n        return _findContractLending(_to, _id);\n    }\n    //// ^^^^^TESTED^^^^^\n    /// vvvvvvNON TESTEDvvvvv\n     function increasDeposit(uint _idContract, uint _increasAmount) external nonReentrant(){\n        _increasDeposit(msg.sender, _idContract, _increasAmount);\n    }\n    function decreasDeposit(uint _idContract, uint _decreasAmount) external nonReentrant(){\n        _decreasDeposit(msg.sender, _idContract, _decreasAmount);\n    }\n    function deleteContract(uint _idContract) external nonReentrant(){\n        _deleteContract(msg.sender, _idContract);\n    }\n\n\n    // MODIFIER\n\n    modifier contractOwner(address _to,uint _idContract){\n        require(\n           _findContractLending(_to,_idContract).owner == _to, \"Not owner this contract\" \n        );\n        _;\n    }\n\n\n \n\n\n\n    \n}\n\n\n/**\n nonReentrant()\n onlyOwner()\n \n\n\n // REMEBER\n\n --> GESTIRE  \n    A. caso in cui si ripaga il prestito + interessi e si ha un avvalible + alto di amount\n    B. + borrowers x contratto\n    C.  \n \n \n */\n",
  "sourcePath": "/media/leluk/storage/Studio Dev/Dapp portfolio/individual lending/contracts/Individual_lending.sol",
  "compiler": {
    "name": "solc",
    "version": "0.8.7+commit.e28d00a7.Emscripten.clang"
  },
  "schemaVersion": "3.4.7",
  "updatedAt": "2022-06-16T14:36:27.552Z",
  "devdoc": {
    "kind": "dev",
    "methods": {
      "owner()": {
        "details": "Returns the address of the current owner."
      },
      "renounceOwnership()": {
        "details": "Leaves the contract without owner. It will not be possible to call `onlyOwner` functions anymore. Can only be called by the current owner. NOTE: Renouncing ownership will leave the contract without an owner, thereby removing any functionality that is only available to the owner."
      },
      "transferOwnership(address)": {
        "details": "Transfers ownership of the contract to a new account (`newOwner`). Can only be called by the current owner."
      }
    },
    "version": 1
  },
  "userdoc": {
    "kind": "user",
    "methods": {
      "increasDeposit(uint256,uint256)": {
        "notice": "vvvvvvNON TESTEDvvvvv"
      }
    },
    "version": 1
  }
}