{
  "contractName": "lendingPage",
  "abi": [
    {
      "inputs": [
        {
          "internalType": "uint256",
          "name": "_minpenality",
          "type": "uint256"
        }
      ],
      "stateMutability": "nonpayable",
      "type": "constructor"
    },
    {
      "anonymous": false,
      "inputs": [
        {
          "indexed": true,
          "internalType": "address",
          "name": "Borrower",
          "type": "address"
        },
        {
          "indexed": true,
          "internalType": "uint256",
          "name": "Id_Contract",
          "type": "uint256"
        },
        {
          "indexed": false,
          "internalType": "uint256",
          "name": "amount",
          "type": "uint256"
        }
      ],
      "name": "Borrow",
      "type": "event"
    },
    {
      "anonymous": false,
      "inputs": [
        {
          "indexed": false,
          "internalType": "uint256",
          "name": "Id",
          "type": "uint256"
        },
        {
          "indexed": true,
          "internalType": "uint256",
          "name": "amount",
          "type": "uint256"
        },
        {
          "indexed": true,
          "internalType": "uint256",
          "name": "newAmount",
          "type": "uint256"
        }
      ],
      "name": "DecreasContractDeposit",
      "type": "event"
    },
    {
      "anonymous": false,
      "inputs": [
        {
          "indexed": true,
          "internalType": "address",
          "name": "owner",
          "type": "address"
        },
        {
          "indexed": true,
          "internalType": "uint256",
          "name": "id",
          "type": "uint256"
        }
      ],
      "name": "DeleteContractDeposit",
      "type": "event"
    },
    {
      "anonymous": false,
      "inputs": [
        {
          "indexed": false,
          "internalType": "uint256",
          "name": "Id",
          "type": "uint256"
        },
        {
          "indexed": true,
          "internalType": "uint256",
          "name": "amount",
          "type": "uint256"
        },
        {
          "indexed": true,
          "internalType": "uint256",
          "name": "newAmount",
          "type": "uint256"
        }
      ],
      "name": "IncreasContractDeposit",
      "type": "event"
    },
    {
      "anonymous": false,
      "inputs": [
        {
          "indexed": true,
          "internalType": "address",
          "name": "asset",
          "type": "address"
        },
        {
          "indexed": false,
          "internalType": "uint256",
          "name": "timeStart",
          "type": "uint256"
        }
      ],
      "name": "NewAssetAvvalible",
      "type": "event"
    },
    {
      "anonymous": false,
      "inputs": [
        {
          "indexed": false,
          "internalType": "uint256",
          "name": "Id",
          "type": "uint256"
        },
        {
          "indexed": true,
          "internalType": "address",
          "name": "owner",
          "type": "address"
        },
        {
          "indexed": true,
          "internalType": "address",
          "name": "asset",
          "type": "address"
        },
        {
          "indexed": false,
          "internalType": "uint256",
          "name": "amount",
          "type": "uint256"
        },
        {
          "indexed": false,
          "internalType": "uint256",
          "name": "apr",
          "type": "uint256"
        },
        {
          "indexed": false,
          "internalType": "uint256",
          "name": "deadline",
          "type": "uint256"
        },
        {
          "indexed": false,
          "internalType": "uint256",
          "name": "penality",
          "type": "uint256"
        },
        {
          "indexed": true,
          "internalType": "address",
          "name": "collateral",
          "type": "address"
        }
      ],
      "name": "NewContractDeposit",
      "type": "event"
    },
    {
      "anonymous": false,
      "inputs": [
        {
          "indexed": true,
          "internalType": "address",
          "name": "previousOwner",
          "type": "address"
        },
        {
          "indexed": true,
          "internalType": "address",
          "name": "newOwner",
          "type": "address"
        }
      ],
      "name": "OwnershipTransferred",
      "type": "event"
    },
    {
      "inputs": [],
      "name": "owner",
      "outputs": [
        {
          "internalType": "address",
          "name": "",
          "type": "address"
        }
      ],
      "stateMutability": "view",
      "type": "function"
    },
    {
      "inputs": [],
      "name": "renounceOwnership",
      "outputs": [],
      "stateMutability": "nonpayable",
      "type": "function"
    },
    {
      "inputs": [
        {
          "internalType": "address",
          "name": "newOwner",
          "type": "address"
        }
      ],
      "name": "transferOwnership",
      "outputs": [],
      "stateMutability": "nonpayable",
      "type": "function"
    },
    {
      "inputs": [
        {
          "internalType": "address",
          "name": "_newAsset",
          "type": "address"
        }
      ],
      "name": "setAssettAvvalible",
      "outputs": [],
      "stateMutability": "nonpayable",
      "type": "function"
    },
    {
      "inputs": [
        {
          "internalType": "address",
          "name": "_asset",
          "type": "address"
        }
      ],
      "name": "findAsset",
      "outputs": [
        {
          "internalType": "bool",
          "name": "",
          "type": "bool"
        }
      ],
      "stateMutability": "view",
      "type": "function"
    },
    {
      "inputs": [
        {
          "internalType": "address",
          "name": "_asset",
          "type": "address"
        },
        {
          "internalType": "uint256",
          "name": "_amount",
          "type": "uint256"
        },
        {
          "internalType": "uint256",
          "name": "_apr",
          "type": "uint256"
        },
        {
          "internalType": "uint256",
          "name": "_deadline",
          "type": "uint256"
        },
        {
          "internalType": "uint256",
          "name": "_penality",
          "type": "uint256"
        },
        {
          "internalType": "address",
          "name": "_collateral",
          "type": "address"
        },
        {
          "internalType": "uint256",
          "name": "_rateCollateral",
          "type": "uint256"
        }
      ],
      "name": "deposit",
      "outputs": [],
      "stateMutability": "nonpayable",
      "type": "function"
    },
    {
      "inputs": [
        {
          "internalType": "address",
          "name": "_user",
          "type": "address"
        }
      ],
      "name": "listContractXuser",
      "outputs": [
        {
          "internalType": "uint256[]",
          "name": "",
          "type": "uint256[]"
        }
      ],
      "stateMutability": "view",
      "type": "function"
    },
    {
      "inputs": [],
      "name": "getAssettAvvalible",
      "outputs": [
        {
          "internalType": "address[]",
          "name": "",
          "type": "address[]"
        }
      ],
      "stateMutability": "view",
      "type": "function"
    },
    {
      "inputs": [
        {
          "internalType": "address",
          "name": "_to",
          "type": "address"
        },
        {
          "internalType": "uint256",
          "name": "_id",
          "type": "uint256"
        }
      ],
      "name": "findContractLending",
      "outputs": [
        {
          "components": [
            {
              "internalType": "uint256",
              "name": "id",
              "type": "uint256"
            },
            {
              "internalType": "address",
              "name": "owner",
              "type": "address"
            },
            {
              "internalType": "bool",
              "name": "lock",
              "type": "bool"
            },
            {
              "internalType": "address",
              "name": "asset",
              "type": "address"
            },
            {
              "internalType": "uint256",
              "name": "amountAvvalible",
              "type": "uint256"
            },
            {
              "internalType": "uint256",
              "name": "apr",
              "type": "uint256"
            },
            {
              "internalType": "uint256",
              "name": "duration",
              "type": "uint256"
            },
            {
              "internalType": "uint256",
              "name": "penality",
              "type": "uint256"
            },
            {
              "internalType": "address",
              "name": "collateral",
              "type": "address"
            },
            {
              "internalType": "uint256",
              "name": "amountBorrow",
              "type": "uint256"
            },
            {
              "internalType": "uint256",
              "name": "rateCollateral",
              "type": "uint256"
            },
            {
              "internalType": "uint256",
              "name": "amountCollateral",
              "type": "uint256"
            }
          ],
          "internalType": "struct lendingPage.LendingContract",
          "name": "",
          "type": "tuple"
        }
      ],
      "stateMutability": "view",
      "type": "function"
    },
    {
      "inputs": [
        {
          "internalType": "uint256",
          "name": "_idContract",
          "type": "uint256"
        },
        {
          "internalType": "uint256",
          "name": "_increasAmount",
          "type": "uint256"
        }
      ],
      "name": "increasDeposit",
      "outputs": [],
      "stateMutability": "nonpayable",
      "type": "function"
    },
    {
      "inputs": [
        {
          "internalType": "uint256",
          "name": "_idContract",
          "type": "uint256"
        },
        {
          "internalType": "uint256",
          "name": "_decreasAmount",
          "type": "uint256"
        }
      ],
      "name": "decreasDeposit",
      "outputs": [],
      "stateMutability": "nonpayable",
      "type": "function"
    },
    {
      "inputs": [
        {
          "internalType": "uint256",
          "name": "_idContract",
          "type": "uint256"
        }
      ],
      "name": "deleteContract",
      "outputs": [],
      "stateMutability": "nonpayable",
      "type": "function"
    },
    {
      "inputs": [
        {
          "internalType": "uint256",
          "name": "_idContract",
          "type": "uint256"
        },
        {
          "internalType": "address",
          "name": "_lender",
          "type": "address"
        },
        {
          "internalType": "uint256",
          "name": "_amountBorrow",
          "type": "uint256"
        },
        {
          "internalType": "address",
          "name": "_assettCollateral",
          "type": "address"
        },
        {
          "internalType": "uint256",
          "name": "_amountCollateral",
          "type": "uint256"
        }
      ],
      "name": "executeBorrow",
      "outputs": [],
      "stateMutability": "nonpayable",
      "type": "function"
    },
    {
      "inputs": [
        {
          "internalType": "uint256",
          "name": "_idContract",
          "type": "uint256"
        },
        {
          "internalType": "address",
          "name": "_borrower",
          "type": "address"
        }
      ],
      "name": "serchBorrowerPositionXContract",
      "outputs": [
        {
          "components": [
            {
              "internalType": "address",
              "name": "owner",
              "type": "address"
            },
            {
              "internalType": "uint256",
              "name": "idContract",
              "type": "uint256"
            },
            {
              "internalType": "address",
              "name": "assetBorrow",
              "type": "address"
            },
            {
              "internalType": "uint256",
              "name": "ammounBorrow",
              "type": "uint256"
            },
            {
              "internalType": "address",
              "name": "assetCollaterl",
              "type": "address"
            },
            {
              "internalType": "uint256",
              "name": "amountCollateral",
              "type": "uint256"
            },
            {
              "internalType": "uint256",
              "name": "liquidationThreshold",
              "type": "uint256"
            },
            {
              "internalType": "uint256",
              "name": "expiration",
              "type": "uint256"
            },
            {
              "internalType": "uint256",
              "name": "blockStart",
              "type": "uint256"
            },
            {
              "internalType": "uint256",
              "name": "aprLoan",
              "type": "uint256"
            },
            {
              "internalType": "address",
              "name": "lender",
              "type": "address"
            }
          ],
          "internalType": "struct lendingPage.Borrower",
          "name": "",
          "type": "tuple"
        }
      ],
      "stateMutability": "view",
      "type": "function"
    },
    {
      "inputs": [
        {
          "internalType": "uint256",
          "name": "_idContract",
          "type": "uint256"
        },
        {
          "internalType": "address",
          "name": "_borrower",
          "type": "address"
        }
      ],
      "name": "serchIndexBorrowerXContract",
      "outputs": [
        {
          "internalType": "uint256",
          "name": "",
          "type": "uint256"
        }
      ],
      "stateMutability": "view",
      "type": "function"
    },
    {
      "inputs": [
        {
          "internalType": "address",
          "name": "_to",
          "type": "address"
        },
        {
          "internalType": "uint256",
          "name": "_idContract",
          "type": "uint256"
        },
        {
          "internalType": "bool",
          "name": "_lock",
          "type": "bool"
        }
      ],
      "name": "lockNewBorrow",
      "outputs": [],
      "stateMutability": "nonpayable",
      "type": "function"
    },
    {
      "inputs": [
        {
          "internalType": "address",
          "name": "_borrower",
          "type": "address"
        },
        {
          "internalType": "uint256",
          "name": "_idContract",
          "type": "uint256"
        }
      ],
      "name": "viewAmountLoan",
      "outputs": [
        {
          "internalType": "uint256",
          "name": "loanCompouse",
          "type": "uint256"
        }
      ],
      "stateMutability": "view",
      "type": "function"
    }
  ],
  "bytecode": "0x60806040523480156200001157600080fd5b5060405162005df038038062005df083398181016040528101906200003791906200017c565b620000576200004b6200008360201b60201c565b6200008b60201b60201c565b600180819055506200007560026200014f60201b620009011760201c565b8060048190555050620001d7565b600033905090565b60008060009054906101000a900473ffffffffffffffffffffffffffffffffffffffff169050816000806101000a81548173ffffffffffffffffffffffffffffffffffffffff021916908373ffffffffffffffffffffffffffffffffffffffff1602179055508173ffffffffffffffffffffffffffffffffffffffff168173ffffffffffffffffffffffffffffffffffffffff167f8be0079c531659141344cd1fd0a4f28419497f9722a3daafe3b4186f6b6457e060405160405180910390a35050565b6001816000016000828254019250508190555050565b6000815190506200017681620001bd565b92915050565b600060208284031215620001955762000194620001b8565b5b6000620001a58482850162000165565b91505092915050565b6000819050919050565b600080fd5b620001c881620001ae565b8114620001d457600080fd5b50565b615c0980620001e76000396000f3fe608060405234801561001057600080fd5b506004361061010b5760003560e01c8063726adaa4116100a2578063aa67414911610071578063aa6741491461028e578063e1e3769b146102aa578063e236b6f0146102da578063e2bb0eb91461030a578063f2fde38b1461033a5761010b565b8063726adaa4146102065780638990616d146102245780638da5cb5b14610240578063a54bbcb71461025e5761010b565b806347087215116100de57806347087215146101a85780636893d336146101c45780636f25b8f6146101e0578063715018a6146101fc5761010b565b806308dde662146101105780631392ed751461014057806319dda45c1461015c578063460e90d014610178575b600080fd5b61012a60048036038101906101259190614747565b610356565b6040516101379190615418565b60405180910390f35b61015a600480360381019061015591906147da565b610393565b005b610176600480360381019061017191906149be565b610401565b005b610192600480360381019061018d919061471a565b610465565b60405161019f91906150e3565b60405180910390f35b6101c260048036038101906101bd91906149be565b610477565b005b6101de60048036038101906101d991906148a9565b6104db565b005b6101fa60048036038101906101f59190614943565b61053d565b005b6102046105a7565b005b61020e61062f565b60405161021b91906150c1565b60405180910390f35b61023e6004803603810190610239919061471a565b61063e565b005b61024861071b565b604051610255919061501d565b60405180910390f35b61027860048036038101906102739190614903565b610744565b60405161028591906153e0565b60405180910390f35b6102a860048036038101906102a39190614787565b61075e565b005b6102c460048036038101906102bf9190614903565b6107c3565b6040516102d19190615418565b60405180910390f35b6102f460048036038101906102ef9190614747565b6107dd565b60405161030191906153fc565b60405180910390f35b610324600480360381019061031f919061471a565b6107f7565b6040516103319190615105565b60405180910390f35b610354600480360381019061034f919061471a565b610809565b005b6000806103638385610917565b9050600081610120015190506000826101000151905061038883606001518383610c04565b935050505092915050565b600260015414156103d9576040517f08c379a00000000000000000000000000000000000000000000000000000000081526004016103d090615380565b60405180910390fd5b60026001819055506103f13388888888888888610c62565b6001808190555050505050505050565b60026001541415610447576040517f08c379a000000000000000000000000000000000000000000000000000000000815260040161043e90615380565b60405180910390fd5b600260018190555061045a33838361153d565b600180819055505050565b606061047082611a6f565b9050919050565b600260015414156104bd576040517f08c379a00000000000000000000000000000000000000000000000000000000081526004016104b490615380565b60405180910390fd5b60026001819055506104d0338383611b06565b600180819055505050565b60026001541415610521576040517f08c379a000000000000000000000000000000000000000000000000000000000815260040161051890615380565b60405180910390fd5b60026001819055506105333382611ed4565b6001808190555050565b60026001541415610583576040517f08c379a000000000000000000000000000000000000000000000000000000000815260040161057a90615380565b60405180910390fd5b6002600181905550610599338686868686612695565b600180819055505050505050565b6105af6129e0565b73ffffffffffffffffffffffffffffffffffffffff166105cd61071b565b73ffffffffffffffffffffffffffffffffffffffff1614610623576040517f08c379a000000000000000000000000000000000000000000000000000000000815260040161061a906152c0565b60405180910390fd5b61062d60006129e8565b565b6060610639612aac565b905090565b60026001541415610684576040517f08c379a000000000000000000000000000000000000000000000000000000000815260040161067b90615380565b60405180910390fd5b60026001819055506106946129e0565b73ffffffffffffffffffffffffffffffffffffffff166106b261071b565b73ffffffffffffffffffffffffffffffffffffffff1614610708576040517f08c379a00000000000000000000000000000000000000000000000000000000081526004016106ff906152c0565b60405180910390fd5b61071181612b3a565b6001808190555050565b60008060009054906101000a900473ffffffffffffffffffffffffffffffffffffffff16905090565b61074c61455a565b6107568383610917565b905092915050565b600260015414156107a4576040517f08c379a000000000000000000000000000000000000000000000000000000000815260040161079b90615380565b60405180910390fd5b60026001819055506107b7838383612ca7565b60018081905550505050565b6000806107d08484612d56565b9150508091505092915050565b6107e561460c565b6107ef8383612e34565b905092915050565b60006108028261300d565b9050919050565b6108116129e0565b73ffffffffffffffffffffffffffffffffffffffff1661082f61071b565b73ffffffffffffffffffffffffffffffffffffffff1614610885576040517f08c379a000000000000000000000000000000000000000000000000000000000815260040161087c906152c0565b60405180910390fd5b600073ffffffffffffffffffffffffffffffffffffffff168173ffffffffffffffffffffffffffffffffffffffff1614156108f5576040517f08c379a00000000000000000000000000000000000000000000000000000000081526004016108ec90615160565b60405180910390fd5b6108fe816129e8565b50565b6001816000016000828254019250508190555050565b61091f61455a565b60005b6008600085815260200190815260200160002080549050811015610bc2578273ffffffffffffffffffffffffffffffffffffffff1660086000868152602001908152602001600020828154811061097c5761097b61573c565b5b90600052602060002090600b020160000160009054906101000a900473ffffffffffffffffffffffffffffffffffffffff1673ffffffffffffffffffffffffffffffffffffffff161415610baf576008600085815260200190815260200160002081815481106109ef576109ee61573c565b5b90600052602060002090600b0201604051806101600160405290816000820160009054906101000a900473ffffffffffffffffffffffffffffffffffffffff1673ffffffffffffffffffffffffffffffffffffffff1673ffffffffffffffffffffffffffffffffffffffff168152602001600182015481526020016002820160009054906101000a900473ffffffffffffffffffffffffffffffffffffffff1673ffffffffffffffffffffffffffffffffffffffff1673ffffffffffffffffffffffffffffffffffffffff168152602001600382015481526020016004820160009054906101000a900473ffffffffffffffffffffffffffffffffffffffff1673ffffffffffffffffffffffffffffffffffffffff1673ffffffffffffffffffffffffffffffffffffffff1681526020016005820154815260200160068201548152602001600782015481526020016008820154815260200160098201548152602001600a820160009054906101000a900473ffffffffffffffffffffffffffffffffffffffff1673ffffffffffffffffffffffffffffffffffffffff1673ffffffffffffffffffffffffffffffffffffffff1681525050915050610bfe565b8080610bba90615666565b915050610922565b506040517f08c379a0000000000000000000000000000000000000000000000000000000008152600401610bf5906151e0565b60405180910390fd5b92915050565b6000808242610c1391906155ea565b90506000600163bbf81e00838789610c2b9190615590565b610c359190615590565b610c3f919061555f565b87610c4a9190615509565b610c549190615509565b905080925050509392505050565b600073ffffffffffffffffffffffffffffffffffffffff168873ffffffffffffffffffffffffffffffffffffffff161415610cd2576040517f08c379a0000000000000000000000000000000000000000000000000000000008152600401610cc990615220565b60405180910390fd5b8173ffffffffffffffffffffffffffffffffffffffff168773ffffffffffffffffffffffffffffffffffffffff161415610d41576040517f08c379a0000000000000000000000000000000000000000000000000000000008152600401610d3890615180565b60405180910390fd5b610d4a8761300d565b610d89576040517f08c379a0000000000000000000000000000000000000000000000000000000008152600401610d8090615140565b60405180910390fd5b610d928261300d565b610dd1576040517f08c379a0000000000000000000000000000000000000000000000000000000008152600401610dc890615260565b60405180910390fd5b858773ffffffffffffffffffffffffffffffffffffffff166370a082318a6040518263ffffffff1660e01b8152600401610e0b919061501d565b60206040518083038186803b158015610e2357600080fd5b505afa158015610e37573d6000803e3d6000fd5b505050506040513d601f19601f82011682018060405250810190610e5b91906148d6565b1015610e9c576040517f08c379a0000000000000000000000000000000000000000000000000000000008152600401610e93906151a0565b60405180910390fd5b858773ffffffffffffffffffffffffffffffffffffffff1663dd62ed3e8a306040518363ffffffff1660e01b8152600401610ed8929190615038565b60206040518083038186803b158015610ef057600080fd5b505afa158015610f04573d6000803e3d6000fd5b505050506040513d601f19601f82011682018060405250810190610f2891906148d6565b1015610f69576040517f08c379a0000000000000000000000000000000000000000000000000000000008152600401610f6090615360565b60405180910390fd5b60008411610fac576040517f08c379a0000000000000000000000000000000000000000000000000000000008152600401610fa390615340565b60405180910390fd5b600454831015610ff1576040517f08c379a0000000000000000000000000000000000000000000000000000000008152600401610fe8906152e0565b60405180910390fd5b60008773ffffffffffffffffffffffffffffffffffffffff166370a08231306040518263ffffffff1660e01b815260040161102c919061501d565b60206040518083038186803b15801561104457600080fd5b505afa158015611058573d6000803e3d6000fd5b505050506040513d601f19601f8201168201806040525081019061107c91906148d6565b90508773ffffffffffffffffffffffffffffffffffffffff166323b872dd8a308a6040518463ffffffff1660e01b81526004016110bb93929190615061565b602060405180830381600087803b1580156110d557600080fd5b505af11580156110e9573d6000803e3d6000fd5b505050506040513d601f19601f8201168201806040525081019061110d919061487c565b508773ffffffffffffffffffffffffffffffffffffffff166370a08231306040518263ffffffff1660e01b8152600401611147919061501d565b60206040518083038186803b15801561115f57600080fd5b505afa158015611173573d6000803e3d6000fd5b505050506040513d601f19601f8201168201806040525081019061119791906148d6565b87826111a39190615509565b146111ad57600080fd5b60006040518061018001604052806111c560026130bc565b81526020018b73ffffffffffffffffffffffffffffffffffffffff1681526020016000151581526020018a73ffffffffffffffffffffffffffffffffffffffff1681526020018981526020018881526020018781526020018681526020018573ffffffffffffffffffffffffffffffffffffffff168152602001600081526020018481526020016000815250905080600560008c73ffffffffffffffffffffffffffffffffffffffff1673ffffffffffffffffffffffffffffffffffffffff168152602001908152602001600020600061129f60026130bc565b81526020019081526020016000206000820151816000015560208201518160010160006101000a81548173ffffffffffffffffffffffffffffffffffffffff021916908373ffffffffffffffffffffffffffffffffffffffff16021790555060408201518160010160146101000a81548160ff02191690831515021790555060608201518160020160006101000a81548173ffffffffffffffffffffffffffffffffffffffff021916908373ffffffffffffffffffffffffffffffffffffffff1602179055506080820151816003015560a0820151816004015560c0820151816005015560e082015181600601556101008201518160070160006101000a81548173ffffffffffffffffffffffffffffffffffffffff021916908373ffffffffffffffffffffffffffffffffffffffff1602179055506101208201518160080155610140820151816009015561016082015181600a01559050508373ffffffffffffffffffffffffffffffffffffffff168973ffffffffffffffffffffffffffffffffffffffff168b73ffffffffffffffffffffffffffffffffffffffff167f73ccc975565e11201f9228f86b04c2090d856488dd73ce7f1b63b9609708ee4761146960026130bc565b8c8c8c8c60405161147e959493929190615433565b60405180910390a4600660008b73ffffffffffffffffffffffffffffffffffffffff1673ffffffffffffffffffffffffffffffffffffffff1681526020019081526020016000206114cf60026130bc565b9080600181540180825580915050600190039060005260206000200160009091909190915055600761150160026130bc565b90806001815401808255809150506001900390600052602060002001600090919091909150556115316002610901565b50505050505050505050565b82828173ffffffffffffffffffffffffffffffffffffffff166115608383612e34565b6020015173ffffffffffffffffffffffffffffffffffffffff16146115ba576040517f08c379a00000000000000000000000000000000000000000000000000000000081526004016115b190615200565b60405180910390fd5b600083116115fd576040517f08c379a00000000000000000000000000000000000000000000000000000000081526004016115f490615300565b60405180910390fd5b826116088686612e34565b6060015173ffffffffffffffffffffffffffffffffffffffff166370a08231876040518263ffffffff1660e01b8152600401611644919061501d565b60206040518083038186803b15801561165c57600080fd5b505afa158015611670573d6000803e3d6000fd5b505050506040513d601f19601f8201168201806040525081019061169491906148d6565b10156116d5576040517f08c379a00000000000000000000000000000000000000000000000000000000081526004016116cc906151a0565b60405180910390fd5b826116e08686612e34565b6060015173ffffffffffffffffffffffffffffffffffffffff1663dd62ed3e87306040518363ffffffff1660e01b815260040161171e929190615038565b60206040518083038186803b15801561173657600080fd5b505afa15801561174a573d6000803e3d6000fd5b505050506040513d601f19601f8201168201806040525081019061176e91906148d6565b10156117af576040517f08c379a00000000000000000000000000000000000000000000000000000000081526004016117a690615360565b60405180910390fd5b60006117bb8686612e34565b6060015173ffffffffffffffffffffffffffffffffffffffff166370a08231306040518263ffffffff1660e01b81526004016117f7919061501d565b60206040518083038186803b15801561180f57600080fd5b505afa158015611823573d6000803e3d6000fd5b505050506040513d601f19601f8201168201806040525081019061184791906148d6565b90506118538686612e34565b6060015173ffffffffffffffffffffffffffffffffffffffff166323b872dd8730876040518463ffffffff1660e01b815260040161189393929190615061565b602060405180830381600087803b1580156118ad57600080fd5b505af11580156118c1573d6000803e3d6000fd5b505050506040513d601f19601f820116820180604052508101906118e5919061487c565b506118f08686612e34565b6060015173ffffffffffffffffffffffffffffffffffffffff166370a08231306040518263ffffffff1660e01b815260040161192c919061501d565b60206040518083038186803b15801561194457600080fd5b505afa158015611958573d6000803e3d6000fd5b505050506040513d601f19601f8201168201806040525081019061197c91906148d6565b84826119889190615509565b1461199257600080fd5b83600560008873ffffffffffffffffffffffffffffffffffffffff1673ffffffffffffffffffffffffffffffffffffffff168152602001908152602001600020600087815260200190815260200160002060030160008282546119f59190615509565b92505081905550611a068686612e34565b6080015184611a158888612e34565b60800151611a2391906155ea565b7f70b5eec6cec01e52d9243bac64c12e4fd128a2f20105af16919ae212e224fc65611a4e8989612e34565b60000151604051611a5f9190615418565b60405180910390a3505050505050565b6060600660008373ffffffffffffffffffffffffffffffffffffffff1673ffffffffffffffffffffffffffffffffffffffff168152602001908152602001600020805480602002602001604051908101604052809291908181526020018280548015611afa57602002820191906000526020600020905b815481526020019060010190808311611ae6575b50505050509050919050565b82828173ffffffffffffffffffffffffffffffffffffffff16611b298383612e34565b6020015173ffffffffffffffffffffffffffffffffffffffff1614611b83576040517f08c379a0000000000000000000000000000000000000000000000000000000008152600401611b7a90615200565b60405180910390fd5b60008311611bc6576040517f08c379a0000000000000000000000000000000000000000000000000000000008152600401611bbd90615300565b60405180910390fd5b82611bd18686612e34565b608001511015611c16576040517f08c379a0000000000000000000000000000000000000000000000000000000008152600401611c0d906153a0565b60405180910390fd5b82600560008773ffffffffffffffffffffffffffffffffffffffff1673ffffffffffffffffffffffffffffffffffffffff16815260200190815260200160002060008681526020019081526020016000206003016000828254611c7991906155ea565b925050819055506000611c8c8686612e34565b6060015173ffffffffffffffffffffffffffffffffffffffff166370a08231306040518263ffffffff1660e01b8152600401611cc8919061501d565b60206040518083038186803b158015611ce057600080fd5b505afa158015611cf4573d6000803e3d6000fd5b505050506040513d601f19601f82011682018060405250810190611d1891906148d6565b9050611d248686612e34565b6060015173ffffffffffffffffffffffffffffffffffffffff1663a9059cbb87866040518363ffffffff1660e01b8152600401611d62929190615098565b602060405180830381600087803b158015611d7c57600080fd5b505af1158015611d90573d6000803e3d6000fd5b505050506040513d601f19601f82011682018060405250810190611db4919061487c565b50611dbf8686612e34565b6060015173ffffffffffffffffffffffffffffffffffffffff166370a08231306040518263ffffffff1660e01b8152600401611dfb919061501d565b60206040518083038186803b158015611e1357600080fd5b505afa158015611e27573d6000803e3d6000fd5b505050506040513d601f19601f82011682018060405250810190611e4b91906148d6565b8482611e5791906155ea565b14611e6157600080fd5b611e6b8686612e34565b6080015184611e7a8888612e34565b60800151611e889190615509565b7f510055a9c40582bc6ad0cab1e5b0421194c4d34435a16960ec71333bf8bc70cf611eb38989612e34565b60000151604051611ec49190615418565b60405180910390a3505050505050565b81818173ffffffffffffffffffffffffffffffffffffffff16611ef78383612e34565b6020015173ffffffffffffffffffffffffffffffffffffffff1614611f51576040517f08c379a0000000000000000000000000000000000000000000000000000000008152600401611f4890615200565b60405180910390fd5b6000611f5d8585612e34565b610120015114611fa2576040517f08c379a0000000000000000000000000000000000000000000000000000000008152600401611f99906153c0565b60405180910390fd5b6000600560008673ffffffffffffffffffffffffffffffffffffffff1673ffffffffffffffffffffffffffffffffffffffff16815260200190815260200160002060008581526020019081526020016000206003015490506000600560008773ffffffffffffffffffffffffffffffffffffffff1673ffffffffffffffffffffffffffffffffffffffff1681526020019081526020016000206000868152602001908152602001600020600001549050600061205e8787612e34565b606001519050600560008873ffffffffffffffffffffffffffffffffffffffff1673ffffffffffffffffffffffffffffffffffffffff16815260200190815260200160002060008781526020019081526020016000206000808201600090556001820160006101000a81549073ffffffffffffffffffffffffffffffffffffffff02191690556001820160146101000a81549060ff02191690556002820160006101000a81549073ffffffffffffffffffffffffffffffffffffffff021916905560038201600090556004820160009055600582016000905560068201600090556007820160006101000a81549073ffffffffffffffffffffffffffffffffffffffff021916905560088201600090556009820160009055600a82016000905550506000600660008973ffffffffffffffffffffffffffffffffffffffff1673ffffffffffffffffffffffffffffffffffffffff168152602001908152602001600020805490501115612358576000806121d889856130ca565b91509150801561235157600660008a73ffffffffffffffffffffffffffffffffffffffff1673ffffffffffffffffffffffffffffffffffffffff1681526020019081526020016000206001600660008c73ffffffffffffffffffffffffffffffffffffffff1673ffffffffffffffffffffffffffffffffffffffff1681526020019081526020016000208054905061227091906155ea565b815481106122815761228061573c565b5b9060005260206000200154600660008b73ffffffffffffffffffffffffffffffffffffffff1673ffffffffffffffffffffffffffffffffffffffff16815260200190815260200160002083815481106122dd576122dc61573c565b5b9060005260206000200181905550600660008a73ffffffffffffffffffffffffffffffffffffffff1673ffffffffffffffffffffffffffffffffffffffff16815260200190815260200160002080548061233a5761233961570d565b5b600190038181906000526020600020016000905590555b50506123be565b600660008873ffffffffffffffffffffffffffffffffffffffff1673ffffffffffffffffffffffffffffffffffffffff1681526020019081526020016000208054806123a7576123a661570d565b5b600190038181906000526020600020016000905590555b60006007805490501115612464576000806123d8886131ab565b91509150801561245d57600760016007805490506123f691906155ea565b815481106124075761240661573c565b5b9060005260206000200154600783815481106124265761242561573c565b5b906000526020600020018190555060078054806124465761244561570d565b5b600190038181906000526020600020016000905590555b505061248d565b60078054806124765761247561570d565b5b600190038181906000526020600020016000905590555b60008173ffffffffffffffffffffffffffffffffffffffff166370a08231306040518263ffffffff1660e01b81526004016124c8919061501d565b60206040518083038186803b1580156124e057600080fd5b505afa1580156124f4573d6000803e3d6000fd5b505050506040513d601f19601f8201168201806040525081019061251891906148d6565b90508173ffffffffffffffffffffffffffffffffffffffff1663a9059cbb89866040518363ffffffff1660e01b8152600401612555929190615098565b602060405180830381600087803b15801561256f57600080fd5b505af1158015612583573d6000803e3d6000fd5b505050506040513d601f19601f820116820180604052508101906125a7919061487c565b508173ffffffffffffffffffffffffffffffffffffffff166370a08231306040518263ffffffff1660e01b81526004016125e1919061501d565b60206040518083038186803b1580156125f957600080fd5b505afa15801561260d573d6000803e3d6000fd5b505050506040513d601f19601f8201168201806040525081019061263191906148d6565b848261263d91906155ea565b1461264757600080fd5b828873ffffffffffffffffffffffffffffffffffffffff167ffd6e81c22721a918c2e59966d2b020f6ccf1fe46d783cc4053c75c1a9fa837f060405160405180910390a35050505050505050565b60001515600a600087815260200190815260200160002060009054906101000a900460ff161515146126fc576040517f08c379a00000000000000000000000000000000000000000000000000000000081526004016126f390615120565b60405180910390fd5b60001515600560008873ffffffffffffffffffffffffffffffffffffffff1673ffffffffffffffffffffffffffffffffffffffff168152602001908152602001600020600087815260200190815260200160002060010160149054906101000a900460ff161515146127a3576040517f08c379a000000000000000000000000000000000000000000000000000000000815260040161279a906152a0565b60405180910390fd5b60006127af85876130ca565b915050806127f2576040517f08c379a00000000000000000000000000000000000000000000000000000000081526004016127e990615320565b60405180910390fd5b83600560008773ffffffffffffffffffffffffffffffffffffffff1673ffffffffffffffffffffffffffffffffffffffff1681526020019081526020016000206000888152602001908152602001600020600301541015612888576040517f08c379a000000000000000000000000000000000000000000000000000000000815260040161287f90615240565b60405180910390fd5b6000612892613210565b90506000600560008873ffffffffffffffffffffffffffffffffffffffff1673ffffffffffffffffffffffffffffffffffffffff16815260200190815260200160002060008981526020019081526020016000206009015490506000806128f98a8c612d56565b9150915081612916576129118b8a8c8a8a8d89613219565b612984565b61291e613210565b612969600860008d815260200190815260200160002083815481106129465761294561573c565b5b90600052602060002090600b020160050154866129639190615590565b85613bbf565b1161297357600080fd5b6129838b8a8c8a8a8d8988613bd5565b5b898b73ffffffffffffffffffffffffffffffffffffffff167fe1979fe4c35e0cef342fef5668e2c8e7a7e9f5d5d1ca8fee0ac6c427fa4153af8a6040516129cb9190615418565b60405180910390a35050505050505050505050565b600033905090565b60008060009054906101000a900473ffffffffffffffffffffffffffffffffffffffff169050816000806101000a81548173ffffffffffffffffffffffffffffffffffffffff021916908373ffffffffffffffffffffffffffffffffffffffff1602179055508173ffffffffffffffffffffffffffffffffffffffff168173ffffffffffffffffffffffffffffffffffffffff167f8be0079c531659141344cd1fd0a4f28419497f9722a3daafe3b4186f6b6457e060405160405180910390a35050565b60606003805480602002602001604051908101604052809291908181526020018280548015612b3057602002820191906000526020600020905b8160009054906101000a900473ffffffffffffffffffffffffffffffffffffffff1673ffffffffffffffffffffffffffffffffffffffff1681526020019060010190808311612ae6575b5050505050905090565b600073ffffffffffffffffffffffffffffffffffffffff168173ffffffffffffffffffffffffffffffffffffffff161415612baa576040517f08c379a0000000000000000000000000000000000000000000000000000000008152600401612ba190615220565b60405180910390fd5b612bb38161300d565b15612bf3576040517f08c379a0000000000000000000000000000000000000000000000000000000008152600401612bea90615280565b60405180910390fd5b6003819080600181540180825580915050600190039060005260206000200160009091909190916101000a81548173ffffffffffffffffffffffffffffffffffffffff021916908373ffffffffffffffffffffffffffffffffffffffff1602179055508073ffffffffffffffffffffffffffffffffffffffff167f1406601fca80ce2dde347c6c1c000309440d0365c2b5786f1608d7b1e76dd12d42604051612c9c9190615418565b60405180910390a250565b82828173ffffffffffffffffffffffffffffffffffffffff16612cca8383612e34565b6020015173ffffffffffffffffffffffffffffffffffffffff1614612d24576040517f08c379a0000000000000000000000000000000000000000000000000000000008152600401612d1b90615200565b60405180910390fd5b82600a600086815260200190815260200160002060006101000a81548160ff0219169083151502179055505050505050565b60008060005b6008600086815260200190815260200160002080549050811015612e24578373ffffffffffffffffffffffffffffffffffffffff16600860008781526020019081526020016000208281548110612db657612db561573c565b5b90600052602060002090600b020160000160009054906101000a900473ffffffffffffffffffffffffffffffffffffffff1673ffffffffffffffffffffffffffffffffffffffff161415612e11576001819250925050612e2d565b8080612e1c90615666565b915050612d5c565b50600080915091505b9250929050565b612e3c61460c565b600560008473ffffffffffffffffffffffffffffffffffffffff1673ffffffffffffffffffffffffffffffffffffffff168152602001908152602001600020600083815260200190815260200160002060405180610180016040529081600082015481526020016001820160009054906101000a900473ffffffffffffffffffffffffffffffffffffffff1673ffffffffffffffffffffffffffffffffffffffff1673ffffffffffffffffffffffffffffffffffffffff1681526020016001820160149054906101000a900460ff161515151581526020016002820160009054906101000a900473ffffffffffffffffffffffffffffffffffffffff1673ffffffffffffffffffffffffffffffffffffffff1673ffffffffffffffffffffffffffffffffffffffff168152602001600382015481526020016004820154815260200160058201548152602001600682015481526020016007820160009054906101000a900473ffffffffffffffffffffffffffffffffffffffff1673ffffffffffffffffffffffffffffffffffffffff1673ffffffffffffffffffffffffffffffffffffffff1681526020016008820154815260200160098201548152602001600a82015481525050905092915050565b600080600090505b6003805490508110156130b1578273ffffffffffffffffffffffffffffffffffffffff166003828154811061304d5761304c61573c565b5b9060005260206000200160009054906101000a900473ffffffffffffffffffffffffffffffffffffffff1673ffffffffffffffffffffffffffffffffffffffff16141561309e5760019150506130b7565b80806130a990615666565b915050613015565b50600090505b919050565b600081600001549050919050565b60008060008060005b600660008873ffffffffffffffffffffffffffffffffffffffff1673ffffffffffffffffffffffffffffffffffffffff1681526020019081526020016000208054905081101561319b57600660008873ffffffffffffffffffffffffffffffffffffffff1673ffffffffffffffffffffffffffffffffffffffff168152602001908152602001600020818154811061316e5761316d61573c565b5b906000526020600020015486141561318857809250600191505b808061319390615666565b9150506130d3565b5081819350935050509250929050565b60008060008060005b60078054905081101561320257600781815481106131d5576131d461573c565b5b90600052602060002001548614156131ef57809250600191505b80806131fa90615666565b9150506131b4565b508181935093505050915091565b60006002905090565b600560008773ffffffffffffffffffffffffffffffffffffffff1673ffffffffffffffffffffffffffffffffffffffff16815260200190815260200160002060008681526020019081526020016000206009015461329b8461327961453b565b6132839190615590565b8461328c613210565b6132969190615590565b614544565b116132a557600080fd5b60008473ffffffffffffffffffffffffffffffffffffffff166370a08231306040518263ffffffff1660e01b81526004016132e0919061501d565b60206040518083038186803b1580156132f857600080fd5b505afa15801561330c573d6000803e3d6000fd5b505050506040513d601f19601f8201168201806040525081019061333091906148d6565b90508473ffffffffffffffffffffffffffffffffffffffff166323b872dd8930876040518463ffffffff1660e01b815260040161336f93929190615061565b602060405180830381600087803b15801561338957600080fd5b505af115801561339d573d6000803e3d6000fd5b505050506040513d601f19601f820116820180604052508101906133c1919061487c565b508473ffffffffffffffffffffffffffffffffffffffff166370a08231306040518263ffffffff1660e01b81526004016133fb919061501d565b60206040518083038186803b15801561341357600080fd5b505afa158015613427573d6000803e3d6000fd5b505050506040513d601f19601f8201168201806040525081019061344b91906148d6565b84826134579190615509565b1461346157600080fd5b60006040518061016001604052808a73ffffffffffffffffffffffffffffffffffffffff168152602001888152602001600560008b73ffffffffffffffffffffffffffffffffffffffff1673ffffffffffffffffffffffffffffffffffffffff16815260200190815260200160002060008a815260200190815260200160002060020160009054906101000a900473ffffffffffffffffffffffffffffffffffffffff1673ffffffffffffffffffffffffffffffffffffffff1681526020018581526020018773ffffffffffffffffffffffffffffffffffffffff16815260200186815260200161356486613554613210565b61355e9190615590565b86613bbf565b8152602001600560008b73ffffffffffffffffffffffffffffffffffffffff1673ffffffffffffffffffffffffffffffffffffffff16815260200190815260200160002060008a815260200190815260200160002060050154426135c89190615509565b81526020014281526020016135dd8a8a612e34565b60a0015181526020018973ffffffffffffffffffffffffffffffffffffffff168152509050600860008881526020019081526020016000208190806001815401808255809150506001900390600052602060002090600b020160009091909190915060008201518160000160006101000a81548173ffffffffffffffffffffffffffffffffffffffff021916908373ffffffffffffffffffffffffffffffffffffffff1602179055506020820151816001015560408201518160020160006101000a81548173ffffffffffffffffffffffffffffffffffffffff021916908373ffffffffffffffffffffffffffffffffffffffff1602179055506060820151816003015560808201518160040160006101000a81548173ffffffffffffffffffffffffffffffffffffffff021916908373ffffffffffffffffffffffffffffffffffffffff16021790555060a0820151816005015560c0820151816006015560e082015181600701556101008201518160080155610120820151816009015561014082015181600a0160006101000a81548173ffffffffffffffffffffffffffffffffffffffff021916908373ffffffffffffffffffffffffffffffffffffffff160217905550505083600560008a73ffffffffffffffffffffffffffffffffffffffff1673ffffffffffffffffffffffffffffffffffffffff1681526020019081526020016000206000898152602001908152602001600020600301600082825461380991906155ea565b9250508190555083600560008a73ffffffffffffffffffffffffffffffffffffffff1673ffffffffffffffffffffffffffffffffffffffff168152602001908152602001600020600089815260200190815260200160002060080160008282546138739190615509565b9250508190555084600560008a73ffffffffffffffffffffffffffffffffffffffff1673ffffffffffffffffffffffffffffffffffffffff1681526020019081526020016000206000898152602001908152602001600020600a0160008282546138dd9190615509565b9250508190555080600960008b73ffffffffffffffffffffffffffffffffffffffff1673ffffffffffffffffffffffffffffffffffffffff1681526020019081526020016000206000600860008b815260200190815260200160002080549050815260200190815260200160002060008201518160000160006101000a81548173ffffffffffffffffffffffffffffffffffffffff021916908373ffffffffffffffffffffffffffffffffffffffff1602179055506020820151816001015560408201518160020160006101000a81548173ffffffffffffffffffffffffffffffffffffffff021916908373ffffffffffffffffffffffffffffffffffffffff1602179055506060820151816003015560808201518160040160006101000a81548173ffffffffffffffffffffffffffffffffffffffff021916908373ffffffffffffffffffffffffffffffffffffffff16021790555060a0820151816005015560c0820151816006015560e082015181600701556101008201518160080155610120820151816009015561014082015181600a0160006101000a81548173ffffffffffffffffffffffffffffffffffffffff021916908373ffffffffffffffffffffffffffffffffffffffff160217905550905050600560008973ffffffffffffffffffffffffffffffffffffffff1673ffffffffffffffffffffffffffffffffffffffff168152602001908152602001600020600088815260200190815260200160002060020160009054906101000a900473ffffffffffffffffffffffffffffffffffffffff1673ffffffffffffffffffffffffffffffffffffffff1663a9059cbb8a866040518363ffffffff1660e01b8152600401613b61929190615098565b602060405180830381600087803b158015613b7b57600080fd5b505af1158015613b8f573d6000803e3d6000fd5b505050506040513d601f19601f82011682018060405250810190613bb3919061487c565b50505050505050505050565b60008183613bcd9190615590565b905092915050565b600860008781526020019081526020016000208181548110613bfa57613bf961573c565b5b90600052602060002090600b020160000160009054906101000a900473ffffffffffffffffffffffffffffffffffffffff1673ffffffffffffffffffffffffffffffffffffffff168873ffffffffffffffffffffffffffffffffffffffff1614613c99576040517f08c379a0000000000000000000000000000000000000000000000000000000008152600401613c90906151c0565b60405180910390fd5b600560008873ffffffffffffffffffffffffffffffffffffffff1673ffffffffffffffffffffffffffffffffffffffff168152602001908152602001600020600087815260200190815260200160002060090154613d9d85600860008a81526020019081526020016000208481548110613d1657613d1561573c565b5b90600052602060002090600b020160050154613d329190615509565b613d3a61453b565b613d449190615590565b85600860008b81526020019081526020016000208581548110613d6a57613d6961573c565b5b90600052602060002090600b020160030154613d869190615509565b613d8e613210565b613d989190615590565b614544565b11613da757600080fd5b60008573ffffffffffffffffffffffffffffffffffffffff166370a08231306040518263ffffffff1660e01b8152600401613de2919061501d565b60206040518083038186803b158015613dfa57600080fd5b505afa158015613e0e573d6000803e3d6000fd5b505050506040513d601f19601f82011682018060405250810190613e3291906148d6565b90508573ffffffffffffffffffffffffffffffffffffffff166323b872dd8a30886040518463ffffffff1660e01b8152600401613e7193929190615061565b602060405180830381600087803b158015613e8b57600080fd5b505af1158015613e9f573d6000803e3d6000fd5b505050506040513d601f19601f82011682018060405250810190613ec3919061487c565b508573ffffffffffffffffffffffffffffffffffffffff166370a08231306040518263ffffffff1660e01b8152600401613efd919061501d565b60206040518083038186803b158015613f1557600080fd5b505afa158015613f29573d6000803e3d6000fd5b505050506040513d601f19601f82011682018060405250810190613f4d91906148d6565b8582613f599190615509565b14613f6357600080fd5b83600860008981526020019081526020016000208381548110613f8957613f8861573c565b5b90600052602060002090600b02016003016000828254613fa99190615509565b9250508190555084600860008981526020019081526020016000208381548110613fd657613fd561573c565b5b90600052602060002090600b02016005016000828254613ff69190615509565b9250508190555061404f6008600089815260200190815260200160002083815481106140255761402461573c565b5b90600052602060002090600b02016003015461403f613210565b6140499190615590565b84613bbf565b6008600089815260200190815260200160002083815481106140745761407361573c565b5b90600052602060002090600b02016006018190555083600560008a73ffffffffffffffffffffffffffffffffffffffff1673ffffffffffffffffffffffffffffffffffffffff168152602001908152602001600020600089815260200190815260200160002060030160008282546140ec91906155ea565b9250508190555083600560008a73ffffffffffffffffffffffffffffffffffffffff1673ffffffffffffffffffffffffffffffffffffffff168152602001908152602001600020600089815260200190815260200160002060080160008282546141569190615509565b9250508190555084600560008a73ffffffffffffffffffffffffffffffffffffffff1673ffffffffffffffffffffffffffffffffffffffff1681526020019081526020016000206000898152602001908152602001600020600a0160008282546141c09190615509565b925050819055506008600088815260200190815260200160002082815481106141ec576141eb61573c565b5b90600052602060002090600b0201600960008b73ffffffffffffffffffffffffffffffffffffffff1673ffffffffffffffffffffffffffffffffffffffff16815260200190815260200160002060008481526020019081526020016000206000820160009054906101000a900473ffffffffffffffffffffffffffffffffffffffff168160000160006101000a81548173ffffffffffffffffffffffffffffffffffffffff021916908373ffffffffffffffffffffffffffffffffffffffff160217905550600182015481600101556002820160009054906101000a900473ffffffffffffffffffffffffffffffffffffffff168160020160006101000a81548173ffffffffffffffffffffffffffffffffffffffff021916908373ffffffffffffffffffffffffffffffffffffffff160217905550600382015481600301556004820160009054906101000a900473ffffffffffffffffffffffffffffffffffffffff168160040160006101000a81548173ffffffffffffffffffffffffffffffffffffffff021916908373ffffffffffffffffffffffffffffffffffffffff1602179055506005820154816005015560068201548160060155600782015481600701556008820154816008015560098201548160090155600a820160009054906101000a900473ffffffffffffffffffffffffffffffffffffffff1681600a0160006101000a81548173ffffffffffffffffffffffffffffffffffffffff021916908373ffffffffffffffffffffffffffffffffffffffff160217905550905050600560008973ffffffffffffffffffffffffffffffffffffffff1673ffffffffffffffffffffffffffffffffffffffff168152602001908152602001600020600088815260200190815260200160002060020160009054906101000a900473ffffffffffffffffffffffffffffffffffffffff1673ffffffffffffffffffffffffffffffffffffffff1663a9059cbb8a866040518363ffffffff1660e01b81526004016144dd929190615098565b602060405180830381600087803b1580156144f757600080fd5b505af115801561450b573d6000803e3d6000fd5b505050506040513d601f19601f8201168201806040525081019061452f919061487c565b50505050505050505050565b60006001905090565b60008183614552919061555f565b905092915050565b604051806101600160405280600073ffffffffffffffffffffffffffffffffffffffff16815260200160008152602001600073ffffffffffffffffffffffffffffffffffffffff16815260200160008152602001600073ffffffffffffffffffffffffffffffffffffffff1681526020016000815260200160008152602001600081526020016000815260200160008152602001600073ffffffffffffffffffffffffffffffffffffffff1681525090565b60405180610180016040528060008152602001600073ffffffffffffffffffffffffffffffffffffffff168152602001600015158152602001600073ffffffffffffffffffffffffffffffffffffffff16815260200160008152602001600081526020016000815260200160008152602001600073ffffffffffffffffffffffffffffffffffffffff1681526020016000815260200160008152602001600081525090565b6000813590506146c081615b8e565b92915050565b6000813590506146d581615ba5565b92915050565b6000815190506146ea81615ba5565b92915050565b6000813590506146ff81615bbc565b92915050565b60008151905061471481615bbc565b92915050565b6000602082840312156147305761472f61576b565b5b600061473e848285016146b1565b91505092915050565b6000806040838503121561475e5761475d61576b565b5b600061476c858286016146b1565b925050602061477d858286016146f0565b9150509250929050565b6000806000606084860312156147a05761479f61576b565b5b60006147ae868287016146b1565b93505060206147bf868287016146f0565b92505060406147d0868287016146c6565b9150509250925092565b600080600080600080600060e0888a0312156147f9576147f861576b565b5b60006148078a828b016146b1565b97505060206148188a828b016146f0565b96505060406148298a828b016146f0565b955050606061483a8a828b016146f0565b945050608061484b8a828b016146f0565b93505060a061485c8a828b016146b1565b92505060c061486d8a828b016146f0565b91505092959891949750929550565b6000602082840312156148925761489161576b565b5b60006148a0848285016146db565b91505092915050565b6000602082840312156148bf576148be61576b565b5b60006148cd848285016146f0565b91505092915050565b6000602082840312156148ec576148eb61576b565b5b60006148fa84828501614705565b91505092915050565b6000806040838503121561491a5761491961576b565b5b6000614928858286016146f0565b9250506020614939858286016146b1565b9150509250929050565b600080600080600060a0868803121561495f5761495e61576b565b5b600061496d888289016146f0565b955050602061497e888289016146b1565b945050604061498f888289016146f0565b93505060606149a0888289016146b1565b92505060806149b1888289016146f0565b9150509295509295909350565b600080604083850312156149d5576149d461576b565b5b60006149e3858286016146f0565b92505060206149f4858286016146f0565b9150509250929050565b6000614a0a8383614a2e565b60208301905092915050565b6000614a228383614fff565b60208301905092915050565b614a378161561e565b82525050565b614a468161561e565b82525050565b6000614a57826154a6565b614a6181856154d6565b9350614a6c83615486565b8060005b83811015614a9d578151614a8488826149fe565b9750614a8f836154bc565b925050600181019050614a70565b5085935050505092915050565b6000614ab5826154b1565b614abf81856154e7565b9350614aca83615496565b8060005b83811015614afb578151614ae28882614a16565b9750614aed836154c9565b925050600181019050614ace565b5085935050505092915050565b614b1181615630565b82525050565b614b2081615630565b82525050565b6000614b33600f836154f8565b9150614b3e82615770565b602082019050919050565b6000614b566011836154f8565b9150614b6182615799565b602082019050919050565b6000614b796026836154f8565b9150614b84826157c2565b604082019050919050565b6000614b9c6014836154f8565b9150614ba782615811565b602082019050919050565b6000614bbf6010836154f8565b9150614bca8261583a565b602082019050919050565b6000614be26013836154f8565b9150614bed82615863565b602082019050919050565b6000614c056026836154f8565b9150614c108261588c565b604082019050919050565b6000614c286017836154f8565b9150614c33826158db565b602082019050919050565b6000614c4b600f836154f8565b9150614c5682615904565b602082019050919050565b6000614c6e6014836154f8565b9150614c798261592d565b602082019050919050565b6000614c916016836154f8565b9150614c9c82615956565b602082019050919050565b6000614cb46016836154f8565b9150614cbf8261597f565b602082019050919050565b6000614cd76030836154f8565b9150614ce2826159a8565b604082019050919050565b6000614cfa6020836154f8565b9150614d05826159f7565b602082019050919050565b6000614d1d601b836154f8565b9150614d2882615a20565b602082019050919050565b6000614d406016836154f8565b9150614d4b82615a49565b602082019050919050565b6000614d636013836154f8565b9150614d6e82615a72565b602082019050919050565b6000614d86601b836154f8565b9150614d9182615a9b565b602082019050919050565b6000614da96011836154f8565b9150614db482615ac4565b602082019050919050565b6000614dcc601f836154f8565b9150614dd782615aed565b602082019050919050565b6000614def602e836154f8565b9150614dfa82615b16565b604082019050919050565b6000614e12601d836154f8565b9150614e1d82615b65565b602082019050919050565b61016082016000820151614e3f6000850182614a2e565b506020820151614e526020850182614fff565b506040820151614e656040850182614a2e565b506060820151614e786060850182614fff565b506080820151614e8b6080850182614a2e565b5060a0820151614e9e60a0850182614fff565b5060c0820151614eb160c0850182614fff565b5060e0820151614ec460e0850182614fff565b50610100820151614ed9610100850182614fff565b50610120820151614eee610120850182614fff565b50610140820151614f03610140850182614a2e565b50505050565b61018082016000820151614f206000850182614fff565b506020820151614f336020850182614a2e565b506040820151614f466040850182614b08565b506060820151614f596060850182614a2e565b506080820151614f6c6080850182614fff565b5060a0820151614f7f60a0850182614fff565b5060c0820151614f9260c0850182614fff565b5060e0820151614fa560e0850182614fff565b50610100820151614fba610100850182614a2e565b50610120820151614fcf610120850182614fff565b50610140820151614fe4610140850182614fff565b50610160820151614ff9610160850182614fff565b50505050565b6150088161565c565b82525050565b6150178161565c565b82525050565b60006020820190506150326000830184614a3d565b92915050565b600060408201905061504d6000830185614a3d565b61505a6020830184614a3d565b9392505050565b60006060820190506150766000830186614a3d565b6150836020830185614a3d565b615090604083018461500e565b949350505050565b60006040820190506150ad6000830185614a3d565b6150ba602083018461500e565b9392505050565b600060208201905081810360008301526150db8184614a4c565b905092915050565b600060208201905081810360008301526150fd8184614aaa565b905092915050565b600060208201905061511a6000830184614b17565b92915050565b6000602082019050818103600083015261513981614b26565b9050919050565b6000602082019050818103600083015261515981614b49565b9050919050565b6000602082019050818103600083015261517981614b6c565b9050919050565b6000602082019050818103600083015261519981614b8f565b9050919050565b600060208201905081810360008301526151b981614bb2565b9050919050565b600060208201905081810360008301526151d981614bd5565b9050919050565b600060208201905081810360008301526151f981614bf8565b9050919050565b6000602082019050818103600083015261521981614c1b565b9050919050565b6000602082019050818103600083015261523981614c3e565b9050919050565b6000602082019050818103600083015261525981614c61565b9050919050565b6000602082019050818103600083015261527981614c84565b9050919050565b6000602082019050818103600083015261529981614ca7565b9050919050565b600060208201905081810360008301526152b981614cca565b9050919050565b600060208201905081810360008301526152d981614ced565b9050919050565b600060208201905081810360008301526152f981614d10565b9050919050565b6000602082019050818103600083015261531981614d33565b9050919050565b6000602082019050818103600083015261533981614d56565b9050919050565b6000602082019050818103600083015261535981614d79565b9050919050565b6000602082019050818103600083015261537981614d9c565b9050919050565b6000602082019050818103600083015261539981614dbf565b9050919050565b600060208201905081810360008301526153b981614de2565b9050919050565b600060208201905081810360008301526153d981614e05565b9050919050565b6000610160820190506153f66000830184614e28565b92915050565b6000610180820190506154126000830184614f09565b92915050565b600060208201905061542d600083018461500e565b92915050565b600060a082019050615448600083018861500e565b615455602083018761500e565b615462604083018661500e565b61546f606083018561500e565b61547c608083018461500e565b9695505050505050565b6000819050602082019050919050565b6000819050602082019050919050565b600081519050919050565b600081519050919050565b6000602082019050919050565b6000602082019050919050565b600082825260208201905092915050565b600082825260208201905092915050565b600082825260208201905092915050565b60006155148261565c565b915061551f8361565c565b9250827fffffffffffffffffffffffffffffffffffffffffffffffffffffffffffffffff03821115615554576155536156af565b5b828201905092915050565b600061556a8261565c565b91506155758361565c565b925082615585576155846156de565b5b828204905092915050565b600061559b8261565c565b91506155a68361565c565b9250817fffffffffffffffffffffffffffffffffffffffffffffffffffffffffffffffff04831182151516156155df576155de6156af565b5b828202905092915050565b60006155f58261565c565b91506156008361565c565b925082821015615613576156126156af565b5b828203905092915050565b60006156298261563c565b9050919050565b60008115159050919050565b600073ffffffffffffffffffffffffffffffffffffffff82169050919050565b6000819050919050565b60006156718261565c565b91507fffffffffffffffffffffffffffffffffffffffffffffffffffffffffffffffff8214156156a4576156a36156af565b5b600182019050919050565b7f4e487b7100000000000000000000000000000000000000000000000000000000600052601160045260246000fd5b7f4e487b7100000000000000000000000000000000000000000000000000000000600052601260045260246000fd5b7f4e487b7100000000000000000000000000000000000000000000000000000000600052603160045260246000fd5b7f4e487b7100000000000000000000000000000000000000000000000000000000600052603260045260246000fd5b600080fd5b7f71756573746f2066756e7a696f6e610000000000000000000000000000000000600082015250565b7f617373657420646f6e277420666f756e64000000000000000000000000000000600082015250565b7f4f776e61626c653a206e6577206f776e657220697320746865207a65726f206160008201527f6464726573730000000000000000000000000000000000000000000000000000602082015250565b7f636f6c6c61746572616c206e6f742076616c6964000000000000000000000000600082015250565b7f62616c616e63652075736572206c6f7700000000000000000000000000000000600082015250565b7f4e6f74206f776e65722074686973206c6f616e00000000000000000000000000600082015250565b7f426f72726f77657220666f72207468697320636f6e7472616374206e6f74207060008201527f726573656e740000000000000000000000000000000000000000000000000000602082015250565b7f4e6f74206f776e6572207468697320636f6e7472616374000000000000000000600082015250565b7f696e76616c696420616464726573730000000000000000000000000000000000600082015250565b7f416d6f756e7420617676616c69626c65206c6f77000000000000000000000000600082015250565b7f636f6c6c61746572616c20646f6e277420666f756e6400000000000000000000600082015250565b7f41737365747420616c726561647920696e206c69737400000000000000000000600082015250565b7f54686973206c656e6465722068617320626c6f636b656420746865206973737560008201527f616e6365206f66206e6577204c6f616e00000000000000000000000000000000602082015250565b7f4f776e61626c653a2063616c6c6572206973206e6f7420746865206f776e6572600082015250565b7f70656e616c697479206d75737420686176652067656174656520300000000000600082015250565b7f696e6372656173206d75737420626520706c7573203000000000000000000000600082015250565b7f636f6e747261637420646f6e7420657869737400000000000000000000000000600082015250565b7f646561646c696e65206d75737420686176652067656174656520300000000000600082015250565b7f616c6f77616e63652075736572206c6f77000000000000000000000000000000600082015250565b7f5265656e7472616e637947756172643a207265656e7472616e742063616c6c00600082015250565b7f41737365747420617676616c69626c6520696e73756666696369656e7420666f60008201527f7220746869732077686964726f77000000000000000000000000000000000000602082015250565b7f436f6e7472616374206861766520617373657420696e20626f72726f77000000600082015250565b615b978161561e565b8114615ba257600080fd5b50565b615bae81615630565b8114615bb957600080fd5b50565b615bc58161565c565b8114615bd057600080fd5b5056fea26469706673582212203c338fb25470bb731bb29cd6d7cef8b99797b8b41550f3e80f3783e3bc91cb7564736f6c63430008070033",
  "immutableReferences": {},
  "source": "// SPDX-License-Identifier: Leluk911\n\npragma solidity 0.8.7;\n\nimport \"../node_modules/@openzeppelin/contracts/token/ERC20/IERC20.sol\";\nimport \"../node_modules/@openzeppelin/contracts/access/Ownable.sol\";\nimport \"../node_modules/@openzeppelin/contracts/utils/Counters.sol\";\nimport \"../node_modules/@openzeppelin/contracts/security/ReentrancyGuard.sol\";\n\n\ncontract lendingPage is Ownable,ReentrancyGuard {\n    //library\n\n    using Counters for Counters.Counter;\n    //function variable\n    Counters.Counter private Id; // id every lending contract\n    address[] private assetAvvalible; // asset add from Owner (only asset present in chainLink oracle)\n    uint private minPenality;\n    // User\n    struct LendingContract {\n        uint id;\n        address owner;\n        bool lock;\n        address asset;\n        //uint amount;\n        uint amountAvvalible;\n        uint apr;\n        uint duration;\n        uint penality;\n        address collateral;\n        uint amountBorrow;\n        uint rateCollateral;\n        uint amountCollateral;\n    }\n    mapping(address => mapping(uint=>LendingContract)) private userLendingContract;\n    mapping(address => uint[])listContractUser;\n    uint[] private listContract;\n    // borrower\n\n    struct Borrower{\n        address owner;\n        uint idContract;\n        address assetBorrow;\n        uint ammounBorrow; // da correggere\n        //uint heltBorrow;\n        address assetCollaterl;\n        uint amountCollateral;\n        uint liquidationThreshold;\n        uint expiration;\n        uint blockStart;\n        uint aprLoan;\n        address lender;\n    }\n    mapping(uint => Borrower[]) private borrowersXid;\n    mapping(address => mapping(uint=>Borrower)) private BorrowerContract;\n\n\n    //-------------------------------//\n    constructor(uint _minpenality) Ownable() ReentrancyGuard(){\n        Id.increment();\n        minPenality = _minpenality;\n    }\n    // INTERNAL FUNCTION \n    function _setAssettAvvalible(address _newAsset) internal{\n        require(_newAsset != address(0), \"invalid address\");\n        require(!_findAsset(_newAsset),\"Assett already in list\");\n        assetAvvalible.push(_newAsset);\n        emit NewAssetAvvalible(_newAsset, block.timestamp);   \n    }\n    function _healFactor(uint _priceCollateralETH, uint _priceBorrowEth) internal pure returns(uint){\n        return (_priceCollateralETH/_priceBorrowEth);\n    }\n    function _liquidationThresold( uint _priceBorrowEth,uint _rateLiquidation) internal pure returns(uint){\n        return (\n            //uint _priceCollateralETH,\n            //(_priceCollateralETH * _priceBorrowEth)/(_rateLiquidation * _priceBorrowEth)\n            _priceBorrowEth * _rateLiquidation \n\n        );\n    }\n    //-----> Serch function  \n    function _findAsset(address _asset) internal view returns(bool){\n        for(uint i = 0; i<assetAvvalible.length; i++){\n            if(assetAvvalible[i]==_asset){\n                return true;\n            }\n        }\n        return false;\n    }\n    function _getAssettAvvalible()internal view returns (address[] memory ){\n        return assetAvvalible; \n    }\n    //-----> Search function user \n    function _listContractXuser(address _user) internal view returns(uint[] memory){\n       return listContractUser[_user];\n    }\n     function _findContractLending(address _to,uint _id)internal view returns(LendingContract memory){\n        return userLendingContract[_to][_id];\n    }\n     function _findArrayindexContract(address _to,uint deleteId)internal view returns(uint,bool){\n            uint index = 0;\n            bool response = false;\n            for(uint i=0 ;i<listContractUser[_to].length;i++){\n                if (deleteId == listContractUser[_to][i]){\n                    index = i;\n                    response = true;\n                }\n            }\n            return (index,response);\n        \n    }\n    function _findContractAvvalible(uint _IdFind)internal view returns(uint,bool){\n         uint index = 0;\n         bool response = false;\n         for(uint i=0 ;i<listContract.length;i++){\n             if (_IdFind == listContract[i]){\n                 index = i;\n                 response = true;\n             }\n         }\n         return (index,response);\n     \n    }\n    //------> Search function Borrower\n    function _serchIndexBorrowerXContract(uint _idContract,address _borrower) internal view returns(bool,uint){\n      for(uint i =0; i<borrowersXid[_idContract].length;i++ ){\n          if(borrowersXid[_idContract][i].owner == _borrower){\n              return (true,i);\n          }\n      }\n      return (false,0);\n    }\n    function _serchBorrowerPositionXContract(uint _idContract,address _borrower) internal view returns(Borrower memory){\n       for(uint i =0; i<borrowersXid[_idContract].length;i++ ){\n           if(borrowersXid[_idContract][i].owner == _borrower){\n               return (borrowersXid[_idContract][i]);\n           }\n       }\n       revert(\"Borrower for this contract not present\");\n    }\n   \n    // ----> User Function\n    function _deposit(address _to,address _asset,uint _amount,uint _apr,uint _deadline,uint _penality,address _collateral,uint _rateCollateral)internal {\n        //check\n        require(_to != address(0), \"invalid address\");\n        require(_asset != _collateral, \"collateral not valid\");\n        require(_findAsset(_asset),\"asset don't found\");\n        require(_findAsset(_collateral),\"collateral don't found\");\n        require(IERC20(_asset).balanceOf(_to) >= _amount,\"balance user low\");\n        require(IERC20(_asset).allowance(_to, address(this)) >= _amount,\"alowance user low\");\n        require(_deadline > 0,\"deadline must have geatee 0\");\n        require(_penality >=  minPenality,\"penality must have geatee 0\");    \n        // action\n        uint balanceContract = IERC20(_asset).balanceOf(address(this)); \n        IERC20(_asset).transferFrom(_to,address(this), _amount);\n        require(balanceContract+_amount == IERC20(_asset).balanceOf(address(this)));\n        // prepare local variable\n        LendingContract memory newContract= LendingContract(\n            Id.current(),\n            _to,\n            false,\n            _asset,\n            //_amount,\n            _amount,\n            _apr,\n            _deadline,\n            _penality,\n            _collateral,\n            0,\n            _rateCollateral,\n            0\n        );\n        // update status global variable\n        userLendingContract[_to][Id.current()] = newContract;\n        emit NewContractDeposit(\n            Id.current(),_to,_asset,_amount,_apr,_deadline,_penality, _collateral\n        );\n        listContractUser[_to].push(Id.current());\n        listContract.push(Id.current());\n        Id.increment();\n\n\n    }\n    function _increasDeposit(address _to,uint _idContract, uint _increasAmount) internal  contractOwner(_to, _idContract){\n        require(_increasAmount > 0, \"increas must be plus 0\");\n        require(IERC20(_findContractLending(_to,_idContract).asset).balanceOf(_to) >= _increasAmount,\"balance user low\");\n        require(IERC20(_findContractLending(_to,_idContract).asset).allowance(_to, address(this)) >= _increasAmount,\"alowance user low\");\n        \n        uint balanceContract = IERC20(_findContractLending(_to,_idContract).asset).balanceOf(address(this)); \n        IERC20(_findContractLending(_to,_idContract).asset).transferFrom(_to,address(this), _increasAmount);\n        require(balanceContract+_increasAmount == IERC20(_findContractLending(_to,_idContract).asset).balanceOf(address(this)));\n\n        userLendingContract[_to][_idContract].amountAvvalible += _increasAmount; \n\n        emit IncreasContractDeposit(\n            _findContractLending(_to,_idContract).id,\n            _findContractLending(_to,_idContract).amountAvvalible - _increasAmount,\n            _findContractLending(_to,_idContract).amountAvvalible  \n        );\n    }\n    function _decreasDeposit(address _to,uint _idContract, uint _decreasAmount) internal contractOwner(_to, _idContract){\n        require(_decreasAmount > 0, \"increas must be plus 0\");\n        require(\n            _findContractLending(_to,_idContract).amountAvvalible >= _decreasAmount, \"Assett avvalible insufficient for this whidrow\"\n        );\n     \n\n        userLendingContract[_to][_idContract].amountAvvalible -= _decreasAmount;\n\n        uint balanceContract = IERC20(_findContractLending(_to,_idContract).asset).balanceOf(address(this)); \n        IERC20(_findContractLending(_to,_idContract).asset).transfer(_to,_decreasAmount);\n        require(balanceContract -_decreasAmount == IERC20(_findContractLending(_to,_idContract).asset).balanceOf(address(this)));\n\n        emit DecreasContractDeposit(\n            _findContractLending(_to,_idContract).id,\n            _findContractLending(_to,_idContract).amountAvvalible + _decreasAmount,\n            _findContractLending(_to,_idContract).amountAvvalible\n            \n        );\n\n    }\n    function _deleteContract(address _to,uint _idContract)internal contractOwner(_to, _idContract){\n       require(\n            _findContractLending(_to,_idContract).amountBorrow == 0, \"Contract have asset in borrow\"\n        ); \n        uint amountRepay = userLendingContract[_to][_idContract].amountAvvalible;\n        uint deleteId = userLendingContract[_to][_idContract].id;\n        address assetWidrow =_findContractLending(_to,_idContract).asset;\n        delete userLendingContract[_to][_idContract];\n        if(listContractUser[_to].length > 0){\n             // serch index of delete\n            (uint indexDelete, bool response) = _findArrayindexContract(_to, deleteId);\n            if(response){\n                //clean array\n                listContractUser[_to][indexDelete]=listContractUser[_to][listContractUser[_to].length -1];\n                listContractUser[_to].pop();\n            }\n        }else{\n            listContractUser[_to].pop(); // clean array\n        }\n          if(listContract.length > 0){\n             // serch index of delete\n            (uint indexDelete, bool response) = _findContractAvvalible(_idContract);\n            if(response){\n                //clean array\n                listContract[indexDelete] = listContract[listContract.length -1];\n                listContract.pop();\n            }\n        }else{\n            listContract.pop(); // clean array\n        }\n        uint balanceContract = IERC20(assetWidrow).balanceOf(address(this)); \n        IERC20(assetWidrow).transfer(_to,amountRepay);\n        require(balanceContract -amountRepay == IERC20(assetWidrow).balanceOf(address(this)));\n\n        emit DeleteContractDeposit(_to, deleteId);\n    }\n    function _lockNewBorrow(address _to,uint _idContract,bool _lock)internal contractOwner(_to, _idContract){\n             lock[_idContract] = _lock;\n            //userLendingContract[_to][_idContract].lock = _lock;   \n       \n    }\n    //BORROW FUNCTION\n    function _executeBorrow(address _to,uint _idContract,address _lender,uint _amountBorrow,address _assettCollateral,uint _amountCollateral) internal {\n        require(lock[_idContract] == false, \"questo funziona\");\n        require(userLendingContract[_to][_idContract].lock == false,\"This lender has blocked the issuance of new Loan\");\n        (,bool response) = _findArrayindexContract(_lender,_idContract);\n        require(response,\"contract dont exist\");\n        require(userLendingContract[_lender][_idContract].amountAvvalible >= _amountBorrow,\"Amount avvalible low\");\n        //// controll and utility  local var\n        //uint _priceCollateralETH = _mockOracleCollateral();// fix with true oracle\n        uint _priceBorrowEth = _mockOracleBorrow();// fix with true oracle\n        uint _rateLiquidation = userLendingContract[_lender][_idContract].rateCollateral;\n        (bool responseSrc,uint indexBorrow) = _serchIndexBorrowerXContract(_idContract, _to);\n        //check before act borrow \n      \n    \n        if(!responseSrc){\n            _newBorrower(_to,_lender, _idContract, _assettCollateral, _amountCollateral, _amountBorrow, _rateLiquidation);\n        }else{\n            require(_liquidationThresold(\n                          //_priceCollateralETH*borrowersXid[_idContract][indexBorrow].ammounBorrow,\n                          _priceBorrowEth*borrowersXid[_idContract][indexBorrow].amountCollateral,\n                           _rateLiquidation) > _mockOracleBorrow());\n            _oldBorrower(_to, _lender, _idContract, _assettCollateral, _amountCollateral, _amountBorrow, _rateLiquidation, indexBorrow);\n\n        }\n\n        emit Borrow(_to, _idContract, _amountBorrow);\n    }\n\n    function _oldBorrower(address _to,address _lender,uint _idContract,address _assettCollateral,uint _amountCollateral,uint _amountBorrow, uint _rateLiquidation,uint indexBorrow)internal {\n        // gia cliente??\n        // aggiorniamo i conti vecchi \n        // aggiungere al controllo le coin gia depositate e prese in prestito \n        require(_to == borrowersXid[_idContract][indexBorrow].owner, \"Not owner this loan\" );\n        require(_healFactor(_mockOracleCollateral() *(borrowersXid[_idContract][indexBorrow].amountCollateral + _amountCollateral),\n                             _mockOracleBorrow() *(borrowersXid[_idContract][indexBorrow].ammounBorrow + _amountBorrow)\n                             )> userLendingContract[_lender][_idContract].rateCollateral); \n\n        uint balanceBefore = IERC20(_assettCollateral).balanceOf(address(this));\n            IERC20(_assettCollateral).transferFrom(_to, address(this), _amountCollateral);\n            require( balanceBefore + _amountCollateral == IERC20(_assettCollateral).balanceOf(address(this)));\n\n            borrowersXid[_idContract][indexBorrow].ammounBorrow += _amountBorrow;// aggiornata la variabile globale\n            borrowersXid[_idContract][indexBorrow].amountCollateral += _amountCollateral;// aggiornata la variabile globale\n            // updata thresoldLiquidation \n            borrowersXid[_idContract][indexBorrow].liquidationThreshold =\n                    _liquidationThresold(\n                        //_mockOracleCollateral()*borrowersXid[_idContract][indexBorrow].amountCollateral,\n                        _mockOracleBorrow()*borrowersXid[_idContract][indexBorrow].ammounBorrow,\n                         _rateLiquidation);\n\n            userLendingContract[_lender][_idContract].amountAvvalible -=_amountBorrow;// togliamo le coin prestare\n            userLendingContract[_lender][_idContract].amountBorrow += _amountBorrow; // incrementiamo il capitale prestato\n            userLendingContract[_lender][_idContract].amountCollateral += _amountCollateral;// aggiungiamo la quantita di collaterale presente nel contratto\n            BorrowerContract[_to][indexBorrow] = borrowersXid[_idContract][indexBorrow];\n            IERC20(userLendingContract[_lender][_idContract].asset).transfer(_to, _amountBorrow);\n\n    }\n\n    function _newBorrower(address _to,address _lender,uint _idContract,address _assettCollateral,uint _amountCollateral,uint _amountBorrow, uint _rateLiquidation)internal {\n        // nuovo cliente????\n        // conti nuovi\n        require(_healFactor(_mockOracleCollateral() * _amountCollateral, _mockOracleBorrow()*_amountBorrow) > userLendingContract[_lender][_idContract].rateCollateral);\n        // spreco di gas????\n        uint balanceBefore = IERC20(_assettCollateral).balanceOf(address(this));\n        IERC20(_assettCollateral).transferFrom(_to, address(this), _amountCollateral);\n        require( balanceBefore + _amountCollateral == IERC20(_assettCollateral).balanceOf(address(this)));\n        // preparazione dei dati del borrower non ancora settat nella variabile locale\n        Borrower memory newBorrower = Borrower(\n                                            _to,\n                                            _idContract,\n                                            userLendingContract[_lender][_idContract].asset,\n                                            _amountBorrow,\n                                            //uint heltBorrow;\n                                            _assettCollateral,\n                                            _amountCollateral,\n                                            _liquidationThresold(\n                                                //_mockOracleCollateral()*_amountCollateral,\n                                                 _mockOracleBorrow()*_amountBorrow,\n                                                 _rateLiquidation),\n                                            block.timestamp + userLendingContract[_lender][_idContract].duration,\n                                            block.timestamp,\n                                            _findContractLending(_lender,_idContract).apr,\n                                            _lender\n\n                                            );\n\n        borrowersXid[_idContract].push(newBorrower);// aggiornata la variabile locale\n        // aggiorniamo i dati del lender\n\n        userLendingContract[_lender][_idContract].amountAvvalible -=_amountBorrow;// togliamo le coin prestare\n        userLendingContract[_lender][_idContract].amountBorrow += _amountBorrow; // incrementiamo il capitale prestato\n        userLendingContract[_lender][_idContract].amountCollateral += _amountCollateral;// aggiungiamo la quantita di collaterale presente nel contratto\n        BorrowerContract[_to][borrowersXid[_idContract].length] = newBorrower;\n        IERC20(userLendingContract[_lender][_idContract].asset).transfer(_to, _amountBorrow);\n    }\n    \n    // EXTERNAL FUNCTION\n    function setAssettAvvalible(address _newAsset) external nonReentrant() onlyOwner() {\n        _setAssettAvvalible(_newAsset);\n    } \n    function findAsset(address _asset) external view returns(bool){\n        return _findAsset(_asset);\n    }\n    function deposit(address _asset,uint _amount,uint _apr,uint _deadline,uint _penality,address _collateral,uint _rateCollateral) external nonReentrant() {\n        _deposit(msg.sender, _asset, _amount, _apr, _deadline, _penality, _collateral,_rateCollateral);\n    }\n    function listContractXuser(address _user) external view returns(uint[] memory){\n        return _listContractXuser(_user);\n    }\n    function getAssettAvvalible()external view returns (address[] memory ){\n        return _getAssettAvvalible(); \n    }\n    function findContractLending(address _to,uint _id)external view returns(LendingContract memory){\n        return _findContractLending(_to, _id);\n    }\n     function increasDeposit(uint _idContract, uint _increasAmount) external nonReentrant(){\n        _increasDeposit(msg.sender, _idContract, _increasAmount);\n    }\n    function decreasDeposit(uint _idContract, uint _decreasAmount) external nonReentrant(){\n        _decreasDeposit(msg.sender, _idContract, _decreasAmount);\n    }\n    function deleteContract(uint _idContract) external nonReentrant(){\n        _deleteContract(msg.sender, _idContract);\n    }\n     function executeBorrow(uint _idContract,address _lender,uint _amountBorrow,address _assettCollateral,uint _amountCollateral) external nonReentrant(){\n        _executeBorrow(msg.sender, _idContract, _lender, _amountBorrow, _assettCollateral, _amountCollateral);\n    }\n    function serchBorrowerPositionXContract(uint _idContract,address _borrower) external view returns (Borrower memory){\n        return _serchBorrowerPositionXContract(_idContract, _borrower);\n\n    }\n    function serchIndexBorrowerXContract(uint _idContract,address _borrower)external view returns(uint){\n        (,uint idFind) = _serchIndexBorrowerXContract(_idContract, _borrower);\n        return idFind;\n    }\n    mapping ( uint => bool) private lock;\n    function lockNewBorrow(address _to,uint _idContract,bool _lock)external nonReentrant(){\n       \n        _lockNewBorrow(_to, _idContract,_lock);\n    }\n\n    //// ^^^^^TESTED^^^^^\n    /// vvvvvvNON TESTEDvvvvv\n   \n    // MODIFIER\n    modifier contractOwner(address _to,uint _idContract){\n        require(\n           _findContractLending(_to,_idContract).owner == _to, \"Not owner this contract\" \n        );\n        _;\n    }\n    // EVENT \n\n     event NewAssetAvvalible(address indexed asset, uint timeStart);\n     event NewContractDeposit(\n        uint Id,\n        address indexed owner,\n        address indexed asset,\n        uint amount,\n        uint apr,\n        uint  deadline,\n        uint  penality,\n        address indexed collateral\n     );\n     event IncreasContractDeposit(\n        uint Id,\n        uint indexed amount,\n        uint indexed newAmount\n     );\n     event DecreasContractDeposit(\n        uint Id,\n        uint indexed amount,\n        uint indexed newAmount\n     );\n\n     event DeleteContractDeposit(\n        address indexed owner,\n        uint indexed id\n     );\n     event Borrow( address indexed Borrower,uint indexed Id_Contract, uint amount);\n\n    // mock function\n\n    function _mockOracleBorrow() internal pure returns(uint price){\n        price = 2;\n    }\n\n    function _mockOracleCollateral() internal pure returns(uint price){\n        price = 1;\n\n    }\n\n\n    //wiew amount of repay \n    function viewAmountLoan(address  _borrower,uint _idContract) external view returns(uint loanCompouse) {\n        Borrower memory loanSituation = _serchBorrowerPositionXContract(_idContract, _borrower);\n        uint apr = loanSituation.aprLoan;\n        uint blockStart = loanSituation.blockStart; \n        loanCompouse= _getTotalLoan(loanSituation.ammounBorrow,apr,blockStart); \n        }\n\n\n    // return loan + interest\n    function _getTotalLoan(uint _loan,uint _apr,uint _blockStart) internal  view returns(uint) {\n    uint deltaTime = block.timestamp - _blockStart;\n    uint loanCompouse = _loan + uint((_loan*_apr*deltaTime) / (100*365*24*60*60)) + 1;\n    //uint interestLoan = loanCompouse - _loan;\n    return loanCompouse;\n    }\n\n    // return only interest\n    function _getinterest(uint _loan,uint _apr,uint _blockStart) internal  view returns(uint interestLoan) {\n        interestLoan = _getTotalLoan(_loan, _apr, _blockStart) - _loan;\n    }\n    function _penalityLoan() internal {\n        // da fare \n    }\n\n    function _repay(address _to, uint _idContract,uint _amount) internal {\n        Borrower memory loanSituation = _serchBorrowerPositionXContract(_idContract, _to);\n        require(_to  == loanSituation.owner ,\"Not owner this loan\");\n\n        if(block.timestamp > loanSituation.expiration){\n            _penalityLoan();// gestire la penalit\n        }else{\n            require(_executeRepay(loanSituation, _amount, _to, _idContract),\"Repay error\");\n        }\n    }\n\n    function _executeRepay(Borrower memory loanSituation, uint _amount,address _to,uint _idContract) internal returns(bool){\n        // portiamo ad adesso la situazione\n            loanSituation.ammounBorrow = _getTotalLoan(\n                loanSituation.ammounBorrow,loanSituation.aprLoan,loanSituation.blockStart);\n            // ripagando si ricomincia il calcolo degli interessi come fosse un prestito nuovo\n            require(loanSituation.ammounBorrow >= _amount, \"You can only Loan amount\");\n\n            uint Balance = IERC20(loanSituation.assetBorrow).balanceOf(address(this));\n            IERC20(loanSituation.assetBorrow).transferFrom(_to,address(this), _amount);\n            assert(Balance == IERC20(loanSituation.assetBorrow).balanceOf(address(this))+_amount);\n\n            // receipt the \"ternis\" update the data lender and borrower\n            address _lender = loanSituation.lender;\n            userLendingContract[_lender][_idContract].amountBorrow -= _amount;\n            userLendingContract[_lender][_idContract].amountAvvalible += _amount;\n\n            (,uint indexBorrow) = _serchIndexBorrowerXContract(_idContract, _to);\n\n\n            borrowersXid[_idContract][indexBorrow].ammounBorrow -= _amount;\n            borrowersXid[_idContract][indexBorrow].blockStart = block.timestamp;\n            borrowersXid[_idContract][indexBorrow].liquidationThreshold = \n                _liquidationThresold(\n                      borrowersXid[_idContract][indexBorrow].ammounBorrow * _mockOracleBorrow(),\n                      userLendingContract[_lender][_idContract].rateCollateral);\n            return true;\n    }\n\n\n\n/**\n    3 -> Ripagare il Borrow e cambiare il margine\n            -> Applicare qui la Fee ? \n\n    4 -> Liquidazione collatterale, \n            -> problema -> Calcolo matematico \n            -> Quanto liquidare?\n            -> Come cambiano i valori dopo la liquidazione?\n            -> Voglio dare al lender la possibilit di vendere a mercato la liquidazione? \n            -> Gestione delle fee da pagare al protocollo \n    \n    5 -> a carico di chi sono le fee? lender o borrower ?\n            -> dove prendere le fee? \n                -> dall interesse del lender\n                    -> come lo calcolo?\n                    -> quando le prendo ?\n                -> dal pagamento del debito ? \n                    ->  pi vantaggioso progettualmente\n                    ->  competitiva come strategia?\n            -> HOW MUCH ????\n                -> 0.50% su ogni pagamento ???? -> tariffa standard\n                -> 1% fino al 5%        Tariffa liquidazione\n                -> 2% dal 5% al 10%     Tariffa liquidazione\n                -> 4% dal 10% al 20%    Tariffa liquidazione\n                -> 5% dal 20% al 30%    Tariffa liquidazione\n                -> 6% dal 30% al 100%   Tariffa liquidazione\n                    -> Vendere a mercato e realizare subito usd?\n                    -> detenere gli asset? \n                    -> miso detenere blue chips e dumpare il resto.\n \n\n nonReentrant()\n onlyOwner()\n \n\n\n \n */\n}",
  "sourcePath": "/media/leluk/storage/Studio Dev/Dapp portfolio/individual lending/contracts/Individual_lending.sol",
  "compiler": {
    "name": "solc",
    "version": "0.8.7+commit.e28d00a7.Emscripten.clang"
  },
  "schemaVersion": "3.4.7",
  "updatedAt": "2022-06-22T19:40:11.158Z",
  "devdoc": {
    "kind": "dev",
    "methods": {
      "owner()": {
        "details": "Returns the address of the current owner."
      },
      "renounceOwnership()": {
        "details": "Leaves the contract without owner. It will not be possible to call `onlyOwner` functions anymore. Can only be called by the current owner. NOTE: Renouncing ownership will leave the contract without an owner, thereby removing any functionality that is only available to the owner."
      },
      "transferOwnership(address)": {
        "details": "Transfers ownership of the contract to a new account (`newOwner`). Can only be called by the current owner."
      }
    },
    "version": 1
  },
  "userdoc": {
    "kind": "user",
    "methods": {},
    "version": 1
  }
}