{
  "contractName": "lendingPage",
  "abi": [
    {
      "inputs": [
        {
          "internalType": "uint256",
          "name": "_minpenality",
          "type": "uint256"
        }
      ],
      "stateMutability": "nonpayable",
      "type": "constructor"
    },
    {
      "anonymous": false,
      "inputs": [
        {
          "indexed": true,
          "internalType": "address",
          "name": "Borrower",
          "type": "address"
        },
        {
          "indexed": true,
          "internalType": "uint256",
          "name": "Id_Contract",
          "type": "uint256"
        },
        {
          "indexed": false,
          "internalType": "uint256",
          "name": "amount",
          "type": "uint256"
        }
      ],
      "name": "Borrow",
      "type": "event"
    },
    {
      "anonymous": false,
      "inputs": [
        {
          "indexed": false,
          "internalType": "uint256",
          "name": "Id",
          "type": "uint256"
        },
        {
          "indexed": true,
          "internalType": "uint256",
          "name": "amount",
          "type": "uint256"
        },
        {
          "indexed": true,
          "internalType": "uint256",
          "name": "newAmount",
          "type": "uint256"
        }
      ],
      "name": "DecreasContractDeposit",
      "type": "event"
    },
    {
      "anonymous": false,
      "inputs": [
        {
          "indexed": true,
          "internalType": "address",
          "name": "owner",
          "type": "address"
        },
        {
          "indexed": true,
          "internalType": "uint256",
          "name": "id",
          "type": "uint256"
        }
      ],
      "name": "DeleteContractDeposit",
      "type": "event"
    },
    {
      "anonymous": false,
      "inputs": [
        {
          "indexed": false,
          "internalType": "uint256",
          "name": "Id",
          "type": "uint256"
        },
        {
          "indexed": true,
          "internalType": "uint256",
          "name": "amount",
          "type": "uint256"
        },
        {
          "indexed": true,
          "internalType": "uint256",
          "name": "newAmount",
          "type": "uint256"
        }
      ],
      "name": "IncreasContractDeposit",
      "type": "event"
    },
    {
      "anonymous": false,
      "inputs": [
        {
          "indexed": true,
          "internalType": "address",
          "name": "asset",
          "type": "address"
        },
        {
          "indexed": false,
          "internalType": "uint256",
          "name": "timeStart",
          "type": "uint256"
        }
      ],
      "name": "NewAssetAvvalible",
      "type": "event"
    },
    {
      "anonymous": false,
      "inputs": [
        {
          "indexed": false,
          "internalType": "uint256",
          "name": "Id",
          "type": "uint256"
        },
        {
          "indexed": true,
          "internalType": "address",
          "name": "owner",
          "type": "address"
        },
        {
          "indexed": true,
          "internalType": "address",
          "name": "asset",
          "type": "address"
        },
        {
          "indexed": false,
          "internalType": "uint256",
          "name": "amount",
          "type": "uint256"
        },
        {
          "indexed": false,
          "internalType": "uint256",
          "name": "apr",
          "type": "uint256"
        },
        {
          "indexed": false,
          "internalType": "uint256",
          "name": "deadline",
          "type": "uint256"
        },
        {
          "indexed": false,
          "internalType": "uint256",
          "name": "penality",
          "type": "uint256"
        },
        {
          "indexed": true,
          "internalType": "address",
          "name": "collateral",
          "type": "address"
        }
      ],
      "name": "NewContractDeposit",
      "type": "event"
    },
    {
      "anonymous": false,
      "inputs": [
        {
          "indexed": true,
          "internalType": "address",
          "name": "previousOwner",
          "type": "address"
        },
        {
          "indexed": true,
          "internalType": "address",
          "name": "newOwner",
          "type": "address"
        }
      ],
      "name": "OwnershipTransferred",
      "type": "event"
    },
    {
      "inputs": [],
      "name": "owner",
      "outputs": [
        {
          "internalType": "address",
          "name": "",
          "type": "address"
        }
      ],
      "stateMutability": "view",
      "type": "function"
    },
    {
      "inputs": [],
      "name": "renounceOwnership",
      "outputs": [],
      "stateMutability": "nonpayable",
      "type": "function"
    },
    {
      "inputs": [
        {
          "internalType": "address",
          "name": "newOwner",
          "type": "address"
        }
      ],
      "name": "transferOwnership",
      "outputs": [],
      "stateMutability": "nonpayable",
      "type": "function"
    },
    {
      "inputs": [
        {
          "internalType": "address",
          "name": "_newAsset",
          "type": "address"
        }
      ],
      "name": "setAssettAvvalible",
      "outputs": [],
      "stateMutability": "nonpayable",
      "type": "function"
    },
    {
      "inputs": [
        {
          "internalType": "address",
          "name": "_asset",
          "type": "address"
        }
      ],
      "name": "findAsset",
      "outputs": [
        {
          "internalType": "bool",
          "name": "",
          "type": "bool"
        }
      ],
      "stateMutability": "view",
      "type": "function"
    },
    {
      "inputs": [
        {
          "internalType": "address",
          "name": "_asset",
          "type": "address"
        },
        {
          "internalType": "uint256",
          "name": "_amount",
          "type": "uint256"
        },
        {
          "internalType": "uint256",
          "name": "_apr",
          "type": "uint256"
        },
        {
          "internalType": "uint256",
          "name": "_deadline",
          "type": "uint256"
        },
        {
          "internalType": "uint256",
          "name": "_penality",
          "type": "uint256"
        },
        {
          "internalType": "address",
          "name": "_collateral",
          "type": "address"
        },
        {
          "internalType": "uint256",
          "name": "_rateCollateral",
          "type": "uint256"
        }
      ],
      "name": "deposit",
      "outputs": [],
      "stateMutability": "nonpayable",
      "type": "function"
    },
    {
      "inputs": [
        {
          "internalType": "address",
          "name": "_user",
          "type": "address"
        }
      ],
      "name": "listContractXuser",
      "outputs": [
        {
          "internalType": "uint256[]",
          "name": "",
          "type": "uint256[]"
        }
      ],
      "stateMutability": "view",
      "type": "function"
    },
    {
      "inputs": [],
      "name": "getAssettAvvalible",
      "outputs": [
        {
          "internalType": "address[]",
          "name": "",
          "type": "address[]"
        }
      ],
      "stateMutability": "view",
      "type": "function"
    },
    {
      "inputs": [
        {
          "internalType": "address",
          "name": "_to",
          "type": "address"
        },
        {
          "internalType": "uint256",
          "name": "_id",
          "type": "uint256"
        }
      ],
      "name": "findContractLending",
      "outputs": [
        {
          "components": [
            {
              "internalType": "uint256",
              "name": "id",
              "type": "uint256"
            },
            {
              "internalType": "address",
              "name": "owner",
              "type": "address"
            },
            {
              "internalType": "bool",
              "name": "lock",
              "type": "bool"
            },
            {
              "internalType": "address",
              "name": "asset",
              "type": "address"
            },
            {
              "internalType": "uint256",
              "name": "amountAvvalible",
              "type": "uint256"
            },
            {
              "internalType": "uint256",
              "name": "apr",
              "type": "uint256"
            },
            {
              "internalType": "uint256",
              "name": "duration",
              "type": "uint256"
            },
            {
              "internalType": "uint256",
              "name": "penality",
              "type": "uint256"
            },
            {
              "internalType": "address",
              "name": "collateral",
              "type": "address"
            },
            {
              "internalType": "uint256",
              "name": "amountBorrow",
              "type": "uint256"
            },
            {
              "internalType": "uint256",
              "name": "rateCollateral",
              "type": "uint256"
            },
            {
              "internalType": "uint256",
              "name": "amountCollateral",
              "type": "uint256"
            }
          ],
          "internalType": "struct lendingPage.LendingContract",
          "name": "",
          "type": "tuple"
        }
      ],
      "stateMutability": "view",
      "type": "function"
    },
    {
      "inputs": [
        {
          "internalType": "uint256",
          "name": "_idContract",
          "type": "uint256"
        },
        {
          "internalType": "uint256",
          "name": "_increasAmount",
          "type": "uint256"
        }
      ],
      "name": "increasDeposit",
      "outputs": [],
      "stateMutability": "nonpayable",
      "type": "function"
    },
    {
      "inputs": [
        {
          "internalType": "uint256",
          "name": "_idContract",
          "type": "uint256"
        },
        {
          "internalType": "uint256",
          "name": "_decreasAmount",
          "type": "uint256"
        }
      ],
      "name": "decreasDeposit",
      "outputs": [],
      "stateMutability": "nonpayable",
      "type": "function"
    },
    {
      "inputs": [
        {
          "internalType": "uint256",
          "name": "_idContract",
          "type": "uint256"
        }
      ],
      "name": "deleteContract",
      "outputs": [],
      "stateMutability": "nonpayable",
      "type": "function"
    },
    {
      "inputs": [
        {
          "internalType": "uint256",
          "name": "_idContract",
          "type": "uint256"
        },
        {
          "internalType": "address",
          "name": "_lender",
          "type": "address"
        },
        {
          "internalType": "uint256",
          "name": "_amountBorrow",
          "type": "uint256"
        },
        {
          "internalType": "address",
          "name": "_assettCollateral",
          "type": "address"
        },
        {
          "internalType": "uint256",
          "name": "_amountCollateral",
          "type": "uint256"
        }
      ],
      "name": "executeBorrow",
      "outputs": [],
      "stateMutability": "nonpayable",
      "type": "function"
    },
    {
      "inputs": [
        {
          "internalType": "uint256",
          "name": "_idContract",
          "type": "uint256"
        },
        {
          "internalType": "address",
          "name": "_borrower",
          "type": "address"
        }
      ],
      "name": "serchBorrowerPositionXContract",
      "outputs": [
        {
          "components": [
            {
              "internalType": "address",
              "name": "owner",
              "type": "address"
            },
            {
              "internalType": "uint256",
              "name": "idContract",
              "type": "uint256"
            },
            {
              "internalType": "address",
              "name": "assetBorrow",
              "type": "address"
            },
            {
              "internalType": "uint256",
              "name": "ammounBorrow",
              "type": "uint256"
            },
            {
              "internalType": "address",
              "name": "assetCollaterl",
              "type": "address"
            },
            {
              "internalType": "uint256",
              "name": "amountCollateral",
              "type": "uint256"
            },
            {
              "internalType": "uint256",
              "name": "liquidationThreshold",
              "type": "uint256"
            },
            {
              "internalType": "uint256",
              "name": "expiration",
              "type": "uint256"
            }
          ],
          "internalType": "struct lendingPage.Borrower",
          "name": "",
          "type": "tuple"
        }
      ],
      "stateMutability": "view",
      "type": "function"
    },
    {
      "inputs": [
        {
          "internalType": "uint256",
          "name": "_idContract",
          "type": "uint256"
        },
        {
          "internalType": "address",
          "name": "_borrower",
          "type": "address"
        }
      ],
      "name": "serchIndexBorrowerXContract",
      "outputs": [
        {
          "internalType": "uint256",
          "name": "",
          "type": "uint256"
        }
      ],
      "stateMutability": "view",
      "type": "function"
    },
    {
      "inputs": [
        {
          "internalType": "address",
          "name": "_to",
          "type": "address"
        },
        {
          "internalType": "uint256",
          "name": "_idContract",
          "type": "uint256"
        },
        {
          "internalType": "bool",
          "name": "_lock",
          "type": "bool"
        }
      ],
      "name": "lockNewBorrow",
      "outputs": [],
      "stateMutability": "nonpayable",
      "type": "function"
    }
  ],
  "bytecode": "0x60806040523480156200001157600080fd5b506040516200564c3803806200564c83398181016040528101906200003791906200017c565b620000576200004b6200008360201b60201c565b6200008b60201b60201c565b600180819055506200007560026200014f60201b620008891760201c565b8060048190555050620001d7565b600033905090565b60008060009054906101000a900473ffffffffffffffffffffffffffffffffffffffff169050816000806101000a81548173ffffffffffffffffffffffffffffffffffffffff021916908373ffffffffffffffffffffffffffffffffffffffff1602179055508173ffffffffffffffffffffffffffffffffffffffff168173ffffffffffffffffffffffffffffffffffffffff167f8be0079c531659141344cd1fd0a4f28419497f9722a3daafe3b4186f6b6457e060405160405180910390a35050565b6001816000016000828254019250508190555050565b6000815190506200017681620001bd565b92915050565b600060208284031215620001955762000194620001b8565b5b6000620001a58482850162000165565b91505092915050565b6000819050919050565b600080fd5b620001c881620001ae565b8114620001d457600080fd5b50565b61546580620001e76000396000f3fe608060405234801561001057600080fd5b50600436106101005760003560e01c80638990616d11610097578063e1e3769b11610066578063e1e3769b1461026f578063e236b6f01461029f578063e2bb0eb9146102cf578063f2fde38b146102ff57610100565b80638990616d146101e95780638da5cb5b14610205578063a54bbcb714610223578063aa6741491461025357610100565b80636893d336116100d35780636893d336146101895780636f25b8f6146101a5578063715018a6146101c1578063726adaa4146101cb57610100565b80631392ed751461010557806319dda45c14610121578063460e90d01461013d578063470872151461016d575b600080fd5b61011f600480360381019061011a91906140e1565b61031b565b005b61013b600480360381019061013691906142c5565b610389565b005b61015760048036038101906101529190614021565b6103ed565b6040516101649190614988565b60405180910390f35b610187600480360381019061018291906142c5565b6103ff565b005b6101a3600480360381019061019e91906141b0565b610463565b005b6101bf60048036038101906101ba919061424a565b6104c5565b005b6101c961052f565b005b6101d36105b7565b6040516101e09190614966565b60405180910390f35b61020360048036038101906101fe9190614021565b6105c6565b005b61020d6106a3565b60405161021a91906148c2565b60405180910390f35b61023d6004803603810190610238919061420a565b6106cc565b60405161024a9190614c65565b60405180910390f35b61026d6004803603810190610268919061408e565b6106e6565b005b6102896004803603810190610284919061420a565b61074b565b6040516102969190614c9d565b60405180910390f35b6102b960048036038101906102b4919061404e565b610765565b6040516102c69190614c81565b60405180910390f35b6102e960048036038101906102e49190614021565b61077f565b6040516102f691906149aa565b60405180910390f35b61031960048036038101906103149190614021565b610791565b005b60026001541415610361576040517f08c379a000000000000000000000000000000000000000000000000000000000815260040161035890614c05565b60405180910390fd5b6002600181905550610379338888888888888861089f565b6001808190555050505050505050565b600260015414156103cf576040517f08c379a00000000000000000000000000000000000000000000000000000000081526004016103c690614c05565b60405180910390fd5b60026001819055506103e233838361117a565b600180819055505050565b60606103f8826116ac565b9050919050565b60026001541415610445576040517f08c379a000000000000000000000000000000000000000000000000000000000815260040161043c90614c05565b60405180910390fd5b6002600181905550610458338383611743565b600180819055505050565b600260015414156104a9576040517f08c379a00000000000000000000000000000000000000000000000000000000081526004016104a090614c05565b60405180910390fd5b60026001819055506104bb3382611b11565b6001808190555050565b6002600154141561050b576040517f08c379a000000000000000000000000000000000000000000000000000000000815260040161050290614c05565b60405180910390fd5b60026001819055506105213386868686866122d2565b600180819055505050505050565b61053761261d565b73ffffffffffffffffffffffffffffffffffffffff166105556106a3565b73ffffffffffffffffffffffffffffffffffffffff16146105ab576040517f08c379a00000000000000000000000000000000000000000000000000000000081526004016105a290614b45565b60405180910390fd5b6105b56000612625565b565b60606105c16126e9565b905090565b6002600154141561060c576040517f08c379a000000000000000000000000000000000000000000000000000000000815260040161060390614c05565b60405180910390fd5b600260018190555061061c61261d565b73ffffffffffffffffffffffffffffffffffffffff1661063a6106a3565b73ffffffffffffffffffffffffffffffffffffffff1614610690576040517f08c379a000000000000000000000000000000000000000000000000000000000815260040161068790614b45565b60405180910390fd5b61069981612777565b6001808190555050565b60008060009054906101000a900473ffffffffffffffffffffffffffffffffffffffff16905090565b6106d4613e8c565b6106de83836128e4565b905092915050565b6002600154141561072c576040517f08c379a000000000000000000000000000000000000000000000000000000000815260040161072390614c05565b60405180910390fd5b600260018190555061073f838383612b67565b60018081905550505050565b6000806107588484612c16565b9150508091505092915050565b61076d613f13565b6107778383612cf4565b905092915050565b600061078a82612ecd565b9050919050565b61079961261d565b73ffffffffffffffffffffffffffffffffffffffff166107b76106a3565b73ffffffffffffffffffffffffffffffffffffffff161461080d576040517f08c379a000000000000000000000000000000000000000000000000000000000815260040161080490614b45565b60405180910390fd5b600073ffffffffffffffffffffffffffffffffffffffff168173ffffffffffffffffffffffffffffffffffffffff16141561087d576040517f08c379a000000000000000000000000000000000000000000000000000000000815260040161087490614a05565b60405180910390fd5b61088681612625565b50565b6001816000016000828254019250508190555050565b600073ffffffffffffffffffffffffffffffffffffffff168873ffffffffffffffffffffffffffffffffffffffff16141561090f576040517f08c379a000000000000000000000000000000000000000000000000000000000815260040161090690614aa5565b60405180910390fd5b8173ffffffffffffffffffffffffffffffffffffffff168773ffffffffffffffffffffffffffffffffffffffff16141561097e576040517f08c379a000000000000000000000000000000000000000000000000000000000815260040161097590614a25565b60405180910390fd5b61098787612ecd565b6109c6576040517f08c379a00000000000000000000000000000000000000000000000000000000081526004016109bd906149e5565b60405180910390fd5b6109cf82612ecd565b610a0e576040517f08c379a0000000000000000000000000000000000000000000000000000000008152600401610a0590614ae5565b60405180910390fd5b858773ffffffffffffffffffffffffffffffffffffffff166370a082318a6040518263ffffffff1660e01b8152600401610a4891906148c2565b60206040518083038186803b158015610a6057600080fd5b505afa158015610a74573d6000803e3d6000fd5b505050506040513d601f19601f82011682018060405250810190610a9891906141dd565b1015610ad9576040517f08c379a0000000000000000000000000000000000000000000000000000000008152600401610ad090614a45565b60405180910390fd5b858773ffffffffffffffffffffffffffffffffffffffff1663dd62ed3e8a306040518363ffffffff1660e01b8152600401610b159291906148dd565b60206040518083038186803b158015610b2d57600080fd5b505afa158015610b41573d6000803e3d6000fd5b505050506040513d601f19601f82011682018060405250810190610b6591906141dd565b1015610ba6576040517f08c379a0000000000000000000000000000000000000000000000000000000008152600401610b9d90614be5565b60405180910390fd5b60008411610be9576040517f08c379a0000000000000000000000000000000000000000000000000000000008152600401610be090614bc5565b60405180910390fd5b600454831015610c2e576040517f08c379a0000000000000000000000000000000000000000000000000000000008152600401610c2590614b65565b60405180910390fd5b60008773ffffffffffffffffffffffffffffffffffffffff166370a08231306040518263ffffffff1660e01b8152600401610c6991906148c2565b60206040518083038186803b158015610c8157600080fd5b505afa158015610c95573d6000803e3d6000fd5b505050506040513d601f19601f82011682018060405250810190610cb991906141dd565b90508773ffffffffffffffffffffffffffffffffffffffff166323b872dd8a308a6040518463ffffffff1660e01b8152600401610cf893929190614906565b602060405180830381600087803b158015610d1257600080fd5b505af1158015610d26573d6000803e3d6000fd5b505050506040513d601f19601f82011682018060405250810190610d4a9190614183565b508773ffffffffffffffffffffffffffffffffffffffff166370a08231306040518263ffffffff1660e01b8152600401610d8491906148c2565b60206040518083038186803b158015610d9c57600080fd5b505afa158015610db0573d6000803e3d6000fd5b505050506040513d601f19601f82011682018060405250810190610dd491906141dd565b8782610de09190614d8e565b14610dea57600080fd5b6000604051806101800160405280610e026002612f7c565b81526020018b73ffffffffffffffffffffffffffffffffffffffff1681526020016000151581526020018a73ffffffffffffffffffffffffffffffffffffffff1681526020018981526020018881526020018781526020018681526020018573ffffffffffffffffffffffffffffffffffffffff168152602001600081526020018481526020016000815250905080600560008c73ffffffffffffffffffffffffffffffffffffffff1673ffffffffffffffffffffffffffffffffffffffff1681526020019081526020016000206000610edc6002612f7c565b81526020019081526020016000206000820151816000015560208201518160010160006101000a81548173ffffffffffffffffffffffffffffffffffffffff021916908373ffffffffffffffffffffffffffffffffffffffff16021790555060408201518160010160146101000a81548160ff02191690831515021790555060608201518160020160006101000a81548173ffffffffffffffffffffffffffffffffffffffff021916908373ffffffffffffffffffffffffffffffffffffffff1602179055506080820151816003015560a0820151816004015560c0820151816005015560e082015181600601556101008201518160070160006101000a81548173ffffffffffffffffffffffffffffffffffffffff021916908373ffffffffffffffffffffffffffffffffffffffff1602179055506101208201518160080155610140820151816009015561016082015181600a01559050508373ffffffffffffffffffffffffffffffffffffffff168973ffffffffffffffffffffffffffffffffffffffff168b73ffffffffffffffffffffffffffffffffffffffff167f73ccc975565e11201f9228f86b04c2090d856488dd73ce7f1b63b9609708ee476110a66002612f7c565b8c8c8c8c6040516110bb959493929190614cb8565b60405180910390a4600660008b73ffffffffffffffffffffffffffffffffffffffff1673ffffffffffffffffffffffffffffffffffffffff16815260200190815260200160002061110c6002612f7c565b9080600181540180825580915050600190039060005260206000200160009091909190915055600761113e6002612f7c565b908060018154018082558091505060019003906000526020600020016000909190919091505561116e6002610889565b50505050505050505050565b82828173ffffffffffffffffffffffffffffffffffffffff1661119d8383612cf4565b6020015173ffffffffffffffffffffffffffffffffffffffff16146111f7576040517f08c379a00000000000000000000000000000000000000000000000000000000081526004016111ee90614a85565b60405180910390fd5b6000831161123a576040517f08c379a000000000000000000000000000000000000000000000000000000000815260040161123190614b85565b60405180910390fd5b826112458686612cf4565b6060015173ffffffffffffffffffffffffffffffffffffffff166370a08231876040518263ffffffff1660e01b815260040161128191906148c2565b60206040518083038186803b15801561129957600080fd5b505afa1580156112ad573d6000803e3d6000fd5b505050506040513d601f19601f820116820180604052508101906112d191906141dd565b1015611312576040517f08c379a000000000000000000000000000000000000000000000000000000000815260040161130990614a45565b60405180910390fd5b8261131d8686612cf4565b6060015173ffffffffffffffffffffffffffffffffffffffff1663dd62ed3e87306040518363ffffffff1660e01b815260040161135b9291906148dd565b60206040518083038186803b15801561137357600080fd5b505afa158015611387573d6000803e3d6000fd5b505050506040513d601f19601f820116820180604052508101906113ab91906141dd565b10156113ec576040517f08c379a00000000000000000000000000000000000000000000000000000000081526004016113e390614be5565b60405180910390fd5b60006113f88686612cf4565b6060015173ffffffffffffffffffffffffffffffffffffffff166370a08231306040518263ffffffff1660e01b815260040161143491906148c2565b60206040518083038186803b15801561144c57600080fd5b505afa158015611460573d6000803e3d6000fd5b505050506040513d601f19601f8201168201806040525081019061148491906141dd565b90506114908686612cf4565b6060015173ffffffffffffffffffffffffffffffffffffffff166323b872dd8730876040518463ffffffff1660e01b81526004016114d093929190614906565b602060405180830381600087803b1580156114ea57600080fd5b505af11580156114fe573d6000803e3d6000fd5b505050506040513d601f19601f820116820180604052508101906115229190614183565b5061152d8686612cf4565b6060015173ffffffffffffffffffffffffffffffffffffffff166370a08231306040518263ffffffff1660e01b815260040161156991906148c2565b60206040518083038186803b15801561158157600080fd5b505afa158015611595573d6000803e3d6000fd5b505050506040513d601f19601f820116820180604052508101906115b991906141dd565b84826115c59190614d8e565b146115cf57600080fd5b83600560008873ffffffffffffffffffffffffffffffffffffffff1673ffffffffffffffffffffffffffffffffffffffff168152602001908152602001600020600087815260200190815260200160002060030160008282546116329190614d8e565b925050819055506116438686612cf4565b60800151846116528888612cf4565b608001516116609190614e6f565b7f70b5eec6cec01e52d9243bac64c12e4fd128a2f20105af16919ae212e224fc6561168b8989612cf4565b6000015160405161169c9190614c9d565b60405180910390a3505050505050565b6060600660008373ffffffffffffffffffffffffffffffffffffffff1673ffffffffffffffffffffffffffffffffffffffff16815260200190815260200160002080548060200260200160405190810160405280929190818152602001828054801561173757602002820191906000526020600020905b815481526020019060010190808311611723575b50505050509050919050565b82828173ffffffffffffffffffffffffffffffffffffffff166117668383612cf4565b6020015173ffffffffffffffffffffffffffffffffffffffff16146117c0576040517f08c379a00000000000000000000000000000000000000000000000000000000081526004016117b790614a85565b60405180910390fd5b60008311611803576040517f08c379a00000000000000000000000000000000000000000000000000000000081526004016117fa90614b85565b60405180910390fd5b8261180e8686612cf4565b608001511015611853576040517f08c379a000000000000000000000000000000000000000000000000000000000815260040161184a90614c25565b60405180910390fd5b82600560008773ffffffffffffffffffffffffffffffffffffffff1673ffffffffffffffffffffffffffffffffffffffff168152602001908152602001600020600086815260200190815260200160002060030160008282546118b69190614e6f565b9250508190555060006118c98686612cf4565b6060015173ffffffffffffffffffffffffffffffffffffffff166370a08231306040518263ffffffff1660e01b815260040161190591906148c2565b60206040518083038186803b15801561191d57600080fd5b505afa158015611931573d6000803e3d6000fd5b505050506040513d601f19601f8201168201806040525081019061195591906141dd565b90506119618686612cf4565b6060015173ffffffffffffffffffffffffffffffffffffffff1663a9059cbb87866040518363ffffffff1660e01b815260040161199f92919061493d565b602060405180830381600087803b1580156119b957600080fd5b505af11580156119cd573d6000803e3d6000fd5b505050506040513d601f19601f820116820180604052508101906119f19190614183565b506119fc8686612cf4565b6060015173ffffffffffffffffffffffffffffffffffffffff166370a08231306040518263ffffffff1660e01b8152600401611a3891906148c2565b60206040518083038186803b158015611a5057600080fd5b505afa158015611a64573d6000803e3d6000fd5b505050506040513d601f19601f82011682018060405250810190611a8891906141dd565b8482611a949190614e6f565b14611a9e57600080fd5b611aa88686612cf4565b6080015184611ab78888612cf4565b60800151611ac59190614d8e565b7f510055a9c40582bc6ad0cab1e5b0421194c4d34435a16960ec71333bf8bc70cf611af08989612cf4565b60000151604051611b019190614c9d565b60405180910390a3505050505050565b81818173ffffffffffffffffffffffffffffffffffffffff16611b348383612cf4565b6020015173ffffffffffffffffffffffffffffffffffffffff1614611b8e576040517f08c379a0000000000000000000000000000000000000000000000000000000008152600401611b8590614a85565b60405180910390fd5b6000611b9a8585612cf4565b610120015114611bdf576040517f08c379a0000000000000000000000000000000000000000000000000000000008152600401611bd690614c45565b60405180910390fd5b6000600560008673ffffffffffffffffffffffffffffffffffffffff1673ffffffffffffffffffffffffffffffffffffffff16815260200190815260200160002060008581526020019081526020016000206003015490506000600560008773ffffffffffffffffffffffffffffffffffffffff1673ffffffffffffffffffffffffffffffffffffffff16815260200190815260200160002060008681526020019081526020016000206000015490506000611c9b8787612cf4565b606001519050600560008873ffffffffffffffffffffffffffffffffffffffff1673ffffffffffffffffffffffffffffffffffffffff16815260200190815260200160002060008781526020019081526020016000206000808201600090556001820160006101000a81549073ffffffffffffffffffffffffffffffffffffffff02191690556001820160146101000a81549060ff02191690556002820160006101000a81549073ffffffffffffffffffffffffffffffffffffffff021916905560038201600090556004820160009055600582016000905560068201600090556007820160006101000a81549073ffffffffffffffffffffffffffffffffffffffff021916905560088201600090556009820160009055600a82016000905550506000600660008973ffffffffffffffffffffffffffffffffffffffff1673ffffffffffffffffffffffffffffffffffffffff168152602001908152602001600020805490501115611f9557600080611e158985612f8a565b915091508015611f8e57600660008a73ffffffffffffffffffffffffffffffffffffffff1673ffffffffffffffffffffffffffffffffffffffff1681526020019081526020016000206001600660008c73ffffffffffffffffffffffffffffffffffffffff1673ffffffffffffffffffffffffffffffffffffffff16815260200190815260200160002080549050611ead9190614e6f565b81548110611ebe57611ebd614fc1565b5b9060005260206000200154600660008b73ffffffffffffffffffffffffffffffffffffffff1673ffffffffffffffffffffffffffffffffffffffff1681526020019081526020016000208381548110611f1a57611f19614fc1565b5b9060005260206000200181905550600660008a73ffffffffffffffffffffffffffffffffffffffff1673ffffffffffffffffffffffffffffffffffffffff168152602001908152602001600020805480611f7757611f76614f92565b5b600190038181906000526020600020016000905590555b5050611ffb565b600660008873ffffffffffffffffffffffffffffffffffffffff1673ffffffffffffffffffffffffffffffffffffffff168152602001908152602001600020805480611fe457611fe3614f92565b5b600190038181906000526020600020016000905590555b600060078054905011156120a1576000806120158861306b565b91509150801561209a57600760016007805490506120339190614e6f565b8154811061204457612043614fc1565b5b90600052602060002001546007838154811061206357612062614fc1565b5b9060005260206000200181905550600780548061208357612082614f92565b5b600190038181906000526020600020016000905590555b50506120ca565b60078054806120b3576120b2614f92565b5b600190038181906000526020600020016000905590555b60008173ffffffffffffffffffffffffffffffffffffffff166370a08231306040518263ffffffff1660e01b815260040161210591906148c2565b60206040518083038186803b15801561211d57600080fd5b505afa158015612131573d6000803e3d6000fd5b505050506040513d601f19601f8201168201806040525081019061215591906141dd565b90508173ffffffffffffffffffffffffffffffffffffffff1663a9059cbb89866040518363ffffffff1660e01b815260040161219292919061493d565b602060405180830381600087803b1580156121ac57600080fd5b505af11580156121c0573d6000803e3d6000fd5b505050506040513d601f19601f820116820180604052508101906121e49190614183565b508173ffffffffffffffffffffffffffffffffffffffff166370a08231306040518263ffffffff1660e01b815260040161221e91906148c2565b60206040518083038186803b15801561223657600080fd5b505afa15801561224a573d6000803e3d6000fd5b505050506040513d601f19601f8201168201806040525081019061226e91906141dd565b848261227a9190614e6f565b1461228457600080fd5b828873ffffffffffffffffffffffffffffffffffffffff167ffd6e81c22721a918c2e59966d2b020f6ccf1fe46d783cc4053c75c1a9fa837f060405160405180910390a35050505050505050565b600015156009600087815260200190815260200160002060009054906101000a900460ff16151514612339576040517f08c379a0000000000000000000000000000000000000000000000000000000008152600401612330906149c5565b60405180910390fd5b60001515600560008873ffffffffffffffffffffffffffffffffffffffff1673ffffffffffffffffffffffffffffffffffffffff168152602001908152602001600020600087815260200190815260200160002060010160149054906101000a900460ff161515146123e0576040517f08c379a00000000000000000000000000000000000000000000000000000000081526004016123d790614b25565b60405180910390fd5b60006123ec8587612f8a565b9150508061242f576040517f08c379a000000000000000000000000000000000000000000000000000000000815260040161242690614ba5565b60405180910390fd5b83600560008773ffffffffffffffffffffffffffffffffffffffff1673ffffffffffffffffffffffffffffffffffffffff16815260200190815260200160002060008881526020019081526020016000206003015410156124c5576040517f08c379a00000000000000000000000000000000000000000000000000000000081526004016124bc90614ac5565b60405180910390fd5b60006124cf6130d0565b90506000600560008873ffffffffffffffffffffffffffffffffffffffff1673ffffffffffffffffffffffffffffffffffffffff16815260200190815260200160002060008981526020019081526020016000206009015490506000806125368a8c612c16565b91509150816125535761254e8b8a8c8a8a8d896130d9565b6125c1565b61255b6130d0565b6125a6600860008d8152602001908152602001600020838154811061258357612582614fc1565b5b906000526020600020906008020160050154866125a09190614e15565b8561381d565b116125b057600080fd5b6125c08b8a8c8a8a8d8988613833565b5b898b73ffffffffffffffffffffffffffffffffffffffff167fe1979fe4c35e0cef342fef5668e2c8e7a7e9f5d5d1ca8fee0ac6c427fa4153af8a6040516126089190614c9d565b60405180910390a35050505050505050505050565b600033905090565b60008060009054906101000a900473ffffffffffffffffffffffffffffffffffffffff169050816000806101000a81548173ffffffffffffffffffffffffffffffffffffffff021916908373ffffffffffffffffffffffffffffffffffffffff1602179055508173ffffffffffffffffffffffffffffffffffffffff168173ffffffffffffffffffffffffffffffffffffffff167f8be0079c531659141344cd1fd0a4f28419497f9722a3daafe3b4186f6b6457e060405160405180910390a35050565b6060600380548060200260200160405190810160405280929190818152602001828054801561276d57602002820191906000526020600020905b8160009054906101000a900473ffffffffffffffffffffffffffffffffffffffff1673ffffffffffffffffffffffffffffffffffffffff1681526020019060010190808311612723575b5050505050905090565b600073ffffffffffffffffffffffffffffffffffffffff168173ffffffffffffffffffffffffffffffffffffffff1614156127e7576040517f08c379a00000000000000000000000000000000000000000000000000000000081526004016127de90614aa5565b60405180910390fd5b6127f081612ecd565b15612830576040517f08c379a000000000000000000000000000000000000000000000000000000000815260040161282790614b05565b60405180910390fd5b6003819080600181540180825580915050600190039060005260206000200160009091909190916101000a81548173ffffffffffffffffffffffffffffffffffffffff021916908373ffffffffffffffffffffffffffffffffffffffff1602179055508073ffffffffffffffffffffffffffffffffffffffff167f1406601fca80ce2dde347c6c1c000309440d0365c2b5786f1608d7b1e76dd12d426040516128d99190614c9d565b60405180910390a250565b6128ec613e8c565b60005b6008600085815260200190815260200160002080549050811015612b25578273ffffffffffffffffffffffffffffffffffffffff1660086000868152602001908152602001600020828154811061294957612948614fc1565b5b906000526020600020906008020160000160009054906101000a900473ffffffffffffffffffffffffffffffffffffffff1673ffffffffffffffffffffffffffffffffffffffff161415612b12576008600085815260200190815260200160002081815481106129bc576129bb614fc1565b5b9060005260206000209060080201604051806101000160405290816000820160009054906101000a900473ffffffffffffffffffffffffffffffffffffffff1673ffffffffffffffffffffffffffffffffffffffff1673ffffffffffffffffffffffffffffffffffffffff168152602001600182015481526020016002820160009054906101000a900473ffffffffffffffffffffffffffffffffffffffff1673ffffffffffffffffffffffffffffffffffffffff1673ffffffffffffffffffffffffffffffffffffffff168152602001600382015481526020016004820160009054906101000a900473ffffffffffffffffffffffffffffffffffffffff1673ffffffffffffffffffffffffffffffffffffffff1673ffffffffffffffffffffffffffffffffffffffff1681526020016005820154815260200160068201548152602001600782015481525050915050612b61565b8080612b1d90614eeb565b9150506128ef565b506040517f08c379a0000000000000000000000000000000000000000000000000000000008152600401612b5890614a65565b60405180910390fd5b92915050565b82828173ffffffffffffffffffffffffffffffffffffffff16612b8a8383612cf4565b6020015173ffffffffffffffffffffffffffffffffffffffff1614612be4576040517f08c379a0000000000000000000000000000000000000000000000000000000008152600401612bdb90614a85565b60405180910390fd5b826009600086815260200190815260200160002060006101000a81548160ff0219169083151502179055505050505050565b60008060005b6008600086815260200190815260200160002080549050811015612ce4578373ffffffffffffffffffffffffffffffffffffffff16600860008781526020019081526020016000208281548110612c7657612c75614fc1565b5b906000526020600020906008020160000160009054906101000a900473ffffffffffffffffffffffffffffffffffffffff1673ffffffffffffffffffffffffffffffffffffffff161415612cd1576001819250925050612ced565b8080612cdc90614eeb565b915050612c1c565b50600080915091505b9250929050565b612cfc613f13565b600560008473ffffffffffffffffffffffffffffffffffffffff1673ffffffffffffffffffffffffffffffffffffffff168152602001908152602001600020600083815260200190815260200160002060405180610180016040529081600082015481526020016001820160009054906101000a900473ffffffffffffffffffffffffffffffffffffffff1673ffffffffffffffffffffffffffffffffffffffff1673ffffffffffffffffffffffffffffffffffffffff1681526020016001820160149054906101000a900460ff161515151581526020016002820160009054906101000a900473ffffffffffffffffffffffffffffffffffffffff1673ffffffffffffffffffffffffffffffffffffffff1673ffffffffffffffffffffffffffffffffffffffff168152602001600382015481526020016004820154815260200160058201548152602001600682015481526020016007820160009054906101000a900473ffffffffffffffffffffffffffffffffffffffff1673ffffffffffffffffffffffffffffffffffffffff1673ffffffffffffffffffffffffffffffffffffffff1681526020016008820154815260200160098201548152602001600a82015481525050905092915050565b600080600090505b600380549050811015612f71578273ffffffffffffffffffffffffffffffffffffffff1660038281548110612f0d57612f0c614fc1565b5b9060005260206000200160009054906101000a900473ffffffffffffffffffffffffffffffffffffffff1673ffffffffffffffffffffffffffffffffffffffff161415612f5e576001915050612f77565b8080612f6990614eeb565b915050612ed5565b50600090505b919050565b600081600001549050919050565b60008060008060005b600660008873ffffffffffffffffffffffffffffffffffffffff1673ffffffffffffffffffffffffffffffffffffffff1681526020019081526020016000208054905081101561305b57600660008873ffffffffffffffffffffffffffffffffffffffff1673ffffffffffffffffffffffffffffffffffffffff168152602001908152602001600020818154811061302e5761302d614fc1565b5b906000526020600020015486141561304857809250600191505b808061305390614eeb565b915050612f93565b5081819350935050509250929050565b60008060008060005b6007805490508110156130c2576007818154811061309557613094614fc1565b5b90600052602060002001548614156130af57809250600191505b80806130ba90614eeb565b915050613074565b508181935093505050915091565b60006002905090565b600560008773ffffffffffffffffffffffffffffffffffffffff1673ffffffffffffffffffffffffffffffffffffffff16815260200190815260200160002060008681526020019081526020016000206009015461315b84613139613e6d565b6131439190614e15565b8461314c6130d0565b6131569190614e15565b613e76565b1161316557600080fd5b60008473ffffffffffffffffffffffffffffffffffffffff166370a08231306040518263ffffffff1660e01b81526004016131a091906148c2565b60206040518083038186803b1580156131b857600080fd5b505afa1580156131cc573d6000803e3d6000fd5b505050506040513d601f19601f820116820180604052508101906131f091906141dd565b90508473ffffffffffffffffffffffffffffffffffffffff166323b872dd8930876040518463ffffffff1660e01b815260040161322f93929190614906565b602060405180830381600087803b15801561324957600080fd5b505af115801561325d573d6000803e3d6000fd5b505050506040513d601f19601f820116820180604052508101906132819190614183565b508473ffffffffffffffffffffffffffffffffffffffff166370a08231306040518263ffffffff1660e01b81526004016132bb91906148c2565b60206040518083038186803b1580156132d357600080fd5b505afa1580156132e7573d6000803e3d6000fd5b505050506040513d601f19601f8201168201806040525081019061330b91906141dd565b84826133179190614d8e565b1461332157600080fd5b60006040518061010001604052808a73ffffffffffffffffffffffffffffffffffffffff168152602001888152602001600560008b73ffffffffffffffffffffffffffffffffffffffff1673ffffffffffffffffffffffffffffffffffffffff16815260200190815260200160002060008a815260200190815260200160002060020160009054906101000a900473ffffffffffffffffffffffffffffffffffffffff1673ffffffffffffffffffffffffffffffffffffffff1681526020018581526020018773ffffffffffffffffffffffffffffffffffffffff168152602001868152602001613424866134146130d0565b61341e9190614e15565b8661381d565b8152602001600560008b73ffffffffffffffffffffffffffffffffffffffff1673ffffffffffffffffffffffffffffffffffffffff16815260200190815260200160002060008a815260200190815260200160002060050154426134889190614d8e565b81525090506008600088815260200190815260200160002081908060018154018082558091505060019003906000526020600020906008020160009091909190915060008201518160000160006101000a81548173ffffffffffffffffffffffffffffffffffffffff021916908373ffffffffffffffffffffffffffffffffffffffff1602179055506020820151816001015560408201518160020160006101000a81548173ffffffffffffffffffffffffffffffffffffffff021916908373ffffffffffffffffffffffffffffffffffffffff1602179055506060820151816003015560808201518160040160006101000a81548173ffffffffffffffffffffffffffffffffffffffff021916908373ffffffffffffffffffffffffffffffffffffffff16021790555060a0820151816005015560c0820151816006015560e08201518160070155505083600560008a73ffffffffffffffffffffffffffffffffffffffff1673ffffffffffffffffffffffffffffffffffffffff168152602001908152602001600020600089815260200190815260200160002060030160008282546136369190614e6f565b9250508190555083600560008a73ffffffffffffffffffffffffffffffffffffffff1673ffffffffffffffffffffffffffffffffffffffff168152602001908152602001600020600089815260200190815260200160002060080160008282546136a09190614d8e565b9250508190555084600560008a73ffffffffffffffffffffffffffffffffffffffff1673ffffffffffffffffffffffffffffffffffffffff1681526020019081526020016000206000898152602001908152602001600020600a01600082825461370a9190614d8e565b92505081905550600560008973ffffffffffffffffffffffffffffffffffffffff1673ffffffffffffffffffffffffffffffffffffffff168152602001908152602001600020600088815260200190815260200160002060020160009054906101000a900473ffffffffffffffffffffffffffffffffffffffff1673ffffffffffffffffffffffffffffffffffffffff1663a9059cbb8a866040518363ffffffff1660e01b81526004016137bf92919061493d565b602060405180830381600087803b1580156137d957600080fd5b505af11580156137ed573d6000803e3d6000fd5b505050506040513d601f19601f820116820180604052508101906138119190614183565b50505050505050505050565b6000818361382b9190614e15565b905092915050565b600560008873ffffffffffffffffffffffffffffffffffffffff1673ffffffffffffffffffffffffffffffffffffffff16815260200190815260200160002060008781526020019081526020016000206009015461393785600860008a815260200190815260200160002084815481106138b0576138af614fc1565b5b9060005260206000209060080201600501546138cc9190614d8e565b6138d4613e6d565b6138de9190614e15565b85600860008b8152602001908152602001600020858154811061390457613903614fc1565b5b9060005260206000209060080201600301546139209190614d8e565b6139286130d0565b6139329190614e15565b613e76565b1161394157600080fd5b60008573ffffffffffffffffffffffffffffffffffffffff166370a08231306040518263ffffffff1660e01b815260040161397c91906148c2565b60206040518083038186803b15801561399457600080fd5b505afa1580156139a8573d6000803e3d6000fd5b505050506040513d601f19601f820116820180604052508101906139cc91906141dd565b90508573ffffffffffffffffffffffffffffffffffffffff166323b872dd8a30886040518463ffffffff1660e01b8152600401613a0b93929190614906565b602060405180830381600087803b158015613a2557600080fd5b505af1158015613a39573d6000803e3d6000fd5b505050506040513d601f19601f82011682018060405250810190613a5d9190614183565b508573ffffffffffffffffffffffffffffffffffffffff166370a08231306040518263ffffffff1660e01b8152600401613a9791906148c2565b60206040518083038186803b158015613aaf57600080fd5b505afa158015613ac3573d6000803e3d6000fd5b505050506040513d601f19601f82011682018060405250810190613ae791906141dd565b8582613af39190614d8e565b14613afd57600080fd5b83600860008981526020019081526020016000208381548110613b2357613b22614fc1565b5b90600052602060002090600802016003016000828254613b439190614d8e565b9250508190555084600860008981526020019081526020016000208381548110613b7057613b6f614fc1565b5b90600052602060002090600802016005016000828254613b909190614d8e565b92505081905550613be9600860008981526020019081526020016000208381548110613bbf57613bbe614fc1565b5b906000526020600020906008020160030154613bd96130d0565b613be39190614e15565b8461381d565b600860008981526020019081526020016000208381548110613c0e57613c0d614fc1565b5b90600052602060002090600802016006018190555083600560008a73ffffffffffffffffffffffffffffffffffffffff1673ffffffffffffffffffffffffffffffffffffffff16815260200190815260200160002060008981526020019081526020016000206003016000828254613c869190614e6f565b9250508190555083600560008a73ffffffffffffffffffffffffffffffffffffffff1673ffffffffffffffffffffffffffffffffffffffff16815260200190815260200160002060008981526020019081526020016000206008016000828254613cf09190614d8e565b9250508190555084600560008a73ffffffffffffffffffffffffffffffffffffffff1673ffffffffffffffffffffffffffffffffffffffff1681526020019081526020016000206000898152602001908152602001600020600a016000828254613d5a9190614d8e565b92505081905550600560008973ffffffffffffffffffffffffffffffffffffffff1673ffffffffffffffffffffffffffffffffffffffff168152602001908152602001600020600088815260200190815260200160002060020160009054906101000a900473ffffffffffffffffffffffffffffffffffffffff1673ffffffffffffffffffffffffffffffffffffffff1663a9059cbb8a866040518363ffffffff1660e01b8152600401613e0f92919061493d565b602060405180830381600087803b158015613e2957600080fd5b505af1158015613e3d573d6000803e3d6000fd5b505050506040513d601f19601f82011682018060405250810190613e619190614183565b50505050505050505050565b60006001905090565b60008183613e849190614de4565b905092915050565b604051806101000160405280600073ffffffffffffffffffffffffffffffffffffffff16815260200160008152602001600073ffffffffffffffffffffffffffffffffffffffff16815260200160008152602001600073ffffffffffffffffffffffffffffffffffffffff1681526020016000815260200160008152602001600081525090565b60405180610180016040528060008152602001600073ffffffffffffffffffffffffffffffffffffffff168152602001600015158152602001600073ffffffffffffffffffffffffffffffffffffffff16815260200160008152602001600081526020016000815260200160008152602001600073ffffffffffffffffffffffffffffffffffffffff1681526020016000815260200160008152602001600081525090565b600081359050613fc7816153ea565b92915050565b600081359050613fdc81615401565b92915050565b600081519050613ff181615401565b92915050565b60008135905061400681615418565b92915050565b60008151905061401b81615418565b92915050565b60006020828403121561403757614036614ff0565b5b600061404584828501613fb8565b91505092915050565b6000806040838503121561406557614064614ff0565b5b600061407385828601613fb8565b925050602061408485828601613ff7565b9150509250929050565b6000806000606084860312156140a7576140a6614ff0565b5b60006140b586828701613fb8565b93505060206140c686828701613ff7565b92505060406140d786828701613fcd565b9150509250925092565b600080600080600080600060e0888a031215614100576140ff614ff0565b5b600061410e8a828b01613fb8565b975050602061411f8a828b01613ff7565b96505060406141308a828b01613ff7565b95505060606141418a828b01613ff7565b94505060806141528a828b01613ff7565b93505060a06141638a828b01613fb8565b92505060c06141748a828b01613ff7565b91505092959891949750929550565b60006020828403121561419957614198614ff0565b5b60006141a784828501613fe2565b91505092915050565b6000602082840312156141c6576141c5614ff0565b5b60006141d484828501613ff7565b91505092915050565b6000602082840312156141f3576141f2614ff0565b5b60006142018482850161400c565b91505092915050565b6000806040838503121561422157614220614ff0565b5b600061422f85828601613ff7565b925050602061424085828601613fb8565b9150509250929050565b600080600080600060a0868803121561426657614265614ff0565b5b600061427488828901613ff7565b955050602061428588828901613fb8565b945050604061429688828901613ff7565b93505060606142a788828901613fb8565b92505060806142b888828901613ff7565b9150509295509295909350565b600080604083850312156142dc576142db614ff0565b5b60006142ea85828601613ff7565b92505060206142fb85828601613ff7565b9150509250929050565b60006143118383614335565b60208301905092915050565b600061432983836148a4565b60208301905092915050565b61433e81614ea3565b82525050565b61434d81614ea3565b82525050565b600061435e82614d2b565b6143688185614d5b565b935061437383614d0b565b8060005b838110156143a457815161438b8882614305565b975061439683614d41565b925050600181019050614377565b5085935050505092915050565b60006143bc82614d36565b6143c68185614d6c565b93506143d183614d1b565b8060005b838110156144025781516143e9888261431d565b97506143f483614d4e565b9250506001810190506143d5565b5085935050505092915050565b61441881614eb5565b82525050565b61442781614eb5565b82525050565b600061443a600f83614d7d565b915061444582614ff5565b602082019050919050565b600061445d601183614d7d565b91506144688261501e565b602082019050919050565b6000614480602683614d7d565b915061448b82615047565b604082019050919050565b60006144a3601483614d7d565b91506144ae82615096565b602082019050919050565b60006144c6601083614d7d565b91506144d1826150bf565b602082019050919050565b60006144e9602683614d7d565b91506144f4826150e8565b604082019050919050565b600061450c601783614d7d565b915061451782615137565b602082019050919050565b600061452f600f83614d7d565b915061453a82615160565b602082019050919050565b6000614552601483614d7d565b915061455d82615189565b602082019050919050565b6000614575601683614d7d565b9150614580826151b2565b602082019050919050565b6000614598601683614d7d565b91506145a3826151db565b602082019050919050565b60006145bb603083614d7d565b91506145c682615204565b604082019050919050565b60006145de602083614d7d565b91506145e982615253565b602082019050919050565b6000614601601b83614d7d565b915061460c8261527c565b602082019050919050565b6000614624601683614d7d565b915061462f826152a5565b602082019050919050565b6000614647601383614d7d565b9150614652826152ce565b602082019050919050565b600061466a601b83614d7d565b9150614675826152f7565b602082019050919050565b600061468d601183614d7d565b915061469882615320565b602082019050919050565b60006146b0601f83614d7d565b91506146bb82615349565b602082019050919050565b60006146d3602e83614d7d565b91506146de82615372565b604082019050919050565b60006146f6601d83614d7d565b9150614701826153c1565b602082019050919050565b610100820160008201516147236000850182614335565b50602082015161473660208501826148a4565b5060408201516147496040850182614335565b50606082015161475c60608501826148a4565b50608082015161476f6080850182614335565b5060a082015161478260a08501826148a4565b5060c082015161479560c08501826148a4565b5060e08201516147a860e08501826148a4565b50505050565b610180820160008201516147c560008501826148a4565b5060208201516147d86020850182614335565b5060408201516147eb604085018261440f565b5060608201516147fe6060850182614335565b50608082015161481160808501826148a4565b5060a082015161482460a08501826148a4565b5060c082015161483760c08501826148a4565b5060e082015161484a60e08501826148a4565b5061010082015161485f610100850182614335565b506101208201516148746101208501826148a4565b506101408201516148896101408501826148a4565b5061016082015161489e6101608501826148a4565b50505050565b6148ad81614ee1565b82525050565b6148bc81614ee1565b82525050565b60006020820190506148d76000830184614344565b92915050565b60006040820190506148f26000830185614344565b6148ff6020830184614344565b9392505050565b600060608201905061491b6000830186614344565b6149286020830185614344565b61493560408301846148b3565b949350505050565b60006040820190506149526000830185614344565b61495f60208301846148b3565b9392505050565b600060208201905081810360008301526149808184614353565b905092915050565b600060208201905081810360008301526149a281846143b1565b905092915050565b60006020820190506149bf600083018461441e565b92915050565b600060208201905081810360008301526149de8161442d565b9050919050565b600060208201905081810360008301526149fe81614450565b9050919050565b60006020820190508181036000830152614a1e81614473565b9050919050565b60006020820190508181036000830152614a3e81614496565b9050919050565b60006020820190508181036000830152614a5e816144b9565b9050919050565b60006020820190508181036000830152614a7e816144dc565b9050919050565b60006020820190508181036000830152614a9e816144ff565b9050919050565b60006020820190508181036000830152614abe81614522565b9050919050565b60006020820190508181036000830152614ade81614545565b9050919050565b60006020820190508181036000830152614afe81614568565b9050919050565b60006020820190508181036000830152614b1e8161458b565b9050919050565b60006020820190508181036000830152614b3e816145ae565b9050919050565b60006020820190508181036000830152614b5e816145d1565b9050919050565b60006020820190508181036000830152614b7e816145f4565b9050919050565b60006020820190508181036000830152614b9e81614617565b9050919050565b60006020820190508181036000830152614bbe8161463a565b9050919050565b60006020820190508181036000830152614bde8161465d565b9050919050565b60006020820190508181036000830152614bfe81614680565b9050919050565b60006020820190508181036000830152614c1e816146a3565b9050919050565b60006020820190508181036000830152614c3e816146c6565b9050919050565b60006020820190508181036000830152614c5e816146e9565b9050919050565b600061010082019050614c7b600083018461470c565b92915050565b600061018082019050614c9760008301846147ae565b92915050565b6000602082019050614cb260008301846148b3565b92915050565b600060a082019050614ccd60008301886148b3565b614cda60208301876148b3565b614ce760408301866148b3565b614cf460608301856148b3565b614d0160808301846148b3565b9695505050505050565b6000819050602082019050919050565b6000819050602082019050919050565b600081519050919050565b600081519050919050565b6000602082019050919050565b6000602082019050919050565b600082825260208201905092915050565b600082825260208201905092915050565b600082825260208201905092915050565b6000614d9982614ee1565b9150614da483614ee1565b9250827fffffffffffffffffffffffffffffffffffffffffffffffffffffffffffffffff03821115614dd957614dd8614f34565b5b828201905092915050565b6000614def82614ee1565b9150614dfa83614ee1565b925082614e0a57614e09614f63565b5b828204905092915050565b6000614e2082614ee1565b9150614e2b83614ee1565b9250817fffffffffffffffffffffffffffffffffffffffffffffffffffffffffffffffff0483118215151615614e6457614e63614f34565b5b828202905092915050565b6000614e7a82614ee1565b9150614e8583614ee1565b925082821015614e9857614e97614f34565b5b828203905092915050565b6000614eae82614ec1565b9050919050565b60008115159050919050565b600073ffffffffffffffffffffffffffffffffffffffff82169050919050565b6000819050919050565b6000614ef682614ee1565b91507fffffffffffffffffffffffffffffffffffffffffffffffffffffffffffffffff821415614f2957614f28614f34565b5b600182019050919050565b7f4e487b7100000000000000000000000000000000000000000000000000000000600052601160045260246000fd5b7f4e487b7100000000000000000000000000000000000000000000000000000000600052601260045260246000fd5b7f4e487b7100000000000000000000000000000000000000000000000000000000600052603160045260246000fd5b7f4e487b7100000000000000000000000000000000000000000000000000000000600052603260045260246000fd5b600080fd5b7f71756573746f2066756e7a696f6e610000000000000000000000000000000000600082015250565b7f617373657420646f6e277420666f756e64000000000000000000000000000000600082015250565b7f4f776e61626c653a206e6577206f776e657220697320746865207a65726f206160008201527f6464726573730000000000000000000000000000000000000000000000000000602082015250565b7f636f6c6c61746572616c206e6f742076616c6964000000000000000000000000600082015250565b7f62616c616e63652075736572206c6f7700000000000000000000000000000000600082015250565b7f426f72726f77657220666f72207468697320636f6e7472616374206e6f74207060008201527f726573656e740000000000000000000000000000000000000000000000000000602082015250565b7f4e6f74206f776e6572207468697320636f6e7472616374000000000000000000600082015250565b7f696e76616c696420616464726573730000000000000000000000000000000000600082015250565b7f416d6f756e7420617676616c69626c65206c6f77000000000000000000000000600082015250565b7f636f6c6c61746572616c20646f6e277420666f756e6400000000000000000000600082015250565b7f41737365747420616c726561647920696e206c69737400000000000000000000600082015250565b7f54686973206c656e6465722068617320626c6f636b656420746865206973737560008201527f616e6365206f66206e6577204c6f616e00000000000000000000000000000000602082015250565b7f4f776e61626c653a2063616c6c6572206973206e6f7420746865206f776e6572600082015250565b7f70656e616c697479206d75737420686176652067656174656520300000000000600082015250565b7f696e6372656173206d75737420626520706c7573203000000000000000000000600082015250565b7f636f6e747261637420646f6e7420657869737400000000000000000000000000600082015250565b7f646561646c696e65206d75737420686176652067656174656520300000000000600082015250565b7f616c6f77616e63652075736572206c6f77000000000000000000000000000000600082015250565b7f5265656e7472616e637947756172643a207265656e7472616e742063616c6c00600082015250565b7f41737365747420617676616c69626c6520696e73756666696369656e7420666f60008201527f7220746869732077686964726f77000000000000000000000000000000000000602082015250565b7f436f6e7472616374206861766520617373657420696e20626f72726f77000000600082015250565b6153f381614ea3565b81146153fe57600080fd5b50565b61540a81614eb5565b811461541557600080fd5b50565b61542181614ee1565b811461542c57600080fd5b5056fea26469706673582212200492fa282fa32ce624a1ad69f089ab714632e01273528ac9a2a1f4facd197f0864736f6c63430008070033",
  "immutableReferences": {},
  "source": "// SPDX-License-Identifier: Leluk911\n\npragma solidity 0.8.7;\n\nimport \"../node_modules/@openzeppelin/contracts/token/ERC20/IERC20.sol\";\nimport \"../node_modules/@openzeppelin/contracts/access/Ownable.sol\";\nimport \"../node_modules/@openzeppelin/contracts/utils/Counters.sol\";\nimport \"../node_modules/@openzeppelin/contracts/security/ReentrancyGuard.sol\";\n\ncontract lendingPage is Ownable,ReentrancyGuard {\n    //library\n    using Counters for Counters.Counter;\n    //function variable\n    Counters.Counter private Id; // id every lending contract\n    address[] private assetAvvalible; // asset add from Owner (only asset present in chainLink oracle)\n    uint private minPenality;\n    // User\n    struct LendingContract {\n        uint id;\n        address owner;\n        bool lock;\n        address asset;\n        //uint amount;\n        uint amountAvvalible;\n        uint apr;\n        uint duration;\n        uint penality;\n        address collateral;\n        uint amountBorrow;\n        uint rateCollateral;\n        uint amountCollateral;\n    }\n    mapping(address => mapping(uint=>LendingContract)) private userLendingContract;\n    mapping(address => uint[])listContractUser;\n    uint[] private listContract;\n    // borrower\n\n    struct Borrower{\n        address owner;\n        uint idContract;\n        address assetBorrow;\n        uint ammounBorrow; // da correggere\n        //uint heltBorrow;\n        address assetCollaterl;\n        uint amountCollateral;\n        uint liquidationThreshold;\n        uint expiration;\n    }\n    mapping(uint => Borrower[]) private borrowersXid; \n\n    //-------------------------------//\n    constructor(uint _minpenality) Ownable() ReentrancyGuard(){\n        Id.increment();\n        minPenality = _minpenality;\n    }\n    // INTERNAL FUNCTION \n    function _setAssettAvvalible(address _newAsset) internal{\n        require(_newAsset != address(0), \"invalid address\");\n        require(!_findAsset(_newAsset),\"Assett already in list\");\n        assetAvvalible.push(_newAsset);\n        emit NewAssetAvvalible(_newAsset, block.timestamp);   \n    }\n    function _healFactor(uint _priceCollateralETH, uint _priceBorrowEth) internal pure returns(uint){\n        return (_priceCollateralETH/_priceBorrowEth);\n    }\n    function _liquidationThresold( uint _priceBorrowEth,uint _rateLiquidation) internal pure returns(uint){\n        return (\n            //uint _priceCollateralETH,\n            //(_priceCollateralETH * _priceBorrowEth)/(_rateLiquidation * _priceBorrowEth)\n            _priceBorrowEth * _rateLiquidation \n\n        );\n    }\n    //-----> Serch function  \n    function _findAsset(address _asset) internal view returns(bool){\n        for(uint i = 0; i<assetAvvalible.length; i++){\n            if(assetAvvalible[i]==_asset){\n                return true;\n            }\n        }\n        return false;\n    }\n    function _getAssettAvvalible()internal view returns (address[] memory ){\n        return assetAvvalible; \n    }\n    //-----> Search function user \n    function _listContractXuser(address _user) internal view returns(uint[] memory){\n       return listContractUser[_user];\n    }\n     function _findContractLending(address _to,uint _id)internal view returns(LendingContract memory){\n        return userLendingContract[_to][_id];\n    }\n     function _findArrayindexContract(address _to,uint deleteId)internal view returns(uint,bool){\n            uint index = 0;\n            bool response = false;\n            for(uint i=0 ;i<listContractUser[_to].length;i++){\n                if (deleteId == listContractUser[_to][i]){\n                    index = i;\n                    response = true;\n                }\n            }\n            return (index,response);\n        \n    }\n    function _findContractAvvalible(uint _IdFind)internal view returns(uint,bool){\n         uint index = 0;\n         bool response = false;\n         for(uint i=0 ;i<listContract.length;i++){\n             if (_IdFind == listContract[i]){\n                 index = i;\n                 response = true;\n             }\n         }\n         return (index,response);\n     \n    }\n    //------> Search function Borrower\n    function _serchIndexBorrowerXContract(uint _idContract,address _borrower) internal view returns(bool,uint){\n      for(uint i =0; i<borrowersXid[_idContract].length;i++ ){\n          if(borrowersXid[_idContract][i].owner == _borrower){\n              return (true,i);\n          }\n      }\n      return (false,0);\n    }\n    function _serchBorrowerPositionXContract(uint _idContract,address _borrower) internal view returns(Borrower memory){\n       for(uint i =0; i<borrowersXid[_idContract].length;i++ ){\n           if(borrowersXid[_idContract][i].owner == _borrower){\n               return (borrowersXid[_idContract][i]);\n           }\n       }\n       revert(\"Borrower for this contract not present\");\n    }\n   \n    // ----> User Function\n    function _deposit(address _to,address _asset,uint _amount,uint _apr,uint _deadline,uint _penality,address _collateral,uint _rateCollateral)internal {\n        //check\n        require(_to != address(0), \"invalid address\");\n        require(_asset != _collateral, \"collateral not valid\");\n        require(_findAsset(_asset),\"asset don't found\");\n        require(_findAsset(_collateral),\"collateral don't found\");\n        require(IERC20(_asset).balanceOf(_to) >= _amount,\"balance user low\");\n        require(IERC20(_asset).allowance(_to, address(this)) >= _amount,\"alowance user low\");\n        require(_deadline > 0,\"deadline must have geatee 0\");\n        require(_penality >=  minPenality,\"penality must have geatee 0\");    \n        // action\n        uint balanceContract = IERC20(_asset).balanceOf(address(this)); \n        IERC20(_asset).transferFrom(_to,address(this), _amount);\n        require(balanceContract+_amount == IERC20(_asset).balanceOf(address(this)));\n        // prepare local variable\n        LendingContract memory newContract= LendingContract(\n            Id.current(),\n            _to,\n            false,\n            _asset,\n            //_amount,\n            _amount,\n            _apr,\n            _deadline,\n            _penality,\n            _collateral,\n            0,\n            _rateCollateral,\n            0\n        );\n        // update status global variable\n        userLendingContract[_to][Id.current()] = newContract;\n        emit NewContractDeposit(\n            Id.current(),_to,_asset,_amount,_apr,_deadline,_penality, _collateral\n        );\n        listContractUser[_to].push(Id.current());\n        listContract.push(Id.current());\n        Id.increment();\n\n\n    }\n    function _increasDeposit(address _to,uint _idContract, uint _increasAmount) internal  contractOwner(_to, _idContract){\n        require(_increasAmount > 0, \"increas must be plus 0\");\n        require(IERC20(_findContractLending(_to,_idContract).asset).balanceOf(_to) >= _increasAmount,\"balance user low\");\n        require(IERC20(_findContractLending(_to,_idContract).asset).allowance(_to, address(this)) >= _increasAmount,\"alowance user low\");\n        \n        uint balanceContract = IERC20(_findContractLending(_to,_idContract).asset).balanceOf(address(this)); \n        IERC20(_findContractLending(_to,_idContract).asset).transferFrom(_to,address(this), _increasAmount);\n        require(balanceContract+_increasAmount == IERC20(_findContractLending(_to,_idContract).asset).balanceOf(address(this)));\n\n        userLendingContract[_to][_idContract].amountAvvalible += _increasAmount; \n\n        emit IncreasContractDeposit(\n            _findContractLending(_to,_idContract).id,\n            _findContractLending(_to,_idContract).amountAvvalible - _increasAmount,\n            _findContractLending(_to,_idContract).amountAvvalible  \n        );\n    }\n    function _decreasDeposit(address _to,uint _idContract, uint _decreasAmount) internal contractOwner(_to, _idContract){\n        require(_decreasAmount > 0, \"increas must be plus 0\");\n        require(\n            _findContractLending(_to,_idContract).amountAvvalible >= _decreasAmount, \"Assett avvalible insufficient for this whidrow\"\n        );\n     \n\n        userLendingContract[_to][_idContract].amountAvvalible -= _decreasAmount;\n\n        uint balanceContract = IERC20(_findContractLending(_to,_idContract).asset).balanceOf(address(this)); \n        IERC20(_findContractLending(_to,_idContract).asset).transfer(_to,_decreasAmount);\n        require(balanceContract -_decreasAmount == IERC20(_findContractLending(_to,_idContract).asset).balanceOf(address(this)));\n\n        emit DecreasContractDeposit(\n            _findContractLending(_to,_idContract).id,\n            _findContractLending(_to,_idContract).amountAvvalible + _decreasAmount,\n            _findContractLending(_to,_idContract).amountAvvalible\n            \n        );\n\n    }\n    function _deleteContract(address _to,uint _idContract)internal contractOwner(_to, _idContract){\n       require(\n            _findContractLending(_to,_idContract).amountBorrow == 0, \"Contract have asset in borrow\"\n        ); \n        uint amountRepay = userLendingContract[_to][_idContract].amountAvvalible;\n        uint deleteId = userLendingContract[_to][_idContract].id;\n        address assetWidrow =_findContractLending(_to,_idContract).asset;\n        delete userLendingContract[_to][_idContract];\n        if(listContractUser[_to].length > 0){\n             // serch index of delete\n            (uint indexDelete, bool response) = _findArrayindexContract(_to, deleteId);\n            if(response){\n                //clean array\n                listContractUser[_to][indexDelete]=listContractUser[_to][listContractUser[_to].length -1];\n                listContractUser[_to].pop();\n            }\n        }else{\n            listContractUser[_to].pop(); // clean array\n        }\n          if(listContract.length > 0){\n             // serch index of delete\n            (uint indexDelete, bool response) = _findContractAvvalible(_idContract);\n            if(response){\n                //clean array\n                listContract[indexDelete] = listContract[listContract.length -1];\n                listContract.pop();\n            }\n        }else{\n            listContract.pop(); // clean array\n        }\n        uint balanceContract = IERC20(assetWidrow).balanceOf(address(this)); \n        IERC20(assetWidrow).transfer(_to,amountRepay);\n        require(balanceContract -amountRepay == IERC20(assetWidrow).balanceOf(address(this)));\n\n        emit DeleteContractDeposit(_to, deleteId);\n    }\n    function _lockNewBorrow(address _to,uint _idContract,bool _lock)internal contractOwner(_to, _idContract){\n             lock[_idContract] = _lock;\n            //userLendingContract[_to][_idContract].lock = _lock;   \n       \n    }\n    //BORROW FUNCTION\n    function _executeBorrow(address _to,uint _idContract,address _lender,uint _amountBorrow,address _assettCollateral,uint _amountCollateral) internal {\n        require(lock[_idContract] == false, \"questo funziona\");\n        require(userLendingContract[_to][_idContract].lock == false,\"This lender has blocked the issuance of new Loan\");\n        (,bool response) = _findArrayindexContract(_lender,_idContract);\n        require(response,\"contract dont exist\");\n        require(userLendingContract[_lender][_idContract].amountAvvalible >= _amountBorrow,\"Amount avvalible low\");\n        //// controll and utility  local var\n        //uint _priceCollateralETH = _mockOracleCollateral();// fix with true oracle\n        uint _priceBorrowEth = _mockOracleBorrow();// fix with true oracle\n        uint _rateLiquidation = userLendingContract[_lender][_idContract].rateCollateral;\n        (bool responseSrc,uint indexBorrow) = _serchIndexBorrowerXContract(_idContract, _to);\n        //check before act borrow \n      \n    \n        if(!responseSrc){\n            _newBorrower(_to,_lender, _idContract, _assettCollateral, _amountCollateral, _amountBorrow, _rateLiquidation);\n        }else{\n            require(_liquidationThresold(\n                          //_priceCollateralETH*borrowersXid[_idContract][indexBorrow].ammounBorrow,\n                          _priceBorrowEth*borrowersXid[_idContract][indexBorrow].amountCollateral,\n                           _rateLiquidation) > _mockOracleBorrow());\n            _oldBorrower(_to, _lender, _idContract, _assettCollateral, _amountCollateral, _amountBorrow, _rateLiquidation, indexBorrow);\n\n        }\n\n        emit Borrow(_to, _idContract, _amountBorrow);\n    }\n\n    function _oldBorrower(address _to,address _lender,uint _idContract,address _assettCollateral,uint _amountCollateral,uint _amountBorrow, uint _rateLiquidation,uint indexBorrow)internal {\n        // gia cliente??\n        // aggiorniamo i conti vecchi \n        // aggiungere al controllo le coin gia depositate e prese in prestito \n        require(_healFactor(_mockOracleCollateral() *(borrowersXid[_idContract][indexBorrow].amountCollateral + _amountCollateral),\n                             _mockOracleBorrow() *(borrowersXid[_idContract][indexBorrow].ammounBorrow + _amountBorrow)\n                             )> userLendingContract[_lender][_idContract].rateCollateral); \n\n        uint balanceBefore = IERC20(_assettCollateral).balanceOf(address(this));\n            IERC20(_assettCollateral).transferFrom(_to, address(this), _amountCollateral);\n            require( balanceBefore + _amountCollateral == IERC20(_assettCollateral).balanceOf(address(this)));\n\n            borrowersXid[_idContract][indexBorrow].ammounBorrow += _amountBorrow;// aggiornata la variabile globale\n            borrowersXid[_idContract][indexBorrow].amountCollateral += _amountCollateral;// aggiornata la variabile globale\n            // updata thresoldLiquidation \n            borrowersXid[_idContract][indexBorrow].liquidationThreshold =\n                    _liquidationThresold(\n                        //_mockOracleCollateral()*borrowersXid[_idContract][indexBorrow].amountCollateral,\n                        _mockOracleBorrow()*borrowersXid[_idContract][indexBorrow].ammounBorrow,\n                         _rateLiquidation);\n\n            userLendingContract[_lender][_idContract].amountAvvalible -=_amountBorrow;// togliamo le coin prestare\n            userLendingContract[_lender][_idContract].amountBorrow += _amountBorrow; // incrementiamo il capitale prestato\n            userLendingContract[_lender][_idContract].amountCollateral += _amountCollateral;// aggiungiamo la quantita di collaterale presente nel contratto\n\n            IERC20(userLendingContract[_lender][_idContract].asset).transfer(_to, _amountBorrow);\n\n    }\n\n    function _newBorrower(address _to,address _lender,uint _idContract,address _assettCollateral,uint _amountCollateral,uint _amountBorrow, uint _rateLiquidation)internal {\n        // nuovo cliente????\n        // conti nuovi\n        require(_healFactor(_mockOracleCollateral() * _amountCollateral, _mockOracleBorrow()*_amountBorrow) > userLendingContract[_lender][_idContract].rateCollateral);\n        // spreco di gas????\n        uint balanceBefore = IERC20(_assettCollateral).balanceOf(address(this));\n        IERC20(_assettCollateral).transferFrom(_to, address(this), _amountCollateral);\n        require( balanceBefore + _amountCollateral == IERC20(_assettCollateral).balanceOf(address(this)));\n        // preparazione dei dati del borrower non ancora settat nella variabile locale\n        Borrower memory newBorrower = Borrower(\n                                            _to,\n                                            _idContract,\n                                            userLendingContract[_lender][_idContract].asset,\n                                            _amountBorrow,\n                                            //uint heltBorrow;\n                                            _assettCollateral,\n                                            _amountCollateral,\n                                            _liquidationThresold(\n                                                //_mockOracleCollateral()*_amountCollateral,\n                                                 _mockOracleBorrow()*_amountBorrow,\n                                                 _rateLiquidation),\n                                            block.timestamp + userLendingContract[_lender][_idContract].duration\n                                            );\n\n        borrowersXid[_idContract].push(newBorrower);// aggiornata la variabile locale\n        // aggiorniamo i dati del lender\n\n        userLendingContract[_lender][_idContract].amountAvvalible -=_amountBorrow;// togliamo le coin prestare\n        userLendingContract[_lender][_idContract].amountBorrow += _amountBorrow; // incrementiamo il capitale prestato\n        userLendingContract[_lender][_idContract].amountCollateral += _amountCollateral;// aggiungiamo la quantita di collaterale presente nel contratto\n\n        IERC20(userLendingContract[_lender][_idContract].asset).transfer(_to, _amountBorrow);\n    }\n    \n    // EXTERNAL FUNCTION\n    function setAssettAvvalible(address _newAsset) external nonReentrant() onlyOwner() {\n        _setAssettAvvalible(_newAsset);\n    } \n    function findAsset(address _asset) external view returns(bool){\n        return _findAsset(_asset);\n    }\n    function deposit(address _asset,uint _amount,uint _apr,uint _deadline,uint _penality,address _collateral,uint _rateCollateral) external nonReentrant() {\n        _deposit(msg.sender, _asset, _amount, _apr, _deadline, _penality, _collateral,_rateCollateral);\n    }\n    function listContractXuser(address _user) external view returns(uint[] memory){\n        return _listContractXuser(_user);\n    }\n    function getAssettAvvalible()external view returns (address[] memory ){\n        return _getAssettAvvalible(); \n    }\n    function findContractLending(address _to,uint _id)external view returns(LendingContract memory){\n        return _findContractLending(_to, _id);\n    }\n     function increasDeposit(uint _idContract, uint _increasAmount) external nonReentrant(){\n        _increasDeposit(msg.sender, _idContract, _increasAmount);\n    }\n    function decreasDeposit(uint _idContract, uint _decreasAmount) external nonReentrant(){\n        _decreasDeposit(msg.sender, _idContract, _decreasAmount);\n    }\n    function deleteContract(uint _idContract) external nonReentrant(){\n        _deleteContract(msg.sender, _idContract);\n    }\n     function executeBorrow(uint _idContract,address _lender,uint _amountBorrow,address _assettCollateral,uint _amountCollateral) external nonReentrant(){\n        _executeBorrow(msg.sender, _idContract, _lender, _amountBorrow, _assettCollateral, _amountCollateral);\n    }\n    function serchBorrowerPositionXContract(uint _idContract,address _borrower) external view returns (Borrower memory){\n        return _serchBorrowerPositionXContract(_idContract, _borrower);\n\n    }\n    function serchIndexBorrowerXContract(uint _idContract,address _borrower)external view returns(uint){\n        (,uint idFind) = _serchIndexBorrowerXContract(_idContract, _borrower);\n        return idFind;\n    }\n    mapping ( uint => bool) private lock;\n    function lockNewBorrow(address _to,uint _idContract,bool _lock)external nonReentrant(){\n       \n        _lockNewBorrow(_to, _idContract,_lock);\n    }\n\n    //// ^^^^^TESTED^^^^^\n    /// vvvvvvNON TESTEDvvvvv\n   \n    // MODIFIER\n    modifier contractOwner(address _to,uint _idContract){\n        require(\n           _findContractLending(_to,_idContract).owner == _to, \"Not owner this contract\" \n        );\n        _;\n    }\n    // EVENT \n\n     event NewAssetAvvalible(address indexed asset, uint timeStart);\n     event NewContractDeposit(\n        uint Id,\n        address indexed owner,\n        address indexed asset,\n        uint amount,\n        uint apr,\n        uint  deadline,\n        uint  penality,\n        address indexed collateral\n     );\n     event IncreasContractDeposit(\n        uint Id,\n        uint indexed amount,\n        uint indexed newAmount\n     );\n     event DecreasContractDeposit(\n        uint Id,\n        uint indexed amount,\n        uint indexed newAmount\n     );\n\n     event DeleteContractDeposit(\n        address indexed owner,\n        uint indexed id\n     );\n     event Borrow( address indexed Borrower,uint indexed Id_Contract, uint amount);\n\n    // mock function\n\n    function _mockOracleBorrow() internal pure returns(uint price){\n        price = 2;\n    }\n\n    function _mockOracleCollateral() internal returns(uint price){\n        price = 1;\n        if (block.timestamp > 10000 + 30 days) { }\n\n    }\n\n\n\n\n\n\n\n\n\n\n\n\n\n/**\n    3 -> Ripagare il Borrow e cambiare il margine\n            -> Applicare qui la Fee ? \n\n    4 -> Liquidazione collatterale, \n            -> problema -> Calcolo matematico \n            -> Quanto liquidare?\n            -> Come cambiano i valori dopo la liquidazione?\n            -> Voglio dare al lender la possibilit di vendere a mercato la liquidazione? \n            -> Gestione delle fee da pagare al protocollo \n    \n    5 -> a carico di chi sono le fee? lender o borrower ?\n            -> dove prendere le fee? \n                -> dall interesse del lender\n                    -> come lo calcolo?\n                    -> quando le prendo ?\n                -> dal pagamento del debito ? \n                    ->  pi vantaggioso progettualmente\n                    ->  competitiva come strategia?\n            -> HOW MUCH ????\n                -> 0.50% su ogni pagamento ???? -> tariffa standard\n                -> 1% fino al 5%        Tariffa liquidazione\n                -> 2% dal 5% al 10%     Tariffa liquidazione\n                -> 4% dal 10% al 20%    Tariffa liquidazione\n                -> 5% dal 20% al 30%    Tariffa liquidazione\n                -> 6% dal 30% al 100%   Tariffa liquidazione\n                    -> Vendere a mercato e realizare subito usd?\n                    -> detenere gli asset? \n                    -> miso detenere blue chips e dumpare il resto.\n \n\n nonReentrant()\n onlyOwner()\n \n\n\n \n */\n}",
  "sourcePath": "/media/leluk/storage/Studio Dev/Dapp portfolio/individual lending/contracts/Individual_lending.sol",
  "compiler": {
    "name": "solc",
    "version": "0.8.7+commit.e28d00a7.Emscripten.clang"
  },
  "schemaVersion": "3.4.7",
  "updatedAt": "2022-06-20T19:03:55.537Z",
  "devdoc": {
    "kind": "dev",
    "methods": {
      "owner()": {
        "details": "Returns the address of the current owner."
      },
      "renounceOwnership()": {
        "details": "Leaves the contract without owner. It will not be possible to call `onlyOwner` functions anymore. Can only be called by the current owner. NOTE: Renouncing ownership will leave the contract without an owner, thereby removing any functionality that is only available to the owner."
      },
      "transferOwnership(address)": {
        "details": "Transfers ownership of the contract to a new account (`newOwner`). Can only be called by the current owner."
      }
    },
    "version": 1
  },
  "userdoc": {
    "kind": "user",
    "methods": {},
    "version": 1
  }
}