{
  "contractName": "lendingPage",
  "abi": [
    {
      "inputs": [
        {
          "internalType": "uint256",
          "name": "_minpenality",
          "type": "uint256"
        }
      ],
      "stateMutability": "nonpayable",
      "type": "constructor"
    },
    {
      "anonymous": false,
      "inputs": [
        {
          "indexed": true,
          "internalType": "address",
          "name": "Borrower",
          "type": "address"
        },
        {
          "indexed": true,
          "internalType": "uint256",
          "name": "Id_Contract",
          "type": "uint256"
        },
        {
          "indexed": false,
          "internalType": "uint256",
          "name": "amount",
          "type": "uint256"
        }
      ],
      "name": "Borrow",
      "type": "event"
    },
    {
      "anonymous": false,
      "inputs": [
        {
          "indexed": false,
          "internalType": "uint256",
          "name": "Id",
          "type": "uint256"
        },
        {
          "indexed": true,
          "internalType": "uint256",
          "name": "amount",
          "type": "uint256"
        },
        {
          "indexed": true,
          "internalType": "uint256",
          "name": "newAmount",
          "type": "uint256"
        }
      ],
      "name": "DecreasContractDeposit",
      "type": "event"
    },
    {
      "anonymous": false,
      "inputs": [
        {
          "indexed": true,
          "internalType": "address",
          "name": "owner",
          "type": "address"
        },
        {
          "indexed": true,
          "internalType": "uint256",
          "name": "id",
          "type": "uint256"
        }
      ],
      "name": "DeleteContractDeposit",
      "type": "event"
    },
    {
      "anonymous": false,
      "inputs": [
        {
          "indexed": false,
          "internalType": "uint256",
          "name": "Id",
          "type": "uint256"
        },
        {
          "indexed": true,
          "internalType": "uint256",
          "name": "amount",
          "type": "uint256"
        },
        {
          "indexed": true,
          "internalType": "uint256",
          "name": "newAmount",
          "type": "uint256"
        }
      ],
      "name": "IncreasContractDeposit",
      "type": "event"
    },
    {
      "anonymous": false,
      "inputs": [
        {
          "indexed": true,
          "internalType": "uint256",
          "name": "_idContract",
          "type": "uint256"
        },
        {
          "indexed": true,
          "internalType": "uint256",
          "name": "_idBorrow",
          "type": "uint256"
        },
        {
          "indexed": false,
          "internalType": "address",
          "name": "assetsLiquidate",
          "type": "address"
        },
        {
          "indexed": false,
          "internalType": "uint256",
          "name": "amount",
          "type": "uint256"
        }
      ],
      "name": "LiquidationCall",
      "type": "event"
    },
    {
      "anonymous": false,
      "inputs": [
        {
          "indexed": true,
          "internalType": "address",
          "name": "asset",
          "type": "address"
        },
        {
          "indexed": false,
          "internalType": "uint256",
          "name": "timeStart",
          "type": "uint256"
        }
      ],
      "name": "NewAssetAvvalible",
      "type": "event"
    },
    {
      "anonymous": false,
      "inputs": [
        {
          "indexed": false,
          "internalType": "uint256",
          "name": "Id",
          "type": "uint256"
        },
        {
          "indexed": true,
          "internalType": "address",
          "name": "owner",
          "type": "address"
        },
        {
          "indexed": true,
          "internalType": "address",
          "name": "asset",
          "type": "address"
        },
        {
          "indexed": false,
          "internalType": "uint256",
          "name": "amount",
          "type": "uint256"
        },
        {
          "indexed": false,
          "internalType": "uint256",
          "name": "apr",
          "type": "uint256"
        },
        {
          "indexed": false,
          "internalType": "uint256",
          "name": "deadline",
          "type": "uint256"
        },
        {
          "indexed": false,
          "internalType": "uint256",
          "name": "penality",
          "type": "uint256"
        },
        {
          "indexed": true,
          "internalType": "address",
          "name": "collateral",
          "type": "address"
        }
      ],
      "name": "NewContractDeposit",
      "type": "event"
    },
    {
      "anonymous": false,
      "inputs": [
        {
          "indexed": true,
          "internalType": "address",
          "name": "previousOwner",
          "type": "address"
        },
        {
          "indexed": true,
          "internalType": "address",
          "name": "newOwner",
          "type": "address"
        }
      ],
      "name": "OwnershipTransferred",
      "type": "event"
    },
    {
      "anonymous": false,
      "inputs": [
        {
          "indexed": true,
          "internalType": "uint256",
          "name": "_idContract",
          "type": "uint256"
        },
        {
          "indexed": true,
          "internalType": "address",
          "name": "collateral",
          "type": "address"
        },
        {
          "indexed": false,
          "internalType": "uint256",
          "name": "amount",
          "type": "uint256"
        }
      ],
      "name": "RecoveryCredit",
      "type": "event"
    },
    {
      "anonymous": false,
      "inputs": [
        {
          "indexed": true,
          "internalType": "uint256",
          "name": "_idContract",
          "type": "uint256"
        },
        {
          "indexed": true,
          "internalType": "address",
          "name": "collateral",
          "type": "address"
        },
        {
          "indexed": false,
          "internalType": "uint256",
          "name": "amount",
          "type": "uint256"
        }
      ],
      "name": "RecoverySingleCredit",
      "type": "event"
    },
    {
      "anonymous": false,
      "inputs": [
        {
          "indexed": true,
          "internalType": "address",
          "name": "_to",
          "type": "address"
        },
        {
          "indexed": true,
          "internalType": "uint256",
          "name": "_idContract",
          "type": "uint256"
        },
        {
          "indexed": true,
          "internalType": "address",
          "name": "collateral",
          "type": "address"
        },
        {
          "indexed": false,
          "internalType": "uint256",
          "name": "amount",
          "type": "uint256"
        }
      ],
      "name": "WidrowCredit",
      "type": "event"
    },
    {
      "anonymous": false,
      "inputs": [
        {
          "indexed": true,
          "internalType": "address",
          "name": "_to",
          "type": "address"
        },
        {
          "indexed": true,
          "internalType": "uint256",
          "name": "_idContract",
          "type": "uint256"
        },
        {
          "indexed": false,
          "internalType": "uint256",
          "name": "_amount",
          "type": "uint256"
        }
      ],
      "name": "applyPenality",
      "type": "event"
    },
    {
      "anonymous": false,
      "inputs": [
        {
          "indexed": true,
          "internalType": "uint256",
          "name": "_idContract",
          "type": "uint256"
        },
        {
          "indexed": true,
          "internalType": "uint256",
          "name": "_timeIncreas",
          "type": "uint256"
        }
      ],
      "name": "newTimeExpireDecreas",
      "type": "event"
    },
    {
      "anonymous": false,
      "inputs": [
        {
          "indexed": true,
          "internalType": "uint256",
          "name": "_idContract",
          "type": "uint256"
        },
        {
          "indexed": true,
          "internalType": "uint256",
          "name": "_timeIncreas",
          "type": "uint256"
        }
      ],
      "name": "newTimeExpireIncreas",
      "type": "event"
    },
    {
      "anonymous": false,
      "inputs": [
        {
          "indexed": true,
          "internalType": "address",
          "name": "_to",
          "type": "address"
        },
        {
          "indexed": true,
          "internalType": "uint256",
          "name": "_idContract",
          "type": "uint256"
        },
        {
          "indexed": false,
          "internalType": "uint256",
          "name": "_amount",
          "type": "uint256"
        }
      ],
      "name": "repay",
      "type": "event"
    },
    {
      "anonymous": false,
      "inputs": [
        {
          "indexed": true,
          "internalType": "address",
          "name": "asset",
          "type": "address"
        },
        {
          "indexed": false,
          "internalType": "uint256",
          "name": "amount",
          "type": "uint256"
        }
      ],
      "name": "widrowFeeEvent",
      "type": "event"
    },
    {
      "anonymous": false,
      "inputs": [
        {
          "indexed": false,
          "internalType": "uint256",
          "name": "_amount",
          "type": "uint256"
        },
        {
          "indexed": true,
          "internalType": "address",
          "name": "_asset",
          "type": "address"
        },
        {
          "indexed": true,
          "internalType": "uint256",
          "name": "_idContract",
          "type": "uint256"
        }
      ],
      "name": "widrwCollateralLoan",
      "type": "event"
    },
    {
      "inputs": [
        {
          "internalType": "address",
          "name": "_asset",
          "type": "address"
        },
        {
          "internalType": "address",
          "name": "_addressPriceFeed",
          "type": "address"
        }
      ],
      "name": "addAddressPriceeFeed",
      "outputs": [],
      "stateMutability": "nonpayable",
      "type": "function"
    },
    {
      "inputs": [
        {
          "internalType": "address",
          "name": "_priceFeed",
          "type": "address"
        }
      ],
      "name": "getLatestPrice",
      "outputs": [
        {
          "internalType": "int256",
          "name": "",
          "type": "int256"
        }
      ],
      "stateMutability": "view",
      "type": "function",
      "constant": true
    },
    {
      "inputs": [
        {
          "internalType": "address",
          "name": "",
          "type": "address"
        }
      ],
      "name": "mockprice",
      "outputs": [
        {
          "internalType": "uint256",
          "name": "",
          "type": "uint256"
        }
      ],
      "stateMutability": "view",
      "type": "function",
      "constant": true
    },
    {
      "inputs": [],
      "name": "owner",
      "outputs": [
        {
          "internalType": "address",
          "name": "",
          "type": "address"
        }
      ],
      "stateMutability": "view",
      "type": "function",
      "constant": true
    },
    {
      "inputs": [],
      "name": "renounceOwnership",
      "outputs": [],
      "stateMutability": "nonpayable",
      "type": "function"
    },
    {
      "inputs": [
        {
          "internalType": "address",
          "name": "_asset",
          "type": "address"
        },
        {
          "internalType": "uint256",
          "name": "_price",
          "type": "uint256"
        }
      ],
      "name": "setMockPrice",
      "outputs": [],
      "stateMutability": "nonpayable",
      "type": "function"
    },
    {
      "inputs": [
        {
          "internalType": "address",
          "name": "_to",
          "type": "address"
        },
        {
          "internalType": "uint256",
          "name": "_idContract",
          "type": "uint256"
        },
        {
          "internalType": "uint256",
          "name": "_time",
          "type": "uint256"
        }
      ],
      "name": "setTimeExpire",
      "outputs": [],
      "stateMutability": "nonpayable",
      "type": "function"
    },
    {
      "inputs": [
        {
          "internalType": "address",
          "name": "newOwner",
          "type": "address"
        }
      ],
      "name": "transferOwnership",
      "outputs": [],
      "stateMutability": "nonpayable",
      "type": "function"
    },
    {
      "inputs": [
        {
          "internalType": "address",
          "name": "_asset",
          "type": "address"
        }
      ],
      "name": "widrowFeeContract",
      "outputs": [],
      "stateMutability": "nonpayable",
      "type": "function"
    },
    {
      "inputs": [
        {
          "internalType": "address",
          "name": "_newAsset",
          "type": "address"
        }
      ],
      "name": "setAssettAvvalible",
      "outputs": [],
      "stateMutability": "nonpayable",
      "type": "function"
    },
    {
      "inputs": [
        {
          "internalType": "address",
          "name": "_asset",
          "type": "address"
        }
      ],
      "name": "findAsset",
      "outputs": [
        {
          "internalType": "bool",
          "name": "",
          "type": "bool"
        }
      ],
      "stateMutability": "view",
      "type": "function",
      "constant": true
    },
    {
      "inputs": [
        {
          "internalType": "address",
          "name": "_asset",
          "type": "address"
        },
        {
          "internalType": "uint256",
          "name": "_amount",
          "type": "uint256"
        },
        {
          "internalType": "uint256",
          "name": "_apr",
          "type": "uint256"
        },
        {
          "internalType": "uint256",
          "name": "_deadline",
          "type": "uint256"
        },
        {
          "internalType": "uint256",
          "name": "_penality",
          "type": "uint256"
        },
        {
          "internalType": "address",
          "name": "_collateral",
          "type": "address"
        },
        {
          "internalType": "uint256",
          "name": "_rateCollateral",
          "type": "uint256"
        }
      ],
      "name": "deposit",
      "outputs": [],
      "stateMutability": "nonpayable",
      "type": "function"
    },
    {
      "inputs": [
        {
          "internalType": "address",
          "name": "_user",
          "type": "address"
        }
      ],
      "name": "listContractXuser",
      "outputs": [
        {
          "internalType": "uint256[]",
          "name": "",
          "type": "uint256[]"
        }
      ],
      "stateMutability": "view",
      "type": "function",
      "constant": true
    },
    {
      "inputs": [],
      "name": "getAssettAvvalible",
      "outputs": [
        {
          "internalType": "address[]",
          "name": "",
          "type": "address[]"
        }
      ],
      "stateMutability": "view",
      "type": "function",
      "constant": true
    },
    {
      "inputs": [
        {
          "internalType": "address",
          "name": "_to",
          "type": "address"
        },
        {
          "internalType": "uint256",
          "name": "_id",
          "type": "uint256"
        }
      ],
      "name": "findContractLending",
      "outputs": [
        {
          "components": [
            {
              "internalType": "uint256",
              "name": "id",
              "type": "uint256"
            },
            {
              "internalType": "address",
              "name": "owner",
              "type": "address"
            },
            {
              "internalType": "bool",
              "name": "lock",
              "type": "bool"
            },
            {
              "internalType": "address",
              "name": "asset",
              "type": "address"
            },
            {
              "internalType": "uint256",
              "name": "amountAvvalible",
              "type": "uint256"
            },
            {
              "internalType": "uint256",
              "name": "apr",
              "type": "uint256"
            },
            {
              "internalType": "uint256",
              "name": "duration",
              "type": "uint256"
            },
            {
              "internalType": "uint256",
              "name": "penality",
              "type": "uint256"
            },
            {
              "internalType": "address",
              "name": "collateral",
              "type": "address"
            },
            {
              "internalType": "uint256",
              "name": "amountBorrow",
              "type": "uint256"
            },
            {
              "internalType": "uint256",
              "name": "rateCollateral",
              "type": "uint256"
            },
            {
              "internalType": "uint256",
              "name": "amountCollateral",
              "type": "uint256"
            }
          ],
          "internalType": "struct Storage.LendingContract",
          "name": "",
          "type": "tuple"
        }
      ],
      "stateMutability": "view",
      "type": "function",
      "constant": true
    },
    {
      "inputs": [
        {
          "internalType": "uint256",
          "name": "_idContract",
          "type": "uint256"
        },
        {
          "internalType": "uint256",
          "name": "_increasAmount",
          "type": "uint256"
        }
      ],
      "name": "increasDeposit",
      "outputs": [],
      "stateMutability": "nonpayable",
      "type": "function"
    },
    {
      "inputs": [
        {
          "internalType": "uint256",
          "name": "_idContract",
          "type": "uint256"
        },
        {
          "internalType": "uint256",
          "name": "_decreasAmount",
          "type": "uint256"
        }
      ],
      "name": "decreasDeposit",
      "outputs": [],
      "stateMutability": "nonpayable",
      "type": "function"
    },
    {
      "inputs": [
        {
          "internalType": "uint256",
          "name": "_idContract",
          "type": "uint256"
        }
      ],
      "name": "deleteContract",
      "outputs": [],
      "stateMutability": "nonpayable",
      "type": "function"
    },
    {
      "inputs": [
        {
          "internalType": "uint256",
          "name": "_idContract",
          "type": "uint256"
        },
        {
          "internalType": "address",
          "name": "_lender",
          "type": "address"
        },
        {
          "internalType": "uint256",
          "name": "_amountBorrow",
          "type": "uint256"
        },
        {
          "internalType": "address",
          "name": "_assettCollateral",
          "type": "address"
        },
        {
          "internalType": "uint256",
          "name": "_amountCollateral",
          "type": "uint256"
        }
      ],
      "name": "executeBorrow",
      "outputs": [],
      "stateMutability": "nonpayable",
      "type": "function"
    },
    {
      "inputs": [
        {
          "internalType": "uint256",
          "name": "_idContract",
          "type": "uint256"
        },
        {
          "internalType": "address",
          "name": "_borrower",
          "type": "address"
        }
      ],
      "name": "serchBorrowerPositionXContract",
      "outputs": [
        {
          "components": [
            {
              "internalType": "address",
              "name": "owner",
              "type": "address"
            },
            {
              "internalType": "uint256",
              "name": "idContract",
              "type": "uint256"
            },
            {
              "internalType": "address",
              "name": "assetBorrow",
              "type": "address"
            },
            {
              "internalType": "uint256",
              "name": "ammounBorrow",
              "type": "uint256"
            },
            {
              "internalType": "address",
              "name": "assetCollaterl",
              "type": "address"
            },
            {
              "internalType": "uint256",
              "name": "amountCollateral",
              "type": "uint256"
            },
            {
              "internalType": "uint256",
              "name": "liquidationThreshold",
              "type": "uint256"
            },
            {
              "internalType": "uint256",
              "name": "expiration",
              "type": "uint256"
            },
            {
              "internalType": "uint256",
              "name": "blockStart",
              "type": "uint256"
            },
            {
              "internalType": "uint256",
              "name": "aprLoan",
              "type": "uint256"
            },
            {
              "internalType": "address",
              "name": "lender",
              "type": "address"
            }
          ],
          "internalType": "struct Storage.Borrower",
          "name": "",
          "type": "tuple"
        }
      ],
      "stateMutability": "view",
      "type": "function",
      "constant": true
    },
    {
      "inputs": [
        {
          "internalType": "uint256",
          "name": "_idContract",
          "type": "uint256"
        },
        {
          "internalType": "address",
          "name": "_borrower",
          "type": "address"
        }
      ],
      "name": "serchIndexBorrowerXContract",
      "outputs": [
        {
          "internalType": "uint256",
          "name": "",
          "type": "uint256"
        }
      ],
      "stateMutability": "view",
      "type": "function",
      "constant": true
    },
    {
      "inputs": [
        {
          "internalType": "address",
          "name": "_to",
          "type": "address"
        },
        {
          "internalType": "uint256",
          "name": "_idContract",
          "type": "uint256"
        },
        {
          "internalType": "bool",
          "name": "_lock",
          "type": "bool"
        }
      ],
      "name": "lockNewBorrow",
      "outputs": [],
      "stateMutability": "nonpayable",
      "type": "function"
    },
    {
      "inputs": [
        {
          "internalType": "address",
          "name": "_borrower",
          "type": "address"
        },
        {
          "internalType": "uint256",
          "name": "_idContract",
          "type": "uint256"
        }
      ],
      "name": "viewAmountLoan",
      "outputs": [
        {
          "internalType": "uint256",
          "name": "loanCompouse",
          "type": "uint256"
        }
      ],
      "stateMutability": "view",
      "type": "function",
      "constant": true
    },
    {
      "inputs": [
        {
          "internalType": "uint256",
          "name": "_idContract",
          "type": "uint256"
        },
        {
          "internalType": "uint256",
          "name": "_amount",
          "type": "uint256"
        }
      ],
      "name": "executeRepay",
      "outputs": [],
      "stateMutability": "nonpayable",
      "type": "function"
    },
    {
      "inputs": [
        {
          "internalType": "uint256",
          "name": "_idContract",
          "type": "uint256"
        },
        {
          "internalType": "uint256",
          "name": "_timeIncreas",
          "type": "uint256"
        }
      ],
      "name": "increaseTimeExpire",
      "outputs": [],
      "stateMutability": "nonpayable",
      "type": "function"
    },
    {
      "inputs": [
        {
          "internalType": "uint256",
          "name": "_idContract",
          "type": "uint256"
        },
        {
          "internalType": "uint256",
          "name": "_timeIncreas",
          "type": "uint256"
        }
      ],
      "name": "decreaseTimeExpire",
      "outputs": [],
      "stateMutability": "nonpayable",
      "type": "function"
    },
    {
      "inputs": [
        {
          "internalType": "uint256",
          "name": "_idContract",
          "type": "uint256"
        },
        {
          "internalType": "uint256",
          "name": "_idBorrow",
          "type": "uint256"
        }
      ],
      "name": "liquidationCall",
      "outputs": [],
      "stateMutability": "nonpayable",
      "type": "function"
    },
    {
      "inputs": [],
      "name": "viewListcontract",
      "outputs": [
        {
          "internalType": "uint256[]",
          "name": "list",
          "type": "uint256[]"
        }
      ],
      "stateMutability": "view",
      "type": "function",
      "constant": true
    },
    {
      "inputs": [
        {
          "internalType": "uint256",
          "name": "_idContract",
          "type": "uint256"
        }
      ],
      "name": "widrowCreditExpire",
      "outputs": [],
      "stateMutability": "nonpayable",
      "type": "function"
    },
    {
      "inputs": [
        {
          "internalType": "uint256",
          "name": "_idContract",
          "type": "uint256"
        }
      ],
      "name": "recoverCreditsExpired",
      "outputs": [],
      "stateMutability": "nonpayable",
      "type": "function"
    },
    {
      "inputs": [
        {
          "internalType": "uint256",
          "name": "_idContract",
          "type": "uint256"
        },
        {
          "internalType": "uint256",
          "name": "_idBorrow",
          "type": "uint256"
        }
      ],
      "name": "recoverSingleCreditExpired",
      "outputs": [],
      "stateMutability": "nonpayable",
      "type": "function"
    }
  ],
  "bytecode": "0x60806040523480156200001157600080fd5b50604051620059b4380380620059b48339810160408190526200003491620000c2565b6200003f3362000067565b6001600b819055506200005e6007620000b960201b62000ef61760201c565b600155620000dc565b600a80546001600160a01b038381166001600160a01b0319831681179093556040519116919082907f8be0079c531659141344cd1fd0a4f28419497f9722a3daafe3b4186f6b6457e090600090a35050565b80546001019055565b600060208284031215620000d557600080fd5b5051919050565b6158c880620000ec6000396000f3fe608060405234801561001057600080fd5b50600436106101e55760003560e01c80637ecf43b91161010f578063dc627408116100a2578063e619515811610071578063e61951581461044f578063f2fde38b14610462578063f4163f2114610475578063facd53ff1461048857600080fd5b8063dc627408146103e6578063e1e3769b146103f9578063e236b6f01461040c578063e2bb0eb91461042c57600080fd5b8063a54bbcb7116100de578063a54bbcb714610376578063aa67414914610396578063b48477dc146103a9578063cfb4d885146103bc57600080fd5b80637ecf43b9146103225780638990616d146103355780638da5cb5b146103485780639c467d3a1461036357600080fd5b806347087215116101875780636f25b8f6116101565780636f25b8f6146102df578063715018a6146102f2578063726adaa4146102fa5780637cb6f38f1461030f57600080fd5b8063470872151461029e5780635473bc60146102b15780636893d336146102b95780636a0556e2146102cc57600080fd5b806316345f18116101c357806316345f181461023857806319dda45c1461024b5780632690046d1461025e578063460e90d01461027e57600080fd5b806308dde662146101ea5780630f901860146102105780631392ed7514610225575b600080fd5b6101fd6101f8366004615372565b61049b565b6040519081526020015b60405180910390f35b61022361021e366004615324565b6104d8565b005b61022361023336600461540f565b61058e565b6101fd610246366004615324565b6105f2565b610223610259366004615532565b610678565b6101fd61026c366004615324565b600c6020526000908152604090205481565b61029161028c366004615324565b6106d2565b60405161020791906155f1565b6102236102ac366004615532565b6106e3565b610291610734565b6102236102c736600461548f565b61078c565b6102236102da366004615532565b6107dc565b6102236102ed3660046154e4565b61082d565b61022361088d565b6103026108f3565b60405161020791906155a4565b61022361031d366004615532565b610902565b6102236103303660046153dc565b610953565b610223610343366004615324565b610993565b600a546040516001600160a01b039091168152602001610207565b61022361037136600461548f565b610a87565b6103896103843660046154c1565b610ad7565b6040516102079190615629565b6102236103a436600461539c565b610b62565b6102236103b7366004615532565b610bbd565b6102236103ca366004615372565b6001600160a01b039091166000908152600c6020526040902055565b6102236103f436600461548f565b610c0e565b6101fd6104073660046154c1565b610c5e565b61041f61041a366004615372565b610c74565b60405161020791906156d6565b61043f61043a366004615324565b610cff565b6040519015158152602001610207565b61022361045d366004615532565b610d0a565b610223610470366004615324565b610d5b565b610223610483366004615532565b610e3d565b61022361049636600461533f565b610e8e565b60006104d16104aa8385610eff565b606001516104b88486610eff565b61012001516104c78587610eff565b610100015161112d565b9392505050565b600a546001600160a01b031633146105375760405162461bcd60e51b815260206004820181905260248201527f4f776e61626c653a2063616c6c6572206973206e6f7420746865206f776e657260448201526064015b60405180910390fd5b6002600b5414156105785760405162461bcd60e51b815260206004820152601f6024820152600080516020615873833981519152604482015260640161052e565b6002600b55610586816111a1565b506001600b55565b6002600b5414156105cf5760405162461bcd60e51b815260206004820152601f6024820152600080516020615873833981519152604482015260640161052e565b6002600b556105e433888888888888886112b6565b50506001600b555050505050565b6000808290506000816001600160a01b031663feaf968c6040518163ffffffff1660e01b815260040160a06040518083038186803b15801561063357600080fd5b505afa158015610647573d6000803e3d6000fd5b505050506040513d601f19601f8201168201806040525081019061066b9190615554565b5091979650505050505050565b6002600b5414156106b95760405162461bcd60e51b815260206004820152601f6024820152600080516020615873833981519152604482015260640161052e565b6002600b556106c9338383611989565b50506001600b55565b60606106dd82611d37565b92915050565b6002600b5414156107245760405162461bcd60e51b815260206004820152601f6024820152600080516020615873833981519152604482015260640161052e565b6002600b556106c9338383611da3565b6060600480548060200260200160405190810160405280929190818152602001828054801561078257602002820191906000526020600020905b81548152602001906001019080831161076e575b5050505050905090565b6002600b5414156107cd5760405162461bcd60e51b815260206004820152601f6024820152600080516020615873833981519152604482015260640161052e565b6002600b556105863382612000565b6002600b54141561081d5760405162461bcd60e51b815260206004820152601f6024820152600080516020615873833981519152604482015260640161052e565b6002600b556106c9338383612447565b6002600b54141561086e5760405162461bcd60e51b815260206004820152601f6024820152600080516020615873833981519152604482015260640161052e565b6002600b5561088133868686868661274d565b50506001600b55505050565b600a546001600160a01b031633146108e75760405162461bcd60e51b815260206004820181905260248201527f4f776e61626c653a2063616c6c6572206973206e6f7420746865206f776e6572604482015260640161052e565b6108f16000612a4d565b565b60606108fd612a9f565b905090565b6002600b5414156109435760405162461bcd60e51b815260206004820152601f6024820152600080516020615873833981519152604482015260640161052e565b6002600b556106c9338383612b00565b6001600160a01b038316600090815260026020908152604080832085845290915281206005018054839290610989908490615797565b9091555050505050565b6002600b5414156109d45760405162461bcd60e51b815260206004820152601f6024820152600080516020615873833981519152604482015260640161052e565b6002600b55600a546001600160a01b03163314610a335760405162461bcd60e51b815260206004820181905260248201527f4f776e61626c653a2063616c6c6572206973206e6f7420746865206f776e6572604482015260640161052e565b610a3c81612c33565b806001600160a01b03167f1406601fca80ce2dde347c6c1c000309440d0365c2b5786f1608d7b1e76dd12d42604051610a7791815260200190565b60405180910390a2506001600b55565b6002600b541415610ac85760405162461bcd60e51b815260206004820152601f6024820152600080516020615873833981519152604482015260640161052e565b6002600b556105863382612d2e565b610b5860405180610160016040528060006001600160a01b031681526020016000815260200160006001600160a01b031681526020016000815260200160006001600160a01b03168152602001600081526020016000815260200160008152602001600081526020016000815260200160006001600160a01b031681525090565b6104d18383610eff565b6002600b541415610ba35760405162461bcd60e51b815260206004820152601f6024820152600080516020615873833981519152604482015260640161052e565b6002600b55610bb3838383612ebf565b50506001600b5550565b6002600b541415610bfe5760405162461bcd60e51b815260206004820152601f6024820152600080516020615873833981519152604482015260640161052e565b6002600b556106c9338383612f88565b6002600b541415610c4f5760405162461bcd60e51b815260206004820152601f6024820152600080516020615873833981519152604482015260640161052e565b6002600b556105863382613631565b600080610c6b8484613836565b95945050505050565b610cf56040518061018001604052806000815260200160006001600160a01b0316815260200160001515815260200160006001600160a01b031681526020016000815260200160008152602001600081526020016000815260200160006001600160a01b031681526020016000815260200160008152602001600081525090565b6104d183836138cb565b60006106dd82613a06565b6002600b541415610d4b5760405162461bcd60e51b815260206004820152601f6024820152600080516020615873833981519152604482015260640161052e565b6002600b556106c9338383613a70565b600a546001600160a01b03163314610db55760405162461bcd60e51b815260206004820181905260248201527f4f776e61626c653a2063616c6c6572206973206e6f7420746865206f776e6572604482015260640161052e565b6001600160a01b038116610e315760405162461bcd60e51b815260206004820152602660248201527f4f776e61626c653a206e6577206f776e657220697320746865207a65726f206160448201527f6464726573730000000000000000000000000000000000000000000000000000606482015260840161052e565b610e3a81612a4d565b50565b6002600b541415610e7e5760405162461bcd60e51b815260206004820152601f6024820152600080516020615873833981519152604482015260640161052e565b6002600b556106c9338383613b49565b600a546001600160a01b03163314610ee85760405162461bcd60e51b815260206004820181905260248201527f4f776e61626c653a2063616c6c6572206973206e6f7420746865206f776e6572604482015260640161052e565b610ef28282613c22565b5050565b80546001019055565b610f8060405180610160016040528060006001600160a01b031681526020016000815260200160006001600160a01b031681526020016000815260200160006001600160a01b03168152602001600081526020016000815260200160008152602001600081526020016000815260200160006001600160a01b031681525090565b60005b6000848152600660205260409020548110156110be57600084815260066020526040902080546001600160a01b038516919083908110610fc557610fc561584e565b60009182526020909120600b90910201546001600160a01b031614156110ac5760008481526006602052604090208054829081106110055761100561584e565b60009182526020918290206040805161016081018252600b90930290910180546001600160a01b039081168452600182015494840194909452600281015484169183019190915260038101546060830152600481015483166080830152600581015460a0830152600681015460c0830152600781015460e083015260088101546101008301526009810154610120830152600a015490911661014082015291506106dd9050565b806110b681615807565b915050610f83565b5060405162461bcd60e51b815260206004820152602660248201527f426f72726f77657220666f72207468697320636f6e7472616374206e6f74207060448201527f726573656e740000000000000000000000000000000000000000000000000000606482015260840161052e565b60008061113a83426157f0565b90506000606463bbf81e0083611150888a6157d1565b61115a91906157d1565b61116491906157af565b61116e91906157af565b6111789087615797565b611183906001615797565b905060018111611198576000925050506104d1565b91506104d19050565b6001600160a01b038116600081815260086020526040812080549190559063a9059cbb6111d6600a546001600160a01b031690565b6040517fffffffff0000000000000000000000000000000000000000000000000000000060e084901b1681526001600160a01b03909116600482015260248101849052604401602060405180830381600087803b15801561123657600080fd5b505af115801561124a573d6000803e3d6000fd5b505050506040513d601f19601f8201168201806040525081019061126e9190615472565b50816001600160a01b03167fb5421d97828b089e7660952a6dbdd122d3dde17a9629a0f6218fd9cc08885b85826040516112aa91815260200190565b60405180910390a25050565b6001600160a01b03881661130c5760405162461bcd60e51b815260206004820152600f60248201527f696e76616c696420616464726573730000000000000000000000000000000000604482015260640161052e565b816001600160a01b0316876001600160a01b0316141561136e5760405162461bcd60e51b815260206004820152601460248201527f636f6c6c61746572616c206e6f742076616c6964000000000000000000000000604482015260640161052e565b61137787613a06565b6113c35760405162461bcd60e51b815260206004820152601160248201527f617373657420646f6e277420666f756e64000000000000000000000000000000604482015260640161052e565b6113cc82613a06565b6114185760405162461bcd60e51b815260206004820152601660248201527f636f6c6c61746572616c20646f6e277420666f756e6400000000000000000000604482015260640161052e565b6040516370a0823160e01b81526001600160a01b0389811660048301528791908916906370a082319060240160206040518083038186803b15801561145c57600080fd5b505afa158015611470573d6000803e3d6000fd5b505050506040513d601f19601f8201168201806040525081019061149491906154a8565b10156114e25760405162461bcd60e51b815260206004820152601060248201527f62616c616e63652075736572206c6f7700000000000000000000000000000000604482015260640161052e565b604051636eb1769f60e11b81526001600160a01b03898116600483015230602483015287919089169063dd62ed3e9060440160206040518083038186803b15801561152c57600080fd5b505afa158015611540573d6000803e3d6000fd5b505050506040513d601f19601f8201168201806040525081019061156491906154a8565b10156115b25760405162461bcd60e51b815260206004820152601160248201527f616c6f77616e63652075736572206c6f77000000000000000000000000000000604482015260640161052e565b600084116116025760405162461bcd60e51b815260206004820152601b60248201527f646561646c696e65206d75737420686176652067656174656520300000000000604482015260640161052e565b6001548310156116545760405162461bcd60e51b815260206004820152601a60248201527f70656e616c697479206d75737420686176652067656174652030000000000000604482015260640161052e565b6040516323b872dd60e01b81526001600160a01b038981166004830152306024830152604482018890528816906323b872dd90606401602060405180830381600087803b1580156116a457600080fd5b505af11580156116b8573d6000803e3d6000fd5b505050506040513d601f19601f820116820180604052508101906116dc9190615472565b5060006127106116ed88600a6157d1565b6116f791906157af565b611702906001615797565b6001600160a01b03891660009081526008602052604081208054929350839290919061172f908490615797565b92505081905550600060405180610180016040528061174d60075490565b81526001600160a01b03808d166020830152600060408301528b16606082015260800161177a848b6157f0565b8152602001888152602001878152602001868152602001856001600160a01b03168152602001600081526020018481526020016000815250905080600260008c6001600160a01b03166001600160a01b0316815260200190815260200160002060006117e560075490565b815260208082019290925260409081016000208351815591830151600183018054928501511515600160a01b0274ffffffffffffffffffffffffffffffffffffffffff199093166001600160a01b03928316179290921790915560608301516002830180549183166001600160a01b03199283161790556080840151600384015560a0840151600484015560c0840151600584015560e084015160068401556101008401516007808501805492851692909316919091179091556101208401516008840155610140840151600984015561016090930151600a90920191909155858116918b8216918d16907f73ccc975565e11201f9228f86b04c2090d856488dd73ce7f1b63b9609708ee47906118fa905490565b60408051918252602082018e905281018c9052606081018b9052608081018a905260a00160405180910390a46001600160a01b038a1660009081526003602090815260408220600780548254600181018455928552929093200155546004908154600181018355600092835260209092209091015561197d600780546001019055565b50505050505050505050565b8282816001600160a01b031661199f83836138cb565b602001516001600160a01b0316146119f35760405162461bcd60e51b8152602060048201526017602482015276139bdd081bdddb995c881d1a1a5cc818dbdb9d1c9858dd604a1b604482015260640161052e565b60008311611a435760405162461bcd60e51b815260206004820152601660248201527f696e6372656173206d75737420626520706c7573203000000000000000000000604482015260640161052e565b82611a4e86866138cb565b606001516040516370a0823160e01b81526001600160a01b038881166004830152909116906370a082319060240160206040518083038186803b158015611a9457600080fd5b505afa158015611aa8573d6000803e3d6000fd5b505050506040513d601f19601f82011682018060405250810190611acc91906154a8565b1015611b1a5760405162461bcd60e51b815260206004820152601060248201527f62616c616e63652075736572206c6f7700000000000000000000000000000000604482015260640161052e565b82611b2586866138cb565b60600151604051636eb1769f60e11b81526001600160a01b0388811660048301523060248301529091169063dd62ed3e9060440160206040518083038186803b158015611b7157600080fd5b505afa158015611b85573d6000803e3d6000fd5b505050506040513d601f19601f82011682018060405250810190611ba991906154a8565b1015611bf75760405162461bcd60e51b815260206004820152601160248201527f616c6f77616e63652075736572206c6f77000000000000000000000000000000604482015260640161052e565b611c0185856138cb565b606001516040516323b872dd60e01b81526001600160a01b03878116600483015230602483015260448201869052909116906323b872dd90606401602060405180830381600087803b158015611c5657600080fd5b505af1158015611c6a573d6000803e3d6000fd5b505050506040513d601f19601f82011682018060405250810190611c8e9190615472565b506001600160a01b038516600090815260026020908152604080832087845290915281206003018054859290611cc5908490615797565b90915550611cd5905085856138cb565b6080015183611ce487876138cb565b60800151611cf291906157f0565b7f70b5eec6cec01e52d9243bac64c12e4fd128a2f20105af16919ae212e224fc65611d1d88886138cb565b516040519081526020015b60405180910390a35050505050565b6001600160a01b038116600090815260036020908152604091829020805483518184028101840190945280845260609392830182828015611d9757602002820191906000526020600020905b815481526020019060010190808311611d83575b50505050509050919050565b8282816001600160a01b0316611db983836138cb565b602001516001600160a01b031614611e0d5760405162461bcd60e51b8152602060048201526017602482015276139bdd081bdddb995c881d1a1a5cc818dbdb9d1c9858dd604a1b604482015260640161052e565b60008311611e5d5760405162461bcd60e51b815260206004820152601660248201527f696e6372656173206d75737420626520706c7573203000000000000000000000604482015260640161052e565b82611e6886866138cb565b608001511015611ee05760405162461bcd60e51b815260206004820152602e60248201527f41737365747420617676616c69626c6520696e73756666696369656e7420666f60448201527f7220746869732077686964726f77000000000000000000000000000000000000606482015260840161052e565b6001600160a01b038516600090815260026020908152604080832087845290915281206003018054859290611f169084906157f0565b90915550611f26905085856138cb565b6060015160405163a9059cbb60e01b81526001600160a01b038781166004830152602482018690529091169063a9059cbb90604401602060405180830381600087803b158015611f7557600080fd5b505af1158015611f89573d6000803e3d6000fd5b505050506040513d601f19601f82011682018060405250810190611fad9190615472565b50611fb885856138cb565b6080015183611fc787876138cb565b60800151611fd59190615797565b7f510055a9c40582bc6ad0cab1e5b0421194c4d34435a16960ec71333bf8bc70cf611d1d88886138cb565b8181816001600160a01b031661201683836138cb565b602001516001600160a01b03161461206a5760405162461bcd60e51b8152602060048201526017602482015276139bdd081bdddb995c881d1a1a5cc818dbdb9d1c9858dd604a1b604482015260640161052e565b61207484846138cb565b6101200151156120c65760405162461bcd60e51b815260206004820152601d60248201527f436f6e7472616374206861766520617373657420696e20626f72726f77000000604482015260640161052e565b6001600160a01b038416600090815260026020908152604080832086845290915281206003810154905490916120fc87876138cb565b606001516001600160a01b03881660008181526002602081815260408084208c8552825280842084815560018101805474ffffffffffffffffffffffffffffffffffffffffff1916905592830180546001600160a01b031990811690915560038085018690556004850186905560058501869055600685018690556007850180549092169091556008840185905560098401859055600a90930184905593835252205490915015612288576000806121b48985613d37565b915091508015612281576001600160a01b038916600090815260036020526040902080546121e4906001906157f0565b815481106121f4576121f461584e565b9060005260206000200154600360008b6001600160a01b03166001600160a01b0316815260200190815260200160002083815481106122355761223561584e565b60009182526020808320909101929092556001600160a01b038b16815260039091526040902080548061226a5761226a615838565b600190038181906000526020600020016000905590555b50506122c6565b6001600160a01b03871660009081526003602052604090208054806122af576122af615838565b600190038181906000526020600020016000905590555b6004541561235d576000806122da88613db6565b91509150801561235657600480546122f4906001906157f0565b815481106123045761230461584e565b9060005260206000200154600483815481106123225761232261584e565b600091825260209091200155600480548061233f5761233f615838565b600190038181906000526020600020016000905590555b5050612385565b600480548061236e5761236e615838565b600190038181906000526020600020016000905590555b60405163a9059cbb60e01b81526001600160a01b0388811660048301526024820185905282169063a9059cbb90604401602060405180830381600087803b1580156123cf57600080fd5b505af11580156123e3573d6000803e3d6000fd5b505050506040513d601f19601f820116820180604052508101906124079190615472565b5060405182906001600160a01b038916907ffd6e81c22721a918c2e59966d2b020f6ccf1fe46d783cc4053c75c1a9fa837f090600090a350505050505050565b8282816001600160a01b031661245d83836138cb565b602001516001600160a01b0316146124b15760405162461bcd60e51b8152602060048201526017602482015276139bdd081bdddb995c881d1a1a5cc818dbdb9d1c9858dd604a1b604482015260640161052e565b6124bd85856001612ebf565b60006124c98585613e13565b6124d39082615797565b60008681526006602052604090208054919250906124f3906001906157f0565b815481106125035761250361584e565b90600052602060002090600b02016006600087815260200190815260200160002085815481106125355761253561584e565b600091825260208083208454600b9093020180546001600160a01b03199081166001600160a01b03948516178255600180870154908301556002808701549083018054831691861691909117905560038087015490830155600480870154908301805483169186169190911790556005808701549083015560068087015481840155600780880154908401556008808801549084015560098088015490840155600a968701549690920180549091169590931694909417909155878252919091526040902080548061260957612609615838565b60008281526020808220600b6000199094019384020180546001600160a01b03199081168255600182018490556002808301805483169055600383018590556004830180548316905560058084018690556006840186905560078085018790556008850187905560098501879055600a9094018054909316909255949095556001600160a01b038b8116845294825260408084209483528084208b855283528084209091015490941682529190915290812080548392906126cb908490615797565b90915550506001600160a01b0386811660008181526002602090815260408083208a8452825280832060070154938352600582528083209390941680835292815290839020549251928352909187917f51b6f2197ad2e62ecef8decac1977b853a4ad371e0d8fb444b1d8521af5596c5910160405180910390a3505050505050565b6001600160a01b0384166000908152600260209081526040808320888452909152902060010154600160a01b900460ff16156127f15760405162461bcd60e51b815260206004820152603060248201527f54686973206c656e6465722068617320626c6f636b656420746865206973737560448201527f616e6365206f66206e6577204c6f616e00000000000000000000000000000000606482015260840161052e565b60006127fd8587613d37565b9150508061284d5760405162461bcd60e51b815260206004820152601360248201527f636f6e747261637420646f6e7420657869737400000000000000000000000000604482015260640161052e565b6001600160a01b03851660009081526002602090815260408083208984529091529020600301548411156128c35760405162461bcd60e51b815260206004820152601460248201527f416d6f756e7420617676616c69626c65206c6f77000000000000000000000000604482015260640161052e565b6001600160a01b038516600090815260026020908152604080832089845290915281206009015490806128f6898b613836565b91509150816129135761290e8a898b89898c89614314565b6129fd565b60008981526006602052604090208054829081106129335761293361584e565b90600052602060002090600b0201600601546129e3600660008c8152602001908152602001600020838154811061296c5761296c61584e565b90600052602060002090600b0201600501546129d2600660008e815260200190815260200160002085815481106129a5576129a561584e565b60009182526020808320600b909202909101600201546001600160a01b03168252600c9052604090205490565b6129dc91906157d1565b8588614779565b116129ed57600080fd5b6129fd8a898b89898c8988614798565b888a6001600160a01b03167fe1979fe4c35e0cef342fef5668e2c8e7a7e9f5d5d1ca8fee0ac6c427fa4153af89604051612a3991815260200190565b60405180910390a350505050505050505050565b600a80546001600160a01b038381166001600160a01b0319831681179093556040519116919082907f8be0079c531659141344cd1fd0a4f28419497f9722a3daafe3b4186f6b6457e090600090a35050565b6060600080548060200260200160405190810160405280929190818152602001828054801561078257602002820191906000526020600020905b81546001600160a01b03168152600190910190602001808311612ad9575050505050905090565b612b0a8284610eff565b516001600160a01b03848116911614612b655760405162461bcd60e51b815260206004820152601360248201527f4e6f74206f776e65722074686973206c6f616e00000000000000000000000000604482015260640161052e565b612b6f8284610eff565b60e00151421115612b9357612b85818484614b16565b612b8e57600080fd5b612bea565b612b9e818484614d53565b612bea5760405162461bcd60e51b815260206004820152600b60248201527f5265706179206572726f72000000000000000000000000000000000000000000604482015260640161052e565b81836001600160a01b03167f8cd2e0c7fd550a74312e3075f80ebbb071970c93280ed06e9101b48e1299bbf883604051612c2691815260200190565b60405180910390a3505050565b6001600160a01b038116612c895760405162461bcd60e51b815260206004820152600f60248201527f696e76616c696420616464726573730000000000000000000000000000000000604482015260640161052e565b612c9281613a06565b15612cdf5760405162461bcd60e51b815260206004820152601660248201527f41737365747420616c726561647920696e206c69737400000000000000000000604482015260640161052e565b600080546001810182559080527f290decd9548b62a8d60345a988386fc84ba6bc95484008f6362f93160ef3e5630180546001600160a01b0319166001600160a01b0392909216919091179055565b8181816001600160a01b0316612d4483836138cb565b602001516001600160a01b031614612d985760405162461bcd60e51b8152602060048201526017602482015276139bdd081bdddb995c881d1a1a5cc818dbdb9d1c9858dd604a1b604482015260640161052e565b612da484846001612ebf565b6000805b600085815260066020526040902054811015612de657612dc88582613e13565b612dd29083615797565b915080612dde81615807565b915050612da8565b506000848152600660205260408120612dfe9161525d565b6001600160a01b0380861660009081526005602090815260408083206002835281842089855283528184206007015490941683529290529081208054839290612e48908490615797565b90915550506001600160a01b038581166000818152600260209081526040808320898452825280832060070154938352600582528083209390941680835292815290839020549251928352909186917f855a6eb4a3651e9881296b06172389d330b2ea79b1b3dc635674cfc8996ab9c29101611d28565b8282816001600160a01b0316612ed583836138cb565b602001516001600160a01b031614612f295760405162461bcd60e51b8152602060048201526017602482015276139bdd081bdddb995c881d1a1a5cc818dbdb9d1c9858dd604a1b604482015260640161052e565b50506001600160a01b039092166000908152600260209081526040808320938352929052206001018054911515600160a01b027fffffffffffffffffffffff00ffffffffffffffffffffffffffffffffffffffff909216919091179055565b8282816001600160a01b0316612f9e83836138cb565b602001516001600160a01b031614612ff25760405162461bcd60e51b8152602060048201526017602482015276139bdd081bdddb995c881d1a1a5cc818dbdb9d1c9858dd604a1b604482015260640161052e565b600084815260066020526040902080546130449190859081106130175761301761584e565b60009182526020808320600b909202909101600401546001600160a01b03168252600c9052604090205490565b60008581526006602052604090208054859081106130645761306461584e565b90600052602060002090600b02016006015411156130ea5760405162461bcd60e51b815260206004820152602760248201527f74687265736f6c64204c69717569646174696f6e207072696365206e6f74206160448201527f6368696576656400000000000000000000000000000000000000000000000000606482015260840161052e565b60008481526006602052604081208054600491908690811061310e5761310e61584e565b90600052602060002090600b02016005015461312a91906157af565b6000868152600660205260409020805491925082918690811061314f5761314f61584e565b90600052602060002090600b0201600501600082825461316f91906157f0565b909155505060008581526006602052604081208054839260029290918890811061319b5761319b61584e565b60009182526020808320600a600b909302018201546001600160a01b0316845283810194909452604092830182208a835290935290812090910180549091906131e59084906157f0565b909155506000905060646131fa8360056157d1565b61320491906157af565b61320f906001615797565b905061321b81836157f0565b6000878152600660205260409020805491935061324291879081106130175761301761584e565b61324c90836157d1565b600087815260066020526040812080546002929190899081106132715761327161584e565b60009182526020808320600a600b9093020191909101546001600160a01b0316835282810193909352604091820181208a8252909252812060080180549091906132bc9084906157f0565b9091555050600086815260066020526040902080546132e69190879081106130175761301761584e565b6132f090836157d1565b60008781526006602052604090208054879081106133105761331061584e565b90600052602060002090600b0201600301600082825461333091906157f0565b90915550506000868152600660205260409020805461342d91908790811061335a5761335a61584e565b90600052602060002090600b020160030154613393600660008a815260200190815260200160002088815481106129a5576129a561584e565b61339d91906157d1565b6000888152600660205260408120805460029291908a9081106133c2576133c261584e565b60009182526020808320600a600b9093020191909101546001600160a01b0316835282810193909352604091820181208b82528352818120600901546006909352208054899081106134165761341661584e565b90600052602060002090600b020160050154614779565b600087815260066020526040902080548790811061344d5761344d61584e565b90600052602060002090600b0201600601819055506006600087815260200190815260200160002085815481106134865761348661584e565b90600052602060002090600b020160040160009054906101000a90046001600160a01b03166001600160a01b031663a9059cbb6006600089815260200190815260200160002087815481106134dd576134dd61584e565b60009182526020909120600b90910201546001600160a01b03166135018486615797565b6040517fffffffff0000000000000000000000000000000000000000000000000000000060e085901b1681526001600160a01b0390921660048301526024820152604401602060405180830381600087803b15801561355f57600080fd5b505af1158015613573573d6000803e3d6000fd5b505050506040513d601f19601f820116820180604052508101906135979190615472565b5084867f3efb85df84531500b13dc16364a68b114a05d55e8153510a851d426be608d9d6600660008a815260200190815260200160002088815481106135df576135df61584e565b600091825260209091206004600b9092020101546001600160a01b03166136068587615797565b604080516001600160a01b03909316835260208301919091520160405180910390a350505050505050565b8181816001600160a01b031661364783836138cb565b602001516001600160a01b03161461369b5760405162461bcd60e51b8152602060048201526017602482015276139bdd081bdddb995c881d1a1a5cc818dbdb9d1c9858dd604a1b604482015260640161052e565b6001600160a01b03841660009081526002602090815260408083208684529091529020600190810154600160a01b900460ff161515146136da57600080fd5b6001600160a01b03841660009081526002602090815260408083208684529091529020600a01541561370b57600080fd5b6001600160a01b03848116600081815260056020908152604080832060028352818420898552808452828520600701805488168652918452828520805490869055948a90529092529054905163a9059cbb60e01b81526004810193909352602483018290529092169063a9059cbb90604401602060405180830381600087803b15801561379757600080fd5b505af11580156137ab573d6000803e3d6000fd5b505050506040513d601f19601f820116820180604052508101906137cf9190615472565b506001600160a01b03858116600081815260026020908152604080832089845282529182902060070154825186815292519416938893927fd6e7472acc7a34539f2cd209d6a48c0b2a54f3117758628d5a7ea1073472c19492908290030190a45050505050565b60008060005b6000858152600660205260409020548110156138bb57600085815260066020526040902080546001600160a01b03861691908390811061387e5761387e61584e565b60009182526020909120600b90910201546001600160a01b031614156138a9576001925090506138c4565b806138b381615807565b91505061383c565b50600080915091505b9250929050565b61394c6040518061018001604052806000815260200160006001600160a01b0316815260200160001515815260200160006001600160a01b031681526020016000815260200160008152602001600081526020016000815260200160006001600160a01b031681526020016000815260200160008152602001600081525090565b506001600160a01b0391821660009081526002602081815260408084209484529381529183902083516101808101855281548152600182015480871694820194909452600160a01b90930460ff161515938301939093528201548316606082015260038201546080820152600482015460a0820152600582015460c0820152600682015460e0820152600782015490921661010083015260088101546101208301526009810154610140830152600a015461016082015290565b6000805b600054811015613a6757826001600160a01b031660008281548110613a3157613a3161584e565b6000918252602090912001546001600160a01b03161415613a555750600192915050565b80613a5f81615807565b915050613a0a565b50600092915050565b8282816001600160a01b0316613a8683836138cb565b602001516001600160a01b031614613ada5760405162461bcd60e51b8152602060048201526017602482015276139bdd081bdddb995c881d1a1a5cc818dbdb9d1c9858dd604a1b604482015260640161052e565b6001600160a01b038516600090815260026020908152604080832087845290915281206005018054859290613b10908490615797565b9091555050604051839085907f55c5fcd1e6b45344c33b2efe8b0a1c21370e8436550c2a417ca7a88b4f9ecd7f90600090a35050505050565b8282816001600160a01b0316613b5f83836138cb565b602001516001600160a01b031614613bb35760405162461bcd60e51b8152602060048201526017602482015276139bdd081bdddb995c881d1a1a5cc818dbdb9d1c9858dd604a1b604482015260640161052e565b6001600160a01b038516600090815260026020908152604080832087845290915281206005018054859290613be9908490615797565b9091555050604051839085907f39ad9ab227a3f33f44fa8a3bd1d05a8540654651c5b126643016fa827169bb6690600090a35050505050565b6001600160a01b03821615801590613c4257506001600160a01b03811615155b613c8e5760405162461bcd60e51b815260206004820152601360248201527f53657420636f7272656374206164647265737300000000000000000000000000604482015260640161052e565b613c9782613a06565b613d095760405162461bcd60e51b815260206004820152602d60248201527f696e73657274206e6577206173736574206265666f726520736574206164647260448201527f6573732050726963654665656400000000000000000000000000000000000000606482015260840161052e565b6001600160a01b03918216600090815260096020526040902080546001600160a01b03191691909216179055565b60008060005b6001600160a01b0385166000908152600360205260409020548110156138bb576001600160a01b0385166000908152600360205260409020805482908110613d8757613d8761584e565b9060005260206000200154841415613da4579150600190506138c4565b80613dae81615807565b915050613d3d565b60008060005b600454811015613e075760048181548110613dd957613dd961584e565b9060005260206000200154841415613df5579360019350915050565b80613dff81615807565b915050613dbc565b50600093849350915050565b6000828152600660205260408120805442919084908110613e3657613e3661584e565b90600052602060002090600b02016007015411613e955760405162461bcd60e51b815260206004820152601060248201527f6c6f616e206e6f74206578706972656400000000000000000000000000000000604482015260640161052e565b6000838152600660205260408120805484908110613eb557613eb561584e565b90600052602060002090600b02016005015490506000600660008681526020019081526020016000208481548110613eef57613eef61584e565b90600052602060002090600b02016003015490506000600660008781526020019081526020016000208581548110613f2957613f2961584e565b90600052602060002090600b0201600501819055506000600660008781526020019081526020016000208581548110613f6457613f6461584e565b90600052602060002090600b0201600801819055506000600660008781526020019081526020016000208581548110613f9f57613f9f61584e565b90600052602060002090600b02016003018190555080613fdc6006600088815260200190815260200160002086815481106130175761301761584e565b613fe690846157d1565b116140e45781600260006006600089815260200190815260200160002087815481106140145761401461584e565b60009182526020808320600a600b909302018201546001600160a01b0316845283810194909452604092830182208a8352909352908120909101805490919061405e9084906157f0565b909155505060008581526006602052604081208054839260029290918890811061408a5761408a61584e565b60009182526020808320600a600b9093020191909101546001600160a01b031683528281019390935260409182018120898252909252812060080180549091906140d59084906157f0565b909155509192506106dd915050565b6000858152600660205260408120805460649161410b91889081106130175761301761584e565b600088815260066020526040902080546141309190899081106129a5576129a561584e565b61413a90856157d1565b6000898152600660205260409020805461415f91908a9081106130175761301761584e565b61416990876157d1565b61417391906157f0565b61417d91906157af565b6141889060146157d1565b61419291906157af565b61419d906001615797565b90508260026000600660008a815260200190815260200160002088815481106141c8576141c861584e565b60009182526020808320600a600b909302018201546001600160a01b0316845283810194909452604092830182208b835290935290812090910180549091906142129084906157f0565b909155505060008681526006602052604081208054849260029290918990811061423e5761423e61584e565b60009182526020808320600a600b9093020191909101546001600160a01b0316835282810193909352604091820181208a8252909252812060080180549091906142899084906157f0565b90915550506000868152600660205260408120805483926008929091899081106142b5576142b561584e565b600091825260208083206004600b9093020191909101546001600160a01b03168352820192909252604001812080549091906142f2908490615797565b90915550614302905081846157f0565b93505050506106dd565b505092915050565b6001600160a01b03861660009081526002602090815260408083208884529091529020600901546143ae8461435e876001600160a01b03166000908152600c602052604090205490565b61436891906157d1565b6001600160a01b0389811660009081526002602081815260408084208d85528252808420909201549093168252600c909252205485905b6143a991906157d1565b615251565b116143fb5760405162461bcd60e51b815260206004820152601e60248201527f696e73756666696369656e7420636f6c6c61746572616c20616d6f756e740000604482015260640161052e565b6040516323b872dd60e01b81526001600160a01b038881166004830152306024830152604482018590528516906323b872dd90606401602060405180830381600087803b15801561444b57600080fd5b505af115801561445f573d6000803e3d6000fd5b505050506040513d601f19601f820116820180604052508101906144839190615472565b5060408051610160810182526001600160a01b0389811682526020808301899052898216600090815260028083528582208b835283528582200154831684860181905260608501889052928916608085015260a08401889052918252600c90529182205460c08201906144f79086906129d2565b81526001600160a01b03891660009081526002602090815260408083208b845282529091206005015491019061452d9042615797565b815260200142815260200161454289896138cb565b60a09081015182526001600160a01b03808b16602093840181905260008b8152600680865260408083208054600181810183559185528885208a51600b9092020180549188166001600160a01b03199283161781558a8a015192810192909255828a015160028084018054928a169284169290921790915560608b015160038085019190915560808c0151600485018054918b16918516919091179055988b0151600584015560c08b01519483019490945560e08a015160078301556101008a015160088301556101208a015160098301556101408a0151600a9092018054929097169116179094559181529084528181208b8252909352822001805492935085929091906146529084906157f0565b90915550506001600160a01b03871660009081526002602090815260408083208984529091528120600801805485929061468d908490615797565b90915550506001600160a01b03871660009081526002602090815260408083208984529091528120600a0180548692906146c8908490615797565b90915550506001600160a01b0387811660009081526002602081815260408084208b8552909152918290200154905163a9059cbb60e01b81528a831660048201526024810186905291169063a9059cbb90604401602060405180830381600087803b15801561473657600080fd5b505af115801561474a573d6000803e3d6000fd5b505050506040513d601f19601f8201168201806040525081019061476e9190615472565b505050505050505050565b60008161478684866157d1565b61479091906157af565b949350505050565b60008681526006602052604090208054829081106147b8576147b861584e565b60009182526020909120600b90910201546001600160a01b038981169116146148235760405162461bcd60e51b815260206004820152601360248201527f4e6f74206f776e65722074686973206c6f616e00000000000000000000000000604482015260640161052e565b6001600160a01b0387166000908152600260209081526040808320898452825280832060090154600690925290912080546149199187918590811061486a5761486a61584e565b90600052602060002090600b0201600501546148869190615797565b600089815260066020526040902080546148ab9190869081106130175761301761584e565b6148b591906157d1565b60008981526006602052604090208054879190869081106148d8576148d861584e565b90600052602060002090600b0201600301546148f49190615797565b60008a8152600660205260409020805461439f9190879081106129a5576129a561584e565b1161492357600080fd5b6040516323b872dd60e01b81526001600160a01b038981166004830152306024830152604482018690528616906323b872dd90606401602060405180830381600087803b15801561497357600080fd5b505af1158015614987573d6000803e3d6000fd5b505050506040513d601f19601f820116820180604052508101906149ab9190615472565b5060008681526006602052604090208054849190839081106149cf576149cf61584e565b90600052602060002090600b020160030160008282546149ef9190615797565b90915550506000868152600660205260409020805485919083908110614a1757614a1761584e565b90600052602060002090600b02016005016000828254614a379190615797565b909155505060008681526006602052604090208054614aab919083908110614a6157614a6161584e565b90600052602060002090600b020160030154614a9a600660008a815260200190815260200160002084815481106129a5576129a561584e565b614aa491906157d1565b8386614779565b6000878152600660205260409020805483908110614acb57614acb61584e565b600091825260208083206006600b9093020191909101929092556001600160a01b038916815260028252604080822089835290925290812060030180548592906146529084906157f0565b600080614b238385613836565b91505042600660008581526020019081526020016000208281548110614b4b57614b4b61584e565b90600052602060002090600b02016007015410614baa5760405162461bcd60e51b815260206004820152601560248201527f54686973206c6f616e206e6f7420657870697265640000000000000000000000604482015260640161052e565b60006064614bb98760626157d1565b614bc391906157af565b614bce906001615797565b905060006064614bdf8360056157d1565b614be991906157af565b614bf4906001615797565b9050614c0081836157f0565b91508060086000600660008981526020019081526020016000208681548110614c2b57614c2b61584e565b600091825260208083206002600b9093020191909101546001600160a01b0316835282019290925260400181208054909190614c68908490615797565b90915550614c78905082886157f0565b60008681526006602052604081208054600292919087908110614c9d57614c9d61584e565b60009182526020808320600a600b9093020191909101546001600160a01b03168352828101939093526040918201812089825290925281206003018054909190614ce8908490615797565b90915550614cf99050828787614d53565b614d0257600080fd5b84866001600160a01b03167ff4566bf0f626de61c22d06426bb7c188fe0cbf319d7bde6569daac73e2b18f0a84604051614d3e91815260200190565b60405180910390a35060019695505050505050565b600080614d608385613836565b915050614e0d600660008581526020019081526020016000208281548110614d8a57614d8a61584e565b90600052602060002090600b020160030154600660008681526020019081526020016000208381548110614dc057614dc061584e565b90600052602060002090600b020160090154600660008781526020019081526020016000208481548110614df657614df661584e565b90600052602060002090600b02016008015461112d565b6000848152600660205260409020805483908110614e2d57614e2d61584e565b90600052602060002090600b02016003018190555084600660008581526020019081526020016000208281548110614e6757614e6761584e565b90600052602060002090600b0201600301541015614ec75760405162461bcd60e51b815260206004820152601860248201527f596f752063616e206f6e6c79204c6f616e20616d6f756e740000000000000000604482015260640161052e565b6000838152600660205260409020805482908110614ee757614ee761584e565b60009182526020909120600b90910201600201546040516323b872dd60e01b81526001600160a01b03868116600483015230602483015260448201889052909116906323b872dd90606401602060405180830381600087803b158015614f4c57600080fd5b505af1158015614f60573d6000803e3d6000fd5b505050506040513d601f19601f82011682018060405250810190614f849190615472565b506000612710614f958760146157d1565b614f9f91906157af565b614faa906001615797565b90508060086000600660008881526020019081526020016000208581548110614fd557614fd561584e565b600091825260208083206002600b9093020191909101546001600160a01b0316835282019290925260400181208054909190615012908490615797565b909155505060008481526006602052604081208054849081106150375761503761584e565b60009182526020909120600a600b9092020101546001600160a01b0316905061506082886157f0565b6001600160a01b0382166000908152600260209081526040808320898452909152812060080180549091906150969084906157f0565b909155506150a6905082886157f0565b6001600160a01b0382166000908152600260209081526040808320898452909152812060030180549091906150dc908490615797565b909155506150ec905082886157f0565b600086815260066020526040902080548590811061510c5761510c61584e565b90600052602060002090600b0201600301600082825461512c91906157f0565b909155505060008581526006602052604090208054429190859081106151545761515461584e565b90600052602060002090600b0201600801819055506152106151936006600088815260200190815260200160002085815481106129a5576129a561584e565b60008781526006602052604090208054869081106151b3576151b361584e565b90600052602060002090600b0201600301546151cf91906157d1565b6001600160a01b03831660009081526002602090815260408083208a845282528083206009015460069092529091208054879081106134165761341661584e565b60008681526006602052604090208054859081106152305761523061584e565b600091825260209091206006600b9092020101555060019695505050505050565b60006104d182846157af565b50805460008255600b0290600052602060002090810190610e3a91905b808211156152ea5780546001600160a01b03199081168255600060018301819055600283018054831690556003830181905560048301805483169055600583018190556006830181905560078301819055600883018190556009830155600a820180549091169055600b0161527a565b5090565b80356001600160a01b038116811461530557600080fd5b919050565b805169ffffffffffffffffffff8116811461530557600080fd5b60006020828403121561533657600080fd5b6104d1826152ee565b6000806040838503121561535257600080fd5b61535b836152ee565b9150615369602084016152ee565b90509250929050565b6000806040838503121561538557600080fd5b61538e836152ee565b946020939093013593505050565b6000806000606084860312156153b157600080fd5b6153ba846152ee565b92506020840135915060408401356153d181615864565b809150509250925092565b6000806000606084860312156153f157600080fd5b6153fa846152ee565b95602085013595506040909401359392505050565b600080600080600080600060e0888a03121561542a57600080fd5b615433886152ee565b96506020880135955060408801359450606088013593506080880135925061545d60a089016152ee565b915060c0880135905092959891949750929550565b60006020828403121561548457600080fd5b81516104d181615864565b6000602082840312156154a157600080fd5b5035919050565b6000602082840312156154ba57600080fd5b5051919050565b600080604083850312156154d457600080fd5b82359150615369602084016152ee565b600080600080600060a086880312156154fc57600080fd5b8535945061550c602087016152ee565b935060408601359250615521606087016152ee565b949793965091946080013592915050565b6000806040838503121561554557600080fd5b50508035926020909101359150565b600080600080600060a0868803121561556c57600080fd5b6155758661530a565b94506020860151935060408601519250606086015191506155986080870161530a565b90509295509295909350565b6020808252825182820181905260009190848201906040850190845b818110156155e55783516001600160a01b0316835292840192918401916001016155c0565b50909695505050505050565b6020808252825182820181905260009190848201906040850190845b818110156155e55783518352928401929184019160010161560d565b81516001600160a01b03168152610160810160208301516020830152604083015161565f60408401826001600160a01b03169052565b5060608301516060830152608083015161568460808401826001600160a01b03169052565b5060a083015160a083015260c083015160c083015260e083015160e08301526101008084015181840152506101208084015181840152506101408084015161430c828501826001600160a01b03169052565b815181526020808301516101808301916156fa908401826001600160a01b03169052565b50604083015161570e604084018215159052565b50606083015161572960608401826001600160a01b03169052565b506080830151608083015260a083015160a083015260c083015160c083015260e083015160e08301526101008084015161576d828501826001600160a01b03169052565b50506101208381015190830152610140808401519083015261016092830151929091019190915290565b600082198211156157aa576157aa615822565b500190565b6000826157cc57634e487b7160e01b600052601260045260246000fd5b500490565b60008160001904831182151516156157eb576157eb615822565b500290565b60008282101561580257615802615822565b500390565b600060001982141561581b5761581b615822565b5060010190565b634e487b7160e01b600052601160045260246000fd5b634e487b7160e01b600052603160045260246000fd5b634e487b7160e01b600052603260045260246000fd5b8015158114610e3a57600080fdfe5265656e7472616e637947756172643a207265656e7472616e742063616c6c00a2646970667358221220d7b33174764eed7d3b517e00d0cd85feed422fb7b67b4b4312ab7b1f34b8c3bd64736f6c63430008070033",
  "immutableReferences": {},
  "source": "// SPDX-License-Identifier: Leluk911\n\npragma solidity 0.8.7;\n\nimport \"../node_modules/@openzeppelin/contracts/token/ERC20/IERC20.sol\";\nimport \"../node_modules/@openzeppelin/contracts/access/Ownable.sol\";\nimport \"../node_modules/@openzeppelin/contracts/utils/Counters.sol\";\nimport \"../node_modules/@openzeppelin/contracts/security/ReentrancyGuard.sol\";\nimport \"./storage.sol\";\nimport \"./interestCalculator.sol\";\nimport \"./coreFunction.sol\";\n\n\ncontract lendingPage is CoreFunction {\n    //library\n    using Counters for Counters.Counter;\n    //function variable\n    //-------------------------------//\n    constructor(uint _minpenality){\n        Id.increment();\n        minPenality = _minpenality;\n    }\n \n    // ----> User Function\n    function _deposit(address _to,address _asset,uint _amount,uint _apr,uint _deadline,uint _penality,address _collateral,uint _rateCollateral)internal {\n        require(_to != address(0), \"invalid address\");\n        require(_asset != _collateral, \"collateral not valid\");\n        require(_findAsset(_asset),\"asset don't found\");\n        //TEST require(addressPriceFeed[_asset] != address(0),\"Pricefeed address miss, whait owner set address priceFeed for this asset\");\n        require(_findAsset(_collateral),\"collateral don't found\");\n        require(IERC20(_asset).balanceOf(_to) >= _amount,\"balance user low\");\n        require(IERC20(_asset).allowance(_to, address(this)) >= _amount,\"alowance user low\");\n        require(_deadline > 0,\"deadline must have geatee 0\");\n        require(_penality >=  minPenality,\"penality must have geate 0\");    \n        IERC20(_asset).transferFrom(_to,address(this), _amount);\n        // fee 0.10%\n        uint contractFee = ((_amount * 10)/10000)+1;\n        balanceFee[_asset] += contractFee;\n        //\n        LendingContract memory newContract= LendingContract(\n            Id.current(),\n            _to,\n            false,\n            _asset,\n            _amount - contractFee,\n            _apr,\n            _deadline,\n            _penality,\n            _collateral,\n            0,\n            _rateCollateral,\n            0\n        );\n        userLendingContract[_to][Id.current()] = newContract;\n        emit NewContractDeposit(\n            Id.current(),_to,_asset,_amount,_apr,_deadline,_penality, _collateral\n        );\n        listContractUser[_to].push(Id.current());\n        listContract.push(Id.current());\n        Id.increment();\n    }\n    function _increasDeposit(address _to,uint _idContract, uint _increasAmount) internal  contractOwner(_to, _idContract){\n        require(_increasAmount > 0, \"increas must be plus 0\");\n        require(IERC20(_findContractLending(_to,_idContract).asset).balanceOf(_to) >= _increasAmount,\"balance user low\");\n        require(IERC20(_findContractLending(_to,_idContract).asset).allowance(_to, address(this)) >= _increasAmount,\"alowance user low\");\n        IERC20(_findContractLending(_to,_idContract).asset).transferFrom(_to,address(this), _increasAmount);\n        userLendingContract[_to][_idContract].amountAvvalible += _increasAmount; \n        emit IncreasContractDeposit(\n            _findContractLending(_to,_idContract).id,\n            _findContractLending(_to,_idContract).amountAvvalible - _increasAmount,\n            _findContractLending(_to,_idContract).amountAvvalible  \n        );\n    }\n    function _decreasDeposit(address _to,uint _idContract, uint _decreasAmount) internal contractOwner(_to, _idContract){\n        require(_decreasAmount > 0, \"increas must be plus 0\");\n        require(\n            _findContractLending(_to,_idContract).amountAvvalible >= _decreasAmount, \"Assett avvalible insufficient for this whidrow\"\n        );\n     \n\n        userLendingContract[_to][_idContract].amountAvvalible -= _decreasAmount;\n\n        IERC20(_findContractLending(_to,_idContract).asset).transfer(_to,_decreasAmount);\n\n        emit DecreasContractDeposit(\n            _findContractLending(_to,_idContract).id,\n            _findContractLending(_to,_idContract).amountAvvalible + _decreasAmount,\n            _findContractLending(_to,_idContract).amountAvvalible\n            \n        );\n\n    }\n    function _deleteContract(address _to,uint _idContract)internal contractOwner(_to, _idContract){\n       require(\n            _findContractLending(_to,_idContract).amountBorrow == 0, \"Contract have asset in borrow\"\n        ); \n        uint amountRepay = userLendingContract[_to][_idContract].amountAvvalible;\n        uint deleteId = userLendingContract[_to][_idContract].id;\n        address assetWidrow =_findContractLending(_to,_idContract).asset;\n        delete userLendingContract[_to][_idContract];\n        if(listContractUser[_to].length > 0){\n            (uint indexDelete, bool response) = _findArrayindexContract(_to, deleteId);\n            if(response){\n                listContractUser[_to][indexDelete]=listContractUser[_to][listContractUser[_to].length -1];\n                listContractUser[_to].pop();\n            }\n        }else{\n            listContractUser[_to].pop();\n        }\n          if(listContract.length > 0){\n            (uint indexDelete, bool response) = _findContractAvvalible(_idContract);\n            if(response){\n                listContract[indexDelete] = listContract[listContract.length -1];\n                listContract.pop();\n            }\n        }else{\n            listContract.pop();\n        }\n        IERC20(assetWidrow).transfer(_to,amountRepay);\n        emit DeleteContractDeposit(_to, deleteId);\n    }\n    function _lockNewBorrow(address _to,uint _idContract,bool _lock)internal contractOwner(_to, _idContract){\n            userLendingContract[_to][_idContract].lock = _lock;   \n       \n    }\n    function _increaseTimeExpire(address _to,uint _idContract, uint _timeIncreas)internal contractOwner(_to, _idContract){\n            userLendingContract[_to][_idContract].duration += _timeIncreas;  \n            emit newTimeExpireIncreas(_idContract, _timeIncreas);   \n    }\n    function _decreaseTimeExpire(address _to,uint _idContract, uint _timeIncreas)internal contractOwner(_to, _idContract){\n            //require(userLendingContract[_to][_idContract].amountBorrow == 0);\n            userLendingContract[_to][_idContract].duration += _timeIncreas;\n            emit newTimeExpireDecreas(_idContract, _timeIncreas);     \n    }\n    function _liquidationCall(address _to,uint _idContract,uint _idBorrow) internal contractOwner(_to, _idContract) {\n        require(borrowersXid[_idContract][_idBorrow].liquidationThreshold <= oraclePrice(borrowersXid[_idContract][_idBorrow].assetCollaterl),\"thresold Liquidation price not achieved\");\n                 \n        // 1/4 collateral\n        uint liquidationAmount = borrowersXid[_idContract][_idBorrow].amountCollateral /4; // parte da liquidare\n        borrowersXid[_idContract][_idBorrow].amountCollateral -= liquidationAmount;\n        userLendingContract[borrowersXid[_idContract][_idBorrow].lender][_idContract].amountCollateral -= liquidationAmount;\n        uint premiumLiquidation = ((liquidationAmount * 5)/100)+1;\n        liquidationAmount -= premiumLiquidation;\n        userLendingContract[borrowersXid[_idContract][_idBorrow].lender][_idContract].amountBorrow -= liquidationAmount * oraclePrice(borrowersXid[_idContract][_idBorrow].assetCollaterl);\n        borrowersXid[_idContract][_idBorrow].ammounBorrow -= liquidationAmount * oraclePrice(borrowersXid[_idContract][_idBorrow].assetCollaterl);\n        borrowersXid[_idContract][_idBorrow].liquidationThreshold = _liquidationThresold(\n             oraclePrice(borrowersXid[_idContract][_idBorrow].assetBorrow) * borrowersXid[_idContract][_idBorrow].ammounBorrow,\n             userLendingContract[borrowersXid[_idContract][_idBorrow].lender][_idContract].rateCollateral,\n             borrowersXid[_idContract][_idBorrow].amountCollateral\n             );\n        IERC20(borrowersXid[_idContract][_idBorrow].assetCollaterl).transfer(\n            borrowersXid[_idContract][_idBorrow].owner,\n            liquidationAmount + premiumLiquidation);\n     \n     emit LiquidationCall(_idContract,_idBorrow,borrowersXid[_idContract][_idBorrow].assetCollaterl,liquidationAmount + premiumLiquidation);\n    }\n    function _collateralSeizure(uint _idContract,uint _idBorrow) internal returns(uint){\n        require(borrowersXid[_idContract][_idBorrow].expiration > block.timestamp,\"loan not expired\");\n        uint collateral = borrowersXid[_idContract][_idBorrow].amountCollateral;\n        uint borrowExpired = borrowersXid[_idContract][_idBorrow].ammounBorrow;\n        borrowersXid[_idContract][_idBorrow].amountCollateral = 0;\n        borrowersXid[_idContract][_idBorrow].blockStart = 0;\n        borrowersXid[_idContract][_idBorrow].ammounBorrow = 0;\n        if(collateral * oraclePrice(borrowersXid[_idContract][_idBorrow].assetCollaterl)<=  borrowExpired){\n            userLendingContract[borrowersXid[_idContract][_idBorrow].lender][_idContract].amountCollateral -= collateral;\n            userLendingContract[borrowersXid[_idContract][_idBorrow].lender][_idContract].amountBorrow -= borrowExpired;\n            return collateral;   \n        }else {\n            uint contractFee = ((((collateral * oraclePrice(borrowersXid[_idContract][_idBorrow].assetCollaterl)\n                    - borrowExpired *oraclePrice(borrowersXid[_idContract][_idBorrow].assetBorrow))\n                    / oraclePrice(borrowersXid[_idContract][_idBorrow].assetCollaterl))*20)/100)+1;\n                    \n            userLendingContract[borrowersXid[_idContract][_idBorrow].lender][_idContract].amountCollateral -= collateral;\n            userLendingContract[borrowersXid[_idContract][_idBorrow].lender][_idContract].amountBorrow -= borrowExpired;\n            balanceFee[borrowersXid[_idContract][_idBorrow].assetCollaterl] += contractFee;\n            return collateral - contractFee;   \n        }\n    }\n    function _widrowCreditExpire(address _to,uint _idContract)internal contractOwner(_to, _idContract){\n        require(userLendingContract[_to][_idContract].lock == true);\n        require(userLendingContract[_to][_idContract].amountCollateral ==0);\n        uint widrow = userCreditExpire[_to][userLendingContract[_to][_idContract].collateral];\n        userCreditExpire[_to][userLendingContract[_to][_idContract].collateral] = 0;\n        IERC20(userLendingContract[_to][_idContract].collateral).transfer(_to, widrow);\n\n        emit WidrowCredit(_to, _idContract, userLendingContract[_to][_idContract].collateral, widrow);\n    }\n    function _RecoverCreditsExpired(address _to,uint _idContract)internal contractOwner(_to, _idContract) {\n        _lockNewBorrow(_to,_idContract,true);\n        uint creditExpired;\n        for(uint i; i < borrowersXid[_idContract].length ; i++){\n            creditExpired+=_collateralSeizure( _idContract,i);\n        }\n        delete borrowersXid[_idContract] ;\n        userCreditExpire[_to][userLendingContract[_to][_idContract].collateral] += creditExpired;\n        emit RecoveryCredit(_idContract, userLendingContract[_to][_idContract].collateral, userCreditExpire[_to][userLendingContract[_to][_idContract].collateral]);\n    }\n     function _RecoverSingleCreditExpired(address _to,uint _idContract,uint _idBorrow)internal contractOwner(_to, _idContract) {\n        _lockNewBorrow(_to,_idContract,true);\n        \n        uint singleCreditExpired;\n        singleCreditExpired +=_collateralSeizure( _idContract, _idBorrow);\n        \n        borrowersXid[_idContract][_idBorrow] = borrowersXid[_idContract][borrowersXid[_idContract].length -1];\n        borrowersXid[_idContract].pop();\n\n        userCreditExpire[_to][userLendingContract[_to][_idContract].collateral] += singleCreditExpired; \n        emit RecoverySingleCredit(_idContract, userLendingContract[_to][_idContract].collateral, userCreditExpire[_to][userLendingContract[_to][_idContract].collateral]);\n    }\n    \n    //BORROW FUNCTION\n    function _executeBorrow(address _to,uint _idContract,address _lender,uint _amountBorrow,address _assettCollateral,uint _amountCollateral) internal {\n        require(userLendingContract[_lender][_idContract].lock == false,\"This lender has blocked the issuance of new Loan\");\n        (,bool response) = _findArrayindexContract(_lender,_idContract);\n        require(response,\"contract dont exist\");\n        require(userLendingContract[_lender][_idContract].amountAvvalible >= _amountBorrow,\"Amount avvalible low\");\n        uint _rateLiquidation = userLendingContract[_lender][_idContract].rateCollateral;\n        (bool responseSrc,uint indexBorrow) = _serchIndexBorrowerXContract(_idContract, _to);\n        //check before act borrow \n        if(!responseSrc){\n            _newBorrower(_to,_lender, _idContract, _assettCollateral, _amountCollateral, _amountBorrow, _rateLiquidation);\n        }else{\n            //_liquidationThresold( uint _priceBorrowEth,uint _rateLiquidation)\n            require(_liquidationThresold(\n                          oraclePrice(borrowersXid[_idContract][indexBorrow].assetBorrow) * borrowersXid[_idContract][indexBorrow].amountCollateral,\n                           _rateLiquidation,\n                           _amountCollateral) > borrowersXid[_idContract][indexBorrow].liquidationThreshold);\n            _oldBorrower(_to, _lender, _idContract, _assettCollateral, _amountCollateral, _amountBorrow, _rateLiquidation, indexBorrow);\n\n        }\n\n        emit Borrow(_to, _idContract, _amountBorrow);\n    }\n    function _oldBorrower(address _to,address _lender,uint _idContract,address _assettCollateral,uint _amountCollateral,uint _amountBorrow, uint _rateLiquidation,uint indexBorrow)internal {\n        require(_to == borrowersXid[_idContract][indexBorrow].owner, \"Not owner this loan\" );\n        require(_healFactor( oraclePrice(borrowersXid[_idContract][indexBorrow].assetCollaterl)\n                *(borrowersXid[_idContract][indexBorrow].amountCollateral + _amountCollateral),\n                             oraclePrice(borrowersXid[_idContract][indexBorrow].assetBorrow) \n                             *(borrowersXid[_idContract][indexBorrow].ammounBorrow + _amountBorrow)\n                             )> userLendingContract[_lender][_idContract].rateCollateral); \n\n        IERC20(_assettCollateral).transferFrom(_to, address(this), _amountCollateral);\n        borrowersXid[_idContract][indexBorrow].ammounBorrow += _amountBorrow;// aggiornata la variabile globale\n        borrowersXid[_idContract][indexBorrow].amountCollateral += _amountCollateral;// aggiornata la variabile globale\n        borrowersXid[_idContract][indexBorrow].liquidationThreshold =\n                _liquidationThresold(\n                    oraclePrice(borrowersXid[_idContract][indexBorrow].assetBorrow)\n                    *borrowersXid[_idContract][indexBorrow].ammounBorrow,\n                    _rateLiquidation,_amountCollateral\n                    );\n        userLendingContract[_lender][_idContract].amountAvvalible -=_amountBorrow;// togliamo le coin prestare\n        userLendingContract[_lender][_idContract].amountBorrow += _amountBorrow; // incrementiamo il capitale prestato\n        userLendingContract[_lender][_idContract].amountCollateral += _amountCollateral;// aggiungiamo la quantita di collaterale presente nel contratto\n        IERC20(userLendingContract[_lender][_idContract].asset).transfer(_to, _amountBorrow);\n\n    }\n    function _newBorrower(address _to,address _lender,uint _idContract,address _assettCollateral,uint _amountCollateral,uint _amountBorrow, uint _rateLiquidation)internal {\n        \n        //(uint _priceCollateralETH, uint _priceBorrowEth)\n        require(_healFactor(oraclePrice(_assettCollateral) * _amountCollateral,\n            oraclePrice(userLendingContract[_lender][_idContract].asset)*_amountBorrow) \n            > userLendingContract[_lender][_idContract].rateCollateral,\"insufficient collateral amount\");\n\n        IERC20(_assettCollateral).transferFrom(_to, address(this), _amountCollateral);\n        Borrower memory newBorrower = Borrower(\n                                            _to,\n                                            _idContract,\n                                            userLendingContract[_lender][_idContract].asset,\n                                            _amountBorrow,\n                                            _assettCollateral,\n                                            _amountCollateral,\n                                            _liquidationThresold(\n                                                oraclePrice(userLendingContract[_lender][_idContract].asset) *_amountBorrow,\n                                                 _rateLiquidation,\n                                                 _amountCollateral\n                                                 ),\n                                            block.timestamp + userLendingContract[_lender][_idContract].duration,\n                                            block.timestamp,\n                                            _findContractLending(_lender,_idContract).apr,\n                                            _lender\n\n                                            );\n        borrowersXid[_idContract].push(newBorrower);\n        userLendingContract[_lender][_idContract].amountAvvalible -=_amountBorrow;// togliamo le coin prestare\n        userLendingContract[_lender][_idContract].amountBorrow += _amountBorrow; // incrementiamo il capitale prestato\n        userLendingContract[_lender][_idContract].amountCollateral += _amountCollateral;// aggiungiamo la quantita di collaterale presente nel contratto\n        IERC20(userLendingContract[_lender][_idContract].asset).transfer(_to, _amountBorrow);\n    }\n    function _executeRepay(address _to, uint _idContract,uint _amount) internal {\n        require(_to  ==  _serchBorrowerPositionXContract(_idContract, _to).owner ,\"Not owner this loan\");\n        if(block.timestamp >  _serchBorrowerPositionXContract(_idContract, _to).expiration){\n            require(_penalityLoan(_amount, _to, _idContract));// gestire la penalit\n        }else{\n            require(_repay( _amount, _to, _idContract),\"Repay error\");\n        }\n        emit repay(_to, _idContract, _amount);\n    }\n    function _repay(uint _amount,address _to,uint _idContract) internal returns(bool){\n            (,uint indexBorrow) = _serchIndexBorrowerXContract(_idContract, _to);\n\n            borrowersXid[_idContract][indexBorrow].ammounBorrow = InterestCalculator._getTotalLoan(\n                borrowersXid[_idContract][indexBorrow].ammounBorrow,\n                borrowersXid[_idContract][indexBorrow].aprLoan,\n                borrowersXid[_idContract][indexBorrow].blockStart);\n            require(borrowersXid[_idContract][indexBorrow].ammounBorrow >= _amount, \"You can only Loan amount\");\n\n            IERC20(borrowersXid[_idContract][indexBorrow].assetBorrow).transferFrom(_to,address(this), _amount);\n               // fee 0.20%\n                uint contractFee = ((_amount * 20)/10000)+1;\n                balanceFee[borrowersXid[_idContract][indexBorrow].assetBorrow] += contractFee;\n                //\n            address _lender = borrowersXid[_idContract][indexBorrow].lender;\n            userLendingContract[_lender][_idContract].amountBorrow -= _amount - contractFee;\n            userLendingContract[_lender][_idContract].amountAvvalible += _amount - contractFee;\n            borrowersXid[_idContract][indexBorrow].ammounBorrow -= _amount - contractFee;\n            borrowersXid[_idContract][indexBorrow].blockStart = block.timestamp;\n            borrowersXid[_idContract][indexBorrow].liquidationThreshold = \n                _liquidationThresold(\n                      borrowersXid[_idContract][indexBorrow].ammounBorrow * \n                      oraclePrice(borrowersXid[_idContract][indexBorrow].assetBorrow),\n                      userLendingContract[_lender][_idContract].rateCollateral,\n                      borrowersXid[_idContract][indexBorrow].amountCollateral);\n            return true;\n    }\n    function _penalityLoan ( uint _amount,address _to,uint _idContract) internal returns(bool){\n        (,uint indexBorrow) = _serchIndexBorrowerXContract(_idContract, _to);\n        require(borrowersXid[_idContract][indexBorrow].expiration < block.timestamp, \"This loan not expired\");\n        //penality 2% of pay\n        uint new_amount = ((_amount *98)/100)+1;\n        // fee 5%\n        uint contractFee = ((new_amount * 5)/100)+1;\n        new_amount -= contractFee;\n        balanceFee[borrowersXid[_idContract][indexBorrow].assetBorrow] += contractFee;\n        userLendingContract[borrowersXid[_idContract][indexBorrow].lender][_idContract].amountAvvalible += _amount - new_amount;// tutto /2\n        require(_repay(new_amount, _to, _idContract));\n        emit applyPenality(_to, _idContract,new_amount);\n        return true;\n    }\n    // EXTERNAL FUNCTION\n    function setAssettAvvalible(address _newAsset) external nonReentrant() onlyOwner() {\n        _setAssettAvvalible(_newAsset);\n        emit NewAssetAvvalible(_newAsset, block.timestamp);\n    } \n    function findAsset(address _asset) external view returns(bool){\n        return _findAsset(_asset);\n    }\n    function deposit(address _asset,uint _amount,uint _apr,uint _deadline,uint _penality,address _collateral,uint _rateCollateral) external nonReentrant() {\n        _deposit(msg.sender, _asset, _amount, _apr, _deadline, _penality, _collateral,_rateCollateral);\n    }\n    function listContractXuser(address _user) external view returns(uint[] memory){\n        return _listContractXuser(_user);\n    }\n    function getAssettAvvalible()external view returns (address[] memory ){\n        return _getAssettAvvalible(); \n    }\n    function findContractLending(address _to,uint _id)external view returns(LendingContract memory){\n        return _findContractLending(_to, _id);\n    }\n    function increasDeposit(uint _idContract, uint _increasAmount) external nonReentrant(){\n        _increasDeposit(msg.sender, _idContract, _increasAmount);\n    }\n    function decreasDeposit(uint _idContract, uint _decreasAmount) external nonReentrant(){\n        _decreasDeposit(msg.sender, _idContract, _decreasAmount);\n    }\n    //deprecate\n    function deleteContract(uint _idContract) external nonReentrant(){\n        _deleteContract(msg.sender, _idContract);\n    }\n    function executeBorrow(uint _idContract,address _lender,uint _amountBorrow,address _assettCollateral,uint _amountCollateral) external nonReentrant(){\n        _executeBorrow(msg.sender, _idContract, _lender, _amountBorrow, _assettCollateral, _amountCollateral);\n    }\n    function serchBorrowerPositionXContract(uint _idContract,address _borrower) external view returns (Borrower memory){\n        return _serchBorrowerPositionXContract(_idContract, _borrower);\n    }\n    function serchIndexBorrowerXContract(uint _idContract,address _borrower)external view returns(uint){\n        (,uint idFind) = _serchIndexBorrowerXContract(_idContract, _borrower);\n        return idFind;\n    }\n    function lockNewBorrow(address _to,uint _idContract,bool _lock)external nonReentrant(){\n        _lockNewBorrow(_to, _idContract,_lock);\n    }\n    function viewAmountLoan(address  _borrower,uint _idContract) external view returns(uint loanCompouse) {\n        loanCompouse = InterestCalculator._getTotalLoan(\n            _serchBorrowerPositionXContract(_idContract, _borrower).ammounBorrow,\n            _serchBorrowerPositionXContract(_idContract, _borrower).aprLoan,\n            _serchBorrowerPositionXContract(_idContract, _borrower).blockStart); \n    }\n    function executeRepay(uint _idContract,uint _amount) external nonReentrant(){\n        _executeRepay(msg.sender, _idContract, _amount);\n    }\n    function increaseTimeExpire(uint _idContract, uint _timeIncreas)external nonReentrant(){\n          _increaseTimeExpire(msg.sender, _idContract, _timeIncreas);\n    }\n    function decreaseTimeExpire(uint _idContract, uint _timeIncreas)external nonReentrant(){\n          _decreaseTimeExpire(msg.sender, _idContract, _timeIncreas);\n    }\n    function liquidationCall(uint _idContract,uint _idBorrow) external nonReentrant(){\n        _liquidationCall(msg.sender,_idContract,_idBorrow);\n    }\n    function viewListcontract()external view returns(uint[] memory list){\n        list = listContract;\n    }\n    //// vvvvvv NO TESTED vvvvvvv\n    function widrowCreditExpire(uint _idContract)external nonReentrant(){    \n        _widrowCreditExpire(msg.sender, _idContract);\n    }\n    function recoverCreditsExpired(uint _idContract)external nonReentrant(){\n        _RecoverCreditsExpired(msg.sender, _idContract);\n    }\n    function recoverSingleCreditExpired(uint _idContract,uint _idBorrow)external nonReentrant() {\n        _RecoverSingleCreditExpired(msg.sender, _idContract, _idBorrow);\n    }\n\n\n\n\n\n\n    event widrwCollateralLoan(uint _amount,address indexed _asset,uint indexed _idContract);\n    function _widrowCollateral(uint _amount,address _to,uint _idContract) internal {\n            require(_to  ==  _serchBorrowerPositionXContract(_idContract, _to).owner ,\"Not owner this loan\");\n            (,uint indexBorrow) = _serchIndexBorrowerXContract(_idContract, _to);\n            borrowersXid[_idContract][indexBorrow].ammounBorrow = InterestCalculator._getTotalLoan(\n                borrowersXid[_idContract][indexBorrow].ammounBorrow,\n                borrowersXid[_idContract][indexBorrow].aprLoan,\n                borrowersXid[_idContract][indexBorrow].blockStart);\n            require(borrowersXid[_idContract][indexBorrow].ammounBorrow >= _amount, \"You can only Loan amount\");\n            address _lender = borrowersXid[_idContract][indexBorrow].lender;\n            require(\n                _healFactor(\n                    oraclePrice(\n                        borrowersXid[_idContract][indexBorrow].assetCollaterl)*borrowersXid[_idContract][indexBorrow].amountCollateral -_amount,\n                    oraclePrice(\n                        borrowersXid[_idContract][indexBorrow].assetBorrow)*borrowersXid[_idContract][indexBorrow].ammounBorrow\n                        ) >  userLendingContract[_lender][_idContract].rateCollateral,\"This widrow compromises your loan\"   \n            );\n\n            userLendingContract[_lender][_idContract].amountCollateral -= _amount;\n            borrowersXid[_idContract][indexBorrow].blockStart = block.timestamp;\n            borrowersXid[_idContract][indexBorrow].liquidationThreshold = \n                _liquidationThresold(\n                      borrowersXid[_idContract][indexBorrow].ammounBorrow * \n                      oraclePrice(borrowersXid[_idContract][indexBorrow].assetBorrow),\n                      userLendingContract[_lender][_idContract].rateCollateral,\n                      userLendingContract[_lender][_idContract].amountCollateral\n                      );\n\n            IERC20(borrowersXid[_idContract][indexBorrow].assetCollaterl).transfer(_to, _amount);\n            emit widrwCollateralLoan(_amount,borrowersXid[_idContract][indexBorrow].assetCollaterl, _idContract);\n\n    }\n\n \n   \n    // MODIFIER\n    modifier contractOwner(address _to,uint _idContract){\n        require(\n           _findContractLending(_to,_idContract).owner == _to, \"Not owner this contract\" \n        );\n        _;\n    }\n    // EVENT \n\n     event NewAssetAvvalible(address indexed asset, uint timeStart);\n     event NewContractDeposit(\n        uint Id,\n        address indexed owner,\n        address indexed asset,\n        uint amount,\n        uint apr,\n        uint  deadline,\n        uint  penality,\n        address indexed collateral\n     );\n     event IncreasContractDeposit(\n        uint Id,\n        uint indexed amount,\n        uint indexed newAmount\n     );\n     event DecreasContractDeposit(\n        uint Id,\n        uint indexed amount,\n        uint indexed newAmount\n     );\n\n     event DeleteContractDeposit(\n        address indexed owner,\n        uint indexed id\n     );\n     event Borrow( address indexed Borrower,uint indexed Id_Contract, uint amount);\n\n     event repay(address indexed _to, uint indexed _idContract,uint _amount);\n     event applyPenality(address indexed _to,uint  indexed _idContract,uint _amount);\n\n     event newTimeExpireIncreas(uint indexed _idContract, uint indexed _timeIncreas);\n     event newTimeExpireDecreas(uint indexed _idContract, uint indexed _timeIncreas);\n     event LiquidationCall (uint indexed _idContract,uint indexed _idBorrow, address assetsLiquidate, uint amount);\n\n     event RecoveryCredit(uint indexed _idContract,address indexed collateral, uint amount);\n     event RecoverySingleCredit(uint indexed _idContract,address indexed collateral, uint amount);\n     event WidrowCredit(address indexed _to,uint indexed _idContract,address indexed collateral, uint amount);\n\n    \n    \n    // mock function\n\n    //function _mockOracleBorrow() internal pure returns(uint price){\n    //    price = 2;\n    //}\n\n    //function _mockOracleCollateral() internal pure returns(uint price){\n    //    price = 1;\n//\n    //}\n\n\n}\n",
  "sourcePath": "/media/leluk/storage/Studio Dev/Dapp portfolio/individual lending/contracts/Individual_lending.sol",
  "compiler": {
    "name": "solc",
    "version": "0.8.7+commit.e28d00a7.Emscripten.clang"
  },
  "schemaVersion": "3.4.7",
  "updatedAt": "2022-07-03T05:19:20.102Z",
  "networkType": "ethereum",
  "devdoc": {
    "kind": "dev",
    "methods": {
      "owner()": {
        "details": "Returns the address of the current owner."
      },
      "renounceOwnership()": {
        "details": "Leaves the contract without owner. It will not be possible to call `onlyOwner` functions anymore. Can only be called by the current owner. NOTE: Renouncing ownership will leave the contract without an owner, thereby removing any functionality that is only available to the owner."
      },
      "transferOwnership(address)": {
        "details": "Transfers ownership of the contract to a new account (`newOwner`). Can only be called by the current owner."
      }
    },
    "version": 1
  },
  "userdoc": {
    "kind": "user",
    "methods": {},
    "version": 1
  }
}