{
  "contractName": "lendingPage",
  "abi": [
    {
      "inputs": [
        {
          "internalType": "uint256",
          "name": "_minpenality",
          "type": "uint256"
        }
      ],
      "stateMutability": "nonpayable",
      "type": "constructor"
    },
    {
      "anonymous": false,
      "inputs": [
        {
          "indexed": true,
          "internalType": "address",
          "name": "Borrower",
          "type": "address"
        },
        {
          "indexed": true,
          "internalType": "uint256",
          "name": "Id_Contract",
          "type": "uint256"
        },
        {
          "indexed": false,
          "internalType": "uint256",
          "name": "amount",
          "type": "uint256"
        }
      ],
      "name": "Borrow",
      "type": "event"
    },
    {
      "anonymous": false,
      "inputs": [
        {
          "indexed": false,
          "internalType": "uint256",
          "name": "Id",
          "type": "uint256"
        },
        {
          "indexed": true,
          "internalType": "uint256",
          "name": "amount",
          "type": "uint256"
        },
        {
          "indexed": true,
          "internalType": "uint256",
          "name": "newAmount",
          "type": "uint256"
        }
      ],
      "name": "DecreasContractDeposit",
      "type": "event"
    },
    {
      "anonymous": false,
      "inputs": [
        {
          "indexed": true,
          "internalType": "address",
          "name": "owner",
          "type": "address"
        },
        {
          "indexed": true,
          "internalType": "uint256",
          "name": "id",
          "type": "uint256"
        }
      ],
      "name": "DeleteContractDeposit",
      "type": "event"
    },
    {
      "anonymous": false,
      "inputs": [
        {
          "indexed": false,
          "internalType": "uint256",
          "name": "Id",
          "type": "uint256"
        },
        {
          "indexed": true,
          "internalType": "uint256",
          "name": "amount",
          "type": "uint256"
        },
        {
          "indexed": true,
          "internalType": "uint256",
          "name": "newAmount",
          "type": "uint256"
        }
      ],
      "name": "IncreasContractDeposit",
      "type": "event"
    },
    {
      "anonymous": false,
      "inputs": [
        {
          "indexed": true,
          "internalType": "address",
          "name": "asset",
          "type": "address"
        },
        {
          "indexed": false,
          "internalType": "uint256",
          "name": "timeStart",
          "type": "uint256"
        }
      ],
      "name": "NewAssetAvvalible",
      "type": "event"
    },
    {
      "anonymous": false,
      "inputs": [
        {
          "indexed": false,
          "internalType": "uint256",
          "name": "Id",
          "type": "uint256"
        },
        {
          "indexed": true,
          "internalType": "address",
          "name": "owner",
          "type": "address"
        },
        {
          "indexed": true,
          "internalType": "address",
          "name": "asset",
          "type": "address"
        },
        {
          "indexed": false,
          "internalType": "uint256",
          "name": "amount",
          "type": "uint256"
        },
        {
          "indexed": false,
          "internalType": "uint256",
          "name": "apr",
          "type": "uint256"
        },
        {
          "indexed": false,
          "internalType": "uint256",
          "name": "deadline",
          "type": "uint256"
        },
        {
          "indexed": false,
          "internalType": "uint256",
          "name": "penality",
          "type": "uint256"
        },
        {
          "indexed": true,
          "internalType": "address",
          "name": "collateral",
          "type": "address"
        }
      ],
      "name": "NewContractDeposit",
      "type": "event"
    },
    {
      "anonymous": false,
      "inputs": [
        {
          "indexed": true,
          "internalType": "address",
          "name": "previousOwner",
          "type": "address"
        },
        {
          "indexed": true,
          "internalType": "address",
          "name": "newOwner",
          "type": "address"
        }
      ],
      "name": "OwnershipTransferred",
      "type": "event"
    },
    {
      "inputs": [],
      "name": "owner",
      "outputs": [
        {
          "internalType": "address",
          "name": "",
          "type": "address"
        }
      ],
      "stateMutability": "view",
      "type": "function"
    },
    {
      "inputs": [],
      "name": "renounceOwnership",
      "outputs": [],
      "stateMutability": "nonpayable",
      "type": "function"
    },
    {
      "inputs": [
        {
          "internalType": "address",
          "name": "newOwner",
          "type": "address"
        }
      ],
      "name": "transferOwnership",
      "outputs": [],
      "stateMutability": "nonpayable",
      "type": "function"
    },
    {
      "inputs": [
        {
          "internalType": "address",
          "name": "_newAsset",
          "type": "address"
        }
      ],
      "name": "setAssettAvvalible",
      "outputs": [],
      "stateMutability": "nonpayable",
      "type": "function"
    },
    {
      "inputs": [
        {
          "internalType": "address",
          "name": "_asset",
          "type": "address"
        }
      ],
      "name": "findAsset",
      "outputs": [
        {
          "internalType": "bool",
          "name": "",
          "type": "bool"
        }
      ],
      "stateMutability": "view",
      "type": "function"
    },
    {
      "inputs": [
        {
          "internalType": "address",
          "name": "_asset",
          "type": "address"
        },
        {
          "internalType": "uint256",
          "name": "_amount",
          "type": "uint256"
        },
        {
          "internalType": "uint256",
          "name": "_apr",
          "type": "uint256"
        },
        {
          "internalType": "uint256",
          "name": "_deadline",
          "type": "uint256"
        },
        {
          "internalType": "uint256",
          "name": "_penality",
          "type": "uint256"
        },
        {
          "internalType": "address",
          "name": "_collateral",
          "type": "address"
        },
        {
          "internalType": "uint256",
          "name": "_rateCollateral",
          "type": "uint256"
        }
      ],
      "name": "deposit",
      "outputs": [],
      "stateMutability": "nonpayable",
      "type": "function"
    },
    {
      "inputs": [
        {
          "internalType": "address",
          "name": "_user",
          "type": "address"
        }
      ],
      "name": "listContractXuser",
      "outputs": [
        {
          "internalType": "uint256[]",
          "name": "",
          "type": "uint256[]"
        }
      ],
      "stateMutability": "view",
      "type": "function"
    },
    {
      "inputs": [],
      "name": "getAssettAvvalible",
      "outputs": [
        {
          "internalType": "address[]",
          "name": "",
          "type": "address[]"
        }
      ],
      "stateMutability": "view",
      "type": "function"
    },
    {
      "inputs": [
        {
          "internalType": "address",
          "name": "_to",
          "type": "address"
        },
        {
          "internalType": "uint256",
          "name": "_id",
          "type": "uint256"
        }
      ],
      "name": "findContractLending",
      "outputs": [
        {
          "components": [
            {
              "internalType": "uint256",
              "name": "id",
              "type": "uint256"
            },
            {
              "internalType": "address",
              "name": "owner",
              "type": "address"
            },
            {
              "internalType": "address",
              "name": "asset",
              "type": "address"
            },
            {
              "internalType": "uint256",
              "name": "amountAvvalible",
              "type": "uint256"
            },
            {
              "internalType": "uint256",
              "name": "apr",
              "type": "uint256"
            },
            {
              "internalType": "uint256",
              "name": "deadline",
              "type": "uint256"
            },
            {
              "internalType": "uint256",
              "name": "penality",
              "type": "uint256"
            },
            {
              "internalType": "address",
              "name": "collateral",
              "type": "address"
            },
            {
              "internalType": "uint256",
              "name": "_amountBorrow",
              "type": "uint256"
            },
            {
              "internalType": "uint256",
              "name": "rateCollateral",
              "type": "uint256"
            },
            {
              "internalType": "uint256",
              "name": "amountCollateral",
              "type": "uint256"
            }
          ],
          "internalType": "struct lendingPage.LendingContract",
          "name": "",
          "type": "tuple"
        }
      ],
      "stateMutability": "view",
      "type": "function"
    },
    {
      "inputs": [
        {
          "internalType": "uint256",
          "name": "_idContract",
          "type": "uint256"
        },
        {
          "internalType": "uint256",
          "name": "_increasAmount",
          "type": "uint256"
        }
      ],
      "name": "increasDeposit",
      "outputs": [],
      "stateMutability": "nonpayable",
      "type": "function"
    },
    {
      "inputs": [
        {
          "internalType": "uint256",
          "name": "_idContract",
          "type": "uint256"
        },
        {
          "internalType": "uint256",
          "name": "_decreasAmount",
          "type": "uint256"
        }
      ],
      "name": "decreasDeposit",
      "outputs": [],
      "stateMutability": "nonpayable",
      "type": "function"
    },
    {
      "inputs": [
        {
          "internalType": "uint256",
          "name": "_idContract",
          "type": "uint256"
        }
      ],
      "name": "deleteContract",
      "outputs": [],
      "stateMutability": "nonpayable",
      "type": "function"
    },
    {
      "inputs": [
        {
          "internalType": "uint256",
          "name": "_idContract",
          "type": "uint256"
        },
        {
          "internalType": "address",
          "name": "_lender",
          "type": "address"
        },
        {
          "internalType": "uint256",
          "name": "_amountBorrow",
          "type": "uint256"
        },
        {
          "internalType": "address",
          "name": "_assettCollateral",
          "type": "address"
        },
        {
          "internalType": "uint256",
          "name": "_amountCollateral",
          "type": "uint256"
        }
      ],
      "name": "executeBorrow",
      "outputs": [],
      "stateMutability": "nonpayable",
      "type": "function"
    }
  ],
  "bytecode": "0x60806040523480156200001157600080fd5b5060405162004c4438038062004c4483398181016040528101906200003791906200017c565b620000576200004b6200008360201b60201c565b6200008b60201b60201c565b600180819055506200007560026200014f60201b620007431760201c565b8060048190555050620001d7565b600033905090565b60008060009054906101000a900473ffffffffffffffffffffffffffffffffffffffff169050816000806101000a81548173ffffffffffffffffffffffffffffffffffffffff021916908373ffffffffffffffffffffffffffffffffffffffff1602179055508173ffffffffffffffffffffffffffffffffffffffff168173ffffffffffffffffffffffffffffffffffffffff167f8be0079c531659141344cd1fd0a4f28419497f9722a3daafe3b4186f6b6457e060405160405180910390a35050565b6001816000016000828254019250508190555050565b6000815190506200017681620001bd565b92915050565b600060208284031215620001955762000194620001b8565b5b6000620001a58482850162000165565b91505092915050565b6000819050919050565b600080fd5b620001c881620001ae565b8114620001d457600080fd5b50565b614a5d80620001e76000396000f3fe608060405234801561001057600080fd5b50600436106100cf5760003560e01c8063715018a61161008c5780638da5cb5b116100665780638da5cb5b146101d4578063e236b6f0146101f2578063e2bb0eb914610222578063f2fde38b14610252576100cf565b8063715018a614610190578063726adaa41461019a5780638990616d146101b8576100cf565b80631392ed75146100d457806319dda45c146100f0578063460e90d01461010c578063470872151461013c5780636893d336146101585780636f25b8f614610174575b600080fd5b6100ee60048036038101906100e9919061398b565b61026e565b005b61010a60048036038101906101059190613b2f565b6102dc565b005b6101266004803603810190610121919061391e565b610340565b60405161013391906140c3565b60405180910390f35b61015660048036038101906101519190613b2f565b610352565b005b610172600480360381019061016d9190613a5a565b6103b6565b005b61018e60048036038101906101899190613ab4565b610418565b005b610198610482565b005b6101a261050a565b6040516101af91906140a1565b60405180910390f35b6101d260048036038101906101cd919061391e565b610519565b005b6101dc6105f6565b6040516101e99190613ffd565b60405180910390f35b61020c6004803603810190610207919061394b565b61061f565b6040516102199190614340565b60405180910390f35b61023c6004803603810190610237919061391e565b610639565b60405161024991906140e5565b60405180910390f35b61026c6004803603810190610267919061391e565b61064b565b005b600260015414156102b4576040517f08c379a00000000000000000000000000000000000000000000000000000000081526004016102ab906142e0565b60405180910390fd5b60026001819055506102cc3388888888888888610759565b6001808190555050505050505050565b60026001541415610322576040517f08c379a0000000000000000000000000000000000000000000000000000000008152600401610319906142e0565b60405180910390fd5b600260018190555061033533838361100a565b600180819055505050565b606061034b8261153c565b9050919050565b60026001541415610398576040517f08c379a000000000000000000000000000000000000000000000000000000000815260040161038f906142e0565b60405180910390fd5b60026001819055506103ab3383836115d3565b600180819055505050565b600260015414156103fc576040517f08c379a00000000000000000000000000000000000000000000000000000000081526004016103f3906142e0565b60405180910390fd5b600260018190555061040e33826119a1565b6001808190555050565b6002600154141561045e576040517f08c379a0000000000000000000000000000000000000000000000000000000008152600401610455906142e0565b60405180910390fd5b600260018190555061047433868686868661214e565b600180819055505050505050565b61048a6123da565b73ffffffffffffffffffffffffffffffffffffffff166104a86105f6565b73ffffffffffffffffffffffffffffffffffffffff16146104fe576040517f08c379a00000000000000000000000000000000000000000000000000000000081526004016104f590614220565b60405180910390fd5b61050860006123e2565b565b60606105146124a6565b905090565b6002600154141561055f576040517f08c379a0000000000000000000000000000000000000000000000000000000008152600401610556906142e0565b60405180910390fd5b600260018190555061056f6123da565b73ffffffffffffffffffffffffffffffffffffffff1661058d6105f6565b73ffffffffffffffffffffffffffffffffffffffff16146105e3576040517f08c379a00000000000000000000000000000000000000000000000000000000081526004016105da90614220565b60405180910390fd5b6105ec81612534565b6001808190555050565b60008060009054906101000a900473ffffffffffffffffffffffffffffffffffffffff16905090565b61062761382e565b61063183836126a1565b905092915050565b60006106448261285f565b9050919050565b6106536123da565b73ffffffffffffffffffffffffffffffffffffffff166106716105f6565b73ffffffffffffffffffffffffffffffffffffffff16146106c7576040517f08c379a00000000000000000000000000000000000000000000000000000000081526004016106be90614220565b60405180910390fd5b600073ffffffffffffffffffffffffffffffffffffffff168173ffffffffffffffffffffffffffffffffffffffff161415610737576040517f08c379a000000000000000000000000000000000000000000000000000000000815260040161072e90614120565b60405180910390fd5b610740816123e2565b50565b6001816000016000828254019250508190555050565b600073ffffffffffffffffffffffffffffffffffffffff168873ffffffffffffffffffffffffffffffffffffffff1614156107c9576040517f08c379a00000000000000000000000000000000000000000000000000000000081526004016107c0906141a0565b60405180910390fd5b8173ffffffffffffffffffffffffffffffffffffffff168773ffffffffffffffffffffffffffffffffffffffff161415610838576040517f08c379a000000000000000000000000000000000000000000000000000000000815260040161082f90614140565b60405180910390fd5b6108418761285f565b610880576040517f08c379a000000000000000000000000000000000000000000000000000000000815260040161087790614100565b60405180910390fd5b6108898261285f565b6108c8576040517f08c379a00000000000000000000000000000000000000000000000000000000081526004016108bf906141e0565b60405180910390fd5b858773ffffffffffffffffffffffffffffffffffffffff166370a082318a6040518263ffffffff1660e01b81526004016109029190613ffd565b60206040518083038186803b15801561091a57600080fd5b505afa15801561092e573d6000803e3d6000fd5b505050506040513d601f19601f820116820180604052508101906109529190613a87565b1015610993576040517f08c379a000000000000000000000000000000000000000000000000000000000815260040161098a90614160565b60405180910390fd5b858773ffffffffffffffffffffffffffffffffffffffff1663dd62ed3e8a306040518363ffffffff1660e01b81526004016109cf929190614018565b60206040518083038186803b1580156109e757600080fd5b505afa1580156109fb573d6000803e3d6000fd5b505050506040513d601f19601f82011682018060405250810190610a1f9190613a87565b1015610a60576040517f08c379a0000000000000000000000000000000000000000000000000000000008152600401610a57906142c0565b60405180910390fd5b60008411610aa3576040517f08c379a0000000000000000000000000000000000000000000000000000000008152600401610a9a906142a0565b60405180910390fd5b600454831015610ae8576040517f08c379a0000000000000000000000000000000000000000000000000000000008152600401610adf90614240565b60405180910390fd5b60008773ffffffffffffffffffffffffffffffffffffffff166370a08231306040518263ffffffff1660e01b8152600401610b239190613ffd565b60206040518083038186803b158015610b3b57600080fd5b505afa158015610b4f573d6000803e3d6000fd5b505050506040513d601f19601f82011682018060405250810190610b739190613a87565b90508773ffffffffffffffffffffffffffffffffffffffff166323b872dd8a308a6040518463ffffffff1660e01b8152600401610bb293929190614041565b602060405180830381600087803b158015610bcc57600080fd5b505af1158015610be0573d6000803e3d6000fd5b505050506040513d601f19601f82011682018060405250810190610c049190613a2d565b508773ffffffffffffffffffffffffffffffffffffffff166370a08231306040518263ffffffff1660e01b8152600401610c3e9190613ffd565b60206040518083038186803b158015610c5657600080fd5b505afa158015610c6a573d6000803e3d6000fd5b505050506040513d601f19601f82011682018060405250810190610c8e9190613a87565b8782610c9a919061444d565b14610ca457600080fd5b6000604051806101600160405280610cbc600261290e565b81526020018b73ffffffffffffffffffffffffffffffffffffffff1681526020018a73ffffffffffffffffffffffffffffffffffffffff1681526020018981526020018881526020018781526020018681526020018573ffffffffffffffffffffffffffffffffffffffff168152602001600081526020018481526020016000815250905080600560008c73ffffffffffffffffffffffffffffffffffffffff1673ffffffffffffffffffffffffffffffffffffffff1681526020019081526020016000206000610d8d600261290e565b81526020019081526020016000206000820151816000015560208201518160010160006101000a81548173ffffffffffffffffffffffffffffffffffffffff021916908373ffffffffffffffffffffffffffffffffffffffff16021790555060408201518160020160006101000a81548173ffffffffffffffffffffffffffffffffffffffff021916908373ffffffffffffffffffffffffffffffffffffffff160217905550606082015181600301556080820151816004015560a0820151816005015560c0820151816006015560e08201518160070160006101000a81548173ffffffffffffffffffffffffffffffffffffffff021916908373ffffffffffffffffffffffffffffffffffffffff1602179055506101008201518160080155610120820151816009015561014082015181600a01559050508373ffffffffffffffffffffffffffffffffffffffff168973ffffffffffffffffffffffffffffffffffffffff168b73ffffffffffffffffffffffffffffffffffffffff167f73ccc975565e11201f9228f86b04c2090d856488dd73ce7f1b63b9609708ee47610f36600261290e565b8c8c8c8c604051610f4b959493929190614377565b60405180910390a4600660008b73ffffffffffffffffffffffffffffffffffffffff1673ffffffffffffffffffffffffffffffffffffffff168152602001908152602001600020610f9c600261290e565b90806001815401808255809150506001900390600052602060002001600090919091909150556007610fce600261290e565b9080600181540180825580915050600190039060005260206000200160009091909190915055610ffe6002610743565b50505050505050505050565b82828173ffffffffffffffffffffffffffffffffffffffff1661102d83836126a1565b6020015173ffffffffffffffffffffffffffffffffffffffff1614611087576040517f08c379a000000000000000000000000000000000000000000000000000000000815260040161107e90614180565b60405180910390fd5b600083116110ca576040517f08c379a00000000000000000000000000000000000000000000000000000000081526004016110c190614260565b60405180910390fd5b826110d586866126a1565b6040015173ffffffffffffffffffffffffffffffffffffffff166370a08231876040518263ffffffff1660e01b81526004016111119190613ffd565b60206040518083038186803b15801561112957600080fd5b505afa15801561113d573d6000803e3d6000fd5b505050506040513d601f19601f820116820180604052508101906111619190613a87565b10156111a2576040517f08c379a000000000000000000000000000000000000000000000000000000000815260040161119990614160565b60405180910390fd5b826111ad86866126a1565b6040015173ffffffffffffffffffffffffffffffffffffffff1663dd62ed3e87306040518363ffffffff1660e01b81526004016111eb929190614018565b60206040518083038186803b15801561120357600080fd5b505afa158015611217573d6000803e3d6000fd5b505050506040513d601f19601f8201168201806040525081019061123b9190613a87565b101561127c576040517f08c379a0000000000000000000000000000000000000000000000000000000008152600401611273906142c0565b60405180910390fd5b600061128886866126a1565b6040015173ffffffffffffffffffffffffffffffffffffffff166370a08231306040518263ffffffff1660e01b81526004016112c49190613ffd565b60206040518083038186803b1580156112dc57600080fd5b505afa1580156112f0573d6000803e3d6000fd5b505050506040513d601f19601f820116820180604052508101906113149190613a87565b905061132086866126a1565b6040015173ffffffffffffffffffffffffffffffffffffffff166323b872dd8730876040518463ffffffff1660e01b815260040161136093929190614041565b602060405180830381600087803b15801561137a57600080fd5b505af115801561138e573d6000803e3d6000fd5b505050506040513d601f19601f820116820180604052508101906113b29190613a2d565b506113bd86866126a1565b6040015173ffffffffffffffffffffffffffffffffffffffff166370a08231306040518263ffffffff1660e01b81526004016113f99190613ffd565b60206040518083038186803b15801561141157600080fd5b505afa158015611425573d6000803e3d6000fd5b505050506040513d601f19601f820116820180604052508101906114499190613a87565b8482611455919061444d565b1461145f57600080fd5b83600560008873ffffffffffffffffffffffffffffffffffffffff1673ffffffffffffffffffffffffffffffffffffffff168152602001908152602001600020600087815260200190815260200160002060030160008282546114c2919061444d565b925050819055506114d386866126a1565b60600151846114e288886126a1565b606001516114f0919061452e565b7f70b5eec6cec01e52d9243bac64c12e4fd128a2f20105af16919ae212e224fc6561151b89896126a1565b6000015160405161152c919061435c565b60405180910390a3505050505050565b6060600660008373ffffffffffffffffffffffffffffffffffffffff1673ffffffffffffffffffffffffffffffffffffffff1681526020019081526020016000208054806020026020016040519081016040528092919081815260200182805480156115c757602002820191906000526020600020905b8154815260200190600101908083116115b3575b50505050509050919050565b82828173ffffffffffffffffffffffffffffffffffffffff166115f683836126a1565b6020015173ffffffffffffffffffffffffffffffffffffffff1614611650576040517f08c379a000000000000000000000000000000000000000000000000000000000815260040161164790614180565b60405180910390fd5b60008311611693576040517f08c379a000000000000000000000000000000000000000000000000000000000815260040161168a90614260565b60405180910390fd5b8261169e86866126a1565b6060015110156116e3576040517f08c379a00000000000000000000000000000000000000000000000000000000081526004016116da90614300565b60405180910390fd5b82600560008773ffffffffffffffffffffffffffffffffffffffff1673ffffffffffffffffffffffffffffffffffffffff16815260200190815260200160002060008681526020019081526020016000206003016000828254611746919061452e565b92505081905550600061175986866126a1565b6040015173ffffffffffffffffffffffffffffffffffffffff166370a08231306040518263ffffffff1660e01b81526004016117959190613ffd565b60206040518083038186803b1580156117ad57600080fd5b505afa1580156117c1573d6000803e3d6000fd5b505050506040513d601f19601f820116820180604052508101906117e59190613a87565b90506117f186866126a1565b6040015173ffffffffffffffffffffffffffffffffffffffff1663a9059cbb87866040518363ffffffff1660e01b815260040161182f929190614078565b602060405180830381600087803b15801561184957600080fd5b505af115801561185d573d6000803e3d6000fd5b505050506040513d601f19601f820116820180604052508101906118819190613a2d565b5061188c86866126a1565b6040015173ffffffffffffffffffffffffffffffffffffffff166370a08231306040518263ffffffff1660e01b81526004016118c89190613ffd565b60206040518083038186803b1580156118e057600080fd5b505afa1580156118f4573d6000803e3d6000fd5b505050506040513d601f19601f820116820180604052508101906119189190613a87565b8482611924919061452e565b1461192e57600080fd5b61193886866126a1565b606001518461194788886126a1565b60600151611955919061444d565b7f510055a9c40582bc6ad0cab1e5b0421194c4d34435a16960ec71333bf8bc70cf61198089896126a1565b60000151604051611991919061435c565b60405180910390a3505050505050565b81818173ffffffffffffffffffffffffffffffffffffffff166119c483836126a1565b6020015173ffffffffffffffffffffffffffffffffffffffff1614611a1e576040517f08c379a0000000000000000000000000000000000000000000000000000000008152600401611a1590614180565b60405180910390fd5b6000611a2a85856126a1565b610100015114611a6f576040517f08c379a0000000000000000000000000000000000000000000000000000000008152600401611a6690614320565b60405180910390fd5b6000600560008673ffffffffffffffffffffffffffffffffffffffff1673ffffffffffffffffffffffffffffffffffffffff16815260200190815260200160002060008581526020019081526020016000206003015490506000600560008773ffffffffffffffffffffffffffffffffffffffff1673ffffffffffffffffffffffffffffffffffffffff16815260200190815260200160002060008681526020019081526020016000206000015490506000611b2b87876126a1565b604001519050600560008873ffffffffffffffffffffffffffffffffffffffff1673ffffffffffffffffffffffffffffffffffffffff16815260200190815260200160002060008781526020019081526020016000206000808201600090556001820160006101000a81549073ffffffffffffffffffffffffffffffffffffffff02191690556002820160006101000a81549073ffffffffffffffffffffffffffffffffffffffff021916905560038201600090556004820160009055600582016000905560068201600090556007820160006101000a81549073ffffffffffffffffffffffffffffffffffffffff021916905560088201600090556009820160009055600a82016000905550506000600660008973ffffffffffffffffffffffffffffffffffffffff1673ffffffffffffffffffffffffffffffffffffffff168152602001908152602001600020805490501115611e1157600080611c91898561291c565b915091508015611e0a57600660008a73ffffffffffffffffffffffffffffffffffffffff1673ffffffffffffffffffffffffffffffffffffffff1681526020019081526020016000206001600660008c73ffffffffffffffffffffffffffffffffffffffff1673ffffffffffffffffffffffffffffffffffffffff16815260200190815260200160002080549050611d29919061452e565b81548110611d3a57611d39614680565b5b9060005260206000200154600660008b73ffffffffffffffffffffffffffffffffffffffff1673ffffffffffffffffffffffffffffffffffffffff1681526020019081526020016000208381548110611d9657611d95614680565b5b9060005260206000200181905550600660008a73ffffffffffffffffffffffffffffffffffffffff1673ffffffffffffffffffffffffffffffffffffffff168152602001908152602001600020805480611df357611df2614651565b5b600190038181906000526020600020016000905590555b5050611e77565b600660008873ffffffffffffffffffffffffffffffffffffffff1673ffffffffffffffffffffffffffffffffffffffff168152602001908152602001600020805480611e6057611e5f614651565b5b600190038181906000526020600020016000905590555b60006007805490501115611f1d57600080611e91886129fd565b915091508015611f165760076001600780549050611eaf919061452e565b81548110611ec057611ebf614680565b5b906000526020600020015460078381548110611edf57611ede614680565b5b90600052602060002001819055506007805480611eff57611efe614651565b5b600190038181906000526020600020016000905590555b5050611f46565b6007805480611f2f57611f2e614651565b5b600190038181906000526020600020016000905590555b60008173ffffffffffffffffffffffffffffffffffffffff166370a08231306040518263ffffffff1660e01b8152600401611f819190613ffd565b60206040518083038186803b158015611f9957600080fd5b505afa158015611fad573d6000803e3d6000fd5b505050506040513d601f19601f82011682018060405250810190611fd19190613a87565b90508173ffffffffffffffffffffffffffffffffffffffff1663a9059cbb89866040518363ffffffff1660e01b815260040161200e929190614078565b602060405180830381600087803b15801561202857600080fd5b505af115801561203c573d6000803e3d6000fd5b505050506040513d601f19601f820116820180604052508101906120609190613a2d565b508173ffffffffffffffffffffffffffffffffffffffff166370a08231306040518263ffffffff1660e01b815260040161209a9190613ffd565b60206040518083038186803b1580156120b257600080fd5b505afa1580156120c6573d6000803e3d6000fd5b505050506040513d601f19601f820116820180604052508101906120ea9190613a87565b84826120f6919061452e565b1461210057600080fd5b828873ffffffffffffffffffffffffffffffffffffffff167ffd6e81c22721a918c2e59966d2b020f6ccf1fe46d783cc4053c75c1a9fa837f060405160405180910390a35050505050505050565b600061215a858761291c565b9150508061219d576040517f08c379a000000000000000000000000000000000000000000000000000000000815260040161219490614280565b60405180910390fd5b83600560008773ffffffffffffffffffffffffffffffffffffffff1673ffffffffffffffffffffffffffffffffffffffff1681526020019081526020016000206000888152602001908152602001600020600301541015612233576040517f08c379a000000000000000000000000000000000000000000000000000000000815260040161222a906141c0565b60405180910390fd5b600061223d612a62565b90506000612249612a6c565b90506000600560008973ffffffffffffffffffffffffffffffffffffffff1673ffffffffffffffffffffffffffffffffffffffff16815260200190815260200160002060008a81526020019081526020016000206009015490506000806122b08b8d612a76565b915091506122bc612a6c565b612349600860008e815260200190815260200160002083815481106122e4576122e3614680565b5b9060005260206000209060070201600301548761230191906144d4565b600860008f8152602001908152602001600020848154811061232657612325614680565b5b9060005260206000209060070201600501548761234391906144d4565b86612b54565b1161235357600080fd5b8161236c576123678c8b8d8b8b8e89612b81565b61237d565b61237c8c8b8d8b8b8e89886131ff565b5b8a8c73ffffffffffffffffffffffffffffffffffffffff167fe1979fe4c35e0cef342fef5668e2c8e7a7e9f5d5d1ca8fee0ac6c427fa4153af8b6040516123c4919061435c565b60405180910390a3505050505050505050505050565b600033905090565b60008060009054906101000a900473ffffffffffffffffffffffffffffffffffffffff169050816000806101000a81548173ffffffffffffffffffffffffffffffffffffffff021916908373ffffffffffffffffffffffffffffffffffffffff1602179055508173ffffffffffffffffffffffffffffffffffffffff168173ffffffffffffffffffffffffffffffffffffffff167f8be0079c531659141344cd1fd0a4f28419497f9722a3daafe3b4186f6b6457e060405160405180910390a35050565b6060600380548060200260200160405190810160405280929190818152602001828054801561252a57602002820191906000526020600020905b8160009054906101000a900473ffffffffffffffffffffffffffffffffffffffff1673ffffffffffffffffffffffffffffffffffffffff16815260200190600101908083116124e0575b5050505050905090565b600073ffffffffffffffffffffffffffffffffffffffff168173ffffffffffffffffffffffffffffffffffffffff1614156125a4576040517f08c379a000000000000000000000000000000000000000000000000000000000815260040161259b906141a0565b60405180910390fd5b6125ad8161285f565b156125ed576040517f08c379a00000000000000000000000000000000000000000000000000000000081526004016125e490614200565b60405180910390fd5b6003819080600181540180825580915050600190039060005260206000200160009091909190916101000a81548173ffffffffffffffffffffffffffffffffffffffff021916908373ffffffffffffffffffffffffffffffffffffffff1602179055508073ffffffffffffffffffffffffffffffffffffffff167f1406601fca80ce2dde347c6c1c000309440d0365c2b5786f1608d7b1e76dd12d42604051612696919061435c565b60405180910390a250565b6126a961382e565b600560008473ffffffffffffffffffffffffffffffffffffffff1673ffffffffffffffffffffffffffffffffffffffff168152602001908152602001600020600083815260200190815260200160002060405180610160016040529081600082015481526020016001820160009054906101000a900473ffffffffffffffffffffffffffffffffffffffff1673ffffffffffffffffffffffffffffffffffffffff1673ffffffffffffffffffffffffffffffffffffffff1681526020016002820160009054906101000a900473ffffffffffffffffffffffffffffffffffffffff1673ffffffffffffffffffffffffffffffffffffffff1673ffffffffffffffffffffffffffffffffffffffff168152602001600382015481526020016004820154815260200160058201548152602001600682015481526020016007820160009054906101000a900473ffffffffffffffffffffffffffffffffffffffff1673ffffffffffffffffffffffffffffffffffffffff1673ffffffffffffffffffffffffffffffffffffffff1681526020016008820154815260200160098201548152602001600a82015481525050905092915050565b600080600090505b600380549050811015612903578273ffffffffffffffffffffffffffffffffffffffff166003828154811061289f5761289e614680565b5b9060005260206000200160009054906101000a900473ffffffffffffffffffffffffffffffffffffffff1673ffffffffffffffffffffffffffffffffffffffff1614156128f0576001915050612909565b80806128fb906145aa565b915050612867565b50600090505b919050565b600081600001549050919050565b60008060008060005b600660008873ffffffffffffffffffffffffffffffffffffffff1673ffffffffffffffffffffffffffffffffffffffff168152602001908152602001600020805490508110156129ed57600660008873ffffffffffffffffffffffffffffffffffffffff1673ffffffffffffffffffffffffffffffffffffffff16815260200190815260200160002081815481106129c0576129bf614680565b5b90600052602060002001548614156129da57809250600191505b80806129e5906145aa565b915050612925565b5081819350935050509250929050565b60008060008060005b600780549050811015612a545760078181548110612a2757612a26614680565b5b9060005260206000200154861415612a4157809250600191505b8080612a4c906145aa565b915050612a06565b508181935093505050915091565b60006103e8905090565b60006103e8905090565b60008060005b6008600086815260200190815260200160002080549050811015612b44578373ffffffffffffffffffffffffffffffffffffffff16600860008781526020019081526020016000208281548110612ad657612ad5614680565b5b906000526020600020906007020160000160009054906101000a900473ffffffffffffffffffffffffffffffffffffffff1673ffffffffffffffffffffffffffffffffffffffff161415612b31576001819250925050612b4d565b8080612b3c906145aa565b915050612a7c565b50600080915091505b9250929050565b60008282612b6291906144d4565b8385612b6e91906144d4565b612b7891906144a3565b90509392505050565b600560008773ffffffffffffffffffffffffffffffffffffffff1673ffffffffffffffffffffffffffffffffffffffff168152602001908152602001600020600086815260200190815260200160002060090154612c0384612be1612a62565b612beb91906144d4565b84612bf4612a6c565b612bfe91906144d4565b613818565b11612c0d57600080fd5b60008473ffffffffffffffffffffffffffffffffffffffff166370a08231306040518263ffffffff1660e01b8152600401612c489190613ffd565b60206040518083038186803b158015612c6057600080fd5b505afa158015612c74573d6000803e3d6000fd5b505050506040513d601f19601f82011682018060405250810190612c989190613a87565b90508473ffffffffffffffffffffffffffffffffffffffff166323b872dd8930876040518463ffffffff1660e01b8152600401612cd793929190614041565b602060405180830381600087803b158015612cf157600080fd5b505af1158015612d05573d6000803e3d6000fd5b505050506040513d601f19601f82011682018060405250810190612d299190613a2d565b508473ffffffffffffffffffffffffffffffffffffffff166370a08231306040518263ffffffff1660e01b8152600401612d639190613ffd565b60206040518083038186803b158015612d7b57600080fd5b505afa158015612d8f573d6000803e3d6000fd5b505050506040513d601f19601f82011682018060405250810190612db39190613a87565b8482612dbf919061444d565b14612dc957600080fd5b60006040518060e001604052808a73ffffffffffffffffffffffffffffffffffffffff168152602001888152602001600560008b73ffffffffffffffffffffffffffffffffffffffff1673ffffffffffffffffffffffffffffffffffffffff16815260200190815260200160002060008a815260200190815260200160002060020160009054906101000a900473ffffffffffffffffffffffffffffffffffffffff1673ffffffffffffffffffffffffffffffffffffffff1681526020018581526020018773ffffffffffffffffffffffffffffffffffffffff168152602001868152602001612ede87612ebb612a62565b612ec591906144d4565b87612ece612a6c565b612ed891906144d4565b87612b54565b81525090506008600088815260200190815260200160002081908060018154018082558091505060019003906000526020600020906007020160009091909190915060008201518160000160006101000a81548173ffffffffffffffffffffffffffffffffffffffff021916908373ffffffffffffffffffffffffffffffffffffffff1602179055506020820151816001015560408201518160020160006101000a81548173ffffffffffffffffffffffffffffffffffffffff021916908373ffffffffffffffffffffffffffffffffffffffff1602179055506060820151816003015560808201518160040160006101000a81548173ffffffffffffffffffffffffffffffffffffffff021916908373ffffffffffffffffffffffffffffffffffffffff16021790555060a0820151816005015560c08201518160060155505083600560008a73ffffffffffffffffffffffffffffffffffffffff1673ffffffffffffffffffffffffffffffffffffffff16815260200190815260200160002060008981526020019081526020016000206003016000828254613082919061452e565b9250508190555084600560008a73ffffffffffffffffffffffffffffffffffffffff1673ffffffffffffffffffffffffffffffffffffffff1681526020019081526020016000206000898152602001908152602001600020600a0160008282546130ec919061444d565b92505081905550600560008973ffffffffffffffffffffffffffffffffffffffff1673ffffffffffffffffffffffffffffffffffffffff168152602001908152602001600020600088815260200190815260200160002060020160009054906101000a900473ffffffffffffffffffffffffffffffffffffffff1673ffffffffffffffffffffffffffffffffffffffff1663a9059cbb8a866040518363ffffffff1660e01b81526004016131a1929190614078565b602060405180830381600087803b1580156131bb57600080fd5b505af11580156131cf573d6000803e3d6000fd5b505050506040513d601f19601f820116820180604052508101906131f39190613a2d565b50505050505050505050565b600560008873ffffffffffffffffffffffffffffffffffffffff1673ffffffffffffffffffffffffffffffffffffffff16815260200190815260200160002060008781526020019081526020016000206009015461330385600860008a8152602001908152602001600020848154811061327c5761327b614680565b5b906000526020600020906007020160050154613298919061444d565b6132a0612a62565b6132aa91906144d4565b85600860008b815260200190815260200160002085815481106132d0576132cf614680565b5b9060005260206000209060070201600301546132ec919061444d565b6132f4612a6c565b6132fe91906144d4565b613818565b1161330d57600080fd5b60008573ffffffffffffffffffffffffffffffffffffffff166370a08231306040518263ffffffff1660e01b81526004016133489190613ffd565b60206040518083038186803b15801561336057600080fd5b505afa158015613374573d6000803e3d6000fd5b505050506040513d601f19601f820116820180604052508101906133989190613a87565b90508573ffffffffffffffffffffffffffffffffffffffff166323b872dd8a30886040518463ffffffff1660e01b81526004016133d793929190614041565b602060405180830381600087803b1580156133f157600080fd5b505af1158015613405573d6000803e3d6000fd5b505050506040513d601f19601f820116820180604052508101906134299190613a2d565b508573ffffffffffffffffffffffffffffffffffffffff166370a08231306040518263ffffffff1660e01b81526004016134639190613ffd565b60206040518083038186803b15801561347b57600080fd5b505afa15801561348f573d6000803e3d6000fd5b505050506040513d601f19601f820116820180604052508101906134b39190613a87565b85826134bf919061444d565b146134c957600080fd5b836008600089815260200190815260200160002083815481106134ef576134ee614680565b5b9060005260206000209060070201600301600082825461350f919061444d565b925050819055508460086000898152602001908152602001600020838154811061353c5761353b614680565b5b9060005260206000209060070201600501600082825461355c919061444d565b925050819055506135fe60086000898152602001908152602001600020838154811061358b5761358a614680565b5b9060005260206000209060070201600301546135a5612a62565b6135af91906144d4565b600860008a815260200190815260200160002084815481106135d4576135d3614680565b5b9060005260206000209060070201600501546135ee612a6c565b6135f891906144d4565b85612b54565b60086000898152602001908152602001600020838154811061362357613622614680565b5b90600052602060002090600702016006018190555083600560008a73ffffffffffffffffffffffffffffffffffffffff1673ffffffffffffffffffffffffffffffffffffffff1681526020019081526020016000206000898152602001908152602001600020600301600082825461369b919061452e565b9250508190555084600560008a73ffffffffffffffffffffffffffffffffffffffff1673ffffffffffffffffffffffffffffffffffffffff1681526020019081526020016000206000898152602001908152602001600020600a016000828254613705919061444d565b92505081905550600560008973ffffffffffffffffffffffffffffffffffffffff1673ffffffffffffffffffffffffffffffffffffffff168152602001908152602001600020600088815260200190815260200160002060020160009054906101000a900473ffffffffffffffffffffffffffffffffffffffff1673ffffffffffffffffffffffffffffffffffffffff1663a9059cbb8a866040518363ffffffff1660e01b81526004016137ba929190614078565b602060405180830381600087803b1580156137d457600080fd5b505af11580156137e8573d6000803e3d6000fd5b505050506040513d601f19601f8201168201806040525081019061380c9190613a2d565b50505050505050505050565b6000818361382691906144a3565b905092915050565b60405180610160016040528060008152602001600073ffffffffffffffffffffffffffffffffffffffff168152602001600073ffffffffffffffffffffffffffffffffffffffff16815260200160008152602001600081526020016000815260200160008152602001600073ffffffffffffffffffffffffffffffffffffffff1681526020016000815260200160008152602001600081525090565b6000813590506138d9816149e2565b92915050565b6000815190506138ee816149f9565b92915050565b60008135905061390381614a10565b92915050565b60008151905061391881614a10565b92915050565b600060208284031215613934576139336146af565b5b6000613942848285016138ca565b91505092915050565b60008060408385031215613962576139616146af565b5b6000613970858286016138ca565b9250506020613981858286016138f4565b9150509250929050565b600080600080600080600060e0888a0312156139aa576139a96146af565b5b60006139b88a828b016138ca565b97505060206139c98a828b016138f4565b96505060406139da8a828b016138f4565b95505060606139eb8a828b016138f4565b94505060806139fc8a828b016138f4565b93505060a0613a0d8a828b016138ca565b92505060c0613a1e8a828b016138f4565b91505092959891949750929550565b600060208284031215613a4357613a426146af565b5b6000613a51848285016138df565b91505092915050565b600060208284031215613a7057613a6f6146af565b5b6000613a7e848285016138f4565b91505092915050565b600060208284031215613a9d57613a9c6146af565b5b6000613aab84828501613909565b91505092915050565b600080600080600060a08688031215613ad057613acf6146af565b5b6000613ade888289016138f4565b9550506020613aef888289016138ca565b9450506040613b00888289016138f4565b9350506060613b11888289016138ca565b9250506080613b22888289016138f4565b9150509295509295909350565b60008060408385031215613b4657613b456146af565b5b6000613b54858286016138f4565b9250506020613b65858286016138f4565b9150509250929050565b6000613b7b8383613b9f565b60208301905092915050565b6000613b938383613fdf565b60208301905092915050565b613ba881614562565b82525050565b613bb781614562565b82525050565b6000613bc8826143ea565b613bd2818561441a565b9350613bdd836143ca565b8060005b83811015613c0e578151613bf58882613b6f565b9750613c0083614400565b925050600181019050613be1565b5085935050505092915050565b6000613c26826143f5565b613c30818561442b565b9350613c3b836143da565b8060005b83811015613c6c578151613c538882613b87565b9750613c5e8361440d565b925050600181019050613c3f565b5085935050505092915050565b613c8281614574565b82525050565b6000613c9560118361443c565b9150613ca0826146b4565b602082019050919050565b6000613cb860268361443c565b9150613cc3826146dd565b604082019050919050565b6000613cdb60148361443c565b9150613ce68261472c565b602082019050919050565b6000613cfe60108361443c565b9150613d0982614755565b602082019050919050565b6000613d2160178361443c565b9150613d2c8261477e565b602082019050919050565b6000613d44600f8361443c565b9150613d4f826147a7565b602082019050919050565b6000613d6760148361443c565b9150613d72826147d0565b602082019050919050565b6000613d8a60168361443c565b9150613d95826147f9565b602082019050919050565b6000613dad60168361443c565b9150613db882614822565b602082019050919050565b6000613dd060208361443c565b9150613ddb8261484b565b602082019050919050565b6000613df3601b8361443c565b9150613dfe82614874565b602082019050919050565b6000613e1660168361443c565b9150613e218261489d565b602082019050919050565b6000613e3960138361443c565b9150613e44826148c6565b602082019050919050565b6000613e5c601b8361443c565b9150613e67826148ef565b602082019050919050565b6000613e7f60118361443c565b9150613e8a82614918565b602082019050919050565b6000613ea2601f8361443c565b9150613ead82614941565b602082019050919050565b6000613ec5602e8361443c565b9150613ed08261496a565b604082019050919050565b6000613ee8601d8361443c565b9150613ef3826149b9565b602082019050919050565b61016082016000820151613f156000850182613fdf565b506020820151613f286020850182613b9f565b506040820151613f3b6040850182613b9f565b506060820151613f4e6060850182613fdf565b506080820151613f616080850182613fdf565b5060a0820151613f7460a0850182613fdf565b5060c0820151613f8760c0850182613fdf565b5060e0820151613f9a60e0850182613b9f565b50610100820151613faf610100850182613fdf565b50610120820151613fc4610120850182613fdf565b50610140820151613fd9610140850182613fdf565b50505050565b613fe8816145a0565b82525050565b613ff7816145a0565b82525050565b60006020820190506140126000830184613bae565b92915050565b600060408201905061402d6000830185613bae565b61403a6020830184613bae565b9392505050565b60006060820190506140566000830186613bae565b6140636020830185613bae565b6140706040830184613fee565b949350505050565b600060408201905061408d6000830185613bae565b61409a6020830184613fee565b9392505050565b600060208201905081810360008301526140bb8184613bbd565b905092915050565b600060208201905081810360008301526140dd8184613c1b565b905092915050565b60006020820190506140fa6000830184613c79565b92915050565b6000602082019050818103600083015261411981613c88565b9050919050565b6000602082019050818103600083015261413981613cab565b9050919050565b6000602082019050818103600083015261415981613cce565b9050919050565b6000602082019050818103600083015261417981613cf1565b9050919050565b6000602082019050818103600083015261419981613d14565b9050919050565b600060208201905081810360008301526141b981613d37565b9050919050565b600060208201905081810360008301526141d981613d5a565b9050919050565b600060208201905081810360008301526141f981613d7d565b9050919050565b6000602082019050818103600083015261421981613da0565b9050919050565b6000602082019050818103600083015261423981613dc3565b9050919050565b6000602082019050818103600083015261425981613de6565b9050919050565b6000602082019050818103600083015261427981613e09565b9050919050565b6000602082019050818103600083015261429981613e2c565b9050919050565b600060208201905081810360008301526142b981613e4f565b9050919050565b600060208201905081810360008301526142d981613e72565b9050919050565b600060208201905081810360008301526142f981613e95565b9050919050565b6000602082019050818103600083015261431981613eb8565b9050919050565b6000602082019050818103600083015261433981613edb565b9050919050565b6000610160820190506143566000830184613efe565b92915050565b60006020820190506143716000830184613fee565b92915050565b600060a08201905061438c6000830188613fee565b6143996020830187613fee565b6143a66040830186613fee565b6143b36060830185613fee565b6143c06080830184613fee565b9695505050505050565b6000819050602082019050919050565b6000819050602082019050919050565b600081519050919050565b600081519050919050565b6000602082019050919050565b6000602082019050919050565b600082825260208201905092915050565b600082825260208201905092915050565b600082825260208201905092915050565b6000614458826145a0565b9150614463836145a0565b9250827fffffffffffffffffffffffffffffffffffffffffffffffffffffffffffffffff03821115614498576144976145f3565b5b828201905092915050565b60006144ae826145a0565b91506144b9836145a0565b9250826144c9576144c8614622565b5b828204905092915050565b60006144df826145a0565b91506144ea836145a0565b9250817fffffffffffffffffffffffffffffffffffffffffffffffffffffffffffffffff0483118215151615614523576145226145f3565b5b828202905092915050565b6000614539826145a0565b9150614544836145a0565b925082821015614557576145566145f3565b5b828203905092915050565b600061456d82614580565b9050919050565b60008115159050919050565b600073ffffffffffffffffffffffffffffffffffffffff82169050919050565b6000819050919050565b60006145b5826145a0565b91507fffffffffffffffffffffffffffffffffffffffffffffffffffffffffffffffff8214156145e8576145e76145f3565b5b600182019050919050565b7f4e487b7100000000000000000000000000000000000000000000000000000000600052601160045260246000fd5b7f4e487b7100000000000000000000000000000000000000000000000000000000600052601260045260246000fd5b7f4e487b7100000000000000000000000000000000000000000000000000000000600052603160045260246000fd5b7f4e487b7100000000000000000000000000000000000000000000000000000000600052603260045260246000fd5b600080fd5b7f617373657420646f6e277420666f756e64000000000000000000000000000000600082015250565b7f4f776e61626c653a206e6577206f776e657220697320746865207a65726f206160008201527f6464726573730000000000000000000000000000000000000000000000000000602082015250565b7f636f6c6c61746572616c206e6f742076616c6964000000000000000000000000600082015250565b7f62616c616e63652075736572206c6f7700000000000000000000000000000000600082015250565b7f4e6f74206f776e6572207468697320636f6e7472616374000000000000000000600082015250565b7f696e76616c696420616464726573730000000000000000000000000000000000600082015250565b7f416d6f756e7420617676616c69626c65206c6f77000000000000000000000000600082015250565b7f636f6c6c61746572616c20646f6e277420666f756e6400000000000000000000600082015250565b7f41737365747420616c726561647920696e206c69737400000000000000000000600082015250565b7f4f776e61626c653a2063616c6c6572206973206e6f7420746865206f776e6572600082015250565b7f70656e616c697479206d75737420686176652067656174656520300000000000600082015250565b7f696e6372656173206d75737420626520706c7573203000000000000000000000600082015250565b7f636f6e747261637420646f6e7420657869737400000000000000000000000000600082015250565b7f646561646c696e65206d75737420686176652067656174656520300000000000600082015250565b7f616c6f77616e63652075736572206c6f77000000000000000000000000000000600082015250565b7f5265656e7472616e637947756172643a207265656e7472616e742063616c6c00600082015250565b7f41737365747420617676616c69626c6520696e73756666696369656e7420666f60008201527f7220746869732077686964726f77000000000000000000000000000000000000602082015250565b7f436f6e7472616374206861766520617373657420696e20626f72726f77000000600082015250565b6149eb81614562565b81146149f657600080fd5b50565b614a0281614574565b8114614a0d57600080fd5b50565b614a19816145a0565b8114614a2457600080fd5b5056fea26469706673582212201eedc913b3a2fccf76fa3418898fa16f9b0f82fb10993c6cbff411ce33f9d3a764736f6c63430008070033",
  "immutableReferences": {},
  "source": "// SPDX-License-Identifier: Leluk911\n\npragma solidity 0.8.7;\n\nimport \"../node_modules/@openzeppelin/contracts/token/ERC20/IERC20.sol\";\nimport \"../node_modules/@openzeppelin/contracts/access/Ownable.sol\";\nimport \"../node_modules/@openzeppelin/contracts/utils/Counters.sol\";\nimport \"../node_modules/@openzeppelin/contracts/security/ReentrancyGuard.sol\";\n\ncontract lendingPage is Ownable,ReentrancyGuard {\n    //library\n    using Counters for Counters.Counter;\n    //function variable\n    Counters.Counter private Id; // id every lending contract\n    address[] private assetAvvalible; // asset add from Owner (only asset present in chainLink oracle)\n    uint private minPenality;\n    // User\n    struct LendingContract {\n        uint id;\n        address owner;\n        address asset;\n        //uint amount;\n        uint amountAvvalible;\n        uint apr;\n        uint deadline;\n        uint penality;\n        address collateral;\n        uint _amountBorrow;\n        uint rateCollateral;\n        uint amountCollateral;\n    }\n    mapping(address => mapping(uint=>LendingContract)) private userLendingContract;\n    mapping(address => uint[])listContractUser;\n    uint[] private listContract;\n    // borrower\n    struct Borrower{\n        address owner;\n        uint idContract;\n        address assetBorrow;\n        uint ammounBorrow; // da correggere\n        //uint heltBorrow;\n        address assetCollaterl;\n        uint amountCollateral;\n        uint liquidationThreshold;\n    }\n    mapping(uint => Borrower[]) private borrowersXid; \n\n    //-------------------------------//\n    constructor(uint _minpenality) Ownable() ReentrancyGuard(){\n        Id.increment();\n        minPenality = _minpenality;\n    }\n    // INTERNAL FUNCTION \n    function _setAssettAvvalible(address _newAsset) internal{\n        require(_newAsset != address(0), \"invalid address\");\n        require(!_findAsset(_newAsset),\"Assett already in list\");\n        assetAvvalible.push(_newAsset);\n        emit NewAssetAvvalible(_newAsset, block.timestamp);   \n    }\n    function _healFactor(uint _priceCollateralETH, uint _priceBorrowEth) internal pure returns(uint){\n        return (_priceCollateralETH/_priceBorrowEth);\n    }\n    function _liquidationThresold(uint _priceCollateralETH, uint _priceBorrowEth,uint _rateLiquidation) internal pure returns(uint){\n        return (\n            (_priceCollateralETH * _priceBorrowEth)/(_rateLiquidation * _priceBorrowEth)\n        );\n    }\n    //-----> Serch function  \n    function _findAsset(address _asset) internal view returns(bool){\n        for(uint i = 0; i<assetAvvalible.length; i++){\n            if(assetAvvalible[i]==_asset){\n                return true;\n            }\n        }\n        return false;\n    }\n    function _getAssettAvvalible()internal view returns (address[] memory ){\n        return assetAvvalible; \n    }\n    //-----> Search function user \n    function _listContractXuser(address _user) internal view returns(uint[] memory){\n       return listContractUser[_user];\n    }\n     function _findContractLending(address _to,uint _id)internal view returns(LendingContract memory){\n        return userLendingContract[_to][_id];\n    }\n     function _findArrayindexContract(address _to,uint deleteId)internal view returns(uint,bool){\n            uint index = 0;\n            bool response = false;\n            for(uint i=0 ;i<listContractUser[_to].length;i++){\n                if (deleteId == listContractUser[_to][i]){\n                    index = i;\n                    response = true;\n                }\n            }\n            return (index,response);\n        \n    }\n    function _findContractAvvalible(uint _IdFind)internal view returns(uint,bool){\n         uint index = 0;\n         bool response = false;\n         for(uint i=0 ;i<listContract.length;i++){\n             if (_IdFind == listContract[i]){\n                 index = i;\n                 response = true;\n             }\n         }\n         return (index,response);\n     \n    }\n    //------> Search function Borrower\n    function _serchIndexBorrowerXContract(uint _idContract,address _borrower) internal view returns(bool,uint){\n      for(uint i =0; i<borrowersXid[_idContract].length;i++ ){\n          if(borrowersXid[_idContract][i].owner == _borrower){\n              return (true,i);\n          }\n      }\n      return (false,0);\n    }\n    function _serchBorrowerPositionXContract(uint _idContract,address _borrower) internal view returns(Borrower memory){\n       for(uint i =0; i<borrowersXid[_idContract].length;i++ ){\n           if(borrowersXid[_idContract][i].owner == _borrower){\n               return (borrowersXid[_idContract][i]);\n           }\n       }\n       revert(\"Borrower for this contract not present\");\n    }\n   \n    // ----> User Function\n    function _deposit(address _to,address _asset,uint _amount,uint _apr,uint _deadline,uint _penality,address _collateral,uint _rateCollateral)internal {\n        //check\n        require(_to != address(0), \"invalid address\");\n        require(_asset != _collateral, \"collateral not valid\");\n        require(_findAsset(_asset),\"asset don't found\");\n        require(_findAsset(_collateral),\"collateral don't found\");\n        require(IERC20(_asset).balanceOf(_to) >= _amount,\"balance user low\");\n        require(IERC20(_asset).allowance(_to, address(this)) >= _amount,\"alowance user low\");\n        require(_deadline > 0,\"deadline must have geatee 0\");\n        require(_penality >=  minPenality,\"penality must have geatee 0\");    \n        // action\n        uint balanceContract = IERC20(_asset).balanceOf(address(this)); \n        IERC20(_asset).transferFrom(_to,address(this), _amount);\n        require(balanceContract+_amount == IERC20(_asset).balanceOf(address(this)));\n        // prepare local variable\n        LendingContract memory newContract= LendingContract(\n            Id.current(),\n            _to,\n            _asset,\n            //_amount,\n            _amount,\n            _apr,\n            _deadline,\n            _penality,\n            _collateral,\n            0,\n            _rateCollateral,\n            0\n        );\n        // update status global variable\n        userLendingContract[_to][Id.current()] = newContract;\n        emit NewContractDeposit(\n            Id.current(),_to,_asset,_amount,_apr,_deadline,_penality, _collateral\n        );\n        listContractUser[_to].push(Id.current());\n        listContract.push(Id.current());\n        Id.increment();\n\n\n    }\n    function _increasDeposit(address _to,uint _idContract, uint _increasAmount) internal  contractOwner(_to, _idContract){\n        require(_increasAmount > 0, \"increas must be plus 0\");\n        require(IERC20(_findContractLending(_to,_idContract).asset).balanceOf(_to) >= _increasAmount,\"balance user low\");\n        require(IERC20(_findContractLending(_to,_idContract).asset).allowance(_to, address(this)) >= _increasAmount,\"alowance user low\");\n        \n        uint balanceContract = IERC20(_findContractLending(_to,_idContract).asset).balanceOf(address(this)); \n        IERC20(_findContractLending(_to,_idContract).asset).transferFrom(_to,address(this), _increasAmount);\n        require(balanceContract+_increasAmount == IERC20(_findContractLending(_to,_idContract).asset).balanceOf(address(this)));\n\n        userLendingContract[_to][_idContract].amountAvvalible += _increasAmount; \n\n        emit IncreasContractDeposit(\n            _findContractLending(_to,_idContract).id,\n            _findContractLending(_to,_idContract).amountAvvalible - _increasAmount,\n            _findContractLending(_to,_idContract).amountAvvalible  \n        );\n    }\n    function _decreasDeposit(address _to,uint _idContract, uint _decreasAmount) internal contractOwner(_to, _idContract){\n        require(_decreasAmount > 0, \"increas must be plus 0\");\n        require(\n            _findContractLending(_to,_idContract).amountAvvalible >= _decreasAmount, \"Assett avvalible insufficient for this whidrow\"\n        );\n\n        userLendingContract[_to][_idContract].amountAvvalible -= _decreasAmount;\n\n        uint balanceContract = IERC20(_findContractLending(_to,_idContract).asset).balanceOf(address(this)); \n        IERC20(_findContractLending(_to,_idContract).asset).transfer(_to,_decreasAmount);\n        require(balanceContract -_decreasAmount == IERC20(_findContractLending(_to,_idContract).asset).balanceOf(address(this)));\n\n        emit DecreasContractDeposit(\n            _findContractLending(_to,_idContract).id,\n            _findContractLending(_to,_idContract).amountAvvalible + _decreasAmount,\n            _findContractLending(_to,_idContract).amountAvvalible\n            \n        );\n\n    }\n    function _deleteContract(address _to,uint _idContract)internal contractOwner(_to, _idContract){\n       require(\n            _findContractLending(_to,_idContract)._amountBorrow == 0, \"Contract have asset in borrow\"\n        ); \n        uint amountRepay = userLendingContract[_to][_idContract].amountAvvalible;\n        uint deleteId = userLendingContract[_to][_idContract].id;\n        address assetWidrow =_findContractLending(_to,_idContract).asset;\n        delete userLendingContract[_to][_idContract];\n        if(listContractUser[_to].length > 0){\n             // serch index of delete\n            (uint indexDelete, bool response) = _findArrayindexContract(_to, deleteId);\n            if(response){\n                //clean array\n                listContractUser[_to][indexDelete]=listContractUser[_to][listContractUser[_to].length -1];\n                listContractUser[_to].pop();\n            }\n        }else{\n            listContractUser[_to].pop(); // clean array\n        }\n          if(listContract.length > 0){\n             // serch index of delete\n            (uint indexDelete, bool response) = _findContractAvvalible(_idContract);\n            if(response){\n                //clean array\n                listContract[indexDelete] = listContract[listContract.length -1];\n                listContract.pop();\n            }\n        }else{\n            listContract.pop(); // clean array\n        }\n        uint balanceContract = IERC20(assetWidrow).balanceOf(address(this)); \n        IERC20(assetWidrow).transfer(_to,amountRepay);\n        require(balanceContract -amountRepay == IERC20(assetWidrow).balanceOf(address(this)));\n\n        emit DeleteContractDeposit(_to, deleteId);\n    }\n    //BORROW FUNCTION\n    function _executeBorrow(address _to,uint _idContract,address _lender,uint _amountBorrow,address _assettCollateral,uint _amountCollateral) internal {\n        (,bool response) = _findArrayindexContract(_lender,_idContract);\n        require(response,\"contract dont exist\");\n        require(userLendingContract[_lender][_idContract].amountAvvalible >= _amountBorrow,\"Amount avvalible low\");\n        // controll and utility  local var\n        uint _priceCollateralETH = _mockOracleCollateral();// fix with true oracle\n        uint _priceBorrowEth = _mockOracleBorrow();// fix with true oracle\n        uint _rateLiquidation = userLendingContract[_lender][_idContract].rateCollateral;\n        (bool responseSrc,uint indexBorrow) = _serchIndexBorrowerXContract(_idContract, _to);\n        //check before act borrow \n        require(_liquidationThresold(\n                            _priceCollateralETH*borrowersXid[_idContract][indexBorrow].ammounBorrow,\n                            _priceBorrowEth*borrowersXid[_idContract][indexBorrow].amountCollateral,\n                             _rateLiquidation) > _mockOracleBorrow());\n    \n        if(!responseSrc){\n            _newBorrower(_to,_lender, _idContract, _assettCollateral, _amountCollateral, _amountBorrow, _rateLiquidation);\n        }else{\n            _oldBorrower(_to, _lender, _idContract, _assettCollateral, _amountCollateral, _amountBorrow, _rateLiquidation, indexBorrow);\n\n        }\n\n        emit Borrow(_to, _idContract, _amountBorrow);\n    }\n\n    function _oldBorrower(address _to,address _lender,uint _idContract,address _assettCollateral,uint _amountCollateral,uint _amountBorrow, uint _rateLiquidation,uint indexBorrow)internal {\n        // gia cliente??\n        // aggiorniamo i conti vecchi \n        // aggiungere al controllo le coin gia depositate e prese in prestito \n        require(_healFactor(_mockOracleCollateral() *(borrowersXid[_idContract][indexBorrow].amountCollateral + _amountCollateral),\n                             _mockOracleBorrow() *(borrowersXid[_idContract][indexBorrow].ammounBorrow + _amountBorrow)\n                             )> userLendingContract[_lender][_idContract].rateCollateral); \n\n        uint balanceBefore = IERC20(_assettCollateral).balanceOf(address(this));\n            IERC20(_assettCollateral).transferFrom(_to, address(this), _amountCollateral);\n            require( balanceBefore + _amountCollateral == IERC20(_assettCollateral).balanceOf(address(this)));\n\n            borrowersXid[_idContract][indexBorrow].ammounBorrow += _amountBorrow;// aggiornata la variabile globale\n            borrowersXid[_idContract][indexBorrow].amountCollateral += _amountCollateral;// aggiornata la variabile globale\n            // updata thresoldLiquidation \n            borrowersXid[_idContract][indexBorrow].liquidationThreshold =\n                    _liquidationThresold(\n                        _mockOracleCollateral()*borrowersXid[_idContract][indexBorrow].ammounBorrow,\n                        _mockOracleBorrow()*borrowersXid[_idContract][indexBorrow].amountCollateral,\n                         _rateLiquidation);\n\n            userLendingContract[_lender][_idContract].amountAvvalible -=_amountBorrow;// togliamo le coin prestare\n            userLendingContract[_lender][_idContract].amountCollateral += _amountCollateral;// aggiungiamo la quantita di collaterale presente nel contratto\n\n            IERC20(userLendingContract[_lender][_idContract].asset).transfer(_to, _amountBorrow);\n\n    }\n\n    function _newBorrower(address _to,address _lender,uint _idContract,address _assettCollateral,uint _amountCollateral,uint _amountBorrow, uint _rateLiquidation)internal {\n        // nuovo cliente????\n        // conti nuovi\n        require(_healFactor(_mockOracleCollateral() * _amountCollateral, _mockOracleBorrow()*_amountBorrow) > userLendingContract[_lender][_idContract].rateCollateral);\n        // spreco di gas????\n        uint balanceBefore = IERC20(_assettCollateral).balanceOf(address(this));\n        IERC20(_assettCollateral).transferFrom(_to, address(this), _amountCollateral);\n        require( balanceBefore + _amountCollateral == IERC20(_assettCollateral).balanceOf(address(this)));\n        // preparazione dei dati del borrower non ancora settat nella variabile locale\n        Borrower memory newBorrower = Borrower(\n                                            _to,\n                                            _idContract,\n                                            userLendingContract[_lender][_idContract].asset,\n                                            _amountBorrow,\n                                            //uint heltBorrow;\n                                            _assettCollateral,\n                                            _amountCollateral,\n                                            _liquidationThresold(_mockOracleCollateral()*_amountCollateral, _mockOracleBorrow()*_amountBorrow, _rateLiquidation)\n                                            );\n\n        borrowersXid[_idContract].push(newBorrower);// aggiornata la variabile locale\n        // aggiorniamo i dati del lender\n\n        userLendingContract[_lender][_idContract].amountAvvalible -=_amountBorrow;// togliamo le coin prestare\n\n        userLendingContract[_lender][_idContract].amountCollateral += _amountCollateral;// aggiungiamo la quantita di collaterale presente nel contratto\n\n        IERC20(userLendingContract[_lender][_idContract].asset).transfer(_to, _amountBorrow);\n    }\n    \n    // EXTERNAL FUNCTION\n    function setAssettAvvalible(address _newAsset) external nonReentrant() onlyOwner() {\n        _setAssettAvvalible(_newAsset);\n    } \n    function findAsset(address _asset) external view returns(bool){\n        return _findAsset(_asset);\n    }\n    function deposit(address _asset,uint _amount,uint _apr,uint _deadline,uint _penality,address _collateral,uint _rateCollateral) external nonReentrant() {\n        _deposit(msg.sender, _asset, _amount, _apr, _deadline, _penality, _collateral,_rateCollateral);\n    }\n    function listContractXuser(address _user) external view returns(uint[] memory){\n        return _listContractXuser(_user);\n    }\n    function getAssettAvvalible()external view returns (address[] memory ){\n        return _getAssettAvvalible(); \n    }\n    function findContractLending(address _to,uint _id)external view returns(LendingContract memory){\n        return _findContractLending(_to, _id);\n    }\n     function increasDeposit(uint _idContract, uint _increasAmount) external nonReentrant(){\n        _increasDeposit(msg.sender, _idContract, _increasAmount);\n    }\n    function decreasDeposit(uint _idContract, uint _decreasAmount) external nonReentrant(){\n        _decreasDeposit(msg.sender, _idContract, _decreasAmount);\n    }\n    function deleteContract(uint _idContract) external nonReentrant(){\n        _deleteContract(msg.sender, _idContract);\n    }\n    //// ^^^^^TESTED^^^^^\n    /// vvvvvvNON TESTEDvvvvv\n    function executeBorrow(uint _idContract,address _lender,uint _amountBorrow,address _assettCollateral,uint _amountCollateral) external nonReentrant(){\n        _executeBorrow(msg.sender, _idContract, _lender, _amountBorrow, _assettCollateral, _amountCollateral);\n    }\n\n\n    // MODIFIER\n    modifier contractOwner(address _to,uint _idContract){\n        require(\n           _findContractLending(_to,_idContract).owner == _to, \"Not owner this contract\" \n        );\n        _;\n    }\n    // EVENT \n\n     event NewAssetAvvalible(address indexed asset, uint timeStart);\n     event NewContractDeposit(\n        uint Id,\n        address indexed owner,\n        address indexed asset,\n        uint amount,\n        uint apr,\n        uint  deadline,\n        uint  penality,\n        address indexed collateral\n     );\n     event IncreasContractDeposit(\n        uint Id,\n        uint indexed amount,\n        uint indexed newAmount\n     );\n     event DecreasContractDeposit(\n        uint Id,\n        uint indexed amount,\n        uint indexed newAmount\n     );\n\n     event DeleteContractDeposit(\n        address indexed owner,\n        uint indexed id\n     );\n     event Borrow( address indexed Borrower,uint indexed Id_Contract, uint amount);\n\n    // mock function\n\n    function _mockOracleBorrow() internal pure returns(uint price){\n        price = 1000;\n    }\n\n    function _mockOracleCollateral() internal pure returns(uint price){\n        price = 1000;\n    }\n\n/**\n    1 -> Valore Asset sia depositati che collateralizati\n            Soluzione -> Oracolo\n            Problema -> Calcolo matematico \n\n    3 -> Ripagare il Borrow e cambiare il margine\n            -> Applicare qui la Fee ? \n\n    4 -> Liquidazione collatterale, \n            -> problema -> Calcolo matematico \n            -> Quanto liquidare?\n            -> Come cambiano i valori dopo la liquidazione?\n            -> Voglio dare al lender la possibilit di vendere a mercato la liquidazione? \n            -> Gestione delle fee da pagare al protocollo \n    \n    5 -> a carico di chi sono le fee? lender o borrower ?\n            -> dove prendere le fee? \n                -> dall interesse del lender\n                    -> come lo calcolo?\n                    -> quando le prendo ?\n                -> dal pagamento del debito ? \n                    ->  pi vantaggioso progettualmente\n                    ->  competitiva come strategia?\n            -> HOW MUCH ????\n                -> 0.50% su ogni pagamento ???? -> tariffa standard\n                -> 1% fino al 5%        Tariffa liquidazione\n                -> 2% dal 5% al 10%     Tariffa liquidazione\n                -> 4% dal 10% al 20%    Tariffa liquidazione\n                -> 5% dal 20% al 30%    Tariffa liquidazione\n                -> 6% dal 30% al 100%   Tariffa liquidazione\n                    -> Vendere a mercato e realizare subito usd?\n                    -> detenere gli asset? \n                    -> miso detenere blue chips e dumpare il resto.\n \n */\n\n}\n/**\n nonReentrant()\n onlyOwner()\n \n\n\n \n */\n",
  "sourcePath": "/media/leluk/storage/Studio Dev/Dapp portfolio/individual lending/contracts/Individual_lending.sol",
  "compiler": {
    "name": "solc",
    "version": "0.8.7+commit.e28d00a7.Emscripten.clang"
  },
  "schemaVersion": "3.4.7",
  "updatedAt": "2022-06-18T13:44:05.893Z",
  "devdoc": {
    "kind": "dev",
    "methods": {
      "owner()": {
        "details": "Returns the address of the current owner."
      },
      "renounceOwnership()": {
        "details": "Leaves the contract without owner. It will not be possible to call `onlyOwner` functions anymore. Can only be called by the current owner. NOTE: Renouncing ownership will leave the contract without an owner, thereby removing any functionality that is only available to the owner."
      },
      "transferOwnership(address)": {
        "details": "Transfers ownership of the contract to a new account (`newOwner`). Can only be called by the current owner."
      }
    },
    "version": 1
  },
  "userdoc": {
    "kind": "user",
    "methods": {
      "executeBorrow(uint256,address,uint256,address,uint256)": {
        "notice": "vvvvvvNON TESTEDvvvvv"
      }
    },
    "version": 1
  }
}