{
  "contractName": "lendingPage",
  "abi": [
    {
      "inputs": [
        {
          "internalType": "uint256",
          "name": "_minpenality",
          "type": "uint256"
        }
      ],
      "stateMutability": "nonpayable",
      "type": "constructor"
    },
    {
      "anonymous": false,
      "inputs": [
        {
          "indexed": true,
          "internalType": "address",
          "name": "Borrower",
          "type": "address"
        },
        {
          "indexed": true,
          "internalType": "uint256",
          "name": "Id_Contract",
          "type": "uint256"
        },
        {
          "indexed": false,
          "internalType": "uint256",
          "name": "amount",
          "type": "uint256"
        }
      ],
      "name": "Borrow",
      "type": "event"
    },
    {
      "anonymous": false,
      "inputs": [
        {
          "indexed": false,
          "internalType": "uint256",
          "name": "Id",
          "type": "uint256"
        },
        {
          "indexed": true,
          "internalType": "uint256",
          "name": "amount",
          "type": "uint256"
        },
        {
          "indexed": true,
          "internalType": "uint256",
          "name": "newAmount",
          "type": "uint256"
        }
      ],
      "name": "DecreasContractDeposit",
      "type": "event"
    },
    {
      "anonymous": false,
      "inputs": [
        {
          "indexed": true,
          "internalType": "address",
          "name": "owner",
          "type": "address"
        },
        {
          "indexed": true,
          "internalType": "uint256",
          "name": "id",
          "type": "uint256"
        }
      ],
      "name": "DeleteContractDeposit",
      "type": "event"
    },
    {
      "anonymous": false,
      "inputs": [
        {
          "indexed": false,
          "internalType": "uint256",
          "name": "Id",
          "type": "uint256"
        },
        {
          "indexed": true,
          "internalType": "uint256",
          "name": "amount",
          "type": "uint256"
        },
        {
          "indexed": true,
          "internalType": "uint256",
          "name": "newAmount",
          "type": "uint256"
        }
      ],
      "name": "IncreasContractDeposit",
      "type": "event"
    },
    {
      "anonymous": false,
      "inputs": [
        {
          "indexed": true,
          "internalType": "address",
          "name": "asset",
          "type": "address"
        },
        {
          "indexed": false,
          "internalType": "uint256",
          "name": "timeStart",
          "type": "uint256"
        }
      ],
      "name": "NewAssetAvvalible",
      "type": "event"
    },
    {
      "anonymous": false,
      "inputs": [
        {
          "indexed": false,
          "internalType": "uint256",
          "name": "Id",
          "type": "uint256"
        },
        {
          "indexed": true,
          "internalType": "address",
          "name": "owner",
          "type": "address"
        },
        {
          "indexed": true,
          "internalType": "address",
          "name": "asset",
          "type": "address"
        },
        {
          "indexed": false,
          "internalType": "uint256",
          "name": "amount",
          "type": "uint256"
        },
        {
          "indexed": false,
          "internalType": "uint256",
          "name": "apr",
          "type": "uint256"
        },
        {
          "indexed": false,
          "internalType": "uint256",
          "name": "deadline",
          "type": "uint256"
        },
        {
          "indexed": false,
          "internalType": "uint256",
          "name": "penality",
          "type": "uint256"
        },
        {
          "indexed": true,
          "internalType": "address",
          "name": "collateral",
          "type": "address"
        }
      ],
      "name": "NewContractDeposit",
      "type": "event"
    },
    {
      "anonymous": false,
      "inputs": [
        {
          "indexed": true,
          "internalType": "address",
          "name": "previousOwner",
          "type": "address"
        },
        {
          "indexed": true,
          "internalType": "address",
          "name": "newOwner",
          "type": "address"
        }
      ],
      "name": "OwnershipTransferred",
      "type": "event"
    },
    {
      "anonymous": false,
      "inputs": [
        {
          "indexed": true,
          "internalType": "address",
          "name": "_to",
          "type": "address"
        },
        {
          "indexed": true,
          "internalType": "uint256",
          "name": "_idContract",
          "type": "uint256"
        },
        {
          "indexed": false,
          "internalType": "uint256",
          "name": "_amount",
          "type": "uint256"
        }
      ],
      "name": "applyPenality",
      "type": "event"
    },
    {
      "anonymous": false,
      "inputs": [
        {
          "indexed": true,
          "internalType": "uint256",
          "name": "_idContract",
          "type": "uint256"
        },
        {
          "indexed": true,
          "internalType": "uint256",
          "name": "_timeIncreas",
          "type": "uint256"
        }
      ],
      "name": "newTimeExpireDecreas",
      "type": "event"
    },
    {
      "anonymous": false,
      "inputs": [
        {
          "indexed": true,
          "internalType": "uint256",
          "name": "_idContract",
          "type": "uint256"
        },
        {
          "indexed": true,
          "internalType": "uint256",
          "name": "_timeIncreas",
          "type": "uint256"
        }
      ],
      "name": "newTimeExpireIncreas",
      "type": "event"
    },
    {
      "anonymous": false,
      "inputs": [
        {
          "indexed": true,
          "internalType": "address",
          "name": "_to",
          "type": "address"
        },
        {
          "indexed": true,
          "internalType": "uint256",
          "name": "_idContract",
          "type": "uint256"
        },
        {
          "indexed": false,
          "internalType": "uint256",
          "name": "_amount",
          "type": "uint256"
        }
      ],
      "name": "repay",
      "type": "event"
    },
    {
      "inputs": [],
      "name": "owner",
      "outputs": [
        {
          "internalType": "address",
          "name": "",
          "type": "address"
        }
      ],
      "stateMutability": "view",
      "type": "function"
    },
    {
      "inputs": [],
      "name": "renounceOwnership",
      "outputs": [],
      "stateMutability": "nonpayable",
      "type": "function"
    },
    {
      "inputs": [
        {
          "internalType": "address",
          "name": "newOwner",
          "type": "address"
        }
      ],
      "name": "transferOwnership",
      "outputs": [],
      "stateMutability": "nonpayable",
      "type": "function"
    },
    {
      "inputs": [
        {
          "internalType": "address",
          "name": "_newAsset",
          "type": "address"
        }
      ],
      "name": "setAssettAvvalible",
      "outputs": [],
      "stateMutability": "nonpayable",
      "type": "function"
    },
    {
      "inputs": [
        {
          "internalType": "address",
          "name": "_asset",
          "type": "address"
        }
      ],
      "name": "findAsset",
      "outputs": [
        {
          "internalType": "bool",
          "name": "",
          "type": "bool"
        }
      ],
      "stateMutability": "view",
      "type": "function"
    },
    {
      "inputs": [
        {
          "internalType": "address",
          "name": "_asset",
          "type": "address"
        },
        {
          "internalType": "uint256",
          "name": "_amount",
          "type": "uint256"
        },
        {
          "internalType": "uint256",
          "name": "_apr",
          "type": "uint256"
        },
        {
          "internalType": "uint256",
          "name": "_deadline",
          "type": "uint256"
        },
        {
          "internalType": "uint256",
          "name": "_penality",
          "type": "uint256"
        },
        {
          "internalType": "address",
          "name": "_collateral",
          "type": "address"
        },
        {
          "internalType": "uint256",
          "name": "_rateCollateral",
          "type": "uint256"
        }
      ],
      "name": "deposit",
      "outputs": [],
      "stateMutability": "nonpayable",
      "type": "function"
    },
    {
      "inputs": [
        {
          "internalType": "address",
          "name": "_user",
          "type": "address"
        }
      ],
      "name": "listContractXuser",
      "outputs": [
        {
          "internalType": "uint256[]",
          "name": "",
          "type": "uint256[]"
        }
      ],
      "stateMutability": "view",
      "type": "function"
    },
    {
      "inputs": [],
      "name": "getAssettAvvalible",
      "outputs": [
        {
          "internalType": "address[]",
          "name": "",
          "type": "address[]"
        }
      ],
      "stateMutability": "view",
      "type": "function"
    },
    {
      "inputs": [
        {
          "internalType": "address",
          "name": "_to",
          "type": "address"
        },
        {
          "internalType": "uint256",
          "name": "_id",
          "type": "uint256"
        }
      ],
      "name": "findContractLending",
      "outputs": [
        {
          "components": [
            {
              "internalType": "uint256",
              "name": "id",
              "type": "uint256"
            },
            {
              "internalType": "address",
              "name": "owner",
              "type": "address"
            },
            {
              "internalType": "bool",
              "name": "lock",
              "type": "bool"
            },
            {
              "internalType": "address",
              "name": "asset",
              "type": "address"
            },
            {
              "internalType": "uint256",
              "name": "amountAvvalible",
              "type": "uint256"
            },
            {
              "internalType": "uint256",
              "name": "apr",
              "type": "uint256"
            },
            {
              "internalType": "uint256",
              "name": "duration",
              "type": "uint256"
            },
            {
              "internalType": "uint256",
              "name": "penality",
              "type": "uint256"
            },
            {
              "internalType": "address",
              "name": "collateral",
              "type": "address"
            },
            {
              "internalType": "uint256",
              "name": "amountBorrow",
              "type": "uint256"
            },
            {
              "internalType": "uint256",
              "name": "rateCollateral",
              "type": "uint256"
            },
            {
              "internalType": "uint256",
              "name": "amountCollateral",
              "type": "uint256"
            }
          ],
          "internalType": "struct Storage.LendingContract",
          "name": "",
          "type": "tuple"
        }
      ],
      "stateMutability": "view",
      "type": "function"
    },
    {
      "inputs": [
        {
          "internalType": "uint256",
          "name": "_idContract",
          "type": "uint256"
        },
        {
          "internalType": "uint256",
          "name": "_increasAmount",
          "type": "uint256"
        }
      ],
      "name": "increasDeposit",
      "outputs": [],
      "stateMutability": "nonpayable",
      "type": "function"
    },
    {
      "inputs": [
        {
          "internalType": "uint256",
          "name": "_idContract",
          "type": "uint256"
        },
        {
          "internalType": "uint256",
          "name": "_decreasAmount",
          "type": "uint256"
        }
      ],
      "name": "decreasDeposit",
      "outputs": [],
      "stateMutability": "nonpayable",
      "type": "function"
    },
    {
      "inputs": [
        {
          "internalType": "uint256",
          "name": "_idContract",
          "type": "uint256"
        }
      ],
      "name": "deleteContract",
      "outputs": [],
      "stateMutability": "nonpayable",
      "type": "function"
    },
    {
      "inputs": [
        {
          "internalType": "uint256",
          "name": "_idContract",
          "type": "uint256"
        },
        {
          "internalType": "address",
          "name": "_lender",
          "type": "address"
        },
        {
          "internalType": "uint256",
          "name": "_amountBorrow",
          "type": "uint256"
        },
        {
          "internalType": "address",
          "name": "_assettCollateral",
          "type": "address"
        },
        {
          "internalType": "uint256",
          "name": "_amountCollateral",
          "type": "uint256"
        }
      ],
      "name": "executeBorrow",
      "outputs": [],
      "stateMutability": "nonpayable",
      "type": "function"
    },
    {
      "inputs": [
        {
          "internalType": "uint256",
          "name": "_idContract",
          "type": "uint256"
        },
        {
          "internalType": "address",
          "name": "_borrower",
          "type": "address"
        }
      ],
      "name": "serchBorrowerPositionXContract",
      "outputs": [
        {
          "components": [
            {
              "internalType": "address",
              "name": "owner",
              "type": "address"
            },
            {
              "internalType": "uint256",
              "name": "idContract",
              "type": "uint256"
            },
            {
              "internalType": "address",
              "name": "assetBorrow",
              "type": "address"
            },
            {
              "internalType": "uint256",
              "name": "ammounBorrow",
              "type": "uint256"
            },
            {
              "internalType": "address",
              "name": "assetCollaterl",
              "type": "address"
            },
            {
              "internalType": "uint256",
              "name": "amountCollateral",
              "type": "uint256"
            },
            {
              "internalType": "uint256",
              "name": "liquidationThreshold",
              "type": "uint256"
            },
            {
              "internalType": "uint256",
              "name": "expiration",
              "type": "uint256"
            },
            {
              "internalType": "uint256",
              "name": "blockStart",
              "type": "uint256"
            },
            {
              "internalType": "uint256",
              "name": "aprLoan",
              "type": "uint256"
            },
            {
              "internalType": "address",
              "name": "lender",
              "type": "address"
            }
          ],
          "internalType": "struct Storage.Borrower",
          "name": "",
          "type": "tuple"
        }
      ],
      "stateMutability": "view",
      "type": "function"
    },
    {
      "inputs": [
        {
          "internalType": "uint256",
          "name": "_idContract",
          "type": "uint256"
        },
        {
          "internalType": "address",
          "name": "_borrower",
          "type": "address"
        }
      ],
      "name": "serchIndexBorrowerXContract",
      "outputs": [
        {
          "internalType": "uint256",
          "name": "",
          "type": "uint256"
        }
      ],
      "stateMutability": "view",
      "type": "function"
    },
    {
      "inputs": [
        {
          "internalType": "address",
          "name": "_to",
          "type": "address"
        },
        {
          "internalType": "uint256",
          "name": "_idContract",
          "type": "uint256"
        },
        {
          "internalType": "bool",
          "name": "_lock",
          "type": "bool"
        }
      ],
      "name": "lockNewBorrow",
      "outputs": [],
      "stateMutability": "nonpayable",
      "type": "function"
    },
    {
      "inputs": [
        {
          "internalType": "address",
          "name": "_borrower",
          "type": "address"
        },
        {
          "internalType": "uint256",
          "name": "_idContract",
          "type": "uint256"
        }
      ],
      "name": "viewAmountLoan",
      "outputs": [
        {
          "internalType": "uint256",
          "name": "loanCompouse",
          "type": "uint256"
        }
      ],
      "stateMutability": "view",
      "type": "function"
    },
    {
      "inputs": [
        {
          "internalType": "uint256",
          "name": "_idContract",
          "type": "uint256"
        },
        {
          "internalType": "uint256",
          "name": "_amount",
          "type": "uint256"
        }
      ],
      "name": "executeRepay",
      "outputs": [],
      "stateMutability": "nonpayable",
      "type": "function"
    },
    {
      "inputs": [
        {
          "internalType": "uint256",
          "name": "_idContract",
          "type": "uint256"
        },
        {
          "internalType": "uint256",
          "name": "_timeIncreas",
          "type": "uint256"
        }
      ],
      "name": "increaseTimeExpire",
      "outputs": [],
      "stateMutability": "nonpayable",
      "type": "function"
    },
    {
      "inputs": [
        {
          "internalType": "uint256",
          "name": "_idContract",
          "type": "uint256"
        },
        {
          "internalType": "uint256",
          "name": "_timeIncreas",
          "type": "uint256"
        }
      ],
      "name": "decreaseTimeExpire",
      "outputs": [],
      "stateMutability": "nonpayable",
      "type": "function"
    }
  ],
  "bytecode": "0x60806040523480156200001157600080fd5b5060405162005dfc38038062005dfc83398181016040528101906200003791906200017f565b620000576200004b6200008460201b60201c565b6200008c60201b60201c565b60016008819055506200007660096200015260201b62000aad1760201c565b8060018190555050620001da565b600033905090565b6000600760009054906101000a900473ffffffffffffffffffffffffffffffffffffffff16905081600760006101000a81548173ffffffffffffffffffffffffffffffffffffffff021916908373ffffffffffffffffffffffffffffffffffffffff1602179055508173ffffffffffffffffffffffffffffffffffffffff168173ffffffffffffffffffffffffffffffffffffffff167f8be0079c531659141344cd1fd0a4f28419497f9722a3daafe3b4186f6b6457e060405160405180910390a35050565b6001816000016000828254019250508190555050565b6000815190506200017981620001c0565b92915050565b600060208284031215620001985762000197620001bb565b5b6000620001a88482850162000168565b91505092915050565b6000819050919050565b600080fd5b620001cb81620001b1565b8114620001d757600080fd5b50565b615c1280620001ea6000396000f3fe608060405234801561001057600080fd5b506004361061012c5760003560e01c80638990616d116100ad578063e236b6f011610071578063e236b6f014610317578063e2bb0eb914610347578063e619515814610377578063f2fde38b14610393578063f4163f21146103af5761012c565b80638990616d146102615780638da5cb5b1461027d578063a54bbcb71461029b578063aa674149146102cb578063e1e3769b146102e75761012c565b80636893d336116100f45780636893d336146101e55780636f25b8f614610201578063715018a61461021d578063726adaa4146102275780637cb6f38f146102455761012c565b806308dde662146101315780631392ed751461016157806319dda45c1461017d578063460e90d01461019957806347087215146101c9575b600080fd5b61014b6004803603810190610146919061460c565b6103cb565b60405161015891906153a6565b60405180910390f35b61017b6004803603810190610176919061469f565b610408565b005b61019760048036038101906101929190614883565b610477565b005b6101b360048036038101906101ae91906145df565b6104dc565b6040516101c09190615011565b60405180910390f35b6101e360048036038101906101de9190614883565b6104ee565b005b6101ff60048036038101906101fa919061476e565b610553565b005b61021b60048036038101906102169190614808565b6105b6565b005b610225610621565b005b61022f6106a9565b60405161023c9190614fef565b60405180910390f35b61025f600480360381019061025a9190614883565b6106b8565b005b61027b600480360381019061027691906145df565b61071d565b005b6102856107fb565b6040516102929190614f4b565b60405180910390f35b6102b560048036038101906102b091906147c8565b610825565b6040516102c2919061536e565b60405180910390f35b6102e560048036038101906102e0919061464c565b61083f565b005b61030160048036038101906102fc91906147c8565b6108a5565b60405161030e91906153a6565b60405180910390f35b610331600480360381019061032c919061460c565b6108bf565b60405161033e919061538a565b60405180910390f35b610361600480360381019061035c91906145df565b6108d9565b60405161036e9190615033565b60405180910390f35b610391600480360381019061038c9190614883565b6108eb565b005b6103ad60048036038101906103a891906145df565b610950565b005b6103c960048036038101906103c49190614883565b610a48565b005b6000806103d88385610ac3565b905060008161012001519050600082610100015190506103fd83606001518383610db0565b935050505092915050565b6002600854141561044e576040517f08c379a00000000000000000000000000000000000000000000000000000000081526004016104459061530e565b60405180910390fd5b60026008819055506104663388888888888888610e0e565b600160088190555050505050505050565b600260085414156104bd576040517f08c379a00000000000000000000000000000000000000000000000000000000081526004016104b49061530e565b60405180910390fd5b60026008819055506104d03383836115bc565b60016008819055505050565b60606104e7826119a7565b9050919050565b60026008541415610534576040517f08c379a000000000000000000000000000000000000000000000000000000000815260040161052b9061530e565b60405180910390fd5b6002600881905550610547338383611a3e565b60016008819055505050565b60026008541415610599576040517f08c379a00000000000000000000000000000000000000000000000000000000081526004016105909061530e565b60405180910390fd5b60026008819055506105ab3382611cc5565b600160088190555050565b600260085414156105fc576040517f08c379a00000000000000000000000000000000000000000000000000000000081526004016105f39061530e565b60405180910390fd5b6002600881905550610612338686868686612359565b60016008819055505050505050565b6106296126a4565b73ffffffffffffffffffffffffffffffffffffffff166106476107fb565b73ffffffffffffffffffffffffffffffffffffffff161461069d576040517f08c379a00000000000000000000000000000000000000000000000000000000081526004016106949061522e565b60405180910390fd5b6106a760006126ac565b565b60606106b3612772565b905090565b600260085414156106fe576040517f08c379a00000000000000000000000000000000000000000000000000000000081526004016106f59061530e565b60405180910390fd5b6002600881905550610711338383612800565b60016008819055505050565b60026008541415610763576040517f08c379a000000000000000000000000000000000000000000000000000000000815260040161075a9061530e565b60405180910390fd5b60026008819055506107736126a4565b73ffffffffffffffffffffffffffffffffffffffff166107916107fb565b73ffffffffffffffffffffffffffffffffffffffff16146107e7576040517f08c379a00000000000000000000000000000000000000000000000000000000081526004016107de9061522e565b60405180910390fd5b6107f081612947565b600160088190555050565b6000600760009054906101000a900473ffffffffffffffffffffffffffffffffffffffff16905090565b61082d61441f565b6108378383610ac3565b905092915050565b60026008541415610885576040517f08c379a000000000000000000000000000000000000000000000000000000000815260040161087c9061530e565b60405180910390fd5b6002600881905550610898838383612ab4565b6001600881905550505050565b6000806108b28484612b63565b9150508091505092915050565b6108c76144d1565b6108d18383612c41565b905092915050565b60006108e482612e1a565b9050919050565b60026008541415610931576040517f08c379a00000000000000000000000000000000000000000000000000000000081526004016109289061530e565b60405180910390fd5b6002600881905550610944338383612ec9565b60016008819055505050565b6109586126a4565b73ffffffffffffffffffffffffffffffffffffffff166109766107fb565b73ffffffffffffffffffffffffffffffffffffffff16146109cc576040517f08c379a00000000000000000000000000000000000000000000000000000000081526004016109c39061522e565b60405180910390fd5b600073ffffffffffffffffffffffffffffffffffffffff168173ffffffffffffffffffffffffffffffffffffffff161415610a3c576040517f08c379a0000000000000000000000000000000000000000000000000000000008152600401610a33906150ae565b60405180910390fd5b610a45816126ac565b50565b60026008541415610a8e576040517f08c379a0000000000000000000000000000000000000000000000000000000008152600401610a859061530e565b60405180910390fd5b6002600881905550610aa1338383612fe5565b60016008819055505050565b6001816000016000828254019250508190555050565b610acb61441f565b60005b6006600085815260200190815260200160002080549050811015610d6e578273ffffffffffffffffffffffffffffffffffffffff16600660008681526020019081526020016000208281548110610b2857610b276156ca565b5b90600052602060002090600b020160000160009054906101000a900473ffffffffffffffffffffffffffffffffffffffff1673ffffffffffffffffffffffffffffffffffffffff161415610d5b57600660008581526020019081526020016000208181548110610b9b57610b9a6156ca565b5b90600052602060002090600b0201604051806101600160405290816000820160009054906101000a900473ffffffffffffffffffffffffffffffffffffffff1673ffffffffffffffffffffffffffffffffffffffff1673ffffffffffffffffffffffffffffffffffffffff168152602001600182015481526020016002820160009054906101000a900473ffffffffffffffffffffffffffffffffffffffff1673ffffffffffffffffffffffffffffffffffffffff1673ffffffffffffffffffffffffffffffffffffffff168152602001600382015481526020016004820160009054906101000a900473ffffffffffffffffffffffffffffffffffffffff1673ffffffffffffffffffffffffffffffffffffffff1673ffffffffffffffffffffffffffffffffffffffff1681526020016005820154815260200160068201548152602001600782015481526020016008820154815260200160098201548152602001600a820160009054906101000a900473ffffffffffffffffffffffffffffffffffffffff1673ffffffffffffffffffffffffffffffffffffffff1673ffffffffffffffffffffffffffffffffffffffff1681525050915050610daa565b8080610d66906155f4565b915050610ace565b506040517f08c379a0000000000000000000000000000000000000000000000000000000008152600401610da19061512e565b60405180910390fd5b92915050565b6000808242610dbf9190615578565b90506000600163bbf81e00838789610dd7919061551e565b610de1919061551e565b610deb91906154ed565b87610df69190615497565b610e009190615497565b905080925050509392505050565b600073ffffffffffffffffffffffffffffffffffffffff168873ffffffffffffffffffffffffffffffffffffffff161415610e7e576040517f08c379a0000000000000000000000000000000000000000000000000000000008152600401610e759061518e565b60405180910390fd5b8173ffffffffffffffffffffffffffffffffffffffff168773ffffffffffffffffffffffffffffffffffffffff161415610eed576040517f08c379a0000000000000000000000000000000000000000000000000000000008152600401610ee4906150ce565b60405180910390fd5b610ef687612e1a565b610f35576040517f08c379a0000000000000000000000000000000000000000000000000000000008152600401610f2c9061508e565b60405180910390fd5b610f3e82612e1a565b610f7d576040517f08c379a0000000000000000000000000000000000000000000000000000000008152600401610f74906151ce565b60405180910390fd5b858773ffffffffffffffffffffffffffffffffffffffff166370a082318a6040518263ffffffff1660e01b8152600401610fb79190614f4b565b60206040518083038186803b158015610fcf57600080fd5b505afa158015610fe3573d6000803e3d6000fd5b505050506040513d601f19601f82011682018060405250810190611007919061479b565b1015611048576040517f08c379a000000000000000000000000000000000000000000000000000000000815260040161103f906150ee565b60405180910390fd5b858773ffffffffffffffffffffffffffffffffffffffff1663dd62ed3e8a306040518363ffffffff1660e01b8152600401611084929190614f66565b60206040518083038186803b15801561109c57600080fd5b505afa1580156110b0573d6000803e3d6000fd5b505050506040513d601f19601f820116820180604052508101906110d4919061479b565b1015611115576040517f08c379a000000000000000000000000000000000000000000000000000000000815260040161110c906152ce565b60405180910390fd5b60008411611158576040517f08c379a000000000000000000000000000000000000000000000000000000000815260040161114f906152ae565b60405180910390fd5b60015483101561119d576040517f08c379a00000000000000000000000000000000000000000000000000000000081526004016111949061524e565b60405180910390fd5b8673ffffffffffffffffffffffffffffffffffffffff166323b872dd8930896040518463ffffffff1660e01b81526004016111da93929190614f8f565b602060405180830381600087803b1580156111f457600080fd5b505af1158015611208573d6000803e3d6000fd5b505050506040513d601f19601f8201168201806040525081019061122c9190614741565b5060006040518061018001604052806112456009613161565b81526020018a73ffffffffffffffffffffffffffffffffffffffff1681526020016000151581526020018973ffffffffffffffffffffffffffffffffffffffff1681526020018881526020018781526020018681526020018581526020018473ffffffffffffffffffffffffffffffffffffffff168152602001600081526020018381526020016000815250905080600260008b73ffffffffffffffffffffffffffffffffffffffff1673ffffffffffffffffffffffffffffffffffffffff168152602001908152602001600020600061131f6009613161565b81526020019081526020016000206000820151816000015560208201518160010160006101000a81548173ffffffffffffffffffffffffffffffffffffffff021916908373ffffffffffffffffffffffffffffffffffffffff16021790555060408201518160010160146101000a81548160ff02191690831515021790555060608201518160020160006101000a81548173ffffffffffffffffffffffffffffffffffffffff021916908373ffffffffffffffffffffffffffffffffffffffff1602179055506080820151816003015560a0820151816004015560c0820151816005015560e082015181600601556101008201518160070160006101000a81548173ffffffffffffffffffffffffffffffffffffffff021916908373ffffffffffffffffffffffffffffffffffffffff1602179055506101208201518160080155610140820151816009015561016082015181600a01559050508273ffffffffffffffffffffffffffffffffffffffff168873ffffffffffffffffffffffffffffffffffffffff168a73ffffffffffffffffffffffffffffffffffffffff167f73ccc975565e11201f9228f86b04c2090d856488dd73ce7f1b63b9609708ee476114e96009613161565b8b8b8b8b6040516114fe9594939291906153c1565b60405180910390a4600360008a73ffffffffffffffffffffffffffffffffffffffff1673ffffffffffffffffffffffffffffffffffffffff16815260200190815260200160002061154f6009613161565b908060018154018082558091505060019003906000526020600020016000909190919091505560046115816009613161565b90806001815401808255809150506001900390600052602060002001600090919091909150556115b16009610aad565b505050505050505050565b82828173ffffffffffffffffffffffffffffffffffffffff166115df8383612c41565b6020015173ffffffffffffffffffffffffffffffffffffffff1614611639576040517f08c379a00000000000000000000000000000000000000000000000000000000081526004016116309061514e565b60405180910390fd5b6000831161167c576040517f08c379a00000000000000000000000000000000000000000000000000000000081526004016116739061526e565b60405180910390fd5b826116878686612c41565b6060015173ffffffffffffffffffffffffffffffffffffffff166370a08231876040518263ffffffff1660e01b81526004016116c39190614f4b565b60206040518083038186803b1580156116db57600080fd5b505afa1580156116ef573d6000803e3d6000fd5b505050506040513d601f19601f82011682018060405250810190611713919061479b565b1015611754576040517f08c379a000000000000000000000000000000000000000000000000000000000815260040161174b906150ee565b60405180910390fd5b8261175f8686612c41565b6060015173ffffffffffffffffffffffffffffffffffffffff1663dd62ed3e87306040518363ffffffff1660e01b815260040161179d929190614f66565b60206040518083038186803b1580156117b557600080fd5b505afa1580156117c9573d6000803e3d6000fd5b505050506040513d601f19601f820116820180604052508101906117ed919061479b565b101561182e576040517f08c379a0000000000000000000000000000000000000000000000000000000008152600401611825906152ce565b60405180910390fd5b6118388585612c41565b6060015173ffffffffffffffffffffffffffffffffffffffff166323b872dd8630866040518463ffffffff1660e01b815260040161187893929190614f8f565b602060405180830381600087803b15801561189257600080fd5b505af11580156118a6573d6000803e3d6000fd5b505050506040513d601f19601f820116820180604052508101906118ca9190614741565b5082600260008773ffffffffffffffffffffffffffffffffffffffff1673ffffffffffffffffffffffffffffffffffffffff1681526020019081526020016000206000868152602001908152602001600020600301600082825461192e9190615497565b9250508190555061193f8585612c41565b608001518361194e8787612c41565b6080015161195c9190615578565b7f70b5eec6cec01e52d9243bac64c12e4fd128a2f20105af16919ae212e224fc656119878888612c41565b6000015160405161199891906153a6565b60405180910390a35050505050565b6060600360008373ffffffffffffffffffffffffffffffffffffffff1673ffffffffffffffffffffffffffffffffffffffff168152602001908152602001600020805480602002602001604051908101604052809291908181526020018280548015611a3257602002820191906000526020600020905b815481526020019060010190808311611a1e575b50505050509050919050565b82828173ffffffffffffffffffffffffffffffffffffffff16611a618383612c41565b6020015173ffffffffffffffffffffffffffffffffffffffff1614611abb576040517f08c379a0000000000000000000000000000000000000000000000000000000008152600401611ab29061514e565b60405180910390fd5b60008311611afe576040517f08c379a0000000000000000000000000000000000000000000000000000000008152600401611af59061526e565b60405180910390fd5b82611b098686612c41565b608001511015611b4e576040517f08c379a0000000000000000000000000000000000000000000000000000000008152600401611b459061532e565b60405180910390fd5b82600260008773ffffffffffffffffffffffffffffffffffffffff1673ffffffffffffffffffffffffffffffffffffffff16815260200190815260200160002060008681526020019081526020016000206003016000828254611bb19190615578565b92505081905550611bc28585612c41565b6060015173ffffffffffffffffffffffffffffffffffffffff1663a9059cbb86856040518363ffffffff1660e01b8152600401611c00929190614fc6565b602060405180830381600087803b158015611c1a57600080fd5b505af1158015611c2e573d6000803e3d6000fd5b505050506040513d601f19601f82011682018060405250810190611c529190614741565b50611c5d8585612c41565b6080015183611c6c8787612c41565b60800151611c7a9190615497565b7f510055a9c40582bc6ad0cab1e5b0421194c4d34435a16960ec71333bf8bc70cf611ca58888612c41565b60000151604051611cb691906153a6565b60405180910390a35050505050565b81818173ffffffffffffffffffffffffffffffffffffffff16611ce88383612c41565b6020015173ffffffffffffffffffffffffffffffffffffffff1614611d42576040517f08c379a0000000000000000000000000000000000000000000000000000000008152600401611d399061514e565b60405180910390fd5b6000611d4e8585612c41565b610120015114611d93576040517f08c379a0000000000000000000000000000000000000000000000000000000008152600401611d8a9061534e565b60405180910390fd5b6000600260008673ffffffffffffffffffffffffffffffffffffffff1673ffffffffffffffffffffffffffffffffffffffff16815260200190815260200160002060008581526020019081526020016000206003015490506000600260008773ffffffffffffffffffffffffffffffffffffffff1673ffffffffffffffffffffffffffffffffffffffff16815260200190815260200160002060008681526020019081526020016000206000015490506000611e4f8787612c41565b606001519050600260008873ffffffffffffffffffffffffffffffffffffffff1673ffffffffffffffffffffffffffffffffffffffff16815260200190815260200160002060008781526020019081526020016000206000808201600090556001820160006101000a81549073ffffffffffffffffffffffffffffffffffffffff02191690556001820160146101000a81549060ff02191690556002820160006101000a81549073ffffffffffffffffffffffffffffffffffffffff021916905560038201600090556004820160009055600582016000905560068201600090556007820160006101000a81549073ffffffffffffffffffffffffffffffffffffffff021916905560088201600090556009820160009055600a82016000905550506000600360008973ffffffffffffffffffffffffffffffffffffffff1673ffffffffffffffffffffffffffffffffffffffff16815260200190815260200160002080549050111561214957600080611fc9898561316f565b91509150801561214257600360008a73ffffffffffffffffffffffffffffffffffffffff1673ffffffffffffffffffffffffffffffffffffffff1681526020019081526020016000206001600360008c73ffffffffffffffffffffffffffffffffffffffff1673ffffffffffffffffffffffffffffffffffffffff168152602001908152602001600020805490506120619190615578565b81548110612072576120716156ca565b5b9060005260206000200154600360008b73ffffffffffffffffffffffffffffffffffffffff1673ffffffffffffffffffffffffffffffffffffffff16815260200190815260200160002083815481106120ce576120cd6156ca565b5b9060005260206000200181905550600360008a73ffffffffffffffffffffffffffffffffffffffff1673ffffffffffffffffffffffffffffffffffffffff16815260200190815260200160002080548061212b5761212a61569b565b5b600190038181906000526020600020016000905590555b50506121af565b600360008873ffffffffffffffffffffffffffffffffffffffff1673ffffffffffffffffffffffffffffffffffffffff1681526020019081526020016000208054806121985761219761569b565b5b600190038181906000526020600020016000905590555b60006004805490501115612255576000806121c988613250565b91509150801561224e57600460016004805490506121e79190615578565b815481106121f8576121f76156ca565b5b906000526020600020015460048381548110612217576122166156ca565b5b906000526020600020018190555060048054806122375761223661569b565b5b600190038181906000526020600020016000905590555b505061227e565b60048054806122675761226661569b565b5b600190038181906000526020600020016000905590555b8073ffffffffffffffffffffffffffffffffffffffff1663a9059cbb88856040518363ffffffff1660e01b81526004016122b9929190614fc6565b602060405180830381600087803b1580156122d357600080fd5b505af11580156122e7573d6000803e3d6000fd5b505050506040513d601f19601f8201168201806040525081019061230b9190614741565b50818773ffffffffffffffffffffffffffffffffffffffff167ffd6e81c22721a918c2e59966d2b020f6ccf1fe46d783cc4053c75c1a9fa837f060405160405180910390a350505050505050565b600015156005600087815260200190815260200160002060009054906101000a900460ff161515146123c0576040517f08c379a00000000000000000000000000000000000000000000000000000000081526004016123b79061504e565b60405180910390fd5b60001515600260008873ffffffffffffffffffffffffffffffffffffffff1673ffffffffffffffffffffffffffffffffffffffff168152602001908152602001600020600087815260200190815260200160002060010160149054906101000a900460ff16151514612467576040517f08c379a000000000000000000000000000000000000000000000000000000000815260040161245e9061520e565b60405180910390fd5b6000612473858761316f565b915050806124b6576040517f08c379a00000000000000000000000000000000000000000000000000000000081526004016124ad9061528e565b60405180910390fd5b83600260008773ffffffffffffffffffffffffffffffffffffffff1673ffffffffffffffffffffffffffffffffffffffff168152602001908152602001600020600088815260200190815260200160002060030154101561254c576040517f08c379a0000000000000000000000000000000000000000000000000000000008152600401612543906151ae565b60405180910390fd5b60006125566132b5565b90506000600260008873ffffffffffffffffffffffffffffffffffffffff1673ffffffffffffffffffffffffffffffffffffffff16815260200190815260200160002060008981526020019081526020016000206009015490506000806125bd8a8c612b63565b91509150816125da576125d58b8a8c8a8a8d896132be565b612648565b6125e26132b5565b61262d600660008d8152602001908152602001600020838154811061260a576126096156ca565b5b90600052602060002090600b02016005015486612627919061551e565b85613968565b1161263757600080fd5b6126478b8a8c8a8a8d898861397e565b5b898b73ffffffffffffffffffffffffffffffffffffffff167fe1979fe4c35e0cef342fef5668e2c8e7a7e9f5d5d1ca8fee0ac6c427fa4153af8a60405161268f91906153a6565b60405180910390a35050505050505050505050565b600033905090565b6000600760009054906101000a900473ffffffffffffffffffffffffffffffffffffffff16905081600760006101000a81548173ffffffffffffffffffffffffffffffffffffffff021916908373ffffffffffffffffffffffffffffffffffffffff1602179055508173ffffffffffffffffffffffffffffffffffffffff168173ffffffffffffffffffffffffffffffffffffffff167f8be0079c531659141344cd1fd0a4f28419497f9722a3daafe3b4186f6b6457e060405160405180910390a35050565b606060008054806020026020016040519081016040528092919081815260200182805480156127f657602002820191906000526020600020905b8160009054906101000a900473ffffffffffffffffffffffffffffffffffffffff1673ffffffffffffffffffffffffffffffffffffffff16815260200190600101908083116127ac575b5050505050905090565b600061280c8385610ac3565b9050806000015173ffffffffffffffffffffffffffffffffffffffff168473ffffffffffffffffffffffffffffffffffffffff1614612880576040517f08c379a00000000000000000000000000000000000000000000000000000000081526004016128779061510e565b60405180910390fd5b8060e001514211156128a65761289881838686613f4f565b6128a157600080fd5b6128f2565b6128b28183868661409f565b6128f1576040517f08c379a00000000000000000000000000000000000000000000000000000000081526004016128e89061506e565b60405180910390fd5b5b828473ffffffffffffffffffffffffffffffffffffffff167f8cd2e0c7fd550a74312e3075f80ebbb071970c93280ed06e9101b48e1299bbf88460405161293991906153a6565b60405180910390a350505050565b600073ffffffffffffffffffffffffffffffffffffffff168173ffffffffffffffffffffffffffffffffffffffff1614156129b7576040517f08c379a00000000000000000000000000000000000000000000000000000000081526004016129ae9061518e565b60405180910390fd5b6129c081612e1a565b15612a00576040517f08c379a00000000000000000000000000000000000000000000000000000000081526004016129f7906151ee565b60405180910390fd5b6000819080600181540180825580915050600190039060005260206000200160009091909190916101000a81548173ffffffffffffffffffffffffffffffffffffffff021916908373ffffffffffffffffffffffffffffffffffffffff1602179055508073ffffffffffffffffffffffffffffffffffffffff167f1406601fca80ce2dde347c6c1c000309440d0365c2b5786f1608d7b1e76dd12d42604051612aa991906153a6565b60405180910390a250565b82828173ffffffffffffffffffffffffffffffffffffffff16612ad78383612c41565b6020015173ffffffffffffffffffffffffffffffffffffffff1614612b31576040517f08c379a0000000000000000000000000000000000000000000000000000000008152600401612b289061514e565b60405180910390fd5b826005600086815260200190815260200160002060006101000a81548160ff0219169083151502179055505050505050565b60008060005b6006600086815260200190815260200160002080549050811015612c31578373ffffffffffffffffffffffffffffffffffffffff16600660008781526020019081526020016000208281548110612bc357612bc26156ca565b5b90600052602060002090600b020160000160009054906101000a900473ffffffffffffffffffffffffffffffffffffffff1673ffffffffffffffffffffffffffffffffffffffff161415612c1e576001819250925050612c3a565b8080612c29906155f4565b915050612b69565b50600080915091505b9250929050565b612c496144d1565b600260008473ffffffffffffffffffffffffffffffffffffffff1673ffffffffffffffffffffffffffffffffffffffff168152602001908152602001600020600083815260200190815260200160002060405180610180016040529081600082015481526020016001820160009054906101000a900473ffffffffffffffffffffffffffffffffffffffff1673ffffffffffffffffffffffffffffffffffffffff1673ffffffffffffffffffffffffffffffffffffffff1681526020016001820160149054906101000a900460ff161515151581526020016002820160009054906101000a900473ffffffffffffffffffffffffffffffffffffffff1673ffffffffffffffffffffffffffffffffffffffff1673ffffffffffffffffffffffffffffffffffffffff168152602001600382015481526020016004820154815260200160058201548152602001600682015481526020016007820160009054906101000a900473ffffffffffffffffffffffffffffffffffffffff1673ffffffffffffffffffffffffffffffffffffffff1673ffffffffffffffffffffffffffffffffffffffff1681526020016008820154815260200160098201548152602001600a82015481525050905092915050565b600080600090505b600080549050811015612ebe578273ffffffffffffffffffffffffffffffffffffffff1660008281548110612e5a57612e596156ca565b5b9060005260206000200160009054906101000a900473ffffffffffffffffffffffffffffffffffffffff1673ffffffffffffffffffffffffffffffffffffffff161415612eab576001915050612ec4565b8080612eb6906155f4565b915050612e22565b50600090505b919050565b82828173ffffffffffffffffffffffffffffffffffffffff16612eec8383612c41565b6020015173ffffffffffffffffffffffffffffffffffffffff1614612f46576040517f08c379a0000000000000000000000000000000000000000000000000000000008152600401612f3d9061514e565b60405180910390fd5b82600260008773ffffffffffffffffffffffffffffffffffffffff1673ffffffffffffffffffffffffffffffffffffffff16815260200190815260200160002060008681526020019081526020016000206005016000828254612fa99190615497565b9250508190555082847f55c5fcd1e6b45344c33b2efe8b0a1c21370e8436550c2a417ca7a88b4f9ecd7f60405160405180910390a35050505050565b82828173ffffffffffffffffffffffffffffffffffffffff166130088383612c41565b6020015173ffffffffffffffffffffffffffffffffffffffff1614613062576040517f08c379a00000000000000000000000000000000000000000000000000000000081526004016130599061514e565b60405180910390fd5b6000600260008773ffffffffffffffffffffffffffffffffffffffff1673ffffffffffffffffffffffffffffffffffffffff168152602001908152602001600020600086815260200190815260200160002060080154146130c257600080fd5b82600260008773ffffffffffffffffffffffffffffffffffffffff1673ffffffffffffffffffffffffffffffffffffffff168152602001908152602001600020600086815260200190815260200160002060050160008282546131259190615497565b9250508190555082847f39ad9ab227a3f33f44fa8a3bd1d05a8540654651c5b126643016fa827169bb6660405160405180910390a35050505050565b600081600001549050919050565b60008060008060005b600360008873ffffffffffffffffffffffffffffffffffffffff1673ffffffffffffffffffffffffffffffffffffffff1681526020019081526020016000208054905081101561324057600360008873ffffffffffffffffffffffffffffffffffffffff1673ffffffffffffffffffffffffffffffffffffffff1681526020019081526020016000208181548110613213576132126156ca565b5b906000526020600020015486141561322d57809250600191505b8080613238906155f4565b915050613178565b5081819350935050509250929050565b60008060008060005b6004805490508110156132a7576004818154811061327a576132796156ca565b5b906000526020600020015486141561329457809250600191505b808061329f906155f4565b915050613259565b508181935093505050915091565b60006002905090565b600260008773ffffffffffffffffffffffffffffffffffffffff1673ffffffffffffffffffffffffffffffffffffffff1681526020019081526020016000206000868152602001908152602001600020600901546133408461331e614400565b613328919061551e565b846133316132b5565b61333b919061551e565b614409565b1161334a57600080fd5b8373ffffffffffffffffffffffffffffffffffffffff166323b872dd8830866040518463ffffffff1660e01b815260040161338793929190614f8f565b602060405180830381600087803b1580156133a157600080fd5b505af11580156133b5573d6000803e3d6000fd5b505050506040513d601f19601f820116820180604052508101906133d99190614741565b5060006040518061016001604052808973ffffffffffffffffffffffffffffffffffffffff168152602001878152602001600260008a73ffffffffffffffffffffffffffffffffffffffff1673ffffffffffffffffffffffffffffffffffffffff168152602001908152602001600020600089815260200190815260200160002060020160009054906101000a900473ffffffffffffffffffffffffffffffffffffffff1673ffffffffffffffffffffffffffffffffffffffff1681526020018481526020018673ffffffffffffffffffffffffffffffffffffffff1681526020018581526020016134dd856134cd6132b5565b6134d7919061551e565b85613968565b8152602001600260008a73ffffffffffffffffffffffffffffffffffffffff1673ffffffffffffffffffffffffffffffffffffffff168152602001908152602001600020600089815260200190815260200160002060050154426135419190615497565b81526020014281526020016135568989612c41565b60a0015181526020018873ffffffffffffffffffffffffffffffffffffffff168152509050600660008781526020019081526020016000208190806001815401808255809150506001900390600052602060002090600b020160009091909190915060008201518160000160006101000a81548173ffffffffffffffffffffffffffffffffffffffff021916908373ffffffffffffffffffffffffffffffffffffffff1602179055506020820151816001015560408201518160020160006101000a81548173ffffffffffffffffffffffffffffffffffffffff021916908373ffffffffffffffffffffffffffffffffffffffff1602179055506060820151816003015560808201518160040160006101000a81548173ffffffffffffffffffffffffffffffffffffffff021916908373ffffffffffffffffffffffffffffffffffffffff16021790555060a0820151816005015560c0820151816006015560e082015181600701556101008201518160080155610120820151816009015561014082015181600a0160006101000a81548173ffffffffffffffffffffffffffffffffffffffff021916908373ffffffffffffffffffffffffffffffffffffffff160217905550505082600260008973ffffffffffffffffffffffffffffffffffffffff1673ffffffffffffffffffffffffffffffffffffffff168152602001908152602001600020600088815260200190815260200160002060030160008282546137829190615578565b9250508190555082600260008973ffffffffffffffffffffffffffffffffffffffff1673ffffffffffffffffffffffffffffffffffffffff168152602001908152602001600020600088815260200190815260200160002060080160008282546137ec9190615497565b9250508190555083600260008973ffffffffffffffffffffffffffffffffffffffff1673ffffffffffffffffffffffffffffffffffffffff1681526020019081526020016000206000888152602001908152602001600020600a0160008282546138569190615497565b92505081905550600260008873ffffffffffffffffffffffffffffffffffffffff1673ffffffffffffffffffffffffffffffffffffffff168152602001908152602001600020600087815260200190815260200160002060020160009054906101000a900473ffffffffffffffffffffffffffffffffffffffff1673ffffffffffffffffffffffffffffffffffffffff1663a9059cbb89856040518363ffffffff1660e01b815260040161390b929190614fc6565b602060405180830381600087803b15801561392557600080fd5b505af1158015613939573d6000803e3d6000fd5b505050506040513d601f19601f8201168201806040525081019061395d9190614741565b505050505050505050565b60008183613976919061551e565b905092915050565b6006600087815260200190815260200160002081815481106139a3576139a26156ca565b5b90600052602060002090600b020160000160009054906101000a900473ffffffffffffffffffffffffffffffffffffffff1673ffffffffffffffffffffffffffffffffffffffff168873ffffffffffffffffffffffffffffffffffffffff1614613a42576040517f08c379a0000000000000000000000000000000000000000000000000000000008152600401613a399061510e565b60405180910390fd5b600260008873ffffffffffffffffffffffffffffffffffffffff1673ffffffffffffffffffffffffffffffffffffffff168152602001908152602001600020600087815260200190815260200160002060090154613b4685600660008a81526020019081526020016000208481548110613abf57613abe6156ca565b5b90600052602060002090600b020160050154613adb9190615497565b613ae3614400565b613aed919061551e565b85600660008b81526020019081526020016000208581548110613b1357613b126156ca565b5b90600052602060002090600b020160030154613b2f9190615497565b613b376132b5565b613b41919061551e565b614409565b11613b5057600080fd5b8473ffffffffffffffffffffffffffffffffffffffff166323b872dd8930876040518463ffffffff1660e01b8152600401613b8d93929190614f8f565b602060405180830381600087803b158015613ba757600080fd5b505af1158015613bbb573d6000803e3d6000fd5b505050506040513d601f19601f82011682018060405250810190613bdf9190614741565b5082600660008881526020019081526020016000208281548110613c0657613c056156ca565b5b90600052602060002090600b02016003016000828254613c269190615497565b9250508190555083600660008881526020019081526020016000208281548110613c5357613c526156ca565b5b90600052602060002090600b02016005016000828254613c739190615497565b92505081905550613ccc600660008881526020019081526020016000208281548110613ca257613ca16156ca565b5b90600052602060002090600b020160030154613cbc6132b5565b613cc6919061551e565b83613968565b600660008881526020019081526020016000208281548110613cf157613cf06156ca565b5b90600052602060002090600b02016006018190555082600260008973ffffffffffffffffffffffffffffffffffffffff1673ffffffffffffffffffffffffffffffffffffffff16815260200190815260200160002060008881526020019081526020016000206003016000828254613d699190615578565b9250508190555082600260008973ffffffffffffffffffffffffffffffffffffffff1673ffffffffffffffffffffffffffffffffffffffff16815260200190815260200160002060008881526020019081526020016000206008016000828254613dd39190615497565b9250508190555083600260008973ffffffffffffffffffffffffffffffffffffffff1673ffffffffffffffffffffffffffffffffffffffff1681526020019081526020016000206000888152602001908152602001600020600a016000828254613e3d9190615497565b92505081905550600260008873ffffffffffffffffffffffffffffffffffffffff1673ffffffffffffffffffffffffffffffffffffffff168152602001908152602001600020600087815260200190815260200160002060020160009054906101000a900473ffffffffffffffffffffffffffffffffffffffff1673ffffffffffffffffffffffffffffffffffffffff1663a9059cbb89856040518363ffffffff1660e01b8152600401613ef2929190614fc6565b602060405180830381600087803b158015613f0c57600080fd5b505af1158015613f20573d6000803e3d6000fd5b505050506040513d601f19601f82011682018060405250810190613f449190614741565b505050505050505050565b6000428560e0015110613f97576040517f08c379a0000000000000000000000000000000000000000000000000000000008152600401613f8e9061516e565b60405180910390fd5b60006064605886613fa8919061551e565b613fb291906154ed565b90508085613fc09190615578565b6002600088610140015173ffffffffffffffffffffffffffffffffffffffff1673ffffffffffffffffffffffffffffffffffffffff168152602001908152602001600020600085815260200190815260200160002060030160008282546140279190615497565b9250508190555061403a8682868661409f565b61404357600080fd5b828473ffffffffffffffffffffffffffffffffffffffff167ff4566bf0f626de61c22d06426bb7c188fe0cbf319d7bde6569daac73e2b18f0a8360405161408a91906153a6565b60405180910390a36001915050949350505050565b60006140ba8560600151866101200151876101000151610db0565b856060018181525050838560600151101561410a576040517f08c379a0000000000000000000000000000000000000000000000000000000008152600401614101906152ee565b60405180910390fd5b846040015173ffffffffffffffffffffffffffffffffffffffff166323b872dd8430876040518463ffffffff1660e01b815260040161414b93929190614f8f565b602060405180830381600087803b15801561416557600080fd5b505af1158015614179573d6000803e3d6000fd5b505050506040513d601f19601f8201168201806040525081019061419d9190614741565b506000856101400151905084600260008373ffffffffffffffffffffffffffffffffffffffff1673ffffffffffffffffffffffffffffffffffffffff1681526020019081526020016000206000858152602001908152602001600020600801600082825461420b9190615578565b9250508190555084600260008373ffffffffffffffffffffffffffffffffffffffff1673ffffffffffffffffffffffffffffffffffffffff168152602001908152602001600020600085815260200190815260200160002060030160008282546142759190615497565b9250508190555060006142888486612b63565b915050856006600086815260200190815260200160002082815481106142b1576142b06156ca565b5b90600052602060002090600b020160030160008282546142d19190615578565b92505081905550426006600086815260200190815260200160002082815481106142fe576142fd6156ca565b5b90600052602060002090600b0201600801819055506143b861431e6132b5565b600660008781526020019081526020016000208381548110614343576143426156ca565b5b90600052602060002090600b02016003015461435f919061551e565b600260008573ffffffffffffffffffffffffffffffffffffffff1673ffffffffffffffffffffffffffffffffffffffff168152602001908152602001600020600087815260200190815260200160002060090154613968565b6006600086815260200190815260200160002082815481106143dd576143dc6156ca565b5b90600052602060002090600b020160060181905550600192505050949350505050565b60006001905090565b6000818361441791906154ed565b905092915050565b604051806101600160405280600073ffffffffffffffffffffffffffffffffffffffff16815260200160008152602001600073ffffffffffffffffffffffffffffffffffffffff16815260200160008152602001600073ffffffffffffffffffffffffffffffffffffffff1681526020016000815260200160008152602001600081526020016000815260200160008152602001600073ffffffffffffffffffffffffffffffffffffffff1681525090565b60405180610180016040528060008152602001600073ffffffffffffffffffffffffffffffffffffffff168152602001600015158152602001600073ffffffffffffffffffffffffffffffffffffffff16815260200160008152602001600081526020016000815260200160008152602001600073ffffffffffffffffffffffffffffffffffffffff1681526020016000815260200160008152602001600081525090565b60008135905061458581615b97565b92915050565b60008135905061459a81615bae565b92915050565b6000815190506145af81615bae565b92915050565b6000813590506145c481615bc5565b92915050565b6000815190506145d981615bc5565b92915050565b6000602082840312156145f5576145f46156f9565b5b600061460384828501614576565b91505092915050565b60008060408385031215614623576146226156f9565b5b600061463185828601614576565b9250506020614642858286016145b5565b9150509250929050565b600080600060608486031215614665576146646156f9565b5b600061467386828701614576565b9350506020614684868287016145b5565b92505060406146958682870161458b565b9150509250925092565b600080600080600080600060e0888a0312156146be576146bd6156f9565b5b60006146cc8a828b01614576565b97505060206146dd8a828b016145b5565b96505060406146ee8a828b016145b5565b95505060606146ff8a828b016145b5565b94505060806147108a828b016145b5565b93505060a06147218a828b01614576565b92505060c06147328a828b016145b5565b91505092959891949750929550565b600060208284031215614757576147566156f9565b5b6000614765848285016145a0565b91505092915050565b600060208284031215614784576147836156f9565b5b6000614792848285016145b5565b91505092915050565b6000602082840312156147b1576147b06156f9565b5b60006147bf848285016145ca565b91505092915050565b600080604083850312156147df576147de6156f9565b5b60006147ed858286016145b5565b92505060206147fe85828601614576565b9150509250929050565b600080600080600060a08688031215614824576148236156f9565b5b6000614832888289016145b5565b955050602061484388828901614576565b9450506040614854888289016145b5565b935050606061486588828901614576565b9250506080614876888289016145b5565b9150509295509295909350565b6000806040838503121561489a576148996156f9565b5b60006148a8858286016145b5565b92505060206148b9858286016145b5565b9150509250929050565b60006148cf83836148f3565b60208301905092915050565b60006148e78383614f2d565b60208301905092915050565b6148fc816155ac565b82525050565b61490b816155ac565b82525050565b600061491c82615434565b6149268185615464565b935061493183615414565b8060005b8381101561496257815161494988826148c3565b97506149548361544a565b925050600181019050614935565b5085935050505092915050565b600061497a8261543f565b6149848185615475565b935061498f83615424565b8060005b838110156149c05781516149a788826148db565b97506149b283615457565b925050600181019050614993565b5085935050505092915050565b6149d6816155be565b82525050565b6149e5816155be565b82525050565b60006149f8600f83615486565b9150614a03826156fe565b602082019050919050565b6000614a1b600b83615486565b9150614a2682615727565b602082019050919050565b6000614a3e601183615486565b9150614a4982615750565b602082019050919050565b6000614a61602683615486565b9150614a6c82615779565b604082019050919050565b6000614a84601483615486565b9150614a8f826157c8565b602082019050919050565b6000614aa7601083615486565b9150614ab2826157f1565b602082019050919050565b6000614aca601383615486565b9150614ad58261581a565b602082019050919050565b6000614aed602683615486565b9150614af882615843565b604082019050919050565b6000614b10601783615486565b9150614b1b82615892565b602082019050919050565b6000614b33601583615486565b9150614b3e826158bb565b602082019050919050565b6000614b56600f83615486565b9150614b61826158e4565b602082019050919050565b6000614b79601483615486565b9150614b848261590d565b602082019050919050565b6000614b9c601683615486565b9150614ba782615936565b602082019050919050565b6000614bbf601683615486565b9150614bca8261595f565b602082019050919050565b6000614be2603083615486565b9150614bed82615988565b604082019050919050565b6000614c05602083615486565b9150614c10826159d7565b602082019050919050565b6000614c28601b83615486565b9150614c3382615a00565b602082019050919050565b6000614c4b601683615486565b9150614c5682615a29565b602082019050919050565b6000614c6e601383615486565b9150614c7982615a52565b602082019050919050565b6000614c91601b83615486565b9150614c9c82615a7b565b602082019050919050565b6000614cb4601183615486565b9150614cbf82615aa4565b602082019050919050565b6000614cd7601883615486565b9150614ce282615acd565b602082019050919050565b6000614cfa601f83615486565b9150614d0582615af6565b602082019050919050565b6000614d1d602e83615486565b9150614d2882615b1f565b604082019050919050565b6000614d40601d83615486565b9150614d4b82615b6e565b602082019050919050565b61016082016000820151614d6d60008501826148f3565b506020820151614d806020850182614f2d565b506040820151614d9360408501826148f3565b506060820151614da66060850182614f2d565b506080820151614db960808501826148f3565b5060a0820151614dcc60a0850182614f2d565b5060c0820151614ddf60c0850182614f2d565b5060e0820151614df260e0850182614f2d565b50610100820151614e07610100850182614f2d565b50610120820151614e1c610120850182614f2d565b50610140820151614e316101408501826148f3565b50505050565b61018082016000820151614e4e6000850182614f2d565b506020820151614e6160208501826148f3565b506040820151614e7460408501826149cd565b506060820151614e8760608501826148f3565b506080820151614e9a6080850182614f2d565b5060a0820151614ead60a0850182614f2d565b5060c0820151614ec060c0850182614f2d565b5060e0820151614ed360e0850182614f2d565b50610100820151614ee86101008501826148f3565b50610120820151614efd610120850182614f2d565b50610140820151614f12610140850182614f2d565b50610160820151614f27610160850182614f2d565b50505050565b614f36816155ea565b82525050565b614f45816155ea565b82525050565b6000602082019050614f606000830184614902565b92915050565b6000604082019050614f7b6000830185614902565b614f886020830184614902565b9392505050565b6000606082019050614fa46000830186614902565b614fb16020830185614902565b614fbe6040830184614f3c565b949350505050565b6000604082019050614fdb6000830185614902565b614fe86020830184614f3c565b9392505050565b600060208201905081810360008301526150098184614911565b905092915050565b6000602082019050818103600083015261502b818461496f565b905092915050565b600060208201905061504860008301846149dc565b92915050565b60006020820190508181036000830152615067816149eb565b9050919050565b6000602082019050818103600083015261508781614a0e565b9050919050565b600060208201905081810360008301526150a781614a31565b9050919050565b600060208201905081810360008301526150c781614a54565b9050919050565b600060208201905081810360008301526150e781614a77565b9050919050565b6000602082019050818103600083015261510781614a9a565b9050919050565b6000602082019050818103600083015261512781614abd565b9050919050565b6000602082019050818103600083015261514781614ae0565b9050919050565b6000602082019050818103600083015261516781614b03565b9050919050565b6000602082019050818103600083015261518781614b26565b9050919050565b600060208201905081810360008301526151a781614b49565b9050919050565b600060208201905081810360008301526151c781614b6c565b9050919050565b600060208201905081810360008301526151e781614b8f565b9050919050565b6000602082019050818103600083015261520781614bb2565b9050919050565b6000602082019050818103600083015261522781614bd5565b9050919050565b6000602082019050818103600083015261524781614bf8565b9050919050565b6000602082019050818103600083015261526781614c1b565b9050919050565b6000602082019050818103600083015261528781614c3e565b9050919050565b600060208201905081810360008301526152a781614c61565b9050919050565b600060208201905081810360008301526152c781614c84565b9050919050565b600060208201905081810360008301526152e781614ca7565b9050919050565b6000602082019050818103600083015261530781614cca565b9050919050565b6000602082019050818103600083015261532781614ced565b9050919050565b6000602082019050818103600083015261534781614d10565b9050919050565b6000602082019050818103600083015261536781614d33565b9050919050565b6000610160820190506153846000830184614d56565b92915050565b6000610180820190506153a06000830184614e37565b92915050565b60006020820190506153bb6000830184614f3c565b92915050565b600060a0820190506153d66000830188614f3c565b6153e36020830187614f3c565b6153f06040830186614f3c565b6153fd6060830185614f3c565b61540a6080830184614f3c565b9695505050505050565b6000819050602082019050919050565b6000819050602082019050919050565b600081519050919050565b600081519050919050565b6000602082019050919050565b6000602082019050919050565b600082825260208201905092915050565b600082825260208201905092915050565b600082825260208201905092915050565b60006154a2826155ea565b91506154ad836155ea565b9250827fffffffffffffffffffffffffffffffffffffffffffffffffffffffffffffffff038211156154e2576154e161563d565b5b828201905092915050565b60006154f8826155ea565b9150615503836155ea565b9250826155135761551261566c565b5b828204905092915050565b6000615529826155ea565b9150615534836155ea565b9250817fffffffffffffffffffffffffffffffffffffffffffffffffffffffffffffffff048311821515161561556d5761556c61563d565b5b828202905092915050565b6000615583826155ea565b915061558e836155ea565b9250828210156155a1576155a061563d565b5b828203905092915050565b60006155b7826155ca565b9050919050565b60008115159050919050565b600073ffffffffffffffffffffffffffffffffffffffff82169050919050565b6000819050919050565b60006155ff826155ea565b91507fffffffffffffffffffffffffffffffffffffffffffffffffffffffffffffffff8214156156325761563161563d565b5b600182019050919050565b7f4e487b7100000000000000000000000000000000000000000000000000000000600052601160045260246000fd5b7f4e487b7100000000000000000000000000000000000000000000000000000000600052601260045260246000fd5b7f4e487b7100000000000000000000000000000000000000000000000000000000600052603160045260246000fd5b7f4e487b7100000000000000000000000000000000000000000000000000000000600052603260045260246000fd5b600080fd5b7f71756573746f2066756e7a696f6e610000000000000000000000000000000000600082015250565b7f5265706179206572726f72000000000000000000000000000000000000000000600082015250565b7f617373657420646f6e277420666f756e64000000000000000000000000000000600082015250565b7f4f776e61626c653a206e6577206f776e657220697320746865207a65726f206160008201527f6464726573730000000000000000000000000000000000000000000000000000602082015250565b7f636f6c6c61746572616c206e6f742076616c6964000000000000000000000000600082015250565b7f62616c616e63652075736572206c6f7700000000000000000000000000000000600082015250565b7f4e6f74206f776e65722074686973206c6f616e00000000000000000000000000600082015250565b7f426f72726f77657220666f72207468697320636f6e7472616374206e6f74207060008201527f726573656e740000000000000000000000000000000000000000000000000000602082015250565b7f4e6f74206f776e6572207468697320636f6e7472616374000000000000000000600082015250565b7f54686973206c6f616e206e6f7420657870697265640000000000000000000000600082015250565b7f696e76616c696420616464726573730000000000000000000000000000000000600082015250565b7f416d6f756e7420617676616c69626c65206c6f77000000000000000000000000600082015250565b7f636f6c6c61746572616c20646f6e277420666f756e6400000000000000000000600082015250565b7f41737365747420616c726561647920696e206c69737400000000000000000000600082015250565b7f54686973206c656e6465722068617320626c6f636b656420746865206973737560008201527f616e6365206f66206e6577204c6f616e00000000000000000000000000000000602082015250565b7f4f776e61626c653a2063616c6c6572206973206e6f7420746865206f776e6572600082015250565b7f70656e616c697479206d75737420686176652067656174656520300000000000600082015250565b7f696e6372656173206d75737420626520706c7573203000000000000000000000600082015250565b7f636f6e747261637420646f6e7420657869737400000000000000000000000000600082015250565b7f646561646c696e65206d75737420686176652067656174656520300000000000600082015250565b7f616c6f77616e63652075736572206c6f77000000000000000000000000000000600082015250565b7f596f752063616e206f6e6c79204c6f616e20616d6f756e740000000000000000600082015250565b7f5265656e7472616e637947756172643a207265656e7472616e742063616c6c00600082015250565b7f41737365747420617676616c69626c6520696e73756666696369656e7420666f60008201527f7220746869732077686964726f77000000000000000000000000000000000000602082015250565b7f436f6e7472616374206861766520617373657420696e20626f72726f77000000600082015250565b615ba0816155ac565b8114615bab57600080fd5b50565b615bb7816155be565b8114615bc257600080fd5b50565b615bce816155ea565b8114615bd957600080fd5b5056fea26469706673582212200a50689f6b478be54df67709dc2a1c59ec4a6f355b6857b14d12d489132bbb9a64736f6c63430008070033",
  "immutableReferences": {},
  "source": "// SPDX-License-Identifier: Leluk911\n\npragma solidity 0.8.7;\n\nimport \"../node_modules/@openzeppelin/contracts/token/ERC20/IERC20.sol\";\nimport \"../node_modules/@openzeppelin/contracts/access/Ownable.sol\";\nimport \"../node_modules/@openzeppelin/contracts/utils/Counters.sol\";\nimport \"../node_modules/@openzeppelin/contracts/security/ReentrancyGuard.sol\";\nimport \"./storage.sol\";\nimport \"./interestCalculator.sol\";\n\ncontract lendingPage is Storage,Ownable,ReentrancyGuard {\n    //library\n\n    using Counters for Counters.Counter;\n    //function variable\n    Counters.Counter private Id; // id every lending contract\n    \n    //-------------------------------//\n    constructor(uint _minpenality){\n        Id.increment();\n        minPenality = _minpenality;\n    }\n    // INTERNAL FUNCTION \n    function _setAssettAvvalible(address _newAsset) internal{\n        require(_newAsset != address(0), \"invalid address\");\n        require(!_findAsset(_newAsset),\"Assett already in list\");\n        assetAvvalible.push(_newAsset);\n        emit NewAssetAvvalible(_newAsset, block.timestamp);   \n    }\n    function _healFactor(uint _priceCollateralETH, uint _priceBorrowEth) internal pure returns(uint){\n        return (_priceCollateralETH/_priceBorrowEth);\n    }\n    function _liquidationThresold( uint _priceBorrowEth,uint _rateLiquidation) internal pure returns(uint){\n        return (\n            //uint _priceCollateralETH,\n            //(_priceCollateralETH * _priceBorrowEth)/(_rateLiquidation * _priceBorrowEth)\n            _priceBorrowEth * _rateLiquidation \n\n        );\n    }\n    //-----> Serch function  \n    function _findAsset(address _asset) internal view returns(bool){\n        for(uint i = 0; i<assetAvvalible.length; i++){\n            if(assetAvvalible[i]==_asset){\n                return true;\n            }\n        }\n        return false;\n    }\n    function _getAssettAvvalible()internal view returns (address[] memory ){\n        return assetAvvalible; \n    }\n    //-----> Search function user \n    function _listContractXuser(address _user) internal view returns(uint[] memory){\n       return listContractUser[_user];\n    }\n     function _findContractLending(address _to,uint _id)internal view returns(LendingContract memory){\n        return userLendingContract[_to][_id];\n    }\n     function _findArrayindexContract(address _to,uint deleteId)internal view returns(uint,bool){\n            uint index = 0;\n            bool response = false;\n            for(uint i=0 ;i<listContractUser[_to].length;i++){\n                if (deleteId == listContractUser[_to][i]){\n                    index = i;\n                    response = true;\n                }\n            }\n            return (index,response);\n        \n    }\n    function _findContractAvvalible(uint _IdFind)internal view returns(uint,bool){\n         uint index = 0;\n         bool response = false;\n         for(uint i=0 ;i<listContract.length;i++){\n             if (_IdFind == listContract[i]){\n                 index = i;\n                 response = true;\n             }\n         }\n         return (index,response);\n     \n    }\n    //------> Search function Borrower\n    function _serchIndexBorrowerXContract(uint _idContract,address _borrower) internal view returns(bool,uint){\n      for(uint i =0; i<borrowersXid[_idContract].length;i++ ){\n          if(borrowersXid[_idContract][i].owner == _borrower){\n              return (true,i);\n          }\n      }\n      return (false,0);\n    }\n    function _serchBorrowerPositionXContract(uint _idContract,address _borrower) internal view returns(Borrower memory){\n       for(uint i =0; i<borrowersXid[_idContract].length;i++ ){\n           if(borrowersXid[_idContract][i].owner == _borrower){\n               return (borrowersXid[_idContract][i]);\n           }\n       }\n       revert(\"Borrower for this contract not present\");\n    }\n    // ----> User Function\n    function _deposit(address _to,address _asset,uint _amount,uint _apr,uint _deadline,uint _penality,address _collateral,uint _rateCollateral)internal {\n        //check\n        require(_to != address(0), \"invalid address\");\n        require(_asset != _collateral, \"collateral not valid\");\n        require(_findAsset(_asset),\"asset don't found\");\n        require(_findAsset(_collateral),\"collateral don't found\");\n        require(IERC20(_asset).balanceOf(_to) >= _amount,\"balance user low\");\n        require(IERC20(_asset).allowance(_to, address(this)) >= _amount,\"alowance user low\");\n        require(_deadline > 0,\"deadline must have geatee 0\");\n        require(_penality >=  minPenality,\"penality must have geatee 0\");    \n        // action\n        //uint balanceContract = IERC20(_asset).balanceOf(address(this)); \n        IERC20(_asset).transferFrom(_to,address(this), _amount);\n        //require(balanceContract+_amount == IERC20(_asset).balanceOf(address(this)));\n        // prepare local variable\n        LendingContract memory newContract= LendingContract(\n            Id.current(),\n            _to,\n            false,\n            _asset,\n            //_amount,\n            _amount,\n            _apr,\n            _deadline,\n            _penality,\n            _collateral,\n            0,\n            _rateCollateral,\n            0\n        );\n        // update status global variable\n        userLendingContract[_to][Id.current()] = newContract;\n        emit NewContractDeposit(\n            Id.current(),_to,_asset,_amount,_apr,_deadline,_penality, _collateral\n        );\n        listContractUser[_to].push(Id.current());\n        listContract.push(Id.current());\n        Id.increment();\n\n\n    }\n    function _increasDeposit(address _to,uint _idContract, uint _increasAmount) internal  contractOwner(_to, _idContract){\n        require(_increasAmount > 0, \"increas must be plus 0\");\n        require(IERC20(_findContractLending(_to,_idContract).asset).balanceOf(_to) >= _increasAmount,\"balance user low\");\n        require(IERC20(_findContractLending(_to,_idContract).asset).allowance(_to, address(this)) >= _increasAmount,\"alowance user low\");\n        \n        //uint balanceContract = IERC20(_findContractLending(_to,_idContract).asset).balanceOf(address(this)); \n        IERC20(_findContractLending(_to,_idContract).asset).transferFrom(_to,address(this), _increasAmount);\n        //require(balanceContract+_increasAmount == IERC20(_findContractLending(_to,_idContract).asset).balanceOf(address(this)));\n\n        userLendingContract[_to][_idContract].amountAvvalible += _increasAmount; \n\n        emit IncreasContractDeposit(\n            _findContractLending(_to,_idContract).id,\n            _findContractLending(_to,_idContract).amountAvvalible - _increasAmount,\n            _findContractLending(_to,_idContract).amountAvvalible  \n        );\n    }\n    function _decreasDeposit(address _to,uint _idContract, uint _decreasAmount) internal contractOwner(_to, _idContract){\n        require(_decreasAmount > 0, \"increas must be plus 0\");\n        require(\n            _findContractLending(_to,_idContract).amountAvvalible >= _decreasAmount, \"Assett avvalible insufficient for this whidrow\"\n        );\n     \n\n        userLendingContract[_to][_idContract].amountAvvalible -= _decreasAmount;\n\n        //uint balanceContract = IERC20(_findContractLending(_to,_idContract).asset).balanceOf(address(this)); \n        IERC20(_findContractLending(_to,_idContract).asset).transfer(_to,_decreasAmount);\n        //require(balanceContract -_decreasAmount == IERC20(_findContractLending(_to,_idContract).asset).balanceOf(address(this)));\n\n        emit DecreasContractDeposit(\n            _findContractLending(_to,_idContract).id,\n            _findContractLending(_to,_idContract).amountAvvalible + _decreasAmount,\n            _findContractLending(_to,_idContract).amountAvvalible\n            \n        );\n\n    }\n    function _deleteContract(address _to,uint _idContract)internal contractOwner(_to, _idContract){\n       require(\n            _findContractLending(_to,_idContract).amountBorrow == 0, \"Contract have asset in borrow\"\n        ); \n        uint amountRepay = userLendingContract[_to][_idContract].amountAvvalible;\n        uint deleteId = userLendingContract[_to][_idContract].id;\n        address assetWidrow =_findContractLending(_to,_idContract).asset;\n        delete userLendingContract[_to][_idContract];\n        if(listContractUser[_to].length > 0){\n             // serch index of delete\n            (uint indexDelete, bool response) = _findArrayindexContract(_to, deleteId);\n            if(response){\n                //clean array\n                listContractUser[_to][indexDelete]=listContractUser[_to][listContractUser[_to].length -1];\n                listContractUser[_to].pop();\n            }\n        }else{\n            listContractUser[_to].pop(); // clean array\n        }\n          if(listContract.length > 0){\n             // serch index of delete\n            (uint indexDelete, bool response) = _findContractAvvalible(_idContract);\n            if(response){\n                //clean array\n                listContract[indexDelete] = listContract[listContract.length -1];\n                listContract.pop();\n            }\n        }else{\n            listContract.pop(); // clean array\n        }\n        //uint balanceContract = IERC20(assetWidrow).balanceOf(address(this)); \n        IERC20(assetWidrow).transfer(_to,amountRepay);\n        //require(balanceContract -amountRepay == IERC20(assetWidrow).balanceOf(address(this)));\n\n        emit DeleteContractDeposit(_to, deleteId);\n    }\n    function _lockNewBorrow(address _to,uint _idContract,bool _lock)internal contractOwner(_to, _idContract){\n             lock[_idContract] = _lock;\n            //userLendingContract[_to][_idContract].lock = _lock;   \n       \n    }\n  \n    //BORROW FUNCTION\n    function _executeBorrow(address _to,uint _idContract,address _lender,uint _amountBorrow,address _assettCollateral,uint _amountCollateral) internal {\n        require(lock[_idContract] == false, \"questo funziona\");\n        require(userLendingContract[_to][_idContract].lock == false,\"This lender has blocked the issuance of new Loan\");\n        (,bool response) = _findArrayindexContract(_lender,_idContract);\n        require(response,\"contract dont exist\");\n        require(userLendingContract[_lender][_idContract].amountAvvalible >= _amountBorrow,\"Amount avvalible low\");\n        //// controll and utility  local var\n        //uint _priceCollateralETH = _mockOracleCollateral();// fix with true oracle\n        uint _priceBorrowEth = _mockOracleBorrow();// fix with true oracle\n        uint _rateLiquidation = userLendingContract[_lender][_idContract].rateCollateral;\n        (bool responseSrc,uint indexBorrow) = _serchIndexBorrowerXContract(_idContract, _to);\n        //check before act borrow \n      \n    \n        if(!responseSrc){\n            _newBorrower(_to,_lender, _idContract, _assettCollateral, _amountCollateral, _amountBorrow, _rateLiquidation);\n        }else{\n            require(_liquidationThresold(\n                          //_priceCollateralETH*borrowersXid[_idContract][indexBorrow].ammounBorrow,\n                          _priceBorrowEth*borrowersXid[_idContract][indexBorrow].amountCollateral,\n                           _rateLiquidation) > _mockOracleBorrow());\n            _oldBorrower(_to, _lender, _idContract, _assettCollateral, _amountCollateral, _amountBorrow, _rateLiquidation, indexBorrow);\n\n        }\n\n        emit Borrow(_to, _idContract, _amountBorrow);\n    }\n    function _oldBorrower(address _to,address _lender,uint _idContract,address _assettCollateral,uint _amountCollateral,uint _amountBorrow, uint _rateLiquidation,uint indexBorrow)internal {\n        // gia cliente??\n        // aggiorniamo i conti vecchi \n        // aggiungere al controllo le coin gia depositate e prese in prestito \n        require(_to == borrowersXid[_idContract][indexBorrow].owner, \"Not owner this loan\" );\n        require(_healFactor(_mockOracleCollateral() *(borrowersXid[_idContract][indexBorrow].amountCollateral + _amountCollateral),\n                             _mockOracleBorrow() *(borrowersXid[_idContract][indexBorrow].ammounBorrow + _amountBorrow)\n                             )> userLendingContract[_lender][_idContract].rateCollateral); \n\n        //uint balanceBefore = IERC20(_assettCollateral).balanceOf(address(this));\n        IERC20(_assettCollateral).transferFrom(_to, address(this), _amountCollateral);\n        //require( balanceBefore + _amountCollateral == IERC20(_assettCollateral).balanceOf(address(this)));\n\n        borrowersXid[_idContract][indexBorrow].ammounBorrow += _amountBorrow;// aggiornata la variabile globale\n        borrowersXid[_idContract][indexBorrow].amountCollateral += _amountCollateral;// aggiornata la variabile globale\n        // updata thresoldLiquidation \n        borrowersXid[_idContract][indexBorrow].liquidationThreshold =\n                _liquidationThresold(\n                    //_mockOracleCollateral()*borrowersXid[_idContract][indexBorrow].amountCollateral,\n                    _mockOracleBorrow()*borrowersXid[_idContract][indexBorrow].ammounBorrow,\n                     _rateLiquidation);\n        userLendingContract[_lender][_idContract].amountAvvalible -=_amountBorrow;// togliamo le coin prestare\n        userLendingContract[_lender][_idContract].amountBorrow += _amountBorrow; // incrementiamo il capitale prestato\n        userLendingContract[_lender][_idContract].amountCollateral += _amountCollateral;// aggiungiamo la quantita di collaterale presente nel contratto\n        //BorrowerContract[_to][indexBorrow] = borrowersXid[_idContract][indexBorrow];\n        IERC20(userLendingContract[_lender][_idContract].asset).transfer(_to, _amountBorrow);\n\n    }\n    function _newBorrower(address _to,address _lender,uint _idContract,address _assettCollateral,uint _amountCollateral,uint _amountBorrow, uint _rateLiquidation)internal {\n        // nuovo cliente????\n        // conti nuovi\n        require(_healFactor(_mockOracleCollateral() * _amountCollateral, _mockOracleBorrow()*_amountBorrow) > userLendingContract[_lender][_idContract].rateCollateral);\n        // spreco di gas????\n        //uint balanceBefore = IERC20(_assettCollateral).balanceOf(address(this));\n        IERC20(_assettCollateral).transferFrom(_to, address(this), _amountCollateral);\n        //require( balanceBefore + _amountCollateral == IERC20(_assettCollateral).balanceOf(address(this)));\n        // preparazione dei dati del borrower non ancora settat nella variabile locale\n        Borrower memory newBorrower = Borrower(\n                                            _to,\n                                            _idContract,\n                                            userLendingContract[_lender][_idContract].asset,\n                                            _amountBorrow,\n                                            //uint heltBorrow;\n                                            _assettCollateral,\n                                            _amountCollateral,\n                                            _liquidationThresold(\n                                                //_mockOracleCollateral()*_amountCollateral,\n                                                 _mockOracleBorrow()*_amountBorrow,\n                                                 _rateLiquidation),\n                                            block.timestamp + userLendingContract[_lender][_idContract].duration,\n                                            block.timestamp,\n                                            _findContractLending(_lender,_idContract).apr,\n                                            _lender\n\n                                            );\n\n        borrowersXid[_idContract].push(newBorrower);// aggiornata la variabile locale\n        // aggiorniamo i dati del lender\n\n        userLendingContract[_lender][_idContract].amountAvvalible -=_amountBorrow;// togliamo le coin prestare\n        userLendingContract[_lender][_idContract].amountBorrow += _amountBorrow; // incrementiamo il capitale prestato\n        userLendingContract[_lender][_idContract].amountCollateral += _amountCollateral;// aggiungiamo la quantita di collaterale presente nel contratto\n        //BorrowerContract[_to][borrowersXid[_idContract].length] = newBorrower;\n        IERC20(userLendingContract[_lender][_idContract].asset).transfer(_to, _amountBorrow);\n    }\n    \n    // EXTERNAL FUNCTION\n    function setAssettAvvalible(address _newAsset) external nonReentrant() onlyOwner() {\n        _setAssettAvvalible(_newAsset);\n    } \n    function findAsset(address _asset) external view returns(bool){\n        return _findAsset(_asset);\n    }\n    function deposit(address _asset,uint _amount,uint _apr,uint _deadline,uint _penality,address _collateral,uint _rateCollateral) external nonReentrant() {\n        _deposit(msg.sender, _asset, _amount, _apr, _deadline, _penality, _collateral,_rateCollateral);\n    }\n    function listContractXuser(address _user) external view returns(uint[] memory){\n        return _listContractXuser(_user);\n    }\n    function getAssettAvvalible()external view returns (address[] memory ){\n        return _getAssettAvvalible(); \n    }\n    function findContractLending(address _to,uint _id)external view returns(LendingContract memory){\n        return _findContractLending(_to, _id);\n    }\n     function increasDeposit(uint _idContract, uint _increasAmount) external nonReentrant(){\n        _increasDeposit(msg.sender, _idContract, _increasAmount);\n    }\n    function decreasDeposit(uint _idContract, uint _decreasAmount) external nonReentrant(){\n        _decreasDeposit(msg.sender, _idContract, _decreasAmount);\n    }\n    function deleteContract(uint _idContract) external nonReentrant(){\n        _deleteContract(msg.sender, _idContract);\n    }\n     function executeBorrow(uint _idContract,address _lender,uint _amountBorrow,address _assettCollateral,uint _amountCollateral) external nonReentrant(){\n        _executeBorrow(msg.sender, _idContract, _lender, _amountBorrow, _assettCollateral, _amountCollateral);\n    }\n    function serchBorrowerPositionXContract(uint _idContract,address _borrower) external view returns (Borrower memory){\n        return _serchBorrowerPositionXContract(_idContract, _borrower);\n\n    }\n    function serchIndexBorrowerXContract(uint _idContract,address _borrower)external view returns(uint){\n        (,uint idFind) = _serchIndexBorrowerXContract(_idContract, _borrower);\n        return idFind;\n    }\n    function lockNewBorrow(address _to,uint _idContract,bool _lock)external nonReentrant(){\n       \n        _lockNewBorrow(_to, _idContract,_lock);\n    }\n\n    //// ^^^^^TESTED^^^^^\n    /// vvvvvvNON TESTEDvvvvv\n   \n    // MODIFIER\n    modifier contractOwner(address _to,uint _idContract){\n        require(\n           _findContractLending(_to,_idContract).owner == _to, \"Not owner this contract\" \n        );\n        _;\n    }\n    // EVENT \n\n     event NewAssetAvvalible(address indexed asset, uint timeStart);\n     event NewContractDeposit(\n        uint Id,\n        address indexed owner,\n        address indexed asset,\n        uint amount,\n        uint apr,\n        uint  deadline,\n        uint  penality,\n        address indexed collateral\n     );\n     event IncreasContractDeposit(\n        uint Id,\n        uint indexed amount,\n        uint indexed newAmount\n     );\n     event DecreasContractDeposit(\n        uint Id,\n        uint indexed amount,\n        uint indexed newAmount\n     );\n\n     event DeleteContractDeposit(\n        address indexed owner,\n        uint indexed id\n     );\n     event Borrow( address indexed Borrower,uint indexed Id_Contract, uint amount);\n\n    // mock function\n\n    function _mockOracleBorrow() internal pure returns(uint price){\n        price = 2;\n    }\n\n    function _mockOracleCollateral() internal pure returns(uint price){\n        price = 1;\n\n    }\n\n    //wiew amount of repay \n    function viewAmountLoan(address  _borrower,uint _idContract) external view returns(uint loanCompouse) {\n        Borrower memory loanSituation = _serchBorrowerPositionXContract(_idContract, _borrower);\n        uint apr = loanSituation.aprLoan;\n        uint blockStart = loanSituation.blockStart; \n        loanCompouse = InterestCalculator._getTotalLoan(loanSituation.ammounBorrow,apr,blockStart); \n        }\n\n  \n    event repay(address indexed _to, uint indexed _idContract,uint _amount);\n    event applyPenality(address indexed _to,uint  indexed _idContract,uint _amount);\n\n\n    function _executeRepay(address _to, uint _idContract,uint _amount) internal {\n        Borrower memory loanSituation = _serchBorrowerPositionXContract(_idContract, _to);\n        require(_to  == loanSituation.owner ,\"Not owner this loan\");\n\n        if(block.timestamp > loanSituation.expiration){\n            require(_penalityLoan(loanSituation, _amount, _to, _idContract));// gestire la penalit\n        }else{\n            require(_repay(loanSituation, _amount, _to, _idContract),\"Repay error\");\n        }\n        emit repay(_to, _idContract, _amount);\n    }\n\n    function _repay(Borrower memory loanSituation, uint _amount,address _to,uint _idContract) internal returns(bool){\n        // portiamo ad adesso la situazione\n            loanSituation.ammounBorrow = InterestCalculator._getTotalLoan(\n                loanSituation.ammounBorrow,loanSituation.aprLoan,loanSituation.blockStart);\n            // ripagando si ricomincia il calcolo degli interessi come fosse un prestito nuovo\n            require(loanSituation.ammounBorrow >= _amount, \"You can only Loan amount\");\n\n            //uint Balance = IERC20(loanSituation.assetBorrow).balanceOf(address(this));\n            IERC20(loanSituation.assetBorrow).transferFrom(_to,address(this), _amount);\n            //assert(Balance + _amount == IERC20(loanSituation.assetBorrow).balanceOf(address(this)));\n\n            // receipt the \"ternis\" update the data lender and borrower\n            address _lender = loanSituation.lender;\n            userLendingContract[_lender][_idContract].amountBorrow -= _amount;\n            userLendingContract[_lender][_idContract].amountAvvalible += _amount;\n\n            (,uint indexBorrow) = _serchIndexBorrowerXContract(_idContract, _to);\n\n\n            borrowersXid[_idContract][indexBorrow].ammounBorrow -= _amount;\n            borrowersXid[_idContract][indexBorrow].blockStart = block.timestamp;\n            borrowersXid[_idContract][indexBorrow].liquidationThreshold = \n                _liquidationThresold(\n                      borrowersXid[_idContract][indexBorrow].ammounBorrow * _mockOracleBorrow(),\n                      userLendingContract[_lender][_idContract].rateCollateral);\n            return true;\n    }\n\n    function _penalityLoan (Borrower memory loanSituation, uint _amount,address _to,uint _idContract) internal returns(bool){\n        require(loanSituation.expiration < block.timestamp, \"This loan not expired\");\n        //penality 2% of pay\n        uint new_amount = (_amount *88)/100;\n        // per ora va tutto al lendere ma poi ci applichiamo delle fee\n        userLendingContract[loanSituation.lender][_idContract].amountAvvalible += _amount - new_amount;// tutto /2\n        // balanceContract[assett] += (_amount - new_amount)/2\n        require(_repay(loanSituation, new_amount, _to, _idContract));\n        emit applyPenality(_to, _idContract,new_amount);\n        return true;\n    }\n    \n    event newTimeExpireIncreas(uint indexed _idContract, uint indexed _timeIncreas);\n    event newTimeExpireDecreas(uint indexed _idContract, uint indexed _timeIncreas);\n\n    function _increaseTimeExpire(address _to,uint _idContract, uint _timeIncreas)internal contractOwner(_to, _idContract){\n            userLendingContract[_to][_idContract].duration += _timeIncreas;  \n            emit newTimeExpireIncreas(_idContract, _timeIncreas);   \n    }\n    function _decreaseTimeExpire(address _to,uint _idContract, uint _timeIncreas)internal contractOwner(_to, _idContract){\n            require(userLendingContract[_to][_idContract].amountBorrow == 0);\n            userLendingContract[_to][_idContract].duration += _timeIncreas;\n            emit newTimeExpireDecreas(_idContract, _timeIncreas);     \n    }\n\n\n    function _liquidationCall(address _to,uint _idContract,uint _idBorrow) internal contractOwner(_to, _idContract) {\n        require(borrowersXid[_idContract][_idBorrow].liquidationThreshold <= _mockOracleCollateral(),\"thresold Liquidation price not achieved\");\n        // 1/4 viene lioquidato\n        uint liquidationAmount = borrowersXid[_idContract][_idBorrow].amountCollateral /4; // parte da liquidare\n        // tolgo dalla posizione del borrower il collaterale liquidato (quidni non puo prelevare)\n        borrowersXid[_idContract][_idBorrow].amountCollateral -= liquidationAmount;\n        // dallo status contratto tolgo il collaterale perche diventa prelevabile\n        userLendingContract[borrowersXid[_idContract][_idBorrow].lender][_idContract].amountCollateral -= liquidationAmount;\n        // riduco il credito del lender\n        userLendingContract[borrowersXid[_idContract][_idBorrow].lender][_idContract].amountBorrow -= liquidationAmount * _mockOracleCollateral();\n        // riduco il debito del borrower\n        borrowersXid[_idContract][_idBorrow].ammounBorrow -= liquidationAmount * _mockOracleCollateral();\n        // aggiorniamo il ThresoldLiquidation\n        borrowersXid[_idContract][_idBorrow].liquidationThreshold = _liquidationThresold(\n             _mockOracleBorrow() * borrowersXid[_idContract][_idBorrow].ammounBorrow,\n             userLendingContract[borrowersXid[_idContract][_idBorrow].lender][_idContract].rateCollateral\n             );\n        // rendo prelevabile il collaterale\n        liquidationContract[borrowersXid[_idContract][_idBorrow].owner][borrowersXid[_idContract][_idBorrow].assetCollaterl] += liquidationAmount;\n\n     \n    }\n\n    mapping (address=> mapping(address=> uint)) liquidationContract;\n\n\n\n\n    function executeRepay(uint _idContract,uint _amount) external nonReentrant(){\n        _executeRepay(msg.sender, _idContract, _amount);\n    }\n\n\n    function increaseTimeExpire(uint _idContract, uint _timeIncreas)external nonReentrant(){\n          _increaseTimeExpire(msg.sender, _idContract, _timeIncreas);\n    }\n    function decreaseTimeExpire(uint _idContract, uint _timeIncreas)external nonReentrant(){\n          _decreaseTimeExpire(msg.sender, _idContract, _timeIncreas);\n    }\n\n\n}/**\n    3 -> Ripagare il Borrow e cambiare il margine\n            -> Applicare qui la Fee ? \n\n    4 -> Liquidazione collatterale, \n            -> problema -> Calcolo matematico \n            -> Quanto liquidare?\n            -> Come cambiano i valori dopo la liquidazione?\n            -> Voglio dare al lender la possibilit di vendere a mercato la liquidazione? \n            -> Gestione delle fee da pagare al protocollo \n    \n    5 -> a carico di chi sono le fee? lender o borrower ?\n            -> dove prendere le fee? \n                -> dall interesse del lender\n                    -> come lo calcolo?\n                    -> quando le prendo ?\n                -> dal pagamento del debito ? \n                    ->  pi vantaggioso progettualmente\n                    ->  competitiva come strategia?\n            -> HOW MUCH ????\n                -> 0.50% su ogni pagamento ???? -> tariffa standard\n                -> 1% fino al 5%        Tariffa liquidazione\n                -> 2% dal 5% al 10%     Tariffa liquidazione\n                -> 4% dal 10% al 20%    Tariffa liquidazione\n                -> 5% dal 20% al 30%    Tariffa liquidazione\n                -> 6% dal 30% al 100%   Tariffa liquidazione\n                    -> Vendere a mercato e realizare subito usd?\n                    -> detenere gli asset? \n                    -> miso detenere blue chips e dumpare il resto.\n \n\n nonReentrant()\n onlyOwner()\n \n\n\n \n */\n",
  "sourcePath": "/media/leluk/storage/Studio Dev/Dapp portfolio/individual lending/contracts/Individual_lending.sol",
  "compiler": {
    "name": "solc",
    "version": "0.8.7+commit.e28d00a7.Emscripten.clang"
  },
  "schemaVersion": "3.4.7",
  "updatedAt": "2022-06-23T05:15:22.849Z",
  "devdoc": {
    "kind": "dev",
    "methods": {
      "owner()": {
        "details": "Returns the address of the current owner."
      },
      "renounceOwnership()": {
        "details": "Leaves the contract without owner. It will not be possible to call `onlyOwner` functions anymore. Can only be called by the current owner. NOTE: Renouncing ownership will leave the contract without an owner, thereby removing any functionality that is only available to the owner."
      },
      "transferOwnership(address)": {
        "details": "Transfers ownership of the contract to a new account (`newOwner`). Can only be called by the current owner."
      }
    },
    "version": 1
  },
  "userdoc": {
    "kind": "user",
    "methods": {},
    "version": 1
  }
}