{
  "contractName": "PriceConsumerV3",
  "abi": [
    {
      "inputs": [
        {
          "internalType": "address",
          "name": "_priceFeed",
          "type": "address"
        }
      ],
      "name": "getLatestPrice",
      "outputs": [
        {
          "internalType": "int256",
          "name": "",
          "type": "int256"
        }
      ],
      "stateMutability": "view",
      "type": "function"
    }
  ],
  "bytecode": "0x608060405234801561001057600080fd5b506101ca806100206000396000f3fe608060405234801561001057600080fd5b506004361061002b5760003560e01c806316345f1814610030575b600080fd5b61004361003e366004610107565b610055565b60405190815260200160405180910390f35b60008082905060008173ffffffffffffffffffffffffffffffffffffffff1663feaf968c6040518163ffffffff1660e01b815260040160a06040518083038186803b1580156100a357600080fd5b505afa1580156100b7573d6000803e3d6000fd5b505050506040513d601f19601f820116820180604052508101906100db9190610144565b5091979650505050505050565b805169ffffffffffffffffffff8116811461010257600080fd5b919050565b60006020828403121561011957600080fd5b813573ffffffffffffffffffffffffffffffffffffffff8116811461013d57600080fd5b9392505050565b600080600080600060a0868803121561015c57600080fd5b610165866100e8565b9450602086015193506040860151925060608601519150610188608087016100e8565b9050929550929590935056fea264697066735822122046899384f47302149561cac411feb4813923f1e745a876c4a1f9c77bb29439be64736f6c63430008070033",
  "immutableReferences": {},
  "source": "// SPDX-License-Identifier: MIT\npragma solidity ^0.8.7;\n\nimport \"./AggregatorV3Interface.sol\";\n\ncontract PriceConsumerV3 {\n\n    \n    function getLatestPrice(address _priceFeed) public view returns (int) {\n        AggregatorV3Interface priceFeed = AggregatorV3Interface(_priceFeed);\n        (\n            /*uint80 roundID*/,\n            int price,\n            /*uint startedAt*/,\n            /*uint timeStamp*/,\n            /*uint80 answeredInRound*/\n        ) = priceFeed.latestRoundData();\n        return price;\n    }\n}\n",
  "sourcePath": "/media/leluk/storage/Studio Dev/Dapp portfolio/individual lending/contracts/chainlinkUtils/AggregatorV3.sol",
  "compiler": {
    "name": "solc",
    "version": "0.8.7+commit.e28d00a7.Emscripten.clang"
  },
  "schemaVersion": "3.4.7",
  "updatedAt": "2022-06-29T18:37:11.221Z",
  "devdoc": {
    "kind": "dev",
    "methods": {},
    "version": 1
  },
  "userdoc": {
    "kind": "user",
    "methods": {},
    "version": 1
  }
}